{
  "_format": "hh-sol-artifact-1",
  "contractName": "Metadata",
  "sourceName": "src/utils/Metadata.sol",
  "abi": [
    {
      "inputs": [
        {
          "internalType": "address",
          "name": "_token",
          "type": "address"
        }
      ],
      "stateMutability": "nonpayable",
      "type": "constructor"
    },
    {
      "inputs": [
        {
          "internalType": "address",
          "name": "_required",
          "type": "address"
        },
        {
          "internalType": "address",
          "name": "_provided",
          "type": "address"
        }
      ],
      "name": "InvalidSender",
      "type": "error"
    },
    {
      "inputs": [
        {
          "internalType": "uint256",
          "name": "_id",
          "type": "uint256"
        },
        {
          "internalType": "string",
          "name": "_uri",
          "type": "string"
        }
      ],
      "name": "setURI",
      "outputs": [],
      "stateMutability": "nonpayable",
      "type": "function"
    },
    {
      "inputs": [
        {
          "internalType": "uint256",
          "name": "_id",
          "type": "uint256"
        }
      ],
      "name": "uri",
      "outputs": [
        {
          "internalType": "string",
          "name": "",
          "type": "string"
        }
      ],
      "stateMutability": "view",
      "type": "function"
    }
  ],
  "bytecode": "0x60a060405234801561001057600080fd5b5060405161069938038061069983398101604081905261002f91610040565b6001600160a01b0316608052610070565b60006020828403121561005257600080fd5b81516001600160a01b038116811461006957600080fd5b9392505050565b6080516106076100926000396000818161011f015261027a01526106076000f3fe608060405234801561001057600080fd5b50600436106100365760003560e01c80630e89341c1461003b578063862440e214610064575b600080fd5b61004e610049366004610381565b610079565b60405161005b9190610405565b60405180910390f35b61007761007236600461044e565b61011b565b005b600081815260208190526040902080546060919061009690610527565b80601f01602080910402602001604051908101604052809291908181526020018280546100c290610527565b801561010f5780601f106100e45761010080835404028352916020019161010f565b820191906000526020600020905b8154815290600101906020018083116100f257829003601f168201915b50505050509050919050565b60007f000000000000000000000000000000000000000000000000000000000000000073ffffffffffffffffffffffffffffffffffffffff1663f77c47916040518163ffffffff1660e01b8152600401602060405180830381865afa158015610188573d6000803e3d6000fd5b505050506040513d601f19601f820116820180604052508101906101ac919061057a565b90503373ffffffffffffffffffffffffffffffffffffffff82161461021f576040517fe1130dba00000000000000000000000000000000000000000000000000000000815273ffffffffffffffffffffffffffffffffffffffff8216600482015233602482015260440160405180910390fd5b600083815260208181526040909120835161023c928501906102e8565b506040517f0986c67700000000000000000000000000000000000000000000000000000000815273ffffffffffffffffffffffffffffffffffffffff7f00000000000000000000000000000000000000000000000000000000000000001690630986c677906102b190869086906004016105b0565b600060405180830381600087803b1580156102cb57600080fd5b505af11580156102df573d6000803e3d6000fd5b50505050505050565b8280546102f490610527565b90600052602060002090601f016020900481019282610316576000855561035c565b82601f1061032f57805160ff191683800117855561035c565b8280016001018555821561035c579182015b8281111561035c578251825591602001919060010190610341565b5061036892915061036c565b5090565b5b80821115610368576000815560010161036d565b60006020828403121561039357600080fd5b5035919050565b6000815180845260005b818110156103c0576020818501810151868301820152016103a4565b818111156103d2576000602083870101525b50601f017fffffffffffffffffffffffffffffffffffffffffffffffffffffffffffffffe0169290920160200192915050565b602081526000610418602083018461039a565b9392505050565b7f4e487b7100000000000000000000000000000000000000000000000000000000600052604160045260246000fd5b6000806040838503121561046157600080fd5b82359150602083013567ffffffffffffffff8082111561048057600080fd5b818501915085601f83011261049457600080fd5b8135818111156104a6576104a661041f565b604051601f82017fffffffffffffffffffffffffffffffffffffffffffffffffffffffffffffffe0908116603f011681019083821181831017156104ec576104ec61041f565b8160405282815288602084870101111561050557600080fd5b8260208601602083013760006020848301015280955050505050509250929050565b600181811c9082168061053b57607f821691505b602082108103610574577f4e487b7100000000000000000000000000000000000000000000000000000000600052602260045260246000fd5b50919050565b60006020828403121561058c57600080fd5b815173ffffffffffffffffffffffffffffffffffffffff8116811461041857600080fd5b8281526040602082015260006105c9604083018461039a565b94935050505056fea264697066735822122051f426ff837ba7ea0baf6a1e8c2a5d70b6aaee175d5a00aeb028c42cb76cb15864736f6c634300080d0033",
  "linkReferences": {},
  "deployedLinkReferences": {}
}