{
  "abi": [
    {
      "inputs": [
        {
          "internalType": "address",
          "name": "_registry",
          "type": "address"
        }
      ],
      "stateMutability": "nonpayable",
      "type": "constructor"
    },
    {
      "inputs": [
        {
          "internalType": "address",
          "name": "_account",
          "type": "address"
        }
      ],
      "name": "BurnError",
      "type": "error"
    },
    {
      "inputs": [
        {
          "internalType": "address",
          "name": "_account",
          "type": "address"
        }
      ],
      "name": "MintError",
      "type": "error"
    },
    {
      "inputs": [
        {
          "internalType": "address",
          "name": "_from",
          "type": "address"
        },
        {
          "internalType": "uint256",
          "name": "_value",
          "type": "uint256"
        }
      ],
      "name": "burn",
      "outputs": [],
      "stateMutability": "nonpayable",
      "type": "function"
    },
    {
      "inputs": [
        {
          "internalType": "address",
          "name": "_to",
          "type": "address"
        },
        {
          "internalType": "uint256",
          "name": "_value",
          "type": "uint256"
        }
      ],
      "name": "mint",
      "outputs": [],
      "stateMutability": "nonpayable",
      "type": "function"
    }
  ],
  "bytecode": {
    "object": "0x60a060405234801561001057600080fd5b506040516102be3803806102be83398101604081905261002f91610040565b6001600160a01b0316608052610070565b60006020828403121561005257600080fd5b81516001600160a01b038116811461006957600080fd5b9392505050565b60805161022d610091600039600081816067015261011c015261022d6000f3fe608060405234801561001057600080fd5b50600436106100365760003560e01c806340c10f191461003b5780639dc29fac14610050575b600080fd5b61004e6100493660046101bf565b610063565b005b61004e61005e3660046101bf565b610118565b60007f000000000000000000000000000000000000000000000000000000000000000090506040516340c10f1960e01b60005283600452826024526000806044600080865af18061010a573d156100f55760203d046020830481600302818311156100dc57818303600302610200838002858002030401015b5a6020820110156100f1573d6000803e3d6000fd5b5050505b634bb85a4560e11b6000528460045260246000fd5b506040525050600060605250565b60007f00000000000000000000000000000000000000000000000000000000000000009050604051632770a7eb60e21b60005283600452826024526000806044600080865af18061010a573d156101aa5760203d0460208304816003028183111561019157818303600302610200838002858002030401015b5a6020820110156101a6573d6000803e3d6000fd5b5050505b63b715ffa760e01b6000528460045260246000fd5b600080604083850312156101d257600080fd5b82356001600160a01b03811681146101e957600080fd5b94602093909301359350505056fea26469706673582212205b0079521bd622cb3115508a0c6f6fb16590f7b2a80d8d2c272f1f2722be84d664736f6c634300080d0033",
    "linkReferences": {}
  },
  "methodIdentifiers": {
    "burn(address,uint256)": "9dc29fac",
    "mint(address,uint256)": "40c10f19"
  },
  "id": 51
}