{
  "_format": "hh-sol-artifact-1",
  "contractName": "Vault",
  "sourceName": "src/Vault.sol",
  "abi": [
    {
      "inputs": [],
      "name": "ExecutionReverted",
      "type": "error"
    },
    {
      "inputs": [
        {
          "internalType": "address",
          "name": "_owner",
          "type": "address"
        },
        {
          "internalType": "address",
          "name": "_newOwner",
          "type": "address"
        },
        {
          "internalType": "uint256",
          "name": "_nonce",
          "type": "uint256"
        }
      ],
      "name": "Initialized",
      "type": "error"
    },
    {
      "inputs": [],
      "name": "MethodNotFound",
      "type": "error"
    },
    {
      "inputs": [
        {
          "internalType": "address",
          "name": "_caller",
          "type": "address"
        },
        {
          "internalType": "address",
          "name": "_target",
          "type": "address"
        },
        {
          "internalType": "bytes4",
          "name": "_selector",
          "type": "bytes4"
        }
      ],
      "name": "NotAuthorized",
      "type": "error"
    },
    {
      "inputs": [
        {
          "internalType": "address",
          "name": "_owner",
          "type": "address"
        },
        {
          "internalType": "address",
          "name": "_caller",
          "type": "address"
        }
      ],
      "name": "NotOwner",
      "type": "error"
    },
    {
      "inputs": [
        {
          "internalType": "address",
          "name": "_originalOwner",
          "type": "address"
        },
        {
          "internalType": "address",
          "name": "_newOwner",
          "type": "address"
        }
      ],
      "name": "OwnerChanged",
      "type": "error"
    },
    {
      "inputs": [
        {
          "internalType": "address",
          "name": "_target",
          "type": "address"
        }
      ],
      "name": "TargetInvalid",
      "type": "error"
    },
    {
      "anonymous": false,
      "inputs": [
        {
          "indexed": true,
          "internalType": "address",
          "name": "_target",
          "type": "address"
        },
        {
          "indexed": false,
          "internalType": "bytes",
          "name": "_data",
          "type": "bytes"
        },
        {
          "indexed": false,
          "internalType": "bytes",
          "name": "_response",
          "type": "bytes"
        }
      ],
      "name": "Execute",
      "type": "event"
    },
    {
      "anonymous": false,
      "inputs": [
        {
          "indexed": false,
          "internalType": "bytes4[]",
          "name": "_selectors",
          "type": "bytes4[]"
        },
        {
          "indexed": false,
          "internalType": "address[]",
          "name": "_plugins",
          "type": "address[]"
        }
      ],
      "name": "InstallPlugin",
      "type": "event"
    },
    {
      "anonymous": false,
      "inputs": [
        {
          "indexed": true,
          "internalType": "address",
          "name": "_oldOwner",
          "type": "address"
        },
        {
          "indexed": true,
          "internalType": "address",
          "name": "_newOwner",
          "type": "address"
        }
      ],
      "name": "TransferOwnership",
      "type": "event"
    },
    {
      "anonymous": false,
      "inputs": [
        {
          "indexed": false,
          "internalType": "bytes4[]",
          "name": "_selectors",
          "type": "bytes4[]"
        }
      ],
      "name": "UninstallPlugin",
      "type": "event"
    },
    {
      "stateMutability": "payable",
      "type": "fallback"
    },
    {
      "inputs": [
        {
          "internalType": "address",
          "name": "_target",
          "type": "address"
        },
        {
          "internalType": "bytes",
          "name": "_data",
          "type": "bytes"
        },
        {
          "internalType": "bytes32[]",
          "name": "_proof",
          "type": "bytes32[]"
        }
      ],
      "name": "execute",
      "outputs": [
        {
          "internalType": "bool",
          "name": "success",
          "type": "bool"
        },
        {
          "internalType": "bytes",
          "name": "response",
          "type": "bytes"
        }
      ],
      "stateMutability": "payable",
      "type": "function"
    },
    {
      "inputs": [],
      "name": "init",
      "outputs": [],
      "stateMutability": "nonpayable",
      "type": "function"
    },
    {
      "inputs": [
        {
          "internalType": "bytes4[]",
          "name": "_selectors",
          "type": "bytes4[]"
        },
        {
          "internalType": "address[]",
          "name": "_plugins",
          "type": "address[]"
        }
      ],
      "name": "install",
      "outputs": [],
      "stateMutability": "nonpayable",
      "type": "function"
    },
    {
      "inputs": [],
      "name": "merkleRoot",
      "outputs": [
        {
          "internalType": "bytes32",
          "name": "",
          "type": "bytes32"
        }
      ],
      "stateMutability": "view",
      "type": "function"
    },
    {
      "inputs": [
        {
          "internalType": "bytes4",
          "name": "",
          "type": "bytes4"
        }
      ],
      "name": "methods",
      "outputs": [
        {
          "internalType": "address",
          "name": "",
          "type": "address"
        }
      ],
      "stateMutability": "view",
      "type": "function"
    },
    {
      "inputs": [],
      "name": "nonce",
      "outputs": [
        {
          "internalType": "uint256",
          "name": "",
          "type": "uint256"
        }
      ],
      "stateMutability": "view",
      "type": "function"
    },
    {
      "inputs": [
        {
          "internalType": "address",
          "name": "",
          "type": "address"
        },
        {
          "internalType": "address",
          "name": "",
          "type": "address"
        },
        {
          "internalType": "uint256[]",
          "name": "",
          "type": "uint256[]"
        },
        {
          "internalType": "uint256[]",
          "name": "",
          "type": "uint256[]"
        },
        {
          "internalType": "bytes",
          "name": "",
          "type": "bytes"
        }
      ],
      "name": "onERC1155BatchReceived",
      "outputs": [
        {
          "internalType": "bytes4",
          "name": "",
          "type": "bytes4"
        }
      ],
      "stateMutability": "nonpayable",
      "type": "function"
    },
    {
      "inputs": [
        {
          "internalType": "address",
          "name": "",
          "type": "address"
        },
        {
          "internalType": "address",
          "name": "",
          "type": "address"
        },
        {
          "internalType": "uint256",
          "name": "",
          "type": "uint256"
        },
        {
          "internalType": "uint256",
          "name": "",
          "type": "uint256"
        },
        {
          "internalType": "bytes",
          "name": "",
          "type": "bytes"
        }
      ],
      "name": "onERC1155Received",
      "outputs": [
        {
          "internalType": "bytes4",
          "name": "",
          "type": "bytes4"
        }
      ],
      "stateMutability": "nonpayable",
      "type": "function"
    },
    {
      "inputs": [
        {
          "internalType": "address",
          "name": "",
          "type": "address"
        },
        {
          "internalType": "address",
          "name": "",
          "type": "address"
        },
        {
          "internalType": "uint256",
          "name": "",
          "type": "uint256"
        },
        {
          "internalType": "bytes",
          "name": "",
          "type": "bytes"
        }
      ],
      "name": "onERC721Received",
      "outputs": [
        {
          "internalType": "bytes4",
          "name": "",
          "type": "bytes4"
        }
      ],
      "stateMutability": "nonpayable",
      "type": "function"
    },
    {
      "inputs": [],
      "name": "owner",
      "outputs": [
        {
          "internalType": "address",
          "name": "",
          "type": "address"
        }
      ],
      "stateMutability": "view",
      "type": "function"
    },
    {
      "inputs": [
        {
          "internalType": "bytes32",
          "name": "_rootHash",
          "type": "bytes32"
        }
      ],
      "name": "setMerkleRoot",
      "outputs": [],
      "stateMutability": "nonpayable",
      "type": "function"
    },
    {
      "inputs": [
        {
          "internalType": "address",
          "name": "_newOwner",
          "type": "address"
        }
      ],
      "name": "transferOwnership",
      "outputs": [],
      "stateMutability": "nonpayable",
      "type": "function"
    },
    {
      "inputs": [
        {
          "internalType": "bytes4[]",
          "name": "_selectors",
          "type": "bytes4[]"
        }
      ],
      "name": "uninstall",
      "outputs": [],
      "stateMutability": "nonpayable",
      "type": "function"
    },
    {
      "stateMutability": "payable",
      "type": "receive"
    }
  ],
  "bytecode": "0x608060405234801561001057600080fd5b50611449806100206000396000f3fe6080604052600436106100d65760003560e01c80637cb647591161007f578063bc197c8111610059578063bc197c8114610310578063e1c7392a14610358578063f23a6e611461036d578063f2fde38b146103b3576100dd565b80637cb64759146102ad5780638da5cb5b146102cd578063affed0e0146102fa576100dd565b80633ca0a617116100b05780633ca0a61714610204578063601b8af3146102245780636b03945114610245576100dd565b8063150b7a02146101435780632e09ea9b146101be5780632eb4a7ab146101e0576100dd565b366100dd57005b600080357fffffffff0000000000000000000000000000000000000000000000000000000016815260036020526040812054369060609073ffffffffffffffffffffffffffffffffffffffff166101358185856103d3565b805195506020019350505050f35b34801561014f57600080fd5b5061018861015e366004610d0c565b7f150b7a020000000000000000000000000000000000000000000000000000000095945050505050565b6040517fffffffff0000000000000000000000000000000000000000000000000000000090911681526020015b60405180910390f35b3480156101ca57600080fd5b506101de6101d9366004610ebf565b610595565b005b3480156101ec57600080fd5b506101f660015481565b6040519081526020016101b5565b34801561021057600080fd5b506101de61021f366004610efc565b6106fa565b610237610232366004611003565b61087a565b6040516101b5929190611073565b34801561025157600080fd5b506102886102603660046110f0565b60036020526000908152604090205473ffffffffffffffffffffffffffffffffffffffff1681565b60405173ffffffffffffffffffffffffffffffffffffffff90911681526020016101b5565b3480156102b957600080fd5b506101de6102c8366004611112565b6109ea565b3480156102d957600080fd5b506000546102889073ffffffffffffffffffffffffffffffffffffffff1681565b34801561030657600080fd5b506101f660025481565b34801561031c57600080fd5b5061018861032b36600461112b565b7fbc197c810000000000000000000000000000000000000000000000000000000098975050505050505050565b34801561036457600080fd5b506101de610a62565b34801561037957600080fd5b506101886103883660046111e6565b7ff23a6e61000000000000000000000000000000000000000000000000000000009695505050505050565b3480156103bf57600080fd5b506101de6103ce36600461125e565b610b24565b60006060843b80830361042f576040517f05fc177f00000000000000000000000000000000000000000000000000000000815273ffffffffffffffffffffffffffffffffffffffff871660048201526024015b60405180910390fd5b6000805473ffffffffffffffffffffffffffffffffffffffff16906113885a61045891906112a8565b90508773ffffffffffffffffffffffffffffffffffffffff168188886040516104829291906112bf565b6000604051808303818686f4925050503d80600081146104be576040519150601f19603f3d011682016040523d82523d6000602084013e6104c3565b606091505b50600054919650945073ffffffffffffffffffffffffffffffffffffffff838116911614610541576000546040517fb532073b00000000000000000000000000000000000000000000000000000000815273ffffffffffffffffffffffffffffffffffffffff80851660048301529091166024820152604401610426565b8461058a578351600003610581576040517ff21e646b00000000000000000000000000000000000000000000000000000000815260040160405180910390fd5b61058a84610c07565b505050935093915050565b60005473ffffffffffffffffffffffffffffffffffffffff163314610608576000546040517f23295f0e00000000000000000000000000000000000000000000000000000000815273ffffffffffffffffffffffffffffffffffffffff9091166004820152336024820152604401610426565b805160005b818110156106be5760006003600085848151811061062d5761062d6112cf565b6020908102919091018101517fffffffff0000000000000000000000000000000000000000000000000000000016825281019190915260400160002080547fffffffffffffffffffffffff00000000000000000000000000000000000000001673ffffffffffffffffffffffffffffffffffffffff92909216919091179055806106b6816112fe565b91505061060d565b507fb3a11edff134a07565e9e73e89fe2198279d8bf3f8218a543981f219b3991c29826040516106ee9190611393565b60405180910390a15050565b60005473ffffffffffffffffffffffffffffffffffffffff16331461076d576000546040517f23295f0e00000000000000000000000000000000000000000000000000000000815273ffffffffffffffffffffffffffffffffffffffff9091166004820152336024820152604401610426565b815160005b8181101561083b5782818151811061078c5761078c6112cf565b6020026020010151600360008684815181106107aa576107aa6112cf565b6020908102919091018101517fffffffff0000000000000000000000000000000000000000000000000000000016825281019190915260400160002080547fffffffffffffffffffffffff00000000000000000000000000000000000000001673ffffffffffffffffffffffffffffffffffffffff9290921691909117905580610833816112fe565b915050610772565b507ff7d11fffde62bb148b72087d285cbd907ca404701a120597f0896a240881220f838360405161086d9291906113a6565b60405180910390a1505050565b6040805133602082015273ffffffffffffffffffffffffffffffffffffffff87169181019190915284357fffffffff0000000000000000000000000000000000000000000000000000000081166060808401919091526000929091908390608001604051602081830303815290604052805190602001209050610934868680806020026020016040519081016040528093929190818152602001838360200280828437600092019190915250506001549150849050610c10565b6109cf5760005473ffffffffffffffffffffffffffffffffffffffff1633146109cf576040517f8153802c00000000000000000000000000000000000000000000000000000000815233600482015273ffffffffffffffffffffffffffffffffffffffff8a1660248201527fffffffff0000000000000000000000000000000000000000000000000000000083166044820152606401610426565b6109da8989896103d3565b909a909950975050505050505050565b60005473ffffffffffffffffffffffffffffffffffffffff163314610a5d576000546040517f23295f0e00000000000000000000000000000000000000000000000000000000815273ffffffffffffffffffffffffffffffffffffffff9091166004820152336024820152604401610426565b600155565b60025415610ac6576000546002546040517f10f2765200000000000000000000000000000000000000000000000000000000815273ffffffffffffffffffffffffffffffffffffffff90921660048301523360248301526044820152606401610426565b6001600255600080547fffffffffffffffffffffffff0000000000000000000000000000000000000000163390811782556040519091907f5c486528ec3e3f0ea91181cff8116f02bfa350e03b8b6f12e00765adbb5af85c908290a3565b60005473ffffffffffffffffffffffffffffffffffffffff163314610b97576000546040517f23295f0e00000000000000000000000000000000000000000000000000000000815273ffffffffffffffffffffffffffffffffffffffff9091166004820152336024820152604401610426565b600080547fffffffffffffffffffffffff00000000000000000000000000000000000000001673ffffffffffffffffffffffffffffffffffffffff83169081178255604051909133917f5c486528ec3e3f0ea91181cff8116f02bfa350e03b8b6f12e00765adbb5af85c9190a350565b80518082602001fd5b600082610c1d8584610c26565b14949350505050565b600081815b8451811015610c92576000858281518110610c4857610c486112cf565b60200260200101519050808311610c6e5760008381526020829052604090209250610c7f565b600081815260208490526040902092505b5080610c8a816112fe565b915050610c2b565b509392505050565b803573ffffffffffffffffffffffffffffffffffffffff81168114610cbe57600080fd5b919050565b60008083601f840112610cd557600080fd5b50813567ffffffffffffffff811115610ced57600080fd5b602083019150836020828501011115610d0557600080fd5b9250929050565b600080600080600060808688031215610d2457600080fd5b610d2d86610c9a565b9450610d3b60208701610c9a565b935060408601359250606086013567ffffffffffffffff811115610d5e57600080fd5b610d6a88828901610cc3565b969995985093965092949392505050565b7f4e487b7100000000000000000000000000000000000000000000000000000000600052604160045260246000fd5b604051601f82017fffffffffffffffffffffffffffffffffffffffffffffffffffffffffffffffe016810167ffffffffffffffff81118282101715610df157610df1610d7b565b604052919050565b600067ffffffffffffffff821115610e1357610e13610d7b565b5060051b60200190565b80357fffffffff0000000000000000000000000000000000000000000000000000000081168114610cbe57600080fd5b600082601f830112610e5e57600080fd5b81356020610e73610e6e83610df9565b610daa565b82815260059290921b84018101918181019086841115610e9257600080fd5b8286015b84811015610eb457610ea781610e1d565b8352918301918301610e96565b509695505050505050565b600060208284031215610ed157600080fd5b813567ffffffffffffffff811115610ee857600080fd5b610ef484828501610e4d565b949350505050565b60008060408385031215610f0f57600080fd5b823567ffffffffffffffff80821115610f2757600080fd5b610f3386838701610e4d565b9350602091508185013581811115610f4a57600080fd5b85019050601f81018613610f5d57600080fd5b8035610f6b610e6e82610df9565b81815260059190911b82018301908381019088831115610f8a57600080fd5b928401925b82841015610faf57610fa084610c9a565b82529284019290840190610f8f565b80955050505050509250929050565b60008083601f840112610fd057600080fd5b50813567ffffffffffffffff811115610fe857600080fd5b6020830191508360208260051b8501011115610d0557600080fd5b60008060008060006060868803121561101b57600080fd5b61102486610c9a565b9450602086013567ffffffffffffffff8082111561104157600080fd5b61104d89838a01610cc3565b9096509450604088013591508082111561106657600080fd5b50610d6a88828901610fbe565b821515815260006020604081840152835180604085015260005b818110156110a95785810183015185820160600152820161108d565b818111156110bb576000606083870101525b50601f017fffffffffffffffffffffffffffffffffffffffffffffffffffffffffffffffe01692909201606001949350505050565b60006020828403121561110257600080fd5b61110b82610e1d565b9392505050565b60006020828403121561112457600080fd5b5035919050565b60008060008060008060008060a0898b03121561114757600080fd5b61115089610c9a565b975061115e60208a01610c9a565b9650604089013567ffffffffffffffff8082111561117b57600080fd5b6111878c838d01610fbe565b909850965060608b01359150808211156111a057600080fd5b6111ac8c838d01610fbe565b909650945060808b01359150808211156111c557600080fd5b506111d28b828c01610cc3565b999c989b5096995094979396929594505050565b60008060008060008060a087890312156111ff57600080fd5b61120887610c9a565b955061121660208801610c9a565b94506040870135935060608701359250608087013567ffffffffffffffff81111561124057600080fd5b61124c89828a01610cc3565b979a9699509497509295939492505050565b60006020828403121561127057600080fd5b61110b82610c9a565b7f4e487b7100000000000000000000000000000000000000000000000000000000600052601160045260246000fd5b6000828210156112ba576112ba611279565b500390565b8183823760009101908152919050565b7f4e487b7100000000000000000000000000000000000000000000000000000000600052603260045260246000fd5b60007fffffffffffffffffffffffffffffffffffffffffffffffffffffffffffffffff820361132f5761132f611279565b5060010190565b600081518084526020808501945080840160005b838110156113885781517fffffffff00000000000000000000000000000000000000000000000000000000168752958201959082019060010161134a565b509495945050505050565b60208152600061110b6020830184611336565b6040815260006113b96040830185611336565b82810360208481019190915284518083528582019282019060005b8181101561140657845173ffffffffffffffffffffffffffffffffffffffff16835293830193918301916001016113d4565b509097965050505050505056fea2646970667358221220780ff838e87c57ab0a3754eeb8c240930291901a283508825c6c8cbf598f315e64736f6c634300080d0033",
  "linkReferences": {},
  "deployedLinkReferences": {}
}