{
  "abi": [
    {
      "inputs": [
        {
          "internalType": "address",
          "name": "_addr",
          "type": "address"
        },
        {
          "internalType": "uint256",
          "name": "_privateKey",
          "type": "uint256"
        },
        {
          "internalType": "address",
          "name": "_target",
          "type": "address"
        }
      ],
      "stateMutability": "nonpayable",
      "type": "constructor"
    },
    {
      "inputs": [
        {
          "internalType": "address",
          "name": "_target",
          "type": "address"
        },
        {
          "internalType": "bytes",
          "name": "_data",
          "type": "bytes"
        },
        {
          "internalType": "bytes32[]",
          "name": "_proof",
          "type": "bytes32[]"
        }
      ],
      "name": "execute",
      "outputs": [
        {
          "internalType": "bool",
          "name": "",
          "type": "bool"
        },
        {
          "internalType": "bytes",
          "name": "",
          "type": "bytes"
        }
      ],
      "stateMutability": "payable",
      "type": "function"
    },
    {
      "inputs": [],
      "name": "init",
      "outputs": [],
      "stateMutability": "nonpayable",
      "type": "function"
    },
    {
      "inputs": [
        {
          "internalType": "bytes4[]",
          "name": "_selectors",
          "type": "bytes4[]"
        },
        {
          "internalType": "address[]",
          "name": "_plugins",
          "type": "address[]"
        }
      ],
      "name": "install",
      "outputs": [],
      "stateMutability": "nonpayable",
      "type": "function"
    },
    {
      "inputs": [],
      "name": "merkleRoot",
      "outputs": [
        {
          "internalType": "bytes32",
          "name": "",
          "type": "bytes32"
        }
      ],
      "stateMutability": "nonpayable",
      "type": "function"
    },
    {
      "inputs": [
        {
          "internalType": "bytes4",
          "name": "arg0",
          "type": "bytes4"
        }
      ],
      "name": "methods",
      "outputs": [
        {
          "internalType": "address",
          "name": "",
          "type": "address"
        }
      ],
      "stateMutability": "nonpayable",
      "type": "function"
    },
    {
      "inputs": [],
      "name": "nonce",
      "outputs": [
        {
          "internalType": "uint256",
          "name": "",
          "type": "uint256"
        }
      ],
      "stateMutability": "nonpayable",
      "type": "function"
    },
    {
      "inputs": [],
      "name": "owner",
      "outputs": [
        {
          "internalType": "address",
          "name": "",
          "type": "address"
        }
      ],
      "stateMutability": "nonpayable",
      "type": "function"
    },
    {
      "inputs": [],
      "name": "proxyContract",
      "outputs": [
        {
          "internalType": "address",
          "name": "",
          "type": "address"
        }
      ],
      "stateMutability": "view",
      "type": "function"
    },
    {
      "inputs": [
        {
          "internalType": "bytes32",
          "name": "_rootHash",
          "type": "bytes32"
        }
      ],
      "name": "setMerkleRoot",
      "outputs": [],
      "stateMutability": "nonpayable",
      "type": "function"
    },
    {
      "inputs": [
        {
          "internalType": "address",
          "name": "_newOwner",
          "type": "address"
        }
      ],
      "name": "transferOwnership",
      "outputs": [],
      "stateMutability": "nonpayable",
      "type": "function"
    },
    {
      "inputs": [
        {
          "internalType": "bytes4[]",
          "name": "_selectors",
          "type": "bytes4[]"
        }
      ],
      "name": "uninstall",
      "outputs": [],
      "stateMutability": "nonpayable",
      "type": "function"
    }
  ],
  "bytecode": {
    "object": "0x60806040523480156200001157600080fd5b506040516200148f3803806200148f833981016040819052620000349162000114565b8115620000bd576040516001625e79b760e01b0319815260048101839052737109709ecfa91a80626ff3989d68f67f5b1dd12d9063ffa18649906024016020604051808303816000875af115801562000091573d6000803e3d6000fd5b505050506040513d601f19601f82011682018060405250810190620000b7919062000155565b620000bf565b825b600080546001600160a01b03199081166001600160a01b0393841617909155600193909355600280549093169116179055506200017a565b80516001600160a01b03811681146200010f57600080fd5b919050565b6000806000606084860312156200012a57600080fd5b6200013584620000f7565b9250602084015191506200014c60408501620000f7565b90509250925092565b6000602082840312156200016857600080fd5b6200017382620000f7565b9392505050565b611305806200018a6000396000f3fe60806040526004361061009c5760003560e01c80637cb64759116100645780637cb64759146101645780638da5cb5b14610184578063affed0e014610199578063e1c7392a146101ae578063ed550443146101c3578063f2fde38b146101e157600080fd5b80632e09ea9b146100a15780632eb4a7ab146100c35780633ca0a617146100eb578063601b8af31461010b5780636b0394511461012c575b600080fd5b3480156100ad57600080fd5b506100c16100bc366004610d91565b610201565b005b3480156100cf57600080fd5b506100d8610337565b6040519081526020015b60405180910390f35b3480156100f757600080fd5b506100c1610106366004610de6565b610485565b61011e610119366004610f2d565b6105be565b6040516100e292919061103c565b34801561013857600080fd5b5061014c610147366004611057565b61071e565b6040516001600160a01b0390911681526020016100e2565b34801561017057600080fd5b506100c161017f366004611079565b61086d565b34801561019057600080fd5b5061014c61090e565b3480156101a557600080fd5b506100d86109f6565b3480156101ba57600080fd5b506100c1610aba565b3480156101cf57600080fd5b506002546001600160a01b031661014c565b3480156101ed57600080fd5b506100c16101fc366004611092565b610bf5565b6000546040516308b6ac0f60e31b81526000805160206112b0833981519152916345b560789161023f916001600160a01b03169081906004016110af565b600060405180830381600087803b15801561025957600080fd5b505af115801561026d573d6000803e3d6000fd5b5050600254604051632e09ea9b60e01b81526001600160a01b039091169250632e09ea9b91506102a190849060040161110e565b600060405180830381600087803b1580156102bb57600080fd5b505af11580156102cf573d6000803e3d6000fd5b505050506000805160206112b08339815191526001600160a01b03166390c5013b6040518163ffffffff1660e01b8152600401600060405180830381600087803b15801561031c57600080fd5b505af1158015610330573d6000803e3d6000fd5b5050505050565b600080546040516308b6ac0f60e31b81526000805160206112b0833981519152916345b5607891610376916001600160a01b03169081906004016110af565b600060405180830381600087803b15801561039057600080fd5b505af11580156103a4573d6000803e3d6000fd5b50505050600260009054906101000a90046001600160a01b03166001600160a01b0316632eb4a7ab6040518163ffffffff1660e01b8152600401602060405180830381865afa1580156103fb573d6000803e3d6000fd5b505050506040513d601f19601f8201168201806040525081019061041f9190611121565b90506000805160206112b08339815191526001600160a01b03166390c5013b6040518163ffffffff1660e01b8152600401600060405180830381600087803b15801561046a57600080fd5b505af115801561047e573d6000803e3d6000fd5b5050505090565b6000546040516308b6ac0f60e31b81526000805160206112b0833981519152916345b56078916104c3916001600160a01b03169081906004016110af565b600060405180830381600087803b1580156104dd57600080fd5b505af11580156104f1573d6000803e3d6000fd5b5050600254604051633ca0a61760e01b81526001600160a01b039091169250633ca0a6179150610527908590859060040161113a565b600060405180830381600087803b15801561054157600080fd5b505af1158015610555573d6000803e3d6000fd5b505050506000805160206112b08339815191526001600160a01b03166390c5013b6040518163ffffffff1660e01b8152600401600060405180830381600087803b1580156105a257600080fd5b505af11580156105b6573d6000803e3d6000fd5b505050505050565b600080546040516308b6ac0f60e31b81526060916000805160206112b0833981519152916345b5607891610602916001600160a01b039091169081906004016110af565b600060405180830381600087803b15801561061c57600080fd5b505af1158015610630573d6000803e3d6000fd5b505060025460405163601b8af360e01b81526001600160a01b03909116925063601b8af39150349061066a9089908990899060040161119a565b60006040518083038185885af1158015610688573d6000803e3d6000fd5b50505050506040513d6000823e601f3d908101601f191682016040526106b19190810190611200565b915091506000805160206112b08339815191526001600160a01b03166390c5013b6040518163ffffffff1660e01b8152600401600060405180830381600087803b1580156106fe57600080fd5b505af1158015610712573d6000803e3d6000fd5b50505050935093915050565b600080546040516308b6ac0f60e31b81526000805160206112b0833981519152916345b560789161075d916001600160a01b03169081906004016110af565b600060405180830381600087803b15801561077757600080fd5b505af115801561078b573d6000803e3d6000fd5b5050600254604051636b03945160e01b81526001600160e01b0319861660048201526001600160a01b039091169250636b0394519150602401602060405180830381865afa1580156107e1573d6000803e3d6000fd5b505050506040513d601f19601f820116820180604052508101906108059190611292565b90506000805160206112b08339815191526001600160a01b03166390c5013b6040518163ffffffff1660e01b8152600401600060405180830381600087803b15801561085057600080fd5b505af1158015610864573d6000803e3d6000fd5b50505050919050565b6000546040516308b6ac0f60e31b81526000805160206112b0833981519152916345b56078916108ab916001600160a01b03169081906004016110af565b600060405180830381600087803b1580156108c557600080fd5b505af11580156108d9573d6000803e3d6000fd5b5050600254604051637cb6475960e01b8152600481018590526001600160a01b039091169250637cb6475991506024016102a1565b600080546040516308b6ac0f60e31b81526000805160206112b0833981519152916345b560789161094d916001600160a01b03169081906004016110af565b600060405180830381600087803b15801561096757600080fd5b505af115801561097b573d6000803e3d6000fd5b50505050600260009054906101000a90046001600160a01b03166001600160a01b0316638da5cb5b6040518163ffffffff1660e01b8152600401602060405180830381865afa1580156109d2573d6000803e3d6000fd5b505050506040513d601f19601f8201168201806040525081019061041f9190611292565b600080546040516308b6ac0f60e31b81526000805160206112b0833981519152916345b5607891610a35916001600160a01b03169081906004016110af565b600060405180830381600087803b158015610a4f57600080fd5b505af1158015610a63573d6000803e3d6000fd5b50505050600260009054906101000a90046001600160a01b03166001600160a01b031663affed0e06040518163ffffffff1660e01b8152600401602060405180830381865afa1580156103fb573d6000803e3d6000fd5b6000546040516308b6ac0f60e31b81526000805160206112b0833981519152916345b5607891610af8916001600160a01b03169081906004016110af565b600060405180830381600087803b158015610b1257600080fd5b505af1158015610b26573d6000803e3d6000fd5b50505050600260009054906101000a90046001600160a01b03166001600160a01b031663e1c7392a6040518163ffffffff1660e01b8152600401600060405180830381600087803b158015610b7a57600080fd5b505af1158015610b8e573d6000803e3d6000fd5b505050506000805160206112b08339815191526001600160a01b03166390c5013b6040518163ffffffff1660e01b8152600401600060405180830381600087803b158015610bdb57600080fd5b505af1158015610bef573d6000803e3d6000fd5b50505050565b6000546040516308b6ac0f60e31b81526000805160206112b0833981519152916345b5607891610c33916001600160a01b03169081906004016110af565b600060405180830381600087803b158015610c4d57600080fd5b505af1158015610c61573d6000803e3d6000fd5b505060025460405163f2fde38b60e01b81526001600160a01b038581166004830152909116925063f2fde38b91506024016102a1565b634e487b7160e01b600052604160045260246000fd5b604051601f8201601f1916810167ffffffffffffffff81118282101715610cd657610cd6610c97565b604052919050565b600067ffffffffffffffff821115610cf857610cf8610c97565b5060051b60200190565b80356001600160e01b031981168114610d1a57600080fd5b919050565b600082601f830112610d3057600080fd5b81356020610d45610d4083610cde565b610cad565b82815260059290921b84018101918181019086841115610d6457600080fd5b8286015b84811015610d8657610d7981610d02565b8352918301918301610d68565b509695505050505050565b600060208284031215610da357600080fd5b813567ffffffffffffffff811115610dba57600080fd5b610dc684828501610d1f565b949350505050565b6001600160a01b0381168114610de357600080fd5b50565b60008060408385031215610df957600080fd5b823567ffffffffffffffff80821115610e1157600080fd5b610e1d86838701610d1f565b9350602091508185013581811115610e3457600080fd5b85019050601f81018613610e4757600080fd5b8035610e55610d4082610cde565b81815260059190911b82018301908381019088831115610e7457600080fd5b928401925b82841015610e9b578335610e8c81610dce565b82529284019290840190610e79565b80955050505050509250929050565b600067ffffffffffffffff821115610ec457610ec4610c97565b50601f01601f191660200190565b600082601f830112610ee357600080fd5b81356020610ef3610d4083610cde565b82815260059290921b84018101918181019086841115610f1257600080fd5b8286015b84811015610d865780358352918301918301610f16565b600080600060608486031215610f4257600080fd5b8335610f4d81610dce565b9250602084013567ffffffffffffffff80821115610f6a57600080fd5b818601915086601f830112610f7e57600080fd5b8135610f8c610d4082610eaa565b818152886020838601011115610fa157600080fd5b8160208501602083013760006020838301015280955050506040860135915080821115610fcd57600080fd5b50610fda86828701610ed2565b9150509250925092565b60005b83811015610fff578181015183820152602001610fe7565b83811115610bef5750506000910152565b60008151808452611028816020860160208601610fe4565b601f01601f19169290920160200192915050565b8215158152604060208201526000610dc66040830184611010565b60006020828403121561106957600080fd5b61107282610d02565b9392505050565b60006020828403121561108b57600080fd5b5035919050565b6000602082840312156110a457600080fd5b813561107281610dce565b6001600160a01b0392831681529116602082015260400190565b600081518084526020808501945080840160005b838110156111035781516001600160e01b031916875295820195908201906001016110dd565b509495945050505050565b60208152600061107260208301846110c9565b60006020828403121561113357600080fd5b5051919050565b60408152600061114d60408301856110c9565b82810360208481019190915284518083528582019282019060005b8181101561118d5784516001600160a01b031683529383019391830191600101611168565b5090979650505050505050565b6001600160a01b0384168152606060208083018290526000916111bf90840186611010565b838103604085015284518082528286019183019060005b818110156111f2578351835292840192918401916001016111d6565b509098975050505050505050565b6000806040838503121561121357600080fd5b8251801515811461122357600080fd5b602084015190925067ffffffffffffffff81111561124057600080fd5b8301601f8101851361125157600080fd5b805161125f610d4082610eaa565b81815286602083850101111561127457600080fd5b611285826020830160208601610fe4565b8093505050509250929050565b6000602082840312156112a457600080fd5b815161107281610dce56fe0000000000000000000000007109709ecfa91a80626ff3989d68f67f5b1dd12da26469706673582212207bd84125cf6237f371c3a0ce67c44bc0f7fb09b9cffdc0ca12d816a93fbf013c64736f6c634300080d0033",
    "linkReferences": {}
  },
  "methodIdentifiers": {
    "execute(address,bytes,bytes32[])": "601b8af3",
    "init()": "e1c7392a",
    "install(bytes4[],address[])": "3ca0a617",
    "merkleRoot()": "2eb4a7ab",
    "methods(bytes4)": "6b039451",
    "nonce()": "affed0e0",
    "owner()": "8da5cb5b",
    "proxyContract()": "ed550443",
    "setMerkleRoot(bytes32)": "7cb64759",
    "transferOwnership(address)": "f2fde38b",
    "uninstall(bytes4[])": "2e09ea9b"
  },
  "id": 87
}