{
  "_format": "hh-sol-artifact-1",
  "contractName": "FERC1155",
  "sourceName": "src/FERC1155.sol",
  "abi": [
    {
      "inputs": [
        {
          "internalType": "address",
          "name": "_required",
          "type": "address"
        },
        {
          "internalType": "address",
          "name": "_provided",
          "type": "address"
        }
      ],
      "name": "InvalidSender",
      "type": "error"
    },
    {
      "inputs": [
        {
          "internalType": "address",
          "name": "_signer",
          "type": "address"
        },
        {
          "internalType": "address",
          "name": "_owner",
          "type": "address"
        }
      ],
      "name": "InvalidSignature",
      "type": "error"
    },
    {
      "inputs": [
        {
          "internalType": "uint256",
          "name": "_timestamp",
          "type": "uint256"
        },
        {
          "internalType": "uint256",
          "name": "_deadline",
          "type": "uint256"
        }
      ],
      "name": "SignatureExpired",
      "type": "error"
    },
    {
      "inputs": [],
      "name": "ZeroAddress",
      "type": "error"
    },
    {
      "anonymous": false,
      "inputs": [
        {
          "indexed": true,
          "internalType": "address",
          "name": "owner",
          "type": "address"
        },
        {
          "indexed": true,
          "internalType": "address",
          "name": "operator",
          "type": "address"
        },
        {
          "indexed": false,
          "internalType": "bool",
          "name": "approved",
          "type": "bool"
        }
      ],
      "name": "ApprovalForAll",
      "type": "event"
    },
    {
      "anonymous": false,
      "inputs": [
        {
          "indexed": true,
          "internalType": "address",
          "name": "_newController",
          "type": "address"
        }
      ],
      "name": "ControllerTransferred",
      "type": "event"
    },
    {
      "anonymous": false,
      "inputs": [
        {
          "indexed": true,
          "internalType": "address",
          "name": "_metadata",
          "type": "address"
        },
        {
          "indexed": false,
          "internalType": "uint256",
          "name": "_id",
          "type": "uint256"
        }
      ],
      "name": "SetMetadata",
      "type": "event"
    },
    {
      "anonymous": false,
      "inputs": [
        {
          "indexed": true,
          "internalType": "address",
          "name": "_receiver",
          "type": "address"
        },
        {
          "indexed": false,
          "internalType": "uint256",
          "name": "_id",
          "type": "uint256"
        },
        {
          "indexed": false,
          "internalType": "uint256",
          "name": "_percentage",
          "type": "uint256"
        }
      ],
      "name": "SetRoyalty",
      "type": "event"
    },
    {
      "anonymous": false,
      "inputs": [
        {
          "indexed": true,
          "internalType": "address",
          "name": "_owner",
          "type": "address"
        },
        {
          "indexed": true,
          "internalType": "address",
          "name": "_operator",
          "type": "address"
        },
        {
          "indexed": false,
          "internalType": "uint256",
          "name": "_id",
          "type": "uint256"
        },
        {
          "indexed": false,
          "internalType": "bool",
          "name": "_approved",
          "type": "bool"
        }
      ],
      "name": "SingleApproval",
      "type": "event"
    },
    {
      "anonymous": false,
      "inputs": [
        {
          "indexed": true,
          "internalType": "address",
          "name": "operator",
          "type": "address"
        },
        {
          "indexed": true,
          "internalType": "address",
          "name": "from",
          "type": "address"
        },
        {
          "indexed": true,
          "internalType": "address",
          "name": "to",
          "type": "address"
        },
        {
          "indexed": false,
          "internalType": "uint256[]",
          "name": "ids",
          "type": "uint256[]"
        },
        {
          "indexed": false,
          "internalType": "uint256[]",
          "name": "amounts",
          "type": "uint256[]"
        }
      ],
      "name": "TransferBatch",
      "type": "event"
    },
    {
      "anonymous": false,
      "inputs": [
        {
          "indexed": true,
          "internalType": "address",
          "name": "operator",
          "type": "address"
        },
        {
          "indexed": true,
          "internalType": "address",
          "name": "from",
          "type": "address"
        },
        {
          "indexed": true,
          "internalType": "address",
          "name": "to",
          "type": "address"
        },
        {
          "indexed": false,
          "internalType": "uint256",
          "name": "id",
          "type": "uint256"
        },
        {
          "indexed": false,
          "internalType": "uint256",
          "name": "amount",
          "type": "uint256"
        }
      ],
      "name": "TransferSingle",
      "type": "event"
    },
    {
      "anonymous": false,
      "inputs": [
        {
          "indexed": false,
          "internalType": "string",
          "name": "value",
          "type": "string"
        },
        {
          "indexed": true,
          "internalType": "uint256",
          "name": "id",
          "type": "uint256"
        }
      ],
      "name": "URI",
      "type": "event"
    },
    {
      "inputs": [],
      "name": "INITIAL_CONTROLLER",
      "outputs": [
        {
          "internalType": "address",
          "name": "",
          "type": "address"
        }
      ],
      "stateMutability": "pure",
      "type": "function"
    },
    {
      "inputs": [],
      "name": "NAME",
      "outputs": [
        {
          "internalType": "string",
          "name": "",
          "type": "string"
        }
      ],
      "stateMutability": "view",
      "type": "function"
    },
    {
      "inputs": [],
      "name": "VAULT_REGISTRY",
      "outputs": [
        {
          "internalType": "address",
          "name": "",
          "type": "address"
        }
      ],
      "stateMutability": "pure",
      "type": "function"
    },
    {
      "inputs": [],
      "name": "VERSION",
      "outputs": [
        {
          "internalType": "string",
          "name": "",
          "type": "string"
        }
      ],
      "stateMutability": "view",
      "type": "function"
    },
    {
      "inputs": [
        {
          "internalType": "address",
          "name": "",
          "type": "address"
        },
        {
          "internalType": "uint256",
          "name": "",
          "type": "uint256"
        }
      ],
      "name": "balanceOf",
      "outputs": [
        {
          "internalType": "uint256",
          "name": "",
          "type": "uint256"
        }
      ],
      "stateMutability": "view",
      "type": "function"
    },
    {
      "inputs": [
        {
          "internalType": "address[]",
          "name": "owners",
          "type": "address[]"
        },
        {
          "internalType": "uint256[]",
          "name": "ids",
          "type": "uint256[]"
        }
      ],
      "name": "balanceOfBatch",
      "outputs": [
        {
          "internalType": "uint256[]",
          "name": "balances",
          "type": "uint256[]"
        }
      ],
      "stateMutability": "view",
      "type": "function"
    },
    {
      "inputs": [
        {
          "internalType": "address",
          "name": "_from",
          "type": "address"
        },
        {
          "internalType": "uint256",
          "name": "_id",
          "type": "uint256"
        },
        {
          "internalType": "uint256",
          "name": "_amount",
          "type": "uint256"
        }
      ],
      "name": "burn",
      "outputs": [],
      "stateMutability": "nonpayable",
      "type": "function"
    },
    {
      "inputs": [],
      "name": "contractURI",
      "outputs": [
        {
          "internalType": "string",
          "name": "",
          "type": "string"
        }
      ],
      "stateMutability": "view",
      "type": "function"
    },
    {
      "inputs": [],
      "name": "controller",
      "outputs": [
        {
          "internalType": "address",
          "name": "controllerAddress",
          "type": "address"
        }
      ],
      "stateMutability": "view",
      "type": "function"
    },
    {
      "inputs": [
        {
          "internalType": "uint256",
          "name": "_id",
          "type": "uint256"
        },
        {
          "internalType": "string",
          "name": "_uri",
          "type": "string"
        }
      ],
      "name": "emitSetURI",
      "outputs": [],
      "stateMutability": "nonpayable",
      "type": "function"
    },
    {
      "inputs": [
        {
          "internalType": "address",
          "name": "",
          "type": "address"
        },
        {
          "internalType": "address",
          "name": "",
          "type": "address"
        },
        {
          "internalType": "uint256",
          "name": "",
          "type": "uint256"
        }
      ],
      "name": "isApproved",
      "outputs": [
        {
          "internalType": "bool",
          "name": "",
          "type": "bool"
        }
      ],
      "stateMutability": "view",
      "type": "function"
    },
    {
      "inputs": [
        {
          "internalType": "address",
          "name": "",
          "type": "address"
        },
        {
          "internalType": "address",
          "name": "",
          "type": "address"
        }
      ],
      "name": "isApprovedForAll",
      "outputs": [
        {
          "internalType": "bool",
          "name": "",
          "type": "bool"
        }
      ],
      "stateMutability": "view",
      "type": "function"
    },
    {
      "inputs": [
        {
          "internalType": "uint256",
          "name": "",
          "type": "uint256"
        }
      ],
      "name": "metadata",
      "outputs": [
        {
          "internalType": "address",
          "name": "",
          "type": "address"
        }
      ],
      "stateMutability": "view",
      "type": "function"
    },
    {
      "inputs": [
        {
          "internalType": "address",
          "name": "_to",
          "type": "address"
        },
        {
          "internalType": "uint256",
          "name": "_id",
          "type": "uint256"
        },
        {
          "internalType": "uint256",
          "name": "_amount",
          "type": "uint256"
        },
        {
          "internalType": "bytes",
          "name": "_data",
          "type": "bytes"
        }
      ],
      "name": "mint",
      "outputs": [],
      "stateMutability": "nonpayable",
      "type": "function"
    },
    {
      "inputs": [
        {
          "internalType": "address",
          "name": "",
          "type": "address"
        }
      ],
      "name": "nonces",
      "outputs": [
        {
          "internalType": "uint256",
          "name": "",
          "type": "uint256"
        }
      ],
      "stateMutability": "view",
      "type": "function"
    },
    {
      "inputs": [
        {
          "internalType": "address",
          "name": "_owner",
          "type": "address"
        },
        {
          "internalType": "address",
          "name": "_operator",
          "type": "address"
        },
        {
          "internalType": "uint256",
          "name": "_id",
          "type": "uint256"
        },
        {
          "internalType": "bool",
          "name": "_approved",
          "type": "bool"
        },
        {
          "internalType": "uint256",
          "name": "_deadline",
          "type": "uint256"
        },
        {
          "internalType": "uint8",
          "name": "_v",
          "type": "uint8"
        },
        {
          "internalType": "bytes32",
          "name": "_r",
          "type": "bytes32"
        },
        {
          "internalType": "bytes32",
          "name": "_s",
          "type": "bytes32"
        }
      ],
      "name": "permit",
      "outputs": [],
      "stateMutability": "nonpayable",
      "type": "function"
    },
    {
      "inputs": [
        {
          "internalType": "address",
          "name": "_owner",
          "type": "address"
        },
        {
          "internalType": "address",
          "name": "_operator",
          "type": "address"
        },
        {
          "internalType": "bool",
          "name": "_approved",
          "type": "bool"
        },
        {
          "internalType": "uint256",
          "name": "_deadline",
          "type": "uint256"
        },
        {
          "internalType": "uint8",
          "name": "_v",
          "type": "uint8"
        },
        {
          "internalType": "bytes32",
          "name": "_r",
          "type": "bytes32"
        },
        {
          "internalType": "bytes32",
          "name": "_s",
          "type": "bytes32"
        }
      ],
      "name": "permitAll",
      "outputs": [],
      "stateMutability": "nonpayable",
      "type": "function"
    },
    {
      "inputs": [
        {
          "internalType": "uint256",
          "name": "_id",
          "type": "uint256"
        },
        {
          "internalType": "uint256",
          "name": "_salePrice",
          "type": "uint256"
        }
      ],
      "name": "royaltyInfo",
      "outputs": [
        {
          "internalType": "address",
          "name": "receiver",
          "type": "address"
        },
        {
          "internalType": "uint256",
          "name": "royaltyAmount",
          "type": "uint256"
        }
      ],
      "stateMutability": "view",
      "type": "function"
    },
    {
      "inputs": [
        {
          "internalType": "address",
          "name": "from",
          "type": "address"
        },
        {
          "internalType": "address",
          "name": "to",
          "type": "address"
        },
        {
          "internalType": "uint256[]",
          "name": "ids",
          "type": "uint256[]"
        },
        {
          "internalType": "uint256[]",
          "name": "amounts",
          "type": "uint256[]"
        },
        {
          "internalType": "bytes",
          "name": "data",
          "type": "bytes"
        }
      ],
      "name": "safeBatchTransferFrom",
      "outputs": [],
      "stateMutability": "nonpayable",
      "type": "function"
    },
    {
      "inputs": [
        {
          "internalType": "address",
          "name": "_from",
          "type": "address"
        },
        {
          "internalType": "address",
          "name": "_to",
          "type": "address"
        },
        {
          "internalType": "uint256",
          "name": "_id",
          "type": "uint256"
        },
        {
          "internalType": "uint256",
          "name": "_amount",
          "type": "uint256"
        },
        {
          "internalType": "bytes",
          "name": "_data",
          "type": "bytes"
        }
      ],
      "name": "safeTransferFrom",
      "outputs": [],
      "stateMutability": "nonpayable",
      "type": "function"
    },
    {
      "inputs": [
        {
          "internalType": "address",
          "name": "_operator",
          "type": "address"
        },
        {
          "internalType": "uint256",
          "name": "_id",
          "type": "uint256"
        },
        {
          "internalType": "bool",
          "name": "_approved",
          "type": "bool"
        }
      ],
      "name": "setApprovalFor",
      "outputs": [],
      "stateMutability": "nonpayable",
      "type": "function"
    },
    {
      "inputs": [
        {
          "internalType": "address",
          "name": "operator",
          "type": "address"
        },
        {
          "internalType": "bool",
          "name": "approved",
          "type": "bool"
        }
      ],
      "name": "setApprovalForAll",
      "outputs": [],
      "stateMutability": "nonpayable",
      "type": "function"
    },
    {
      "inputs": [
        {
          "internalType": "string",
          "name": "_uri",
          "type": "string"
        }
      ],
      "name": "setContractURI",
      "outputs": [],
      "stateMutability": "nonpayable",
      "type": "function"
    },
    {
      "inputs": [
        {
          "internalType": "address",
          "name": "_metadata",
          "type": "address"
        },
        {
          "internalType": "uint256",
          "name": "_id",
          "type": "uint256"
        }
      ],
      "name": "setMetadata",
      "outputs": [],
      "stateMutability": "nonpayable",
      "type": "function"
    },
    {
      "inputs": [
        {
          "internalType": "uint256",
          "name": "_id",
          "type": "uint256"
        },
        {
          "internalType": "address",
          "name": "_receiver",
          "type": "address"
        },
        {
          "internalType": "uint256",
          "name": "_percentage",
          "type": "uint256"
        }
      ],
      "name": "setRoyalties",
      "outputs": [],
      "stateMutability": "nonpayable",
      "type": "function"
    },
    {
      "inputs": [
        {
          "internalType": "bytes4",
          "name": "interfaceId",
          "type": "bytes4"
        }
      ],
      "name": "supportsInterface",
      "outputs": [
        {
          "internalType": "bool",
          "name": "",
          "type": "bool"
        }
      ],
      "stateMutability": "view",
      "type": "function"
    },
    {
      "inputs": [
        {
          "internalType": "uint256",
          "name": "",
          "type": "uint256"
        }
      ],
      "name": "totalSupply",
      "outputs": [
        {
          "internalType": "uint256",
          "name": "",
          "type": "uint256"
        }
      ],
      "stateMutability": "view",
      "type": "function"
    },
    {
      "inputs": [
        {
          "internalType": "address",
          "name": "_newController",
          "type": "address"
        }
      ],
      "name": "transferController",
      "outputs": [],
      "stateMutability": "nonpayable",
      "type": "function"
    },
    {
      "inputs": [
        {
          "internalType": "uint256",
          "name": "_id",
          "type": "uint256"
        }
      ],
      "name": "uri",
      "outputs": [
        {
          "internalType": "string",
          "name": "",
          "type": "string"
        }
      ],
      "stateMutability": "view",
      "type": "function"
    }
  ],
  "bytecode": "0x608060405234801561001057600080fd5b50612cc7806100206000396000f3fe608060405234801561001057600080fd5b50600436106101ce5760003560e01c8063a3f4df7e11610104578063e8a3d485116100a2578063f5298aca11610071578063f5298aca146104ad578063f72c8689146104c0578063f77c4791146104d3578063ffa1ad74146104db57600080fd5b8063e8a3d48514610451578063e8ea054b14610459578063e985e9c51461046c578063f242432a1461049a57600080fd5b8063de11ff79116100de578063de11ff79146103d9578063e2c7f338146103e1578063e3684e39146103f4578063e5af48d81461041d57600080fd5b8063a3f4df7e1461036a578063bd85b039146103a6578063cfa8fb42146103c657600080fd5b80632eb2c2d611610171578063731133e91161014b578063731133e9146103115780637ecebe0014610324578063938e3d7b14610344578063a22cb4651461035757600080fd5b80632eb2c2d6146102cb5780634e1273f4146102de5780635ae1bdc7146102fe57600080fd5b80630986c677116101ad5780630986c677146102515780630e89341c146102665780632a55205a146102865780632ccd9ed4146102b857600080fd5b8062fdd58e146101d357806301ffc9a71461020e57806302ace7fe14610231575b600080fd5b6101fb6101e1366004612102565b600060208181529281526040808220909352908152205481565b6040519081526020015b60405180910390f35b61022161021c36600461215d565b610517565b6040519015158152602001610205565b6102396105fc565b6040516001600160a01b039091168152602001610205565b61026461025f366004612283565b61060d565b005b6102796102743660046122de565b6106c0565b604051610205919061236d565b610299610294366004612380565b6107f6565b604080516001600160a01b039093168352602083019190915201610205565b6102646102c63660046123c3565b61083d565b6102646102d93660046124cc565b610b89565b6102f16102ec366004612587565b610ef8565b60405161020591906125f3565b61026461030c366004612102565b611055565b61026461031f366004612657565b61112e565b6101fb6103323660046126b8565b60066020526000908152604090205481565b6102646103523660046126d3565b6111c3565b610264610365366004612715565b611234565b6102796040518060400160405280600881526020017f464552433131353500000000000000000000000000000000000000000000000081525081565b6101fb6103b43660046122de565b60076020526000908152604090205481565b6102646103d436600461273f565b6112be565b6102396115a0565b6102646103ef3660046127b0565b6115ac565b6102396104023660046122de565b6005602052600090815260409020546001600160a01b031681565b61022161042b3660046127e5565b600460209081526000938452604080852082529284528284209052825290205460ff1681565b610279611697565b6102646104673660046126b8565b611725565b61022161047a366004612811565b600160209081526000928352604080842090915290825290205460ff1681565b6102646104a836600461283b565b611827565b6102646104bb3660046128ad565b611af8565b6102646104ce3660046128e0565b611b8b565b610239611c22565b6102796040518060400160405280600181526020017f310000000000000000000000000000000000000000000000000000000000000081525081565b60007f01ffc9a7000000000000000000000000000000000000000000000000000000007fffffffff00000000000000000000000000000000000000000000000000000000831614806105aa57507fd9b67a26000000000000000000000000000000000000000000000000000000007fffffffff000000000000000000000000000000000000000000000000000000008316145b806105f657507f0e89341c000000000000000000000000000000000000000000000000000000007fffffffff000000000000000000000000000000000000000000000000000000008316145b92915050565b60006106086014611c56565b905090565b6000828152600560205260409020546001600160a01b0316331461068457600082815260056020526040908190205490517fe1130dba0000000000000000000000000000000000000000000000000000000081526001600160a01b0390911660048201523360248201526044015b60405180910390fd5b817f6bb7ff708619ba0610cba295a58592e0451dee2622938c8755667688daf3529b826040516106b4919061236d565b60405180910390a25050565b6000818152600560205260409020546060906001600160a01b0316610741576040517f08c379a000000000000000000000000000000000000000000000000000000000815260206004820152600b60248201527f4e4f204d45544144415441000000000000000000000000000000000000000000604482015260640161067b565b600082815260056020526040908190205490517f0e89341c000000000000000000000000000000000000000000000000000000008152600481018490526001600160a01b0390911690630e89341c90602401600060405180830381865afa1580156107b0573d6000803e3d6000fd5b505050506040513d6000823e601f3d9081017fffffffffffffffffffffffffffffffffffffffffffffffffffffffffffffffe01682016040526105f6919081019061291c565b60008281526008602090815260408083205460099092528220546001600160a01b03909116919060649061082a90856129c2565b61083491906129ff565b90509250929050565b83421115610880576040517ff88f04900000000000000000000000000000000000000000000000000000000081524260048201526024810185905260440161067b565b600061088f8989898989611c99565b905060006109f5610999604080518082018252600881527f464552433131353500000000000000000000000000000000000000000000000060209182015281518083018352600181527f31000000000000000000000000000000000000000000000000000000000000009082015281517f8b73c3c69bb8fe3d512ecc4cf759cc79239f7b179b0ffacaa9a75d522b39400f818301527f233a50b0a5718e212019cf2306cc9da67bd87b875da0db3a1c4170b06c73ecd8818401527fc89efdaa54c0f20c7adf612882df0950f5a951637e0307cdcb4c672f298b8bc660608201524660808201523060a0808301919091528351808303909101815260c0909101909252815191012090565b836040517f19010000000000000000000000000000000000000000000000000000000000006020820152602281018390526042810182905260009060620160405160208183030381529060405280519060200120905092915050565b6040805160008082526020820180845284905260ff89169282019290925260608101879052608081018690529192509060019060a0016020604051602081039080840390855afa158015610a4d573d6000803e3d6000fd5b50506040517fffffffffffffffffffffffffffffffffffffffffffffffffffffffffffffffe001519150506001600160a01b0381161580610aa057508a6001600160a01b0316816001600160a01b031614155b15610aea576040517f42d750dc0000000000000000000000000000000000000000000000000000000081526001600160a01b0380831660048301528c16602482015260440161067b565b5050506001600160a01b038881166000818152600460209081526040808320948c168084529482528083208b845282529182902080547fffffffffffffffffffffffffffffffffffffffffffffffffffffffffffffff00168a151590811790915582518b8152918201527f9fe4c80ed54641e7463c240ea1212aa79c810413295452fae0729f7056107677910160405180910390a35050505050505050565b848314610bf2576040517f08c379a000000000000000000000000000000000000000000000000000000000815260206004820152600f60248201527f4c454e4754485f4d49534d415443480000000000000000000000000000000000604482015260640161067b565b336001600160a01b0389161480610c2c57506001600160a01b038816600090815260016020908152604080832033845290915290205460ff165b610c92576040517f08c379a000000000000000000000000000000000000000000000000000000000815260206004820152600e60248201527f4e4f545f415554484f52495a4544000000000000000000000000000000000000604482015260640161067b565b60008060005b87811015610d4d57888882818110610cb257610cb2612a3a565b905060200201359250868682818110610ccd57610ccd612a3a565b6001600160a01b038e1660009081526020818152604080832089845282528220805493909102949094013595508593925090610d0a908490612a69565b90915550506001600160a01b038a1660009081526020818152604080832086845290915281208054849290610d40908490612a80565b9091555050600101610c98565b50886001600160a01b03168a6001600160a01b0316336001600160a01b03167f4a39dc06d4c0dbc64b70af90fd698a233a518aa5d07e595d983b8c0526c8f7fb8b8b8b8b604051610da19493929190612ae7565b60405180910390a46001600160a01b0389163b15610e79576040517fbc197c8100000000000000000000000000000000000000000000000000000000808252906001600160a01b038b169063bc197c8190610e0e9033908f908e908e908e908e908e908e90600401612b19565b6020604051808303816000875af1158015610e2d573d6000803e3d6000fd5b505050506040513d601f19601f82011682018060405250810190610e519190612bb1565b7fffffffff000000000000000000000000000000000000000000000000000000001614610e86565b6001600160a01b03891615155b610eec576040517f08c379a000000000000000000000000000000000000000000000000000000000815260206004820152601060248201527f554e534146455f524543495049454e5400000000000000000000000000000000604482015260640161067b565b50505050505050505050565b6060838214610f63576040517f08c379a000000000000000000000000000000000000000000000000000000000815260206004820152600f60248201527f4c454e4754485f4d49534d415443480000000000000000000000000000000000604482015260640161067b565b8367ffffffffffffffff811115610f7c57610f7c612181565b604051908082528060200260200182016040528015610fa5578160200160208202803683370190505b50905060005b8481101561104c57600080878784818110610fc857610fc8612a3a565b9050602002016020810190610fdd91906126b8565b6001600160a01b03166001600160a01b03168152602001908152602001600020600085858481811061101157611011612a3a565b9050602002013581526020019081526020016000205482828151811061103957611039612a3a565b6020908102919091010152600101610fab565b50949350505050565b600061105f611c22565b9050336001600160a01b038216146110b4576040517fe1130dba0000000000000000000000000000000000000000000000000000000081526001600160a01b038216600482015233602482015260440161067b565b60008281526005602090815260409182902080547fffffffffffffffffffffffff0000000000000000000000000000000000000000166001600160a01b03871690811790915591518481527e2eaa91860e3ef728f8a91f04b0b0fb11f91d377fafbe25db7299c3e76150dd910160405180910390a2505050565b60006111386105fc565b9050336001600160a01b0382161461118d576040517fe1130dba0000000000000000000000000000000000000000000000000000000081526001600160a01b038216600482015233602482015260440161067b565b61119985858585611d4c565b600084815260076020526040812080548592906111b7908490612a80565b90915550505050505050565b60006111cd611c22565b9050336001600160a01b03821614611222576040517fe1130dba0000000000000000000000000000000000000000000000000000000081526001600160a01b038216600482015233602482015260440161067b565b61122e60038484612038565b50505050565b3360008181526001602090815260408083206001600160a01b0387168085529083529281902080547fffffffffffffffffffffffffffffffffffffffffffffffffffffffffffffff001686151590811790915590519081529192917f17307eab39ab6107e8899845ad3d59bd9653f200f220920489ca2b5937696c31910160405180910390a35050565b83421115611301576040517ff88f04900000000000000000000000000000000000000000000000000000000081524260048201526024810185905260440161067b565b600061130f88888888611f09565b90506000611419610999604080518082018252600881527f464552433131353500000000000000000000000000000000000000000000000060209182015281518083018352600181527f31000000000000000000000000000000000000000000000000000000000000009082015281517f8b73c3c69bb8fe3d512ecc4cf759cc79239f7b179b0ffacaa9a75d522b39400f818301527f233a50b0a5718e212019cf2306cc9da67bd87b875da0db3a1c4170b06c73ecd8818401527fc89efdaa54c0f20c7adf612882df0950f5a951637e0307cdcb4c672f298b8bc660608201524660808201523060a0808301919091528351808303909101815260c0909101909252815191012090565b6040805160008082526020820180845284905260ff89169282019290925260608101879052608081018690529192509060019060a0016020604051602081039080840390855afa158015611471573d6000803e3d6000fd5b50506040517fffffffffffffffffffffffffffffffffffffffffffffffffffffffffffffffe001519150506001600160a01b03811615806114c45750896001600160a01b0316816001600160a01b031614155b1561150e576040517f42d750dc0000000000000000000000000000000000000000000000000000000081526001600160a01b0380831660048301528b16602482015260440161067b565b5050506001600160a01b038781166000818152600160209081526040808320948b168084529482529182902080547fffffffffffffffffffffffffffffffffffffffffffffffffffffffffffffff00168a151590811790915591519182527f17307eab39ab6107e8899845ad3d59bd9653f200f220920489ca2b5937696c31910160405180910390a350505050505050565b60006106086000611c56565b60006115b6611c22565b9050336001600160a01b0382161461160b576040517fe1130dba0000000000000000000000000000000000000000000000000000000081526001600160a01b038216600482015233602482015260440161067b565b600084815260086020908152604080832080547fffffffffffffffffffffffff0000000000000000000000000000000000000000166001600160a01b038816908117909155600983529281902085905580518781529182018590527fd8d64e17a5f54d19ed4852e386866de24539f87d9f047e36c8216e6448b22511910160405180910390a250505050565b600380546116a490612bce565b80601f01602080910402602001604051908101604052809291908181526020018280546116d090612bce565b801561171d5780601f106116f25761010080835404028352916020019161171d565b820191906000526020600020905b81548152906001019060200180831161170057829003601f168201915b505050505081565b600061172f611c22565b9050336001600160a01b03821614611784576040517fe1130dba0000000000000000000000000000000000000000000000000000000081526001600160a01b038216600482015233602482015260440161067b565b6001600160a01b0382166117c4576040517fd92e233d00000000000000000000000000000000000000000000000000000000815260040160405180910390fd5b600280547fffffffffffffffffffffffff0000000000000000000000000000000000000000166001600160a01b0384169081179091556040517f22ae3e13754fada79785f8712cf9edb6d7a1be7e1738be44b84374a5b0220aed90600090a25050565b336001600160a01b038616148061186157506001600160a01b038516600090815260016020908152604080832033845290915290205460ff165b8061189757506001600160a01b0385166000908152600460209081526040808320338452825280832086845290915290205460ff165b6118fd576040517f08c379a000000000000000000000000000000000000000000000000000000000815260206004820152600e60248201527f4e4f545f415554484f52495a4544000000000000000000000000000000000000604482015260640161067b565b6001600160a01b0385166000908152602081815260408083208684529091528120805484929061192e908490612a69565b90915550506001600160a01b03841660009081526020818152604080832086845290915281208054849290611964908490612a80565b909155505060408051848152602081018490526001600160a01b03808716929088169133917fc3d58168c5ae7397731d063d5bbf3d657854427343f4c083240f7aacaa2d0f62910160405180910390a46001600160a01b0384163b15611a7e576040517ff23a6e6100000000000000000000000000000000000000000000000000000000808252906001600160a01b0386169063f23a6e6190611a139033908a90899089908990600401612c21565b6020604051808303816000875af1158015611a32573d6000803e3d6000fd5b505050506040513d601f19601f82011682018060405250810190611a569190612bb1565b7fffffffff000000000000000000000000000000000000000000000000000000001614611a8b565b6001600160a01b03841615155b611af1576040517f08c379a000000000000000000000000000000000000000000000000000000000815260206004820152601060248201527f554e534146455f524543495049454e5400000000000000000000000000000000604482015260640161067b565b5050505050565b6000611b026105fc565b9050336001600160a01b03821614611b57576040517fe1130dba0000000000000000000000000000000000000000000000000000000081526001600160a01b038216600482015233602482015260440161067b565b611b62848484611fb4565b60008381526007602052604081208054849290611b80908490612a69565b909155505050505050565b3360008181526004602090815260408083206001600160a01b03881680855290835281842087855283529281902080547fffffffffffffffffffffffffffffffffffffffffffffffffffffffffffffff00168615159081179091558151878152928301529192917f9fe4c80ed54641e7463c240ea1212aa79c810413295452fae0729f7056107677910160405180910390a3505050565b6002546000906001600160a01b031615611c4657506002546001600160a01b031690565b611c4e6115a0565b9050805b5090565b600080611c8b7ffffffffffffffffffffffffffffffffffffffffffffffffffffffffffffffffe368181013560f01c90030190565b929092013560601c92915050565b6001600160a01b038516600090815260066020526040812080547faff3e7017d0a41834e125c9c80495a73609c1859f670a0c126d99a1acf4b4e6891889188918891889187611ce783612c59565b909155506040805160208101979097526001600160a01b03958616908701529390921660608501526080840152151560a083015260c082015260e081018390526101000160405160208183030381529060405280519060200120905095945050505050565b6001600160a01b03841660009081526020818152604080832086845290915281208054849290611d7d908490612a80565b909155505060408051848152602081018490526001600160a01b0386169160009133917fc3d58168c5ae7397731d063d5bbf3d657854427343f4c083240f7aacaa2d0f62910160405180910390a46001600160a01b0384163b15611e96576040517ff23a6e6100000000000000000000000000000000000000000000000000000000808252906001600160a01b0386169063f23a6e6190611e2b903390600090899089908990600401612c21565b6020604051808303816000875af1158015611e4a573d6000803e3d6000fd5b505050506040513d601f19601f82011682018060405250810190611e6e9190612bb1565b7fffffffff000000000000000000000000000000000000000000000000000000001614611ea3565b6001600160a01b03841615155b61122e576040517f08c379a000000000000000000000000000000000000000000000000000000000815260206004820152601060248201527f554e534146455f524543495049454e5400000000000000000000000000000000604482015260640161067b565b6001600160a01b038416600090815260066020526040812080547f200d2483757e19728fc8a3511298158c1b74dd131c7be00c4904e11665b42cd1918791879187919086611f5683612c59565b909155506040805160208101969096526001600160a01b03948516908601529290911660608401521515608083015260a082015260c0810183905260e001604051602081830303815290604052805190602001209050949350505050565b6001600160a01b03831660009081526020818152604080832085845290915281208054839290611fe5908490612a69565b909155505060408051838152602081018390526000916001600160a01b0386169133917fc3d58168c5ae7397731d063d5bbf3d657854427343f4c083240f7aacaa2d0f62910160405180910390a4505050565b82805461204490612bce565b90600052602060002090601f01602090048101928261206657600085556120ca565b82601f1061209d578280017fffffffffffffffffffffffffffffffffffffffffffffffffffffffffffffff008235161785556120ca565b828001600101855582156120ca579182015b828111156120ca5782358255916020019190600101906120af565b50611c529291505b80821115611c5257600081556001016120d2565b80356001600160a01b03811681146120fd57600080fd5b919050565b6000806040838503121561211557600080fd5b61211e836120e6565b946020939093013593505050565b7fffffffff000000000000000000000000000000000000000000000000000000008116811461215a57600080fd5b50565b60006020828403121561216f57600080fd5b813561217a8161212c565b9392505050565b7f4e487b7100000000000000000000000000000000000000000000000000000000600052604160045260246000fd5b604051601f82017fffffffffffffffffffffffffffffffffffffffffffffffffffffffffffffffe016810167ffffffffffffffff811182821017156121f7576121f7612181565b604052919050565b600067ffffffffffffffff82111561221957612219612181565b50601f017fffffffffffffffffffffffffffffffffffffffffffffffffffffffffffffffe01660200190565b6000612258612253846121ff565b6121b0565b905082815283838301111561226c57600080fd5b828260208301376000602084830101529392505050565b6000806040838503121561229657600080fd5b82359150602083013567ffffffffffffffff8111156122b457600080fd5b8301601f810185136122c557600080fd5b6122d485823560208401612245565b9150509250929050565b6000602082840312156122f057600080fd5b5035919050565b60005b838110156123125781810151838201526020016122fa565b8381111561122e5750506000910152565b6000815180845261233b8160208601602086016122f7565b601f017fffffffffffffffffffffffffffffffffffffffffffffffffffffffffffffffe0169290920160200192915050565b60208152600061217a6020830184612323565b6000806040838503121561239357600080fd5b50508035926020909101359150565b803580151581146120fd57600080fd5b803560ff811681146120fd57600080fd5b600080600080600080600080610100898b0312156123e057600080fd5b6123e9896120e6565b97506123f760208a016120e6565b96506040890135955061240c60608a016123a2565b94506080890135935061242160a08a016123b2565b925060c0890135915060e089013590509295985092959890939650565b60008083601f84011261245057600080fd5b50813567ffffffffffffffff81111561246857600080fd5b6020830191508360208260051b850101111561248357600080fd5b9250929050565b60008083601f84011261249c57600080fd5b50813567ffffffffffffffff8111156124b457600080fd5b60208301915083602082850101111561248357600080fd5b60008060008060008060008060a0898b0312156124e857600080fd5b6124f1896120e6565b97506124ff60208a016120e6565b9650604089013567ffffffffffffffff8082111561251c57600080fd5b6125288c838d0161243e565b909850965060608b013591508082111561254157600080fd5b61254d8c838d0161243e565b909650945060808b013591508082111561256657600080fd5b506125738b828c0161248a565b999c989b5096995094979396929594505050565b6000806000806040858703121561259d57600080fd5b843567ffffffffffffffff808211156125b557600080fd5b6125c18883890161243e565b909650945060208701359150808211156125da57600080fd5b506125e78782880161243e565b95989497509550505050565b6020808252825182820181905260009190848201906040850190845b8181101561262b5783518352928401929184019160010161260f565b50909695505050505050565b600082601f83011261264857600080fd5b61217a83833560208501612245565b6000806000806080858703121561266d57600080fd5b612676856120e6565b93506020850135925060408501359150606085013567ffffffffffffffff8111156126a057600080fd5b6126ac87828801612637565b91505092959194509250565b6000602082840312156126ca57600080fd5b61217a826120e6565b600080602083850312156126e657600080fd5b823567ffffffffffffffff8111156126fd57600080fd5b6127098582860161248a565b90969095509350505050565b6000806040838503121561272857600080fd5b612731836120e6565b9150610834602084016123a2565b600080600080600080600060e0888a03121561275a57600080fd5b612763886120e6565b9650612771602089016120e6565b955061277f604089016123a2565b945060608801359350612794608089016123b2565b925060a0880135915060c0880135905092959891949750929550565b6000806000606084860312156127c557600080fd5b833592506127d5602085016120e6565b9150604084013590509250925092565b6000806000606084860312156127fa57600080fd5b612803846120e6565b92506127d5602085016120e6565b6000806040838503121561282457600080fd5b61282d836120e6565b9150610834602084016120e6565b600080600080600060a0868803121561285357600080fd5b61285c866120e6565b945061286a602087016120e6565b93506040860135925060608601359150608086013567ffffffffffffffff81111561289457600080fd5b6128a088828901612637565b9150509295509295909350565b6000806000606084860312156128c257600080fd5b6128cb846120e6565b95602085013595506040909401359392505050565b6000806000606084860312156128f557600080fd5b6128fe846120e6565b925060208401359150612913604085016123a2565b90509250925092565b60006020828403121561292e57600080fd5b815167ffffffffffffffff81111561294557600080fd5b8201601f8101841361295657600080fd5b8051612964612253826121ff565b81815285602083850101111561297957600080fd5b61298a8260208301602086016122f7565b95945050505050565b7f4e487b7100000000000000000000000000000000000000000000000000000000600052601160045260246000fd5b6000817fffffffffffffffffffffffffffffffffffffffffffffffffffffffffffffffff04831182151516156129fa576129fa612993565b500290565b600082612a35577f4e487b7100000000000000000000000000000000000000000000000000000000600052601260045260246000fd5b500490565b7f4e487b7100000000000000000000000000000000000000000000000000000000600052603260045260246000fd5b600082821015612a7b57612a7b612993565b500390565b60008219821115612a9357612a93612993565b500190565b81835260007f07ffffffffffffffffffffffffffffffffffffffffffffffffffffffffffffff831115612aca57600080fd5b8260051b8083602087013760009401602001938452509192915050565b604081526000612afb604083018688612a98565b8281036020840152612b0e818587612a98565b979650505050505050565b60006001600160a01b03808b168352808a1660208401525060a06040830152612b4660a08301888a612a98565b8281036060840152612b59818789612a98565b905082810360808401528381528385602083013760006020858301015260207fffffffffffffffffffffffffffffffffffffffffffffffffffffffffffffffe0601f8601168201019150509998505050505050505050565b600060208284031215612bc357600080fd5b815161217a8161212c565b600181811c90821680612be257607f821691505b602082108103612c1b577f4e487b7100000000000000000000000000000000000000000000000000000000600052602260045260246000fd5b50919050565b60006001600160a01b03808816835280871660208401525084604083015283606083015260a06080830152612b0e60a0830184612323565b60007fffffffffffffffffffffffffffffffffffffffffffffffffffffffffffffffff8203612c8a57612c8a612993565b506001019056fea2646970667358221220491516c0312c365eb81686e07736f00903c03fb35e3896eceace0995031ceae664736f6c634300080d0033",
  "linkReferences": {},
  "deployedLinkReferences": {}
}