{
  "abi": [
    {
      "inputs": [
        {
          "internalType": "address",
          "name": "_addr",
          "type": "address"
        },
        {
          "internalType": "uint256",
          "name": "_privateKey",
          "type": "uint256"
        },
        {
          "internalType": "address",
          "name": "_target",
          "type": "address"
        }
      ],
      "stateMutability": "nonpayable",
      "type": "constructor"
    },
    {
      "inputs": [
        {
          "internalType": "address",
          "name": "arg0",
          "type": "address"
        },
        {
          "internalType": "uint256",
          "name": "arg1",
          "type": "uint256"
        }
      ],
      "name": "balanceOf",
      "outputs": [
        {
          "internalType": "uint256",
          "name": "",
          "type": "uint256"
        }
      ],
      "stateMutability": "nonpayable",
      "type": "function"
    },
    {
      "inputs": [
        {
          "internalType": "address[]",
          "name": "owners",
          "type": "address[]"
        },
        {
          "internalType": "uint256[]",
          "name": "ids",
          "type": "uint256[]"
        }
      ],
      "name": "balanceOfBatch",
      "outputs": [
        {
          "internalType": "uint256[]",
          "name": "",
          "type": "uint256[]"
        }
      ],
      "stateMutability": "nonpayable",
      "type": "function"
    },
    {
      "inputs": [
        {
          "internalType": "address",
          "name": "from",
          "type": "address"
        },
        {
          "internalType": "uint256[]",
          "name": "ids",
          "type": "uint256[]"
        },
        {
          "internalType": "uint256[]",
          "name": "amounts",
          "type": "uint256[]"
        }
      ],
      "name": "batchBurn",
      "outputs": [],
      "stateMutability": "nonpayable",
      "type": "function"
    },
    {
      "inputs": [
        {
          "internalType": "address",
          "name": "to",
          "type": "address"
        },
        {
          "internalType": "uint256[]",
          "name": "ids",
          "type": "uint256[]"
        },
        {
          "internalType": "uint256[]",
          "name": "amounts",
          "type": "uint256[]"
        },
        {
          "internalType": "bytes",
          "name": "data",
          "type": "bytes"
        }
      ],
      "name": "batchMint",
      "outputs": [],
      "stateMutability": "nonpayable",
      "type": "function"
    },
    {
      "inputs": [
        {
          "internalType": "address",
          "name": "from",
          "type": "address"
        },
        {
          "internalType": "uint256",
          "name": "id",
          "type": "uint256"
        },
        {
          "internalType": "uint256",
          "name": "amount",
          "type": "uint256"
        }
      ],
      "name": "burn",
      "outputs": [],
      "stateMutability": "nonpayable",
      "type": "function"
    },
    {
      "inputs": [
        {
          "internalType": "address",
          "name": "arg0",
          "type": "address"
        },
        {
          "internalType": "address",
          "name": "arg1",
          "type": "address"
        }
      ],
      "name": "isApprovedForAll",
      "outputs": [
        {
          "internalType": "bool",
          "name": "",
          "type": "bool"
        }
      ],
      "stateMutability": "nonpayable",
      "type": "function"
    },
    {
      "inputs": [
        {
          "internalType": "address",
          "name": "to",
          "type": "address"
        },
        {
          "internalType": "uint256",
          "name": "id",
          "type": "uint256"
        },
        {
          "internalType": "uint256",
          "name": "amount",
          "type": "uint256"
        },
        {
          "internalType": "bytes",
          "name": "data",
          "type": "bytes"
        }
      ],
      "name": "mint",
      "outputs": [],
      "stateMutability": "nonpayable",
      "type": "function"
    },
    {
      "inputs": [],
      "name": "proxyContract",
      "outputs": [
        {
          "internalType": "address",
          "name": "",
          "type": "address"
        }
      ],
      "stateMutability": "view",
      "type": "function"
    },
    {
      "inputs": [
        {
          "internalType": "address",
          "name": "from",
          "type": "address"
        },
        {
          "internalType": "address",
          "name": "to",
          "type": "address"
        },
        {
          "internalType": "uint256[]",
          "name": "ids",
          "type": "uint256[]"
        },
        {
          "internalType": "uint256[]",
          "name": "amounts",
          "type": "uint256[]"
        },
        {
          "internalType": "bytes",
          "name": "data",
          "type": "bytes"
        }
      ],
      "name": "safeBatchTransferFrom",
      "outputs": [],
      "stateMutability": "nonpayable",
      "type": "function"
    },
    {
      "inputs": [
        {
          "internalType": "address",
          "name": "from",
          "type": "address"
        },
        {
          "internalType": "address",
          "name": "to",
          "type": "address"
        },
        {
          "internalType": "uint256",
          "name": "id",
          "type": "uint256"
        },
        {
          "internalType": "uint256",
          "name": "amount",
          "type": "uint256"
        },
        {
          "internalType": "bytes",
          "name": "data",
          "type": "bytes"
        }
      ],
      "name": "safeTransferFrom",
      "outputs": [],
      "stateMutability": "nonpayable",
      "type": "function"
    },
    {
      "inputs": [
        {
          "internalType": "address",
          "name": "operator",
          "type": "address"
        },
        {
          "internalType": "bool",
          "name": "approved",
          "type": "bool"
        }
      ],
      "name": "setApprovalForAll",
      "outputs": [],
      "stateMutability": "nonpayable",
      "type": "function"
    },
    {
      "inputs": [
        {
          "internalType": "bytes4",
          "name": "interfaceId",
          "type": "bytes4"
        }
      ],
      "name": "supportsInterface",
      "outputs": [
        {
          "internalType": "bool",
          "name": "",
          "type": "bool"
        }
      ],
      "stateMutability": "nonpayable",
      "type": "function"
    },
    {
      "inputs": [
        {
          "internalType": "uint256",
          "name": "arg0",
          "type": "uint256"
        }
      ],
      "name": "uri",
      "outputs": [
        {
          "internalType": "string",
          "name": "",
          "type": "string"
        }
      ],
      "stateMutability": "nonpayable",
      "type": "function"
    }
  ],
  "bytecode": {
    "object": "0x60806040523480156200001157600080fd5b50604051620019ae380380620019ae833981016040819052620000349162000114565b8115620000bd576040516001625e79b760e01b0319815260048101839052737109709ecfa91a80626ff3989d68f67f5b1dd12d9063ffa18649906024016020604051808303816000875af115801562000091573d6000803e3d6000fd5b505050506040513d601f19601f82011682018060405250810190620000b7919062000155565b620000bf565b825b600080546001600160a01b03199081166001600160a01b0393841617909155600193909355600280549093169116179055506200017a565b80516001600160a01b03811681146200010f57600080fd5b919050565b6000806000606084860312156200012a57600080fd5b6200013584620000f7565b9250602084015191506200014c60408501620000f7565b90509250925092565b6000602082840312156200016857600080fd5b6200017382620000f7565b9392505050565b611824806200018a6000396000f3fe608060405234801561001057600080fd5b50600436106100ce5760003560e01c8063a22cb4651161008c578063ed55044311610066578063ed550443146101bd578063f242432a146101d8578063f5298aca146101eb578063f6eb127a146101fe57600080fd5b8063a22cb46514610184578063b48ab8b614610197578063e985e9c5146101aa57600080fd5b8062fdd58e146100d357806301ffc9a7146100f95780630e89341c1461011c5780632eb2c2d61461013c5780634e1273f414610151578063731133e914610171575b600080fd5b6100e66100e1366004610e72565b610211565b6040519081526020015b60405180910390f35b61010c610107366004610e9c565b61035e565b60405190151581526020016100f0565b61012f61012a366004610ecd565b6104ad565b6040516100f09190610f42565b61014f61014a3660046110a4565b610593565b005b61016461015f36600461114e565b6106d5565b6040516100f09190611249565b61014f61017f36600461125c565b6107c1565b61014f6101923660046112ce565b610900565b61014f6101a5366004611305565b610a3c565b61010c6101b8366004611392565b610ae2565b6002546040516001600160a01b0390911681526020016100f0565b61014f6101e63660046113c5565b610bc6565b61014f6101f936600461142a565b610c6e565b61014f61020c36600461145d565b610db2565b600080546040516308b6ac0f60e31b81526000805160206117cf833981519152916345b5607891610250916001600160a01b03169081906004016114d1565b600060405180830381600087803b15801561026a57600080fd5b505af115801561027e573d6000803e3d6000fd5b5050600254604051627eeac760e11b81526001600160a01b03878116600483015260248201879052909116925062fdd58e9150604401602060405180830381865afa1580156102d1573d6000803e3d6000fd5b505050506040513d601f19601f820116820180604052508101906102f591906114eb565b90506000805160206117cf8339815191526001600160a01b03166390c5013b6040518163ffffffff1660e01b8152600401600060405180830381600087803b15801561034057600080fd5b505af1158015610354573d6000803e3d6000fd5b5050505092915050565b600080546040516308b6ac0f60e31b81526000805160206117cf833981519152916345b560789161039d916001600160a01b03169081906004016114d1565b600060405180830381600087803b1580156103b757600080fd5b505af11580156103cb573d6000803e3d6000fd5b50506002546040516301ffc9a760e01b81526001600160e01b0319861660048201526001600160a01b0390911692506301ffc9a79150602401602060405180830381865afa158015610421573d6000803e3d6000fd5b505050506040513d601f19601f820116820180604052508101906104459190611504565b90506000805160206117cf8339815191526001600160a01b03166390c5013b6040518163ffffffff1660e01b8152600401600060405180830381600087803b15801561049057600080fd5b505af11580156104a4573d6000803e3d6000fd5b50505050919050565b6000546040516308b6ac0f60e31b81526060916000805160206117cf833981519152916345b56078916104f0916001600160a01b039091169081906004016114d1565b600060405180830381600087803b15801561050a57600080fd5b505af115801561051e573d6000803e3d6000fd5b50506002546040516303a24d0760e21b8152600481018690526001600160a01b039091169250630e89341c9150602401600060405180830381865afa15801561056b573d6000803e3d6000fd5b505050506040513d6000823e601f3d908101601f191682016040526104459190810190611521565b6000546040516308b6ac0f60e31b81526000805160206117cf833981519152916345b56078916105d1916001600160a01b03169081906004016114d1565b600060405180830381600087803b1580156105eb57600080fd5b505af11580156105ff573d6000803e3d6000fd5b5050600254604051631759616b60e11b81526001600160a01b039091169250632eb2c2d6915061063b9088908890889088908890600401611598565b600060405180830381600087803b15801561065557600080fd5b505af1158015610669573d6000803e3d6000fd5b505050506000805160206117cf8339815191526001600160a01b03166390c5013b6040518163ffffffff1660e01b8152600401600060405180830381600087803b1580156106b657600080fd5b505af11580156106ca573d6000803e3d6000fd5b505050505050505050565b6000546040516308b6ac0f60e31b81526060916000805160206117cf833981519152916345b5607891610718916001600160a01b039091169081906004016114d1565b600060405180830381600087803b15801561073257600080fd5b505af1158015610746573d6000803e3d6000fd5b50506002546040516313849cfd60e21b81526001600160a01b039091169250634e1273f4915061077c90869086906004016115f6565b600060405180830381865afa158015610799573d6000803e3d6000fd5b505050506040513d6000823e601f3d908101601f191682016040526102f59190810190611656565b6000546040516308b6ac0f60e31b81526000805160206117cf833981519152916345b56078916107ff916001600160a01b03169081906004016114d1565b600060405180830381600087803b15801561081957600080fd5b505af115801561082d573d6000803e3d6000fd5b505060025460405163731133e960e01b81526001600160a01b03909116925063731133e991506108679087908790879087906004016116e7565b600060405180830381600087803b15801561088157600080fd5b505af1158015610895573d6000803e3d6000fd5b505050506000805160206117cf8339815191526001600160a01b03166390c5013b6040518163ffffffff1660e01b8152600401600060405180830381600087803b1580156108e257600080fd5b505af11580156108f6573d6000803e3d6000fd5b5050505050505050565b6000546040516308b6ac0f60e31b81526000805160206117cf833981519152916345b560789161093e916001600160a01b03169081906004016114d1565b600060405180830381600087803b15801561095857600080fd5b505af115801561096c573d6000803e3d6000fd5b505060025460405163a22cb46560e01b81526001600160a01b0386811660048301528515156024830152909116925063a22cb4659150604401600060405180830381600087803b1580156109bf57600080fd5b505af11580156109d3573d6000803e3d6000fd5b505050506000805160206117cf8339815191526001600160a01b03166390c5013b6040518163ffffffff1660e01b8152600401600060405180830381600087803b158015610a2057600080fd5b505af1158015610a34573d6000803e3d6000fd5b505050505050565b6000546040516308b6ac0f60e31b81526000805160206117cf833981519152916345b5607891610a7a916001600160a01b03169081906004016114d1565b600060405180830381600087803b158015610a9457600080fd5b505af1158015610aa8573d6000803e3d6000fd5b5050600254604051635a455c5b60e11b81526001600160a01b03909116925063b48ab8b69150610867908790879087908790600401611714565b600080546040516308b6ac0f60e31b81526000805160206117cf833981519152916345b5607891610b21916001600160a01b03169081906004016114d1565b600060405180830381600087803b158015610b3b57600080fd5b505af1158015610b4f573d6000803e3d6000fd5b505060025460405163e985e9c560e01b81526001600160a01b03909116925063e985e9c59150610b8590869086906004016114d1565b602060405180830381865afa158015610ba2573d6000803e3d6000fd5b505050506040513d601f19601f820116820180604052508101906102f59190611504565b6000546040516308b6ac0f60e31b81526000805160206117cf833981519152916345b5607891610c04916001600160a01b03169081906004016114d1565b600060405180830381600087803b158015610c1e57600080fd5b505af1158015610c32573d6000803e3d6000fd5b5050600254604051637921219560e11b81526001600160a01b03909116925063f242432a915061063b908890889088908890889060040161175e565b6000546040516308b6ac0f60e31b81526000805160206117cf833981519152916345b5607891610cac916001600160a01b03169081906004016114d1565b600060405180830381600087803b158015610cc657600080fd5b505af1158015610cda573d6000803e3d6000fd5b5050600254604051637a94c56560e11b81526001600160a01b0387811660048301526024820187905260448201869052909116925063f5298aca91506064015b600060405180830381600087803b158015610d3457600080fd5b505af1158015610d48573d6000803e3d6000fd5b505050506000805160206117cf8339815191526001600160a01b03166390c5013b6040518163ffffffff1660e01b8152600401600060405180830381600087803b158015610d9557600080fd5b505af1158015610da9573d6000803e3d6000fd5b50505050505050565b6000546040516308b6ac0f60e31b81526000805160206117cf833981519152916345b5607891610df0916001600160a01b03169081906004016114d1565b600060405180830381600087803b158015610e0a57600080fd5b505af1158015610e1e573d6000803e3d6000fd5b5050600254604051637b75893d60e11b81526001600160a01b03909116925063f6eb127a9150610d1a90869086908690600401611798565b80356001600160a01b0381168114610e6d57600080fd5b919050565b60008060408385031215610e8557600080fd5b610e8e83610e56565b946020939093013593505050565b600060208284031215610eae57600080fd5b81356001600160e01b031981168114610ec657600080fd5b9392505050565b600060208284031215610edf57600080fd5b5035919050565b60005b83811015610f01578181015183820152602001610ee9565b83811115610f10576000848401525b50505050565b60008151808452610f2e816020860160208601610ee6565b601f01601f19169290920160200192915050565b602081526000610ec66020830184610f16565b634e487b7160e01b600052604160045260246000fd5b604051601f8201601f1916810167ffffffffffffffff81118282101715610f9457610f94610f55565b604052919050565b600067ffffffffffffffff821115610fb657610fb6610f55565b5060051b60200190565b600082601f830112610fd157600080fd5b81356020610fe6610fe183610f9c565b610f6b565b82815260059290921b8401810191818101908684111561100557600080fd5b8286015b848110156110205780358352918301918301611009565b509695505050505050565b600067ffffffffffffffff82111561104557611045610f55565b50601f01601f191660200190565b600082601f83011261106457600080fd5b8135611072610fe18261102b565b81815284602083860101111561108757600080fd5b816020850160208301376000918101602001919091529392505050565b600080600080600060a086880312156110bc57600080fd5b6110c586610e56565b94506110d360208701610e56565b9350604086013567ffffffffffffffff808211156110f057600080fd5b6110fc89838a01610fc0565b9450606088013591508082111561111257600080fd5b61111e89838a01610fc0565b9350608088013591508082111561113457600080fd5b5061114188828901611053565b9150509295509295909350565b6000806040838503121561116157600080fd5b823567ffffffffffffffff8082111561117957600080fd5b818501915085601f83011261118d57600080fd5b8135602061119d610fe183610f9c565b82815260059290921b840181019181810190898411156111bc57600080fd5b948201945b838610156111e1576111d286610e56565b825294820194908201906111c1565b965050860135925050808211156111f757600080fd5b5061120485828601610fc0565b9150509250929050565b600081518084526020808501945080840160005b8381101561123e57815187529582019590820190600101611222565b509495945050505050565b602081526000610ec6602083018461120e565b6000806000806080858703121561127257600080fd5b61127b85610e56565b93506020850135925060408501359150606085013567ffffffffffffffff8111156112a557600080fd5b6112b187828801611053565b91505092959194509250565b80151581146112cb57600080fd5b50565b600080604083850312156112e157600080fd5b6112ea83610e56565b915060208301356112fa816112bd565b809150509250929050565b6000806000806080858703121561131b57600080fd5b61132485610e56565b9350602085013567ffffffffffffffff8082111561134157600080fd5b61134d88838901610fc0565b9450604087013591508082111561136357600080fd5b61136f88838901610fc0565b9350606087013591508082111561138557600080fd5b506112b187828801611053565b600080604083850312156113a557600080fd5b6113ae83610e56565b91506113bc60208401610e56565b90509250929050565b600080600080600060a086880312156113dd57600080fd5b6113e686610e56565b94506113f460208701610e56565b93506040860135925060608601359150608086013567ffffffffffffffff81111561141e57600080fd5b61114188828901611053565b60008060006060848603121561143f57600080fd5b61144884610e56565b95602085013595506040909401359392505050565b60008060006060848603121561147257600080fd5b61147b84610e56565b9250602084013567ffffffffffffffff8082111561149857600080fd5b6114a487838801610fc0565b935060408601359150808211156114ba57600080fd5b506114c786828701610fc0565b9150509250925092565b6001600160a01b0392831681529116602082015260400190565b6000602082840312156114fd57600080fd5b5051919050565b60006020828403121561151657600080fd5b8151610ec6816112bd565b60006020828403121561153357600080fd5b815167ffffffffffffffff81111561154a57600080fd5b8201601f8101841361155b57600080fd5b8051611569610fe18261102b565b81815285602083850101111561157e57600080fd5b61158f826020830160208601610ee6565b95945050505050565b6001600160a01b0386811682528516602082015260a0604082018190526000906115c49083018661120e565b82810360608401526115d6818661120e565b905082810360808401526115ea8185610f16565b98975050505050505050565b604080825283519082018190526000906020906060840190828701845b828110156116385781516001600160a01b031684529284019290840190600101611613565b5050508381038285015261164c818661120e565b9695505050505050565b6000602080838503121561166957600080fd5b825167ffffffffffffffff81111561168057600080fd5b8301601f8101851361169157600080fd5b805161169f610fe182610f9c565b81815260059190911b820183019083810190878311156116be57600080fd5b928401925b828410156116dc578351825292840192908401906116c3565b979650505050505050565b60018060a01b038516815283602082015282604082015260806060820152600061164c6080830184610f16565b6001600160a01b03851681526080602082018190526000906117389083018661120e565b828103604084015261174a818661120e565b905082810360608401526116dc8185610f16565b6001600160a01b03868116825285166020820152604081018490526060810183905260a0608082018190526000906116dc90830184610f16565b6001600160a01b03841681526060602082018190526000906117bc9083018561120e565b828103604084015261164c818561120e56fe0000000000000000000000007109709ecfa91a80626ff3989d68f67f5b1dd12da26469706673582212208b714e538fd9d7daed5484e851947574d142cd19faf5d374f0806e6bf95b90b264736f6c634300080d0033",
    "linkReferences": {}
  },
  "methodIdentifiers": {
    "balanceOf(address,uint256)": "00fdd58e",
    "balanceOfBatch(address[],uint256[])": "4e1273f4",
    "batchBurn(address,uint256[],uint256[])": "f6eb127a",
    "batchMint(address,uint256[],uint256[],bytes)": "b48ab8b6",
    "burn(address,uint256,uint256)": "f5298aca",
    "isApprovedForAll(address,address)": "e985e9c5",
    "mint(address,uint256,uint256,bytes)": "731133e9",
    "proxyContract()": "ed550443",
    "safeBatchTransferFrom(address,address,uint256[],uint256[],bytes)": "2eb2c2d6",
    "safeTransferFrom(address,address,uint256,uint256,bytes)": "f242432a",
    "setApprovalForAll(address,bool)": "a22cb465",
    "supportsInterface(bytes4)": "01ffc9a7",
    "uri(uint256)": "0e89341c"
  },
  "id": 95
}