{
  "_format": "hh-sol-artifact-1",
  "contractName": "VaultRegistry",
  "sourceName": "src/VaultRegistry.sol",
  "abi": [
    {
      "inputs": [],
      "stateMutability": "nonpayable",
      "type": "constructor"
    },
    {
      "inputs": [],
      "name": "CreateFail",
      "type": "error"
    },
    {
      "inputs": [
        {
          "internalType": "address",
          "name": "_controller",
          "type": "address"
        },
        {
          "internalType": "address",
          "name": "_sender",
          "type": "address"
        }
      ],
      "name": "InvalidController",
      "type": "error"
    },
    {
      "inputs": [
        {
          "internalType": "address",
          "name": "_sender",
          "type": "address"
        }
      ],
      "name": "UnregisteredVault",
      "type": "error"
    },
    {
      "anonymous": false,
      "inputs": [
        {
          "indexed": true,
          "internalType": "address",
          "name": "_vault",
          "type": "address"
        },
        {
          "indexed": true,
          "internalType": "address",
          "name": "_token",
          "type": "address"
        },
        {
          "indexed": false,
          "internalType": "uint256",
          "name": "_id",
          "type": "uint256"
        }
      ],
      "name": "VaultDeployed",
      "type": "event"
    },
    {
      "inputs": [
        {
          "internalType": "address",
          "name": "_from",
          "type": "address"
        },
        {
          "internalType": "uint256",
          "name": "_value",
          "type": "uint256"
        }
      ],
      "name": "burn",
      "outputs": [],
      "stateMutability": "nonpayable",
      "type": "function"
    },
    {
      "inputs": [
        {
          "internalType": "bytes32",
          "name": "_merkleRoot",
          "type": "bytes32"
        },
        {
          "internalType": "address[]",
          "name": "_plugins",
          "type": "address[]"
        },
        {
          "internalType": "bytes4[]",
          "name": "_selectors",
          "type": "bytes4[]"
        }
      ],
      "name": "create",
      "outputs": [
        {
          "internalType": "address",
          "name": "vault",
          "type": "address"
        }
      ],
      "stateMutability": "nonpayable",
      "type": "function"
    },
    {
      "inputs": [
        {
          "internalType": "bytes32",
          "name": "_merkleRoot",
          "type": "bytes32"
        },
        {
          "internalType": "address[]",
          "name": "_plugins",
          "type": "address[]"
        },
        {
          "internalType": "bytes4[]",
          "name": "_selectors",
          "type": "bytes4[]"
        }
      ],
      "name": "createCollection",
      "outputs": [
        {
          "internalType": "address",
          "name": "vault",
          "type": "address"
        },
        {
          "internalType": "address",
          "name": "token",
          "type": "address"
        }
      ],
      "stateMutability": "nonpayable",
      "type": "function"
    },
    {
      "inputs": [
        {
          "internalType": "bytes32",
          "name": "_merkleRoot",
          "type": "bytes32"
        },
        {
          "internalType": "address",
          "name": "_controller",
          "type": "address"
        },
        {
          "internalType": "address[]",
          "name": "_plugins",
          "type": "address[]"
        },
        {
          "internalType": "bytes4[]",
          "name": "_selectors",
          "type": "bytes4[]"
        }
      ],
      "name": "createCollectionFor",
      "outputs": [
        {
          "internalType": "address",
          "name": "vault",
          "type": "address"
        },
        {
          "internalType": "address",
          "name": "token",
          "type": "address"
        }
      ],
      "stateMutability": "nonpayable",
      "type": "function"
    },
    {
      "inputs": [
        {
          "internalType": "bytes32",
          "name": "_merkleRoot",
          "type": "bytes32"
        },
        {
          "internalType": "address",
          "name": "_owner",
          "type": "address"
        },
        {
          "internalType": "address[]",
          "name": "_plugins",
          "type": "address[]"
        },
        {
          "internalType": "bytes4[]",
          "name": "_selectors",
          "type": "bytes4[]"
        }
      ],
      "name": "createFor",
      "outputs": [
        {
          "internalType": "address",
          "name": "vault",
          "type": "address"
        }
      ],
      "stateMutability": "nonpayable",
      "type": "function"
    },
    {
      "inputs": [
        {
          "internalType": "bytes32",
          "name": "_merkleRoot",
          "type": "bytes32"
        },
        {
          "internalType": "address",
          "name": "_token",
          "type": "address"
        },
        {
          "internalType": "address[]",
          "name": "_plugins",
          "type": "address[]"
        },
        {
          "internalType": "bytes4[]",
          "name": "_selectors",
          "type": "bytes4[]"
        }
      ],
      "name": "createInCollection",
      "outputs": [
        {
          "internalType": "address",
          "name": "vault",
          "type": "address"
        }
      ],
      "stateMutability": "nonpayable",
      "type": "function"
    },
    {
      "inputs": [],
      "name": "fNFT",
      "outputs": [
        {
          "internalType": "address",
          "name": "",
          "type": "address"
        }
      ],
      "stateMutability": "view",
      "type": "function"
    },
    {
      "inputs": [],
      "name": "fNFTImplementation",
      "outputs": [
        {
          "internalType": "address",
          "name": "",
          "type": "address"
        }
      ],
      "stateMutability": "view",
      "type": "function"
    },
    {
      "inputs": [],
      "name": "factory",
      "outputs": [
        {
          "internalType": "address",
          "name": "",
          "type": "address"
        }
      ],
      "stateMutability": "view",
      "type": "function"
    },
    {
      "inputs": [
        {
          "internalType": "address",
          "name": "_to",
          "type": "address"
        },
        {
          "internalType": "uint256",
          "name": "_value",
          "type": "uint256"
        }
      ],
      "name": "mint",
      "outputs": [],
      "stateMutability": "nonpayable",
      "type": "function"
    },
    {
      "inputs": [
        {
          "internalType": "address",
          "name": "",
          "type": "address"
        }
      ],
      "name": "nextId",
      "outputs": [
        {
          "internalType": "uint256",
          "name": "",
          "type": "uint256"
        }
      ],
      "stateMutability": "view",
      "type": "function"
    },
    {
      "inputs": [
        {
          "internalType": "address",
          "name": "_vault",
          "type": "address"
        }
      ],
      "name": "totalSupply",
      "outputs": [
        {
          "internalType": "uint256",
          "name": "",
          "type": "uint256"
        }
      ],
      "stateMutability": "view",
      "type": "function"
    },
    {
      "inputs": [
        {
          "internalType": "address",
          "name": "_vault",
          "type": "address"
        }
      ],
      "name": "uri",
      "outputs": [
        {
          "internalType": "string",
          "name": "",
          "type": "string"
        }
      ],
      "stateMutability": "view",
      "type": "function"
    },
    {
      "inputs": [
        {
          "internalType": "address",
          "name": "",
          "type": "address"
        }
      ],
      "name": "vaultToToken",
      "outputs": [
        {
          "internalType": "address",
          "name": "token",
          "type": "address"
        },
        {
          "internalType": "uint256",
          "name": "id",
          "type": "uint256"
        }
      ],
      "stateMutability": "view",
      "type": "function"
    }
  ],
  "bytecode": "0x60e06040523480156200001157600080fd5b50604051620000209062000202565b604051809103906000f0801580156200003d573d6000803e3d6000fd5b506001600160a01b0316608052604051620000589062000210565b604051809103906000f08015801562000075573d6000803e3d6000fd5b506001600160a01b031660c0526040516001600160601b031933606090811b8216602084015230901b166034820152620000db9060480160405160208183030381529060405260c0516001600160a01b0316620000ed60201b620009871790919060201c565b6001600160a01b031660a0526200021e565b8051604051606160f81b81526039820160f081811b60018401526f3d81600a3d39f33d3d3d3d363d3d376160801b600384015260028401901b601383018190526560373639366160d01b6015840152601b83015262013d7360e81b601d830152606085901b6020808401919091526c5af43d3d93803e603557fd5bf360981b60348401526000939260438401929186019084604182015b60208210620001a55783518152602093840193601f19909201910162000184565b835160001960208490036101000a0119908116825260f088901b91830191825286846000f098506001600160a01b038916620001f457604051631d7fde3160e31b815260040160405180910390fd5b505050505050505092915050565b611b92806200161083390190565b612ce780620031a283390190565b60805160a05160c0516113a7620002696000396000818160f401526105a601526000818161026701528181610608015261063e0152600081816102da0152610b6901526113a76000f3fe608060405234801561001057600080fd5b50600436106100ea5760003560e01c80635ef449fd1161008c5780639dc29fac116100665780639dc29fac146102af578063a26f18b2146102c2578063c45a0155146102d5578063e4dc2aa4146102fc57600080fd5b80635ef449fd1461026257806367164665146102895780639b8e96cc1461029c57600080fd5b806342d19ef4116100c857806342d19ef41461017557806346190ec4146101e1578063579066881461020f578063579cdff21461024f57600080fd5b806312076ecd146100ef57806340c10f1914610140578063426eb01714610155575b600080fd5b6101167f000000000000000000000000000000000000000000000000000000000000000081565b60405173ffffffffffffffffffffffffffffffffffffffff90911681526020015b60405180910390f35b61015361014e366004610e20565b61030f565b005b610168610163366004610e4c565b610436565b6040516101379190610e99565b6101b5610183366004610e4c565b6001602081905260009182526040909120805491015473ffffffffffffffffffffffffffffffffffffffff9091169082565b6040805173ffffffffffffffffffffffffffffffffffffffff9093168352602083019190915201610137565b6102016101ef366004610e4c565b60006020819052908152604090205481565b604051908152602001610137565b61022261021d36600461108a565b61051c565b6040805173ffffffffffffffffffffffffffffffffffffffff938416815292909116602083015201610137565b61022261025d36600461110a565b6105e5565b6101167f000000000000000000000000000000000000000000000000000000000000000081565b61011661029736600461110a565b610600565b6101166102aa36600461108a565b610636565b6101536102bd366004610e20565b6106f1565b6101166102d036600461108a565b6107d1565b6101167f000000000000000000000000000000000000000000000000000000000000000081565b61020161030a366004610e4c565b6108c8565b3360009081526001602081815260408084208151808301909252805473ffffffffffffffffffffffffffffffffffffffff16825290920154908201819052909181900361038f576040517f0c03962a0000000000000000000000000000000000000000000000000000000081523360048201526024015b60405180910390fd5b81516040517f731133e900000000000000000000000000000000000000000000000000000000815273ffffffffffffffffffffffffffffffffffffffff8681166004830152602482018490526044820186905260806064830152600060848301529091169063731133e99060a4015b600060405180830381600087803b15801561041857600080fd5b505af115801561042c573d6000803e3d6000fd5b5050505050505050565b73ffffffffffffffffffffffffffffffffffffffff81811660009081526001602081815260409283902083518085018552815490951680865292015490840181905291517f0e89341c000000000000000000000000000000000000000000000000000000008152600481019290925260609291630e89341c90602401600060405180830381865afa1580156104cf573d6000803e3d6000fd5b505050506040513d6000823e601f3d9081017fffffffffffffffffffffffffffffffffffffffffffffffffffffffffffffffe01682016040526105159190810190611177565b9392505050565b6040517fffffffffffffffffffffffffffffffffffffffff000000000000000000000000606085811b8216602084015230901b16603482015260009081906105cc90604801604080517fffffffffffffffffffffffffffffffffffffffffffffffffffffffffffffffe081840301815291905273ffffffffffffffffffffffffffffffffffffffff7f00000000000000000000000000000000000000000000000000000000000000001690610987565b90506105da86828686610b65565b915094509492505050565b6000806105f48533868661051c565b90969095509350505050565b600061062e847f00000000000000000000000000000000000000000000000000000000000000008585610b65565b949350505050565b6000610664857f00000000000000000000000000000000000000000000000000000000000000008585610b65565b6040517ff2fde38b00000000000000000000000000000000000000000000000000000000815273ffffffffffffffffffffffffffffffffffffffff86811660048301529192509082169063f2fde38b90602401600060405180830381600087803b1580156106d157600080fd5b505af11580156106e5573d6000803e3d6000fd5b50505050949350505050565b3360009081526001602081815260408084208151808301909252805473ffffffffffffffffffffffffffffffffffffffff16825290920154908201819052909181900361076c576040517f0c03962a000000000000000000000000000000000000000000000000000000008152336004820152602401610386565b81516040517ff5298aca00000000000000000000000000000000000000000000000000000000815273ffffffffffffffffffffffffffffffffffffffff868116600483015260248201849052604482018690529091169063f5298aca906064016103fe565b6000808473ffffffffffffffffffffffffffffffffffffffff1663f77c47916040518163ffffffff1660e01b8152600401602060405180830381865afa15801561081f573d6000803e3d6000fd5b505050506040513d601f19601f820116820180604052508101906108439190611229565b905073ffffffffffffffffffffffffffffffffffffffff811633146108b2576040517f975cb35f00000000000000000000000000000000000000000000000000000000815273ffffffffffffffffffffffffffffffffffffffff82166004820152336024820152604401610386565b6108be86868686610b65565b9695505050505050565b73ffffffffffffffffffffffffffffffffffffffff8082166000908152600160208181526040808420815180830183528154909616808752930154918501829052517fbd85b03900000000000000000000000000000000000000000000000000000000815292939263bd85b039916109469160040190815260200190565b602060405180830381865afa158015610963573d6000803e3d6000fd5b505050506040513d601f19601f820116820180604052508101906105159190611246565b80516040517f610000000000000000000000000000000000000000000000000000000000000081526039820160f081811b60018401527f3d81600a3d39f33d3d3d3d363d3d376100000000000000000000000000000000600384015260028401901b601383018190527f60373639366100000000000000000000000000000000000000000000000000006015840152601b8301527f013d730000000000000000000000000000000000000000000000000000000000601d830152606085901b6020808401919091527f5af43d3d93803e603557fd5bf30000000000000000000000000000000000000060348401526000939260438401929186019084604182015b60208210610ac557835181526020938401937fffffffffffffffffffffffffffffffffffffffffffffffffffffffffffffffe09092019101610a88565b83517fffffffffffffffffffffffffffffffffffffffffffffffffffffffffffffffff60208490036101000a0119908116825260f088901b91830191825286846000f0985073ffffffffffffffffffffffffffffffffffffffff8916610b57576040517febfef18800000000000000000000000000000000000000000000000000000000815260040160405180910390fd5b505050505050505092915050565b60007f000000000000000000000000000000000000000000000000000000000000000073ffffffffffffffffffffffffffffffffffffffff1663775c300c6040518163ffffffff1660e01b81526004016020604051808303816000875af1158015610bd4573d6000803e3d6000fd5b505050506040513d601f19601f82011682018060405250810190610bf89190611229565b60408051808201825273ffffffffffffffffffffffffffffffffffffffff8716808252600090815260208181529281208054949550919392840192610c3c9061125f565b9182905550905273ffffffffffffffffffffffffffffffffffffffff828116600081815260016020818152604092839020865181547fffffffffffffffffffffffff00000000000000000000000000000000000000001696169590951785559490940151929093019190915590517f7cb6475900000000000000000000000000000000000000000000000000000000815260048101879052637cb6475990602401600060405180830381600087803b158015610cf757600080fd5b505af1158015610d0b573d6000803e3d6000fd5b50506040517f3ca0a61700000000000000000000000000000000000000000000000000000000815273ffffffffffffffffffffffffffffffffffffffff84169250633ca0a6179150610d6390859087906004016112be565b600060405180830381600087803b158015610d7d57600080fd5b505af1158015610d91573d6000803e3d6000fd5b5050505073ffffffffffffffffffffffffffffffffffffffff8481166000818152602081815260409182902054915191825291928416917f85ad49ea2b74d60c1db1acac23d44f3fa0361896eead0f4b35b1ea46b1be59b5910160405180910390a3949350505050565b73ffffffffffffffffffffffffffffffffffffffff81168114610e1d57600080fd5b50565b60008060408385031215610e3357600080fd5b8235610e3e81610dfb565b946020939093013593505050565b600060208284031215610e5e57600080fd5b813561051581610dfb565b60005b83811015610e84578181015183820152602001610e6c565b83811115610e93576000848401525b50505050565b6020815260008251806020840152610eb8816040850160208701610e69565b601f017fffffffffffffffffffffffffffffffffffffffffffffffffffffffffffffffe0169190910160400192915050565b7f4e487b7100000000000000000000000000000000000000000000000000000000600052604160045260246000fd5b604051601f82017fffffffffffffffffffffffffffffffffffffffffffffffffffffffffffffffe016810167ffffffffffffffff81118282101715610f6057610f60610eea565b604052919050565b600067ffffffffffffffff821115610f8257610f82610eea565b5060051b60200190565b600082601f830112610f9d57600080fd5b81356020610fb2610fad83610f68565b610f19565b82815260059290921b84018101918181019086841115610fd157600080fd5b8286015b84811015610ff5578035610fe881610dfb565b8352918301918301610fd5565b509695505050505050565b600082601f83011261101157600080fd5b81356020611021610fad83610f68565b82815260059290921b8401810191818101908684111561104057600080fd5b8286015b84811015610ff55780357fffffffff000000000000000000000000000000000000000000000000000000008116811461107d5760008081fd5b8352918301918301611044565b600080600080608085870312156110a057600080fd5b8435935060208501356110b281610dfb565b9250604085013567ffffffffffffffff808211156110cf57600080fd5b6110db88838901610f8c565b935060608701359150808211156110f157600080fd5b506110fe87828801611000565b91505092959194509250565b60008060006060848603121561111f57600080fd5b83359250602084013567ffffffffffffffff8082111561113e57600080fd5b61114a87838801610f8c565b9350604086013591508082111561116057600080fd5b5061116d86828701611000565b9150509250925092565b60006020828403121561118957600080fd5b815167ffffffffffffffff808211156111a157600080fd5b818401915084601f8301126111b557600080fd5b8151818111156111c7576111c7610eea565b6111f860207fffffffffffffffffffffffffffffffffffffffffffffffffffffffffffffffe0601f84011601610f19565b915080825285602082850101111561120f57600080fd5b611220816020840160208601610e69565b50949350505050565b60006020828403121561123b57600080fd5b815161051581610dfb565b60006020828403121561125857600080fd5b5051919050565b60007fffffffffffffffffffffffffffffffffffffffffffffffffffffffffffffffff82036112b7577f4e487b7100000000000000000000000000000000000000000000000000000000600052601160045260246000fd5b5060010190565b604080825283519082018190526000906020906060840190828701845b828110156113195781517fffffffff0000000000000000000000000000000000000000000000000000000016845292840192908401906001016112db565b5050508381038285015284518082528583019183019060005b8181101561136457835173ffffffffffffffffffffffffffffffffffffffff1683529284019291840191600101611332565b509097965050505050505056fea26469706673582212209a20da2c7b6f5d2ef3e438fea0ea489d295eefbaf99773d3d951793af40ae25264736f6c634300080d0033608060405234801561001057600080fd5b5060405161001d9061005f565b604051809103906000f080158015610039573d6000803e3d6000fd5b50600080546001600160a01b0319166001600160a01b039290921691909117905561006c565b6114698061072983390190565b6106ae8061007b6000396000f3fe608060405234801561001057600080fd5b50600436106100675760003560e01c80635c60da1b116100505780635c60da1b146100ed57806374912cd21461010d578063775c300c1461012057600080fd5b806337a6be161461006c57806341152359146100b5575b600080fd5b6100a261007a36600461063b565b73ffffffffffffffffffffffffffffffffffffffff1660009081526001602052604090205490565b6040519081526020015b60405180910390f35b6100c86100c336600461063b565b610128565b60405173ffffffffffffffffffffffffffffffffffffffff90911681526020016100ac565b6000546100c89073ffffffffffffffffffffffffffffffffffffffff1681565b6100c861011b36600461063b565b610221565b6100c861040e565b73ffffffffffffffffffffffffffffffffffffffff81811660008181526001602090815260408083205481518084019590955284820152805180850382018152606085018083528151919093012083835260809094019052815491938492839261019692919091169061041e565b9020604080517fff000000000000000000000000000000000000000000000000000000000000006020808301919091523060601b7fffffffffffffffffffffffffffffffffffffffff00000000000000000000000016602183015260358201969096526055808201939093528151808203909301835260750190528051930192909220949350505050565b3260008181526001602090815260408083205481519283019490945281018390529091908290606001604080517fffffffffffffffffffffffffffffffffffffffffffffffffffffffffffffffe081840301815282825280516020918201206000808552918401909252549092506102b09073ffffffffffffffffffffffffffffffffffffffff1683836105ca565b93508373ffffffffffffffffffffffffffffffffffffffff1663e1c7392a6040518163ffffffff1660e01b8152600401600060405180830381600087803b1580156102fa57600080fd5b505af115801561030e573d6000803e3d6000fd5b50506040517ff2fde38b00000000000000000000000000000000000000000000000000000000815273ffffffffffffffffffffffffffffffffffffffff88811660048301528716925063f2fde38b9150602401600060405180830381600087803b15801561037b57600080fd5b505af115801561038f573d6000803e3d6000fd5b505032600081815260016020818152604092839020918901909155815188815290810187905273ffffffffffffffffffffffffffffffffffffffff898116828401529151918a1694503393507fc836d877ec2901a6c3f2e17c94bf617570a3664e9c75f6a9c5e48696cde1343d919081900360600190a4505050919050565b600061041933610221565b905090565b80516040517f3d610000000000000000000000000000000000000000000000000000000000008152603a820160f081811b6002848101919091527f80600b3d3981f30000000000000000000000000000000000000000000000000060048501527f363d3d3761000000000000000000000000000000000000000000000000000000600b8501528401901b601083018190527f603836393d3d3d366100000000000000000000000000000000000000000000006012840152601b8301527f013d730000000000000000000000000000000000000000000000000000000000601d830152606085901b6020808401919091527f5af43d82803e903d91603657fd5bf30000000000000000000000000000000000603484015291926045810192909190850182604386015b6020821061058357825181526020928301927fffffffffffffffffffffffffffffffffffffffffffffffffffffffffffffffe09092019101610546565b91517fffffffffffffffffffffffffffffffffffffffffffffffffffffffffffffffff60208390036101000a011916825260f09390931b9201919091525090939092509050565b60008060006105d9868561041e565b915091508481836000f5925073ffffffffffffffffffffffffffffffffffffffff8316610632576040517febfef18800000000000000000000000000000000000000000000000000000000815260040160405180910390fd5b50509392505050565b60006020828403121561064d57600080fd5b813573ffffffffffffffffffffffffffffffffffffffff8116811461067157600080fd5b939250505056fea2646970667358221220253de1902819d386684d94a0fa0dd7fdd5cc396cfdb08cd4c89f56f765609c2a64736f6c634300080d0033608060405234801561001057600080fd5b50611449806100206000396000f3fe6080604052600436106100d65760003560e01c80637cb647591161007f578063bc197c8111610059578063bc197c8114610310578063e1c7392a14610358578063f23a6e611461036d578063f2fde38b146103b3576100dd565b80637cb64759146102ad5780638da5cb5b146102cd578063affed0e0146102fa576100dd565b80633ca0a617116100b05780633ca0a61714610204578063601b8af3146102245780636b03945114610245576100dd565b8063150b7a02146101435780632e09ea9b146101be5780632eb4a7ab146101e0576100dd565b366100dd57005b600080357fffffffff0000000000000000000000000000000000000000000000000000000016815260036020526040812054369060609073ffffffffffffffffffffffffffffffffffffffff166101358185856103d3565b805195506020019350505050f35b34801561014f57600080fd5b5061018861015e366004610d0c565b7f150b7a020000000000000000000000000000000000000000000000000000000095945050505050565b6040517fffffffff0000000000000000000000000000000000000000000000000000000090911681526020015b60405180910390f35b3480156101ca57600080fd5b506101de6101d9366004610ebf565b610595565b005b3480156101ec57600080fd5b506101f660015481565b6040519081526020016101b5565b34801561021057600080fd5b506101de61021f366004610efc565b6106fa565b610237610232366004611003565b61087a565b6040516101b5929190611073565b34801561025157600080fd5b506102886102603660046110f0565b60036020526000908152604090205473ffffffffffffffffffffffffffffffffffffffff1681565b60405173ffffffffffffffffffffffffffffffffffffffff90911681526020016101b5565b3480156102b957600080fd5b506101de6102c8366004611112565b6109ea565b3480156102d957600080fd5b506000546102889073ffffffffffffffffffffffffffffffffffffffff1681565b34801561030657600080fd5b506101f660025481565b34801561031c57600080fd5b5061018861032b36600461112b565b7fbc197c810000000000000000000000000000000000000000000000000000000098975050505050505050565b34801561036457600080fd5b506101de610a62565b34801561037957600080fd5b506101886103883660046111e6565b7ff23a6e61000000000000000000000000000000000000000000000000000000009695505050505050565b3480156103bf57600080fd5b506101de6103ce36600461125e565b610b24565b60006060843b80830361042f576040517f05fc177f00000000000000000000000000000000000000000000000000000000815273ffffffffffffffffffffffffffffffffffffffff871660048201526024015b60405180910390fd5b6000805473ffffffffffffffffffffffffffffffffffffffff16906113885a61045891906112a8565b90508773ffffffffffffffffffffffffffffffffffffffff168188886040516104829291906112bf565b6000604051808303818686f4925050503d80600081146104be576040519150601f19603f3d011682016040523d82523d6000602084013e6104c3565b606091505b50600054919650945073ffffffffffffffffffffffffffffffffffffffff838116911614610541576000546040517fb532073b00000000000000000000000000000000000000000000000000000000815273ffffffffffffffffffffffffffffffffffffffff80851660048301529091166024820152604401610426565b8461058a578351600003610581576040517ff21e646b00000000000000000000000000000000000000000000000000000000815260040160405180910390fd5b61058a84610c07565b505050935093915050565b60005473ffffffffffffffffffffffffffffffffffffffff163314610608576000546040517f23295f0e00000000000000000000000000000000000000000000000000000000815273ffffffffffffffffffffffffffffffffffffffff9091166004820152336024820152604401610426565b805160005b818110156106be5760006003600085848151811061062d5761062d6112cf565b6020908102919091018101517fffffffff0000000000000000000000000000000000000000000000000000000016825281019190915260400160002080547fffffffffffffffffffffffff00000000000000000000000000000000000000001673ffffffffffffffffffffffffffffffffffffffff92909216919091179055806106b6816112fe565b91505061060d565b507fb3a11edff134a07565e9e73e89fe2198279d8bf3f8218a543981f219b3991c29826040516106ee9190611393565b60405180910390a15050565b60005473ffffffffffffffffffffffffffffffffffffffff16331461076d576000546040517f23295f0e00000000000000000000000000000000000000000000000000000000815273ffffffffffffffffffffffffffffffffffffffff9091166004820152336024820152604401610426565b815160005b8181101561083b5782818151811061078c5761078c6112cf565b6020026020010151600360008684815181106107aa576107aa6112cf565b6020908102919091018101517fffffffff0000000000000000000000000000000000000000000000000000000016825281019190915260400160002080547fffffffffffffffffffffffff00000000000000000000000000000000000000001673ffffffffffffffffffffffffffffffffffffffff9290921691909117905580610833816112fe565b915050610772565b507ff7d11fffde62bb148b72087d285cbd907ca404701a120597f0896a240881220f838360405161086d9291906113a6565b60405180910390a1505050565b6040805133602082015273ffffffffffffffffffffffffffffffffffffffff87169181019190915284357fffffffff0000000000000000000000000000000000000000000000000000000081166060808401919091526000929091908390608001604051602081830303815290604052805190602001209050610934868680806020026020016040519081016040528093929190818152602001838360200280828437600092019190915250506001549150849050610c10565b6109cf5760005473ffffffffffffffffffffffffffffffffffffffff1633146109cf576040517f8153802c00000000000000000000000000000000000000000000000000000000815233600482015273ffffffffffffffffffffffffffffffffffffffff8a1660248201527fffffffff0000000000000000000000000000000000000000000000000000000083166044820152606401610426565b6109da8989896103d3565b909a909950975050505050505050565b60005473ffffffffffffffffffffffffffffffffffffffff163314610a5d576000546040517f23295f0e00000000000000000000000000000000000000000000000000000000815273ffffffffffffffffffffffffffffffffffffffff9091166004820152336024820152604401610426565b600155565b60025415610ac6576000546002546040517f10f2765200000000000000000000000000000000000000000000000000000000815273ffffffffffffffffffffffffffffffffffffffff90921660048301523360248301526044820152606401610426565b6001600255600080547fffffffffffffffffffffffff0000000000000000000000000000000000000000163390811782556040519091907f5c486528ec3e3f0ea91181cff8116f02bfa350e03b8b6f12e00765adbb5af85c908290a3565b60005473ffffffffffffffffffffffffffffffffffffffff163314610b97576000546040517f23295f0e00000000000000000000000000000000000000000000000000000000815273ffffffffffffffffffffffffffffffffffffffff9091166004820152336024820152604401610426565b600080547fffffffffffffffffffffffff00000000000000000000000000000000000000001673ffffffffffffffffffffffffffffffffffffffff83169081178255604051909133917f5c486528ec3e3f0ea91181cff8116f02bfa350e03b8b6f12e00765adbb5af85c9190a350565b80518082602001fd5b600082610c1d8584610c26565b14949350505050565b600081815b8451811015610c92576000858281518110610c4857610c486112cf565b60200260200101519050808311610c6e5760008381526020829052604090209250610c7f565b600081815260208490526040902092505b5080610c8a816112fe565b915050610c2b565b509392505050565b803573ffffffffffffffffffffffffffffffffffffffff81168114610cbe57600080fd5b919050565b60008083601f840112610cd557600080fd5b50813567ffffffffffffffff811115610ced57600080fd5b602083019150836020828501011115610d0557600080fd5b9250929050565b600080600080600060808688031215610d2457600080fd5b610d2d86610c9a565b9450610d3b60208701610c9a565b935060408601359250606086013567ffffffffffffffff811115610d5e57600080fd5b610d6a88828901610cc3565b969995985093965092949392505050565b7f4e487b7100000000000000000000000000000000000000000000000000000000600052604160045260246000fd5b604051601f82017fffffffffffffffffffffffffffffffffffffffffffffffffffffffffffffffe016810167ffffffffffffffff81118282101715610df157610df1610d7b565b604052919050565b600067ffffffffffffffff821115610e1357610e13610d7b565b5060051b60200190565b80357fffffffff0000000000000000000000000000000000000000000000000000000081168114610cbe57600080fd5b600082601f830112610e5e57600080fd5b81356020610e73610e6e83610df9565b610daa565b82815260059290921b84018101918181019086841115610e9257600080fd5b8286015b84811015610eb457610ea781610e1d565b8352918301918301610e96565b509695505050505050565b600060208284031215610ed157600080fd5b813567ffffffffffffffff811115610ee857600080fd5b610ef484828501610e4d565b949350505050565b60008060408385031215610f0f57600080fd5b823567ffffffffffffffff80821115610f2757600080fd5b610f3386838701610e4d565b9350602091508185013581811115610f4a57600080fd5b85019050601f81018613610f5d57600080fd5b8035610f6b610e6e82610df9565b81815260059190911b82018301908381019088831115610f8a57600080fd5b928401925b82841015610faf57610fa084610c9a565b82529284019290840190610f8f565b80955050505050509250929050565b60008083601f840112610fd057600080fd5b50813567ffffffffffffffff811115610fe857600080fd5b6020830191508360208260051b8501011115610d0557600080fd5b60008060008060006060868803121561101b57600080fd5b61102486610c9a565b9450602086013567ffffffffffffffff8082111561104157600080fd5b61104d89838a01610cc3565b9096509450604088013591508082111561106657600080fd5b50610d6a88828901610fbe565b821515815260006020604081840152835180604085015260005b818110156110a95785810183015185820160600152820161108d565b818111156110bb576000606083870101525b50601f017fffffffffffffffffffffffffffffffffffffffffffffffffffffffffffffffe01692909201606001949350505050565b60006020828403121561110257600080fd5b61110b82610e1d565b9392505050565b60006020828403121561112457600080fd5b5035919050565b60008060008060008060008060a0898b03121561114757600080fd5b61115089610c9a565b975061115e60208a01610c9a565b9650604089013567ffffffffffffffff8082111561117b57600080fd5b6111878c838d01610fbe565b909850965060608b01359150808211156111a057600080fd5b6111ac8c838d01610fbe565b909650945060808b01359150808211156111c557600080fd5b506111d28b828c01610cc3565b999c989b5096995094979396929594505050565b60008060008060008060a087890312156111ff57600080fd5b61120887610c9a565b955061121660208801610c9a565b94506040870135935060608701359250608087013567ffffffffffffffff81111561124057600080fd5b61124c89828a01610cc3565b979a9699509497509295939492505050565b60006020828403121561127057600080fd5b61110b82610c9a565b7f4e487b7100000000000000000000000000000000000000000000000000000000600052601160045260246000fd5b6000828210156112ba576112ba611279565b500390565b8183823760009101908152919050565b7f4e487b7100000000000000000000000000000000000000000000000000000000600052603260045260246000fd5b60007fffffffffffffffffffffffffffffffffffffffffffffffffffffffffffffffff820361132f5761132f611279565b5060010190565b600081518084526020808501945080840160005b838110156113885781517fffffffff00000000000000000000000000000000000000000000000000000000168752958201959082019060010161134a565b509495945050505050565b60208152600061110b6020830184611336565b6040815260006113b96040830185611336565b82810360208481019190915284518083528582019282019060005b8181101561140657845173ffffffffffffffffffffffffffffffffffffffff16835293830193918301916001016113d4565b509097965050505050505056fea2646970667358221220780ff838e87c57ab0a3754eeb8c240930291901a283508825c6c8cbf598f315e64736f6c634300080d0033608060405234801561001057600080fd5b50612cc7806100206000396000f3fe608060405234801561001057600080fd5b50600436106101ce5760003560e01c8063a3f4df7e11610104578063e8a3d485116100a2578063f5298aca11610071578063f5298aca146104ad578063f72c8689146104c0578063f77c4791146104d3578063ffa1ad74146104db57600080fd5b8063e8a3d48514610451578063e8ea054b14610459578063e985e9c51461046c578063f242432a1461049a57600080fd5b8063de11ff79116100de578063de11ff79146103d9578063e2c7f338146103e1578063e3684e39146103f4578063e5af48d81461041d57600080fd5b8063a3f4df7e1461036a578063bd85b039146103a6578063cfa8fb42146103c657600080fd5b80632eb2c2d611610171578063731133e91161014b578063731133e9146103115780637ecebe0014610324578063938e3d7b14610344578063a22cb4651461035757600080fd5b80632eb2c2d6146102cb5780634e1273f4146102de5780635ae1bdc7146102fe57600080fd5b80630986c677116101ad5780630986c677146102515780630e89341c146102665780632a55205a146102865780632ccd9ed4146102b857600080fd5b8062fdd58e146101d357806301ffc9a71461020e57806302ace7fe14610231575b600080fd5b6101fb6101e1366004612102565b600060208181529281526040808220909352908152205481565b6040519081526020015b60405180910390f35b61022161021c36600461215d565b610517565b6040519015158152602001610205565b6102396105fc565b6040516001600160a01b039091168152602001610205565b61026461025f366004612283565b61060d565b005b6102796102743660046122de565b6106c0565b604051610205919061236d565b610299610294366004612380565b6107f6565b604080516001600160a01b039093168352602083019190915201610205565b6102646102c63660046123c3565b61083d565b6102646102d93660046124cc565b610b89565b6102f16102ec366004612587565b610ef8565b60405161020591906125f3565b61026461030c366004612102565b611055565b61026461031f366004612657565b61112e565b6101fb6103323660046126b8565b60066020526000908152604090205481565b6102646103523660046126d3565b6111c3565b610264610365366004612715565b611234565b6102796040518060400160405280600881526020017f464552433131353500000000000000000000000000000000000000000000000081525081565b6101fb6103b43660046122de565b60076020526000908152604090205481565b6102646103d436600461273f565b6112be565b6102396115a0565b6102646103ef3660046127b0565b6115ac565b6102396104023660046122de565b6005602052600090815260409020546001600160a01b031681565b61022161042b3660046127e5565b600460209081526000938452604080852082529284528284209052825290205460ff1681565b610279611697565b6102646104673660046126b8565b611725565b61022161047a366004612811565b600160209081526000928352604080842090915290825290205460ff1681565b6102646104a836600461283b565b611827565b6102646104bb3660046128ad565b611af8565b6102646104ce3660046128e0565b611b8b565b610239611c22565b6102796040518060400160405280600181526020017f310000000000000000000000000000000000000000000000000000000000000081525081565b60007f01ffc9a7000000000000000000000000000000000000000000000000000000007fffffffff00000000000000000000000000000000000000000000000000000000831614806105aa57507fd9b67a26000000000000000000000000000000000000000000000000000000007fffffffff000000000000000000000000000000000000000000000000000000008316145b806105f657507f0e89341c000000000000000000000000000000000000000000000000000000007fffffffff000000000000000000000000000000000000000000000000000000008316145b92915050565b60006106086014611c56565b905090565b6000828152600560205260409020546001600160a01b0316331461068457600082815260056020526040908190205490517fe1130dba0000000000000000000000000000000000000000000000000000000081526001600160a01b0390911660048201523360248201526044015b60405180910390fd5b817f6bb7ff708619ba0610cba295a58592e0451dee2622938c8755667688daf3529b826040516106b4919061236d565b60405180910390a25050565b6000818152600560205260409020546060906001600160a01b0316610741576040517f08c379a000000000000000000000000000000000000000000000000000000000815260206004820152600b60248201527f4e4f204d45544144415441000000000000000000000000000000000000000000604482015260640161067b565b600082815260056020526040908190205490517f0e89341c000000000000000000000000000000000000000000000000000000008152600481018490526001600160a01b0390911690630e89341c90602401600060405180830381865afa1580156107b0573d6000803e3d6000fd5b505050506040513d6000823e601f3d9081017fffffffffffffffffffffffffffffffffffffffffffffffffffffffffffffffe01682016040526105f6919081019061291c565b60008281526008602090815260408083205460099092528220546001600160a01b03909116919060649061082a90856129c2565b61083491906129ff565b90509250929050565b83421115610880576040517ff88f04900000000000000000000000000000000000000000000000000000000081524260048201526024810185905260440161067b565b600061088f8989898989611c99565b905060006109f5610999604080518082018252600881527f464552433131353500000000000000000000000000000000000000000000000060209182015281518083018352600181527f31000000000000000000000000000000000000000000000000000000000000009082015281517f8b73c3c69bb8fe3d512ecc4cf759cc79239f7b179b0ffacaa9a75d522b39400f818301527f233a50b0a5718e212019cf2306cc9da67bd87b875da0db3a1c4170b06c73ecd8818401527fc89efdaa54c0f20c7adf612882df0950f5a951637e0307cdcb4c672f298b8bc660608201524660808201523060a0808301919091528351808303909101815260c0909101909252815191012090565b836040517f19010000000000000000000000000000000000000000000000000000000000006020820152602281018390526042810182905260009060620160405160208183030381529060405280519060200120905092915050565b6040805160008082526020820180845284905260ff89169282019290925260608101879052608081018690529192509060019060a0016020604051602081039080840390855afa158015610a4d573d6000803e3d6000fd5b50506040517fffffffffffffffffffffffffffffffffffffffffffffffffffffffffffffffe001519150506001600160a01b0381161580610aa057508a6001600160a01b0316816001600160a01b031614155b15610aea576040517f42d750dc0000000000000000000000000000000000000000000000000000000081526001600160a01b0380831660048301528c16602482015260440161067b565b5050506001600160a01b038881166000818152600460209081526040808320948c168084529482528083208b845282529182902080547fffffffffffffffffffffffffffffffffffffffffffffffffffffffffffffff00168a151590811790915582518b8152918201527f9fe4c80ed54641e7463c240ea1212aa79c810413295452fae0729f7056107677910160405180910390a35050505050505050565b848314610bf2576040517f08c379a000000000000000000000000000000000000000000000000000000000815260206004820152600f60248201527f4c454e4754485f4d49534d415443480000000000000000000000000000000000604482015260640161067b565b336001600160a01b0389161480610c2c57506001600160a01b038816600090815260016020908152604080832033845290915290205460ff165b610c92576040517f08c379a000000000000000000000000000000000000000000000000000000000815260206004820152600e60248201527f4e4f545f415554484f52495a4544000000000000000000000000000000000000604482015260640161067b565b60008060005b87811015610d4d57888882818110610cb257610cb2612a3a565b905060200201359250868682818110610ccd57610ccd612a3a565b6001600160a01b038e1660009081526020818152604080832089845282528220805493909102949094013595508593925090610d0a908490612a69565b90915550506001600160a01b038a1660009081526020818152604080832086845290915281208054849290610d40908490612a80565b9091555050600101610c98565b50886001600160a01b03168a6001600160a01b0316336001600160a01b03167f4a39dc06d4c0dbc64b70af90fd698a233a518aa5d07e595d983b8c0526c8f7fb8b8b8b8b604051610da19493929190612ae7565b60405180910390a46001600160a01b0389163b15610e79576040517fbc197c8100000000000000000000000000000000000000000000000000000000808252906001600160a01b038b169063bc197c8190610e0e9033908f908e908e908e908e908e908e90600401612b19565b6020604051808303816000875af1158015610e2d573d6000803e3d6000fd5b505050506040513d601f19601f82011682018060405250810190610e519190612bb1565b7fffffffff000000000000000000000000000000000000000000000000000000001614610e86565b6001600160a01b03891615155b610eec576040517f08c379a000000000000000000000000000000000000000000000000000000000815260206004820152601060248201527f554e534146455f524543495049454e5400000000000000000000000000000000604482015260640161067b565b50505050505050505050565b6060838214610f63576040517f08c379a000000000000000000000000000000000000000000000000000000000815260206004820152600f60248201527f4c454e4754485f4d49534d415443480000000000000000000000000000000000604482015260640161067b565b8367ffffffffffffffff811115610f7c57610f7c612181565b604051908082528060200260200182016040528015610fa5578160200160208202803683370190505b50905060005b8481101561104c57600080878784818110610fc857610fc8612a3a565b9050602002016020810190610fdd91906126b8565b6001600160a01b03166001600160a01b03168152602001908152602001600020600085858481811061101157611011612a3a565b9050602002013581526020019081526020016000205482828151811061103957611039612a3a565b6020908102919091010152600101610fab565b50949350505050565b600061105f611c22565b9050336001600160a01b038216146110b4576040517fe1130dba0000000000000000000000000000000000000000000000000000000081526001600160a01b038216600482015233602482015260440161067b565b60008281526005602090815260409182902080547fffffffffffffffffffffffff0000000000000000000000000000000000000000166001600160a01b03871690811790915591518481527e2eaa91860e3ef728f8a91f04b0b0fb11f91d377fafbe25db7299c3e76150dd910160405180910390a2505050565b60006111386105fc565b9050336001600160a01b0382161461118d576040517fe1130dba0000000000000000000000000000000000000000000000000000000081526001600160a01b038216600482015233602482015260440161067b565b61119985858585611d4c565b600084815260076020526040812080548592906111b7908490612a80565b90915550505050505050565b60006111cd611c22565b9050336001600160a01b03821614611222576040517fe1130dba0000000000000000000000000000000000000000000000000000000081526001600160a01b038216600482015233602482015260440161067b565b61122e60038484612038565b50505050565b3360008181526001602090815260408083206001600160a01b0387168085529083529281902080547fffffffffffffffffffffffffffffffffffffffffffffffffffffffffffffff001686151590811790915590519081529192917f17307eab39ab6107e8899845ad3d59bd9653f200f220920489ca2b5937696c31910160405180910390a35050565b83421115611301576040517ff88f04900000000000000000000000000000000000000000000000000000000081524260048201526024810185905260440161067b565b600061130f88888888611f09565b90506000611419610999604080518082018252600881527f464552433131353500000000000000000000000000000000000000000000000060209182015281518083018352600181527f31000000000000000000000000000000000000000000000000000000000000009082015281517f8b73c3c69bb8fe3d512ecc4cf759cc79239f7b179b0ffacaa9a75d522b39400f818301527f233a50b0a5718e212019cf2306cc9da67bd87b875da0db3a1c4170b06c73ecd8818401527fc89efdaa54c0f20c7adf612882df0950f5a951637e0307cdcb4c672f298b8bc660608201524660808201523060a0808301919091528351808303909101815260c0909101909252815191012090565b6040805160008082526020820180845284905260ff89169282019290925260608101879052608081018690529192509060019060a0016020604051602081039080840390855afa158015611471573d6000803e3d6000fd5b50506040517fffffffffffffffffffffffffffffffffffffffffffffffffffffffffffffffe001519150506001600160a01b03811615806114c45750896001600160a01b0316816001600160a01b031614155b1561150e576040517f42d750dc0000000000000000000000000000000000000000000000000000000081526001600160a01b0380831660048301528b16602482015260440161067b565b5050506001600160a01b038781166000818152600160209081526040808320948b168084529482529182902080547fffffffffffffffffffffffffffffffffffffffffffffffffffffffffffffff00168a151590811790915591519182527f17307eab39ab6107e8899845ad3d59bd9653f200f220920489ca2b5937696c31910160405180910390a350505050505050565b60006106086000611c56565b60006115b6611c22565b9050336001600160a01b0382161461160b576040517fe1130dba0000000000000000000000000000000000000000000000000000000081526001600160a01b038216600482015233602482015260440161067b565b600084815260086020908152604080832080547fffffffffffffffffffffffff0000000000000000000000000000000000000000166001600160a01b038816908117909155600983529281902085905580518781529182018590527fd8d64e17a5f54d19ed4852e386866de24539f87d9f047e36c8216e6448b22511910160405180910390a250505050565b600380546116a490612bce565b80601f01602080910402602001604051908101604052809291908181526020018280546116d090612bce565b801561171d5780601f106116f25761010080835404028352916020019161171d565b820191906000526020600020905b81548152906001019060200180831161170057829003601f168201915b505050505081565b600061172f611c22565b9050336001600160a01b03821614611784576040517fe1130dba0000000000000000000000000000000000000000000000000000000081526001600160a01b038216600482015233602482015260440161067b565b6001600160a01b0382166117c4576040517fd92e233d00000000000000000000000000000000000000000000000000000000815260040160405180910390fd5b600280547fffffffffffffffffffffffff0000000000000000000000000000000000000000166001600160a01b0384169081179091556040517f22ae3e13754fada79785f8712cf9edb6d7a1be7e1738be44b84374a5b0220aed90600090a25050565b336001600160a01b038616148061186157506001600160a01b038516600090815260016020908152604080832033845290915290205460ff165b8061189757506001600160a01b0385166000908152600460209081526040808320338452825280832086845290915290205460ff165b6118fd576040517f08c379a000000000000000000000000000000000000000000000000000000000815260206004820152600e60248201527f4e4f545f415554484f52495a4544000000000000000000000000000000000000604482015260640161067b565b6001600160a01b0385166000908152602081815260408083208684529091528120805484929061192e908490612a69565b90915550506001600160a01b03841660009081526020818152604080832086845290915281208054849290611964908490612a80565b909155505060408051848152602081018490526001600160a01b03808716929088169133917fc3d58168c5ae7397731d063d5bbf3d657854427343f4c083240f7aacaa2d0f62910160405180910390a46001600160a01b0384163b15611a7e576040517ff23a6e6100000000000000000000000000000000000000000000000000000000808252906001600160a01b0386169063f23a6e6190611a139033908a90899089908990600401612c21565b6020604051808303816000875af1158015611a32573d6000803e3d6000fd5b505050506040513d601f19601f82011682018060405250810190611a569190612bb1565b7fffffffff000000000000000000000000000000000000000000000000000000001614611a8b565b6001600160a01b03841615155b611af1576040517f08c379a000000000000000000000000000000000000000000000000000000000815260206004820152601060248201527f554e534146455f524543495049454e5400000000000000000000000000000000604482015260640161067b565b5050505050565b6000611b026105fc565b9050336001600160a01b03821614611b57576040517fe1130dba0000000000000000000000000000000000000000000000000000000081526001600160a01b038216600482015233602482015260440161067b565b611b62848484611fb4565b60008381526007602052604081208054849290611b80908490612a69565b909155505050505050565b3360008181526004602090815260408083206001600160a01b03881680855290835281842087855283529281902080547fffffffffffffffffffffffffffffffffffffffffffffffffffffffffffffff00168615159081179091558151878152928301529192917f9fe4c80ed54641e7463c240ea1212aa79c810413295452fae0729f7056107677910160405180910390a3505050565b6002546000906001600160a01b031615611c4657506002546001600160a01b031690565b611c4e6115a0565b9050805b5090565b600080611c8b7ffffffffffffffffffffffffffffffffffffffffffffffffffffffffffffffffe368181013560f01c90030190565b929092013560601c92915050565b6001600160a01b038516600090815260066020526040812080547faff3e7017d0a41834e125c9c80495a73609c1859f670a0c126d99a1acf4b4e6891889188918891889187611ce783612c59565b909155506040805160208101979097526001600160a01b03958616908701529390921660608501526080840152151560a083015260c082015260e081018390526101000160405160208183030381529060405280519060200120905095945050505050565b6001600160a01b03841660009081526020818152604080832086845290915281208054849290611d7d908490612a80565b909155505060408051848152602081018490526001600160a01b0386169160009133917fc3d58168c5ae7397731d063d5bbf3d657854427343f4c083240f7aacaa2d0f62910160405180910390a46001600160a01b0384163b15611e96576040517ff23a6e6100000000000000000000000000000000000000000000000000000000808252906001600160a01b0386169063f23a6e6190611e2b903390600090899089908990600401612c21565b6020604051808303816000875af1158015611e4a573d6000803e3d6000fd5b505050506040513d601f19601f82011682018060405250810190611e6e9190612bb1565b7fffffffff000000000000000000000000000000000000000000000000000000001614611ea3565b6001600160a01b03841615155b61122e576040517f08c379a000000000000000000000000000000000000000000000000000000000815260206004820152601060248201527f554e534146455f524543495049454e5400000000000000000000000000000000604482015260640161067b565b6001600160a01b038416600090815260066020526040812080547f200d2483757e19728fc8a3511298158c1b74dd131c7be00c4904e11665b42cd1918791879187919086611f5683612c59565b909155506040805160208101969096526001600160a01b03948516908601529290911660608401521515608083015260a082015260c0810183905260e001604051602081830303815290604052805190602001209050949350505050565b6001600160a01b03831660009081526020818152604080832085845290915281208054839290611fe5908490612a69565b909155505060408051838152602081018390526000916001600160a01b0386169133917fc3d58168c5ae7397731d063d5bbf3d657854427343f4c083240f7aacaa2d0f62910160405180910390a4505050565b82805461204490612bce565b90600052602060002090601f01602090048101928261206657600085556120ca565b82601f1061209d578280017fffffffffffffffffffffffffffffffffffffffffffffffffffffffffffffff008235161785556120ca565b828001600101855582156120ca579182015b828111156120ca5782358255916020019190600101906120af565b50611c529291505b80821115611c5257600081556001016120d2565b80356001600160a01b03811681146120fd57600080fd5b919050565b6000806040838503121561211557600080fd5b61211e836120e6565b946020939093013593505050565b7fffffffff000000000000000000000000000000000000000000000000000000008116811461215a57600080fd5b50565b60006020828403121561216f57600080fd5b813561217a8161212c565b9392505050565b7f4e487b7100000000000000000000000000000000000000000000000000000000600052604160045260246000fd5b604051601f82017fffffffffffffffffffffffffffffffffffffffffffffffffffffffffffffffe016810167ffffffffffffffff811182821017156121f7576121f7612181565b604052919050565b600067ffffffffffffffff82111561221957612219612181565b50601f017fffffffffffffffffffffffffffffffffffffffffffffffffffffffffffffffe01660200190565b6000612258612253846121ff565b6121b0565b905082815283838301111561226c57600080fd5b828260208301376000602084830101529392505050565b6000806040838503121561229657600080fd5b82359150602083013567ffffffffffffffff8111156122b457600080fd5b8301601f810185136122c557600080fd5b6122d485823560208401612245565b9150509250929050565b6000602082840312156122f057600080fd5b5035919050565b60005b838110156123125781810151838201526020016122fa565b8381111561122e5750506000910152565b6000815180845261233b8160208601602086016122f7565b601f017fffffffffffffffffffffffffffffffffffffffffffffffffffffffffffffffe0169290920160200192915050565b60208152600061217a6020830184612323565b6000806040838503121561239357600080fd5b50508035926020909101359150565b803580151581146120fd57600080fd5b803560ff811681146120fd57600080fd5b600080600080600080600080610100898b0312156123e057600080fd5b6123e9896120e6565b97506123f760208a016120e6565b96506040890135955061240c60608a016123a2565b94506080890135935061242160a08a016123b2565b925060c0890135915060e089013590509295985092959890939650565b60008083601f84011261245057600080fd5b50813567ffffffffffffffff81111561246857600080fd5b6020830191508360208260051b850101111561248357600080fd5b9250929050565b60008083601f84011261249c57600080fd5b50813567ffffffffffffffff8111156124b457600080fd5b60208301915083602082850101111561248357600080fd5b60008060008060008060008060a0898b0312156124e857600080fd5b6124f1896120e6565b97506124ff60208a016120e6565b9650604089013567ffffffffffffffff8082111561251c57600080fd5b6125288c838d0161243e565b909850965060608b013591508082111561254157600080fd5b61254d8c838d0161243e565b909650945060808b013591508082111561256657600080fd5b506125738b828c0161248a565b999c989b5096995094979396929594505050565b6000806000806040858703121561259d57600080fd5b843567ffffffffffffffff808211156125b557600080fd5b6125c18883890161243e565b909650945060208701359150808211156125da57600080fd5b506125e78782880161243e565b95989497509550505050565b6020808252825182820181905260009190848201906040850190845b8181101561262b5783518352928401929184019160010161260f565b50909695505050505050565b600082601f83011261264857600080fd5b61217a83833560208501612245565b6000806000806080858703121561266d57600080fd5b612676856120e6565b93506020850135925060408501359150606085013567ffffffffffffffff8111156126a057600080fd5b6126ac87828801612637565b91505092959194509250565b6000602082840312156126ca57600080fd5b61217a826120e6565b600080602083850312156126e657600080fd5b823567ffffffffffffffff8111156126fd57600080fd5b6127098582860161248a565b90969095509350505050565b6000806040838503121561272857600080fd5b612731836120e6565b9150610834602084016123a2565b600080600080600080600060e0888a03121561275a57600080fd5b612763886120e6565b9650612771602089016120e6565b955061277f604089016123a2565b945060608801359350612794608089016123b2565b925060a0880135915060c0880135905092959891949750929550565b6000806000606084860312156127c557600080fd5b833592506127d5602085016120e6565b9150604084013590509250925092565b6000806000606084860312156127fa57600080fd5b612803846120e6565b92506127d5602085016120e6565b6000806040838503121561282457600080fd5b61282d836120e6565b9150610834602084016120e6565b600080600080600060a0868803121561285357600080fd5b61285c866120e6565b945061286a602087016120e6565b93506040860135925060608601359150608086013567ffffffffffffffff81111561289457600080fd5b6128a088828901612637565b9150509295509295909350565b6000806000606084860312156128c257600080fd5b6128cb846120e6565b95602085013595506040909401359392505050565b6000806000606084860312156128f557600080fd5b6128fe846120e6565b925060208401359150612913604085016123a2565b90509250925092565b60006020828403121561292e57600080fd5b815167ffffffffffffffff81111561294557600080fd5b8201601f8101841361295657600080fd5b8051612964612253826121ff565b81815285602083850101111561297957600080fd5b61298a8260208301602086016122f7565b95945050505050565b7f4e487b7100000000000000000000000000000000000000000000000000000000600052601160045260246000fd5b6000817fffffffffffffffffffffffffffffffffffffffffffffffffffffffffffffffff04831182151516156129fa576129fa612993565b500290565b600082612a35577f4e487b7100000000000000000000000000000000000000000000000000000000600052601260045260246000fd5b500490565b7f4e487b7100000000000000000000000000000000000000000000000000000000600052603260045260246000fd5b600082821015612a7b57612a7b612993565b500390565b60008219821115612a9357612a93612993565b500190565b81835260007f07ffffffffffffffffffffffffffffffffffffffffffffffffffffffffffffff831115612aca57600080fd5b8260051b8083602087013760009401602001938452509192915050565b604081526000612afb604083018688612a98565b8281036020840152612b0e818587612a98565b979650505050505050565b60006001600160a01b03808b168352808a1660208401525060a06040830152612b4660a08301888a612a98565b8281036060840152612b59818789612a98565b905082810360808401528381528385602083013760006020858301015260207fffffffffffffffffffffffffffffffffffffffffffffffffffffffffffffffe0601f8601168201019150509998505050505050505050565b600060208284031215612bc357600080fd5b815161217a8161212c565b600181811c90821680612be257607f821691505b602082108103612c1b577f4e487b7100000000000000000000000000000000000000000000000000000000600052602260045260246000fd5b50919050565b60006001600160a01b03808816835280871660208401525084604083015283606083015260a06080830152612b0e60a0830184612323565b60007fffffffffffffffffffffffffffffffffffffffffffffffffffffffffffffffff8203612c8a57612c8a612993565b506001019056fea2646970667358221220491516c0312c365eb81686e07736f00903c03fb35e3896eceace0995031ceae664736f6c634300080d0033",
  "linkReferences": {},
  "deployedLinkReferences": {}
}