{
  "abi": [
    {
      "inputs": [
        {
          "internalType": "address",
          "name": "_addr",
          "type": "address"
        },
        {
          "internalType": "uint256",
          "name": "_privateKey",
          "type": "uint256"
        },
        {
          "internalType": "address",
          "name": "_target",
          "type": "address"
        }
      ],
      "stateMutability": "nonpayable",
      "type": "constructor"
    },
    {
      "inputs": [
        {
          "internalType": "address",
          "name": "arg0",
          "type": "address"
        },
        {
          "internalType": "uint256",
          "name": "arg1",
          "type": "uint256"
        }
      ],
      "name": "balanceOf",
      "outputs": [
        {
          "internalType": "uint256",
          "name": "",
          "type": "uint256"
        }
      ],
      "stateMutability": "nonpayable",
      "type": "function"
    },
    {
      "inputs": [
        {
          "internalType": "address[]",
          "name": "_owners",
          "type": "address[]"
        },
        {
          "internalType": "uint256[]",
          "name": "ids",
          "type": "uint256[]"
        }
      ],
      "name": "balanceOfBatch",
      "outputs": [
        {
          "internalType": "uint256[]",
          "name": "",
          "type": "uint256[]"
        }
      ],
      "stateMutability": "nonpayable",
      "type": "function"
    },
    {
      "inputs": [
        {
          "internalType": "address",
          "name": "arg0",
          "type": "address"
        },
        {
          "internalType": "address",
          "name": "arg1",
          "type": "address"
        }
      ],
      "name": "isApprovedForAll",
      "outputs": [
        {
          "internalType": "bool",
          "name": "",
          "type": "bool"
        }
      ],
      "stateMutability": "nonpayable",
      "type": "function"
    },
    {
      "inputs": [],
      "name": "proxyContract",
      "outputs": [
        {
          "internalType": "address",
          "name": "",
          "type": "address"
        }
      ],
      "stateMutability": "view",
      "type": "function"
    },
    {
      "inputs": [
        {
          "internalType": "address",
          "name": "_from",
          "type": "address"
        },
        {
          "internalType": "address",
          "name": "_to",
          "type": "address"
        },
        {
          "internalType": "uint256[]",
          "name": "_ids",
          "type": "uint256[]"
        },
        {
          "internalType": "uint256[]",
          "name": "_amounts",
          "type": "uint256[]"
        },
        {
          "internalType": "bytes",
          "name": "_data",
          "type": "bytes"
        }
      ],
      "name": "safeBatchTransferFrom",
      "outputs": [],
      "stateMutability": "nonpayable",
      "type": "function"
    },
    {
      "inputs": [
        {
          "internalType": "address",
          "name": "_from",
          "type": "address"
        },
        {
          "internalType": "address",
          "name": "_to",
          "type": "address"
        },
        {
          "internalType": "uint256",
          "name": "_id",
          "type": "uint256"
        },
        {
          "internalType": "uint256",
          "name": "_amount",
          "type": "uint256"
        },
        {
          "internalType": "bytes",
          "name": "_data",
          "type": "bytes"
        }
      ],
      "name": "safeTransferFrom",
      "outputs": [],
      "stateMutability": "nonpayable",
      "type": "function"
    },
    {
      "inputs": [
        {
          "internalType": "address",
          "name": "_operator",
          "type": "address"
        },
        {
          "internalType": "bool",
          "name": "_approved",
          "type": "bool"
        }
      ],
      "name": "setApprovalForAll",
      "outputs": [],
      "stateMutability": "nonpayable",
      "type": "function"
    },
    {
      "inputs": [
        {
          "internalType": "bytes4",
          "name": "_interfaceId",
          "type": "bytes4"
        }
      ],
      "name": "supportsInterface",
      "outputs": [
        {
          "internalType": "bool",
          "name": "",
          "type": "bool"
        }
      ],
      "stateMutability": "nonpayable",
      "type": "function"
    },
    {
      "inputs": [
        {
          "internalType": "uint256",
          "name": "_id",
          "type": "uint256"
        }
      ],
      "name": "uri",
      "outputs": [
        {
          "internalType": "string",
          "name": "",
          "type": "string"
        }
      ],
      "stateMutability": "nonpayable",
      "type": "function"
    }
  ],
  "bytecode": {
    "object": "0x60806040523480156200001157600080fd5b506040516200133f3803806200133f833981016040819052620000349162000114565b8115620000bd576040516001625e79b760e01b0319815260048101839052737109709ecfa91a80626ff3989d68f67f5b1dd12d9063ffa18649906024016020604051808303816000875af115801562000091573d6000803e3d6000fd5b505050506040513d601f19601f82011682018060405250810190620000b7919062000155565b620000bf565b825b600080546001600160a01b03199081166001600160a01b0393841617909155600193909355600280549093169116179055506200017a565b80516001600160a01b03811681146200010f57600080fd5b919050565b6000806000606084860312156200012a57600080fd5b6200013584620000f7565b9250602084015191506200014c60408501620000f7565b90509250925092565b6000602082840312156200016857600080fd5b6200017382620000f7565b9392505050565b6111b5806200018a6000396000f3fe608060405234801561001057600080fd5b50600436106100925760003560e01c80634e1273f4116100665780634e1273f414610115578063a22cb46514610135578063e985e9c514610148578063ed5504431461015b578063f242432a1461017657600080fd5b8062fdd58e1461009757806301ffc9a7146100bd5780630e89341c146100e05780632eb2c2d614610100575b600080fd5b6100aa6100a5366004610a65565b610189565b6040519081526020015b60405180910390f35b6100d06100cb366004610a8f565b6102e2565b60405190151581526020016100b4565b6100f36100ee366004610ac0565b61043d565b6040516100b49190610b35565b61011361010e366004610c97565b610529565b005b610128610123366004610d41565b610677565b6040516100b49190610e3c565b610113610143366004610e60565b610769565b6100d0610156366004610e97565b6108b1565b6002546040516001600160a01b0390911681526020016100b4565b610113610184366004610eca565b61099b565b600080546040516308b6ac0f60e31b8152737109709ecfa91a80626ff3989d68f67f5b1dd12d916345b56078916101ce916001600160a01b0316908190600401610f2f565b600060405180830381600087803b1580156101e857600080fd5b505af11580156101fc573d6000803e3d6000fd5b5050600254604051627eeac760e11b81526001600160a01b03878116600483015260248201879052909116925062fdd58e9150604401602060405180830381865afa15801561024f573d6000803e3d6000fd5b505050506040513d601f19601f820116820180604052508101906102739190610f49565b9050737109709ecfa91a80626ff3989d68f67f5b1dd12d6001600160a01b03166390c5013b6040518163ffffffff1660e01b8152600401600060405180830381600087803b1580156102c457600080fd5b505af11580156102d8573d6000803e3d6000fd5b5050505092915050565b600080546040516308b6ac0f60e31b8152737109709ecfa91a80626ff3989d68f67f5b1dd12d916345b5607891610327916001600160a01b0316908190600401610f2f565b600060405180830381600087803b15801561034157600080fd5b505af1158015610355573d6000803e3d6000fd5b50506002546040516301ffc9a760e01b81526001600160e01b0319861660048201526001600160a01b0390911692506301ffc9a79150602401602060405180830381865afa1580156103ab573d6000803e3d6000fd5b505050506040513d601f19601f820116820180604052508101906103cf9190610f62565b9050737109709ecfa91a80626ff3989d68f67f5b1dd12d6001600160a01b03166390c5013b6040518163ffffffff1660e01b8152600401600060405180830381600087803b15801561042057600080fd5b505af1158015610434573d6000803e3d6000fd5b50505050919050565b6000546040516308b6ac0f60e31b8152606091737109709ecfa91a80626ff3989d68f67f5b1dd12d916345b5607891610486916001600160a01b03909116908190600401610f2f565b600060405180830381600087803b1580156104a057600080fd5b505af11580156104b4573d6000803e3d6000fd5b50506002546040516303a24d0760e21b8152600481018690526001600160a01b039091169250630e89341c9150602401600060405180830381865afa158015610501573d6000803e3d6000fd5b505050506040513d6000823e601f3d908101601f191682016040526103cf9190810190610f7f565b6000546040516308b6ac0f60e31b8152737109709ecfa91a80626ff3989d68f67f5b1dd12d916345b560789161056d916001600160a01b0316908190600401610f2f565b600060405180830381600087803b15801561058757600080fd5b505af115801561059b573d6000803e3d6000fd5b5050600254604051631759616b60e11b81526001600160a01b039091169250632eb2c2d691506105d79088908890889088908890600401610ff6565b600060405180830381600087803b1580156105f157600080fd5b505af1158015610605573d6000803e3d6000fd5b50505050737109709ecfa91a80626ff3989d68f67f5b1dd12d6001600160a01b03166390c5013b6040518163ffffffff1660e01b8152600401600060405180830381600087803b15801561065857600080fd5b505af115801561066c573d6000803e3d6000fd5b505050505050505050565b6000546040516308b6ac0f60e31b8152606091737109709ecfa91a80626ff3989d68f67f5b1dd12d916345b56078916106c0916001600160a01b03909116908190600401610f2f565b600060405180830381600087803b1580156106da57600080fd5b505af11580156106ee573d6000803e3d6000fd5b50506002546040516313849cfd60e21b81526001600160a01b039091169250634e1273f491506107249086908690600401611054565b600060405180830381865afa158015610741573d6000803e3d6000fd5b505050506040513d6000823e601f3d908101601f1916820160405261027391908101906110b4565b6000546040516308b6ac0f60e31b8152737109709ecfa91a80626ff3989d68f67f5b1dd12d916345b56078916107ad916001600160a01b0316908190600401610f2f565b600060405180830381600087803b1580156107c757600080fd5b505af11580156107db573d6000803e3d6000fd5b505060025460405163a22cb46560e01b81526001600160a01b0386811660048301528515156024830152909116925063a22cb4659150604401600060405180830381600087803b15801561082e57600080fd5b505af1158015610842573d6000803e3d6000fd5b50505050737109709ecfa91a80626ff3989d68f67f5b1dd12d6001600160a01b03166390c5013b6040518163ffffffff1660e01b8152600401600060405180830381600087803b15801561089557600080fd5b505af11580156108a9573d6000803e3d6000fd5b505050505050565b600080546040516308b6ac0f60e31b8152737109709ecfa91a80626ff3989d68f67f5b1dd12d916345b56078916108f6916001600160a01b0316908190600401610f2f565b600060405180830381600087803b15801561091057600080fd5b505af1158015610924573d6000803e3d6000fd5b505060025460405163e985e9c560e01b81526001600160a01b03909116925063e985e9c5915061095a9086908690600401610f2f565b602060405180830381865afa158015610977573d6000803e3d6000fd5b505050506040513d601f19601f820116820180604052508101906102739190610f62565b6000546040516308b6ac0f60e31b8152737109709ecfa91a80626ff3989d68f67f5b1dd12d916345b56078916109df916001600160a01b0316908190600401610f2f565b600060405180830381600087803b1580156109f957600080fd5b505af1158015610a0d573d6000803e3d6000fd5b5050600254604051637921219560e11b81526001600160a01b03909116925063f242432a91506105d79088908890889088908890600401611145565b80356001600160a01b0381168114610a6057600080fd5b919050565b60008060408385031215610a7857600080fd5b610a8183610a49565b946020939093013593505050565b600060208284031215610aa157600080fd5b81356001600160e01b031981168114610ab957600080fd5b9392505050565b600060208284031215610ad257600080fd5b5035919050565b60005b83811015610af4578181015183820152602001610adc565b83811115610b03576000848401525b50505050565b60008151808452610b21816020860160208601610ad9565b601f01601f19169290920160200192915050565b602081526000610ab96020830184610b09565b634e487b7160e01b600052604160045260246000fd5b604051601f8201601f1916810167ffffffffffffffff81118282101715610b8757610b87610b48565b604052919050565b600067ffffffffffffffff821115610ba957610ba9610b48565b5060051b60200190565b600082601f830112610bc457600080fd5b81356020610bd9610bd483610b8f565b610b5e565b82815260059290921b84018101918181019086841115610bf857600080fd5b8286015b84811015610c135780358352918301918301610bfc565b509695505050505050565b600067ffffffffffffffff821115610c3857610c38610b48565b50601f01601f191660200190565b600082601f830112610c5757600080fd5b8135610c65610bd482610c1e565b818152846020838601011115610c7a57600080fd5b816020850160208301376000918101602001919091529392505050565b600080600080600060a08688031215610caf57600080fd5b610cb886610a49565b9450610cc660208701610a49565b9350604086013567ffffffffffffffff80821115610ce357600080fd5b610cef89838a01610bb3565b94506060880135915080821115610d0557600080fd5b610d1189838a01610bb3565b93506080880135915080821115610d2757600080fd5b50610d3488828901610c46565b9150509295509295909350565b60008060408385031215610d5457600080fd5b823567ffffffffffffffff80821115610d6c57600080fd5b818501915085601f830112610d8057600080fd5b81356020610d90610bd483610b8f565b82815260059290921b84018101918181019089841115610daf57600080fd5b948201945b83861015610dd457610dc586610a49565b82529482019490820190610db4565b96505086013592505080821115610dea57600080fd5b50610df785828601610bb3565b9150509250929050565b600081518084526020808501945080840160005b83811015610e3157815187529582019590820190600101610e15565b509495945050505050565b602081526000610ab96020830184610e01565b8015158114610e5d57600080fd5b50565b60008060408385031215610e7357600080fd5b610e7c83610a49565b91506020830135610e8c81610e4f565b809150509250929050565b60008060408385031215610eaa57600080fd5b610eb383610a49565b9150610ec160208401610a49565b90509250929050565b600080600080600060a08688031215610ee257600080fd5b610eeb86610a49565b9450610ef960208701610a49565b93506040860135925060608601359150608086013567ffffffffffffffff811115610f2357600080fd5b610d3488828901610c46565b6001600160a01b0392831681529116602082015260400190565b600060208284031215610f5b57600080fd5b5051919050565b600060208284031215610f7457600080fd5b8151610ab981610e4f565b600060208284031215610f9157600080fd5b815167ffffffffffffffff811115610fa857600080fd5b8201601f81018413610fb957600080fd5b8051610fc7610bd482610c1e565b818152856020838501011115610fdc57600080fd5b610fed826020830160208601610ad9565b95945050505050565b6001600160a01b0386811682528516602082015260a06040820181905260009061102290830186610e01565b82810360608401526110348186610e01565b905082810360808401526110488185610b09565b98975050505050505050565b604080825283519082018190526000906020906060840190828701845b828110156110965781516001600160a01b031684529284019290840190600101611071565b505050838103828501526110aa8186610e01565b9695505050505050565b600060208083850312156110c757600080fd5b825167ffffffffffffffff8111156110de57600080fd5b8301601f810185136110ef57600080fd5b80516110fd610bd482610b8f565b81815260059190911b8201830190838101908783111561111c57600080fd5b928401925b8284101561113a57835182529284019290840190611121565b979650505050505050565b6001600160a01b03868116825285166020820152604081018490526060810183905260a06080820181905260009061113a90830184610b0956fea26469706673582212205560d250ac078ae05969d837da0b1c28a86c3a0d8f0d71c303290c50fea9396e64736f6c634300080d0033",
    "linkReferences": {}
  },
  "methodIdentifiers": {
    "balanceOf(address,uint256)": "00fdd58e",
    "balanceOfBatch(address[],uint256[])": "4e1273f4",
    "isApprovedForAll(address,address)": "e985e9c5",
    "proxyContract()": "ed550443",
    "safeBatchTransferFrom(address,address,uint256[],uint256[],bytes)": "2eb2c2d6",
    "safeTransferFrom(address,address,uint256,uint256,bytes)": "f242432a",
    "setApprovalForAll(address,bool)": "a22cb465",
    "supportsInterface(bytes4)": "01ffc9a7",
    "uri(uint256)": "0e89341c"
  },
  "id": 76
}