{
  "abi": [
    {
      "inputs": [
        {
          "internalType": "address",
          "name": "_addr",
          "type": "address"
        },
        {
          "internalType": "uint256",
          "name": "_privateKey",
          "type": "uint256"
        },
        {
          "internalType": "address",
          "name": "_target",
          "type": "address"
        }
      ],
      "stateMutability": "nonpayable",
      "type": "constructor"
    },
    {
      "inputs": [
        {
          "internalType": "address",
          "name": "spender",
          "type": "address"
        },
        {
          "internalType": "uint256",
          "name": "id",
          "type": "uint256"
        }
      ],
      "name": "approve",
      "outputs": [],
      "stateMutability": "nonpayable",
      "type": "function"
    },
    {
      "inputs": [
        {
          "internalType": "address",
          "name": "owner",
          "type": "address"
        }
      ],
      "name": "balanceOf",
      "outputs": [
        {
          "internalType": "uint256",
          "name": "",
          "type": "uint256"
        }
      ],
      "stateMutability": "nonpayable",
      "type": "function"
    },
    {
      "inputs": [
        {
          "internalType": "uint256",
          "name": "tokenId",
          "type": "uint256"
        }
      ],
      "name": "burn",
      "outputs": [],
      "stateMutability": "nonpayable",
      "type": "function"
    },
    {
      "inputs": [
        {
          "internalType": "uint256",
          "name": "arg0",
          "type": "uint256"
        }
      ],
      "name": "getApproved",
      "outputs": [
        {
          "internalType": "address",
          "name": "",
          "type": "address"
        }
      ],
      "stateMutability": "nonpayable",
      "type": "function"
    },
    {
      "inputs": [
        {
          "internalType": "address",
          "name": "arg0",
          "type": "address"
        },
        {
          "internalType": "address",
          "name": "arg1",
          "type": "address"
        }
      ],
      "name": "isApprovedForAll",
      "outputs": [
        {
          "internalType": "bool",
          "name": "",
          "type": "bool"
        }
      ],
      "stateMutability": "nonpayable",
      "type": "function"
    },
    {
      "inputs": [
        {
          "internalType": "address",
          "name": "to",
          "type": "address"
        },
        {
          "internalType": "uint256",
          "name": "tokenId",
          "type": "uint256"
        }
      ],
      "name": "mint",
      "outputs": [],
      "stateMutability": "nonpayable",
      "type": "function"
    },
    {
      "inputs": [],
      "name": "name",
      "outputs": [
        {
          "internalType": "string",
          "name": "",
          "type": "string"
        }
      ],
      "stateMutability": "nonpayable",
      "type": "function"
    },
    {
      "inputs": [
        {
          "internalType": "uint256",
          "name": "id",
          "type": "uint256"
        }
      ],
      "name": "ownerOf",
      "outputs": [
        {
          "internalType": "address",
          "name": "",
          "type": "address"
        }
      ],
      "stateMutability": "nonpayable",
      "type": "function"
    },
    {
      "inputs": [],
      "name": "proxyContract",
      "outputs": [
        {
          "internalType": "address",
          "name": "",
          "type": "address"
        }
      ],
      "stateMutability": "view",
      "type": "function"
    },
    {
      "inputs": [
        {
          "internalType": "address",
          "name": "to",
          "type": "address"
        },
        {
          "internalType": "uint256",
          "name": "tokenId",
          "type": "uint256"
        },
        {
          "internalType": "bytes",
          "name": "data",
          "type": "bytes"
        }
      ],
      "name": "safeMint",
      "outputs": [],
      "stateMutability": "nonpayable",
      "type": "function"
    },
    {
      "inputs": [
        {
          "internalType": "address",
          "name": "to",
          "type": "address"
        },
        {
          "internalType": "uint256",
          "name": "tokenId",
          "type": "uint256"
        }
      ],
      "name": "safeMint",
      "outputs": [],
      "stateMutability": "nonpayable",
      "type": "function"
    },
    {
      "inputs": [
        {
          "internalType": "address",
          "name": "from",
          "type": "address"
        },
        {
          "internalType": "address",
          "name": "to",
          "type": "address"
        },
        {
          "internalType": "uint256",
          "name": "id",
          "type": "uint256"
        }
      ],
      "name": "safeTransferFrom",
      "outputs": [],
      "stateMutability": "nonpayable",
      "type": "function"
    },
    {
      "inputs": [
        {
          "internalType": "address",
          "name": "from",
          "type": "address"
        },
        {
          "internalType": "address",
          "name": "to",
          "type": "address"
        },
        {
          "internalType": "uint256",
          "name": "id",
          "type": "uint256"
        },
        {
          "internalType": "bytes",
          "name": "data",
          "type": "bytes"
        }
      ],
      "name": "safeTransferFrom",
      "outputs": [],
      "stateMutability": "nonpayable",
      "type": "function"
    },
    {
      "inputs": [
        {
          "internalType": "address",
          "name": "operator",
          "type": "address"
        },
        {
          "internalType": "bool",
          "name": "approved",
          "type": "bool"
        }
      ],
      "name": "setApprovalForAll",
      "outputs": [],
      "stateMutability": "nonpayable",
      "type": "function"
    },
    {
      "inputs": [
        {
          "internalType": "bytes4",
          "name": "interfaceId",
          "type": "bytes4"
        }
      ],
      "name": "supportsInterface",
      "outputs": [
        {
          "internalType": "bool",
          "name": "",
          "type": "bool"
        }
      ],
      "stateMutability": "nonpayable",
      "type": "function"
    },
    {
      "inputs": [],
      "name": "symbol",
      "outputs": [
        {
          "internalType": "string",
          "name": "",
          "type": "string"
        }
      ],
      "stateMutability": "nonpayable",
      "type": "function"
    },
    {
      "inputs": [
        {
          "internalType": "uint256",
          "name": "arg0",
          "type": "uint256"
        }
      ],
      "name": "tokenURI",
      "outputs": [
        {
          "internalType": "string",
          "name": "",
          "type": "string"
        }
      ],
      "stateMutability": "nonpayable",
      "type": "function"
    },
    {
      "inputs": [
        {
          "internalType": "address",
          "name": "from",
          "type": "address"
        },
        {
          "internalType": "address",
          "name": "to",
          "type": "address"
        },
        {
          "internalType": "uint256",
          "name": "id",
          "type": "uint256"
        }
      ],
      "name": "transferFrom",
      "outputs": [],
      "stateMutability": "nonpayable",
      "type": "function"
    }
  ],
  "bytecode": {
    "object": "0x60806040523480156200001157600080fd5b506040516200196838038062001968833981016040819052620000349162000114565b8115620000bd576040516001625e79b760e01b0319815260048101839052737109709ecfa91a80626ff3989d68f67f5b1dd12d9063ffa18649906024016020604051808303816000875af115801562000091573d6000803e3d6000fd5b505050506040513d601f19601f82011682018060405250810190620000b7919062000155565b620000bf565b825b600080546001600160a01b03199081166001600160a01b0393841617909155600193909355600280549093169116179055506200017a565b80516001600160a01b03811681146200010f57600080fd5b919050565b6000806000606084860312156200012a57600080fd5b6200013584620000f7565b9250602084015191506200014c60408501620000f7565b90509250925092565b6000602082840312156200016857600080fd5b6200017382620000f7565b9392505050565b6117de806200018a6000396000f3fe608060405234801561001057600080fd5b50600436106101165760003560e01c806370a08231116100a2578063a22cb46511610071578063a22cb46514610246578063b88d4fde14610259578063c87b56dd1461026c578063e985e9c51461027f578063ed5504431461029257600080fd5b806370a08231146101f75780638832e6e31461021857806395d89b411461022b578063a14481941461023357600080fd5b806323b872dd116100e957806323b872dd1461019857806340c10f19146101ab57806342842e0e146101be57806342966c68146101d15780636352211e146101e457600080fd5b806301ffc9a71461011b57806306fdde0314610143578063081812fc14610158578063095ea7b314610183575b600080fd5b61012e6101293660046112e6565b6102a3565b60405190151581526020015b60405180910390f35b61014b6103f2565b60405161013a9190611373565b61016b610166366004611386565b610548565b6040516001600160a01b03909116815260200161013a565b6101966101913660046113b7565b610627565b005b6101966101a63660046113e3565b610763565b6101966101b93660046113b7565b6108a8565b6101966101cc3660046113e3565b610951565b6101966101df366004611386565b610a02565b61016b6101f2366004611386565b610b34565b61020a610205366004611424565b610bd6565b60405190815260200161013a565b610196610226366004611506565b610cb5565b61014b610d59565b6101966102413660046113b7565b610e21565b61019661025436600461156d565b610eca565b6101966102673660046115a6565b610f74565b61014b61027a366004611386565b6110b3565b61012e61028d366004611612565b611199565b6002546001600160a01b031661016b565b600080546040516308b6ac0f60e31b8152600080516020611789833981519152916345b56078916102e2916001600160a01b0316908190600401611640565b600060405180830381600087803b1580156102fc57600080fd5b505af1158015610310573d6000803e3d6000fd5b50506002546040516301ffc9a760e01b81526001600160e01b0319861660048201526001600160a01b0390911692506301ffc9a79150602401602060405180830381865afa158015610366573d6000803e3d6000fd5b505050506040513d601f19601f8201168201806040525081019061038a919061165a565b90506000805160206117898339815191526001600160a01b03166390c5013b6040518163ffffffff1660e01b8152600401600060405180830381600087803b1580156103d557600080fd5b505af11580156103e9573d6000803e3d6000fd5b50505050919050565b6000546040516308b6ac0f60e31b8152606091600080516020611789833981519152916345b5607891610435916001600160a01b03909116908190600401611640565b600060405180830381600087803b15801561044f57600080fd5b505af1158015610463573d6000803e3d6000fd5b50505050600260009054906101000a90046001600160a01b03166001600160a01b03166306fdde036040518163ffffffff1660e01b8152600401600060405180830381865afa1580156104ba573d6000803e3d6000fd5b505050506040513d6000823e601f3d908101601f191682016040526104e29190810190611677565b90506000805160206117898339815191526001600160a01b03166390c5013b6040518163ffffffff1660e01b8152600401600060405180830381600087803b15801561052d57600080fd5b505af1158015610541573d6000803e3d6000fd5b5050505090565b600080546040516308b6ac0f60e31b8152600080516020611789833981519152916345b5607891610587916001600160a01b0316908190600401611640565b600060405180830381600087803b1580156105a157600080fd5b505af11580156105b5573d6000803e3d6000fd5b505060025460405163020604bf60e21b8152600481018690526001600160a01b03909116925063081812fc91506024015b602060405180830381865afa158015610603573d6000803e3d6000fd5b505050506040513d601f19601f8201168201806040525081019061038a91906116ee565b6000546040516308b6ac0f60e31b8152600080516020611789833981519152916345b5607891610665916001600160a01b0316908190600401611640565b600060405180830381600087803b15801561067f57600080fd5b505af1158015610693573d6000803e3d6000fd5b505060025460405163095ea7b360e01b81526001600160a01b03868116600483015260248201869052909116925063095ea7b391506044015b600060405180830381600087803b1580156106e657600080fd5b505af11580156106fa573d6000803e3d6000fd5b505050506000805160206117898339815191526001600160a01b03166390c5013b6040518163ffffffff1660e01b8152600401600060405180830381600087803b15801561074757600080fd5b505af115801561075b573d6000803e3d6000fd5b505050505050565b6000546040516308b6ac0f60e31b8152600080516020611789833981519152916345b56078916107a1916001600160a01b0316908190600401611640565b600060405180830381600087803b1580156107bb57600080fd5b505af11580156107cf573d6000803e3d6000fd5b50506002546040516323b872dd60e01b81526001600160a01b03878116600483015286811660248301526044820186905290911692506323b872dd91506064015b600060405180830381600087803b15801561082a57600080fd5b505af115801561083e573d6000803e3d6000fd5b505050506000805160206117898339815191526001600160a01b03166390c5013b6040518163ffffffff1660e01b8152600401600060405180830381600087803b15801561088b57600080fd5b505af115801561089f573d6000803e3d6000fd5b50505050505050565b6000546040516308b6ac0f60e31b8152600080516020611789833981519152916345b56078916108e6916001600160a01b0316908190600401611640565b600060405180830381600087803b15801561090057600080fd5b505af1158015610914573d6000803e3d6000fd5b50506002546040516340c10f1960e01b81526001600160a01b0386811660048301526024820186905290911692506340c10f1991506044016106cc565b6000546040516308b6ac0f60e31b8152600080516020611789833981519152916345b560789161098f916001600160a01b0316908190600401611640565b600060405180830381600087803b1580156109a957600080fd5b505af11580156109bd573d6000803e3d6000fd5b5050600254604051632142170760e11b81526001600160a01b03878116600483015286811660248301526044820186905290911692506342842e0e9150606401610810565b6000546040516308b6ac0f60e31b8152600080516020611789833981519152916345b5607891610a40916001600160a01b0316908190600401611640565b600060405180830381600087803b158015610a5a57600080fd5b505af1158015610a6e573d6000803e3d6000fd5b5050600254604051630852cd8d60e31b8152600481018590526001600160a01b0390911692506342966c689150602401600060405180830381600087803b158015610ab857600080fd5b505af1158015610acc573d6000803e3d6000fd5b505050506000805160206117898339815191526001600160a01b03166390c5013b6040518163ffffffff1660e01b8152600401600060405180830381600087803b158015610b1957600080fd5b505af1158015610b2d573d6000803e3d6000fd5b5050505050565b600080546040516308b6ac0f60e31b8152600080516020611789833981519152916345b5607891610b73916001600160a01b0316908190600401611640565b600060405180830381600087803b158015610b8d57600080fd5b505af1158015610ba1573d6000803e3d6000fd5b50506002546040516331a9108f60e11b8152600481018690526001600160a01b039091169250636352211e91506024016105e6565b600080546040516308b6ac0f60e31b8152600080516020611789833981519152916345b5607891610c15916001600160a01b0316908190600401611640565b600060405180830381600087803b158015610c2f57600080fd5b505af1158015610c43573d6000803e3d6000fd5b50506002546040516370a0823160e01b81526001600160a01b03868116600483015290911692506370a082319150602401602060405180830381865afa158015610c91573d6000803e3d6000fd5b505050506040513d601f19601f8201168201806040525081019061038a919061170b565b6000546040516308b6ac0f60e31b8152600080516020611789833981519152916345b5607891610cf3916001600160a01b0316908190600401611640565b600060405180830381600087803b158015610d0d57600080fd5b505af1158015610d21573d6000803e3d6000fd5b5050600254604051638832e6e360e01b81526001600160a01b039091169250638832e6e3915061081090869086908690600401611724565b6000546040516308b6ac0f60e31b8152606091600080516020611789833981519152916345b5607891610d9c916001600160a01b03909116908190600401611640565b600060405180830381600087803b158015610db657600080fd5b505af1158015610dca573d6000803e3d6000fd5b50505050600260009054906101000a90046001600160a01b03166001600160a01b03166395d89b416040518163ffffffff1660e01b8152600401600060405180830381865afa1580156104ba573d6000803e3d6000fd5b6000546040516308b6ac0f60e31b8152600080516020611789833981519152916345b5607891610e5f916001600160a01b0316908190600401611640565b600060405180830381600087803b158015610e7957600080fd5b505af1158015610e8d573d6000803e3d6000fd5b5050600254604051632851206560e21b81526001600160a01b03868116600483015260248201869052909116925063a144819491506044016106cc565b6000546040516308b6ac0f60e31b8152600080516020611789833981519152916345b5607891610f08916001600160a01b0316908190600401611640565b600060405180830381600087803b158015610f2257600080fd5b505af1158015610f36573d6000803e3d6000fd5b505060025460405163a22cb46560e01b81526001600160a01b0386811660048301528515156024830152909116925063a22cb46591506044016106cc565b6000546040516308b6ac0f60e31b8152600080516020611789833981519152916345b5607891610fb2916001600160a01b0316908190600401611640565b600060405180830381600087803b158015610fcc57600080fd5b505af1158015610fe0573d6000803e3d6000fd5b5050600254604051635c46a7ef60e11b81526001600160a01b03909116925063b88d4fde915061101a90879087908790879060040161174b565b600060405180830381600087803b15801561103457600080fd5b505af1158015611048573d6000803e3d6000fd5b505050506000805160206117898339815191526001600160a01b03166390c5013b6040518163ffffffff1660e01b8152600401600060405180830381600087803b15801561109557600080fd5b505af11580156110a9573d6000803e3d6000fd5b5050505050505050565b6000546040516308b6ac0f60e31b8152606091600080516020611789833981519152916345b56078916110f6916001600160a01b03909116908190600401611640565b600060405180830381600087803b15801561111057600080fd5b505af1158015611124573d6000803e3d6000fd5b505060025460405163c87b56dd60e01b8152600481018690526001600160a01b03909116925063c87b56dd9150602401600060405180830381865afa158015611171573d6000803e3d6000fd5b505050506040513d6000823e601f3d908101601f1916820160405261038a9190810190611677565b600080546040516308b6ac0f60e31b8152600080516020611789833981519152916345b56078916111d8916001600160a01b0316908190600401611640565b600060405180830381600087803b1580156111f257600080fd5b505af1158015611206573d6000803e3d6000fd5b505060025460405163e985e9c560e01b81526001600160a01b03909116925063e985e9c5915061123c9086908690600401611640565b602060405180830381865afa158015611259573d6000803e3d6000fd5b505050506040513d601f19601f8201168201806040525081019061127d919061165a565b90506000805160206117898339815191526001600160a01b03166390c5013b6040518163ffffffff1660e01b8152600401600060405180830381600087803b1580156112c857600080fd5b505af11580156112dc573d6000803e3d6000fd5b5050505092915050565b6000602082840312156112f857600080fd5b81356001600160e01b03198116811461131057600080fd5b9392505050565b60005b8381101561133257818101518382015260200161131a565b83811115611341576000848401525b50505050565b6000815180845261135f816020860160208601611317565b601f01601f19169290920160200192915050565b6020815260006113106020830184611347565b60006020828403121561139857600080fd5b5035919050565b6001600160a01b03811681146113b457600080fd5b50565b600080604083850312156113ca57600080fd5b82356113d58161139f565b946020939093013593505050565b6000806000606084860312156113f857600080fd5b83356114038161139f565b925060208401356114138161139f565b929592945050506040919091013590565b60006020828403121561143657600080fd5b81356113108161139f565b634e487b7160e01b600052604160045260246000fd5b604051601f8201601f1916810167ffffffffffffffff8111828210171561148057611480611441565b604052919050565b600067ffffffffffffffff8211156114a2576114a2611441565b50601f01601f191660200190565b600082601f8301126114c157600080fd5b81356114d46114cf82611488565b611457565b8181528460208386010111156114e957600080fd5b816020850160208301376000918101602001919091529392505050565b60008060006060848603121561151b57600080fd5b83356115268161139f565b925060208401359150604084013567ffffffffffffffff81111561154957600080fd5b611555868287016114b0565b9150509250925092565b80151581146113b457600080fd5b6000806040838503121561158057600080fd5b823561158b8161139f565b9150602083013561159b8161155f565b809150509250929050565b600080600080608085870312156115bc57600080fd5b84356115c78161139f565b935060208501356115d78161139f565b925060408501359150606085013567ffffffffffffffff8111156115fa57600080fd5b611606878288016114b0565b91505092959194509250565b6000806040838503121561162557600080fd5b82356116308161139f565b9150602083013561159b8161139f565b6001600160a01b0392831681529116602082015260400190565b60006020828403121561166c57600080fd5b81516113108161155f565b60006020828403121561168957600080fd5b815167ffffffffffffffff8111156116a057600080fd5b8201601f810184136116b157600080fd5b80516116bf6114cf82611488565b8181528560208385010111156116d457600080fd5b6116e5826020830160208601611317565b95945050505050565b60006020828403121561170057600080fd5b81516113108161139f565b60006020828403121561171d57600080fd5b5051919050565b60018060a01b03841681528260208201526060604082015260006116e56060830184611347565b6001600160a01b038581168252841660208201526040810183905260806060820181905260009061177e90830184611347565b969550505050505056fe0000000000000000000000007109709ecfa91a80626ff3989d68f67f5b1dd12da26469706673582212208d44ba8eb55b9fa3186451f562f350b879fc78a7d6e1cb8b758e674f2c42fe8564736f6c634300080d0033",
    "linkReferences": {}
  },
  "methodIdentifiers": {
    "approve(address,uint256)": "095ea7b3",
    "balanceOf(address)": "70a08231",
    "burn(uint256)": "42966c68",
    "getApproved(uint256)": "081812fc",
    "isApprovedForAll(address,address)": "e985e9c5",
    "mint(address,uint256)": "40c10f19",
    "name()": "06fdde03",
    "ownerOf(uint256)": "6352211e",
    "proxyContract()": "ed550443",
    "safeMint(address,uint256)": "a1448194",
    "safeMint(address,uint256,bytes)": "8832e6e3",
    "safeTransferFrom(address,address,uint256)": "42842e0e",
    "safeTransferFrom(address,address,uint256,bytes)": "b88d4fde",
    "setApprovalForAll(address,bool)": "a22cb465",
    "supportsInterface(bytes4)": "01ffc9a7",
    "symbol()": "95d89b41",
    "tokenURI(uint256)": "c87b56dd",
    "transferFrom(address,address,uint256)": "23b872dd"
  },
  "id": 97
}