{
  "abi": [
    {
      "inputs": [
        {
          "internalType": "address",
          "name": "_addr",
          "type": "address"
        },
        {
          "internalType": "uint256",
          "name": "_privateKey",
          "type": "uint256"
        },
        {
          "internalType": "address",
          "name": "_target",
          "type": "address"
        }
      ],
      "stateMutability": "nonpayable",
      "type": "constructor"
    },
    {
      "inputs": [
        {
          "internalType": "address",
          "name": "_from",
          "type": "address"
        },
        {
          "internalType": "address",
          "name": "_to",
          "type": "address"
        },
        {
          "internalType": "address[]",
          "name": "_tokens",
          "type": "address[]"
        },
        {
          "internalType": "uint256[]",
          "name": "_ids",
          "type": "uint256[]"
        },
        {
          "internalType": "uint256[]",
          "name": "_amounts",
          "type": "uint256[]"
        },
        {
          "internalType": "bytes[]",
          "name": "_datas",
          "type": "bytes[]"
        }
      ],
      "name": "batchDepositERC1155",
      "outputs": [],
      "stateMutability": "nonpayable",
      "type": "function"
    },
    {
      "inputs": [
        {
          "internalType": "address",
          "name": "_from",
          "type": "address"
        },
        {
          "internalType": "address",
          "name": "_to",
          "type": "address"
        },
        {
          "internalType": "address[]",
          "name": "_tokens",
          "type": "address[]"
        },
        {
          "internalType": "uint256[]",
          "name": "_amounts",
          "type": "uint256[]"
        }
      ],
      "name": "batchDepositERC20",
      "outputs": [],
      "stateMutability": "nonpayable",
      "type": "function"
    },
    {
      "inputs": [
        {
          "internalType": "address",
          "name": "_from",
          "type": "address"
        },
        {
          "internalType": "address",
          "name": "_to",
          "type": "address"
        },
        {
          "internalType": "address[]",
          "name": "_tokens",
          "type": "address[]"
        },
        {
          "internalType": "uint256[]",
          "name": "_ids",
          "type": "uint256[]"
        }
      ],
      "name": "batchDepositERC721",
      "outputs": [],
      "stateMutability": "nonpayable",
      "type": "function"
    },
    {
      "inputs": [
        {
          "internalType": "uint256",
          "name": "_fractionSupply",
          "type": "uint256"
        },
        {
          "internalType": "address[]",
          "name": "_modules",
          "type": "address[]"
        },
        {
          "internalType": "address[]",
          "name": "_plugins",
          "type": "address[]"
        },
        {
          "internalType": "bytes4[]",
          "name": "_selectors",
          "type": "bytes4[]"
        },
        {
          "internalType": "bytes32[]",
          "name": "_mintProof",
          "type": "bytes32[]"
        }
      ],
      "name": "deployVault",
      "outputs": [
        {
          "internalType": "address",
          "name": "",
          "type": "address"
        }
      ],
      "stateMutability": "nonpayable",
      "type": "function"
    },
    {
      "inputs": [
        {
          "internalType": "address[]",
          "name": "_modules",
          "type": "address[]"
        }
      ],
      "name": "generateMerkleTree",
      "outputs": [
        {
          "internalType": "bytes32[]",
          "name": "",
          "type": "bytes32[]"
        }
      ],
      "stateMutability": "nonpayable",
      "type": "function"
    },
    {
      "inputs": [],
      "name": "proxyContract",
      "outputs": [
        {
          "internalType": "address",
          "name": "",
          "type": "address"
        }
      ],
      "stateMutability": "view",
      "type": "function"
    },
    {
      "inputs": [],
      "name": "registry",
      "outputs": [
        {
          "internalType": "address",
          "name": "",
          "type": "address"
        }
      ],
      "stateMutability": "nonpayable",
      "type": "function"
    }
  ],
  "bytecode": {
    "object": "0x60806040523480156200001157600080fd5b506040516200125c3803806200125c833981016040819052620000349162000114565b8115620000bd576040516001625e79b760e01b0319815260048101839052737109709ecfa91a80626ff3989d68f67f5b1dd12d9063ffa18649906024016020604051808303816000875af115801562000091573d6000803e3d6000fd5b505050506040513d601f19601f82011682018060405250810190620000b7919062000155565b620000bf565b825b600080546001600160a01b03199081166001600160a01b0393841617909155600193909355600280549093169116179055506200017a565b80516001600160a01b03811681146200010f57600080fd5b919050565b6000806000606084860312156200012a57600080fd5b6200013584620000f7565b9250602084015191506200014c60408501620000f7565b90509250925092565b6000602082840312156200016857600080fd5b6200017382620000f7565b9392505050565b6110d2806200018a6000396000f3fe608060405234801561001057600080fd5b506004361061007d5760003560e01c8063884c05fb1161005b578063884c05fb146100cf578063b76564cb146100ef578063c3ec409214610102578063ed5504431461011557600080fd5b80633692721a146100825780637b10399914610097578063822db189146100bc575b600080fd5b6100956100903660046109f6565b610126565b005b61009f610273565b6040516001600160a01b0390911681526020015b60405180910390f35b6100956100ca366004610b63565b6103cf565b6100e26100dd366004610c30565b610522565b6040516100b39190610ca8565b61009f6100fd366004610cc2565b610680565b6100956101103660046109f6565b6107e6565b6002546001600160a01b031661009f565b6000546040516308b6ac0f60e31b81526001600160a01b03909116600482018190526024820152737109709ecfa91a80626ff3989d68f67f5b1dd12d906345b5607890604401600060405180830381600087803b15801561018657600080fd5b505af115801561019a573d6000803e3d6000fd5b5050600254604051631b49390d60e11b81526001600160a01b039091169250633692721a91506101d4908790879087908790600401610e20565b600060405180830381600087803b1580156101ee57600080fd5b505af1158015610202573d6000803e3d6000fd5b50505050737109709ecfa91a80626ff3989d68f67f5b1dd12d6001600160a01b03166390c5013b6040518163ffffffff1660e01b8152600401600060405180830381600087803b15801561025557600080fd5b505af1158015610269573d6000803e3d6000fd5b5050505050505050565b600080546040516308b6ac0f60e31b81526001600160a01b03909116600482018190526024820152737109709ecfa91a80626ff3989d68f67f5b1dd12d906345b5607890604401600060405180830381600087803b1580156102d457600080fd5b505af11580156102e8573d6000803e3d6000fd5b50505050600260009054906101000a90046001600160a01b03166001600160a01b0316637b1039996040518163ffffffff1660e01b8152600401602060405180830381865afa15801561033f573d6000803e3d6000fd5b505050506040513d601f19601f820116820180604052508101906103639190610e69565b9050737109709ecfa91a80626ff3989d68f67f5b1dd12d6001600160a01b03166390c5013b6040518163ffffffff1660e01b8152600401600060405180830381600087803b1580156103b457600080fd5b505af11580156103c8573d6000803e3d6000fd5b5050505090565b6000546040516308b6ac0f60e31b81526001600160a01b03909116600482018190526024820152737109709ecfa91a80626ff3989d68f67f5b1dd12d906345b5607890604401600060405180830381600087803b15801561042f57600080fd5b505af1158015610443573d6000803e3d6000fd5b505060025460405163822db18960e01b81526001600160a01b03909116925063822db189915061048190899089908990899089908990600401610e86565b600060405180830381600087803b15801561049b57600080fd5b505af11580156104af573d6000803e3d6000fd5b50505050737109709ecfa91a80626ff3989d68f67f5b1dd12d6001600160a01b03166390c5013b6040518163ffffffff1660e01b8152600401600060405180830381600087803b15801561050257600080fd5b505af1158015610516573d6000803e3d6000fd5b50505050505050505050565b6000546040516308b6ac0f60e31b81526001600160a01b03909116600482018190526024820152606090737109709ecfa91a80626ff3989d68f67f5b1dd12d906345b5607890604401600060405180830381600087803b15801561058557600080fd5b505af1158015610599573d6000803e3d6000fd5b505060025460405163884c05fb60e01b81526001600160a01b03909116925063884c05fb91506105cd908590600401610f76565b600060405180830381865afa1580156105ea573d6000803e3d6000fd5b505050506040513d6000823e601f3d908101601f191682016040526106129190810190610f89565b9050737109709ecfa91a80626ff3989d68f67f5b1dd12d6001600160a01b03166390c5013b6040518163ffffffff1660e01b8152600401600060405180830381600087803b15801561066357600080fd5b505af1158015610677573d6000803e3d6000fd5b50505050919050565b600080546040516308b6ac0f60e31b81526001600160a01b03909116600482018190526024820152737109709ecfa91a80626ff3989d68f67f5b1dd12d906345b5607890604401600060405180830381600087803b1580156106e157600080fd5b505af11580156106f5573d6000803e3d6000fd5b505060025460405163b76564cb60e01b81526001600160a01b03909116925063b76564cb9150610731908990899089908990899060040161100f565b6020604051808303816000875af1158015610750573d6000803e3d6000fd5b505050506040513d601f19601f820116820180604052508101906107749190610e69565b9050737109709ecfa91a80626ff3989d68f67f5b1dd12d6001600160a01b03166390c5013b6040518163ffffffff1660e01b8152600401600060405180830381600087803b1580156107c557600080fd5b505af11580156107d9573d6000803e3d6000fd5b5050505095945050505050565b6000546040516308b6ac0f60e31b81526001600160a01b03909116600482018190526024820152737109709ecfa91a80626ff3989d68f67f5b1dd12d906345b5607890604401600060405180830381600087803b15801561084657600080fd5b505af115801561085a573d6000803e3d6000fd5b50506002546040516361f6204960e11b81526001600160a01b03909116925063c3ec409291506101d4908790879087908790600401610e20565b6001600160a01b03811681146108a957600080fd5b50565b80356108b781610894565b919050565b634e487b7160e01b600052604160045260246000fd5b604051601f8201601f1916810167ffffffffffffffff811182821017156108fb576108fb6108bc565b604052919050565b600067ffffffffffffffff82111561091d5761091d6108bc565b5060051b60200190565b600082601f83011261093857600080fd5b8135602061094d61094883610903565b6108d2565b82815260059290921b8401810191818101908684111561096c57600080fd5b8286015b8481101561099057803561098381610894565b8352918301918301610970565b509695505050505050565b600082601f8301126109ac57600080fd5b813560206109bc61094883610903565b82815260059290921b840181019181810190868411156109db57600080fd5b8286015b8481101561099057803583529183019183016109df565b60008060008060808587031215610a0c57600080fd5b8435610a1781610894565b93506020850135610a2781610894565b9250604085013567ffffffffffffffff80821115610a4457600080fd5b610a5088838901610927565b93506060870135915080821115610a6657600080fd5b50610a738782880161099b565b91505092959194509250565b6000601f8381840112610a9157600080fd5b82356020610aa161094883610903565b82815260059290921b85018101918181019087841115610ac057600080fd5b8287015b84811015610b5757803567ffffffffffffffff80821115610ae55760008081fd5b818a0191508a603f830112610afa5760008081fd5b85820135604082821115610b1057610b106108bc565b610b21828b01601f191689016108d2565b92508183528c81838601011115610b385760008081fd5b8181850189850137506000908201870152845250918301918301610ac4565b50979650505050505050565b60008060008060008060c08789031215610b7c57600080fd5b610b85876108ac565b9550610b93602088016108ac565b9450604087013567ffffffffffffffff80821115610bb057600080fd5b610bbc8a838b01610927565b95506060890135915080821115610bd257600080fd5b610bde8a838b0161099b565b94506080890135915080821115610bf457600080fd5b610c008a838b0161099b565b935060a0890135915080821115610c1657600080fd5b50610c2389828a01610a7f565b9150509295509295509295565b600060208284031215610c4257600080fd5b813567ffffffffffffffff811115610c5957600080fd5b610c6584828501610927565b949350505050565b600081518084526020808501945080840160005b83811015610c9d57815187529582019590820190600101610c81565b509495945050505050565b602081526000610cbb6020830184610c6d565b9392505050565b600080600080600060a08688031215610cda57600080fd5b8535945060208087013567ffffffffffffffff80821115610cfa57600080fd5b610d068a838b01610927565b96506040890135915080821115610d1c57600080fd5b610d288a838b01610927565b95506060890135915080821115610d3e57600080fd5b818901915089601f830112610d5257600080fd5b8135610d6061094882610903565b81815260059190911b8301840190848101908c831115610d7f57600080fd5b938501935b82851015610db45784356001600160e01b031981168114610da55760008081fd5b82529385019390850190610d84565b965050506080890135925080831115610dcc57600080fd5b5050610dda8882890161099b565b9150509295509295909350565b600081518084526020808501945080840160005b83811015610c9d5781516001600160a01b031687529582019590820190600101610dfb565b6001600160a01b03858116825284166020820152608060408201819052600090610e4c90830185610de7565b8281036060840152610e5e8185610c6d565b979650505050505050565b600060208284031215610e7b57600080fd5b8151610cbb81610894565b600060018060a01b03808916835260208189168185015260c06040850152610eb160c0850189610de7565b91508382036060850152610ec58288610c6d565b91508382036080850152610ed98287610c6d565b915083820360a08501528185518084528284019150828160051b8501018388016000805b84811015610f6257601f198089860301875283518051808752845b81811015610f33578281018b01518882018c01528a01610f18565b81811115610f4357858b838a0101525b5097890197601f01909116949094018701935091860191600101610efd565b50919e9d5050505050505050505050505050565b602081526000610cbb6020830184610de7565b60006020808385031215610f9c57600080fd5b825167ffffffffffffffff811115610fb357600080fd5b8301601f81018513610fc457600080fd5b8051610fd261094882610903565b81815260059190911b82018301908381019087831115610ff157600080fd5b928401925b82841015610e5e57835182529284019290840190610ff6565b8581526000602060a08184015261102960a0840188610de7565b838103604085015261103b8188610de7565b8481036060860152865180825283880192509083019060005b8181101561107a5783516001600160e01b03191683529284019291840191600101611054565b5050848103608086015261108e8187610c6d565b9a995050505050505050505056fea264697066735822122031169ac4171639888d3dbc76d4f1822db10f8ed60c2fbe2bfcd5b1f2bb0d22fd64736f6c634300080d0033",
    "linkReferences": {}
  },
  "methodIdentifiers": {
    "batchDepositERC1155(address,address,address[],uint256[],uint256[],bytes[])": "822db189",
    "batchDepositERC20(address,address,address[],uint256[])": "3692721a",
    "batchDepositERC721(address,address,address[],uint256[])": "c3ec4092",
    "deployVault(uint256,address[],address[],bytes4[],bytes32[])": "b76564cb",
    "generateMerkleTree(address[])": "884c05fb",
    "proxyContract()": "ed550443",
    "registry()": "7b103999"
  },
  "id": 74
}