{
  "_format": "hh-sol-artifact-1",
  "contractName": "MockERC1155",
  "sourceName": "src/mocks/MockERC1155.sol",
  "abi": [
    {
      "anonymous": false,
      "inputs": [
        {
          "indexed": true,
          "internalType": "address",
          "name": "owner",
          "type": "address"
        },
        {
          "indexed": true,
          "internalType": "address",
          "name": "operator",
          "type": "address"
        },
        {
          "indexed": false,
          "internalType": "bool",
          "name": "approved",
          "type": "bool"
        }
      ],
      "name": "ApprovalForAll",
      "type": "event"
    },
    {
      "anonymous": false,
      "inputs": [
        {
          "indexed": true,
          "internalType": "address",
          "name": "operator",
          "type": "address"
        },
        {
          "indexed": true,
          "internalType": "address",
          "name": "from",
          "type": "address"
        },
        {
          "indexed": true,
          "internalType": "address",
          "name": "to",
          "type": "address"
        },
        {
          "indexed": false,
          "internalType": "uint256[]",
          "name": "ids",
          "type": "uint256[]"
        },
        {
          "indexed": false,
          "internalType": "uint256[]",
          "name": "amounts",
          "type": "uint256[]"
        }
      ],
      "name": "TransferBatch",
      "type": "event"
    },
    {
      "anonymous": false,
      "inputs": [
        {
          "indexed": true,
          "internalType": "address",
          "name": "operator",
          "type": "address"
        },
        {
          "indexed": true,
          "internalType": "address",
          "name": "from",
          "type": "address"
        },
        {
          "indexed": true,
          "internalType": "address",
          "name": "to",
          "type": "address"
        },
        {
          "indexed": false,
          "internalType": "uint256",
          "name": "id",
          "type": "uint256"
        },
        {
          "indexed": false,
          "internalType": "uint256",
          "name": "amount",
          "type": "uint256"
        }
      ],
      "name": "TransferSingle",
      "type": "event"
    },
    {
      "anonymous": false,
      "inputs": [
        {
          "indexed": false,
          "internalType": "string",
          "name": "value",
          "type": "string"
        },
        {
          "indexed": true,
          "internalType": "uint256",
          "name": "id",
          "type": "uint256"
        }
      ],
      "name": "URI",
      "type": "event"
    },
    {
      "inputs": [
        {
          "internalType": "address",
          "name": "",
          "type": "address"
        },
        {
          "internalType": "uint256",
          "name": "",
          "type": "uint256"
        }
      ],
      "name": "balanceOf",
      "outputs": [
        {
          "internalType": "uint256",
          "name": "",
          "type": "uint256"
        }
      ],
      "stateMutability": "view",
      "type": "function"
    },
    {
      "inputs": [
        {
          "internalType": "address[]",
          "name": "owners",
          "type": "address[]"
        },
        {
          "internalType": "uint256[]",
          "name": "ids",
          "type": "uint256[]"
        }
      ],
      "name": "balanceOfBatch",
      "outputs": [
        {
          "internalType": "uint256[]",
          "name": "balances",
          "type": "uint256[]"
        }
      ],
      "stateMutability": "view",
      "type": "function"
    },
    {
      "inputs": [
        {
          "internalType": "address",
          "name": "from",
          "type": "address"
        },
        {
          "internalType": "uint256[]",
          "name": "ids",
          "type": "uint256[]"
        },
        {
          "internalType": "uint256[]",
          "name": "amounts",
          "type": "uint256[]"
        }
      ],
      "name": "batchBurn",
      "outputs": [],
      "stateMutability": "nonpayable",
      "type": "function"
    },
    {
      "inputs": [
        {
          "internalType": "address",
          "name": "to",
          "type": "address"
        },
        {
          "internalType": "uint256[]",
          "name": "ids",
          "type": "uint256[]"
        },
        {
          "internalType": "uint256[]",
          "name": "amounts",
          "type": "uint256[]"
        },
        {
          "internalType": "bytes",
          "name": "data",
          "type": "bytes"
        }
      ],
      "name": "batchMint",
      "outputs": [],
      "stateMutability": "nonpayable",
      "type": "function"
    },
    {
      "inputs": [
        {
          "internalType": "address",
          "name": "from",
          "type": "address"
        },
        {
          "internalType": "uint256",
          "name": "id",
          "type": "uint256"
        },
        {
          "internalType": "uint256",
          "name": "amount",
          "type": "uint256"
        }
      ],
      "name": "burn",
      "outputs": [],
      "stateMutability": "nonpayable",
      "type": "function"
    },
    {
      "inputs": [
        {
          "internalType": "address",
          "name": "",
          "type": "address"
        },
        {
          "internalType": "address",
          "name": "",
          "type": "address"
        }
      ],
      "name": "isApprovedForAll",
      "outputs": [
        {
          "internalType": "bool",
          "name": "",
          "type": "bool"
        }
      ],
      "stateMutability": "view",
      "type": "function"
    },
    {
      "inputs": [
        {
          "internalType": "address",
          "name": "to",
          "type": "address"
        },
        {
          "internalType": "uint256",
          "name": "id",
          "type": "uint256"
        },
        {
          "internalType": "uint256",
          "name": "amount",
          "type": "uint256"
        },
        {
          "internalType": "bytes",
          "name": "data",
          "type": "bytes"
        }
      ],
      "name": "mint",
      "outputs": [],
      "stateMutability": "nonpayable",
      "type": "function"
    },
    {
      "inputs": [
        {
          "internalType": "address",
          "name": "from",
          "type": "address"
        },
        {
          "internalType": "address",
          "name": "to",
          "type": "address"
        },
        {
          "internalType": "uint256[]",
          "name": "ids",
          "type": "uint256[]"
        },
        {
          "internalType": "uint256[]",
          "name": "amounts",
          "type": "uint256[]"
        },
        {
          "internalType": "bytes",
          "name": "data",
          "type": "bytes"
        }
      ],
      "name": "safeBatchTransferFrom",
      "outputs": [],
      "stateMutability": "nonpayable",
      "type": "function"
    },
    {
      "inputs": [
        {
          "internalType": "address",
          "name": "from",
          "type": "address"
        },
        {
          "internalType": "address",
          "name": "to",
          "type": "address"
        },
        {
          "internalType": "uint256",
          "name": "id",
          "type": "uint256"
        },
        {
          "internalType": "uint256",
          "name": "amount",
          "type": "uint256"
        },
        {
          "internalType": "bytes",
          "name": "data",
          "type": "bytes"
        }
      ],
      "name": "safeTransferFrom",
      "outputs": [],
      "stateMutability": "nonpayable",
      "type": "function"
    },
    {
      "inputs": [
        {
          "internalType": "address",
          "name": "operator",
          "type": "address"
        },
        {
          "internalType": "bool",
          "name": "approved",
          "type": "bool"
        }
      ],
      "name": "setApprovalForAll",
      "outputs": [],
      "stateMutability": "nonpayable",
      "type": "function"
    },
    {
      "inputs": [
        {
          "internalType": "bytes4",
          "name": "interfaceId",
          "type": "bytes4"
        }
      ],
      "name": "supportsInterface",
      "outputs": [
        {
          "internalType": "bool",
          "name": "",
          "type": "bool"
        }
      ],
      "stateMutability": "view",
      "type": "function"
    },
    {
      "inputs": [
        {
          "internalType": "uint256",
          "name": "",
          "type": "uint256"
        }
      ],
      "name": "uri",
      "outputs": [
        {
          "internalType": "string",
          "name": "",
          "type": "string"
        }
      ],
      "stateMutability": "pure",
      "type": "function"
    }
  ],
  "bytecode": "0x608060405234801561001057600080fd5b50611e32806100206000396000f3fe608060405234801561001057600080fd5b50600436106100d35760003560e01c8063a22cb46511610081578063f242432a1161005b578063f242432a14610200578063f5298aca14610213578063f6eb127a1461022657600080fd5b8063a22cb465146101ac578063b48ab8b6146101bf578063e985e9c5146101d257600080fd5b80632eb2c2d6116100b25780632eb2c2d6146101645780634e1273f414610179578063731133e91461019957600080fd5b8062fdd58e146100d857806301ffc9a7146101135780630e89341c14610136575b600080fd5b6101006100e63660046113c2565b600060208181529281526040808220909352908152205481565b6040519081526020015b60405180910390f35b61012661012136600461141d565b610239565b604051901515815260200161010a565b610157610144366004611441565b5060408051602081019091526000815290565b60405161010a91906114c5565b610177610172366004611566565b61031e565b005b61018c610187366004611621565b610714565b60405161010a91906116c8565b6101776101a73660046117e7565b61088b565b6101776101ba366004611848565b61089d565b6101776101cd366004611904565b610934565b6101266101e0366004611991565b600160209081526000928352604080842090915290825290205460ff1681565b61017761020e3660046119c4565b610940565b610177610221366004611a3c565b610c46565b610177610234366004611a6f565b610c56565b60007f01ffc9a7000000000000000000000000000000000000000000000000000000007fffffffff00000000000000000000000000000000000000000000000000000000831614806102cc57507fd9b67a26000000000000000000000000000000000000000000000000000000007fffffffff000000000000000000000000000000000000000000000000000000008316145b8061031857507f0e89341c000000000000000000000000000000000000000000000000000000007fffffffff000000000000000000000000000000000000000000000000000000008316145b92915050565b84831461038c576040517f08c379a000000000000000000000000000000000000000000000000000000000815260206004820152600f60248201527f4c454e4754485f4d49534d41544348000000000000000000000000000000000060448201526064015b60405180910390fd5b3373ffffffffffffffffffffffffffffffffffffffff891614806103e0575073ffffffffffffffffffffffffffffffffffffffff8816600090815260016020908152604080832033845290915290205460ff165b610446576040517f08c379a000000000000000000000000000000000000000000000000000000000815260206004820152600e60248201527f4e4f545f415554484f52495a45440000000000000000000000000000000000006044820152606401610383565b60008060005b8781101561051b5788888281811061046657610466611ae3565b90506020020135925086868281811061048157610481611ae3565b73ffffffffffffffffffffffffffffffffffffffff8e16600090815260208181526040808320898452825282208054939091029490940135955085939250906104cb908490611b41565b909155505073ffffffffffffffffffffffffffffffffffffffff8a166000908152602081815260408083208684529091528120805484929061050e908490611b58565b909155505060010161044c565b508873ffffffffffffffffffffffffffffffffffffffff168a73ffffffffffffffffffffffffffffffffffffffff163373ffffffffffffffffffffffffffffffffffffffff167f4a39dc06d4c0dbc64b70af90fd698a233a518aa5d07e595d983b8c0526c8f7fb8b8b8b8b6040516105969493929190611bbf565b60405180910390a473ffffffffffffffffffffffffffffffffffffffff89163b15610688576040517fbc197c81000000000000000000000000000000000000000000000000000000008082529073ffffffffffffffffffffffffffffffffffffffff8b169063bc197c819061061d9033908f908e908e908e908e908e908e90600401611c2f565b6020604051808303816000875af115801561063c573d6000803e3d6000fd5b505050506040513d601f19601f820116820180604052508101906106609190611ca0565b7fffffffff0000000000000000000000000000000000000000000000000000000016146106a2565b73ffffffffffffffffffffffffffffffffffffffff891615155b610708576040517f08c379a000000000000000000000000000000000000000000000000000000000815260206004820152601060248201527f554e534146455f524543495049454e54000000000000000000000000000000006044820152606401610383565b50505050505050505050565b606083821461077f576040517f08c379a000000000000000000000000000000000000000000000000000000000815260206004820152600f60248201527f4c454e4754485f4d49534d4154434800000000000000000000000000000000006044820152606401610383565b8367ffffffffffffffff811115610798576107986116db565b6040519080825280602002602001820160405280156107c1578160200160208202803683370190505b50905060005b84811015610882576000808787848181106107e4576107e4611ae3565b90506020020160208101906107f99190611cbd565b73ffffffffffffffffffffffffffffffffffffffff1673ffffffffffffffffffffffffffffffffffffffff168152602001908152602001600020600085858481811061084757610847611ae3565b9050602002013581526020019081526020016000205482828151811061086f5761086f611ae3565b60209081029190910101526001016107c7565b50949350505050565b61089784848484610c61565b50505050565b33600081815260016020908152604080832073ffffffffffffffffffffffffffffffffffffffff87168085529083529281902080547fffffffffffffffffffffffffffffffffffffffffffffffffffffffffffffff001686151590811790915590519081529192917f17307eab39ab6107e8899845ad3d59bd9653f200f220920489ca2b5937696c31910160405180910390a35050565b61089784848484610e5f565b3373ffffffffffffffffffffffffffffffffffffffff87161480610994575073ffffffffffffffffffffffffffffffffffffffff8616600090815260016020908152604080832033845290915290205460ff165b6109fa576040517f08c379a000000000000000000000000000000000000000000000000000000000815260206004820152600e60248201527f4e4f545f415554484f52495a45440000000000000000000000000000000000006044820152606401610383565b73ffffffffffffffffffffffffffffffffffffffff861660009081526020818152604080832087845290915281208054859290610a38908490611b41565b909155505073ffffffffffffffffffffffffffffffffffffffff851660009081526020818152604080832087845290915281208054859290610a7b908490611b58565b9091555050604080518581526020810185905273ffffffffffffffffffffffffffffffffffffffff808816929089169133917fc3d58168c5ae7397731d063d5bbf3d657854427343f4c083240f7aacaa2d0f62910160405180910390a473ffffffffffffffffffffffffffffffffffffffff85163b15610bbe576040517ff23a6e61000000000000000000000000000000000000000000000000000000008082529073ffffffffffffffffffffffffffffffffffffffff87169063f23a6e6190610b539033908b908a908a908a908a90600401611cd8565b6020604051808303816000875af1158015610b72573d6000803e3d6000fd5b505050506040513d601f19601f82011682018060405250810190610b969190611ca0565b7fffffffff000000000000000000000000000000000000000000000000000000001614610bd8565b73ffffffffffffffffffffffffffffffffffffffff851615155b610c3e576040517f08c379a000000000000000000000000000000000000000000000000000000000815260206004820152601060248201527f554e534146455f524543495049454e54000000000000000000000000000000006044820152606401610383565b505050505050565b610c51838383611160565b505050565b610c518383836111fe565b73ffffffffffffffffffffffffffffffffffffffff841660009081526020818152604080832086845290915281208054849290610c9f908490611b58565b9091555050604080518481526020810184905273ffffffffffffffffffffffffffffffffffffffff86169160009133917fc3d58168c5ae7397731d063d5bbf3d657854427343f4c083240f7aacaa2d0f62910160405180910390a473ffffffffffffffffffffffffffffffffffffffff84163b15610ddf576040517ff23a6e61000000000000000000000000000000000000000000000000000000008082529073ffffffffffffffffffffffffffffffffffffffff86169063f23a6e6190610d74903390600090899089908990600401611d2a565b6020604051808303816000875af1158015610d93573d6000803e3d6000fd5b505050506040513d601f19601f82011682018060405250810190610db79190611ca0565b7fffffffff000000000000000000000000000000000000000000000000000000001614610df9565b73ffffffffffffffffffffffffffffffffffffffff841615155b610897576040517f08c379a000000000000000000000000000000000000000000000000000000000815260206004820152601060248201527f554e534146455f524543495049454e54000000000000000000000000000000006044820152606401610383565b825182518114610ecb576040517f08c379a000000000000000000000000000000000000000000000000000000000815260206004820152600f60248201527f4c454e4754485f4d49534d4154434800000000000000000000000000000000006044820152606401610383565b60005b81811015610f7457838181518110610ee857610ee8611ae3565b60200260200101516000808873ffffffffffffffffffffffffffffffffffffffff1673ffffffffffffffffffffffffffffffffffffffff1681526020019081526020016000206000878481518110610f4257610f42611ae3565b602002602001015181526020019081526020016000206000828254610f679190611b58565b9091555050600101610ece565b508473ffffffffffffffffffffffffffffffffffffffff16600073ffffffffffffffffffffffffffffffffffffffff163373ffffffffffffffffffffffffffffffffffffffff167f4a39dc06d4c0dbc64b70af90fd698a233a518aa5d07e595d983b8c0526c8f7fb8787604051610fec929190611d6f565b60405180910390a473ffffffffffffffffffffffffffffffffffffffff85163b156110d9576040517fbc197c81000000000000000000000000000000000000000000000000000000008082529073ffffffffffffffffffffffffffffffffffffffff87169063bc197c819061106e9033906000908a908a908a90600401611d9d565b6020604051808303816000875af115801561108d573d6000803e3d6000fd5b505050506040513d601f19601f820116820180604052508101906110b19190611ca0565b7fffffffff0000000000000000000000000000000000000000000000000000000016146110f3565b73ffffffffffffffffffffffffffffffffffffffff851615155b611159576040517f08c379a000000000000000000000000000000000000000000000000000000000815260206004820152601060248201527f554e534146455f524543495049454e54000000000000000000000000000000006044820152606401610383565b5050505050565b73ffffffffffffffffffffffffffffffffffffffff83166000908152602081815260408083208584529091528120805483929061119e908490611b41565b9091555050604080518381526020810183905260009173ffffffffffffffffffffffffffffffffffffffff86169133917fc3d58168c5ae7397731d063d5bbf3d657854427343f4c083240f7aacaa2d0f62910160405180910390a4505050565b81518151811461126a576040517f08c379a000000000000000000000000000000000000000000000000000000000815260206004820152600f60248201527f4c454e4754485f4d49534d4154434800000000000000000000000000000000006044820152606401610383565b60005b818110156113135782818151811061128757611287611ae3565b60200260200101516000808773ffffffffffffffffffffffffffffffffffffffff1673ffffffffffffffffffffffffffffffffffffffff16815260200190815260200160002060008684815181106112e1576112e1611ae3565b6020026020010151815260200190815260200160002060008282546113069190611b41565b909155505060010161126d565b50600073ffffffffffffffffffffffffffffffffffffffff168473ffffffffffffffffffffffffffffffffffffffff163373ffffffffffffffffffffffffffffffffffffffff167f4a39dc06d4c0dbc64b70af90fd698a233a518aa5d07e595d983b8c0526c8f7fb868660405161138b929190611d6f565b60405180910390a450505050565b803573ffffffffffffffffffffffffffffffffffffffff811681146113bd57600080fd5b919050565b600080604083850312156113d557600080fd5b6113de83611399565b946020939093013593505050565b7fffffffff000000000000000000000000000000000000000000000000000000008116811461141a57600080fd5b50565b60006020828403121561142f57600080fd5b813561143a816113ec565b9392505050565b60006020828403121561145357600080fd5b5035919050565b6000815180845260005b8181101561148057602081850181015186830182015201611464565b81811115611492576000602083870101525b50601f017fffffffffffffffffffffffffffffffffffffffffffffffffffffffffffffffe0169290920160200192915050565b60208152600061143a602083018461145a565b60008083601f8401126114ea57600080fd5b50813567ffffffffffffffff81111561150257600080fd5b6020830191508360208260051b850101111561151d57600080fd5b9250929050565b60008083601f84011261153657600080fd5b50813567ffffffffffffffff81111561154e57600080fd5b60208301915083602082850101111561151d57600080fd5b60008060008060008060008060a0898b03121561158257600080fd5b61158b89611399565b975061159960208a01611399565b9650604089013567ffffffffffffffff808211156115b657600080fd5b6115c28c838d016114d8565b909850965060608b01359150808211156115db57600080fd5b6115e78c838d016114d8565b909650945060808b013591508082111561160057600080fd5b5061160d8b828c01611524565b999c989b5096995094979396929594505050565b6000806000806040858703121561163757600080fd5b843567ffffffffffffffff8082111561164f57600080fd5b61165b888389016114d8565b9096509450602087013591508082111561167457600080fd5b50611681878288016114d8565b95989497509550505050565b600081518084526020808501945080840160005b838110156116bd578151875295820195908201906001016116a1565b509495945050505050565b60208152600061143a602083018461168d565b7f4e487b7100000000000000000000000000000000000000000000000000000000600052604160045260246000fd5b604051601f82017fffffffffffffffffffffffffffffffffffffffffffffffffffffffffffffffe016810167ffffffffffffffff81118282101715611751576117516116db565b604052919050565b600082601f83011261176a57600080fd5b813567ffffffffffffffff811115611784576117846116db565b6117b560207fffffffffffffffffffffffffffffffffffffffffffffffffffffffffffffffe0601f8401160161170a565b8181528460208386010111156117ca57600080fd5b816020850160208301376000918101602001919091529392505050565b600080600080608085870312156117fd57600080fd5b61180685611399565b93506020850135925060408501359150606085013567ffffffffffffffff81111561183057600080fd5b61183c87828801611759565b91505092959194509250565b6000806040838503121561185b57600080fd5b61186483611399565b91506020830135801515811461187957600080fd5b809150509250929050565b600082601f83011261189557600080fd5b8135602067ffffffffffffffff8211156118b1576118b16116db565b8160051b6118c082820161170a565b92835284810182019282810190878511156118da57600080fd5b83870192505b848310156118f9578235825291830191908301906118e0565b979650505050505050565b6000806000806080858703121561191a57600080fd5b61192385611399565b9350602085013567ffffffffffffffff8082111561194057600080fd5b61194c88838901611884565b9450604087013591508082111561196257600080fd5b61196e88838901611884565b9350606087013591508082111561198457600080fd5b5061183c87828801611759565b600080604083850312156119a457600080fd5b6119ad83611399565b91506119bb60208401611399565b90509250929050565b60008060008060008060a087890312156119dd57600080fd5b6119e687611399565b95506119f460208801611399565b94506040870135935060608701359250608087013567ffffffffffffffff811115611a1e57600080fd5b611a2a89828a01611524565b979a9699509497509295939492505050565b600080600060608486031215611a5157600080fd5b611a5a84611399565b95602085013595506040909401359392505050565b600080600060608486031215611a8457600080fd5b611a8d84611399565b9250602084013567ffffffffffffffff80821115611aaa57600080fd5b611ab687838801611884565b93506040860135915080821115611acc57600080fd5b50611ad986828701611884565b9150509250925092565b7f4e487b7100000000000000000000000000000000000000000000000000000000600052603260045260246000fd5b7f4e487b7100000000000000000000000000000000000000000000000000000000600052601160045260246000fd5b600082821015611b5357611b53611b12565b500390565b60008219821115611b6b57611b6b611b12565b500190565b81835260007f07ffffffffffffffffffffffffffffffffffffffffffffffffffffffffffffff831115611ba257600080fd5b8260051b8083602087013760009401602001938452509192915050565b604081526000611bd3604083018688611b70565b82810360208401526118f9818587611b70565b8183528181602085013750600060208284010152600060207fffffffffffffffffffffffffffffffffffffffffffffffffffffffffffffffe0601f840116840101905092915050565b600073ffffffffffffffffffffffffffffffffffffffff808b168352808a1660208401525060a06040830152611c6960a08301888a611b70565b8281036060840152611c7c818789611b70565b90508281036080840152611c91818587611be6565b9b9a5050505050505050505050565b600060208284031215611cb257600080fd5b815161143a816113ec565b600060208284031215611ccf57600080fd5b61143a82611399565b600073ffffffffffffffffffffffffffffffffffffffff808916835280881660208401525085604083015284606083015260a06080830152611d1e60a083018486611be6565b98975050505050505050565b600073ffffffffffffffffffffffffffffffffffffffff808816835280871660208401525084604083015283606083015260a060808301526118f960a083018461145a565b604081526000611d82604083018561168d565b8281036020840152611d94818561168d565b95945050505050565b600073ffffffffffffffffffffffffffffffffffffffff808816835280871660208401525060a06040830152611dd660a083018661168d565b8281036060840152611de8818661168d565b90508281036080840152611d1e818561145a56fea26469706673582212202d3260adcde7795697c136391ddca51952bb7446eaf7f94b62b0689ee3f143b264736f6c634300080d0033",
  "linkReferences": {},
  "deployedLinkReferences": {}
}