{
  "abi": [
    {
      "inputs": [
        {
          "internalType": "address",
          "name": "_addr",
          "type": "address"
        },
        {
          "internalType": "uint256",
          "name": "_privateKey",
          "type": "uint256"
        },
        {
          "internalType": "address",
          "name": "_target",
          "type": "address"
        }
      ],
      "stateMutability": "nonpayable",
      "type": "constructor"
    },
    {
      "inputs": [
        {
          "internalType": "address",
          "name": "_spender",
          "type": "address"
        },
        {
          "internalType": "uint256",
          "name": "_id",
          "type": "uint256"
        }
      ],
      "name": "approve",
      "outputs": [],
      "stateMutability": "nonpayable",
      "type": "function"
    },
    {
      "inputs": [
        {
          "internalType": "address",
          "name": "_owner",
          "type": "address"
        }
      ],
      "name": "balanceOf",
      "outputs": [
        {
          "internalType": "uint256",
          "name": "",
          "type": "uint256"
        }
      ],
      "stateMutability": "nonpayable",
      "type": "function"
    },
    {
      "inputs": [
        {
          "internalType": "uint256",
          "name": "arg0",
          "type": "uint256"
        }
      ],
      "name": "getApproved",
      "outputs": [
        {
          "internalType": "address",
          "name": "",
          "type": "address"
        }
      ],
      "stateMutability": "nonpayable",
      "type": "function"
    },
    {
      "inputs": [
        {
          "internalType": "address",
          "name": "arg0",
          "type": "address"
        },
        {
          "internalType": "address",
          "name": "arg1",
          "type": "address"
        }
      ],
      "name": "isApprovedForAll",
      "outputs": [
        {
          "internalType": "bool",
          "name": "",
          "type": "bool"
        }
      ],
      "stateMutability": "nonpayable",
      "type": "function"
    },
    {
      "inputs": [],
      "name": "name",
      "outputs": [
        {
          "internalType": "string",
          "name": "",
          "type": "string"
        }
      ],
      "stateMutability": "nonpayable",
      "type": "function"
    },
    {
      "inputs": [
        {
          "internalType": "uint256",
          "name": "_id",
          "type": "uint256"
        }
      ],
      "name": "ownerOf",
      "outputs": [
        {
          "internalType": "address",
          "name": "",
          "type": "address"
        }
      ],
      "stateMutability": "nonpayable",
      "type": "function"
    },
    {
      "inputs": [],
      "name": "proxyContract",
      "outputs": [
        {
          "internalType": "address",
          "name": "",
          "type": "address"
        }
      ],
      "stateMutability": "view",
      "type": "function"
    },
    {
      "inputs": [
        {
          "internalType": "address",
          "name": "_from",
          "type": "address"
        },
        {
          "internalType": "address",
          "name": "_to",
          "type": "address"
        },
        {
          "internalType": "uint256",
          "name": "_id",
          "type": "uint256"
        }
      ],
      "name": "safeTransferFrom",
      "outputs": [],
      "stateMutability": "nonpayable",
      "type": "function"
    },
    {
      "inputs": [
        {
          "internalType": "address",
          "name": "_from",
          "type": "address"
        },
        {
          "internalType": "address",
          "name": "_to",
          "type": "address"
        },
        {
          "internalType": "uint256",
          "name": "_id",
          "type": "uint256"
        },
        {
          "internalType": "bytes",
          "name": "_data",
          "type": "bytes"
        }
      ],
      "name": "safeTransferFrom",
      "outputs": [],
      "stateMutability": "nonpayable",
      "type": "function"
    },
    {
      "inputs": [
        {
          "internalType": "address",
          "name": "_operator",
          "type": "address"
        },
        {
          "internalType": "bool",
          "name": "_approved",
          "type": "bool"
        }
      ],
      "name": "setApprovalForAll",
      "outputs": [],
      "stateMutability": "nonpayable",
      "type": "function"
    },
    {
      "inputs": [
        {
          "internalType": "bytes4",
          "name": "_interfaceId",
          "type": "bytes4"
        }
      ],
      "name": "supportsInterface",
      "outputs": [
        {
          "internalType": "bool",
          "name": "",
          "type": "bool"
        }
      ],
      "stateMutability": "nonpayable",
      "type": "function"
    },
    {
      "inputs": [],
      "name": "symbol",
      "outputs": [
        {
          "internalType": "string",
          "name": "",
          "type": "string"
        }
      ],
      "stateMutability": "nonpayable",
      "type": "function"
    },
    {
      "inputs": [
        {
          "internalType": "uint256",
          "name": "_id",
          "type": "uint256"
        }
      ],
      "name": "tokenURI",
      "outputs": [
        {
          "internalType": "string",
          "name": "",
          "type": "string"
        }
      ],
      "stateMutability": "nonpayable",
      "type": "function"
    },
    {
      "inputs": [
        {
          "internalType": "address",
          "name": "_from",
          "type": "address"
        },
        {
          "internalType": "address",
          "name": "_to",
          "type": "address"
        },
        {
          "internalType": "uint256",
          "name": "_id",
          "type": "uint256"
        }
      ],
      "name": "transferFrom",
      "outputs": [],
      "stateMutability": "nonpayable",
      "type": "function"
    }
  ],
  "bytecode": {
    "object": "0x60806040523480156200001157600080fd5b506040516200153538038062001535833981016040819052620000349162000114565b8115620000bd576040516001625e79b760e01b0319815260048101839052737109709ecfa91a80626ff3989d68f67f5b1dd12d9063ffa18649906024016020604051808303816000875af115801562000091573d6000803e3d6000fd5b505050506040513d601f19601f82011682018060405250810190620000b7919062000155565b620000bf565b825b600080546001600160a01b03199081166001600160a01b0393841617909155600193909355600280549093169116179055506200017a565b80516001600160a01b03811681146200010f57600080fd5b919050565b6000806000606084860312156200012a57600080fd5b6200013584620000f7565b9250602084015191506200014c60408501620000f7565b90509250925092565b6000602082840312156200016857600080fd5b6200017382620000f7565b9392505050565b6113ab806200018a6000396000f3fe608060405234801561001057600080fd5b50600436106100ea5760003560e01c806370a082311161008c578063b88d4fde11610066578063b88d4fde146101e1578063c87b56dd146101f4578063e985e9c514610207578063ed5504431461021a57600080fd5b806370a08231146101a557806395d89b41146101c6578063a22cb465146101ce57600080fd5b8063095ea7b3116100c8578063095ea7b31461015757806323b872dd1461016c57806342842e0e1461017f5780636352211e1461019257600080fd5b806301ffc9a7146100ef57806306fdde0314610117578063081812fc1461012c575b600080fd5b6101026100fd366004610f46565b61022b565b60405190151581526020015b60405180910390f35b61011f61037a565b60405161010e9190610fd3565b61013f61013a366004610fe6565b6104d0565b6040516001600160a01b03909116815260200161010e565b61016a610165366004611017565b6105af565b005b61016a61017a366004611043565b6106eb565b61016a61018d366004611043565b610830565b61013f6101a0366004610fe6565b6108e1565b6101b86101b3366004611084565b610983565b60405190815260200161010e565b61011f610a62565b61016a6101dc3660046110af565b610b2a565b61016a6101ef366004611157565b610bd4565b61011f610202366004610fe6565b610d13565b610102610215366004611206565b610df9565b6002546001600160a01b031661013f565b600080546040516308b6ac0f60e31b8152600080516020611356833981519152916345b560789161026a916001600160a01b0316908190600401611234565b600060405180830381600087803b15801561028457600080fd5b505af1158015610298573d6000803e3d6000fd5b50506002546040516301ffc9a760e01b81526001600160e01b0319861660048201526001600160a01b0390911692506301ffc9a79150602401602060405180830381865afa1580156102ee573d6000803e3d6000fd5b505050506040513d601f19601f82011682018060405250810190610312919061124e565b90506000805160206113568339815191526001600160a01b03166390c5013b6040518163ffffffff1660e01b8152600401600060405180830381600087803b15801561035d57600080fd5b505af1158015610371573d6000803e3d6000fd5b50505050919050565b6000546040516308b6ac0f60e31b8152606091600080516020611356833981519152916345b56078916103bd916001600160a01b03909116908190600401611234565b600060405180830381600087803b1580156103d757600080fd5b505af11580156103eb573d6000803e3d6000fd5b50505050600260009054906101000a90046001600160a01b03166001600160a01b03166306fdde036040518163ffffffff1660e01b8152600401600060405180830381865afa158015610442573d6000803e3d6000fd5b505050506040513d6000823e601f3d908101601f1916820160405261046a919081019061126b565b90506000805160206113568339815191526001600160a01b03166390c5013b6040518163ffffffff1660e01b8152600401600060405180830381600087803b1580156104b557600080fd5b505af11580156104c9573d6000803e3d6000fd5b5050505090565b600080546040516308b6ac0f60e31b8152600080516020611356833981519152916345b560789161050f916001600160a01b0316908190600401611234565b600060405180830381600087803b15801561052957600080fd5b505af115801561053d573d6000803e3d6000fd5b505060025460405163020604bf60e21b8152600481018690526001600160a01b03909116925063081812fc91506024015b602060405180830381865afa15801561058b573d6000803e3d6000fd5b505050506040513d601f19601f8201168201806040525081019061031291906112e2565b6000546040516308b6ac0f60e31b8152600080516020611356833981519152916345b56078916105ed916001600160a01b0316908190600401611234565b600060405180830381600087803b15801561060757600080fd5b505af115801561061b573d6000803e3d6000fd5b505060025460405163095ea7b360e01b81526001600160a01b03868116600483015260248201869052909116925063095ea7b391506044015b600060405180830381600087803b15801561066e57600080fd5b505af1158015610682573d6000803e3d6000fd5b505050506000805160206113568339815191526001600160a01b03166390c5013b6040518163ffffffff1660e01b8152600401600060405180830381600087803b1580156106cf57600080fd5b505af11580156106e3573d6000803e3d6000fd5b505050505050565b6000546040516308b6ac0f60e31b8152600080516020611356833981519152916345b5607891610729916001600160a01b0316908190600401611234565b600060405180830381600087803b15801561074357600080fd5b505af1158015610757573d6000803e3d6000fd5b50506002546040516323b872dd60e01b81526001600160a01b03878116600483015286811660248301526044820186905290911692506323b872dd91506064015b600060405180830381600087803b1580156107b257600080fd5b505af11580156107c6573d6000803e3d6000fd5b505050506000805160206113568339815191526001600160a01b03166390c5013b6040518163ffffffff1660e01b8152600401600060405180830381600087803b15801561081357600080fd5b505af1158015610827573d6000803e3d6000fd5b50505050505050565b6000546040516308b6ac0f60e31b8152600080516020611356833981519152916345b560789161086e916001600160a01b0316908190600401611234565b600060405180830381600087803b15801561088857600080fd5b505af115801561089c573d6000803e3d6000fd5b5050600254604051632142170760e11b81526001600160a01b03878116600483015286811660248301526044820186905290911692506342842e0e9150606401610798565b600080546040516308b6ac0f60e31b8152600080516020611356833981519152916345b5607891610920916001600160a01b0316908190600401611234565b600060405180830381600087803b15801561093a57600080fd5b505af115801561094e573d6000803e3d6000fd5b50506002546040516331a9108f60e11b8152600481018690526001600160a01b039091169250636352211e915060240161056e565b600080546040516308b6ac0f60e31b8152600080516020611356833981519152916345b56078916109c2916001600160a01b0316908190600401611234565b600060405180830381600087803b1580156109dc57600080fd5b505af11580156109f0573d6000803e3d6000fd5b50506002546040516370a0823160e01b81526001600160a01b03868116600483015290911692506370a082319150602401602060405180830381865afa158015610a3e573d6000803e3d6000fd5b505050506040513d601f19601f8201168201806040525081019061031291906112ff565b6000546040516308b6ac0f60e31b8152606091600080516020611356833981519152916345b5607891610aa5916001600160a01b03909116908190600401611234565b600060405180830381600087803b158015610abf57600080fd5b505af1158015610ad3573d6000803e3d6000fd5b50505050600260009054906101000a90046001600160a01b03166001600160a01b03166395d89b416040518163ffffffff1660e01b8152600401600060405180830381865afa158015610442573d6000803e3d6000fd5b6000546040516308b6ac0f60e31b8152600080516020611356833981519152916345b5607891610b68916001600160a01b0316908190600401611234565b600060405180830381600087803b158015610b8257600080fd5b505af1158015610b96573d6000803e3d6000fd5b505060025460405163a22cb46560e01b81526001600160a01b0386811660048301528515156024830152909116925063a22cb4659150604401610654565b6000546040516308b6ac0f60e31b8152600080516020611356833981519152916345b5607891610c12916001600160a01b0316908190600401611234565b600060405180830381600087803b158015610c2c57600080fd5b505af1158015610c40573d6000803e3d6000fd5b5050600254604051635c46a7ef60e11b81526001600160a01b03909116925063b88d4fde9150610c7a908790879087908790600401611318565b600060405180830381600087803b158015610c9457600080fd5b505af1158015610ca8573d6000803e3d6000fd5b505050506000805160206113568339815191526001600160a01b03166390c5013b6040518163ffffffff1660e01b8152600401600060405180830381600087803b158015610cf557600080fd5b505af1158015610d09573d6000803e3d6000fd5b5050505050505050565b6000546040516308b6ac0f60e31b8152606091600080516020611356833981519152916345b5607891610d56916001600160a01b03909116908190600401611234565b600060405180830381600087803b158015610d7057600080fd5b505af1158015610d84573d6000803e3d6000fd5b505060025460405163c87b56dd60e01b8152600481018690526001600160a01b03909116925063c87b56dd9150602401600060405180830381865afa158015610dd1573d6000803e3d6000fd5b505050506040513d6000823e601f3d908101601f19168201604052610312919081019061126b565b600080546040516308b6ac0f60e31b8152600080516020611356833981519152916345b5607891610e38916001600160a01b0316908190600401611234565b600060405180830381600087803b158015610e5257600080fd5b505af1158015610e66573d6000803e3d6000fd5b505060025460405163e985e9c560e01b81526001600160a01b03909116925063e985e9c59150610e9c9086908690600401611234565b602060405180830381865afa158015610eb9573d6000803e3d6000fd5b505050506040513d601f19601f82011682018060405250810190610edd919061124e565b90506000805160206113568339815191526001600160a01b03166390c5013b6040518163ffffffff1660e01b8152600401600060405180830381600087803b158015610f2857600080fd5b505af1158015610f3c573d6000803e3d6000fd5b5050505092915050565b600060208284031215610f5857600080fd5b81356001600160e01b031981168114610f7057600080fd5b9392505050565b60005b83811015610f92578181015183820152602001610f7a565b83811115610fa1576000848401525b50505050565b60008151808452610fbf816020860160208601610f77565b601f01601f19169290920160200192915050565b602081526000610f706020830184610fa7565b600060208284031215610ff857600080fd5b5035919050565b6001600160a01b038116811461101457600080fd5b50565b6000806040838503121561102a57600080fd5b823561103581610fff565b946020939093013593505050565b60008060006060848603121561105857600080fd5b833561106381610fff565b9250602084013561107381610fff565b929592945050506040919091013590565b60006020828403121561109657600080fd5b8135610f7081610fff565b801515811461101457600080fd5b600080604083850312156110c257600080fd5b82356110cd81610fff565b915060208301356110dd816110a1565b809150509250929050565b634e487b7160e01b600052604160045260246000fd5b604051601f8201601f1916810167ffffffffffffffff81118282101715611127576111276110e8565b604052919050565b600067ffffffffffffffff821115611149576111496110e8565b50601f01601f191660200190565b6000806000806080858703121561116d57600080fd5b843561117881610fff565b9350602085013561118881610fff565b925060408501359150606085013567ffffffffffffffff8111156111ab57600080fd5b8501601f810187136111bc57600080fd5b80356111cf6111ca8261112f565b6110fe565b8181528860208385010111156111e457600080fd5b8160208401602083013760006020838301015280935050505092959194509250565b6000806040838503121561121957600080fd5b823561122481610fff565b915060208301356110dd81610fff565b6001600160a01b0392831681529116602082015260400190565b60006020828403121561126057600080fd5b8151610f70816110a1565b60006020828403121561127d57600080fd5b815167ffffffffffffffff81111561129457600080fd5b8201601f810184136112a557600080fd5b80516112b36111ca8261112f565b8181528560208385010111156112c857600080fd5b6112d9826020830160208601610f77565b95945050505050565b6000602082840312156112f457600080fd5b8151610f7081610fff565b60006020828403121561131157600080fd5b5051919050565b6001600160a01b038581168252841660208201526040810183905260806060820181905260009061134b90830184610fa7565b969550505050505056fe0000000000000000000000007109709ecfa91a80626ff3989d68f67f5b1dd12da2646970667358221220506ebb0971224aa4c18cc695a861ca383d40b100d49034b3ad36a4ac5a027f1464736f6c634300080d0033",
    "linkReferences": {}
  },
  "methodIdentifiers": {
    "approve(address,uint256)": "095ea7b3",
    "balanceOf(address)": "70a08231",
    "getApproved(uint256)": "081812fc",
    "isApprovedForAll(address,address)": "e985e9c5",
    "name()": "06fdde03",
    "ownerOf(uint256)": "6352211e",
    "proxyContract()": "ed550443",
    "safeTransferFrom(address,address,uint256)": "42842e0e",
    "safeTransferFrom(address,address,uint256,bytes)": "b88d4fde",
    "setApprovalForAll(address,bool)": "a22cb465",
    "supportsInterface(bytes4)": "01ffc9a7",
    "symbol()": "95d89b41",
    "tokenURI(uint256)": "c87b56dd",
    "transferFrom(address,address,uint256)": "23b872dd"
  },
  "id": 78
}