{
  "abi": [
    {
      "inputs": [
        {
          "internalType": "address",
          "name": "_addr",
          "type": "address"
        },
        {
          "internalType": "uint256",
          "name": "_privateKey",
          "type": "uint256"
        },
        {
          "internalType": "address",
          "name": "_target",
          "type": "address"
        }
      ],
      "stateMutability": "nonpayable",
      "type": "constructor"
    },
    {
      "inputs": [
        {
          "internalType": "address",
          "name": "_target",
          "type": "address"
        },
        {
          "internalType": "bytes",
          "name": "_data",
          "type": "bytes"
        },
        {
          "internalType": "bytes32[]",
          "name": "_proof",
          "type": "bytes32[]"
        }
      ],
      "name": "execute",
      "outputs": [
        {
          "internalType": "bool",
          "name": "",
          "type": "bool"
        },
        {
          "internalType": "bytes",
          "name": "",
          "type": "bytes"
        }
      ],
      "stateMutability": "payable",
      "type": "function"
    },
    {
      "inputs": [],
      "name": "init",
      "outputs": [],
      "stateMutability": "nonpayable",
      "type": "function"
    },
    {
      "inputs": [
        {
          "internalType": "bytes4[]",
          "name": "_selectors",
          "type": "bytes4[]"
        },
        {
          "internalType": "address[]",
          "name": "_plugins",
          "type": "address[]"
        }
      ],
      "name": "install",
      "outputs": [],
      "stateMutability": "nonpayable",
      "type": "function"
    },
    {
      "inputs": [],
      "name": "merkleRoot",
      "outputs": [
        {
          "internalType": "bytes32",
          "name": "",
          "type": "bytes32"
        }
      ],
      "stateMutability": "nonpayable",
      "type": "function"
    },
    {
      "inputs": [
        {
          "internalType": "bytes4",
          "name": "arg0",
          "type": "bytes4"
        }
      ],
      "name": "methods",
      "outputs": [
        {
          "internalType": "address",
          "name": "",
          "type": "address"
        }
      ],
      "stateMutability": "nonpayable",
      "type": "function"
    },
    {
      "inputs": [],
      "name": "nonce",
      "outputs": [
        {
          "internalType": "uint256",
          "name": "",
          "type": "uint256"
        }
      ],
      "stateMutability": "nonpayable",
      "type": "function"
    },
    {
      "inputs": [
        {
          "internalType": "address",
          "name": "arg0",
          "type": "address"
        },
        {
          "internalType": "address",
          "name": "arg1",
          "type": "address"
        },
        {
          "internalType": "uint256[]",
          "name": "arg2",
          "type": "uint256[]"
        },
        {
          "internalType": "uint256[]",
          "name": "arg3",
          "type": "uint256[]"
        },
        {
          "internalType": "bytes",
          "name": "arg4",
          "type": "bytes"
        }
      ],
      "name": "onERC1155BatchReceived",
      "outputs": [
        {
          "internalType": "bytes4",
          "name": "",
          "type": "bytes4"
        }
      ],
      "stateMutability": "nonpayable",
      "type": "function"
    },
    {
      "inputs": [
        {
          "internalType": "address",
          "name": "arg0",
          "type": "address"
        },
        {
          "internalType": "address",
          "name": "arg1",
          "type": "address"
        },
        {
          "internalType": "uint256",
          "name": "arg2",
          "type": "uint256"
        },
        {
          "internalType": "uint256",
          "name": "arg3",
          "type": "uint256"
        },
        {
          "internalType": "bytes",
          "name": "arg4",
          "type": "bytes"
        }
      ],
      "name": "onERC1155Received",
      "outputs": [
        {
          "internalType": "bytes4",
          "name": "",
          "type": "bytes4"
        }
      ],
      "stateMutability": "nonpayable",
      "type": "function"
    },
    {
      "inputs": [
        {
          "internalType": "address",
          "name": "arg0",
          "type": "address"
        },
        {
          "internalType": "address",
          "name": "arg1",
          "type": "address"
        },
        {
          "internalType": "uint256",
          "name": "arg2",
          "type": "uint256"
        },
        {
          "internalType": "bytes",
          "name": "arg3",
          "type": "bytes"
        }
      ],
      "name": "onERC721Received",
      "outputs": [
        {
          "internalType": "bytes4",
          "name": "",
          "type": "bytes4"
        }
      ],
      "stateMutability": "nonpayable",
      "type": "function"
    },
    {
      "inputs": [],
      "name": "owner",
      "outputs": [
        {
          "internalType": "address",
          "name": "",
          "type": "address"
        }
      ],
      "stateMutability": "nonpayable",
      "type": "function"
    },
    {
      "inputs": [],
      "name": "proxyContract",
      "outputs": [
        {
          "internalType": "address",
          "name": "",
          "type": "address"
        }
      ],
      "stateMutability": "view",
      "type": "function"
    },
    {
      "inputs": [
        {
          "internalType": "bytes32",
          "name": "_rootHash",
          "type": "bytes32"
        }
      ],
      "name": "setMerkleRoot",
      "outputs": [],
      "stateMutability": "nonpayable",
      "type": "function"
    },
    {
      "inputs": [
        {
          "internalType": "address",
          "name": "_newOwner",
          "type": "address"
        }
      ],
      "name": "transferOwnership",
      "outputs": [],
      "stateMutability": "nonpayable",
      "type": "function"
    },
    {
      "inputs": [
        {
          "internalType": "bytes4[]",
          "name": "_selectors",
          "type": "bytes4[]"
        }
      ],
      "name": "uninstall",
      "outputs": [],
      "stateMutability": "nonpayable",
      "type": "function"
    }
  ],
  "bytecode": {
    "object": "0x60806040523480156200001157600080fd5b5060405162001bb238038062001bb2833981016040819052620000349162000114565b8115620000bd576040516001625e79b760e01b0319815260048101839052737109709ecfa91a80626ff3989d68f67f5b1dd12d9063ffa18649906024016020604051808303816000875af115801562000091573d6000803e3d6000fd5b505050506040513d601f19601f82011682018060405250810190620000b7919062000155565b620000bf565b825b600080546001600160a01b03199081166001600160a01b0393841617909155600193909355600280549093169116179055506200017a565b80516001600160a01b03811681146200010f57600080fd5b919050565b6000806000606084860312156200012a57600080fd5b6200013584620000f7565b9250602084015191506200014c60408501620000f7565b90509250925092565b6000602082840312156200016857600080fd5b6200017382620000f7565b9392505050565b611a28806200018a6000396000f3fe6080604052600436106100dd5760003560e01c80638da5cb5b1161007f578063e1c7392a11610059578063e1c7392a14610248578063ed5504431461025d578063f23a6e611461027b578063f2fde38b1461029b57600080fd5b80638da5cb5b146101fe578063affed0e014610213578063bc197c811461022857600080fd5b80633ca0a617116100bb5780633ca0a61714610165578063601b8af3146101855780636b039451146101a65780637cb64759146101de57600080fd5b8063150b7a02146100e25780632e09ea9b146101205780632eb4a7ab14610142575b600080fd5b3480156100ee57600080fd5b506101026100fd366004611184565b6102bb565b6040516001600160e01b031990911681526020015b60405180910390f35b34801561012c57600080fd5b5061014061013b366004611299565b610410565b005b34801561014e57600080fd5b50610157610546565b604051908152602001610117565b34801561017157600080fd5b506101406101803660046112d6565b610694565b61019861019336600461139a565b6107cd565b6040516101179291906114be565b3480156101b257600080fd5b506101c66101c13660046114d9565b61092d565b6040516001600160a01b039091168152602001610117565b3480156101ea57600080fd5b506101406101f93660046114fd565b610a7c565b34801561020a57600080fd5b506101c6610b1d565b34801561021f57600080fd5b50610157610c05565b34801561023457600080fd5b50610102610243366004611571565b610cc9565b34801561025457600080fd5b50610140610e21565b34801561026957600080fd5b506002546001600160a01b03166101c6565b34801561028757600080fd5b5061010261029636600461161f565b610f5c565b3480156102a757600080fd5b506101406102b6366004611688565b611005565b600080546040516308b6ac0f60e31b81526000805160206119d3833981519152916345b56078916102fa916001600160a01b03169081906004016116a5565b600060405180830381600087803b15801561031457600080fd5b505af1158015610328573d6000803e3d6000fd5b5050600254604051630a85bd0160e11b81526001600160a01b03909116925063150b7a0291506103629088908890889088906004016116bf565b6020604051808303816000875af1158015610381573d6000803e3d6000fd5b505050506040513d601f19601f820116820180604052508101906103a591906116fc565b90506000805160206119d38339815191526001600160a01b03166390c5013b6040518163ffffffff1660e01b8152600401600060405180830381600087803b1580156103f057600080fd5b505af1158015610404573d6000803e3d6000fd5b50505050949350505050565b6000546040516308b6ac0f60e31b81526000805160206119d3833981519152916345b560789161044e916001600160a01b03169081906004016116a5565b600060405180830381600087803b15801561046857600080fd5b505af115801561047c573d6000803e3d6000fd5b5050600254604051632e09ea9b60e01b81526001600160a01b039091169250632e09ea9b91506104b090849060040161175e565b600060405180830381600087803b1580156104ca57600080fd5b505af11580156104de573d6000803e3d6000fd5b505050506000805160206119d38339815191526001600160a01b03166390c5013b6040518163ffffffff1660e01b8152600401600060405180830381600087803b15801561052b57600080fd5b505af115801561053f573d6000803e3d6000fd5b5050505050565b600080546040516308b6ac0f60e31b81526000805160206119d3833981519152916345b5607891610585916001600160a01b03169081906004016116a5565b600060405180830381600087803b15801561059f57600080fd5b505af11580156105b3573d6000803e3d6000fd5b50505050600260009054906101000a90046001600160a01b03166001600160a01b0316632eb4a7ab6040518163ffffffff1660e01b8152600401602060405180830381865afa15801561060a573d6000803e3d6000fd5b505050506040513d601f19601f8201168201806040525081019061062e9190611771565b90506000805160206119d38339815191526001600160a01b03166390c5013b6040518163ffffffff1660e01b8152600401600060405180830381600087803b15801561067957600080fd5b505af115801561068d573d6000803e3d6000fd5b5050505090565b6000546040516308b6ac0f60e31b81526000805160206119d3833981519152916345b56078916106d2916001600160a01b03169081906004016116a5565b600060405180830381600087803b1580156106ec57600080fd5b505af1158015610700573d6000803e3d6000fd5b5050600254604051633ca0a61760e01b81526001600160a01b039091169250633ca0a6179150610736908590859060040161178a565b600060405180830381600087803b15801561075057600080fd5b505af1158015610764573d6000803e3d6000fd5b505050506000805160206119d38339815191526001600160a01b03166390c5013b6040518163ffffffff1660e01b8152600401600060405180830381600087803b1580156107b157600080fd5b505af11580156107c5573d6000803e3d6000fd5b505050505050565b600080546040516308b6ac0f60e31b81526060916000805160206119d3833981519152916345b5607891610811916001600160a01b039091169081906004016116a5565b600060405180830381600087803b15801561082b57600080fd5b505af115801561083f573d6000803e3d6000fd5b505060025460405163601b8af360e01b81526001600160a01b03909116925063601b8af391503490610879908990899089906004016117ea565b60006040518083038185885af1158015610897573d6000803e3d6000fd5b50505050506040513d6000823e601f3d908101601f191682016040526108c09190810190611850565b915091506000805160206119d38339815191526001600160a01b03166390c5013b6040518163ffffffff1660e01b8152600401600060405180830381600087803b15801561090d57600080fd5b505af1158015610921573d6000803e3d6000fd5b50505050935093915050565b600080546040516308b6ac0f60e31b81526000805160206119d3833981519152916345b560789161096c916001600160a01b03169081906004016116a5565b600060405180830381600087803b15801561098657600080fd5b505af115801561099a573d6000803e3d6000fd5b5050600254604051636b03945160e01b81526001600160e01b0319861660048201526001600160a01b039091169250636b0394519150602401602060405180830381865afa1580156109f0573d6000803e3d6000fd5b505050506040513d601f19601f82011682018060405250810190610a1491906118e2565b90506000805160206119d38339815191526001600160a01b03166390c5013b6040518163ffffffff1660e01b8152600401600060405180830381600087803b158015610a5f57600080fd5b505af1158015610a73573d6000803e3d6000fd5b50505050919050565b6000546040516308b6ac0f60e31b81526000805160206119d3833981519152916345b5607891610aba916001600160a01b03169081906004016116a5565b600060405180830381600087803b158015610ad457600080fd5b505af1158015610ae8573d6000803e3d6000fd5b5050600254604051637cb6475960e01b8152600481018590526001600160a01b039091169250637cb6475991506024016104b0565b600080546040516308b6ac0f60e31b81526000805160206119d3833981519152916345b5607891610b5c916001600160a01b03169081906004016116a5565b600060405180830381600087803b158015610b7657600080fd5b505af1158015610b8a573d6000803e3d6000fd5b50505050600260009054906101000a90046001600160a01b03166001600160a01b0316638da5cb5b6040518163ffffffff1660e01b8152600401602060405180830381865afa158015610be1573d6000803e3d6000fd5b505050506040513d601f19601f8201168201806040525081019061062e91906118e2565b600080546040516308b6ac0f60e31b81526000805160206119d3833981519152916345b5607891610c44916001600160a01b03169081906004016116a5565b600060405180830381600087803b158015610c5e57600080fd5b505af1158015610c72573d6000803e3d6000fd5b50505050600260009054906101000a90046001600160a01b03166001600160a01b031663affed0e06040518163ffffffff1660e01b8152600401602060405180830381865afa15801561060a573d6000803e3d6000fd5b600080546040516308b6ac0f60e31b81526000805160206119d3833981519152916345b5607891610d08916001600160a01b03169081906004016116a5565b600060405180830381600087803b158015610d2257600080fd5b505af1158015610d36573d6000803e3d6000fd5b505060025460405163bc197c8160e01b81526001600160a01b03909116925063bc197c819150610d72908990899089908990899060040161192f565b6020604051808303816000875af1158015610d91573d6000803e3d6000fd5b505050506040513d601f19601f82011682018060405250810190610db591906116fc565b90506000805160206119d38339815191526001600160a01b03166390c5013b6040518163ffffffff1660e01b8152600401600060405180830381600087803b158015610e0057600080fd5b505af1158015610e14573d6000803e3d6000fd5b5050505095945050505050565b6000546040516308b6ac0f60e31b81526000805160206119d3833981519152916345b5607891610e5f916001600160a01b03169081906004016116a5565b600060405180830381600087803b158015610e7957600080fd5b505af1158015610e8d573d6000803e3d6000fd5b50505050600260009054906101000a90046001600160a01b03166001600160a01b031663e1c7392a6040518163ffffffff1660e01b8152600401600060405180830381600087803b158015610ee157600080fd5b505af1158015610ef5573d6000803e3d6000fd5b505050506000805160206119d38339815191526001600160a01b03166390c5013b6040518163ffffffff1660e01b8152600401600060405180830381600087803b158015610f4257600080fd5b505af1158015610f56573d6000803e3d6000fd5b50505050565b600080546040516308b6ac0f60e31b81526000805160206119d3833981519152916345b5607891610f9b916001600160a01b03169081906004016116a5565b600060405180830381600087803b158015610fb557600080fd5b505af1158015610fc9573d6000803e3d6000fd5b505060025460405163f23a6e6160e01b81526001600160a01b03909116925063f23a6e619150610d72908990899089908990899060040161198d565b6000546040516308b6ac0f60e31b81526000805160206119d3833981519152916345b5607891611043916001600160a01b03169081906004016116a5565b600060405180830381600087803b15801561105d57600080fd5b505af1158015611071573d6000803e3d6000fd5b505060025460405163f2fde38b60e01b81526001600160a01b038581166004830152909116925063f2fde38b91506024016104b0565b6001600160a01b03811681146110bc57600080fd5b50565b634e487b7160e01b600052604160045260246000fd5b604051601f8201601f1916810167ffffffffffffffff811182821017156110fe576110fe6110bf565b604052919050565b600067ffffffffffffffff821115611120576111206110bf565b50601f01601f191660200190565b600082601f83011261113f57600080fd5b813561115261114d82611106565b6110d5565b81815284602083860101111561116757600080fd5b816020850160208301376000918101602001919091529392505050565b6000806000806080858703121561119a57600080fd5b84356111a5816110a7565b935060208501356111b5816110a7565b925060408501359150606085013567ffffffffffffffff8111156111d857600080fd5b6111e48782880161112e565b91505092959194509250565b600067ffffffffffffffff82111561120a5761120a6110bf565b5060051b60200190565b6001600160e01b0319811681146110bc57600080fd5b600082601f83011261123b57600080fd5b8135602061124b61114d836111f0565b82815260059290921b8401810191818101908684111561126a57600080fd5b8286015b8481101561128e57803561128181611214565b835291830191830161126e565b509695505050505050565b6000602082840312156112ab57600080fd5b813567ffffffffffffffff8111156112c257600080fd5b6112ce8482850161122a565b949350505050565b600080604083850312156112e957600080fd5b823567ffffffffffffffff8082111561130157600080fd5b61130d8683870161122a565b935060209150818501358181111561132457600080fd5b85019050601f8101861361133757600080fd5b803561134561114d826111f0565b81815260059190911b8201830190838101908883111561136457600080fd5b928401925b8284101561138b57833561137c816110a7565b82529284019290840190611369565b80955050505050509250929050565b6000806000606084860312156113af57600080fd5b83356113ba816110a7565b925060208481013567ffffffffffffffff808211156113d857600080fd5b6113e48883890161112e565b945060408701359150808211156113fa57600080fd5b508501601f8101871361140c57600080fd5b803561141a61114d826111f0565b81815260059190911b8201830190838101908983111561143957600080fd5b928401925b828410156114575783358252928401929084019061143e565b80955050505050509250925092565b60005b83811015611481578181015183820152602001611469565b83811115610f565750506000910152565b600081518084526114aa816020860160208601611466565b601f01601f19169290920160200192915050565b82151581526040602082015260006112ce6040830184611492565b6000602082840312156114eb57600080fd5b81356114f681611214565b9392505050565b60006020828403121561150f57600080fd5b5035919050565b600082601f83011261152757600080fd5b8135602061153761114d836111f0565b82815260059290921b8401810191818101908684111561155657600080fd5b8286015b8481101561128e578035835291830191830161155a565b600080600080600060a0868803121561158957600080fd5b8535611594816110a7565b945060208601356115a4816110a7565b9350604086013567ffffffffffffffff808211156115c157600080fd5b6115cd89838a01611516565b945060608801359150808211156115e357600080fd5b6115ef89838a01611516565b9350608088013591508082111561160557600080fd5b506116128882890161112e565b9150509295509295909350565b600080600080600060a0868803121561163757600080fd5b8535611642816110a7565b94506020860135611652816110a7565b93506040860135925060608601359150608086013567ffffffffffffffff81111561167c57600080fd5b6116128882890161112e565b60006020828403121561169a57600080fd5b81356114f6816110a7565b6001600160a01b0392831681529116602082015260400190565b6001600160a01b03858116825284166020820152604081018390526080606082018190526000906116f290830184611492565b9695505050505050565b60006020828403121561170e57600080fd5b81516114f681611214565b600081518084526020808501945080840160005b838110156117535781516001600160e01b0319168752958201959082019060010161172d565b509495945050505050565b6020815260006114f66020830184611719565b60006020828403121561178357600080fd5b5051919050565b60408152600061179d6040830185611719565b82810360208481019190915284518083528582019282019060005b818110156117dd5784516001600160a01b0316835293830193918301916001016117b8565b5090979650505050505050565b6001600160a01b03841681526060602080830182905260009161180f90840186611492565b838103604085015284518082528286019183019060005b8181101561184257835183529284019291840191600101611826565b509098975050505050505050565b6000806040838503121561186357600080fd5b8251801515811461187357600080fd5b602084015190925067ffffffffffffffff81111561189057600080fd5b8301601f810185136118a157600080fd5b80516118af61114d82611106565b8181528660208385010111156118c457600080fd5b6118d5826020830160208601611466565b8093505050509250929050565b6000602082840312156118f457600080fd5b81516114f6816110a7565b600081518084526020808501945080840160005b8381101561175357815187529582019590820190600101611913565b6001600160a01b0386811682528516602082015260a06040820181905260009061195b908301866118ff565b828103606084015261196d81866118ff565b905082810360808401526119818185611492565b98975050505050505050565b6001600160a01b03868116825285166020820152604081018490526060810183905260a0608082018190526000906119c790830184611492565b97965050505050505056fe0000000000000000000000007109709ecfa91a80626ff3989d68f67f5b1dd12da264697066735822122084bbcd2e37d9bf0aeaa3401b90907dcb0a64375ddbbf38289333598d9363d04e64736f6c634300080d0033",
    "linkReferences": {}
  },
  "methodIdentifiers": {
    "execute(address,bytes,bytes32[])": "601b8af3",
    "init()": "e1c7392a",
    "install(bytes4[],address[])": "3ca0a617",
    "merkleRoot()": "2eb4a7ab",
    "methods(bytes4)": "6b039451",
    "nonce()": "affed0e0",
    "onERC1155BatchReceived(address,address,uint256[],uint256[],bytes)": "bc197c81",
    "onERC1155Received(address,address,uint256,uint256,bytes)": "f23a6e61",
    "onERC721Received(address,address,uint256,bytes)": "150b7a02",
    "owner()": "8da5cb5b",
    "proxyContract()": "ed550443",
    "setMerkleRoot(bytes32)": "7cb64759",
    "transferOwnership(address)": "f2fde38b",
    "uninstall(bytes4[])": "2e09ea9b"
  },
  "id": 112
}