{
  "abi": [
    {
      "inputs": [
        {
          "internalType": "address",
          "name": "_addr",
          "type": "address"
        },
        {
          "internalType": "uint256",
          "name": "_privateKey",
          "type": "uint256"
        },
        {
          "internalType": "address",
          "name": "_target",
          "type": "address"
        }
      ],
      "stateMutability": "nonpayable",
      "type": "constructor"
    },
    {
      "inputs": [],
      "name": "proxyContract",
      "outputs": [
        {
          "internalType": "address",
          "name": "",
          "type": "address"
        }
      ],
      "stateMutability": "view",
      "type": "function"
    },
    {
      "inputs": [
        {
          "internalType": "uint256",
          "name": "_id",
          "type": "uint256"
        },
        {
          "internalType": "string",
          "name": "_uri",
          "type": "string"
        }
      ],
      "name": "setURI",
      "outputs": [],
      "stateMutability": "nonpayable",
      "type": "function"
    },
    {
      "inputs": [
        {
          "internalType": "uint256",
          "name": "_id",
          "type": "uint256"
        }
      ],
      "name": "uri",
      "outputs": [
        {
          "internalType": "string",
          "name": "",
          "type": "string"
        }
      ],
      "stateMutability": "nonpayable",
      "type": "function"
    }
  ],
  "bytecode": {
    "object": "0x608060405234801561001057600080fd5b5060405161070b38038061070b83398101604081905261002f91610108565b81156100b3576040516001625e79b760e01b0319815260048101839052737109709ecfa91a80626ff3989d68f67f5b1dd12d9063ffa18649906024016020604051808303816000875af115801561008a573d6000803e3d6000fd5b505050506040513d601f19601f820116820180604052508101906100ae9190610144565b6100b5565b825b600080546001600160a01b03199081166001600160a01b039384161790915560019390935560028054909316911617905550610166565b80516001600160a01b038116811461010357600080fd5b919050565b60008060006060848603121561011d57600080fd5b610126846100ec565b92506020840151915061013b604085016100ec565b90509250925092565b60006020828403121561015657600080fd5b61015f826100ec565b9392505050565b610596806101756000396000f3fe608060405234801561001057600080fd5b50600436106100415760003560e01c80630e89341c14610046578063862440e21461006f578063ed55044314610084575b600080fd5b610059610054366004610340565b61009f565b60405161006691906103b5565b60405180910390f35b61008261007d36600461043e565b6101f9565b005b6002546040516001600160a01b039091168152602001610066565b6000546040516308b6ac0f60e31b81526001600160a01b03909116600482018190526024820152606090737109709ecfa91a80626ff3989d68f67f5b1dd12d906345b5607890604401600060405180830381600087803b15801561010257600080fd5b505af1158015610116573d6000803e3d6000fd5b50506002546040516303a24d0760e21b8152600481018690526001600160a01b039091169250630e89341c9150602401600060405180830381865afa158015610163573d6000803e3d6000fd5b505050506040513d6000823e601f3d908101601f1916820160405261018b91908101906104c8565b9050737109709ecfa91a80626ff3989d68f67f5b1dd12d6001600160a01b03166390c5013b6040518163ffffffff1660e01b8152600401600060405180830381600087803b1580156101dc57600080fd5b505af11580156101f0573d6000803e3d6000fd5b50505050919050565b6000546040516308b6ac0f60e31b81526001600160a01b03909116600482018190526024820152737109709ecfa91a80626ff3989d68f67f5b1dd12d906345b5607890604401600060405180830381600087803b15801561025957600080fd5b505af115801561026d573d6000803e3d6000fd5b5050600254604051634312207160e11b81526001600160a01b03909116925063862440e291506102a3908590859060040161053f565b600060405180830381600087803b1580156102bd57600080fd5b505af11580156102d1573d6000803e3d6000fd5b50505050737109709ecfa91a80626ff3989d68f67f5b1dd12d6001600160a01b03166390c5013b6040518163ffffffff1660e01b8152600401600060405180830381600087803b15801561032457600080fd5b505af1158015610338573d6000803e3d6000fd5b505050505050565b60006020828403121561035257600080fd5b5035919050565b60005b8381101561037457818101518382015260200161035c565b83811115610383576000848401525b50505050565b600081518084526103a1816020860160208601610359565b601f01601f19169290920160200192915050565b6020815260006103c86020830184610389565b9392505050565b634e487b7160e01b600052604160045260246000fd5b604051601f8201601f1916810167ffffffffffffffff8111828210171561040e5761040e6103cf565b604052919050565b600067ffffffffffffffff821115610430576104306103cf565b50601f01601f191660200190565b6000806040838503121561045157600080fd5b82359150602083013567ffffffffffffffff81111561046f57600080fd5b8301601f8101851361048057600080fd5b803561049361048e82610416565b6103e5565b8181528660208385010111156104a857600080fd5b816020840160208301376000602083830101528093505050509250929050565b6000602082840312156104da57600080fd5b815167ffffffffffffffff8111156104f157600080fd5b8201601f8101841361050257600080fd5b805161051061048e82610416565b81815285602083850101111561052557600080fd5b610536826020830160208601610359565b95945050505050565b8281526040602082015260006105586040830184610389565b94935050505056fea26469706673582212202f32ed040be98366568579ba750bfafa559ade2c87b8abe4af5f4ba8a74f471664736f6c634300080d0033",
    "linkReferences": {}
  },
  "methodIdentifiers": {
    "proxyContract()": "ed550443",
    "setURI(uint256,string)": "862440e2",
    "uri(uint256)": "0e89341c"
  },
  "id": 92
}