{
  "_format": "hh-sol-artifact-1",
  "contractName": "MockModule",
  "sourceName": "src/mocks/MockModule.sol",
  "abi": [
    {
      "inputs": [],
      "name": "getLeafNodes",
      "outputs": [
        {
          "internalType": "bytes32[]",
          "name": "nodes",
          "type": "bytes32[]"
        }
      ],
      "stateMutability": "pure",
      "type": "function"
    },
    {
      "inputs": [],
      "name": "getPermissions",
      "outputs": [
        {
          "components": [
            {
              "internalType": "address",
              "name": "module",
              "type": "address"
            },
            {
              "internalType": "address",
              "name": "target",
              "type": "address"
            },
            {
              "internalType": "bytes4",
              "name": "selector",
              "type": "bytes4"
            }
          ],
          "internalType": "struct Permission[]",
          "name": "permissions",
          "type": "tuple[]"
        }
      ],
      "stateMutability": "pure",
      "type": "function"
    }
  ],
  "bytecode": "0x608060405234801561001057600080fd5b506103bd806100206000396000f3fe608060405234801561001057600080fd5b50600436106100365760003560e01c8063c3a07df61461003b578063cbbb4ac514610059575b600080fd5b61004361006e565b604051610050919061027f565b60405180910390f35b61006161010e565b6040516100509190610320565b604080516001808252818301909252606091816020015b60408051606081018252600080825260208083018290529282015282527fffffffffffffffffffffffffffffffffffffffffffffffffffffffffffffffff9092019101816100855750506040805160608101825260018082526020820152600091810182905282519293509183919061010057610100610358565b602002602001018190525090565b6040805160018082528183019092526060916020808301908036833750506040805160018082528183019092529293506000929150602082015b60408051606081018252600080825260208083018290529282015282527fffffffffffffffffffffffffffffffffffffffffffffffffffffffffffffffff909201910181610148575050604080516060810182526001808252602082015260009181018290528251929350918391906101c3576101c3610358565b6020026020010181905250806000815181106101e1576101e1610358565b60209081029190910181015160408051825173ffffffffffffffffffffffffffffffffffffffff90811682860152938301519093168382015201517fffffffff00000000000000000000000000000000000000000000000000000000166060820152608001604051602081830303815290604052805190602001208260008151811061026f5761026f610358565b6020026020010181815250505090565b6020808252825182820181905260009190848201906040850190845b818110156103145761030183855173ffffffffffffffffffffffffffffffffffffffff808251168352806020830151166020840152507fffffffff0000000000000000000000000000000000000000000000000000000060408201511660408301525050565b928401926060929092019160010161029b565b50909695505050505050565b6020808252825182820181905260009190848201906040850190845b818110156103145783518352928401929184019160010161033c565b7f4e487b7100000000000000000000000000000000000000000000000000000000600052603260045260246000fdfea26469706673582212203e42143eb5cb60a82caff57c0813a09e4b7e6927f97db75918d2ece28bea3e4f64736f6c634300080d0033",
  "linkReferences": {},
  "deployedLinkReferences": {}
}