{
  "abi": [
    {
      "inputs": [],
      "name": "getLeafNodes",
      "outputs": [
        {
          "internalType": "bytes32[]",
          "name": "nodes",
          "type": "bytes32[]"
        }
      ],
      "stateMutability": "pure",
      "type": "function"
    },
    {
      "inputs": [],
      "name": "getPermissions",
      "outputs": [
        {
          "components": [
            {
              "internalType": "address",
              "name": "module",
              "type": "address"
            },
            {
              "internalType": "address",
              "name": "target",
              "type": "address"
            },
            {
              "internalType": "bytes4",
              "name": "selector",
              "type": "bytes4"
            }
          ],
          "internalType": "struct Permission[]",
          "name": "permissions",
          "type": "tuple[]"
        }
      ],
      "stateMutability": "pure",
      "type": "function"
    }
  ],
  "bytecode": {
    "object": "0x608060405234801561001057600080fd5b5061030d806100206000396000f3fe608060405234801561001057600080fd5b50600436106100365760003560e01c8063c3a07df61461003b578063cbbb4ac514610059575b600080fd5b61004361006e565b6040516100509190610227565b60405180910390f35b6100616100f0565b6040516100509190610275565b604080516001808252818301909252606091816020015b6040805160608101825260008082526020808301829052928201528252600019909201910181610085575050604080516060810182526001808252602082015260009181018290528251929350918391906100e2576100e26102ad565b602002602001018190525090565b6040805160018082528183019092526060916020808301908036833750506040805160018082528183019092529293506000929150602082015b604080516060810182526000808252602080830182905292820152825260001990920191018161012a57505060408051606081018252600180825260208201526000918101829052825192935091839190610187576101876102ad565b6020026020010181905250806000815181106101a5576101a56102ad565b60200260200101516040516020016101bd91906102c3565b60405160208183030381529060405280519060200120826000815181106101e6576101e66102ad565b6020026020010181815250505090565b80516001600160a01b039081168352602080830151909116908301526040908101516001600160e01b031916910152565b6020808252825182820181905260009190848201906040850190845b81811015610269576102568385516101f6565b9284019260609290920191600101610243565b50909695505050505050565b6020808252825182820181905260009190848201906040850190845b8181101561026957835183529284019291840191600101610291565b634e487b7160e01b600052603260045260246000fd5b606081016102d182846101f6565b9291505056fea2646970667358221220c2edbf6d73904ee42b71441fc10edffe5413c654360504447e8308d85ba0221f64736f6c634300080d0033",
    "linkReferences": {}
  },
  "methodIdentifiers": {
    "getLeafNodes()": "cbbb4ac5",
    "getPermissions()": "c3a07df6"
  },
  "id": 42
}