{
  "abi": [
    {
      "inputs": [
        {
          "internalType": "address",
          "name": "_addr",
          "type": "address"
        },
        {
          "internalType": "uint256",
          "name": "_privateKey",
          "type": "uint256"
        },
        {
          "internalType": "address",
          "name": "_target",
          "type": "address"
        }
      ],
      "stateMutability": "nonpayable",
      "type": "constructor"
    },
    {
      "inputs": [],
      "name": "INITIAL_CONTROLLER",
      "outputs": [
        {
          "internalType": "address",
          "name": "",
          "type": "address"
        }
      ],
      "stateMutability": "nonpayable",
      "type": "function"
    },
    {
      "inputs": [],
      "name": "NAME",
      "outputs": [
        {
          "internalType": "string",
          "name": "",
          "type": "string"
        }
      ],
      "stateMutability": "nonpayable",
      "type": "function"
    },
    {
      "inputs": [],
      "name": "VAULT_REGISTRY",
      "outputs": [
        {
          "internalType": "address",
          "name": "",
          "type": "address"
        }
      ],
      "stateMutability": "nonpayable",
      "type": "function"
    },
    {
      "inputs": [],
      "name": "VERSION",
      "outputs": [
        {
          "internalType": "string",
          "name": "",
          "type": "string"
        }
      ],
      "stateMutability": "nonpayable",
      "type": "function"
    },
    {
      "inputs": [
        {
          "internalType": "address",
          "name": "_from",
          "type": "address"
        },
        {
          "internalType": "uint256",
          "name": "_id",
          "type": "uint256"
        },
        {
          "internalType": "uint256",
          "name": "_amount",
          "type": "uint256"
        }
      ],
      "name": "burn",
      "outputs": [],
      "stateMutability": "nonpayable",
      "type": "function"
    },
    {
      "inputs": [],
      "name": "contractURI",
      "outputs": [
        {
          "internalType": "string",
          "name": "",
          "type": "string"
        }
      ],
      "stateMutability": "nonpayable",
      "type": "function"
    },
    {
      "inputs": [],
      "name": "controller",
      "outputs": [
        {
          "internalType": "address",
          "name": "",
          "type": "address"
        }
      ],
      "stateMutability": "nonpayable",
      "type": "function"
    },
    {
      "inputs": [
        {
          "internalType": "uint256",
          "name": "_id",
          "type": "uint256"
        },
        {
          "internalType": "string",
          "name": "_uri",
          "type": "string"
        }
      ],
      "name": "emitSetURI",
      "outputs": [],
      "stateMutability": "nonpayable",
      "type": "function"
    },
    {
      "inputs": [
        {
          "internalType": "address",
          "name": "arg0",
          "type": "address"
        },
        {
          "internalType": "address",
          "name": "arg1",
          "type": "address"
        },
        {
          "internalType": "uint256",
          "name": "arg2",
          "type": "uint256"
        }
      ],
      "name": "isApproved",
      "outputs": [
        {
          "internalType": "bool",
          "name": "",
          "type": "bool"
        }
      ],
      "stateMutability": "nonpayable",
      "type": "function"
    },
    {
      "inputs": [
        {
          "internalType": "uint256",
          "name": "arg0",
          "type": "uint256"
        }
      ],
      "name": "metadata",
      "outputs": [
        {
          "internalType": "address",
          "name": "",
          "type": "address"
        }
      ],
      "stateMutability": "nonpayable",
      "type": "function"
    },
    {
      "inputs": [
        {
          "internalType": "address",
          "name": "_to",
          "type": "address"
        },
        {
          "internalType": "uint256",
          "name": "_id",
          "type": "uint256"
        },
        {
          "internalType": "uint256",
          "name": "_amount",
          "type": "uint256"
        },
        {
          "internalType": "bytes",
          "name": "_data",
          "type": "bytes"
        }
      ],
      "name": "mint",
      "outputs": [],
      "stateMutability": "nonpayable",
      "type": "function"
    },
    {
      "inputs": [
        {
          "internalType": "address",
          "name": "arg0",
          "type": "address"
        }
      ],
      "name": "nonces",
      "outputs": [
        {
          "internalType": "uint256",
          "name": "",
          "type": "uint256"
        }
      ],
      "stateMutability": "nonpayable",
      "type": "function"
    },
    {
      "inputs": [
        {
          "internalType": "address",
          "name": "_owner",
          "type": "address"
        },
        {
          "internalType": "address",
          "name": "_operator",
          "type": "address"
        },
        {
          "internalType": "uint256",
          "name": "_id",
          "type": "uint256"
        },
        {
          "internalType": "bool",
          "name": "_approved",
          "type": "bool"
        },
        {
          "internalType": "uint256",
          "name": "_deadline",
          "type": "uint256"
        },
        {
          "internalType": "uint8",
          "name": "_v",
          "type": "uint8"
        },
        {
          "internalType": "bytes32",
          "name": "_r",
          "type": "bytes32"
        },
        {
          "internalType": "bytes32",
          "name": "_s",
          "type": "bytes32"
        }
      ],
      "name": "permit",
      "outputs": [],
      "stateMutability": "nonpayable",
      "type": "function"
    },
    {
      "inputs": [
        {
          "internalType": "address",
          "name": "_owner",
          "type": "address"
        },
        {
          "internalType": "address",
          "name": "_operator",
          "type": "address"
        },
        {
          "internalType": "bool",
          "name": "_approved",
          "type": "bool"
        },
        {
          "internalType": "uint256",
          "name": "_deadline",
          "type": "uint256"
        },
        {
          "internalType": "uint8",
          "name": "_v",
          "type": "uint8"
        },
        {
          "internalType": "bytes32",
          "name": "_r",
          "type": "bytes32"
        },
        {
          "internalType": "bytes32",
          "name": "_s",
          "type": "bytes32"
        }
      ],
      "name": "permitAll",
      "outputs": [],
      "stateMutability": "nonpayable",
      "type": "function"
    },
    {
      "inputs": [],
      "name": "proxyContract",
      "outputs": [
        {
          "internalType": "address",
          "name": "",
          "type": "address"
        }
      ],
      "stateMutability": "view",
      "type": "function"
    },
    {
      "inputs": [
        {
          "internalType": "uint256",
          "name": "_id",
          "type": "uint256"
        },
        {
          "internalType": "uint256",
          "name": "_salePrice",
          "type": "uint256"
        }
      ],
      "name": "royaltyInfo",
      "outputs": [
        {
          "internalType": "address",
          "name": "",
          "type": "address"
        },
        {
          "internalType": "uint256",
          "name": "",
          "type": "uint256"
        }
      ],
      "stateMutability": "nonpayable",
      "type": "function"
    },
    {
      "inputs": [
        {
          "internalType": "address",
          "name": "_from",
          "type": "address"
        },
        {
          "internalType": "address",
          "name": "_to",
          "type": "address"
        },
        {
          "internalType": "uint256",
          "name": "_id",
          "type": "uint256"
        },
        {
          "internalType": "uint256",
          "name": "_amount",
          "type": "uint256"
        },
        {
          "internalType": "bytes",
          "name": "_data",
          "type": "bytes"
        }
      ],
      "name": "safeTransferFrom",
      "outputs": [],
      "stateMutability": "nonpayable",
      "type": "function"
    },
    {
      "inputs": [
        {
          "internalType": "address",
          "name": "_operator",
          "type": "address"
        },
        {
          "internalType": "uint256",
          "name": "_id",
          "type": "uint256"
        },
        {
          "internalType": "bool",
          "name": "_approved",
          "type": "bool"
        }
      ],
      "name": "setApprovalFor",
      "outputs": [],
      "stateMutability": "nonpayable",
      "type": "function"
    },
    {
      "inputs": [
        {
          "internalType": "string",
          "name": "_uri",
          "type": "string"
        }
      ],
      "name": "setContractURI",
      "outputs": [],
      "stateMutability": "nonpayable",
      "type": "function"
    },
    {
      "inputs": [
        {
          "internalType": "address",
          "name": "_metadata",
          "type": "address"
        },
        {
          "internalType": "uint256",
          "name": "_id",
          "type": "uint256"
        }
      ],
      "name": "setMetadata",
      "outputs": [],
      "stateMutability": "nonpayable",
      "type": "function"
    },
    {
      "inputs": [
        {
          "internalType": "uint256",
          "name": "_id",
          "type": "uint256"
        },
        {
          "internalType": "address",
          "name": "_receiver",
          "type": "address"
        },
        {
          "internalType": "uint256",
          "name": "_percentage",
          "type": "uint256"
        }
      ],
      "name": "setRoyalties",
      "outputs": [],
      "stateMutability": "nonpayable",
      "type": "function"
    },
    {
      "inputs": [
        {
          "internalType": "uint256",
          "name": "arg0",
          "type": "uint256"
        }
      ],
      "name": "totalSupply",
      "outputs": [
        {
          "internalType": "uint256",
          "name": "",
          "type": "uint256"
        }
      ],
      "stateMutability": "nonpayable",
      "type": "function"
    },
    {
      "inputs": [
        {
          "internalType": "address",
          "name": "_newController",
          "type": "address"
        }
      ],
      "name": "transferController",
      "outputs": [],
      "stateMutability": "nonpayable",
      "type": "function"
    },
    {
      "inputs": [
        {
          "internalType": "uint256",
          "name": "_id",
          "type": "uint256"
        }
      ],
      "name": "uri",
      "outputs": [
        {
          "internalType": "string",
          "name": "",
          "type": "string"
        }
      ],
      "stateMutability": "nonpayable",
      "type": "function"
    }
  ],
  "bytecode": {
    "object": "0x60806040523480156200001157600080fd5b506040516200236638038062002366833981016040819052620000349162000114565b8115620000bd576040516001625e79b760e01b0319815260048101839052737109709ecfa91a80626ff3989d68f67f5b1dd12d9063ffa18649906024016020604051808303816000875af115801562000091573d6000803e3d6000fd5b505050506040513d601f19601f82011682018060405250810190620000b7919062000155565b620000bf565b825b600080546001600160a01b03199081166001600160a01b0393841617909155600193909355600280549093169116179055506200017a565b80516001600160a01b03811681146200010f57600080fd5b919050565b6000806000606084860312156200012a57600080fd5b6200013584620000f7565b9250602084015191506200014c60408501620000f7565b90509250925092565b6000602082840312156200016857600080fd5b6200017382620000f7565b9392505050565b6121dc806200018a6000396000f3fe608060405234801561001057600080fd5b50600436106101585760003560e01c8063de11ff79116100c3578063ed5504431161007c578063ed550443146102f0578063f242432a14610301578063f5298aca14610314578063f72c868914610327578063f77c47911461033a578063ffa1ad741461034257600080fd5b8063de11ff7914610284578063e2c7f3381461028c578063e3684e391461029f578063e5af48d8146102b2578063e8a3d485146102d5578063e8ea054b146102dd57600080fd5b8063731133e911610115578063731133e91461020f5780637ecebe0014610222578063938e3d7b14610243578063a3f4df7e14610256578063bd85b0391461025e578063cfa8fb421461027157600080fd5b806302ace7fe1461015d5780630986c677146101825780630e89341c146101975780632a55205a146101b75780632ccd9ed4146101e95780635ae1bdc7146101fc575b600080fd5b61016561034a565b6040516001600160a01b0390911681526020015b60405180910390f35b610195610190366004611b75565b610498565b005b6101aa6101a5366004611bbc565b6105d1565b6040516101799190611c31565b6101ca6101c5366004611c4b565b61071f565b604080516001600160a01b039093168352602083019190915201610179565b6101956101f7366004611ca9565b610873565b61019561020a366004611d2a565b6109e3565b61019561021d366004611d56565b610a8c565b610235610230366004611db9565b610bcb565b604051908152602001610179565b610195610251366004611dd6565b610caa565b6101aa610de0565b61023561026c366004611bbc565b610ed0565b61019561027f366004611e13565b610f72565b6101656110d9565b61019561029a366004611e8a565b61119d565b6101656102ad366004611bbc565b6112e1565b6102c56102c0366004611ec2565b6113bf565b6040519015158152602001610179565b6101aa611517565b6101956102eb366004611db9565b6115df565b6002546001600160a01b0316610165565b61019561030f366004611ef2565b611681565b610195610322366004611f68565b6117c3565b610195610335366004611f9d565b611873565b610165611924565b6101aa6119e8565b600080546040516308b6ac0f60e31b8152600080516020612187833981519152916345b5607891610389916001600160a01b0316908190600401611fdf565b600060405180830381600087803b1580156103a357600080fd5b505af11580156103b7573d6000803e3d6000fd5b50505050600260009054906101000a90046001600160a01b03166001600160a01b03166302ace7fe6040518163ffffffff1660e01b8152600401602060405180830381865afa15801561040e573d6000803e3d6000fd5b505050506040513d601f19601f820116820180604052508101906104329190611ff9565b90506000805160206121878339815191526001600160a01b03166390c5013b6040518163ffffffff1660e01b8152600401600060405180830381600087803b15801561047d57600080fd5b505af1158015610491573d6000803e3d6000fd5b5050505090565b6000546040516308b6ac0f60e31b8152600080516020612187833981519152916345b56078916104d6916001600160a01b0316908190600401611fdf565b600060405180830381600087803b1580156104f057600080fd5b505af1158015610504573d6000803e3d6000fd5b5050600254604051630986c67760e01b81526001600160a01b039091169250630986c677915061053a9085908590600401612016565b600060405180830381600087803b15801561055457600080fd5b505af1158015610568573d6000803e3d6000fd5b505050506000805160206121878339815191526001600160a01b03166390c5013b6040518163ffffffff1660e01b8152600401600060405180830381600087803b1580156105b557600080fd5b505af11580156105c9573d6000803e3d6000fd5b505050505050565b6000546040516308b6ac0f60e31b8152606091600080516020612187833981519152916345b5607891610614916001600160a01b03909116908190600401611fdf565b600060405180830381600087803b15801561062e57600080fd5b505af1158015610642573d6000803e3d6000fd5b50506002546040516303a24d0760e21b8152600481018690526001600160a01b039091169250630e89341c9150602401600060405180830381865afa15801561068f573d6000803e3d6000fd5b505050506040513d6000823e601f3d908101601f191682016040526106b7919081019061202f565b90506000805160206121878339815191526001600160a01b03166390c5013b6040518163ffffffff1660e01b8152600401600060405180830381600087803b15801561070257600080fd5b505af1158015610716573d6000803e3d6000fd5b50505050919050565b600080546040516308b6ac0f60e31b81528291600080516020612187833981519152916345b5607891610762916001600160a01b03909116908190600401611fdf565b600060405180830381600087803b15801561077c57600080fd5b505af1158015610790573d6000803e3d6000fd5b505060025460405163152a902d60e11b815260048101889052602481018790526001600160a01b039091169250632a55205a91506044016040805180830381865afa1580156107e3573d6000803e3d6000fd5b505050506040513d601f19601f8201168201806040525081019061080791906120a6565b915091506000805160206121878339815191526001600160a01b03166390c5013b6040518163ffffffff1660e01b8152600401600060405180830381600087803b15801561085457600080fd5b505af1158015610868573d6000803e3d6000fd5b505050509250929050565b6000546040516308b6ac0f60e31b8152600080516020612187833981519152916345b56078916108b1916001600160a01b0316908190600401611fdf565b600060405180830381600087803b1580156108cb57600080fd5b505af11580156108df573d6000803e3d6000fd5b5050600254604051630b3367b560e21b81526001600160a01b038c811660048301528b81166024830152604482018b905289151560648301526084820189905260ff881660a483015260c4820187905260e482018690529091169250632ccd9ed4915061010401600060405180830381600087803b15801561096057600080fd5b505af1158015610974573d6000803e3d6000fd5b505050506000805160206121878339815191526001600160a01b03166390c5013b6040518163ffffffff1660e01b8152600401600060405180830381600087803b1580156109c157600080fd5b505af11580156109d5573d6000803e3d6000fd5b505050505050505050505050565b6000546040516308b6ac0f60e31b8152600080516020612187833981519152916345b5607891610a21916001600160a01b0316908190600401611fdf565b600060405180830381600087803b158015610a3b57600080fd5b505af1158015610a4f573d6000803e3d6000fd5b5050600254604051635ae1bdc760e01b81526001600160a01b038681166004830152602482018690529091169250635ae1bdc7915060440161053a565b6000546040516308b6ac0f60e31b8152600080516020612187833981519152916345b5607891610aca916001600160a01b0316908190600401611fdf565b600060405180830381600087803b158015610ae457600080fd5b505af1158015610af8573d6000803e3d6000fd5b505060025460405163731133e960e01b81526001600160a01b03909116925063731133e99150610b329087908790879087906004016120d4565b600060405180830381600087803b158015610b4c57600080fd5b505af1158015610b60573d6000803e3d6000fd5b505050506000805160206121878339815191526001600160a01b03166390c5013b6040518163ffffffff1660e01b8152600401600060405180830381600087803b158015610bad57600080fd5b505af1158015610bc1573d6000803e3d6000fd5b5050505050505050565b600080546040516308b6ac0f60e31b8152600080516020612187833981519152916345b5607891610c0a916001600160a01b0316908190600401611fdf565b600060405180830381600087803b158015610c2457600080fd5b505af1158015610c38573d6000803e3d6000fd5b5050600254604051623f675f60e91b81526001600160a01b0386811660048301529091169250637ecebe0091506024015b602060405180830381865afa158015610c86573d6000803e3d6000fd5b505050506040513d601f19601f820116820180604052508101906106b7919061210b565b6000546040516308b6ac0f60e31b8152600080516020612187833981519152916345b5607891610ce8916001600160a01b0316908190600401611fdf565b600060405180830381600087803b158015610d0257600080fd5b505af1158015610d16573d6000803e3d6000fd5b505060025460405163938e3d7b60e01b81526001600160a01b03909116925063938e3d7b9150610d4a908490600401611c31565b600060405180830381600087803b158015610d6457600080fd5b505af1158015610d78573d6000803e3d6000fd5b505050506000805160206121878339815191526001600160a01b03166390c5013b6040518163ffffffff1660e01b8152600401600060405180830381600087803b158015610dc557600080fd5b505af1158015610dd9573d6000803e3d6000fd5b5050505050565b6000546040516308b6ac0f60e31b8152606091600080516020612187833981519152916345b5607891610e23916001600160a01b03909116908190600401611fdf565b600060405180830381600087803b158015610e3d57600080fd5b505af1158015610e51573d6000803e3d6000fd5b50505050600260009054906101000a90046001600160a01b03166001600160a01b031663a3f4df7e6040518163ffffffff1660e01b8152600401600060405180830381865afa158015610ea8573d6000803e3d6000fd5b505050506040513d6000823e601f3d908101601f19168201604052610432919081019061202f565b600080546040516308b6ac0f60e31b8152600080516020612187833981519152916345b5607891610f0f916001600160a01b0316908190600401611fdf565b600060405180830381600087803b158015610f2957600080fd5b505af1158015610f3d573d6000803e3d6000fd5b505060025460405163bd85b03960e01b8152600481018690526001600160a01b03909116925063bd85b0399150602401610c69565b6000546040516308b6ac0f60e31b8152600080516020612187833981519152916345b5607891610fb0916001600160a01b0316908190600401611fdf565b600060405180830381600087803b158015610fca57600080fd5b505af1158015610fde573d6000803e3d6000fd5b50506002546040516367d47da160e11b81526001600160a01b038b811660048301528a8116602483015289151560448301526064820189905260ff8816608483015260a4820187905260c48201869052909116925063cfa8fb42915060e401600060405180830381600087803b15801561105757600080fd5b505af115801561106b573d6000803e3d6000fd5b505050506000805160206121878339815191526001600160a01b03166390c5013b6040518163ffffffff1660e01b8152600401600060405180830381600087803b1580156110b857600080fd5b505af11580156110cc573d6000803e3d6000fd5b5050505050505050505050565b600080546040516308b6ac0f60e31b8152600080516020612187833981519152916345b5607891611118916001600160a01b0316908190600401611fdf565b600060405180830381600087803b15801561113257600080fd5b505af1158015611146573d6000803e3d6000fd5b50505050600260009054906101000a90046001600160a01b03166001600160a01b031663de11ff796040518163ffffffff1660e01b8152600401602060405180830381865afa15801561040e573d6000803e3d6000fd5b6000546040516308b6ac0f60e31b8152600080516020612187833981519152916345b56078916111db916001600160a01b0316908190600401611fdf565b600060405180830381600087803b1580156111f557600080fd5b505af1158015611209573d6000803e3d6000fd5b5050600254604051631c58fe6760e31b8152600481018790526001600160a01b03868116602483015260448201869052909116925063e2c7f33891506064015b600060405180830381600087803b15801561126357600080fd5b505af1158015611277573d6000803e3d6000fd5b505050506000805160206121878339815191526001600160a01b03166390c5013b6040518163ffffffff1660e01b8152600401600060405180830381600087803b1580156112c457600080fd5b505af11580156112d8573d6000803e3d6000fd5b50505050505050565b600080546040516308b6ac0f60e31b8152600080516020612187833981519152916345b5607891611320916001600160a01b0316908190600401611fdf565b600060405180830381600087803b15801561133a57600080fd5b505af115801561134e573d6000803e3d6000fd5b505060025460405163e3684e3960e01b8152600481018690526001600160a01b03909116925063e3684e399150602401602060405180830381865afa15801561139b573d6000803e3d6000fd5b505050506040513d601f19601f820116820180604052508101906106b79190611ff9565b600080546040516308b6ac0f60e31b8152600080516020612187833981519152916345b56078916113fe916001600160a01b0316908190600401611fdf565b600060405180830381600087803b15801561141857600080fd5b505af115801561142c573d6000803e3d6000fd5b5050600254604051631cb5e91b60e31b81526001600160a01b038881166004830152878116602483015260448201879052909116925063e5af48d89150606401602060405180830381865afa158015611489573d6000803e3d6000fd5b505050506040513d601f19601f820116820180604052508101906114ad9190612124565b90506000805160206121878339815191526001600160a01b03166390c5013b6040518163ffffffff1660e01b8152600401600060405180830381600087803b1580156114f857600080fd5b505af115801561150c573d6000803e3d6000fd5b505050509392505050565b6000546040516308b6ac0f60e31b8152606091600080516020612187833981519152916345b560789161155a916001600160a01b03909116908190600401611fdf565b600060405180830381600087803b15801561157457600080fd5b505af1158015611588573d6000803e3d6000fd5b50505050600260009054906101000a90046001600160a01b03166001600160a01b031663e8a3d4856040518163ffffffff1660e01b8152600401600060405180830381865afa158015610ea8573d6000803e3d6000fd5b6000546040516308b6ac0f60e31b8152600080516020612187833981519152916345b560789161161d916001600160a01b0316908190600401611fdf565b600060405180830381600087803b15801561163757600080fd5b505af115801561164b573d6000803e3d6000fd5b505060025460405163e8ea054b60e01b81526001600160a01b038581166004830152909116925063e8ea054b9150602401610d4a565b6000546040516308b6ac0f60e31b8152600080516020612187833981519152916345b56078916116bf916001600160a01b0316908190600401611fdf565b600060405180830381600087803b1580156116d957600080fd5b505af11580156116ed573d6000803e3d6000fd5b5050600254604051637921219560e11b81526001600160a01b03909116925063f242432a91506117299088908890889088908890600401612141565b600060405180830381600087803b15801561174357600080fd5b505af1158015611757573d6000803e3d6000fd5b505050506000805160206121878339815191526001600160a01b03166390c5013b6040518163ffffffff1660e01b8152600401600060405180830381600087803b1580156117a457600080fd5b505af11580156117b8573d6000803e3d6000fd5b505050505050505050565b6000546040516308b6ac0f60e31b8152600080516020612187833981519152916345b5607891611801916001600160a01b0316908190600401611fdf565b600060405180830381600087803b15801561181b57600080fd5b505af115801561182f573d6000803e3d6000fd5b5050600254604051637a94c56560e11b81526001600160a01b0387811660048301526024820187905260448201869052909116925063f5298aca9150606401611249565b6000546040516308b6ac0f60e31b8152600080516020612187833981519152916345b56078916118b1916001600160a01b0316908190600401611fdf565b600060405180830381600087803b1580156118cb57600080fd5b505af11580156118df573d6000803e3d6000fd5b505060025460405163f72c868960e01b81526001600160a01b038781166004830152602482018790528515156044830152909116925063f72c86899150606401611249565b600080546040516308b6ac0f60e31b8152600080516020612187833981519152916345b5607891611963916001600160a01b0316908190600401611fdf565b600060405180830381600087803b15801561197d57600080fd5b505af1158015611991573d6000803e3d6000fd5b50505050600260009054906101000a90046001600160a01b03166001600160a01b031663f77c47916040518163ffffffff1660e01b8152600401602060405180830381865afa15801561040e573d6000803e3d6000fd5b6000546040516308b6ac0f60e31b8152606091600080516020612187833981519152916345b5607891611a2b916001600160a01b03909116908190600401611fdf565b600060405180830381600087803b158015611a4557600080fd5b505af1158015611a59573d6000803e3d6000fd5b50505050600260009054906101000a90046001600160a01b03166001600160a01b031663ffa1ad746040518163ffffffff1660e01b8152600401600060405180830381865afa158015610ea8573d6000803e3d6000fd5b634e487b7160e01b600052604160045260246000fd5b604051601f8201601f1916810167ffffffffffffffff81118282101715611aef57611aef611ab0565b604052919050565b600067ffffffffffffffff821115611b1157611b11611ab0565b50601f01601f191660200190565b600082601f830112611b3057600080fd5b8135611b43611b3e82611af7565b611ac6565b818152846020838601011115611b5857600080fd5b816020850160208301376000918101602001919091529392505050565b60008060408385031215611b8857600080fd5b82359150602083013567ffffffffffffffff811115611ba657600080fd5b611bb285828601611b1f565b9150509250929050565b600060208284031215611bce57600080fd5b5035919050565b60005b83811015611bf0578181015183820152602001611bd8565b83811115611bff576000848401525b50505050565b60008151808452611c1d816020860160208601611bd5565b601f01601f19169290920160200192915050565b602081526000611c446020830184611c05565b9392505050565b60008060408385031215611c5e57600080fd5b50508035926020909101359150565b6001600160a01b0381168114611c8257600080fd5b50565b8015158114611c8257600080fd5b803560ff81168114611ca457600080fd5b919050565b600080600080600080600080610100898b031215611cc657600080fd5b8835611cd181611c6d565b97506020890135611ce181611c6d565b9650604089013595506060890135611cf881611c85565b945060808901359350611d0d60a08a01611c93565b925060c0890135915060e089013590509295985092959890939650565b60008060408385031215611d3d57600080fd5b8235611d4881611c6d565b946020939093013593505050565b60008060008060808587031215611d6c57600080fd5b8435611d7781611c6d565b93506020850135925060408501359150606085013567ffffffffffffffff811115611da157600080fd5b611dad87828801611b1f565b91505092959194509250565b600060208284031215611dcb57600080fd5b8135611c4481611c6d565b600060208284031215611de857600080fd5b813567ffffffffffffffff811115611dff57600080fd5b611e0b84828501611b1f565b949350505050565b600080600080600080600060e0888a031215611e2e57600080fd5b8735611e3981611c6d565b96506020880135611e4981611c6d565b95506040880135611e5981611c85565b945060608801359350611e6e60808901611c93565b925060a0880135915060c0880135905092959891949750929550565b600080600060608486031215611e9f57600080fd5b833592506020840135611eb181611c6d565b929592945050506040919091013590565b600080600060608486031215611ed757600080fd5b8335611ee281611c6d565b92506020840135611eb181611c6d565b600080600080600060a08688031215611f0a57600080fd5b8535611f1581611c6d565b94506020860135611f2581611c6d565b93506040860135925060608601359150608086013567ffffffffffffffff811115611f4f57600080fd5b611f5b88828901611b1f565b9150509295509295909350565b600080600060608486031215611f7d57600080fd5b8335611f8881611c6d565b95602085013595506040909401359392505050565b600080600060608486031215611fb257600080fd5b8335611fbd81611c6d565b9250602084013591506040840135611fd481611c85565b809150509250925092565b6001600160a01b0392831681529116602082015260400190565b60006020828403121561200b57600080fd5b8151611c4481611c6d565b828152604060208201526000611e0b6040830184611c05565b60006020828403121561204157600080fd5b815167ffffffffffffffff81111561205857600080fd5b8201601f8101841361206957600080fd5b8051612077611b3e82611af7565b81815285602083850101111561208c57600080fd5b61209d826020830160208601611bd5565b95945050505050565b600080604083850312156120b957600080fd5b82516120c481611c6d565b6020939093015192949293505050565b60018060a01b03851681528360208201528260408201526080606082015260006121016080830184611c05565b9695505050505050565b60006020828403121561211d57600080fd5b5051919050565b60006020828403121561213657600080fd5b8151611c4481611c85565b6001600160a01b03868116825285166020820152604081018490526060810183905260a06080820181905260009061217b90830184611c05565b97965050505050505056fe0000000000000000000000007109709ecfa91a80626ff3989d68f67f5b1dd12da2646970667358221220e39b23f40361c18044e86c11a149b08b38da6c857ff3a45f7f58c3510850dac764736f6c634300080d0033",
    "linkReferences": {}
  },
  "methodIdentifiers": {
    "INITIAL_CONTROLLER()": "de11ff79",
    "NAME()": "a3f4df7e",
    "VAULT_REGISTRY()": "02ace7fe",
    "VERSION()": "ffa1ad74",
    "burn(address,uint256,uint256)": "f5298aca",
    "contractURI()": "e8a3d485",
    "controller()": "f77c4791",
    "emitSetURI(uint256,string)": "0986c677",
    "isApproved(address,address,uint256)": "e5af48d8",
    "metadata(uint256)": "e3684e39",
    "mint(address,uint256,uint256,bytes)": "731133e9",
    "nonces(address)": "7ecebe00",
    "permit(address,address,uint256,bool,uint256,uint8,bytes32,bytes32)": "2ccd9ed4",
    "permitAll(address,address,bool,uint256,uint8,bytes32,bytes32)": "cfa8fb42",
    "proxyContract()": "ed550443",
    "royaltyInfo(uint256,uint256)": "2a55205a",
    "safeTransferFrom(address,address,uint256,uint256,bytes)": "f242432a",
    "setApprovalFor(address,uint256,bool)": "f72c8689",
    "setContractURI(string)": "938e3d7b",
    "setMetadata(address,uint256)": "5ae1bdc7",
    "setRoyalties(uint256,address,uint256)": "e2c7f338",
    "totalSupply(uint256)": "bd85b039",
    "transferController(address)": "e8ea054b",
    "uri(uint256)": "0e89341c"
  },
  "id": 79
}