{
  "abi": [
    {
      "inputs": [
        {
          "internalType": "address",
          "name": "_addr",
          "type": "address"
        },
        {
          "internalType": "uint256",
          "name": "_privateKey",
          "type": "uint256"
        },
        {
          "internalType": "address",
          "name": "_target",
          "type": "address"
        }
      ],
      "stateMutability": "nonpayable",
      "type": "constructor"
    },
    {
      "inputs": [],
      "name": "deploy",
      "outputs": [
        {
          "internalType": "address payable",
          "name": "",
          "type": "address"
        }
      ],
      "stateMutability": "nonpayable",
      "type": "function"
    },
    {
      "inputs": [
        {
          "internalType": "address",
          "name": "_owner",
          "type": "address"
        }
      ],
      "name": "deployFor",
      "outputs": [
        {
          "internalType": "address payable",
          "name": "",
          "type": "address"
        }
      ],
      "stateMutability": "nonpayable",
      "type": "function"
    },
    {
      "inputs": [
        {
          "internalType": "address",
          "name": "_deployer",
          "type": "address"
        }
      ],
      "name": "getNextAddress",
      "outputs": [
        {
          "internalType": "address",
          "name": "",
          "type": "address"
        }
      ],
      "stateMutability": "nonpayable",
      "type": "function"
    },
    {
      "inputs": [
        {
          "internalType": "address",
          "name": "_deployer",
          "type": "address"
        }
      ],
      "name": "getNextSeed",
      "outputs": [
        {
          "internalType": "bytes32",
          "name": "",
          "type": "bytes32"
        }
      ],
      "stateMutability": "nonpayable",
      "type": "function"
    },
    {
      "inputs": [],
      "name": "implementation",
      "outputs": [
        {
          "internalType": "address",
          "name": "",
          "type": "address"
        }
      ],
      "stateMutability": "nonpayable",
      "type": "function"
    },
    {
      "inputs": [],
      "name": "proxyContract",
      "outputs": [
        {
          "internalType": "address",
          "name": "",
          "type": "address"
        }
      ],
      "stateMutability": "view",
      "type": "function"
    }
  ],
  "bytecode": {
    "object": "0x608060405234801561001057600080fd5b5060405161083438038061083483398101604081905261002f91610108565b81156100b3576040516001625e79b760e01b0319815260048101839052737109709ecfa91a80626ff3989d68f67f5b1dd12d9063ffa18649906024016020604051808303816000875af115801561008a573d6000803e3d6000fd5b505050506040513d601f19601f820116820180604052508101906100ae9190610144565b6100b5565b825b600080546001600160a01b03199081166001600160a01b039384161790915560019390935560028054909316911617905550610166565b80516001600160a01b038116811461010357600080fd5b919050565b60008060006060848603121561011d57600080fd5b610126846100ec565b92506020840151915061013b604085016100ec565b90509250925092565b60006020828403121561015657600080fd5b61015f826100ec565b9392505050565b6106bf806101756000396000f3fe608060405234801561001057600080fd5b50600436106100625760003560e01c806337a6be1614610067578063411523591461008d5780635c60da1b146100b857806374912cd2146100c0578063775c300c146100d3578063ed550443146100db575b600080fd5b61007a61007536600461062f565b6100ec565b6040519081526020015b60405180910390f35b6100a061009b36600461062f565b610241565b6040516001600160a01b039091168152602001610084565b6100a0610328565b6100a06100ce36600461062f565b610484565b6100a0610549565b6002546001600160a01b03166100a0565b600080546040516308b6ac0f60e31b81526001600160a01b03909116600482018190526024820152737109709ecfa91a80626ff3989d68f67f5b1dd12d906345b5607890604401600060405180830381600087803b15801561014d57600080fd5b505af1158015610161573d6000803e3d6000fd5b5050600254604051631bd35f0b60e11b81526001600160a01b03868116600483015290911692506337a6be169150602401602060405180830381865afa1580156101af573d6000803e3d6000fd5b505050506040513d601f19601f820116820180604052508101906101d39190610653565b9050737109709ecfa91a80626ff3989d68f67f5b1dd12d6001600160a01b03166390c5013b6040518163ffffffff1660e01b8152600401600060405180830381600087803b15801561022457600080fd5b505af1158015610238573d6000803e3d6000fd5b50505050919050565b600080546040516308b6ac0f60e31b81526001600160a01b03909116600482018190526024820152737109709ecfa91a80626ff3989d68f67f5b1dd12d906345b5607890604401600060405180830381600087803b1580156102a257600080fd5b505af11580156102b6573d6000803e3d6000fd5b5050600254604051634115235960e01b81526001600160a01b038681166004830152909116925063411523599150602401602060405180830381865afa158015610304573d6000803e3d6000fd5b505050506040513d601f19601f820116820180604052508101906101d3919061066c565b600080546040516308b6ac0f60e31b81526001600160a01b03909116600482018190526024820152737109709ecfa91a80626ff3989d68f67f5b1dd12d906345b5607890604401600060405180830381600087803b15801561038957600080fd5b505af115801561039d573d6000803e3d6000fd5b50505050600260009054906101000a90046001600160a01b03166001600160a01b0316635c60da1b6040518163ffffffff1660e01b8152600401602060405180830381865afa1580156103f4573d6000803e3d6000fd5b505050506040513d601f19601f82011682018060405250810190610418919061066c565b9050737109709ecfa91a80626ff3989d68f67f5b1dd12d6001600160a01b03166390c5013b6040518163ffffffff1660e01b8152600401600060405180830381600087803b15801561046957600080fd5b505af115801561047d573d6000803e3d6000fd5b5050505090565b600080546040516308b6ac0f60e31b81526001600160a01b03909116600482018190526024820152737109709ecfa91a80626ff3989d68f67f5b1dd12d906345b5607890604401600060405180830381600087803b1580156104e557600080fd5b505af11580156104f9573d6000803e3d6000fd5b5050600254604051633a48966960e11b81526001600160a01b03868116600483015290911692506374912cd291506024016020604051808303816000875af1158015610304573d6000803e3d6000fd5b600080546040516308b6ac0f60e31b81526001600160a01b03909116600482018190526024820152737109709ecfa91a80626ff3989d68f67f5b1dd12d906345b5607890604401600060405180830381600087803b1580156105aa57600080fd5b505af11580156105be573d6000803e3d6000fd5b50505050600260009054906101000a90046001600160a01b03166001600160a01b031663775c300c6040518163ffffffff1660e01b81526004016020604051808303816000875af11580156103f4573d6000803e3d6000fd5b6001600160a01b038116811461062c57600080fd5b50565b60006020828403121561064157600080fd5b813561064c81610617565b9392505050565b60006020828403121561066557600080fd5b5051919050565b60006020828403121561067e57600080fd5b815161064c8161061756fea264697066735822122028dd15473e3ab74a6901b17e62c87f26d1098f059548b563253afa513d274ee364736f6c634300080d0033",
    "linkReferences": {}
  },
  "methodIdentifiers": {
    "deploy()": "775c300c",
    "deployFor(address)": "74912cd2",
    "getNextAddress(address)": "41152359",
    "getNextSeed(address)": "37a6be16",
    "implementation()": "5c60da1b",
    "proxyContract()": "ed550443"
  },
  "id": 113
}