{
  "abi": [
    {
      "inputs": [],
      "name": "WETH_ADDRESS",
      "outputs": [
        {
          "internalType": "address payable",
          "name": "",
          "type": "address"
        }
      ],
      "stateMutability": "view",
      "type": "function"
    },
    {
      "inputs": [
        {
          "internalType": "address",
          "name": "to",
          "type": "address"
        },
        {
          "internalType": "uint256",
          "name": "value",
          "type": "uint256"
        }
      ],
      "name": "sendEthOrWeth",
      "outputs": [],
      "stateMutability": "nonpayable",
      "type": "function"
    },
    {
      "stateMutability": "payable",
      "type": "receive"
    }
  ],
  "bytecode": {
    "object": "0x608060405234801561001057600080fd5b50610258806100206000396000f3fe60806040526004361061002d5760003560e01c8063040141e514610039578063e548c5f91461007d57600080fd5b3661003457005b600080fd5b34801561004557600080fd5b5061006173c02aaa39b223fe8d0a0e5c4f27ead9083c756cc281565b6040516001600160a01b03909116815260200160405180910390f35b34801561008957600080fd5b5061009d6100983660046101c1565b61009f565b005b6100a982826100ad565b5050565b6100b782826101ae565b6100a95773c02aaa39b223fe8d0a0e5c4f27ead9083c756cc26001600160a01b031663d0e30db0826040518263ffffffff1660e01b81526004016000604051808303818588803b15801561010a57600080fd5b505af115801561011e573d6000803e3d6000fd5b505060405163a9059cbb60e01b81526001600160a01b03861660048201526024810185905273c02aaa39b223fe8d0a0e5c4f27ead9083c756cc2935063a9059cbb925060440190506020604051808303816000875af1158015610185573d6000803e3d6000fd5b505050506040513d601f19601f820116820180604052508101906101a991906101f9565b505050565b600080600080600085875af19392505050565b600080604083850312156101d457600080fd5b82356001600160a01b03811681146101eb57600080fd5b946020939093013593505050565b60006020828403121561020b57600080fd5b8151801515811461021b57600080fd5b939250505056fea26469706673582212200b85deb133b9e5bf9bf7ee25bfb63294e77efd7940978b3112bdd306ad9c7caf64736f6c634300080d0033",
    "linkReferences": {}
  },
  "methodIdentifiers": {
    "WETH_ADDRESS()": "040141e5",
    "sendEthOrWeth(address,uint256)": "e548c5f9"
  },
  "id": 44
}