{
  "_format": "hh-sol-artifact-1",
  "contractName": "Supply",
  "sourceName": "src/targets/Supply.sol",
  "abi": [
    {
      "inputs": [
        {
          "internalType": "address",
          "name": "_registry",
          "type": "address"
        }
      ],
      "stateMutability": "nonpayable",
      "type": "constructor"
    },
    {
      "inputs": [
        {
          "internalType": "address",
          "name": "_account",
          "type": "address"
        }
      ],
      "name": "BurnError",
      "type": "error"
    },
    {
      "inputs": [
        {
          "internalType": "address",
          "name": "_account",
          "type": "address"
        }
      ],
      "name": "MintError",
      "type": "error"
    },
    {
      "inputs": [
        {
          "internalType": "address",
          "name": "_from",
          "type": "address"
        },
        {
          "internalType": "uint256",
          "name": "_value",
          "type": "uint256"
        }
      ],
      "name": "burn",
      "outputs": [],
      "stateMutability": "nonpayable",
      "type": "function"
    },
    {
      "inputs": [
        {
          "internalType": "address",
          "name": "_to",
          "type": "address"
        },
        {
          "internalType": "uint256",
          "name": "_value",
          "type": "uint256"
        }
      ],
      "name": "mint",
      "outputs": [],
      "stateMutability": "nonpayable",
      "type": "function"
    }
  ],
  "bytecode": "0x60a060405234801561001057600080fd5b5060405161032f38038061032f83398101604081905261002f91610040565b6001600160a01b0316608052610070565b60006020828403121561005257600080fd5b81516001600160a01b038116811461006957600080fd5b9392505050565b60805161029e610091600039600081816067015261014e015261029e6000f3fe608060405234801561001057600080fd5b50600436106100365760003560e01c806340c10f191461003b5780639dc29fac14610050575b600080fd5b61004e610049366004610223565b610063565b005b61004e61005e366004610223565b61014a565b60007f000000000000000000000000000000000000000000000000000000000000000090506040517f40c10f190000000000000000000000000000000000000000000000000000000060005283600452826024526000806044600080865af18061013c573d1561010e5760203d046020830481600302818311156100f557818303600302610200838002858002030401015b5a60208201101561010a573d6000803e3d6000fd5b5050505b7f9770b48a000000000000000000000000000000000000000000000000000000006000528460045260246000fd5b506040525050600060605250565b60007f000000000000000000000000000000000000000000000000000000000000000090506040517f9dc29fac0000000000000000000000000000000000000000000000000000000060005283600452826024526000806044600080865af18061013c573d156101f55760203d046020830481600302818311156101dc57818303600302610200838002858002030401015b5a6020820110156101f1573d6000803e3d6000fd5b5050505b7fb715ffa7000000000000000000000000000000000000000000000000000000006000528460045260246000fd5b6000806040838503121561023657600080fd5b823573ffffffffffffffffffffffffffffffffffffffff8116811461025a57600080fd5b94602093909301359350505056fea2646970667358221220605fd48c5fd0b4dcbd12bdd829ed25fd2d1d52b75f9bca46e6c634e7efd330e264736f6c634300080d0033",
  "linkReferences": {},
  "deployedLinkReferences": {}
}