{
  "abi": [
    {
      "inputs": [],
      "stateMutability": "nonpayable",
      "type": "constructor"
    },
    {
      "anonymous": false,
      "inputs": [
        {
          "indexed": true,
          "internalType": "address",
          "name": "owner",
          "type": "address"
        },
        {
          "indexed": true,
          "internalType": "address",
          "name": "spender",
          "type": "address"
        },
        {
          "indexed": true,
          "internalType": "uint256",
          "name": "id",
          "type": "uint256"
        }
      ],
      "name": "Approval",
      "type": "event"
    },
    {
      "anonymous": false,
      "inputs": [
        {
          "indexed": true,
          "internalType": "address",
          "name": "owner",
          "type": "address"
        },
        {
          "indexed": true,
          "internalType": "address",
          "name": "operator",
          "type": "address"
        },
        {
          "indexed": false,
          "internalType": "bool",
          "name": "approved",
          "type": "bool"
        }
      ],
      "name": "ApprovalForAll",
      "type": "event"
    },
    {
      "anonymous": false,
      "inputs": [
        {
          "indexed": true,
          "internalType": "address",
          "name": "from",
          "type": "address"
        },
        {
          "indexed": true,
          "internalType": "address",
          "name": "to",
          "type": "address"
        },
        {
          "indexed": true,
          "internalType": "uint256",
          "name": "id",
          "type": "uint256"
        }
      ],
      "name": "Transfer",
      "type": "event"
    },
    {
      "inputs": [
        {
          "internalType": "address",
          "name": "spender",
          "type": "address"
        },
        {
          "internalType": "uint256",
          "name": "id",
          "type": "uint256"
        }
      ],
      "name": "approve",
      "outputs": [],
      "stateMutability": "nonpayable",
      "type": "function"
    },
    {
      "inputs": [
        {
          "internalType": "address",
          "name": "owner",
          "type": "address"
        }
      ],
      "name": "balanceOf",
      "outputs": [
        {
          "internalType": "uint256",
          "name": "",
          "type": "uint256"
        }
      ],
      "stateMutability": "view",
      "type": "function"
    },
    {
      "inputs": [
        {
          "internalType": "uint256",
          "name": "tokenId",
          "type": "uint256"
        }
      ],
      "name": "burn",
      "outputs": [],
      "stateMutability": "nonpayable",
      "type": "function"
    },
    {
      "inputs": [
        {
          "internalType": "uint256",
          "name": "",
          "type": "uint256"
        }
      ],
      "name": "getApproved",
      "outputs": [
        {
          "internalType": "address",
          "name": "",
          "type": "address"
        }
      ],
      "stateMutability": "view",
      "type": "function"
    },
    {
      "inputs": [
        {
          "internalType": "address",
          "name": "",
          "type": "address"
        },
        {
          "internalType": "address",
          "name": "",
          "type": "address"
        }
      ],
      "name": "isApprovedForAll",
      "outputs": [
        {
          "internalType": "bool",
          "name": "",
          "type": "bool"
        }
      ],
      "stateMutability": "view",
      "type": "function"
    },
    {
      "inputs": [
        {
          "internalType": "address",
          "name": "to",
          "type": "address"
        },
        {
          "internalType": "uint256",
          "name": "tokenId",
          "type": "uint256"
        }
      ],
      "name": "mint",
      "outputs": [],
      "stateMutability": "nonpayable",
      "type": "function"
    },
    {
      "inputs": [],
      "name": "name",
      "outputs": [
        {
          "internalType": "string",
          "name": "",
          "type": "string"
        }
      ],
      "stateMutability": "view",
      "type": "function"
    },
    {
      "inputs": [
        {
          "internalType": "uint256",
          "name": "id",
          "type": "uint256"
        }
      ],
      "name": "ownerOf",
      "outputs": [
        {
          "internalType": "address",
          "name": "owner",
          "type": "address"
        }
      ],
      "stateMutability": "view",
      "type": "function"
    },
    {
      "inputs": [
        {
          "internalType": "address",
          "name": "to",
          "type": "address"
        },
        {
          "internalType": "uint256",
          "name": "tokenId",
          "type": "uint256"
        },
        {
          "internalType": "bytes",
          "name": "data",
          "type": "bytes"
        }
      ],
      "name": "safeMint",
      "outputs": [],
      "stateMutability": "nonpayable",
      "type": "function"
    },
    {
      "inputs": [
        {
          "internalType": "address",
          "name": "to",
          "type": "address"
        },
        {
          "internalType": "uint256",
          "name": "tokenId",
          "type": "uint256"
        }
      ],
      "name": "safeMint",
      "outputs": [],
      "stateMutability": "nonpayable",
      "type": "function"
    },
    {
      "inputs": [
        {
          "internalType": "address",
          "name": "from",
          "type": "address"
        },
        {
          "internalType": "address",
          "name": "to",
          "type": "address"
        },
        {
          "internalType": "uint256",
          "name": "id",
          "type": "uint256"
        }
      ],
      "name": "safeTransferFrom",
      "outputs": [],
      "stateMutability": "nonpayable",
      "type": "function"
    },
    {
      "inputs": [
        {
          "internalType": "address",
          "name": "from",
          "type": "address"
        },
        {
          "internalType": "address",
          "name": "to",
          "type": "address"
        },
        {
          "internalType": "uint256",
          "name": "id",
          "type": "uint256"
        },
        {
          "internalType": "bytes",
          "name": "data",
          "type": "bytes"
        }
      ],
      "name": "safeTransferFrom",
      "outputs": [],
      "stateMutability": "nonpayable",
      "type": "function"
    },
    {
      "inputs": [
        {
          "internalType": "address",
          "name": "operator",
          "type": "address"
        },
        {
          "internalType": "bool",
          "name": "approved",
          "type": "bool"
        }
      ],
      "name": "setApprovalForAll",
      "outputs": [],
      "stateMutability": "nonpayable",
      "type": "function"
    },
    {
      "inputs": [
        {
          "internalType": "bytes4",
          "name": "interfaceId",
          "type": "bytes4"
        }
      ],
      "name": "supportsInterface",
      "outputs": [
        {
          "internalType": "bool",
          "name": "",
          "type": "bool"
        }
      ],
      "stateMutability": "view",
      "type": "function"
    },
    {
      "inputs": [],
      "name": "symbol",
      "outputs": [
        {
          "internalType": "string",
          "name": "",
          "type": "string"
        }
      ],
      "stateMutability": "view",
      "type": "function"
    },
    {
      "inputs": [
        {
          "internalType": "uint256",
          "name": "",
          "type": "uint256"
        }
      ],
      "name": "tokenURI",
      "outputs": [
        {
          "internalType": "string",
          "name": "",
          "type": "string"
        }
      ],
      "stateMutability": "pure",
      "type": "function"
    },
    {
      "inputs": [
        {
          "internalType": "address",
          "name": "from",
          "type": "address"
        },
        {
          "internalType": "address",
          "name": "to",
          "type": "address"
        },
        {
          "internalType": "uint256",
          "name": "id",
          "type": "uint256"
        }
      ],
      "name": "transferFrom",
      "outputs": [],
      "stateMutability": "nonpayable",
      "type": "function"
    }
  ],
  "bytecode": {
    "object": "0x60806040523480156200001157600080fd5b50604080518082018252600a8152692a22a9aa2faa37b5b2b760b11b602080830191825283518085019094526004845263151154d560e21b90840152815191929162000060916000916200007f565b508051620000769060019060208401906200007f565b50505062000161565b8280546200008d9062000125565b90600052602060002090601f016020900481019282620000b15760008555620000fc565b82601f10620000cc57805160ff1916838001178555620000fc565b82800160010185558215620000fc579182015b82811115620000fc578251825591602001919060010190620000df565b506200010a9291506200010e565b5090565b5b808211156200010a57600081556001016200010f565b600181811c908216806200013a57607f821691505b6020821081036200015b57634e487b7160e01b600052602260045260246000fd5b50919050565b6110c480620001716000396000f3fe608060405234801561001057600080fd5b506004361061010b5760003560e01c80636352211e116100a2578063a144819411610071578063a14481941461023e578063a22cb46514610251578063b88d4fde14610264578063c87b56dd14610277578063e985e9c51461029857600080fd5b80636352211e146101ef57806370a08231146102025780638832e6e31461022357806395d89b411461023657600080fd5b806323b872dd116100de57806323b872dd146101a357806340c10f19146101b657806342842e0e146101c957806342966c68146101dc57600080fd5b806301ffc9a71461011057806306fdde0314610138578063081812fc1461014d578063095ea7b31461018e575b600080fd5b61012361011e366004610c5c565b6102c6565b60405190151581526020015b60405180910390f35b610140610318565b60405161012f9190610ccd565b61017661015b366004610ce0565b6004602052600090815260409020546001600160a01b031681565b6040516001600160a01b03909116815260200161012f565b6101a161019c366004610d10565b6103a6565b005b6101a16101b1366004610d3a565b61048d565b6101a16101c4366004610d10565b610654565b6101a16101d7366004610d3a565b610662565b6101a16101ea366004610ce0565b610738565b6101766101fd366004610ce0565b610744565b610215610210366004610d76565b61079b565b60405190815260200161012f565b6101a1610231366004610da7565b6107fe565b610140610809565b6101a161024c366004610d10565b610816565b6101a161025f366004610e72565b610820565b6101a1610272366004610eae565b61088c565b610140610285366004610ce0565b5060408051602081019091526000815290565b6101236102a6366004610f49565b600560209081526000928352604080842090915290825290205460ff1681565b60006301ffc9a760e01b6001600160e01b0319831614806102f757506380ac58cd60e01b6001600160e01b03198316145b806103125750635b5e139f60e01b6001600160e01b03198316145b92915050565b6000805461032590610f7c565b80601f016020809104026020016040519081016040528092919081815260200182805461035190610f7c565b801561039e5780601f106103735761010080835404028352916020019161039e565b820191906000526020600020905b81548152906001019060200180831161038157829003601f168201915b505050505081565b6000818152600260205260409020546001600160a01b0316338114806103ef57506001600160a01b038116600090815260056020908152604080832033845290915290205460ff165b6104315760405162461bcd60e51b815260206004820152600e60248201526d1393d517d055551213d49256915160921b60448201526064015b60405180910390fd5b60008281526004602052604080822080546001600160a01b0319166001600160a01b0387811691821790925591518593918516917f8c5be1e5ebec7d5bd14f71427d1e84f3dd0314c0f7b2291e5b200ac8c7c3b92591a4505050565b6000818152600260205260409020546001600160a01b038481169116146104e35760405162461bcd60e51b815260206004820152600a60248201526957524f4e475f46524f4d60b01b6044820152606401610428565b6001600160a01b03821661052d5760405162461bcd60e51b81526020600482015260116024820152701253959053125117d49150d25412515395607a1b6044820152606401610428565b336001600160a01b038416148061056757506001600160a01b038316600090815260056020908152604080832033845290915290205460ff165b8061058857506000818152600460205260409020546001600160a01b031633145b6105c55760405162461bcd60e51b815260206004820152600e60248201526d1393d517d055551213d49256915160921b6044820152606401610428565b6001600160a01b0380841660008181526003602090815260408083208054600019019055938616808352848320805460010190558583526002825284832080546001600160a01b03199081168317909155600490925284832080549092169091559251849392917fddf252ad1be2c89b69c2b068fc378daa952ba7f163c4a11628f55a4df523b3ef91a4505050565b61065e8282610951565b5050565b61066d83838361048d565b6001600160a01b0382163b15806107175750604051630a85bd0160e11b8082523360048301526001600160a01b03858116602484015260448301849052608060648401526000608484015290919084169063150b7a029060a4015b6020604051808303816000875af11580156106e7573d6000803e3d6000fd5b505050506040513d601f19601f8201168201806040525081019061070b9190610fb6565b6001600160e01b031916145b6107335760405162461bcd60e51b815260040161042890610fd3565b505050565b61074181610a5c565b50565b6000818152600260205260409020546001600160a01b0316806107965760405162461bcd60e51b815260206004820152600a6024820152691393d517d3525395115160b21b6044820152606401610428565b919050565b60006001600160a01b0382166107e25760405162461bcd60e51b815260206004820152600c60248201526b5a45524f5f4144445245535360a01b6044820152606401610428565b506001600160a01b031660009081526003602052604090205490565b610733838383610b29565b6001805461032590610f7c565b61065e8282610b7a565b3360008181526005602090815260408083206001600160a01b03871680855290835292819020805460ff191686151590811790915590519081529192917f17307eab39ab6107e8899845ad3d59bd9653f200f220920489ca2b5937696c31910160405180910390a35050565b61089785858561048d565b6001600160a01b0384163b158061092e5750604051630a85bd0160e11b808252906001600160a01b0386169063150b7a02906108df9033908a90899089908990600401610ffd565b6020604051808303816000875af11580156108fe573d6000803e3d6000fd5b505050506040513d601f19601f820116820180604052508101906109229190610fb6565b6001600160e01b031916145b61094a5760405162461bcd60e51b815260040161042890610fd3565b5050505050565b6001600160a01b03821661099b5760405162461bcd60e51b81526020600482015260116024820152701253959053125117d49150d25412515395607a1b6044820152606401610428565b6000818152600260205260409020546001600160a01b0316156109f15760405162461bcd60e51b815260206004820152600e60248201526d1053149150511657d3525395115160921b6044820152606401610428565b6001600160a01b038216600081815260036020908152604080832080546001019055848352600290915280822080546001600160a01b0319168417905551839291907fddf252ad1be2c89b69c2b068fc378daa952ba7f163c4a11628f55a4df523b3ef908290a45050565b6000818152600260205260409020546001600160a01b031680610aae5760405162461bcd60e51b815260206004820152600a6024820152691393d517d3525395115160b21b6044820152606401610428565b6001600160a01b038116600081815260036020908152604080832080546000190190558583526002825280832080546001600160a01b031990811690915560049092528083208054909216909155518492907fddf252ad1be2c89b69c2b068fc378daa952ba7f163c4a11628f55a4df523b3ef908390a45050565b610b338383610951565b6001600160a01b0383163b15806107175750604051630a85bd0160e11b808252906001600160a01b0385169063150b7a02906106c890339060009088908890600401611051565b610b848282610951565b6001600160a01b0382163b1580610c2a5750604051630a85bd0160e11b80825233600483015260006024830181905260448301849052608060648401526084830152906001600160a01b0384169063150b7a029060a4016020604051808303816000875af1158015610bfa573d6000803e3d6000fd5b505050506040513d601f19601f82011682018060405250810190610c1e9190610fb6565b6001600160e01b031916145b61065e5760405162461bcd60e51b815260040161042890610fd3565b6001600160e01b03198116811461074157600080fd5b600060208284031215610c6e57600080fd5b8135610c7981610c46565b9392505050565b6000815180845260005b81811015610ca657602081850181015186830182015201610c8a565b81811115610cb8576000602083870101525b50601f01601f19169290920160200192915050565b602081526000610c796020830184610c80565b600060208284031215610cf257600080fd5b5035919050565b80356001600160a01b038116811461079657600080fd5b60008060408385031215610d2357600080fd5b610d2c83610cf9565b946020939093013593505050565b600080600060608486031215610d4f57600080fd5b610d5884610cf9565b9250610d6660208501610cf9565b9150604084013590509250925092565b600060208284031215610d8857600080fd5b610c7982610cf9565b634e487b7160e01b600052604160045260246000fd5b600080600060608486031215610dbc57600080fd5b610dc584610cf9565b925060208401359150604084013567ffffffffffffffff80821115610de957600080fd5b818601915086601f830112610dfd57600080fd5b813581811115610e0f57610e0f610d91565b604051601f8201601f19908116603f01168101908382118183101715610e3757610e37610d91565b81604052828152896020848701011115610e5057600080fd5b8260208601602083013760006020848301015280955050505050509250925092565b60008060408385031215610e8557600080fd5b610e8e83610cf9565b915060208301358015158114610ea357600080fd5b809150509250929050565b600080600080600060808688031215610ec657600080fd5b610ecf86610cf9565b9450610edd60208701610cf9565b935060408601359250606086013567ffffffffffffffff80821115610f0157600080fd5b818801915088601f830112610f1557600080fd5b813581811115610f2457600080fd5b896020828501011115610f3657600080fd5b9699959850939650602001949392505050565b60008060408385031215610f5c57600080fd5b610f6583610cf9565b9150610f7360208401610cf9565b90509250929050565b600181811c90821680610f9057607f821691505b602082108103610fb057634e487b7160e01b600052602260045260246000fd5b50919050565b600060208284031215610fc857600080fd5b8151610c7981610c46565b60208082526010908201526f155394d0519157d49150d2541251539560821b604082015260600190565b6001600160a01b038681168252851660208201526040810184905260806060820181905281018290526000828460a0840137600060a0848401015260a0601f19601f85011683010190509695505050505050565b6001600160a01b038581168252841660208201526040810183905260806060820181905260009061108490830184610c80565b969550505050505056fea26469706673582212209a99a15db62f705b2babafff919acfeec36fb23fa593d4220b07ade110785f2564736f6c634300080d0033",
    "linkReferences": {}
  },
  "methodIdentifiers": {
    "approve(address,uint256)": "095ea7b3",
    "balanceOf(address)": "70a08231",
    "burn(uint256)": "42966c68",
    "getApproved(uint256)": "081812fc",
    "isApprovedForAll(address,address)": "e985e9c5",
    "mint(address,uint256)": "40c10f19",
    "name()": "06fdde03",
    "ownerOf(uint256)": "6352211e",
    "safeMint(address,uint256)": "a1448194",
    "safeMint(address,uint256,bytes)": "8832e6e3",
    "safeTransferFrom(address,address,uint256)": "42842e0e",
    "safeTransferFrom(address,address,uint256,bytes)": "b88d4fde",
    "setApprovalForAll(address,bool)": "a22cb465",
    "supportsInterface(bytes4)": "01ffc9a7",
    "symbol()": "95d89b41",
    "tokenURI(uint256)": "c87b56dd",
    "transferFrom(address,address,uint256)": "23b872dd"
  },
  "id": 40
}