{
  "abi": [
    {
      "inputs": [
        {
          "internalType": "address",
          "name": "_addr",
          "type": "address"
        },
        {
          "internalType": "uint256",
          "name": "_privateKey",
          "type": "uint256"
        },
        {
          "internalType": "address",
          "name": "_target",
          "type": "address"
        }
      ],
      "stateMutability": "nonpayable",
      "type": "constructor"
    },
    {
      "inputs": [],
      "name": "DOMAIN_SEPARATOR",
      "outputs": [
        {
          "internalType": "bytes32",
          "name": "",
          "type": "bytes32"
        }
      ],
      "stateMutability": "nonpayable",
      "type": "function"
    },
    {
      "inputs": [
        {
          "internalType": "address",
          "name": "arg0",
          "type": "address"
        },
        {
          "internalType": "address",
          "name": "arg1",
          "type": "address"
        }
      ],
      "name": "allowance",
      "outputs": [
        {
          "internalType": "uint256",
          "name": "",
          "type": "uint256"
        }
      ],
      "stateMutability": "nonpayable",
      "type": "function"
    },
    {
      "inputs": [
        {
          "internalType": "address",
          "name": "_spender",
          "type": "address"
        },
        {
          "internalType": "uint256",
          "name": "_amount",
          "type": "uint256"
        }
      ],
      "name": "approve",
      "outputs": [
        {
          "internalType": "bool",
          "name": "",
          "type": "bool"
        }
      ],
      "stateMutability": "nonpayable",
      "type": "function"
    },
    {
      "inputs": [
        {
          "internalType": "address",
          "name": "arg0",
          "type": "address"
        }
      ],
      "name": "balanceOf",
      "outputs": [
        {
          "internalType": "uint256",
          "name": "",
          "type": "uint256"
        }
      ],
      "stateMutability": "nonpayable",
      "type": "function"
    },
    {
      "inputs": [],
      "name": "decimals",
      "outputs": [
        {
          "internalType": "uint8",
          "name": "",
          "type": "uint8"
        }
      ],
      "stateMutability": "nonpayable",
      "type": "function"
    },
    {
      "inputs": [],
      "name": "name",
      "outputs": [
        {
          "internalType": "string",
          "name": "",
          "type": "string"
        }
      ],
      "stateMutability": "nonpayable",
      "type": "function"
    },
    {
      "inputs": [
        {
          "internalType": "address",
          "name": "arg0",
          "type": "address"
        }
      ],
      "name": "nonces",
      "outputs": [
        {
          "internalType": "uint256",
          "name": "",
          "type": "uint256"
        }
      ],
      "stateMutability": "nonpayable",
      "type": "function"
    },
    {
      "inputs": [
        {
          "internalType": "address",
          "name": "_owner",
          "type": "address"
        },
        {
          "internalType": "address",
          "name": "_spender",
          "type": "address"
        },
        {
          "internalType": "uint256",
          "name": "_value",
          "type": "uint256"
        },
        {
          "internalType": "uint256",
          "name": "_deadline",
          "type": "uint256"
        },
        {
          "internalType": "uint8",
          "name": "_v",
          "type": "uint8"
        },
        {
          "internalType": "bytes32",
          "name": "_r",
          "type": "bytes32"
        },
        {
          "internalType": "bytes32",
          "name": "_s",
          "type": "bytes32"
        }
      ],
      "name": "permit",
      "outputs": [],
      "stateMutability": "nonpayable",
      "type": "function"
    },
    {
      "inputs": [],
      "name": "proxyContract",
      "outputs": [
        {
          "internalType": "address",
          "name": "",
          "type": "address"
        }
      ],
      "stateMutability": "view",
      "type": "function"
    },
    {
      "inputs": [],
      "name": "symbol",
      "outputs": [
        {
          "internalType": "string",
          "name": "",
          "type": "string"
        }
      ],
      "stateMutability": "nonpayable",
      "type": "function"
    },
    {
      "inputs": [],
      "name": "totalSupply",
      "outputs": [
        {
          "internalType": "uint256",
          "name": "",
          "type": "uint256"
        }
      ],
      "stateMutability": "nonpayable",
      "type": "function"
    },
    {
      "inputs": [
        {
          "internalType": "address",
          "name": "_to",
          "type": "address"
        },
        {
          "internalType": "uint256",
          "name": "_amount",
          "type": "uint256"
        }
      ],
      "name": "transfer",
      "outputs": [
        {
          "internalType": "bool",
          "name": "",
          "type": "bool"
        }
      ],
      "stateMutability": "nonpayable",
      "type": "function"
    },
    {
      "inputs": [
        {
          "internalType": "address",
          "name": "_from",
          "type": "address"
        },
        {
          "internalType": "address",
          "name": "_to",
          "type": "address"
        },
        {
          "internalType": "uint256",
          "name": "_amount",
          "type": "uint256"
        }
      ],
      "name": "transferFrom",
      "outputs": [
        {
          "internalType": "bool",
          "name": "",
          "type": "bool"
        }
      ],
      "stateMutability": "nonpayable",
      "type": "function"
    }
  ],
  "bytecode": {
    "object": "0x60806040523480156200001157600080fd5b50604051620012ee380380620012ee833981016040819052620000349162000114565b8115620000bd576040516001625e79b760e01b0319815260048101839052737109709ecfa91a80626ff3989d68f67f5b1dd12d9063ffa18649906024016020604051808303816000875af115801562000091573d6000803e3d6000fd5b505050506040513d601f19601f82011682018060405250810190620000b7919062000155565b620000bf565b825b600080546001600160a01b03199081166001600160a01b0393841617909155600193909355600280549093169116179055506200017a565b80516001600160a01b03811681146200010f57600080fd5b919050565b6000806000606084860312156200012a57600080fd5b6200013584620000f7565b9250602084015191506200014c60408501620000f7565b90509250925092565b6000602082840312156200016857600080fd5b6200017382620000f7565b9392505050565b611164806200018a6000396000f3fe608060405234801561001057600080fd5b50600436106100cf5760003560e01c806370a082311161008c578063a9059cbb11610066578063a9059cbb1461018e578063d505accf146101a1578063dd62ed3e146101b6578063ed550443146101c957600080fd5b806370a08231146101605780637ecebe001461017357806395d89b411461018657600080fd5b806306fdde03146100d4578063095ea7b3146100f257806318160ddd1461011557806323b872dd1461012b578063313ce5671461013e5780633644e51514610158575b600080fd5b6100dc6101e4565b6040516100e99190610e50565b60405180910390f35b610105610100366004610e9f565b61033a565b60405190151581526020016100e9565b61011d61048c565b6040519081526020016100e9565b610105610139366004610ec9565b610574565b6101466106ce565b60405160ff90911681526020016100e9565b61011d6107b6565b61011d61016e366004610f05565b61087a565b61011d610181366004610f05565b6109c2565b6100dc610a64565b61010561019c366004610e9f565b610b2c565b6101b46101af366004610f39565b610bd6565b005b61011d6101c4366004610fa6565b610d3c565b6002546040516001600160a01b0390911681526020016100e9565b6000546040516308b6ac0f60e31b815260609160008051602061110f833981519152916345b5607891610227916001600160a01b03909116908190600401610fd9565b600060405180830381600087803b15801561024157600080fd5b505af1158015610255573d6000803e3d6000fd5b50505050600260009054906101000a90046001600160a01b03166001600160a01b03166306fdde036040518163ffffffff1660e01b8152600401600060405180830381865afa1580156102ac573d6000803e3d6000fd5b505050506040513d6000823e601f3d908101601f191682016040526102d49190810190611009565b905060008051602061110f8339815191526001600160a01b03166390c5013b6040518163ffffffff1660e01b8152600401600060405180830381600087803b15801561031f57600080fd5b505af1158015610333573d6000803e3d6000fd5b5050505090565b600080546040516308b6ac0f60e31b815260008051602061110f833981519152916345b5607891610379916001600160a01b0316908190600401610fd9565b600060405180830381600087803b15801561039357600080fd5b505af11580156103a7573d6000803e3d6000fd5b505060025460405163095ea7b360e01b81526001600160a01b03878116600483015260248201879052909116925063095ea7b391506044015b6020604051808303816000875af11580156103ff573d6000803e3d6000fd5b505050506040513d601f19601f8201168201806040525081019061042391906110b6565b905060008051602061110f8339815191526001600160a01b03166390c5013b6040518163ffffffff1660e01b8152600401600060405180830381600087803b15801561046e57600080fd5b505af1158015610482573d6000803e3d6000fd5b5050505092915050565b600080546040516308b6ac0f60e31b815260008051602061110f833981519152916345b56078916104cb916001600160a01b0316908190600401610fd9565b600060405180830381600087803b1580156104e557600080fd5b505af11580156104f9573d6000803e3d6000fd5b50505050600260009054906101000a90046001600160a01b03166001600160a01b03166318160ddd6040518163ffffffff1660e01b8152600401602060405180830381865afa158015610550573d6000803e3d6000fd5b505050506040513d601f19601f820116820180604052508101906102d491906110d8565b600080546040516308b6ac0f60e31b815260008051602061110f833981519152916345b56078916105b3916001600160a01b0316908190600401610fd9565b600060405180830381600087803b1580156105cd57600080fd5b505af11580156105e1573d6000803e3d6000fd5b50506002546040516323b872dd60e01b81526001600160a01b03888116600483015287811660248301526044820187905290911692506323b872dd91506064016020604051808303816000875af1158015610640573d6000803e3d6000fd5b505050506040513d601f19601f8201168201806040525081019061066491906110b6565b905060008051602061110f8339815191526001600160a01b03166390c5013b6040518163ffffffff1660e01b8152600401600060405180830381600087803b1580156106af57600080fd5b505af11580156106c3573d6000803e3d6000fd5b505050509392505050565b600080546040516308b6ac0f60e31b815260008051602061110f833981519152916345b560789161070d916001600160a01b0316908190600401610fd9565b600060405180830381600087803b15801561072757600080fd5b505af115801561073b573d6000803e3d6000fd5b50505050600260009054906101000a90046001600160a01b03166001600160a01b031663313ce5676040518163ffffffff1660e01b8152600401602060405180830381865afa158015610792573d6000803e3d6000fd5b505050506040513d601f19601f820116820180604052508101906102d491906110f1565b600080546040516308b6ac0f60e31b815260008051602061110f833981519152916345b56078916107f5916001600160a01b0316908190600401610fd9565b600060405180830381600087803b15801561080f57600080fd5b505af1158015610823573d6000803e3d6000fd5b50505050600260009054906101000a90046001600160a01b03166001600160a01b0316633644e5156040518163ffffffff1660e01b8152600401602060405180830381865afa158015610550573d6000803e3d6000fd5b600080546040516308b6ac0f60e31b815260008051602061110f833981519152916345b56078916108b9916001600160a01b0316908190600401610fd9565b600060405180830381600087803b1580156108d357600080fd5b505af11580156108e7573d6000803e3d6000fd5b50506002546040516370a0823160e01b81526001600160a01b03868116600483015290911692506370a0823191506024015b602060405180830381865afa158015610936573d6000803e3d6000fd5b505050506040513d601f19601f8201168201806040525081019061095a91906110d8565b905060008051602061110f8339815191526001600160a01b03166390c5013b6040518163ffffffff1660e01b8152600401600060405180830381600087803b1580156109a557600080fd5b505af11580156109b9573d6000803e3d6000fd5b50505050919050565b600080546040516308b6ac0f60e31b815260008051602061110f833981519152916345b5607891610a01916001600160a01b0316908190600401610fd9565b600060405180830381600087803b158015610a1b57600080fd5b505af1158015610a2f573d6000803e3d6000fd5b5050600254604051623f675f60e91b81526001600160a01b0386811660048301529091169250637ecebe009150602401610919565b6000546040516308b6ac0f60e31b815260609160008051602061110f833981519152916345b5607891610aa7916001600160a01b03909116908190600401610fd9565b600060405180830381600087803b158015610ac157600080fd5b505af1158015610ad5573d6000803e3d6000fd5b50505050600260009054906101000a90046001600160a01b03166001600160a01b03166395d89b416040518163ffffffff1660e01b8152600401600060405180830381865afa1580156102ac573d6000803e3d6000fd5b600080546040516308b6ac0f60e31b815260008051602061110f833981519152916345b5607891610b6b916001600160a01b0316908190600401610fd9565b600060405180830381600087803b158015610b8557600080fd5b505af1158015610b99573d6000803e3d6000fd5b505060025460405163a9059cbb60e01b81526001600160a01b03878116600483015260248201879052909116925063a9059cbb91506044016103e0565b6000546040516308b6ac0f60e31b815260008051602061110f833981519152916345b5607891610c14916001600160a01b0316908190600401610fd9565b600060405180830381600087803b158015610c2e57600080fd5b505af1158015610c42573d6000803e3d6000fd5b505060025460405163d505accf60e01b81526001600160a01b038b811660048301528a81166024830152604482018a90526064820189905260ff8816608483015260a4820187905260c48201869052909116925063d505accf915060e401600060405180830381600087803b158015610cba57600080fd5b505af1158015610cce573d6000803e3d6000fd5b5050505060008051602061110f8339815191526001600160a01b03166390c5013b6040518163ffffffff1660e01b8152600401600060405180830381600087803b158015610d1b57600080fd5b505af1158015610d2f573d6000803e3d6000fd5b5050505050505050505050565b600080546040516308b6ac0f60e31b815260008051602061110f833981519152916345b5607891610d7b916001600160a01b0316908190600401610fd9565b600060405180830381600087803b158015610d9557600080fd5b505af1158015610da9573d6000803e3d6000fd5b5050600254604051636eb1769f60e11b81526001600160a01b03909116925063dd62ed3e9150610ddf9086908690600401610fd9565b602060405180830381865afa158015610dfc573d6000803e3d6000fd5b505050506040513d601f19601f8201168201806040525081019061042391906110d8565b60005b83811015610e3b578181015183820152602001610e23565b83811115610e4a576000848401525b50505050565b6020815260008251806020840152610e6f816040850160208701610e20565b601f01601f19169190910160400192915050565b80356001600160a01b0381168114610e9a57600080fd5b919050565b60008060408385031215610eb257600080fd5b610ebb83610e83565b946020939093013593505050565b600080600060608486031215610ede57600080fd5b610ee784610e83565b9250610ef560208501610e83565b9150604084013590509250925092565b600060208284031215610f1757600080fd5b610f2082610e83565b9392505050565b60ff81168114610f3657600080fd5b50565b600080600080600080600060e0888a031215610f5457600080fd5b610f5d88610e83565b9650610f6b60208901610e83565b955060408801359450606088013593506080880135610f8981610f27565b9699959850939692959460a0840135945060c09093013592915050565b60008060408385031215610fb957600080fd5b610fc283610e83565b9150610fd060208401610e83565b90509250929050565b6001600160a01b0392831681529116602082015260400190565b634e487b7160e01b600052604160045260246000fd5b60006020828403121561101b57600080fd5b815167ffffffffffffffff8082111561103357600080fd5b818401915084601f83011261104757600080fd5b81518181111561105957611059610ff3565b604051601f8201601f19908116603f0116810190838211818310171561108157611081610ff3565b8160405282815287602084870101111561109a57600080fd5b6110ab836020830160208801610e20565b979650505050505050565b6000602082840312156110c857600080fd5b81518015158114610f2057600080fd5b6000602082840312156110ea57600080fd5b5051919050565b60006020828403121561110357600080fd5b8151610f2081610f2756fe0000000000000000000000007109709ecfa91a80626ff3989d68f67f5b1dd12da2646970667358221220d12213505befdd27121fb777e2b3ca50eef7243435f9239cabc0e9f04951352b64736f6c634300080d0033",
    "linkReferences": {}
  },
  "methodIdentifiers": {
    "DOMAIN_SEPARATOR()": "3644e515",
    "allowance(address,address)": "dd62ed3e",
    "approve(address,uint256)": "095ea7b3",
    "balanceOf(address)": "70a08231",
    "decimals()": "313ce567",
    "name()": "06fdde03",
    "nonces(address)": "7ecebe00",
    "permit(address,address,uint256,uint256,uint8,bytes32,bytes32)": "d505accf",
    "proxyContract()": "ed550443",
    "symbol()": "95d89b41",
    "totalSupply()": "18160ddd",
    "transfer(address,uint256)": "a9059cbb",
    "transferFrom(address,address,uint256)": "23b872dd"
  },
  "id": 77
}