{
  "abi": [
    {
      "inputs": [
        {
          "internalType": "address",
          "name": "_addr",
          "type": "address"
        },
        {
          "internalType": "uint256",
          "name": "_privateKey",
          "type": "uint256"
        },
        {
          "internalType": "address",
          "name": "_target",
          "type": "address"
        }
      ],
      "stateMutability": "nonpayable",
      "type": "constructor"
    },
    {
      "inputs": [
        {
          "internalType": "address",
          "name": "_from",
          "type": "address"
        },
        {
          "internalType": "uint256",
          "name": "_value",
          "type": "uint256"
        }
      ],
      "name": "burn",
      "outputs": [],
      "stateMutability": "nonpayable",
      "type": "function"
    },
    {
      "inputs": [
        {
          "internalType": "bytes32",
          "name": "_merkleRoot",
          "type": "bytes32"
        },
        {
          "internalType": "address[]",
          "name": "_plugins",
          "type": "address[]"
        },
        {
          "internalType": "bytes4[]",
          "name": "_selectors",
          "type": "bytes4[]"
        }
      ],
      "name": "create",
      "outputs": [
        {
          "internalType": "address",
          "name": "",
          "type": "address"
        }
      ],
      "stateMutability": "nonpayable",
      "type": "function"
    },
    {
      "inputs": [
        {
          "internalType": "bytes32",
          "name": "_merkleRoot",
          "type": "bytes32"
        },
        {
          "internalType": "address[]",
          "name": "_plugins",
          "type": "address[]"
        },
        {
          "internalType": "bytes4[]",
          "name": "_selectors",
          "type": "bytes4[]"
        }
      ],
      "name": "createCollection",
      "outputs": [
        {
          "internalType": "address",
          "name": "",
          "type": "address"
        },
        {
          "internalType": "address",
          "name": "",
          "type": "address"
        }
      ],
      "stateMutability": "nonpayable",
      "type": "function"
    },
    {
      "inputs": [
        {
          "internalType": "bytes32",
          "name": "_merkleRoot",
          "type": "bytes32"
        },
        {
          "internalType": "address",
          "name": "_controller",
          "type": "address"
        },
        {
          "internalType": "address[]",
          "name": "_plugins",
          "type": "address[]"
        },
        {
          "internalType": "bytes4[]",
          "name": "_selectors",
          "type": "bytes4[]"
        }
      ],
      "name": "createCollectionFor",
      "outputs": [
        {
          "internalType": "address",
          "name": "",
          "type": "address"
        },
        {
          "internalType": "address",
          "name": "",
          "type": "address"
        }
      ],
      "stateMutability": "nonpayable",
      "type": "function"
    },
    {
      "inputs": [
        {
          "internalType": "bytes32",
          "name": "_merkleRoot",
          "type": "bytes32"
        },
        {
          "internalType": "address",
          "name": "_owner",
          "type": "address"
        },
        {
          "internalType": "address[]",
          "name": "_plugins",
          "type": "address[]"
        },
        {
          "internalType": "bytes4[]",
          "name": "_selectors",
          "type": "bytes4[]"
        }
      ],
      "name": "createFor",
      "outputs": [
        {
          "internalType": "address",
          "name": "",
          "type": "address"
        }
      ],
      "stateMutability": "nonpayable",
      "type": "function"
    },
    {
      "inputs": [
        {
          "internalType": "bytes32",
          "name": "_merkleRoot",
          "type": "bytes32"
        },
        {
          "internalType": "address",
          "name": "_token",
          "type": "address"
        },
        {
          "internalType": "address[]",
          "name": "_plugins",
          "type": "address[]"
        },
        {
          "internalType": "bytes4[]",
          "name": "_selectors",
          "type": "bytes4[]"
        }
      ],
      "name": "createInCollection",
      "outputs": [
        {
          "internalType": "address",
          "name": "",
          "type": "address"
        }
      ],
      "stateMutability": "nonpayable",
      "type": "function"
    },
    {
      "inputs": [],
      "name": "fNFT",
      "outputs": [
        {
          "internalType": "address",
          "name": "",
          "type": "address"
        }
      ],
      "stateMutability": "nonpayable",
      "type": "function"
    },
    {
      "inputs": [],
      "name": "fNFTImplementation",
      "outputs": [
        {
          "internalType": "address",
          "name": "",
          "type": "address"
        }
      ],
      "stateMutability": "nonpayable",
      "type": "function"
    },
    {
      "inputs": [],
      "name": "factory",
      "outputs": [
        {
          "internalType": "address",
          "name": "",
          "type": "address"
        }
      ],
      "stateMutability": "nonpayable",
      "type": "function"
    },
    {
      "inputs": [
        {
          "internalType": "address",
          "name": "_to",
          "type": "address"
        },
        {
          "internalType": "uint256",
          "name": "_value",
          "type": "uint256"
        }
      ],
      "name": "mint",
      "outputs": [],
      "stateMutability": "nonpayable",
      "type": "function"
    },
    {
      "inputs": [
        {
          "internalType": "address",
          "name": "arg0",
          "type": "address"
        }
      ],
      "name": "nextId",
      "outputs": [
        {
          "internalType": "uint256",
          "name": "",
          "type": "uint256"
        }
      ],
      "stateMutability": "nonpayable",
      "type": "function"
    },
    {
      "inputs": [],
      "name": "proxyContract",
      "outputs": [
        {
          "internalType": "address",
          "name": "",
          "type": "address"
        }
      ],
      "stateMutability": "view",
      "type": "function"
    },
    {
      "inputs": [
        {
          "internalType": "address",
          "name": "_vault",
          "type": "address"
        }
      ],
      "name": "totalSupply",
      "outputs": [
        {
          "internalType": "uint256",
          "name": "",
          "type": "uint256"
        }
      ],
      "stateMutability": "nonpayable",
      "type": "function"
    },
    {
      "inputs": [
        {
          "internalType": "address",
          "name": "_vault",
          "type": "address"
        }
      ],
      "name": "uri",
      "outputs": [
        {
          "internalType": "string",
          "name": "",
          "type": "string"
        }
      ],
      "stateMutability": "nonpayable",
      "type": "function"
    },
    {
      "inputs": [
        {
          "internalType": "address",
          "name": "arg0",
          "type": "address"
        }
      ],
      "name": "vaultToToken",
      "outputs": [
        {
          "internalType": "address",
          "name": "",
          "type": "address"
        },
        {
          "internalType": "uint256",
          "name": "",
          "type": "uint256"
        }
      ],
      "stateMutability": "nonpayable",
      "type": "function"
    }
  ],
  "bytecode": {
    "object": "0x60806040523480156200001157600080fd5b506040516200186438038062001864833981016040819052620000349162000114565b8115620000bd576040516001625e79b760e01b0319815260048101839052737109709ecfa91a80626ff3989d68f67f5b1dd12d9063ffa18649906024016020604051808303816000875af115801562000091573d6000803e3d6000fd5b505050506040513d601f19601f82011682018060405250810190620000b7919062000155565b620000bf565b825b600080546001600160a01b03199081166001600160a01b0393841617909155600193909355600280549093169116179055506200017a565b80516001600160a01b03811681146200010f57600080fd5b919050565b6000806000606084860312156200012a57600080fd5b6200013584620000f7565b9250602084015191506200014c60408501620000f7565b90509250925092565b6000602082840312156200016857600080fd5b6200017382620000f7565b9392505050565b6116da806200018a6000396000f3fe608060405234801561001057600080fd5b50600436106100f55760003560e01c80635ef449fd11610097578063a26f18b211610066578063a26f18b21461021c578063c45a01551461022f578063e4dc2aa414610237578063ed5504431461024a57600080fd5b80635ef449fd146101db57806367164665146101e35780639b8e96cc146101f65780639dc29fac1461020957600080fd5b806342d19ef4116100d357806342d19ef41461015457806346190ec41461018657806357906688146101a7578063579cdff2146101c857600080fd5b806312076ecd146100fa57806340c10f191461011f578063426eb01714610134575b600080fd5b61010261025b565b6040516001600160a01b0390911681526020015b60405180910390f35b61013261012d36600461114d565b6103a9565b005b610147610142366004611179565b6104e5565b60405161011691906111cd565b610167610162366004611179565b610634565b604080516001600160a01b039093168352602083019190915201610116565b610199610194366004611179565b610780565b604051908152602001610116565b6101ba6101b5366004611351565b610860565b6040516101169291906113d1565b6101ba6101d63660046113eb565b6109bb565b610102610b13565b6101026101f13660046113eb565b610bd7565b610102610204366004611351565b610d29565b61013261021736600461114d565b610e7e565b61010261022a366004611351565b610f27565b610102610fce565b610199610245366004611179565b611092565b6002546001600160a01b0316610102565b600080546040516308b6ac0f60e31b8152600080516020611685833981519152916345b560789161029a916001600160a01b03169081906004016113d1565b600060405180830381600087803b1580156102b457600080fd5b505af11580156102c8573d6000803e3d6000fd5b50505050600260009054906101000a90046001600160a01b03166001600160a01b03166312076ecd6040518163ffffffff1660e01b8152600401602060405180830381865afa15801561031f573d6000803e3d6000fd5b505050506040513d601f19601f820116820180604052508101906103439190611458565b90506000805160206116858339815191526001600160a01b03166390c5013b6040518163ffffffff1660e01b8152600401600060405180830381600087803b15801561038e57600080fd5b505af11580156103a2573d6000803e3d6000fd5b5050505090565b6000546040516308b6ac0f60e31b8152600080516020611685833981519152916345b56078916103e7916001600160a01b03169081906004016113d1565b600060405180830381600087803b15801561040157600080fd5b505af1158015610415573d6000803e3d6000fd5b50506002546040516340c10f1960e01b81526001600160a01b0386811660048301526024820186905290911692506340c10f1991506044015b600060405180830381600087803b15801561046857600080fd5b505af115801561047c573d6000803e3d6000fd5b505050506000805160206116858339815191526001600160a01b03166390c5013b6040518163ffffffff1660e01b8152600401600060405180830381600087803b1580156104c957600080fd5b505af11580156104dd573d6000803e3d6000fd5b505050505050565b6000546040516308b6ac0f60e31b8152606091600080516020611685833981519152916345b5607891610528916001600160a01b039091169081906004016113d1565b600060405180830381600087803b15801561054257600080fd5b505af1158015610556573d6000803e3d6000fd5b505060025460405163426eb01760e01b81526001600160a01b038681166004830152909116925063426eb0179150602401600060405180830381865afa1580156105a4573d6000803e3d6000fd5b505050506040513d6000823e601f3d908101601f191682016040526105cc9190810190611475565b90506000805160206116858339815191526001600160a01b03166390c5013b6040518163ffffffff1660e01b8152600401600060405180830381600087803b15801561061757600080fd5b505af115801561062b573d6000803e3d6000fd5b50505050919050565b600080546040516308b6ac0f60e31b81528291600080516020611685833981519152916345b5607891610677916001600160a01b039091169081906004016113d1565b600060405180830381600087803b15801561069157600080fd5b505af11580156106a5573d6000803e3d6000fd5b50506002546040516310b467bd60e21b81526001600160a01b03878116600483015290911692506342d19ef491506024016040805180830381865afa1580156106f2573d6000803e3d6000fd5b505050506040513d601f19601f820116820180604052508101906107169190611509565b915091506000805160206116858339815191526001600160a01b03166390c5013b6040518163ffffffff1660e01b8152600401600060405180830381600087803b15801561076357600080fd5b505af1158015610777573d6000803e3d6000fd5b50505050915091565b600080546040516308b6ac0f60e31b8152600080516020611685833981519152916345b56078916107bf916001600160a01b03169081906004016113d1565b600060405180830381600087803b1580156107d957600080fd5b505af11580156107ed573d6000803e3d6000fd5b505060025460405163118643b160e21b81526001600160a01b03868116600483015290911692506346190ec491506024015b602060405180830381865afa15801561083c573d6000803e3d6000fd5b505050506040513d601f19601f820116820180604052508101906105cc9190611537565b600080546040516308b6ac0f60e31b81528291600080516020611685833981519152916345b56078916108a3916001600160a01b039091169081906004016113d1565b600060405180830381600087803b1580156108bd57600080fd5b505af11580156108d1573d6000803e3d6000fd5b5050600254604051630af20cd160e31b81526001600160a01b0390911692506357906688915061090b9089908990899089906004016115ce565b60408051808303816000875af1158015610929573d6000803e3d6000fd5b505050506040513d601f19601f8201168201806040525081019061094d9190611615565b915091506000805160206116858339815191526001600160a01b03166390c5013b6040518163ffffffff1660e01b8152600401600060405180830381600087803b15801561099a57600080fd5b505af11580156109ae573d6000803e3d6000fd5b5050505094509492505050565b600080546040516308b6ac0f60e31b81528291600080516020611685833981519152916345b56078916109fe916001600160a01b039091169081906004016113d1565b600060405180830381600087803b158015610a1857600080fd5b505af1158015610a2c573d6000803e3d6000fd5b5050600254604051632bce6ff960e11b81526001600160a01b03909116925063579cdff29150610a649088908890889060040161164f565b60408051808303816000875af1158015610a82573d6000803e3d6000fd5b505050506040513d601f19601f82011682018060405250810190610aa69190611615565b915091506000805160206116858339815191526001600160a01b03166390c5013b6040518163ffffffff1660e01b8152600401600060405180830381600087803b158015610af357600080fd5b505af1158015610b07573d6000803e3d6000fd5b50505050935093915050565b600080546040516308b6ac0f60e31b8152600080516020611685833981519152916345b5607891610b52916001600160a01b03169081906004016113d1565b600060405180830381600087803b158015610b6c57600080fd5b505af1158015610b80573d6000803e3d6000fd5b50505050600260009054906101000a90046001600160a01b03166001600160a01b0316635ef449fd6040518163ffffffff1660e01b8152600401602060405180830381865afa15801561031f573d6000803e3d6000fd5b600080546040516308b6ac0f60e31b8152600080516020611685833981519152916345b5607891610c16916001600160a01b03169081906004016113d1565b600060405180830381600087803b158015610c3057600080fd5b505af1158015610c44573d6000803e3d6000fd5b5050600254604051636716466560e01b81526001600160a01b03909116925063671646659150610c7c9087908790879060040161164f565b6020604051808303816000875af1158015610c9b573d6000803e3d6000fd5b505050506040513d601f19601f82011682018060405250810190610cbf9190611458565b90506000805160206116858339815191526001600160a01b03166390c5013b6040518163ffffffff1660e01b8152600401600060405180830381600087803b158015610d0a57600080fd5b505af1158015610d1e573d6000803e3d6000fd5b505050509392505050565b600080546040516308b6ac0f60e31b8152600080516020611685833981519152916345b5607891610d68916001600160a01b03169081906004016113d1565b600060405180830381600087803b158015610d8257600080fd5b505af1158015610d96573d6000803e3d6000fd5b50506002546040516326e3a5b360e21b81526001600160a01b039091169250639b8e96cc9150610dd09088908890889088906004016115ce565b6020604051808303816000875af1158015610def573d6000803e3d6000fd5b505050506040513d601f19601f82011682018060405250810190610e139190611458565b90506000805160206116858339815191526001600160a01b03166390c5013b6040518163ffffffff1660e01b8152600401600060405180830381600087803b158015610e5e57600080fd5b505af1158015610e72573d6000803e3d6000fd5b50505050949350505050565b6000546040516308b6ac0f60e31b8152600080516020611685833981519152916345b5607891610ebc916001600160a01b03169081906004016113d1565b600060405180830381600087803b158015610ed657600080fd5b505af1158015610eea573d6000803e3d6000fd5b5050600254604051632770a7eb60e21b81526001600160a01b038681166004830152602482018690529091169250639dc29fac915060440161044e565b600080546040516308b6ac0f60e31b8152600080516020611685833981519152916345b5607891610f66916001600160a01b03169081906004016113d1565b600060405180830381600087803b158015610f8057600080fd5b505af1158015610f94573d6000803e3d6000fd5b50506002546040516351378c5960e11b81526001600160a01b03909116925063a26f18b29150610dd09088908890889088906004016115ce565b600080546040516308b6ac0f60e31b8152600080516020611685833981519152916345b560789161100d916001600160a01b03169081906004016113d1565b600060405180830381600087803b15801561102757600080fd5b505af115801561103b573d6000803e3d6000fd5b50505050600260009054906101000a90046001600160a01b03166001600160a01b031663c45a01556040518163ffffffff1660e01b8152600401602060405180830381865afa15801561031f573d6000803e3d6000fd5b600080546040516308b6ac0f60e31b8152600080516020611685833981519152916345b56078916110d1916001600160a01b03169081906004016113d1565b600060405180830381600087803b1580156110eb57600080fd5b505af11580156110ff573d6000803e3d6000fd5b50506002546040516339370aa960e21b81526001600160a01b038681166004830152909116925063e4dc2aa4915060240161081f565b6001600160a01b038116811461114a57600080fd5b50565b6000806040838503121561116057600080fd5b823561116b81611135565b946020939093013593505050565b60006020828403121561118b57600080fd5b813561119681611135565b9392505050565b60005b838110156111b85781810151838201526020016111a0565b838111156111c7576000848401525b50505050565b60208152600082518060208401526111ec81604085016020870161119d565b601f01601f19169190910160400192915050565b634e487b7160e01b600052604160045260246000fd5b604051601f8201601f1916810167ffffffffffffffff8111828210171561123f5761123f611200565b604052919050565b600067ffffffffffffffff82111561126157611261611200565b5060051b60200190565b600082601f83011261127c57600080fd5b8135602061129161128c83611247565b611216565b82815260059290921b840181019181810190868411156112b057600080fd5b8286015b848110156112d45780356112c781611135565b83529183019183016112b4565b509695505050505050565b600082601f8301126112f057600080fd5b8135602061130061128c83611247565b82815260059290921b8401810191818101908684111561131f57600080fd5b8286015b848110156112d45780356001600160e01b0319811681146113445760008081fd5b8352918301918301611323565b6000806000806080858703121561136757600080fd5b84359350602085013561137981611135565b9250604085013567ffffffffffffffff8082111561139657600080fd5b6113a28883890161126b565b935060608701359150808211156113b857600080fd5b506113c5878288016112df565b91505092959194509250565b6001600160a01b0392831681529116602082015260400190565b60008060006060848603121561140057600080fd5b83359250602084013567ffffffffffffffff8082111561141f57600080fd5b61142b8783880161126b565b9350604086013591508082111561144157600080fd5b5061144e868287016112df565b9150509250925092565b60006020828403121561146a57600080fd5b815161119681611135565b60006020828403121561148757600080fd5b815167ffffffffffffffff8082111561149f57600080fd5b818401915084601f8301126114b357600080fd5b8151818111156114c5576114c5611200565b6114d8601f8201601f1916602001611216565b91508082528560208285010111156114ef57600080fd5b61150081602084016020860161119d565b50949350505050565b6000806040838503121561151c57600080fd5b825161152781611135565b6020939093015192949293505050565b60006020828403121561154957600080fd5b5051919050565b600081518084526020808501945080840160005b838110156115895781516001600160a01b031687529582019590820190600101611564565b509495945050505050565b600081518084526020808501945080840160005b838110156115895781516001600160e01b031916875295820195908201906001016115a8565b8481526001600160a01b03841660208201526080604082018190526000906115f890830185611550565b828103606084015261160a8185611594565b979650505050505050565b6000806040838503121561162857600080fd5b825161163381611135565b602084015190925061164481611135565b809150509250929050565b8381526060602082015260006116686060830185611550565b828103604084015261167a8185611594565b969550505050505056fe0000000000000000000000007109709ecfa91a80626ff3989d68f67f5b1dd12da26469706673582212202961483acb163d93e0aa52c47aa7a53c4c57c8ad6fd96deac111e1968c2182c064736f6c634300080d0033",
    "linkReferences": {}
  },
  "methodIdentifiers": {
    "burn(address,uint256)": "9dc29fac",
    "create(bytes32,address[],bytes4[])": "67164665",
    "createCollection(bytes32,address[],bytes4[])": "579cdff2",
    "createCollectionFor(bytes32,address,address[],bytes4[])": "57906688",
    "createFor(bytes32,address,address[],bytes4[])": "9b8e96cc",
    "createInCollection(bytes32,address,address[],bytes4[])": "a26f18b2",
    "fNFT()": "5ef449fd",
    "fNFTImplementation()": "12076ecd",
    "factory()": "c45a0155",
    "mint(address,uint256)": "40c10f19",
    "nextId(address)": "46190ec4",
    "proxyContract()": "ed550443",
    "totalSupply(address)": "e4dc2aa4",
    "uri(address)": "426eb017",
    "vaultToToken(address)": "42d19ef4"
  },
  "id": 114
}