{
  "abi": [
    {
      "inputs": [
        {
          "internalType": "address",
          "name": "_registry",
          "type": "address"
        },
        {
          "internalType": "address",
          "name": "_supply",
          "type": "address"
        },
        {
          "internalType": "address",
          "name": "_transfer",
          "type": "address"
        }
      ],
      "stateMutability": "nonpayable",
      "type": "constructor"
    },
    {
      "inputs": [],
      "name": "InvalidPayment",
      "type": "error"
    },
    {
      "inputs": [
        {
          "internalType": "enum State",
          "name": "_required",
          "type": "uint8"
        },
        {
          "internalType": "enum State",
          "name": "_current",
          "type": "uint8"
        }
      ],
      "name": "InvalidState",
      "type": "error"
    },
    {
      "inputs": [],
      "name": "NoFractions",
      "type": "error"
    },
    {
      "inputs": [
        {
          "internalType": "address",
          "name": "_vault",
          "type": "address"
        }
      ],
      "name": "NotVault",
      "type": "error"
    },
    {
      "inputs": [],
      "name": "NotWinner",
      "type": "error"
    },
    {
      "inputs": [
        {
          "internalType": "uint256",
          "name": "_current",
          "type": "uint256"
        },
        {
          "internalType": "uint256",
          "name": "_deadline",
          "type": "uint256"
        }
      ],
      "name": "TimeExpired",
      "type": "error"
    },
    {
      "inputs": [
        {
          "internalType": "uint256",
          "name": "_current",
          "type": "uint256"
        },
        {
          "internalType": "uint256",
          "name": "_deadline",
          "type": "uint256"
        }
      ],
      "name": "TimeNotElapsed",
      "type": "error"
    },
    {
      "inputs": [],
      "name": "ZeroDeposit",
      "type": "error"
    },
    {
      "anonymous": false,
      "inputs": [
        {
          "indexed": true,
          "internalType": "address",
          "name": "_buyer",
          "type": "address"
        },
        {
          "indexed": false,
          "internalType": "uint256",
          "name": "_amount",
          "type": "uint256"
        }
      ],
      "name": "BuyFractions",
      "type": "event"
    },
    {
      "anonymous": false,
      "inputs": [
        {
          "indexed": false,
          "internalType": "address",
          "name": "_vault",
          "type": "address"
        },
        {
          "indexed": true,
          "internalType": "address",
          "name": "_casher",
          "type": "address"
        },
        {
          "indexed": false,
          "internalType": "uint256",
          "name": "_amount",
          "type": "uint256"
        }
      ],
      "name": "Cash",
      "type": "event"
    },
    {
      "anonymous": false,
      "inputs": [
        {
          "indexed": false,
          "internalType": "address",
          "name": "_vault",
          "type": "address"
        },
        {
          "indexed": false,
          "internalType": "enum State",
          "name": "_state",
          "type": "uint8"
        },
        {
          "indexed": true,
          "internalType": "address",
          "name": "_proposer",
          "type": "address"
        }
      ],
      "name": "End",
      "type": "event"
    },
    {
      "anonymous": false,
      "inputs": [
        {
          "indexed": false,
          "internalType": "address",
          "name": "_vault",
          "type": "address"
        },
        {
          "indexed": true,
          "internalType": "address",
          "name": "_redeemer",
          "type": "address"
        }
      ],
      "name": "Redeem",
      "type": "event"
    },
    {
      "anonymous": false,
      "inputs": [
        {
          "indexed": true,
          "internalType": "address",
          "name": "_seller",
          "type": "address"
        },
        {
          "indexed": false,
          "internalType": "uint256",
          "name": "_amount",
          "type": "uint256"
        }
      ],
      "name": "SellFractions",
      "type": "event"
    },
    {
      "anonymous": false,
      "inputs": [
        {
          "indexed": true,
          "internalType": "address",
          "name": "_vault",
          "type": "address"
        },
        {
          "indexed": true,
          "internalType": "address",
          "name": "_proposer",
          "type": "address"
        },
        {
          "indexed": false,
          "internalType": "uint256",
          "name": "_startTime",
          "type": "uint256"
        },
        {
          "indexed": false,
          "internalType": "uint256",
          "name": "_buyoutPrice",
          "type": "uint256"
        },
        {
          "indexed": false,
          "internalType": "uint256",
          "name": "_fractionPrice",
          "type": "uint256"
        }
      ],
      "name": "Start",
      "type": "event"
    },
    {
      "inputs": [],
      "name": "PROPOSAL_PERIOD",
      "outputs": [
        {
          "internalType": "uint256",
          "name": "",
          "type": "uint256"
        }
      ],
      "stateMutability": "view",
      "type": "function"
    },
    {
      "inputs": [],
      "name": "REJECTION_PERIOD",
      "outputs": [
        {
          "internalType": "uint256",
          "name": "",
          "type": "uint256"
        }
      ],
      "stateMutability": "view",
      "type": "function"
    },
    {
      "inputs": [],
      "name": "WETH_ADDRESS",
      "outputs": [
        {
          "internalType": "address payable",
          "name": "",
          "type": "address"
        }
      ],
      "stateMutability": "view",
      "type": "function"
    },
    {
      "inputs": [
        {
          "internalType": "address",
          "name": "_vault",
          "type": "address"
        },
        {
          "internalType": "address",
          "name": "_token",
          "type": "address"
        },
        {
          "internalType": "address",
          "name": "_to",
          "type": "address"
        },
        {
          "internalType": "uint256[]",
          "name": "_ids",
          "type": "uint256[]"
        },
        {
          "internalType": "uint256[]",
          "name": "_values",
          "type": "uint256[]"
        },
        {
          "internalType": "bytes32[]",
          "name": "_erc1155BatchTransferProof",
          "type": "bytes32[]"
        }
      ],
      "name": "batchWithdrawERC1155",
      "outputs": [],
      "stateMutability": "nonpayable",
      "type": "function"
    },
    {
      "inputs": [
        {
          "internalType": "address",
          "name": "_vault",
          "type": "address"
        },
        {
          "internalType": "uint256",
          "name": "_amount",
          "type": "uint256"
        }
      ],
      "name": "buyFractions",
      "outputs": [],
      "stateMutability": "payable",
      "type": "function"
    },
    {
      "inputs": [
        {
          "internalType": "address",
          "name": "",
          "type": "address"
        }
      ],
      "name": "buyoutInfo",
      "outputs": [
        {
          "internalType": "uint256",
          "name": "startTime",
          "type": "uint256"
        },
        {
          "internalType": "address",
          "name": "proposer",
          "type": "address"
        },
        {
          "internalType": "enum State",
          "name": "state",
          "type": "uint8"
        },
        {
          "internalType": "uint256",
          "name": "fractionPrice",
          "type": "uint256"
        },
        {
          "internalType": "uint256",
          "name": "ethBalance",
          "type": "uint256"
        },
        {
          "internalType": "uint256",
          "name": "lastTotalSupply",
          "type": "uint256"
        }
      ],
      "stateMutability": "view",
      "type": "function"
    },
    {
      "inputs": [
        {
          "internalType": "address",
          "name": "_vault",
          "type": "address"
        },
        {
          "internalType": "bytes32[]",
          "name": "_burnProof",
          "type": "bytes32[]"
        }
      ],
      "name": "cash",
      "outputs": [],
      "stateMutability": "nonpayable",
      "type": "function"
    },
    {
      "inputs": [
        {
          "internalType": "address",
          "name": "_vault",
          "type": "address"
        },
        {
          "internalType": "bytes32[]",
          "name": "_burnProof",
          "type": "bytes32[]"
        }
      ],
      "name": "end",
      "outputs": [],
      "stateMutability": "nonpayable",
      "type": "function"
    },
    {
      "inputs": [],
      "name": "getLeafNodes",
      "outputs": [
        {
          "internalType": "bytes32[]",
          "name": "nodes",
          "type": "bytes32[]"
        }
      ],
      "stateMutability": "view",
      "type": "function"
    },
    {
      "inputs": [],
      "name": "getPermissions",
      "outputs": [
        {
          "components": [
            {
              "internalType": "address",
              "name": "module",
              "type": "address"
            },
            {
              "internalType": "address",
              "name": "target",
              "type": "address"
            },
            {
              "internalType": "bytes4",
              "name": "selector",
              "type": "bytes4"
            }
          ],
          "internalType": "struct Permission[]",
          "name": "permissions",
          "type": "tuple[]"
        }
      ],
      "stateMutability": "view",
      "type": "function"
    },
    {
      "inputs": [
        {
          "internalType": "bytes[]",
          "name": "_data",
          "type": "bytes[]"
        }
      ],
      "name": "multicall",
      "outputs": [
        {
          "internalType": "bytes[]",
          "name": "results",
          "type": "bytes[]"
        }
      ],
      "stateMutability": "nonpayable",
      "type": "function"
    },
    {
      "inputs": [
        {
          "internalType": "address",
          "name": "",
          "type": "address"
        },
        {
          "internalType": "address",
          "name": "",
          "type": "address"
        },
        {
          "internalType": "uint256[]",
          "name": "",
          "type": "uint256[]"
        },
        {
          "internalType": "uint256[]",
          "name": "",
          "type": "uint256[]"
        },
        {
          "internalType": "bytes",
          "name": "",
          "type": "bytes"
        }
      ],
      "name": "onERC1155BatchReceived",
      "outputs": [
        {
          "internalType": "bytes4",
          "name": "",
          "type": "bytes4"
        }
      ],
      "stateMutability": "nonpayable",
      "type": "function"
    },
    {
      "inputs": [
        {
          "internalType": "address",
          "name": "",
          "type": "address"
        },
        {
          "internalType": "address",
          "name": "",
          "type": "address"
        },
        {
          "internalType": "uint256",
          "name": "",
          "type": "uint256"
        },
        {
          "internalType": "uint256",
          "name": "",
          "type": "uint256"
        },
        {
          "internalType": "bytes",
          "name": "",
          "type": "bytes"
        }
      ],
      "name": "onERC1155Received",
      "outputs": [
        {
          "internalType": "bytes4",
          "name": "",
          "type": "bytes4"
        }
      ],
      "stateMutability": "nonpayable",
      "type": "function"
    },
    {
      "inputs": [
        {
          "internalType": "address",
          "name": "",
          "type": "address"
        },
        {
          "internalType": "address",
          "name": "",
          "type": "address"
        },
        {
          "internalType": "uint256",
          "name": "",
          "type": "uint256"
        },
        {
          "internalType": "bytes",
          "name": "",
          "type": "bytes"
        }
      ],
      "name": "onERC721Received",
      "outputs": [
        {
          "internalType": "bytes4",
          "name": "",
          "type": "bytes4"
        }
      ],
      "stateMutability": "nonpayable",
      "type": "function"
    },
    {
      "inputs": [
        {
          "internalType": "address",
          "name": "_vault",
          "type": "address"
        },
        {
          "internalType": "bytes32[]",
          "name": "_burnProof",
          "type": "bytes32[]"
        }
      ],
      "name": "redeem",
      "outputs": [],
      "stateMutability": "nonpayable",
      "type": "function"
    },
    {
      "inputs": [],
      "name": "registry",
      "outputs": [
        {
          "internalType": "address",
          "name": "",
          "type": "address"
        }
      ],
      "stateMutability": "view",
      "type": "function"
    },
    {
      "inputs": [
        {
          "internalType": "address",
          "name": "_token",
          "type": "address"
        },
        {
          "internalType": "uint256",
          "name": "_id",
          "type": "uint256"
        },
        {
          "internalType": "bool",
          "name": "_approved",
          "type": "bool"
        },
        {
          "internalType": "uint256",
          "name": "_deadline",
          "type": "uint256"
        },
        {
          "internalType": "uint8",
          "name": "_v",
          "type": "uint8"
        },
        {
          "internalType": "bytes32",
          "name": "_r",
          "type": "bytes32"
        },
        {
          "internalType": "bytes32",
          "name": "_s",
          "type": "bytes32"
        }
      ],
      "name": "selfPermit",
      "outputs": [],
      "stateMutability": "nonpayable",
      "type": "function"
    },
    {
      "inputs": [
        {
          "internalType": "address",
          "name": "_token",
          "type": "address"
        },
        {
          "internalType": "bool",
          "name": "_approved",
          "type": "bool"
        },
        {
          "internalType": "uint256",
          "name": "_deadline",
          "type": "uint256"
        },
        {
          "internalType": "uint8",
          "name": "_v",
          "type": "uint8"
        },
        {
          "internalType": "bytes32",
          "name": "_r",
          "type": "bytes32"
        },
        {
          "internalType": "bytes32",
          "name": "_s",
          "type": "bytes32"
        }
      ],
      "name": "selfPermitAll",
      "outputs": [],
      "stateMutability": "nonpayable",
      "type": "function"
    },
    {
      "inputs": [
        {
          "internalType": "address",
          "name": "_vault",
          "type": "address"
        },
        {
          "internalType": "uint256",
          "name": "_amount",
          "type": "uint256"
        }
      ],
      "name": "sellFractions",
      "outputs": [],
      "stateMutability": "nonpayable",
      "type": "function"
    },
    {
      "inputs": [
        {
          "internalType": "address",
          "name": "_vault",
          "type": "address"
        }
      ],
      "name": "start",
      "outputs": [],
      "stateMutability": "payable",
      "type": "function"
    },
    {
      "inputs": [],
      "name": "supply",
      "outputs": [
        {
          "internalType": "address",
          "name": "",
          "type": "address"
        }
      ],
      "stateMutability": "view",
      "type": "function"
    },
    {
      "inputs": [],
      "name": "transfer",
      "outputs": [
        {
          "internalType": "address",
          "name": "",
          "type": "address"
        }
      ],
      "stateMutability": "view",
      "type": "function"
    },
    {
      "inputs": [
        {
          "internalType": "address",
          "name": "_vault",
          "type": "address"
        },
        {
          "internalType": "address",
          "name": "_token",
          "type": "address"
        },
        {
          "internalType": "address",
          "name": "_to",
          "type": "address"
        },
        {
          "internalType": "uint256",
          "name": "_id",
          "type": "uint256"
        },
        {
          "internalType": "uint256",
          "name": "_value",
          "type": "uint256"
        },
        {
          "internalType": "bytes32[]",
          "name": "_erc1155TransferProof",
          "type": "bytes32[]"
        }
      ],
      "name": "withdrawERC1155",
      "outputs": [],
      "stateMutability": "nonpayable",
      "type": "function"
    },
    {
      "inputs": [
        {
          "internalType": "address",
          "name": "_vault",
          "type": "address"
        },
        {
          "internalType": "address",
          "name": "_token",
          "type": "address"
        },
        {
          "internalType": "address",
          "name": "_to",
          "type": "address"
        },
        {
          "internalType": "uint256",
          "name": "_value",
          "type": "uint256"
        },
        {
          "internalType": "bytes32[]",
          "name": "_erc20TransferProof",
          "type": "bytes32[]"
        }
      ],
      "name": "withdrawERC20",
      "outputs": [],
      "stateMutability": "nonpayable",
      "type": "function"
    },
    {
      "inputs": [
        {
          "internalType": "address",
          "name": "_vault",
          "type": "address"
        },
        {
          "internalType": "address",
          "name": "_token",
          "type": "address"
        },
        {
          "internalType": "address",
          "name": "_to",
          "type": "address"
        },
        {
          "internalType": "uint256",
          "name": "_tokenId",
          "type": "uint256"
        },
        {
          "internalType": "bytes32[]",
          "name": "_erc721TransferProof",
          "type": "bytes32[]"
        }
      ],
      "name": "withdrawERC721",
      "outputs": [],
      "stateMutability": "nonpayable",
      "type": "function"
    },
    {
      "stateMutability": "payable",
      "type": "receive"
    }
  ],
  "bytecode": {
    "object": "0x60806040523480156200001157600080fd5b50604051620035d8380380620035d8833981016040819052620000349162000094565b600080546001600160a01b039485166001600160a01b031991821617909155600180549385169382169390931790925560028054919093169116179055620000de565b80516001600160a01b03811681146200008f57600080fd5b919050565b600080600060608486031215620000aa57600080fd5b620000b58462000077565b9250620000c56020850162000077565b9150620000d56040850162000077565b90509250925092565b6134ea80620000ee6000396000f3fe60806040526004361061016a5760003560e01c8063ac9650d8116100d1578063c3a07df61161008a578063d87ed5e011610064578063d87ed5e0146104cd578063dd0b281e146104e4578063eea47730146104f7578063f23a6e611461051757600080fd5b8063c3a07df614610469578063c42a58171461048b578063cbbb4ac5146104ab57600080fd5b8063ac9650d814610335578063b1117e9e14610362578063b43adf1114610382578063b5bb74a7146103a2578063bc197c8114610415578063bc95831b1461044457600080fd5b80637a607ce6116101235780637a607ce6146102825780637b103999146102a25780637d0c4eae146102c257806386771337146102e25780638a4068dd146102f5578063a0e056261461031557600080fd5b8063040141e514610176578063047fc9aa146101bb578063150b7a02146101db5780631579529a146102205780634acb7fd4146102425780634e8c70f91461026257600080fd5b3661017157005b600080fd5b34801561018257600080fd5b5061019e73c02aaa39b223fe8d0a0e5c4f27ead9083c756cc281565b6040516001600160a01b0390911681526020015b60405180910390f35b3480156101c757600080fd5b5060015461019e906001600160a01b031681565b3480156101e757600080fd5b506102076101f6366004612948565b630a85bd0160e11b95945050505050565b6040516001600160e01b031990911681526020016101b2565b34801561022c57600080fd5b5061024061023b3660046129fe565b610544565b005b34801561024e57600080fd5b5061024061025d366004612a52565b6108e1565b34801561026e57600080fd5b5061024061027d3660046129fe565b610b6a565b34801561028e57600080fd5b5061024061029d3660046129fe565b611043565b3480156102ae57600080fd5b5060005461019e906001600160a01b031681565b3480156102ce57600080fd5b506102406102dd366004612a7e565b61134d565b6102406102f0366004612a52565b611595565b34801561030157600080fd5b5060025461019e906001600160a01b031681565b34801561032157600080fd5b50610240610330366004612b51565b61181e565b34801561034157600080fd5b50610355610350366004612bd5565b611a81565b6040516101b29190612c72565b34801561036e57600080fd5b5061024061037d366004612cf8565b611ba5565b34801561038e57600080fd5b5061024061039d366004612b51565b611c32565b3480156103ae57600080fd5b506104036103bd366004612d5b565b60036020819052600091825260409091208054600182015460028301549383015460049093015491936001600160a01b03821693600160a01b90920460ff169290919086565b6040516101b296959493929190612db7565b34801561042157600080fd5b50610207610430366004612df7565b63bc197c8160e01b98975050505050505050565b34801561045057600080fd5b5061045b6205460081565b6040519081526020016101b2565b34801561047557600080fd5b5061047e611e37565b6040516101b29190612ee6565b34801561049757600080fd5b506102406104a6366004612f34565b612010565b3480156104b757600080fd5b506104c0612270565b6040516101b29190612fc2565b3480156104d957600080fd5b5061045b6202a30081565b6102406104f2366004612d5b565b612315565b34801561050357600080fd5b50610240610512366004612ffa565b612734565b34801561052357600080fd5b50610207610532366004613068565b63f23a6e6160e01b9695505050505050565b600080546040516310b467bd60e21b81526001600160a01b038681166004830152839216906342d19ef4906024016040805180830381865afa15801561058e573d6000803e3d6000fd5b505050506040513d601f19601f820116820180604052508101906105b291906130d1565b91509150806000036105e75760405163e9d6016160e01b81526001600160a01b03861660048201526024015b60405180910390fd5b60405163b5bb74a760e01b81526001600160a01b03861660048201526000908190309063b5bb74a79060240160c060405180830381865afa158015610630573d6000803e3d6000fd5b505050506040513d601f19601f8201168201806040525081019061065491906130ff565b50919550909350600292508291506106699050565b83600281111561067b5761067b612d7f565b1461069d578083604051633bf2e2f960e11b81526004016105de929190613162565b604051627eeac760e11b8152336004820152602481018590526000906001600160a01b0387169062fdd58e90604401602060405180830381865afa1580156106e9573d6000803e3d6000fd5b505050506040513d601f19601f8201168201806040525081019061070d919061317d565b9050806000036107305760405163548d105d60e11b815260040160405180910390fd5b6040513360248201526044810182905260009060640160408051601f198184030181529181526020820180516001600160e01b0316632770a7eb60e21b179052600154905163601b8af360e01b81529192506001600160a01b03808d169263601b8af3926107a892169085908e908e906004016131cc565b6000604051808303816000875af11580156107c7573d6000803e3d6000fd5b505050506040513d6000823e601f3d908101601f191682016040526107ef9190810190613224565b5050600080546040516339370aa960e21b81526001600160a01b038d811660048301529091169063e4dc2aa490602401602060405180830381865afa15801561083c573d6000803e3d6000fd5b505050506040513d601f19601f82011682018060405250810190610860919061317d565b9050600061086e84836132fc565b6108788786613314565b6108829190613333565b905061088e33826127ca565b604080516001600160a01b038e1681526020810183905233917f28703a2ab897b375324b382706bec3484f0eea5d8e3c521edde1621ea112801091015b60405180910390a2505050505050505050505050565b600080546040516310b467bd60e21b81526001600160a01b038581166004830152839216906342d19ef4906024016040805180830381865afa15801561092b573d6000803e3d6000fd5b505050506040513d601f19601f8201168201806040525081019061094f91906130d1565b915091508060000361097f5760405163e9d6016160e01b81526001600160a01b03851660048201526024016105de565b60405163b5bb74a760e01b81526001600160a01b038516600482015260009081908190309063b5bb74a79060240160c060405180830381865afa1580156109ca573d6000803e3d6000fd5b505050506040513d601f19601f820116820180604052508101906109ee91906130ff565b50939650909450925060019150819050836002811115610a1057610a10612d7f565b14610a32578083604051633bf2e2f960e11b81526004016105de929190613162565b6000610a416202a300866132fc565b905080421115610a6d576040516308d33d4960e21b8152426004820152602481018290526044016105de565b604051637921219560e11b81526001600160a01b0388169063f242432a90610a9f90339030908b908e90600401613355565b600060405180830381600087803b158015610ab957600080fd5b505af1158015610acd573d6000803e3d6000fd5b5050505060008884610adf9190613314565b905080600360008c6001600160a01b03166001600160a01b031681526020019081526020016000206003016000828254610b19919061338d565b90915550610b29905033826127ca565b60405189815233907fd88d04a19bb03626e205e6da078f65eb37fe7ce82a16ffa986fb07e438ccef5d9060200160405180910390a250505050505050505050565b600080546040516310b467bd60e21b81526001600160a01b038681166004830152839216906342d19ef4906024016040805180830381865afa158015610bb4573d6000803e3d6000fd5b505050506040513d601f19601f82011682018060405250810190610bd891906130d1565b9150915080600003610c085760405163e9d6016160e01b81526001600160a01b03861660048201526024016105de565b60405163b5bb74a760e01b81526001600160a01b0386166004820152600090819081908190309063b5bb74a79060240160c060405180830381865afa158015610c55573d6000803e3d6000fd5b505050506040513d601f19601f82011682018060405250810190610c7991906130ff565b5093975091955093509091506001905080836002811115610c9c57610c9c612d7f565b14610cbe578083604051633bf2e2f960e11b81526004016105de929190613162565b6000610ccd62054600876132fc565b9050804211610cf857604051636ec509e960e11b8152426004820152602481018290526044016105de565b604051627eeac760e11b8152306004820152602481018890526000906001600160a01b038a169062fdd58e90604401602060405180830381865afa158015610d44573d6000803e3d6000fd5b505050506040513d601f19601f82011682018060405250810190610d68919061317d565b6000546040516339370aa960e21b81526001600160a01b038f811660048301529293506101f4929091169063e4dc2aa490602401602060405180830381865afa158015610db9573d6000803e3d6000fd5b505050506040513d601f19601f82011682018060405250810190610ddd919061317d565b610de9836103e8613314565b610df39190613333565b1115610f4e5760405130602482015260448101829052600090606401604051602081830303815290604052639dc29fac60e01b6020820180516001600160e01b03838183161783525050505090508c6001600160a01b031663601b8af3600160009054906101000a90046001600160a01b0316838f8f6040518563ffffffff1660e01b8152600401610e8894939291906131cc565b6000604051808303816000875af1158015610ea7573d6000803e3d6000fd5b505050506040513d6000823e601f3d908101601f19168201604052610ecf9190810190613224565b50506001600160a01b038d16600090815260036020526040902060010180546002919060ff60a01b1916600160a01b830217905550866001600160a01b03167f75ba84bbdf05f795a76fbea1eff9560588a68bf79c097aedad8a43a6c393cf218e6002604051610f409291906133a4565b60405180910390a250611035565b6001600160a01b03808d1660009081526003602081905260408083208381556001810180546001600160a81b0319169055600281018490559182018390556004918201929092559051637921219560e11b8152918b169163f242432a91610fbd9130918b918e91889101613355565b600060405180830381600087803b158015610fd757600080fd5b505af1158015610feb573d6000803e3d6000fd5b50505050610ff986856127ca565b856001600160a01b03167f75ba84bbdf05f795a76fbea1eff9560588a68bf79c097aedad8a43a6c393cf218d60006040516108cb9291906133a4565b505050505050505050505050565b600080546040516310b467bd60e21b81526001600160a01b038681166004830152909116906342d19ef4906024016040805180830381865afa15801561108d573d6000803e3d6000fd5b505050506040513d601f19601f820116820180604052508101906110b191906130d1565b915050806000036110e05760405163e9d6016160e01b81526001600160a01b03851660048201526024016105de565b60405163b5bb74a760e01b81526001600160a01b0385166004820152600090309063b5bb74a79060240160c060405180830381865afa158015611127573d6000803e3d6000fd5b505050506040513d601f19601f8201168201806040525081019061114b91906130ff565b50505092505050600080600281111561116657611166612d7f565b82600281111561117857611178612d7f565b1461119a578082604051633bf2e2f960e11b81526004016105de929190613162565b600080546040516339370aa960e21b81526001600160a01b0389811660048301529091169063e4dc2aa490602401602060405180830381865afa1580156111e5573d6000803e3d6000fd5b505050506040513d601f19601f82011682018060405250810190611209919061317d565b6040513360248201526044810182905290915060009060640160408051601f198184030181529181526020820180516001600160e01b0316632770a7eb60e21b179052600154905163601b8af360e01b81529192506001600160a01b03808b169263601b8af39261128492169085908c908c906004016131cc565b6000604051808303816000875af11580156112a3573d6000803e3d6000fd5b505050506040513d6000823e601f3d908101601f191682016040526112cb9190810190613224565b50506001600160a01b0388166000818152600360209081526040918290206001018054600160a11b60ff60a01b19339081166001600160a81b03199093169290921717909155915192835290917f2f39d8fc9160ae00ea6a02229ae376184d7ad48d669c511863fedeb3f6f27edf910160405180910390a25050505050505050565b600080546040516310b467bd60e21b81526001600160a01b038c81166004830152909116906342d19ef4906024016040805180830381865afa158015611397573d6000803e3d6000fd5b505050506040513d601f19601f820116820180604052508101906113bb91906130d1565b915050806000036113ea5760405163e9d6016160e01b81526001600160a01b038b1660048201526024016105de565b60405163b5bb74a760e01b81526001600160a01b038b1660048201526000908190309063b5bb74a79060240160c060405180830381865afa158015611433573d6000803e3d6000fd5b505050506040513d601f19601f8201168201806040525081019061145791906130ff565b509295509093506002925082915061146c9050565b82600281111561147e5761147e612d7f565b146114a0578082604051633bf2e2f960e11b81526004016105de929190613162565b336001600160a01b038416146114c9576040516330c6392160e11b815260040160405180910390fd5b505050506000888a89898989896040516024016114ec97969594939291906133c1565b60408051601f198184030181529181526020820180516001600160e01b0316633b553cd960e11b179052600254905163601b8af360e01b81529192506001600160a01b03808d169263601b8af39261154e9216908590889088906004016131cc565b6000604051808303816000875af115801561156d573d6000803e3d6000fd5b505050506040513d6000823e601f3d908101601f191682016040526110359190810190613224565b600080546040516310b467bd60e21b81526001600160a01b038581166004830152839216906342d19ef4906024016040805180830381865afa1580156115df573d6000803e3d6000fd5b505050506040513d601f19601f8201168201806040525081019061160391906130d1565b91509150806000036116335760405163e9d6016160e01b81526001600160a01b03851660048201526024016105de565b60405163b5bb74a760e01b81526001600160a01b038516600482015260009081908190309063b5bb74a79060240160c060405180830381865afa15801561167e573d6000803e3d6000fd5b505050506040513d601f19601f820116820180604052508101906116a291906130ff565b509396509094509250600191508190508360028111156116c4576116c4612d7f565b146116e6578083604051633bf2e2f960e11b81526004016105de929190613162565b60006116f562054600866132fc565b905080421115611721576040516308d33d4960e21b8152426004820152602481018290526044016105de565b61172b8884613314565b341461174a5760405163078d696560e31b815260040160405180910390fd5b604051637921219560e11b81526001600160a01b0388169063f242432a9061177c90309033908b908e90600401613355565b600060405180830381600087803b15801561179657600080fd5b505af11580156117aa573d6000803e3d6000fd5b505050506001600160a01b038916600090815260036020819052604082200180543492906117d99084906132fc565b909155505060405188815233907ff784c92911ce2a81c1346b2010b48ca71be7f4478ad7ba7450316c16e085c1959060200160405180910390a2505050505050505050565b600080546040516310b467bd60e21b81526001600160a01b038981166004830152909116906342d19ef4906024016040805180830381865afa158015611868573d6000803e3d6000fd5b505050506040513d601f19601f8201168201806040525081019061188c91906130d1565b915050806000036118bb5760405163e9d6016160e01b81526001600160a01b03881660048201526024016105de565b60405163b5bb74a760e01b81526001600160a01b03881660048201526000908190309063b5bb74a79060240160c060405180830381865afa158015611904573d6000803e3d6000fd5b505050506040513d601f19601f8201168201806040525081019061192891906130ff565b509295509093506002925082915061193d9050565b82600281111561194f5761194f612d7f565b14611971578082604051633bf2e2f960e11b81526004016105de929190613162565b336001600160a01b0384161461199a576040516330c6392160e11b815260040160405180910390fd5b6040516001600160a01b03808b166024830152808c166044830152891660648201526084810188905260009060a40160408051601f198184030181529181526020820180516001600160e01b03166318c4eeed60e01b179052600254905163601b8af360e01b81529192506001600160a01b03808e169263601b8af392611a2b92169085908c908c906004016131cc565b6000604051808303816000875af1158015611a4a573d6000803e3d6000fd5b505050506040513d6000823e601f3d908101601f19168201604052611a729190810190613224565b50505050505050505050505050565b606081806001600160401b03811115611a9c57611a9c61320e565b604051908082528060200260200182016040528015611acf57816020015b6060815260200190600190039081611aba5790505b5091506000805b82811015611b9c57606030878784818110611af357611af3613417565b9050602002810190611b05919061342d565b604051611b13929190613473565b600060405180830381855af49150503d8060008114611b4e576040519150601f19603f3d011682016040523d82523d6000602084013e611b53565b606091505b50909350905082611b75578051600003611b6c57600080fd5b611b75816128cc565b80858381518110611b8857611b88613417565b602090810291909101015250600101611ad6565b50505092915050565b6040516367d47da160e11b815233600482015230602482015285151560448201526064810185905260ff8416608482015260a4810183905260c481018290526001600160a01b0387169063cfa8fb429060e401600060405180830381600087803b158015611c1257600080fd5b505af1158015611c26573d6000803e3d6000fd5b50505050505050505050565b600080546040516310b467bd60e21b81526001600160a01b038981166004830152909116906342d19ef4906024016040805180830381865afa158015611c7c573d6000803e3d6000fd5b505050506040513d601f19601f82011682018060405250810190611ca091906130d1565b91505080600003611ccf5760405163e9d6016160e01b81526001600160a01b03881660048201526024016105de565b60405163b5bb74a760e01b81526001600160a01b03881660048201526000908190309063b5bb74a79060240160c060405180830381865afa158015611d18573d6000803e3d6000fd5b505050506040513d601f19601f82011682018060405250810190611d3c91906130ff565b5092955090935060029250829150611d519050565b826002811115611d6357611d63612d7f565b14611d85578082604051633bf2e2f960e11b81526004016105de929190613162565b336001600160a01b03841614611dae576040516330c6392160e11b815260040160405180910390fd5b6040516001600160a01b03808b166024830152891660448201526064810188905260009060840160408051601f198184030181529181526020820180516001600160e01b03166372cfee9b60e11b179052600254905163601b8af360e01b81529192506001600160a01b03808e169263601b8af392611a2b92169085908c908c906004016131cc565b60408051600580825260c08201909252606091816020015b6040805160608101825260008082526020808301829052928201528252600019909201910181611e4f575050604080516060810182523081526001546001600160a01b03166020820152632770a7eb60e21b918101919091528151919250908290600090611ebf57611ebf613417565b602090810291909101810191909152604080516060810182523081526002546001600160a01b0316928101929092526372cfee9b60e11b90820152815182906001908110611f0f57611f0f613417565b60209081029190910181019190915260408051606081018252308152600280546001600160a01b0316938201939093526318c4eeed60e01b918101919091528251909183918110611f6257611f62613417565b602090810291909101810191909152604080516060810182523081526002546001600160a01b0316928101929092526368e72e4960e01b90820152815182906003908110611fb257611fb2613417565b602090810291909101810191909152604080516060810182523081526002546001600160a01b031692810192909252633b553cd960e11b9082015281518290600490811061200257612002613417565b602002602001018190525090565b600080546040516310b467bd60e21b81526001600160a01b038a81166004830152909116906342d19ef4906024016040805180830381865afa15801561205a573d6000803e3d6000fd5b505050506040513d601f19601f8201168201806040525081019061207e91906130d1565b915050806000036120ad5760405163e9d6016160e01b81526001600160a01b03891660048201526024016105de565b60405163b5bb74a760e01b81526001600160a01b03891660048201526000908190309063b5bb74a79060240160c060405180830381865afa1580156120f6573d6000803e3d6000fd5b505050506040513d601f19601f8201168201806040525081019061211a91906130ff565b509295509093506002925082915061212f9050565b82600281111561214157612141612d7f565b14612163578082604051633bf2e2f960e11b81526004016105de929190613162565b336001600160a01b0384161461218c576040516330c6392160e11b815260040160405180910390fd5b50506040516001600160a01b03808a166024830152808b166044830152881660648201526084810187905260a481018690526000925060c401905060408051601f198184030181529181526020820180516001600160e01b03166368e72e4960e01b179052600254905163601b8af360e01b81529192506001600160a01b03808b169263601b8af3926122299216908590889088906004016131cc565b6000604051808303816000875af1158015612248573d6000803e3d6000fd5b505050506040513d6000823e601f3d908101601f19168201604052611c269190810190613224565b60408051600580825260c082019092526060916020820160a080368337019050509050600061229d611e37565b905060005b8151811015612310578181815181106122bd576122bd613417565b60200260200101516040516020016122d59190613483565b604051602081830303815290604052805190602001208382815181106122fd576122fd613417565b60209081029190910101526001016122a2565b505090565b34600003612336576040516356316e8760e01b815260040160405180910390fd5b600080546040516310b467bd60e21b81526001600160a01b038481166004830152839216906342d19ef4906024016040805180830381865afa158015612380573d6000803e3d6000fd5b505050506040513d601f19601f820116820180604052508101906123a491906130d1565b91509150806000036123d45760405163e9d6016160e01b81526001600160a01b03841660048201526024016105de565b60405163b5bb74a760e01b81526001600160a01b0384166004820152600090309063b5bb74a79060240160c060405180830381865afa15801561241b573d6000803e3d6000fd5b505050506040513d601f19601f8201168201806040525081019061243f91906130ff565b50505092505050600080600281111561245a5761245a612d7f565b82600281111561246c5761246c612d7f565b1461248e578082604051633bf2e2f960e11b81526004016105de929190613162565b600080546040516339370aa960e21b81526001600160a01b0388811660048301529091169063e4dc2aa490602401602060405180830381865afa1580156124d9573d6000803e3d6000fd5b505050506040513d601f19601f820116820180604052508101906124fd919061317d565b604051627eeac760e11b8152336004820152602481018690529091506000906001600160a01b0387169062fdd58e90604401602060405180830381865afa15801561254c573d6000803e3d6000fd5b505050506040513d601f19601f82011682018060405250810190612570919061317d565b604051637921219560e11b81529091506001600160a01b0387169063f242432a906125a590339030908a908790600401613355565b600060405180830381600087803b1580156125bf57600080fd5b505af11580156125d3573d6000803e3d6000fd5b505050506000828260646125e79190613314565b6125f19190613333565b6125fc90606461338d565b612607346064613314565b6126119190613333565b9050600061261f8483613333565b6040805160c08101825242815233602082015291925081016001815260208082018490523460408084019190915260609092018790526001600160a01b03808d166000908152600383528390208451815591840151600183018054919092166001600160a01b03198216811783559385015192936001600160a81b031990911617600160a01b8360028111156126b7576126b7612d7f565b021790555060608281015160028301556080830151600383015560a090920151600490910155604080514281526020810185905290810183905233916001600160a01b038c16917f6da98559a575ee7b022dcfd0d5f5bfd8650e70446c2b2b663fa7b7f3a18b2d09910160405180910390a3505050505050505050565b604051630b3367b560e21b81523360048201523060248201526044810187905285151560648201526084810185905260ff841660a482015260c4810183905260e481018290526001600160a01b03881690632ccd9ed49061010401600060405180830381600087803b1580156127a957600080fd5b505af11580156127bd573d6000803e3d6000fd5b5050505050505050505050565b6127d482826128d5565b6128c85773c02aaa39b223fe8d0a0e5c4f27ead9083c756cc26001600160a01b031663d0e30db0826040518263ffffffff1660e01b81526004016000604051808303818588803b15801561282757600080fd5b505af115801561283b573d6000803e3d6000fd5b505060405163a9059cbb60e01b81526001600160a01b03861660048201526024810185905273c02aaa39b223fe8d0a0e5c4f27ead9083c756cc2935063a9059cbb925060440190506020604051808303816000875af11580156128a2573d6000803e3d6000fd5b505050506040513d601f19601f820116820180604052508101906128c69190613497565b505b5050565b80518082602001fd5b600080600080600085875af19392505050565b6001600160a01b03811681146128fd57600080fd5b50565b60008083601f84011261291257600080fd5b5081356001600160401b0381111561292957600080fd5b60208301915083602082850101111561294157600080fd5b9250929050565b60008060008060006080868803121561296057600080fd5b853561296b816128e8565b9450602086013561297b816128e8565b93506040860135925060608601356001600160401b0381111561299d57600080fd5b6129a988828901612900565b969995985093965092949392505050565b60008083601f8401126129cc57600080fd5b5081356001600160401b038111156129e357600080fd5b6020830191508360208260051b850101111561294157600080fd5b600080600060408486031215612a1357600080fd5b8335612a1e816128e8565b925060208401356001600160401b03811115612a3957600080fd5b612a45868287016129ba565b9497909650939450505050565b60008060408385031215612a6557600080fd5b8235612a70816128e8565b946020939093013593505050565b600080600080600080600080600060c08a8c031215612a9c57600080fd5b8935612aa7816128e8565b985060208a0135612ab7816128e8565b975060408a0135612ac7816128e8565b965060608a01356001600160401b0380821115612ae357600080fd5b612aef8d838e016129ba565b909850965060808c0135915080821115612b0857600080fd5b612b148d838e016129ba565b909650945060a08c0135915080821115612b2d57600080fd5b50612b3a8c828d016129ba565b915080935050809150509295985092959850929598565b60008060008060008060a08789031215612b6a57600080fd5b8635612b75816128e8565b95506020870135612b85816128e8565b94506040870135612b95816128e8565b93506060870135925060808701356001600160401b03811115612bb757600080fd5b612bc389828a016129ba565b979a9699509497509295939492505050565b60008060208385031215612be857600080fd5b82356001600160401b03811115612bfe57600080fd5b612c0a858286016129ba565b90969095509350505050565b60005b83811015612c31578181015183820152602001612c19565b83811115612c40576000848401525b50505050565b60008151808452612c5e816020860160208601612c16565b601f01601f19169290920160200192915050565b6000602080830181845280855180835260408601915060408160051b870101925083870160005b82811015612cc757603f19888603018452612cb5858351612c46565b94509285019290850190600101612c99565b5092979650505050505050565b80151581146128fd57600080fd5b803560ff81168114612cf357600080fd5b919050565b60008060008060008060c08789031215612d1157600080fd5b8635612d1c816128e8565b95506020870135612d2c81612cd4565b945060408701359350612d4160608801612ce2565b92506080870135915060a087013590509295509295509295565b600060208284031215612d6d57600080fd5b8135612d78816128e8565b9392505050565b634e487b7160e01b600052602160045260246000fd5b60038110612db357634e487b7160e01b600052602160045260246000fd5b9052565b8681526001600160a01b038616602082015260c08101612dda6040830187612d95565b8460608301528360808301528260a0830152979650505050505050565b60008060008060008060008060a0898b031215612e1357600080fd5b8835612e1e816128e8565b97506020890135612e2e816128e8565b965060408901356001600160401b0380821115612e4a57600080fd5b612e568c838d016129ba565b909850965060608b0135915080821115612e6f57600080fd5b612e7b8c838d016129ba565b909650945060808b0135915080821115612e9457600080fd5b50612ea18b828c01612900565b999c989b5096995094979396929594505050565b80516001600160a01b039081168352602080830151909116908301526040908101516001600160e01b031916910152565b6020808252825182820181905260009190848201906040850190845b81811015612f2857612f15838551612eb5565b9284019260609290920191600101612f02565b50909695505050505050565b600080600080600080600060c0888a031215612f4f57600080fd5b8735612f5a816128e8565b96506020880135612f6a816128e8565b95506040880135612f7a816128e8565b9450606088013593506080880135925060a08801356001600160401b03811115612fa357600080fd5b612faf8a828b016129ba565b989b979a50959850939692959293505050565b6020808252825182820181905260009190848201906040850190845b81811015612f2857835183529284019291840191600101612fde565b600080600080600080600060e0888a03121561301557600080fd5b8735613020816128e8565b965060208801359550604088013561303781612cd4565b94506060880135935061304c60808901612ce2565b925060a0880135915060c0880135905092959891949750929550565b60008060008060008060a0878903121561308157600080fd5b863561308c816128e8565b9550602087013561309c816128e8565b9450604087013593506060870135925060808701356001600160401b038111156130c557600080fd5b612bc389828a01612900565b600080604083850312156130e457600080fd5b82516130ef816128e8565b6020939093015192949293505050565b60008060008060008060c0878903121561311857600080fd5b86519550602087015161312a816128e8565b60408801519095506003811061313f57600080fd5b80945050606087015192506080870151915060a087015190509295509295509295565b604081016131708285612d95565b612d786020830184612d95565b60006020828403121561318f57600080fd5b5051919050565b81835260006001600160fb1b038311156131af57600080fd5b8260051b8083602087013760009401602001938452509192915050565b6001600160a01b03851681526060602082018190526000906131f090830186612c46565b8281036040840152613203818587613196565b979650505050505050565b634e487b7160e01b600052604160045260246000fd5b6000806040838503121561323757600080fd5b825161324281612cd4565b60208401519092506001600160401b038082111561325f57600080fd5b818501915085601f83011261327357600080fd5b8151818111156132855761328561320e565b604051601f8201601f19908116603f011681019083821181831017156132ad576132ad61320e565b816040528281528860208487010111156132c657600080fd5b6132d7836020830160208801612c16565b80955050505050509250929050565b634e487b7160e01b600052601160045260246000fd5b6000821982111561330f5761330f6132e6565b500190565b600081600019048311821515161561332e5761332e6132e6565b500290565b60008261335057634e487b7160e01b600052601260045260246000fd5b500490565b6001600160a01b0394851681529290931660208301526040820152606081019190915260a06080820181905260009082015260c00190565b60008282101561339f5761339f6132e6565b500390565b6001600160a01b038316815260408101612d786020830184612d95565b6001600160a01b03888116825287811660208301528616604082015260a0606082018190526000906133f69083018688613196565b8281036080840152613409818587613196565b9a9950505050505050505050565b634e487b7160e01b600052603260045260246000fd5b6000808335601e1984360301811261344457600080fd5b8301803591506001600160401b0382111561345e57600080fd5b60200191503681900382131561294157600080fd5b8183823760009101908152919050565b606081016134918284612eb5565b92915050565b6000602082840312156134a957600080fd5b8151612d7881612cd456fea2646970667358221220ddd0a456c244d878c268b4bacdcce76219efaa81dd780740ce167ce93cbc119e64736f6c634300080d0033",
    "linkReferences": {}
  },
  "methodIdentifiers": {
    "PROPOSAL_PERIOD()": "d87ed5e0",
    "REJECTION_PERIOD()": "bc95831b",
    "WETH_ADDRESS()": "040141e5",
    "batchWithdrawERC1155(address,address,address,uint256[],uint256[],bytes32[])": "7d0c4eae",
    "buyFractions(address,uint256)": "86771337",
    "buyoutInfo(address)": "b5bb74a7",
    "cash(address,bytes32[])": "1579529a",
    "end(address,bytes32[])": "4e8c70f9",
    "getLeafNodes()": "cbbb4ac5",
    "getPermissions()": "c3a07df6",
    "multicall(bytes[])": "ac9650d8",
    "onERC1155BatchReceived(address,address,uint256[],uint256[],bytes)": "bc197c81",
    "onERC1155Received(address,address,uint256,uint256,bytes)": "f23a6e61",
    "onERC721Received(address,address,uint256,bytes)": "150b7a02",
    "redeem(address,bytes32[])": "7a607ce6",
    "registry()": "7b103999",
    "selfPermit(address,uint256,bool,uint256,uint8,bytes32,bytes32)": "eea47730",
    "selfPermitAll(address,bool,uint256,uint8,bytes32,bytes32)": "b1117e9e",
    "sellFractions(address,uint256)": "4acb7fd4",
    "start(address)": "dd0b281e",
    "supply()": "047fc9aa",
    "transfer()": "8a4068dd",
    "withdrawERC1155(address,address,address,uint256,uint256,bytes32[])": "c42a5817",
    "withdrawERC20(address,address,address,uint256,bytes32[])": "b43adf11",
    "withdrawERC721(address,address,address,uint256,bytes32[])": "a0e05626"
  },
  "id": 45
}