{
  "abi": [
    {
      "inputs": [
        {
          "internalType": "address",
          "name": "_registry",
          "type": "address"
        },
        {
          "internalType": "address",
          "name": "_supply",
          "type": "address"
        }
      ],
      "stateMutability": "nonpayable",
      "type": "constructor"
    },
    {
      "anonymous": false,
      "inputs": [
        {
          "indexed": true,
          "internalType": "address",
          "name": "_vault",
          "type": "address"
        },
        {
          "indexed": false,
          "internalType": "address[]",
          "name": "_modules",
          "type": "address[]"
        }
      ],
      "name": "ActiveModules",
      "type": "event"
    },
    {
      "inputs": [
        {
          "internalType": "address",
          "name": "_from",
          "type": "address"
        },
        {
          "internalType": "address",
          "name": "_to",
          "type": "address"
        },
        {
          "internalType": "address[]",
          "name": "_tokens",
          "type": "address[]"
        },
        {
          "internalType": "uint256[]",
          "name": "_ids",
          "type": "uint256[]"
        },
        {
          "internalType": "uint256[]",
          "name": "_amounts",
          "type": "uint256[]"
        },
        {
          "internalType": "bytes[]",
          "name": "_datas",
          "type": "bytes[]"
        }
      ],
      "name": "batchDepositERC1155",
      "outputs": [],
      "stateMutability": "nonpayable",
      "type": "function"
    },
    {
      "inputs": [
        {
          "internalType": "address",
          "name": "_from",
          "type": "address"
        },
        {
          "internalType": "address",
          "name": "_to",
          "type": "address"
        },
        {
          "internalType": "address[]",
          "name": "_tokens",
          "type": "address[]"
        },
        {
          "internalType": "uint256[]",
          "name": "_amounts",
          "type": "uint256[]"
        }
      ],
      "name": "batchDepositERC20",
      "outputs": [],
      "stateMutability": "nonpayable",
      "type": "function"
    },
    {
      "inputs": [
        {
          "internalType": "address",
          "name": "_from",
          "type": "address"
        },
        {
          "internalType": "address",
          "name": "_to",
          "type": "address"
        },
        {
          "internalType": "address[]",
          "name": "_tokens",
          "type": "address[]"
        },
        {
          "internalType": "uint256[]",
          "name": "_ids",
          "type": "uint256[]"
        }
      ],
      "name": "batchDepositERC721",
      "outputs": [],
      "stateMutability": "nonpayable",
      "type": "function"
    },
    {
      "inputs": [
        {
          "internalType": "uint256",
          "name": "_fractionSupply",
          "type": "uint256"
        },
        {
          "internalType": "address[]",
          "name": "_modules",
          "type": "address[]"
        },
        {
          "internalType": "address[]",
          "name": "_plugins",
          "type": "address[]"
        },
        {
          "internalType": "bytes4[]",
          "name": "_selectors",
          "type": "bytes4[]"
        },
        {
          "internalType": "bytes32[]",
          "name": "_mintProof",
          "type": "bytes32[]"
        }
      ],
      "name": "deployVault",
      "outputs": [
        {
          "internalType": "address",
          "name": "vault",
          "type": "address"
        }
      ],
      "stateMutability": "nonpayable",
      "type": "function"
    },
    {
      "inputs": [
        {
          "internalType": "address[]",
          "name": "_modules",
          "type": "address[]"
        }
      ],
      "name": "generateMerkleTree",
      "outputs": [
        {
          "internalType": "bytes32[]",
          "name": "hashes",
          "type": "bytes32[]"
        }
      ],
      "stateMutability": "view",
      "type": "function"
    },
    {
      "inputs": [],
      "name": "getLeafNodes",
      "outputs": [
        {
          "internalType": "bytes32[]",
          "name": "nodes",
          "type": "bytes32[]"
        }
      ],
      "stateMutability": "view",
      "type": "function"
    },
    {
      "inputs": [],
      "name": "getPermissions",
      "outputs": [
        {
          "components": [
            {
              "internalType": "address",
              "name": "module",
              "type": "address"
            },
            {
              "internalType": "address",
              "name": "target",
              "type": "address"
            },
            {
              "internalType": "bytes4",
              "name": "selector",
              "type": "bytes4"
            }
          ],
          "internalType": "struct Permission[]",
          "name": "permissions",
          "type": "tuple[]"
        }
      ],
      "stateMutability": "view",
      "type": "function"
    },
    {
      "inputs": [
        {
          "internalType": "bytes32[]",
          "name": "_data",
          "type": "bytes32[]"
        },
        {
          "internalType": "uint256",
          "name": "_node",
          "type": "uint256"
        }
      ],
      "name": "getProof",
      "outputs": [
        {
          "internalType": "bytes32[]",
          "name": "",
          "type": "bytes32[]"
        }
      ],
      "stateMutability": "pure",
      "type": "function"
    },
    {
      "inputs": [
        {
          "internalType": "bytes32[]",
          "name": "_data",
          "type": "bytes32[]"
        }
      ],
      "name": "getRoot",
      "outputs": [
        {
          "internalType": "bytes32",
          "name": "",
          "type": "bytes32"
        }
      ],
      "stateMutability": "pure",
      "type": "function"
    },
    {
      "inputs": [
        {
          "internalType": "bytes32",
          "name": "_left",
          "type": "bytes32"
        },
        {
          "internalType": "bytes32",
          "name": "_right",
          "type": "bytes32"
        }
      ],
      "name": "hashLeafPairs",
      "outputs": [
        {
          "internalType": "bytes32",
          "name": "data",
          "type": "bytes32"
        }
      ],
      "stateMutability": "pure",
      "type": "function"
    },
    {
      "inputs": [
        {
          "internalType": "uint256",
          "name": "x",
          "type": "uint256"
        }
      ],
      "name": "log2ceil_naive",
      "outputs": [
        {
          "internalType": "uint256",
          "name": "ceil",
          "type": "uint256"
        }
      ],
      "stateMutability": "pure",
      "type": "function"
    },
    {
      "inputs": [
        {
          "internalType": "bytes[]",
          "name": "_data",
          "type": "bytes[]"
        }
      ],
      "name": "multicall",
      "outputs": [
        {
          "internalType": "bytes[]",
          "name": "results",
          "type": "bytes[]"
        }
      ],
      "stateMutability": "nonpayable",
      "type": "function"
    },
    {
      "inputs": [],
      "name": "registry",
      "outputs": [
        {
          "internalType": "address",
          "name": "",
          "type": "address"
        }
      ],
      "stateMutability": "view",
      "type": "function"
    },
    {
      "inputs": [],
      "name": "supply",
      "outputs": [
        {
          "internalType": "address",
          "name": "",
          "type": "address"
        }
      ],
      "stateMutability": "view",
      "type": "function"
    },
    {
      "inputs": [
        {
          "internalType": "bytes32",
          "name": "_root",
          "type": "bytes32"
        },
        {
          "internalType": "bytes32[]",
          "name": "_proof",
          "type": "bytes32[]"
        },
        {
          "internalType": "bytes32",
          "name": "_valueToProve",
          "type": "bytes32"
        }
      ],
      "name": "verifyProof",
      "outputs": [
        {
          "internalType": "bool",
          "name": "",
          "type": "bool"
        }
      ],
      "stateMutability": "pure",
      "type": "function"
    }
  ],
  "bytecode": {
    "object": "0x60806040523480156200001157600080fd5b5060405162001aae38038062001aae833981016040819052620000349162000086565b600080546001600160a01b039283166001600160a01b03199182161790915560018054939092169216919091179055620000be565b80516001600160a01b03811681146200008157600080fd5b919050565b600080604083850312156200009a57600080fd5b620000a58362000069565b9150620000b56020840162000069565b90509250929050565b6119e080620000ce6000396000f3fe608060405234801561001057600080fd5b50600436106100f55760003560e01c8063884c05fb11610097578063c3a07df611610066578063c3a07df614610222578063c3ec409214610237578063cbbb4ac51461024a578063dd1d25991461025257600080fd5b8063884c05fb146101bc578063ac9650d8146101dc578063b76564cb146101fc578063b86161951461020f57600080fd5b80633692721a116100d35780633692721a1461015e57806358161a42146101735780637b10399914610196578063822db189146101a957600080fd5b8063047fc9aa146100fa57806308d7090a1461012a5780632e08d6021461014b575b600080fd5b60005461010d906001600160a01b031681565b6040516001600160a01b0390911681526020015b60405180910390f35b61013d610138366004610f8c565b610265565b604051908152602001610121565b61013d610159366004611079565b61028e565b61017161016c366004611128565b61032d565b005b6101866101813660046111bc565b610413565b6040519015158152602001610121565b60015461010d906001600160a01b031681565b6101716101b736600461120b565b610459565b6101cf6101ca3660046112f2565b61055c565b6040516101219190611333565b6101ef6101ea3660046112f2565b610681565b60405161012191906113d3565b61010d61020a366004611435565b6107a5565b6101cf61021d366004611504565b61089c565b61022a610b11565b6040516101219190611579565b610171610245366004611128565b610ba5565b6101cf610c73565b61013d6102603660046115bb565b610cff565b60008119600101821682145b821561028757600192831c929190910190610271565b9003919050565b600060018251116102f15760405162461bcd60e51b815260206004820152602260248201527f776f6e742067656e657261746520726f6f7420666f722073696e676c65206c6560448201526130b360f11b60648201526084015b60405180910390fd5b60018251111561030b5761030482610d4b565b91506102f1565b8160008151811061031e5761031e6115dd565b60200260200101519050919050565b60005b8381101561040a5784848281811061034a5761034a6115dd565b905060200201602081019061035f91906115f3565b6001600160a01b03166323b872dd8888868686818110610381576103816115dd565b6040516001600160e01b031960e088901b1681526001600160a01b039586166004820152949093166024850152506020909102013560448201526064016020604051808303816000875af11580156103dd573d6000803e3d6000fd5b505050506040513d601f19601f820116820180604052508101906104019190611627565b50600101610330565b50505050505050565b600081815b845181101561044e5761044482868381518110610437576104376115dd565b6020026020010151610cff565b9150600101610418565b509093149392505050565b60005b8781101561054f57888882818110610476576104766115dd565b905060200201602081019061048b91906115f3565b6001600160a01b031663f242432a8c8c8a8a868181106104ad576104ad6115dd565b905060200201358989878181106104c6576104c66115dd565b905060200201358888888181106104df576104df6115dd565b90506020028101906104f19190611642565b6040518763ffffffff1660e01b815260040161051296959493929190611688565b600060405180830381600087803b15801561052c57600080fd5b505af1158015610540573d6000803e3d6000fd5b5050505080600101905061045c565b5050505050505050505050565b60408051600680825260e08201909252606091600091906020820160c08036833701905050915060005b838110156106795760008585838181106105a2576105a26115dd565b90506020020160208101906105b791906115f3565b6001600160a01b031663cbbb4ac56040518163ffffffff1660e01b8152600401600060405180830381865afa1580156105f4573d6000803e3d6000fd5b505050506040513d6000823e601f3d908101601f1916820160405261061c91908101906116e4565b905060005b815181101561066f5781818151811061063c5761063c6115dd565b602002602001015185858060010196508151811061065c5761065c6115dd565b6020908102919091010152600101610621565b5050600101610586565b505092915050565b606081806001600160401b0381111561069c5761069c610fa5565b6040519080825280602002602001820160405280156106cf57816020015b60608152602001906001900390816106ba5790505b5091506000805b8281101561079c576060308787848181106106f3576106f36115dd565b90506020028101906107059190611642565b604051610713929190611774565b600060405180830381855af49150503d806000811461074e576040519150601f19603f3d011682016040523d82523d6000602084013e610753565b606091505b5090935090508261077557805160000361076c57600080fd5b61077581610eb1565b80858381518110610788576107886115dd565b6020908102919091010152506001016106d6565b50505092915050565b6000806107b28a8a61055c565b905060006107bf8261028e565b600154604051636716466560e01b81529192506001600160a01b0316906367164665906107f89084908d908d908d908d906004016117cd565b6020604051808303816000875af1158015610817573d6000803e3d6000fd5b505050506040513d601f19601f8201168201806040525081019061083b919061183e565b9250826001600160a01b03167f52365e9ef2d02ef2b8eb0ee7b91a0809adf17e90a5418ed54c7c137fe66aaa908c8c60405161087892919061185b565b60405180910390a261088d83338e8888610eba565b50509998505050505050505050565b606060018351116108fb5760405162461bcd60e51b815260206004820152602360248201527f776f6e742067656e65726174652070726f6f6620666f722073696e676c65206c60448201526232b0b360e91b60648201526084016102e8565b60006109078451610265565b90506000816001600160401b0381111561092357610923610fa5565b60405190808252806020026020018201604052801561094c578160200160208202803683370190505b5090506000805b600187511115610a3457600286066001036109a85786600187038151811061097d5761097d6115dd565b6020026020010151838381518110610997576109976115dd565b602002602001018181525050610a18565b865186600101036109dc576000801b8383815181106109c9576109c96115dd565b6020908102919091010152600101610a18565b8686600101815181106109f1576109f16115dd565b6020026020010151838381518110610a0b57610a0b6115dd565b6020026020010181815250505b600190910190600286049550610a2d87610d4b565b9650610953565b6000610a40828661186f565b6001600160401b03811115610a5757610a57610fa5565b604051908082528060200260200182016040528015610a80578160200160208202803683370190505b5090506000805b8551811015610b01576000801b868281518110610aa657610aa66115dd565b602002602001015114610af257858181518110610ac557610ac56115dd565b60200260200101518383830381518110610ae157610ae16115dd565b602002602001018181525050610af9565b8160010191505b600101610a87565b5090955050505050505b92915050565b604080516001808252818301909252606091816020015b6040805160608101825260008082526020808301829052928201528252600019909201910181610b2857505060408051606081018252308152600080546001600160a01b031660208301526340c10f1960e01b92820192909252825192935091839190610b9757610b976115dd565b602002602001018190525090565b60005b8381101561040a57848482818110610bc257610bc26115dd565b9050602002016020810190610bd791906115f3565b6001600160a01b03166342842e0e8888868686818110610bf957610bf96115dd565b6040516001600160e01b031960e088901b1681526001600160a01b03958616600482015294909316602485015250602090910201356044820152606401600060405180830381600087803b158015610c5057600080fd5b505af1158015610c64573d6000803e3d6000fd5b50505050806001019050610ba8565b60408051600180825281830190925260609160208083019080368337019050509050610c9d610b11565b600081518110610caf57610caf6115dd565b6020026020010151604051602001610cc79190611894565b6040516020818303038152906040528051906020012081600081518110610cf057610cf06115dd565b60200260200101818152505090565b600082610d0d575080610b0b565b81610d19575081610b0b565b8183148284101715610d2e5782600052816020525b81831115610d3f5781600052826020525b50604060002092915050565b805160609060018082169003610df557600281046001016001600160401b03811115610d7957610d79610fa5565b604051908082528060200260200182016040528015610da2578160200160208202803683370190505b509150610dce836001830381518110610dbd57610dbd6115dd565b60200260200101516000801b610cff565b82600184510381518110610de457610de46115dd565b602002602001018181525050610e3d565b600281046001600160401b03811115610e1057610e10610fa5565b604051908082528060200260200182016040528015610e39578160200160208202803683370190505b5091505b6000805b60018303811015610ea957610e7e858281518110610e6157610e616115dd565b6020026020010151868360010181518110610437576104376115dd565b848381518110610e9057610e906115dd565b6020908102919091010152600190910190600201610e41565b505050919050565b80518082602001fd5b6040516001600160a01b03851660248201526044810184905260009060640160408051601f198184030181529181526020820180516001600160e01b03166340c10f1960e01b179052600054905163601b8af360e01b81529192506001600160a01b038089169263601b8af392610f3b9216908590889088906004016118a2565b6000604051808303816000875af1158015610f5a573d6000803e3d6000fd5b505050506040513d6000823e601f3d908101601f19168201604052610f829190810190611904565b5050505050505050565b600060208284031215610f9e57600080fd5b5035919050565b634e487b7160e01b600052604160045260246000fd5b604051601f8201601f191681016001600160401b0381118282101715610fe357610fe3610fa5565b604052919050565b60006001600160401b0382111561100457611004610fa5565b5060051b60200190565b600082601f83011261101f57600080fd5b8135602061103461102f83610feb565b610fbb565b82815260059290921b8401810191818101908684111561105357600080fd5b8286015b8481101561106e5780358352918301918301611057565b509695505050505050565b60006020828403121561108b57600080fd5b81356001600160401b038111156110a157600080fd5b6110ad8482850161100e565b949350505050565b6001600160a01b03811681146110ca57600080fd5b50565b80356110d8816110b5565b919050565b60008083601f8401126110ef57600080fd5b5081356001600160401b0381111561110657600080fd5b6020830191508360208260051b850101111561112157600080fd5b9250929050565b6000806000806000806080878903121561114157600080fd5b863561114c816110b5565b9550602087013561115c816110b5565b945060408701356001600160401b038082111561117857600080fd5b6111848a838b016110dd565b9096509450606089013591508082111561119d57600080fd5b506111aa89828a016110dd565b979a9699509497509295939492505050565b6000806000606084860312156111d157600080fd5b8335925060208401356001600160401b038111156111ee57600080fd5b6111fa8682870161100e565b925050604084013590509250925092565b60008060008060008060008060008060c08b8d03121561122a57600080fd5b6112338b6110cd565b995061124160208c016110cd565b985060408b01356001600160401b038082111561125d57600080fd5b6112698e838f016110dd565b909a50985060608d013591508082111561128257600080fd5b61128e8e838f016110dd565b909850965060808d01359150808211156112a757600080fd5b6112b38e838f016110dd565b909650945060a08d01359150808211156112cc57600080fd5b506112d98d828e016110dd565b915080935050809150509295989b9194979a5092959850565b6000806020838503121561130557600080fd5b82356001600160401b0381111561131b57600080fd5b611327858286016110dd565b90969095509350505050565b6020808252825182820181905260009190848201906040850190845b8181101561136b5783518352928401929184019160010161134f565b50909695505050505050565b60005b8381101561139257818101518382015260200161137a565b838111156113a1576000848401525b50505050565b600081518084526113bf816020860160208601611377565b601f01601f19169290920160200192915050565b6000602080830181845280855180835260408601915060408160051b870101925083870160005b8281101561142857603f198886030184526114168583516113a7565b945092850192908501906001016113fa565b5092979650505050505050565b600080600080600080600080600060a08a8c03121561145357600080fd5b8935985060208a01356001600160401b038082111561147157600080fd5b61147d8d838e016110dd565b909a50985060408c013591508082111561149657600080fd5b6114a28d838e016110dd565b909850965060608c01359150808211156114bb57600080fd5b6114c78d838e016110dd565b909650945060808c01359150808211156114e057600080fd5b506114ed8c828d016110dd565b915080935050809150509295985092959850929598565b6000806040838503121561151757600080fd5b82356001600160401b0381111561152d57600080fd5b6115398582860161100e565b95602094909401359450505050565b80516001600160a01b039081168352602080830151909116908301526040908101516001600160e01b031916910152565b6020808252825182820181905260009190848201906040850190845b8181101561136b576115a8838551611548565b9284019260609290920191600101611595565b600080604083850312156115ce57600080fd5b50508035926020909101359150565b634e487b7160e01b600052603260045260246000fd5b60006020828403121561160557600080fd5b8135611610816110b5565b9392505050565b805180151581146110d857600080fd5b60006020828403121561163957600080fd5b61161082611617565b6000808335601e1984360301811261165957600080fd5b8301803591506001600160401b0382111561167357600080fd5b60200191503681900382131561112157600080fd5b6001600160a01b03878116825286166020820152604081018590526060810184905260a06080820181905281018290526000828460c0840137600060c0848401015260c0601f19601f8501168301019050979650505050505050565b600060208083850312156116f757600080fd5b82516001600160401b0381111561170d57600080fd5b8301601f8101851361171e57600080fd5b805161172c61102f82610feb565b81815260059190911b8201830190838101908783111561174b57600080fd5b928401925b8284101561176957835182529284019290840190611750565b979650505050505050565b8183823760009101908152919050565b8183526000602080850194508260005b858110156117c25781356117a7816110b5565b6001600160a01b031687529582019590820190600101611794565b509495945050505050565b858152600060206060818401526117e8606084018789611784565b8381036040850152848152859082016000805b8781101561182e5783356001600160e01b0319811680821461181b578384fd5b84525092840192918401916001016117fb565b50909a9950505050505050505050565b60006020828403121561185057600080fd5b8151611610816110b5565b6020815260006110ad602083018486611784565b60008282101561188f57634e487b7160e01b600052601160045260246000fd5b500390565b60608101610b0b8284611548565b6001600160a01b03851681526060602082018190526000906118c6908301866113a7565b82810360408401528381526001600160fb1b038411156118e557600080fd5b8360051b80866020840137600091016020019081529695505050505050565b6000806040838503121561191757600080fd5b61192083611617565b915060208301516001600160401b038082111561193c57600080fd5b818501915085601f83011261195057600080fd5b81518181111561196257611962610fa5565b611975601f8201601f1916602001610fbb565b915080825286602082850101111561198c57600080fd5b61199d816020840160208601611377565b508092505050925092905056fea264697066735822122087e3054984bdd3d9a9a0793f754c3fd513ec402d0f79cf9256bb04006e157b4e64736f6c634300080d0033",
    "linkReferences": {}
  },
  "methodIdentifiers": {
    "batchDepositERC1155(address,address,address[],uint256[],uint256[],bytes[])": "822db189",
    "batchDepositERC20(address,address,address[],uint256[])": "3692721a",
    "batchDepositERC721(address,address,address[],uint256[])": "c3ec4092",
    "deployVault(uint256,address[],address[],bytes4[],bytes32[])": "b76564cb",
    "generateMerkleTree(address[])": "884c05fb",
    "getLeafNodes()": "cbbb4ac5",
    "getPermissions()": "c3a07df6",
    "getProof(bytes32[],uint256)": "b8616195",
    "getRoot(bytes32[])": "2e08d602",
    "hashLeafPairs(bytes32,bytes32)": "dd1d2599",
    "log2ceil_naive(uint256)": "08d7090a",
    "multicall(bytes[])": "ac9650d8",
    "registry()": "7b103999",
    "supply()": "047fc9aa",
    "verifyProof(bytes32,bytes32[],bytes32)": "58161a42"
  },
  "id": 48
}