{
  "abi": [
    {
      "inputs": [
        {
          "internalType": "address",
          "name": "_addr",
          "type": "address"
        },
        {
          "internalType": "uint256",
          "name": "_privateKey",
          "type": "uint256"
        },
        {
          "internalType": "address",
          "name": "_target",
          "type": "address"
        }
      ],
      "stateMutability": "nonpayable",
      "type": "constructor"
    },
    {
      "inputs": [],
      "name": "PROPOSAL_PERIOD",
      "outputs": [
        {
          "internalType": "uint256",
          "name": "",
          "type": "uint256"
        }
      ],
      "stateMutability": "nonpayable",
      "type": "function"
    },
    {
      "inputs": [],
      "name": "REJECTION_PERIOD",
      "outputs": [
        {
          "internalType": "uint256",
          "name": "",
          "type": "uint256"
        }
      ],
      "stateMutability": "nonpayable",
      "type": "function"
    },
    {
      "inputs": [
        {
          "internalType": "address",
          "name": "_vault",
          "type": "address"
        },
        {
          "internalType": "address",
          "name": "_token",
          "type": "address"
        },
        {
          "internalType": "address",
          "name": "_to",
          "type": "address"
        },
        {
          "internalType": "uint256[]",
          "name": "_ids",
          "type": "uint256[]"
        },
        {
          "internalType": "uint256[]",
          "name": "_values",
          "type": "uint256[]"
        },
        {
          "internalType": "bytes32[]",
          "name": "_erc1155BatchTransferProof",
          "type": "bytes32[]"
        }
      ],
      "name": "batchWithdrawERC1155",
      "outputs": [],
      "stateMutability": "nonpayable",
      "type": "function"
    },
    {
      "inputs": [
        {
          "internalType": "address",
          "name": "_vault",
          "type": "address"
        },
        {
          "internalType": "uint256",
          "name": "_amount",
          "type": "uint256"
        }
      ],
      "name": "buyFractions",
      "outputs": [],
      "stateMutability": "payable",
      "type": "function"
    },
    {
      "inputs": [
        {
          "internalType": "address",
          "name": "arg0",
          "type": "address"
        }
      ],
      "name": "buyoutInfo",
      "outputs": [
        {
          "internalType": "uint256",
          "name": "",
          "type": "uint256"
        },
        {
          "internalType": "address",
          "name": "",
          "type": "address"
        },
        {
          "internalType": "enum State",
          "name": "",
          "type": "uint8"
        },
        {
          "internalType": "uint256",
          "name": "",
          "type": "uint256"
        },
        {
          "internalType": "uint256",
          "name": "",
          "type": "uint256"
        },
        {
          "internalType": "uint256",
          "name": "",
          "type": "uint256"
        }
      ],
      "stateMutability": "nonpayable",
      "type": "function"
    },
    {
      "inputs": [
        {
          "internalType": "address",
          "name": "_vault",
          "type": "address"
        },
        {
          "internalType": "bytes32[]",
          "name": "_burnProof",
          "type": "bytes32[]"
        }
      ],
      "name": "cash",
      "outputs": [],
      "stateMutability": "nonpayable",
      "type": "function"
    },
    {
      "inputs": [
        {
          "internalType": "address",
          "name": "_vault",
          "type": "address"
        },
        {
          "internalType": "bytes32[]",
          "name": "_burnProof",
          "type": "bytes32[]"
        }
      ],
      "name": "end",
      "outputs": [],
      "stateMutability": "nonpayable",
      "type": "function"
    },
    {
      "inputs": [],
      "name": "getLeafNodes",
      "outputs": [
        {
          "internalType": "bytes32[]",
          "name": "",
          "type": "bytes32[]"
        }
      ],
      "stateMutability": "nonpayable",
      "type": "function"
    },
    {
      "inputs": [],
      "name": "getPermissions",
      "outputs": [
        {
          "components": [
            {
              "internalType": "address",
              "name": "module",
              "type": "address"
            },
            {
              "internalType": "address",
              "name": "target",
              "type": "address"
            },
            {
              "internalType": "bytes4",
              "name": "selector",
              "type": "bytes4"
            }
          ],
          "internalType": "struct Permission[]",
          "name": "",
          "type": "tuple[]"
        }
      ],
      "stateMutability": "nonpayable",
      "type": "function"
    },
    {
      "inputs": [],
      "name": "proxyContract",
      "outputs": [
        {
          "internalType": "address",
          "name": "",
          "type": "address"
        }
      ],
      "stateMutability": "view",
      "type": "function"
    },
    {
      "inputs": [
        {
          "internalType": "address",
          "name": "_vault",
          "type": "address"
        },
        {
          "internalType": "bytes32[]",
          "name": "_burnProof",
          "type": "bytes32[]"
        }
      ],
      "name": "redeem",
      "outputs": [],
      "stateMutability": "nonpayable",
      "type": "function"
    },
    {
      "inputs": [],
      "name": "registry",
      "outputs": [
        {
          "internalType": "address",
          "name": "",
          "type": "address"
        }
      ],
      "stateMutability": "nonpayable",
      "type": "function"
    },
    {
      "inputs": [
        {
          "internalType": "address",
          "name": "_vault",
          "type": "address"
        },
        {
          "internalType": "uint256",
          "name": "_amount",
          "type": "uint256"
        }
      ],
      "name": "sellFractions",
      "outputs": [],
      "stateMutability": "nonpayable",
      "type": "function"
    },
    {
      "inputs": [
        {
          "internalType": "address",
          "name": "_vault",
          "type": "address"
        }
      ],
      "name": "start",
      "outputs": [],
      "stateMutability": "payable",
      "type": "function"
    },
    {
      "inputs": [],
      "name": "supply",
      "outputs": [
        {
          "internalType": "address",
          "name": "",
          "type": "address"
        }
      ],
      "stateMutability": "nonpayable",
      "type": "function"
    },
    {
      "inputs": [],
      "name": "transfer",
      "outputs": [
        {
          "internalType": "address",
          "name": "",
          "type": "address"
        }
      ],
      "stateMutability": "nonpayable",
      "type": "function"
    },
    {
      "inputs": [
        {
          "internalType": "address",
          "name": "_vault",
          "type": "address"
        },
        {
          "internalType": "address",
          "name": "_token",
          "type": "address"
        },
        {
          "internalType": "address",
          "name": "_to",
          "type": "address"
        },
        {
          "internalType": "uint256",
          "name": "_id",
          "type": "uint256"
        },
        {
          "internalType": "uint256",
          "name": "_value",
          "type": "uint256"
        },
        {
          "internalType": "bytes32[]",
          "name": "_erc1155TransferProof",
          "type": "bytes32[]"
        }
      ],
      "name": "withdrawERC1155",
      "outputs": [],
      "stateMutability": "nonpayable",
      "type": "function"
    },
    {
      "inputs": [
        {
          "internalType": "address",
          "name": "_vault",
          "type": "address"
        },
        {
          "internalType": "address",
          "name": "_token",
          "type": "address"
        },
        {
          "internalType": "address",
          "name": "_to",
          "type": "address"
        },
        {
          "internalType": "uint256",
          "name": "_value",
          "type": "uint256"
        },
        {
          "internalType": "bytes32[]",
          "name": "_erc20TransferProof",
          "type": "bytes32[]"
        }
      ],
      "name": "withdrawERC20",
      "outputs": [],
      "stateMutability": "nonpayable",
      "type": "function"
    },
    {
      "inputs": [
        {
          "internalType": "address",
          "name": "_vault",
          "type": "address"
        },
        {
          "internalType": "address",
          "name": "_token",
          "type": "address"
        },
        {
          "internalType": "address",
          "name": "_to",
          "type": "address"
        },
        {
          "internalType": "uint256",
          "name": "_tokenId",
          "type": "uint256"
        },
        {
          "internalType": "bytes32[]",
          "name": "_erc721TransferProof",
          "type": "bytes32[]"
        }
      ],
      "name": "withdrawERC721",
      "outputs": [],
      "stateMutability": "nonpayable",
      "type": "function"
    }
  ],
  "bytecode": {
    "object": "0x60806040523480156200001157600080fd5b5060405162001e2b38038062001e2b833981016040819052620000349162000114565b8115620000bd576040516001625e79b760e01b0319815260048101839052737109709ecfa91a80626ff3989d68f67f5b1dd12d9063ffa18649906024016020604051808303816000875af115801562000091573d6000803e3d6000fd5b505050506040513d601f19601f82011682018060405250810190620000b7919062000155565b620000bf565b825b600080546001600160a01b03199081166001600160a01b0393841617909155600193909355600280549093169116179055506200017a565b80516001600160a01b03811681146200010f57600080fd5b919050565b6000806000606084860312156200012a57600080fd5b6200013584620000f7565b9250602084015191506200014c60408501620000f7565b90509250925092565b6000602082840312156200016857600080fd5b6200017382620000f7565b9392505050565b611ca1806200018a6000396000f3fe6080604052600436106101145760003560e01c8063a0e05626116100a0578063c42a581711610064578063c42a5817146102e1578063cbbb4ac514610301578063d87ed5e014610323578063dd0b281e14610338578063ed5504431461034b57600080fd5b8063a0e056261461022a578063b43adf111461024a578063b5bb74a71461026a578063bc95831b1461029c578063c3a07df6146102bf57600080fd5b80637a607ce6116100e75780637a607ce6146101ad5780637b103999146101cd5780637d0c4eae146101e257806386771337146102025780638a4068dd1461021557600080fd5b8063047fc9aa146101195780631579529a1461014b5780634acb7fd41461016d5780634e8c70f91461018d575b600080fd5b34801561012557600080fd5b5061012e610369565b6040516001600160a01b0390911681526020015b60405180910390f35b34801561015757600080fd5b5061016b610166366004611598565b6104b7565b005b34801561017957600080fd5b5061016b6101883660046115e8565b6105f0565b34801561019957600080fd5b5061016b6101a8366004611598565b610699565b3480156101b957600080fd5b5061016b6101c8366004611598565b61073b565b3480156101d957600080fd5b5061012e6107dd565b3480156101ee57600080fd5b5061016b6101fd366004611614565b6108a1565b61016b6102103660046115e8565b6109e6565b34801561022157600080fd5b5061012e610b07565b34801561023657600080fd5b5061016b6102453660046116d3565b610bcb565b34801561025657600080fd5b5061016b6102653660046116d3565b610d0d565b34801561027657600080fd5b5061028a610285366004611752565b610db5565b60405161014296959493929190611776565b3480156102a857600080fd5b506102b1610f16565b604051908152602001610142565b3480156102cb57600080fd5b506102d4610ffe565b60405161014291906117cd565b3480156102ed57600080fd5b5061016b6102fc36600461183c565b6110ee565b34801561030d57600080fd5b50610316611198565b60405161014291906118f1565b34801561032f57600080fd5b506102b1611288565b61016b610346366004611752565b61134c565b34801561035757600080fd5b506002546001600160a01b031661012e565b600080546040516308b6ac0f60e31b8152600080516020611c4c833981519152916345b56078916103a8916001600160a01b0316908190600401611904565b600060405180830381600087803b1580156103c257600080fd5b505af11580156103d6573d6000803e3d6000fd5b50505050600260009054906101000a90046001600160a01b03166001600160a01b031663047fc9aa6040518163ffffffff1660e01b8152600401602060405180830381865afa15801561042d573d6000803e3d6000fd5b505050506040513d601f19601f82011682018060405250810190610451919061191e565b9050600080516020611c4c8339815191526001600160a01b03166390c5013b6040518163ffffffff1660e01b8152600401600060405180830381600087803b15801561049c57600080fd5b505af11580156104b0573d6000803e3d6000fd5b5050505090565b6000546040516308b6ac0f60e31b8152600080516020611c4c833981519152916345b56078916104f5916001600160a01b0316908190600401611904565b600060405180830381600087803b15801561050f57600080fd5b505af1158015610523573d6000803e3d6000fd5b5050600254604051630abca94d60e11b81526001600160a01b039091169250631579529a9150610559908590859060040161193b565b600060405180830381600087803b15801561057357600080fd5b505af1158015610587573d6000803e3d6000fd5b50505050600080516020611c4c8339815191526001600160a01b03166390c5013b6040518163ffffffff1660e01b8152600401600060405180830381600087803b1580156105d457600080fd5b505af11580156105e8573d6000803e3d6000fd5b505050505050565b6000546040516308b6ac0f60e31b8152600080516020611c4c833981519152916345b560789161062e916001600160a01b0316908190600401611904565b600060405180830381600087803b15801561064857600080fd5b505af115801561065c573d6000803e3d6000fd5b50506002546040516312b2dff560e21b81526001600160a01b038681166004830152602482018690529091169250634acb7fd49150604401610559565b6000546040516308b6ac0f60e31b8152600080516020611c4c833981519152916345b56078916106d7916001600160a01b0316908190600401611904565b600060405180830381600087803b1580156106f157600080fd5b505af1158015610705573d6000803e3d6000fd5b5050600254604051634e8c70f960e01b81526001600160a01b039091169250634e8c70f99150610559908590859060040161193b565b6000546040516308b6ac0f60e31b8152600080516020611c4c833981519152916345b5607891610779916001600160a01b0316908190600401611904565b600060405180830381600087803b15801561079357600080fd5b505af11580156107a7573d6000803e3d6000fd5b5050600254604051633d303e7360e11b81526001600160a01b039091169250637a607ce69150610559908590859060040161193b565b600080546040516308b6ac0f60e31b8152600080516020611c4c833981519152916345b560789161081c916001600160a01b0316908190600401611904565b600060405180830381600087803b15801561083657600080fd5b505af115801561084a573d6000803e3d6000fd5b50505050600260009054906101000a90046001600160a01b03166001600160a01b0316637b1039996040518163ffffffff1660e01b8152600401602060405180830381865afa15801561042d573d6000803e3d6000fd5b6000546040516308b6ac0f60e31b8152600080516020611c4c833981519152916345b56078916108df916001600160a01b0316908190600401611904565b600060405180830381600087803b1580156108f957600080fd5b505af115801561090d573d6000803e3d6000fd5b5050600254604051633e86275760e11b81526001600160a01b039091169250637d0c4eae915061094b90899089908990899089908990600401611967565b600060405180830381600087803b15801561096557600080fd5b505af1158015610979573d6000803e3d6000fd5b50505050600080516020611c4c8339815191526001600160a01b03166390c5013b6040518163ffffffff1660e01b8152600401600060405180830381600087803b1580156109c657600080fd5b505af11580156109da573d6000803e3d6000fd5b50505050505050505050565b6000546040516308b6ac0f60e31b8152600080516020611c4c833981519152916345b5607891610a24916001600160a01b0316908190600401611904565b600060405180830381600087803b158015610a3e57600080fd5b505af1158015610a52573d6000803e3d6000fd5b5050600254604051638677133760e01b81526001600160a01b0386811660048301526024820186905290911692506386771337915034906044016000604051808303818588803b158015610aa557600080fd5b505af1158015610ab9573d6000803e3d6000fd5b5050505050600080516020611c4c8339815191526001600160a01b03166390c5013b6040518163ffffffff1660e01b8152600401600060405180830381600087803b1580156105d457600080fd5b600080546040516308b6ac0f60e31b8152600080516020611c4c833981519152916345b5607891610b46916001600160a01b0316908190600401611904565b600060405180830381600087803b158015610b6057600080fd5b505af1158015610b74573d6000803e3d6000fd5b50505050600260009054906101000a90046001600160a01b03166001600160a01b0316638a4068dd6040518163ffffffff1660e01b8152600401602060405180830381865afa15801561042d573d6000803e3d6000fd5b6000546040516308b6ac0f60e31b8152600080516020611c4c833981519152916345b5607891610c09916001600160a01b0316908190600401611904565b600060405180830381600087803b158015610c2357600080fd5b505af1158015610c37573d6000803e3d6000fd5b50506002546040516350702b1360e11b81526001600160a01b03909116925063a0e056269150610c7390889088908890889088906004016119ce565b600060405180830381600087803b158015610c8d57600080fd5b505af1158015610ca1573d6000803e3d6000fd5b50505050600080516020611c4c8339815191526001600160a01b03166390c5013b6040518163ffffffff1660e01b8152600401600060405180830381600087803b158015610cee57600080fd5b505af1158015610d02573d6000803e3d6000fd5b505050505050505050565b6000546040516308b6ac0f60e31b8152600080516020611c4c833981519152916345b5607891610d4b916001600160a01b0316908190600401611904565b600060405180830381600087803b158015610d6557600080fd5b505af1158015610d79573d6000803e3d6000fd5b505060025460405163b43adf1160e01b81526001600160a01b03909116925063b43adf119150610c7390889088908890889088906004016119ce565b600080546040516308b6ac0f60e31b815282918291829182918291600080516020611c4c833981519152916345b5607891610e00916001600160a01b03909116908190600401611904565b600060405180830381600087803b158015610e1a57600080fd5b505af1158015610e2e573d6000803e3d6000fd5b505060025460405163b5bb74a760e01b81526001600160a01b038b81166004830152909116925063b5bb74a7915060240160c060405180830381865afa158015610e7c573d6000803e3d6000fd5b505050506040513d601f19601f82011682018060405250810190610ea09190611a14565b955095509550955095509550600080516020611c4c8339815191526001600160a01b03166390c5013b6040518163ffffffff1660e01b8152600401600060405180830381600087803b158015610ef557600080fd5b505af1158015610f09573d6000803e3d6000fd5b5050505091939550919395565b600080546040516308b6ac0f60e31b8152600080516020611c4c833981519152916345b5607891610f55916001600160a01b0316908190600401611904565b600060405180830381600087803b158015610f6f57600080fd5b505af1158015610f83573d6000803e3d6000fd5b50505050600260009054906101000a90046001600160a01b03166001600160a01b031663bc95831b6040518163ffffffff1660e01b8152600401602060405180830381865afa158015610fda573d6000803e3d6000fd5b505050506040513d601f19601f820116820180604052508101906104519190611a77565b6000546040516308b6ac0f60e31b8152606091600080516020611c4c833981519152916345b5607891611041916001600160a01b03909116908190600401611904565b600060405180830381600087803b15801561105b57600080fd5b505af115801561106f573d6000803e3d6000fd5b50505050600260009054906101000a90046001600160a01b03166001600160a01b031663c3a07df66040518163ffffffff1660e01b8152600401600060405180830381865afa1580156110c6573d6000803e3d6000fd5b505050506040513d6000823e601f3d908101601f191682016040526104519190810190611a90565b6000546040516308b6ac0f60e31b8152600080516020611c4c833981519152916345b560789161112c916001600160a01b0316908190600401611904565b600060405180830381600087803b15801561114657600080fd5b505af115801561115a573d6000803e3d6000fd5b505060025460405163c42a581760e01b81526001600160a01b03909116925063c42a5817915061094b90899089908990899089908990600401611b77565b6000546040516308b6ac0f60e31b8152606091600080516020611c4c833981519152916345b56078916111db916001600160a01b03909116908190600401611904565b600060405180830381600087803b1580156111f557600080fd5b505af1158015611209573d6000803e3d6000fd5b50505050600260009054906101000a90046001600160a01b03166001600160a01b031663cbbb4ac56040518163ffffffff1660e01b8152600401600060405180830381865afa158015611260573d6000803e3d6000fd5b505050506040513d6000823e601f3d908101601f191682016040526104519190810190611bc5565b600080546040516308b6ac0f60e31b8152600080516020611c4c833981519152916345b56078916112c7916001600160a01b0316908190600401611904565b600060405180830381600087803b1580156112e157600080fd5b505af11580156112f5573d6000803e3d6000fd5b50505050600260009054906101000a90046001600160a01b03166001600160a01b031663d87ed5e06040518163ffffffff1660e01b8152600401602060405180830381865afa158015610fda573d6000803e3d6000fd5b6000546040516308b6ac0f60e31b8152600080516020611c4c833981519152916345b560789161138a916001600160a01b0316908190600401611904565b600060405180830381600087803b1580156113a457600080fd5b505af11580156113b8573d6000803e3d6000fd5b5050600254604051636e85940f60e11b81526001600160a01b038581166004830152909116925063dd0b281e915034906024016000604051808303818588803b15801561140457600080fd5b505af1158015611418573d6000803e3d6000fd5b5050505050600080516020611c4c8339815191526001600160a01b03166390c5013b6040518163ffffffff1660e01b8152600401600060405180830381600087803b15801561146657600080fd5b505af115801561147a573d6000803e3d6000fd5b5050505050565b6001600160a01b038116811461149657600080fd5b50565b634e487b7160e01b600052604160045260246000fd5b6040516060810167ffffffffffffffff811182821017156114d2576114d2611499565b60405290565b604051601f8201601f1916810167ffffffffffffffff8111828210171561150157611501611499565b604052919050565b600067ffffffffffffffff82111561152357611523611499565b5060051b60200190565b600082601f83011261153e57600080fd5b8135602061155361154e83611509565b6114d8565b82815260059290921b8401810191818101908684111561157257600080fd5b8286015b8481101561158d5780358352918301918301611576565b509695505050505050565b600080604083850312156115ab57600080fd5b82356115b681611481565b9150602083013567ffffffffffffffff8111156115d257600080fd5b6115de8582860161152d565b9150509250929050565b600080604083850312156115fb57600080fd5b823561160681611481565b946020939093013593505050565b60008060008060008060c0878903121561162d57600080fd5b863561163881611481565b9550602087013561164881611481565b9450604087013561165881611481565b9350606087013567ffffffffffffffff8082111561167557600080fd5b6116818a838b0161152d565b9450608089013591508082111561169757600080fd5b6116a38a838b0161152d565b935060a08901359150808211156116b957600080fd5b506116c689828a0161152d565b9150509295509295509295565b600080600080600060a086880312156116eb57600080fd5b85356116f681611481565b9450602086013561170681611481565b9350604086013561171681611481565b925060608601359150608086013567ffffffffffffffff81111561173957600080fd5b6117458882890161152d565b9150509295509295909350565b60006020828403121561176457600080fd5b813561176f81611481565b9392505050565b8681526001600160a01b038616602082015260c08101600386106117aa57634e487b7160e01b600052602160045260246000fd5b8560408301528460608301528360808301528260a0830152979650505050505050565b602080825282518282018190526000919060409081850190868401855b8281101561182f57815180516001600160a01b0390811686528782015116878601528501516001600160e01b03191685850152606090930192908501906001016117ea565b5091979650505050505050565b60008060008060008060c0878903121561185557600080fd5b863561186081611481565b9550602087013561187081611481565b9450604087013561188081611481565b9350606087013592506080870135915060a087013567ffffffffffffffff8111156118aa57600080fd5b6116c689828a0161152d565b600081518084526020808501945080840160005b838110156118e6578151875295820195908201906001016118ca565b509495945050505050565b60208152600061176f60208301846118b6565b6001600160a01b0392831681529116602082015260400190565b60006020828403121561193057600080fd5b815161176f81611481565b6001600160a01b038316815260406020820181905260009061195f908301846118b6565b949350505050565b6001600160a01b03878116825286811660208301528516604082015260c06060820181905260009061199b908301866118b6565b82810360808401526119ad81866118b6565b905082810360a08401526119c181856118b6565b9998505050505050505050565b6001600160a01b0386811682528581166020830152841660408201526060810183905260a060808201819052600090611a09908301846118b6565b979650505050505050565b60008060008060008060c08789031215611a2d57600080fd5b865195506020870151611a3f81611481565b604088015190955060038110611a5457600080fd5b80945050606087015192506080870151915060a087015190509295509295509295565b600060208284031215611a8957600080fd5b5051919050565b60006020808385031215611aa357600080fd5b825167ffffffffffffffff811115611aba57600080fd5b8301601f81018513611acb57600080fd5b8051611ad961154e82611509565b81815260609182028301840191848201919088841115611af857600080fd5b938501935b83851015611b6b5780858a031215611b155760008081fd5b611b1d6114af565b8551611b2881611481565b815285870151611b3781611481565b818801526040868101516001600160e01b031981168114611b585760008081fd5b9082015283529384019391850191611afd565b50979650505050505050565b6001600160a01b038781168252868116602083015285166040820152606081018490526080810183905260c060a08201819052600090611bb9908301846118b6565b98975050505050505050565b60006020808385031215611bd857600080fd5b825167ffffffffffffffff811115611bef57600080fd5b8301601f81018513611c0057600080fd5b8051611c0e61154e82611509565b81815260059190911b82018301908381019087831115611c2d57600080fd5b928401925b82841015611a0957835182529284019290840190611c3256fe0000000000000000000000007109709ecfa91a80626ff3989d68f67f5b1dd12da2646970667358221220426387fbdf3c41193fcef380cd6fca77396d4538d999f44baa632ad0b89b746c64736f6c634300080d0033",
    "linkReferences": {}
  },
  "methodIdentifiers": {
    "PROPOSAL_PERIOD()": "d87ed5e0",
    "REJECTION_PERIOD()": "bc95831b",
    "batchWithdrawERC1155(address,address,address,uint256[],uint256[],bytes32[])": "7d0c4eae",
    "buyFractions(address,uint256)": "86771337",
    "buyoutInfo(address)": "b5bb74a7",
    "cash(address,bytes32[])": "1579529a",
    "end(address,bytes32[])": "4e8c70f9",
    "getLeafNodes()": "cbbb4ac5",
    "getPermissions()": "c3a07df6",
    "proxyContract()": "ed550443",
    "redeem(address,bytes32[])": "7a607ce6",
    "registry()": "7b103999",
    "sellFractions(address,uint256)": "4acb7fd4",
    "start(address)": "dd0b281e",
    "supply()": "047fc9aa",
    "transfer()": "8a4068dd",
    "withdrawERC1155(address,address,address,uint256,uint256,bytes32[])": "c42a5817",
    "withdrawERC20(address,address,address,uint256,bytes32[])": "b43adf11",
    "withdrawERC721(address,address,address,uint256,bytes32[])": "a0e05626"
  },
  "id": 75
}