{
  "abi": [
    {
      "inputs": [
        {
          "internalType": "address",
          "name": "_token",
          "type": "address"
        },
        {
          "internalType": "address",
          "name": "_from",
          "type": "address"
        },
        {
          "internalType": "address",
          "name": "_to",
          "type": "address"
        },
        {
          "internalType": "uint256",
          "name": "_amount",
          "type": "uint256"
        }
      ],
      "name": "BadReturnValueFromERC20OnTransfer",
      "type": "error"
    },
    {
      "inputs": [
        {
          "internalType": "address",
          "name": "_token",
          "type": "address"
        },
        {
          "internalType": "address",
          "name": "_from",
          "type": "address"
        },
        {
          "internalType": "address",
          "name": "_to",
          "type": "address"
        },
        {
          "internalType": "uint256[]",
          "name": "_identifiers",
          "type": "uint256[]"
        },
        {
          "internalType": "uint256[]",
          "name": "_amounts",
          "type": "uint256[]"
        }
      ],
      "name": "ERC1155BatchTransferGenericFailure",
      "type": "error"
    },
    {
      "inputs": [],
      "name": "InvalidERC721TransferAmount",
      "type": "error"
    },
    {
      "inputs": [],
      "name": "MissingItemAmount",
      "type": "error"
    },
    {
      "inputs": [
        {
          "internalType": "address",
          "name": "_account",
          "type": "address"
        }
      ],
      "name": "NoContract",
      "type": "error"
    },
    {
      "inputs": [
        {
          "internalType": "address",
          "name": "_token",
          "type": "address"
        },
        {
          "internalType": "address",
          "name": "_from",
          "type": "address"
        },
        {
          "internalType": "address",
          "name": "_to",
          "type": "address"
        },
        {
          "internalType": "uint256",
          "name": "_identifier",
          "type": "uint256"
        },
        {
          "internalType": "uint256",
          "name": "_amount",
          "type": "uint256"
        }
      ],
      "name": "TokenTransferGenericFailure",
      "type": "error"
    },
    {
      "inputs": [
        {
          "internalType": "address",
          "name": "",
          "type": "address"
        },
        {
          "internalType": "address",
          "name": "",
          "type": "address"
        },
        {
          "internalType": "address",
          "name": "",
          "type": "address"
        },
        {
          "internalType": "uint256[]",
          "name": "",
          "type": "uint256[]"
        },
        {
          "internalType": "uint256[]",
          "name": "",
          "type": "uint256[]"
        }
      ],
      "name": "ERC1155BatchTransferFrom",
      "outputs": [],
      "stateMutability": "nonpayable",
      "type": "function"
    },
    {
      "inputs": [
        {
          "internalType": "address",
          "name": "_token",
          "type": "address"
        },
        {
          "internalType": "address",
          "name": "_from",
          "type": "address"
        },
        {
          "internalType": "address",
          "name": "_to",
          "type": "address"
        },
        {
          "internalType": "uint256",
          "name": "_tokenId",
          "type": "uint256"
        },
        {
          "internalType": "uint256",
          "name": "_amount",
          "type": "uint256"
        }
      ],
      "name": "ERC1155TransferFrom",
      "outputs": [],
      "stateMutability": "nonpayable",
      "type": "function"
    },
    {
      "inputs": [
        {
          "internalType": "address",
          "name": "_token",
          "type": "address"
        },
        {
          "internalType": "address",
          "name": "_to",
          "type": "address"
        },
        {
          "internalType": "uint256",
          "name": "_amount",
          "type": "uint256"
        }
      ],
      "name": "ERC20Transfer",
      "outputs": [],
      "stateMutability": "nonpayable",
      "type": "function"
    },
    {
      "inputs": [
        {
          "internalType": "address",
          "name": "_token",
          "type": "address"
        },
        {
          "internalType": "address",
          "name": "_from",
          "type": "address"
        },
        {
          "internalType": "address",
          "name": "_to",
          "type": "address"
        },
        {
          "internalType": "uint256",
          "name": "_tokenId",
          "type": "uint256"
        }
      ],
      "name": "ERC721TransferFrom",
      "outputs": [],
      "stateMutability": "nonpayable",
      "type": "function"
    }
  ],
  "bytecode": {
    "object": "0x608060405234801561001057600080fd5b50610690806100206000396000f3fe608060405234801561001057600080fd5b506004361061004c5760003560e01c806318c4eeed1461005157806368e72e491461006657806376aa79b214610079578063e59fdd361461008c575b600080fd5b61006461005f366004610490565b61009f565b005b6100646100743660046104db565b610163565b61006461008736600461057c565b61024a565b61006461009a36600461061e565b610370565b833b6100ba57632f8aeb3960e11b6000528360045260246000fd5b6040516323b872dd60e01b6000528360045282602452816044526000806064600080895af180610154573d1561012e576020601f3d010460208304816003028183111561011557818303600302610200838002858002030401015b5a60208201101561012a573d6000803e3d6000fd5b5050505b63f486bc8760e01b60005285600452846024528360445282606452600160845260a46000fd5b50604052505060006060525050565b843b61017e57632f8aeb3960e11b6000528460045260246000fd5b60405160805160a05160c051637921219560e11b6000528760045286602452856044528460645260a0608452600060a45260008060c46000808d5af18061022e573d15610209576020601f3d01046020860481600302818311156101f057818303600302610200838002858002030401015b5a602082011015610205573d6000803e3d6000fd5b5050505b63f486bc8760e01b600052896004528860245287604452866064528560845260a46000fd5b5060809290925260a05260c05260405250506000606052505050565b631759616b60e11b602052600435803b61027357632f8aeb3960e11b6000528060045260246000fd5b60a0600401356020810260c001806080600401351460a06060600401351416816004013583141615905080156102b457633ae8821360e21b60005260046000fd5b506080602480376040810260400190508060a00160a452600081610104015280610104018160a060040160c4376000808260206000875af191508161035f573d1561033d576020601f3d010460208204816003028183111561032457818303600302610200838002858002030401015b5a602082011015610339573d6000803e3d6000fd5b5050505b6357e222f160e11b600052826004526080604452608451602001608452806000fd5b505050608060405250505050505050565b60405163a9059cbb60e01b6000528260045281602452602060006044600080885af1803d15601f3d116001600051141617163d151581166104655780863b1515166104655780610450578161042f573d15610409576020601f3d01046020840481600302818311156103f057818303600302610200838002858002030401015b5a602082011015610405573d6000803e3d6000fd5b5050505b63f486bc8760e01b60005285600452336024528460445260006064528360845260a46000fd5b639889192360e01b6000528560045233602452846044528360645260846000fd5b632f8aeb3960e11b6000528560045260246000fd5b50506040525050600060605250565b80356001600160a01b038116811461048b57600080fd5b919050565b600080600080608085870312156104a657600080fd5b6104af85610474565b93506104bd60208601610474565b92506104cb60408601610474565b9396929550929360600135925050565b600080600080600060a086880312156104f357600080fd5b6104fc86610474565b945061050a60208701610474565b935061051860408701610474565b94979396509394606081013594506080013592915050565b60008083601f84011261054257600080fd5b50813567ffffffffffffffff81111561055a57600080fd5b6020830191508360208260051b850101111561057557600080fd5b9250929050565b600080600080600080600060a0888a03121561059757600080fd5b6105a088610474565b96506105ae60208901610474565b95506105bc60408901610474565b9450606088013567ffffffffffffffff808211156105d957600080fd5b6105e58b838c01610530565b909650945060808a01359150808211156105fe57600080fd5b5061060b8a828b01610530565b989b979a50959850939692959293505050565b60008060006060848603121561063357600080fd5b61063c84610474565b925061064a60208501610474565b915060408401359050925092509256fea26469706673582212204986b6b2ecb95287f3c11a94144b24f979a5d00693c735bd359410eab404332064736f6c634300080d0033",
    "linkReferences": {}
  },
  "methodIdentifiers": {
    "ERC1155BatchTransferFrom(address,address,address,uint256[],uint256[])": "76aa79b2",
    "ERC1155TransferFrom(address,address,address,uint256,uint256)": "68e72e49",
    "ERC20Transfer(address,address,uint256)": "e59fdd36",
    "ERC721TransferFrom(address,address,address,uint256)": "18c4eeed"
  },
  "id": 52
}