{
  "abi": [
    {
      "anonymous": false,
      "inputs": [
        {
          "indexed": true,
          "internalType": "address",
          "name": "owner",
          "type": "address"
        },
        {
          "indexed": true,
          "internalType": "address",
          "name": "operator",
          "type": "address"
        },
        {
          "indexed": false,
          "internalType": "bool",
          "name": "approved",
          "type": "bool"
        }
      ],
      "name": "ApprovalForAll",
      "type": "event"
    },
    {
      "anonymous": false,
      "inputs": [
        {
          "indexed": true,
          "internalType": "address",
          "name": "operator",
          "type": "address"
        },
        {
          "indexed": true,
          "internalType": "address",
          "name": "from",
          "type": "address"
        },
        {
          "indexed": true,
          "internalType": "address",
          "name": "to",
          "type": "address"
        },
        {
          "indexed": false,
          "internalType": "uint256[]",
          "name": "ids",
          "type": "uint256[]"
        },
        {
          "indexed": false,
          "internalType": "uint256[]",
          "name": "amounts",
          "type": "uint256[]"
        }
      ],
      "name": "TransferBatch",
      "type": "event"
    },
    {
      "anonymous": false,
      "inputs": [
        {
          "indexed": true,
          "internalType": "address",
          "name": "operator",
          "type": "address"
        },
        {
          "indexed": true,
          "internalType": "address",
          "name": "from",
          "type": "address"
        },
        {
          "indexed": true,
          "internalType": "address",
          "name": "to",
          "type": "address"
        },
        {
          "indexed": false,
          "internalType": "uint256",
          "name": "id",
          "type": "uint256"
        },
        {
          "indexed": false,
          "internalType": "uint256",
          "name": "amount",
          "type": "uint256"
        }
      ],
      "name": "TransferSingle",
      "type": "event"
    },
    {
      "anonymous": false,
      "inputs": [
        {
          "indexed": false,
          "internalType": "string",
          "name": "value",
          "type": "string"
        },
        {
          "indexed": true,
          "internalType": "uint256",
          "name": "id",
          "type": "uint256"
        }
      ],
      "name": "URI",
      "type": "event"
    },
    {
      "inputs": [
        {
          "internalType": "address",
          "name": "",
          "type": "address"
        },
        {
          "internalType": "uint256",
          "name": "",
          "type": "uint256"
        }
      ],
      "name": "balanceOf",
      "outputs": [
        {
          "internalType": "uint256",
          "name": "",
          "type": "uint256"
        }
      ],
      "stateMutability": "view",
      "type": "function"
    },
    {
      "inputs": [
        {
          "internalType": "address[]",
          "name": "owners",
          "type": "address[]"
        },
        {
          "internalType": "uint256[]",
          "name": "ids",
          "type": "uint256[]"
        }
      ],
      "name": "balanceOfBatch",
      "outputs": [
        {
          "internalType": "uint256[]",
          "name": "balances",
          "type": "uint256[]"
        }
      ],
      "stateMutability": "view",
      "type": "function"
    },
    {
      "inputs": [
        {
          "internalType": "address",
          "name": "from",
          "type": "address"
        },
        {
          "internalType": "uint256[]",
          "name": "ids",
          "type": "uint256[]"
        },
        {
          "internalType": "uint256[]",
          "name": "amounts",
          "type": "uint256[]"
        }
      ],
      "name": "batchBurn",
      "outputs": [],
      "stateMutability": "nonpayable",
      "type": "function"
    },
    {
      "inputs": [
        {
          "internalType": "address",
          "name": "to",
          "type": "address"
        },
        {
          "internalType": "uint256[]",
          "name": "ids",
          "type": "uint256[]"
        },
        {
          "internalType": "uint256[]",
          "name": "amounts",
          "type": "uint256[]"
        },
        {
          "internalType": "bytes",
          "name": "data",
          "type": "bytes"
        }
      ],
      "name": "batchMint",
      "outputs": [],
      "stateMutability": "nonpayable",
      "type": "function"
    },
    {
      "inputs": [
        {
          "internalType": "address",
          "name": "from",
          "type": "address"
        },
        {
          "internalType": "uint256",
          "name": "id",
          "type": "uint256"
        },
        {
          "internalType": "uint256",
          "name": "amount",
          "type": "uint256"
        }
      ],
      "name": "burn",
      "outputs": [],
      "stateMutability": "nonpayable",
      "type": "function"
    },
    {
      "inputs": [
        {
          "internalType": "address",
          "name": "",
          "type": "address"
        },
        {
          "internalType": "address",
          "name": "",
          "type": "address"
        }
      ],
      "name": "isApprovedForAll",
      "outputs": [
        {
          "internalType": "bool",
          "name": "",
          "type": "bool"
        }
      ],
      "stateMutability": "view",
      "type": "function"
    },
    {
      "inputs": [
        {
          "internalType": "address",
          "name": "to",
          "type": "address"
        },
        {
          "internalType": "uint256",
          "name": "id",
          "type": "uint256"
        },
        {
          "internalType": "uint256",
          "name": "amount",
          "type": "uint256"
        },
        {
          "internalType": "bytes",
          "name": "data",
          "type": "bytes"
        }
      ],
      "name": "mint",
      "outputs": [],
      "stateMutability": "nonpayable",
      "type": "function"
    },
    {
      "inputs": [
        {
          "internalType": "address",
          "name": "from",
          "type": "address"
        },
        {
          "internalType": "address",
          "name": "to",
          "type": "address"
        },
        {
          "internalType": "uint256[]",
          "name": "ids",
          "type": "uint256[]"
        },
        {
          "internalType": "uint256[]",
          "name": "amounts",
          "type": "uint256[]"
        },
        {
          "internalType": "bytes",
          "name": "data",
          "type": "bytes"
        }
      ],
      "name": "safeBatchTransferFrom",
      "outputs": [],
      "stateMutability": "nonpayable",
      "type": "function"
    },
    {
      "inputs": [
        {
          "internalType": "address",
          "name": "from",
          "type": "address"
        },
        {
          "internalType": "address",
          "name": "to",
          "type": "address"
        },
        {
          "internalType": "uint256",
          "name": "id",
          "type": "uint256"
        },
        {
          "internalType": "uint256",
          "name": "amount",
          "type": "uint256"
        },
        {
          "internalType": "bytes",
          "name": "data",
          "type": "bytes"
        }
      ],
      "name": "safeTransferFrom",
      "outputs": [],
      "stateMutability": "nonpayable",
      "type": "function"
    },
    {
      "inputs": [
        {
          "internalType": "address",
          "name": "operator",
          "type": "address"
        },
        {
          "internalType": "bool",
          "name": "approved",
          "type": "bool"
        }
      ],
      "name": "setApprovalForAll",
      "outputs": [],
      "stateMutability": "nonpayable",
      "type": "function"
    },
    {
      "inputs": [
        {
          "internalType": "bytes4",
          "name": "interfaceId",
          "type": "bytes4"
        }
      ],
      "name": "supportsInterface",
      "outputs": [
        {
          "internalType": "bool",
          "name": "",
          "type": "bool"
        }
      ],
      "stateMutability": "view",
      "type": "function"
    },
    {
      "inputs": [
        {
          "internalType": "uint256",
          "name": "",
          "type": "uint256"
        }
      ],
      "name": "uri",
      "outputs": [
        {
          "internalType": "string",
          "name": "",
          "type": "string"
        }
      ],
      "stateMutability": "pure",
      "type": "function"
    }
  ],
  "bytecode": {
    "object": "0x608060405234801561001057600080fd5b5061170a806100206000396000f3fe608060405234801561001057600080fd5b50600436106100b35760003560e01c8063a22cb46511610071578063a22cb4651461018c578063b48ab8b61461019f578063e985e9c5146101b2578063f242432a146101e0578063f5298aca146101f3578063f6eb127a1461020657600080fd5b8062fdd58e146100b857806301ffc9a7146100f35780630e89341c146101165780632eb2c2d6146101445780634e1273f414610159578063731133e914610179575b600080fd5b6100e06100c6366004610d6d565b600060208181529281526040808220909352908152205481565b6040519081526020015b60405180910390f35b610106610101366004610db0565b610219565b60405190151581526020016100ea565b610137610124366004610dd4565b5060408051602081019091526000815290565b6040516100ea9190610e3a565b610157610152366004610edb565b61026b565b005b61016c610167366004610f96565b6104f5565b6040516100ea919061103d565b610157610187366004611107565b610608565b61015761019a366004611168565b61061a565b6101576101ad366004611224565b610686565b6101066101c03660046112b1565b600160209081526000928352604080842090915290825290205460ff1681565b6101576101ee3660046112e4565b610692565b61015761020136600461135c565b61088c565b61015761021436600461138f565b61089c565b60006301ffc9a760e01b6001600160e01b03198316148061024a5750636cdb3d1360e11b6001600160e01b03198316145b8061026557506303a24d0760e21b6001600160e01b03198316145b92915050565b8483146102935760405162461bcd60e51b815260040161028a90611403565b60405180910390fd5b336001600160a01b03891614806102cd57506001600160a01b038816600090815260016020908152604080832033845290915290205460ff165b61030a5760405162461bcd60e51b815260206004820152600e60248201526d1393d517d055551213d49256915160921b604482015260640161028a565b60008060005b878110156103c55788888281811061032a5761032a61142c565b9050602002013592508686828181106103455761034561142c565b6001600160a01b038e1660009081526020818152604080832089845282528220805493909102949094013595508593925090610382908490611458565b90915550506001600160a01b038a16600090815260208181526040808320868452909152812080548492906103b890849061146f565b9091555050600101610310565b50886001600160a01b03168a6001600160a01b0316336001600160a01b03167f4a39dc06d4c0dbc64b70af90fd698a233a518aa5d07e595d983b8c0526c8f7fb8b8b8b8b60405161041994939291906114bd565b60405180910390a46001600160a01b0389163b156104c05760405163bc197c8160e01b808252906001600160a01b038b169063bc197c819061046d9033908f908e908e908e908e908e908e9060040161150d565b6020604051808303816000875af115801561048c573d6000803e3d6000fd5b505050506040513d601f19601f820116820180604052508101906104b09190611571565b6001600160e01b031916146104cd565b6001600160a01b03891615155b6104e95760405162461bcd60e51b815260040161028a9061158e565b50505050505050505050565b60608382146105165760405162461bcd60e51b815260040161028a90611403565b8367ffffffffffffffff81111561052f5761052f611050565b604051908082528060200260200182016040528015610558578160200160208202803683370190505b50905060005b848110156105ff5760008087878481811061057b5761057b61142c565b905060200201602081019061059091906115b8565b6001600160a01b03166001600160a01b0316815260200190815260200160002060008585848181106105c4576105c461142c565b905060200201358152602001908152602001600020548282815181106105ec576105ec61142c565b602090810291909101015260010161055e565b50949350505050565b610614848484846108a7565b50505050565b3360008181526001602090815260408083206001600160a01b03871680855290835292819020805460ff191686151590811790915590519081529192917f17307eab39ab6107e8899845ad3d59bd9653f200f220920489ca2b5937696c31910160405180910390a35050565b610614848484846109e9565b336001600160a01b03871614806106cc57506001600160a01b038616600090815260016020908152604080832033845290915290205460ff165b6107095760405162461bcd60e51b815260206004820152600e60248201526d1393d517d055551213d49256915160921b604482015260640161028a565b6001600160a01b0386166000908152602081815260408083208784529091528120805485929061073a908490611458565b90915550506001600160a01b0385166000908152602081815260408083208784529091528120805485929061077090849061146f565b909155505060408051858152602081018590526001600160a01b03808816929089169133917fc3d58168c5ae7397731d063d5bbf3d657854427343f4c083240f7aacaa2d0f62910160405180910390a46001600160a01b0385163b1561085b5760405163f23a6e6160e01b808252906001600160a01b0387169063f23a6e61906108089033908b908a908a908a908a906004016115d3565b6020604051808303816000875af1158015610827573d6000803e3d6000fd5b505050506040513d601f19601f8201168201806040525081019061084b9190611571565b6001600160e01b03191614610868565b6001600160a01b03851615155b6108845760405162461bcd60e51b815260040161028a9061158e565b505050505050565b610897838383610bbd565b505050565b610897838383610c41565b6001600160a01b038416600090815260208181526040808320868452909152812080548492906108d890849061146f565b909155505060408051848152602081018490526001600160a01b0386169160009133917fc3d58168c5ae7397731d063d5bbf3d657854427343f4c083240f7aacaa2d0f62910160405180910390a46001600160a01b0384163b156109c05760405163f23a6e6160e01b808252906001600160a01b0386169063f23a6e619061096d90339060009089908990899060040161161a565b6020604051808303816000875af115801561098c573d6000803e3d6000fd5b505050506040513d601f19601f820116820180604052508101906109b09190611571565b6001600160e01b031916146109cd565b6001600160a01b03841615155b6106145760405162461bcd60e51b815260040161028a9061158e565b825182518114610a0b5760405162461bcd60e51b815260040161028a90611403565b60005b81811015610a9a57838181518110610a2857610a2861142c565b6020026020010151600080886001600160a01b03166001600160a01b031681526020019081526020016000206000878481518110610a6857610a6861142c565b602002602001015181526020019081526020016000206000828254610a8d919061146f565b9091555050600101610a0e565b50846001600160a01b031660006001600160a01b0316336001600160a01b03167f4a39dc06d4c0dbc64b70af90fd698a233a518aa5d07e595d983b8c0526c8f7fb8787604051610aeb929190611654565b60405180910390a46001600160a01b0385163b15610b8d5760405163bc197c8160e01b808252906001600160a01b0387169063bc197c8190610b3a9033906000908a908a908a90600401611682565b6020604051808303816000875af1158015610b59573d6000803e3d6000fd5b505050506040513d601f19601f82011682018060405250810190610b7d9190611571565b6001600160e01b03191614610b9a565b6001600160a01b03851615155b610bb65760405162461bcd60e51b815260040161028a9061158e565b5050505050565b6001600160a01b03831660009081526020818152604080832085845290915281208054839290610bee908490611458565b909155505060408051838152602081018390526000916001600160a01b0386169133917fc3d58168c5ae7397731d063d5bbf3d657854427343f4c083240f7aacaa2d0f62910160405180910390a4505050565b815181518114610c635760405162461bcd60e51b815260040161028a90611403565b60005b81811015610cf257828181518110610c8057610c8061142c565b6020026020010151600080876001600160a01b03166001600160a01b031681526020019081526020016000206000868481518110610cc057610cc061142c565b602002602001015181526020019081526020016000206000828254610ce59190611458565b9091555050600101610c66565b5060006001600160a01b0316846001600160a01b0316336001600160a01b03167f4a39dc06d4c0dbc64b70af90fd698a233a518aa5d07e595d983b8c0526c8f7fb8686604051610d43929190611654565b60405180910390a450505050565b80356001600160a01b0381168114610d6857600080fd5b919050565b60008060408385031215610d8057600080fd5b610d8983610d51565b946020939093013593505050565b6001600160e01b031981168114610dad57600080fd5b50565b600060208284031215610dc257600080fd5b8135610dcd81610d97565b9392505050565b600060208284031215610de657600080fd5b5035919050565b6000815180845260005b81811015610e1357602081850181015186830182015201610df7565b81811115610e25576000602083870101525b50601f01601f19169290920160200192915050565b602081526000610dcd6020830184610ded565b60008083601f840112610e5f57600080fd5b50813567ffffffffffffffff811115610e7757600080fd5b6020830191508360208260051b8501011115610e9257600080fd5b9250929050565b60008083601f840112610eab57600080fd5b50813567ffffffffffffffff811115610ec357600080fd5b602083019150836020828501011115610e9257600080fd5b60008060008060008060008060a0898b031215610ef757600080fd5b610f0089610d51565b9750610f0e60208a01610d51565b9650604089013567ffffffffffffffff80821115610f2b57600080fd5b610f378c838d01610e4d565b909850965060608b0135915080821115610f5057600080fd5b610f5c8c838d01610e4d565b909650945060808b0135915080821115610f7557600080fd5b50610f828b828c01610e99565b999c989b5096995094979396929594505050565b60008060008060408587031215610fac57600080fd5b843567ffffffffffffffff80821115610fc457600080fd5b610fd088838901610e4d565b90965094506020870135915080821115610fe957600080fd5b50610ff687828801610e4d565b95989497509550505050565b600081518084526020808501945080840160005b8381101561103257815187529582019590820190600101611016565b509495945050505050565b602081526000610dcd6020830184611002565b634e487b7160e01b600052604160045260246000fd5b604051601f8201601f1916810167ffffffffffffffff8111828210171561108f5761108f611050565b604052919050565b600082601f8301126110a857600080fd5b813567ffffffffffffffff8111156110c2576110c2611050565b6110d5601f8201601f1916602001611066565b8181528460208386010111156110ea57600080fd5b816020850160208301376000918101602001919091529392505050565b6000806000806080858703121561111d57600080fd5b61112685610d51565b93506020850135925060408501359150606085013567ffffffffffffffff81111561115057600080fd5b61115c87828801611097565b91505092959194509250565b6000806040838503121561117b57600080fd5b61118483610d51565b91506020830135801515811461119957600080fd5b809150509250929050565b600082601f8301126111b557600080fd5b8135602067ffffffffffffffff8211156111d1576111d1611050565b8160051b6111e0828201611066565b92835284810182019282810190878511156111fa57600080fd5b83870192505b8483101561121957823582529183019190830190611200565b979650505050505050565b6000806000806080858703121561123a57600080fd5b61124385610d51565b9350602085013567ffffffffffffffff8082111561126057600080fd5b61126c888389016111a4565b9450604087013591508082111561128257600080fd5b61128e888389016111a4565b935060608701359150808211156112a457600080fd5b5061115c87828801611097565b600080604083850312156112c457600080fd5b6112cd83610d51565b91506112db60208401610d51565b90509250929050565b60008060008060008060a087890312156112fd57600080fd5b61130687610d51565b955061131460208801610d51565b94506040870135935060608701359250608087013567ffffffffffffffff81111561133e57600080fd5b61134a89828a01610e99565b979a9699509497509295939492505050565b60008060006060848603121561137157600080fd5b61137a84610d51565b95602085013595506040909401359392505050565b6000806000606084860312156113a457600080fd5b6113ad84610d51565b9250602084013567ffffffffffffffff808211156113ca57600080fd5b6113d6878388016111a4565b935060408601359150808211156113ec57600080fd5b506113f9868287016111a4565b9150509250925092565b6020808252600f908201526e0988a9c8ea890be9a92a69a82a8869608b1b604082015260600190565b634e487b7160e01b600052603260045260246000fd5b634e487b7160e01b600052601160045260246000fd5b60008282101561146a5761146a611442565b500390565b6000821982111561148257611482611442565b500190565b81835260006001600160fb1b038311156114a057600080fd5b8260051b8083602087013760009401602001938452509192915050565b6040815260006114d1604083018688611487565b8281036020840152611219818587611487565b81835281816020850137506000828201602090810191909152601f909101601f19169091010190565b6001600160a01b0389811682528816602082015260a06040820181905260009061153a908301888a611487565b828103606084015261154d818789611487565b905082810360808401526115628185876114e4565b9b9a5050505050505050505050565b60006020828403121561158357600080fd5b8151610dcd81610d97565b60208082526010908201526f155394d0519157d49150d2541251539560821b604082015260600190565b6000602082840312156115ca57600080fd5b610dcd82610d51565b6001600160a01b03878116825286166020820152604081018590526060810184905260a06080820181905260009061160e90830184866114e4565b98975050505050505050565b6001600160a01b03868116825285166020820152604081018490526060810183905260a06080820181905260009061121990830184610ded565b6040815260006116676040830185611002565b82810360208401526116798185611002565b95945050505050565b6001600160a01b0386811682528516602082015260a0604082018190526000906116ae90830186611002565b82810360608401526116c08186611002565b9050828103608084015261160e8185610ded56fea26469706673582212209af631a0ab9d70dcc55c63486c024d191383cf627ecd416da421d7372c16f49464736f6c634300080d0033",
    "linkReferences": {}
  },
  "methodIdentifiers": {
    "balanceOf(address,uint256)": "00fdd58e",
    "balanceOfBatch(address[],uint256[])": "4e1273f4",
    "batchBurn(address,uint256[],uint256[])": "f6eb127a",
    "batchMint(address,uint256[],uint256[],bytes)": "b48ab8b6",
    "burn(address,uint256,uint256)": "f5298aca",
    "isApprovedForAll(address,address)": "e985e9c5",
    "mint(address,uint256,uint256,bytes)": "731133e9",
    "safeBatchTransferFrom(address,address,uint256[],uint256[],bytes)": "2eb2c2d6",
    "safeTransferFrom(address,address,uint256,uint256,bytes)": "f242432a",
    "setApprovalForAll(address,bool)": "a22cb465",
    "supportsInterface(bytes4)": "01ffc9a7",
    "uri(uint256)": "0e89341c"
  },
  "id": 38
}