{
  "abi": [
    {
      "inputs": [
        {
          "internalType": "address",
          "name": "_addr",
          "type": "address"
        },
        {
          "internalType": "uint256",
          "name": "_privateKey",
          "type": "uint256"
        },
        {
          "internalType": "address",
          "name": "_target",
          "type": "address"
        }
      ],
      "stateMutability": "nonpayable",
      "type": "constructor"
    },
    {
      "inputs": [
        {
          "internalType": "address",
          "name": "arg0",
          "type": "address"
        },
        {
          "internalType": "address",
          "name": "arg1",
          "type": "address"
        },
        {
          "internalType": "uint256[]",
          "name": "arg2",
          "type": "uint256[]"
        },
        {
          "internalType": "uint256[]",
          "name": "arg3",
          "type": "uint256[]"
        },
        {
          "internalType": "bytes",
          "name": "arg4",
          "type": "bytes"
        }
      ],
      "name": "onERC1155BatchReceived",
      "outputs": [
        {
          "internalType": "bytes4",
          "name": "",
          "type": "bytes4"
        }
      ],
      "stateMutability": "nonpayable",
      "type": "function"
    },
    {
      "inputs": [
        {
          "internalType": "address",
          "name": "arg0",
          "type": "address"
        },
        {
          "internalType": "address",
          "name": "arg1",
          "type": "address"
        },
        {
          "internalType": "uint256",
          "name": "arg2",
          "type": "uint256"
        },
        {
          "internalType": "uint256",
          "name": "arg3",
          "type": "uint256"
        },
        {
          "internalType": "bytes",
          "name": "arg4",
          "type": "bytes"
        }
      ],
      "name": "onERC1155Received",
      "outputs": [
        {
          "internalType": "bytes4",
          "name": "",
          "type": "bytes4"
        }
      ],
      "stateMutability": "nonpayable",
      "type": "function"
    },
    {
      "inputs": [
        {
          "internalType": "address",
          "name": "arg0",
          "type": "address"
        },
        {
          "internalType": "address",
          "name": "arg1",
          "type": "address"
        },
        {
          "internalType": "uint256",
          "name": "arg2",
          "type": "uint256"
        },
        {
          "internalType": "bytes",
          "name": "arg3",
          "type": "bytes"
        }
      ],
      "name": "onERC721Received",
      "outputs": [
        {
          "internalType": "bytes4",
          "name": "",
          "type": "bytes4"
        }
      ],
      "stateMutability": "nonpayable",
      "type": "function"
    },
    {
      "inputs": [],
      "name": "proxyContract",
      "outputs": [
        {
          "internalType": "address",
          "name": "",
          "type": "address"
        }
      ],
      "stateMutability": "view",
      "type": "function"
    }
  ],
  "bytecode": {
    "object": "0x608060405234801561001057600080fd5b50604051610a40380380610a4083398101604081905261002f91610108565b81156100b3576040516001625e79b760e01b0319815260048101839052737109709ecfa91a80626ff3989d68f67f5b1dd12d9063ffa18649906024016020604051808303816000875af115801561008a573d6000803e3d6000fd5b505050506040513d601f19601f820116820180604052508101906100ae9190610144565b6100b5565b825b600080546001600160a01b03199081166001600160a01b039384161790915560019390935560028054909316911617905550610166565b80516001600160a01b038116811461010357600080fd5b919050565b60008060006060848603121561011d57600080fd5b610126846100ec565b92506020840151915061013b604085016100ec565b90509250925092565b60006020828403121561015657600080fd5b61015f826100ec565b9392505050565b6108cb806101756000396000f3fe608060405234801561001057600080fd5b506004361061004c5760003560e01c8063150b7a0214610051578063bc197c8114610082578063ed55044314610095578063f23a6e61146100b0575b600080fd5b61006461005f366004610510565b6100c3565b6040516001600160e01b031990911681526020015b60405180910390f35b6100646100903660046105f8565b610226565b6002546040516001600160a01b039091168152602001610079565b6100646100be3660046106a2565b61038c565b600080546040516308b6ac0f60e31b81526001600160a01b03909116600482018190526024820152737109709ecfa91a80626ff3989d68f67f5b1dd12d906345b5607890604401600060405180830381600087803b15801561012457600080fd5b505af1158015610138573d6000803e3d6000fd5b5050600254604051630a85bd0160e11b81526001600160a01b03909116925063150b7a029150610172908890889088908890600401610754565b6020604051808303816000875af1158015610191573d6000803e3d6000fd5b505050506040513d601f19601f820116820180604052508101906101b59190610791565b9050737109709ecfa91a80626ff3989d68f67f5b1dd12d6001600160a01b03166390c5013b6040518163ffffffff1660e01b8152600401600060405180830381600087803b15801561020657600080fd5b505af115801561021a573d6000803e3d6000fd5b50505050949350505050565b600080546040516308b6ac0f60e31b81526001600160a01b03909116600482018190526024820152737109709ecfa91a80626ff3989d68f67f5b1dd12d906345b5607890604401600060405180830381600087803b15801561028757600080fd5b505af115801561029b573d6000803e3d6000fd5b505060025460405163bc197c8160e01b81526001600160a01b03909116925063bc197c8191506102d790899089908990899089906004016107fd565b6020604051808303816000875af11580156102f6573d6000803e3d6000fd5b505050506040513d601f19601f8201168201806040525081019061031a9190610791565b9050737109709ecfa91a80626ff3989d68f67f5b1dd12d6001600160a01b03166390c5013b6040518163ffffffff1660e01b8152600401600060405180830381600087803b15801561036b57600080fd5b505af115801561037f573d6000803e3d6000fd5b5050505095945050505050565b600080546040516308b6ac0f60e31b81526001600160a01b03909116600482018190526024820152737109709ecfa91a80626ff3989d68f67f5b1dd12d906345b5607890604401600060405180830381600087803b1580156103ed57600080fd5b505af1158015610401573d6000803e3d6000fd5b505060025460405163f23a6e6160e01b81526001600160a01b03909116925063f23a6e6191506102d7908990899089908990899060040161085b565b80356001600160a01b038116811461045457600080fd5b919050565b634e487b7160e01b600052604160045260246000fd5b604051601f8201601f1916810167ffffffffffffffff8111828210171561049857610498610459565b604052919050565b600082601f8301126104b157600080fd5b813567ffffffffffffffff8111156104cb576104cb610459565b6104de601f8201601f191660200161046f565b8181528460208386010111156104f357600080fd5b816020850160208301376000918101602001919091529392505050565b6000806000806080858703121561052657600080fd5b61052f8561043d565b935061053d6020860161043d565b925060408501359150606085013567ffffffffffffffff81111561056057600080fd5b61056c878288016104a0565b91505092959194509250565b600082601f83011261058957600080fd5b8135602067ffffffffffffffff8211156105a5576105a5610459565b8160051b6105b482820161046f565b92835284810182019282810190878511156105ce57600080fd5b83870192505b848310156105ed578235825291830191908301906105d4565b979650505050505050565b600080600080600060a0868803121561061057600080fd5b6106198661043d565b94506106276020870161043d565b9350604086013567ffffffffffffffff8082111561064457600080fd5b61065089838a01610578565b9450606088013591508082111561066657600080fd5b61067289838a01610578565b9350608088013591508082111561068857600080fd5b50610695888289016104a0565b9150509295509295909350565b600080600080600060a086880312156106ba57600080fd5b6106c38661043d565b94506106d16020870161043d565b93506040860135925060608601359150608086013567ffffffffffffffff8111156106fb57600080fd5b610695888289016104a0565b6000815180845260005b8181101561072d57602081850181015186830182015201610711565b8181111561073f576000602083870101525b50601f01601f19169290920160200192915050565b6001600160a01b038581168252841660208201526040810183905260806060820181905260009061078790830184610707565b9695505050505050565b6000602082840312156107a357600080fd5b81516001600160e01b0319811681146107bb57600080fd5b9392505050565b600081518084526020808501945080840160005b838110156107f2578151875295820195908201906001016107d6565b509495945050505050565b6001600160a01b0386811682528516602082015260a060408201819052600090610829908301866107c2565b828103606084015261083b81866107c2565b9050828103608084015261084f8185610707565b98975050505050505050565b6001600160a01b03868116825285166020820152604081018490526060810183905260a0608082018190526000906105ed9083018461070756fea26469706673582212206e2b751df17be3171de3b9db84166b6551758e684aca217487eab6ffe5648a9264736f6c634300080d0033",
    "linkReferences": {}
  },
  "methodIdentifiers": {
    "onERC1155BatchReceived(address,address,uint256[],uint256[],bytes)": "bc197c81",
    "onERC1155Received(address,address,uint256,uint256,bytes)": "f23a6e61",
    "onERC721Received(address,address,uint256,bytes)": "150b7a02",
    "proxyContract()": "ed550443"
  },
  "id": 104
}