{
  "abi": [
    {
      "inputs": [
        {
          "internalType": "address",
          "name": "_addr",
          "type": "address"
        },
        {
          "internalType": "uint256",
          "name": "_privateKey",
          "type": "uint256"
        },
        {
          "internalType": "address",
          "name": "_target",
          "type": "address"
        }
      ],
      "stateMutability": "nonpayable",
      "type": "constructor"
    },
    {
      "inputs": [],
      "name": "DOMAIN_SEPARATOR",
      "outputs": [
        {
          "internalType": "bytes32",
          "name": "",
          "type": "bytes32"
        }
      ],
      "stateMutability": "nonpayable",
      "type": "function"
    },
    {
      "inputs": [
        {
          "internalType": "address",
          "name": "arg0",
          "type": "address"
        },
        {
          "internalType": "address",
          "name": "arg1",
          "type": "address"
        }
      ],
      "name": "allowance",
      "outputs": [
        {
          "internalType": "uint256",
          "name": "",
          "type": "uint256"
        }
      ],
      "stateMutability": "nonpayable",
      "type": "function"
    },
    {
      "inputs": [
        {
          "internalType": "address",
          "name": "spender",
          "type": "address"
        },
        {
          "internalType": "uint256",
          "name": "amount",
          "type": "uint256"
        }
      ],
      "name": "approve",
      "outputs": [
        {
          "internalType": "bool",
          "name": "",
          "type": "bool"
        }
      ],
      "stateMutability": "nonpayable",
      "type": "function"
    },
    {
      "inputs": [
        {
          "internalType": "address",
          "name": "arg0",
          "type": "address"
        }
      ],
      "name": "balanceOf",
      "outputs": [
        {
          "internalType": "uint256",
          "name": "",
          "type": "uint256"
        }
      ],
      "stateMutability": "nonpayable",
      "type": "function"
    },
    {
      "inputs": [
        {
          "internalType": "address",
          "name": "from",
          "type": "address"
        },
        {
          "internalType": "uint256",
          "name": "amount",
          "type": "uint256"
        }
      ],
      "name": "burn",
      "outputs": [],
      "stateMutability": "nonpayable",
      "type": "function"
    },
    {
      "inputs": [],
      "name": "decimals",
      "outputs": [
        {
          "internalType": "uint8",
          "name": "",
          "type": "uint8"
        }
      ],
      "stateMutability": "nonpayable",
      "type": "function"
    },
    {
      "inputs": [
        {
          "internalType": "address",
          "name": "to",
          "type": "address"
        },
        {
          "internalType": "uint256",
          "name": "amount",
          "type": "uint256"
        }
      ],
      "name": "mint",
      "outputs": [],
      "stateMutability": "nonpayable",
      "type": "function"
    },
    {
      "inputs": [],
      "name": "name",
      "outputs": [
        {
          "internalType": "string",
          "name": "",
          "type": "string"
        }
      ],
      "stateMutability": "nonpayable",
      "type": "function"
    },
    {
      "inputs": [
        {
          "internalType": "address",
          "name": "arg0",
          "type": "address"
        }
      ],
      "name": "nonces",
      "outputs": [
        {
          "internalType": "uint256",
          "name": "",
          "type": "uint256"
        }
      ],
      "stateMutability": "nonpayable",
      "type": "function"
    },
    {
      "inputs": [
        {
          "internalType": "address",
          "name": "owner",
          "type": "address"
        },
        {
          "internalType": "address",
          "name": "spender",
          "type": "address"
        },
        {
          "internalType": "uint256",
          "name": "value",
          "type": "uint256"
        },
        {
          "internalType": "uint256",
          "name": "deadline",
          "type": "uint256"
        },
        {
          "internalType": "uint8",
          "name": "v",
          "type": "uint8"
        },
        {
          "internalType": "bytes32",
          "name": "r",
          "type": "bytes32"
        },
        {
          "internalType": "bytes32",
          "name": "s",
          "type": "bytes32"
        }
      ],
      "name": "permit",
      "outputs": [],
      "stateMutability": "nonpayable",
      "type": "function"
    },
    {
      "inputs": [],
      "name": "proxyContract",
      "outputs": [
        {
          "internalType": "address",
          "name": "",
          "type": "address"
        }
      ],
      "stateMutability": "view",
      "type": "function"
    },
    {
      "inputs": [],
      "name": "symbol",
      "outputs": [
        {
          "internalType": "string",
          "name": "",
          "type": "string"
        }
      ],
      "stateMutability": "nonpayable",
      "type": "function"
    },
    {
      "inputs": [],
      "name": "totalSupply",
      "outputs": [
        {
          "internalType": "uint256",
          "name": "",
          "type": "uint256"
        }
      ],
      "stateMutability": "nonpayable",
      "type": "function"
    },
    {
      "inputs": [
        {
          "internalType": "address",
          "name": "to",
          "type": "address"
        },
        {
          "internalType": "uint256",
          "name": "amount",
          "type": "uint256"
        }
      ],
      "name": "transfer",
      "outputs": [
        {
          "internalType": "bool",
          "name": "",
          "type": "bool"
        }
      ],
      "stateMutability": "nonpayable",
      "type": "function"
    },
    {
      "inputs": [
        {
          "internalType": "address",
          "name": "from",
          "type": "address"
        },
        {
          "internalType": "address",
          "name": "to",
          "type": "address"
        },
        {
          "internalType": "uint256",
          "name": "amount",
          "type": "uint256"
        }
      ],
      "name": "transferFrom",
      "outputs": [
        {
          "internalType": "bool",
          "name": "",
          "type": "bool"
        }
      ],
      "stateMutability": "nonpayable",
      "type": "function"
    }
  ],
  "bytecode": {
    "object": "0x60806040523480156200001157600080fd5b506040516200151f3803806200151f833981016040819052620000349162000114565b8115620000bd576040516001625e79b760e01b0319815260048101839052737109709ecfa91a80626ff3989d68f67f5b1dd12d9063ffa18649906024016020604051808303816000875af115801562000091573d6000803e3d6000fd5b505050506040513d601f19601f82011682018060405250810190620000b7919062000155565b620000bf565b825b600080546001600160a01b03199081166001600160a01b0393841617909155600193909355600280549093169116179055506200017a565b80516001600160a01b03811681146200010f57600080fd5b919050565b6000806000606084860312156200012a57600080fd5b6200013584620000f7565b9250602084015191506200014c60408501620000f7565b90509250925092565b6000602082840312156200016857600080fd5b6200017382620000f7565b9392505050565b611395806200018a6000396000f3fe608060405234801561001057600080fd5b50600436106100f55760003560e01c806370a0823111610097578063a9059cbb11610066578063a9059cbb146101dc578063d505accf146101ef578063dd62ed3e14610202578063ed5504431461021557600080fd5b806370a082311461019b5780637ecebe00146101ae57806395d89b41146101c15780639dc29fac146101c957600080fd5b806323b872dd116100d357806323b872dd14610151578063313ce567146101645780633644e5151461017e57806340c10f191461018657600080fd5b806306fdde03146100fa578063095ea7b31461011857806318160ddd1461013b575b600080fd5b610102610230565b60405161010f9190611081565b60405180910390f35b61012b6101263660046110d0565b610386565b604051901515815260200161010f565b6101436104d8565b60405190815260200161010f565b61012b61015f3660046110fa565b6105c0565b61016c61071a565b60405160ff909116815260200161010f565b610143610802565b6101996101943660046110d0565b6108c6565b005b6101436101a9366004611136565b610a02565b6101436101bc366004611136565b610b4a565b610102610bec565b6101996101d73660046110d0565b610cb4565b61012b6101ea3660046110d0565b610d5d565b6101996101fd36600461116a565b610e07565b6101436102103660046111d7565b610f6d565b6002546040516001600160a01b03909116815260200161010f565b6000546040516308b6ac0f60e31b8152606091600080516020611340833981519152916345b5607891610273916001600160a01b0390911690819060040161120a565b600060405180830381600087803b15801561028d57600080fd5b505af11580156102a1573d6000803e3d6000fd5b50505050600260009054906101000a90046001600160a01b03166001600160a01b03166306fdde036040518163ffffffff1660e01b8152600401600060405180830381865afa1580156102f8573d6000803e3d6000fd5b505050506040513d6000823e601f3d908101601f19168201604052610320919081019061123a565b90506000805160206113408339815191526001600160a01b03166390c5013b6040518163ffffffff1660e01b8152600401600060405180830381600087803b15801561036b57600080fd5b505af115801561037f573d6000803e3d6000fd5b5050505090565b600080546040516308b6ac0f60e31b8152600080516020611340833981519152916345b56078916103c5916001600160a01b031690819060040161120a565b600060405180830381600087803b1580156103df57600080fd5b505af11580156103f3573d6000803e3d6000fd5b505060025460405163095ea7b360e01b81526001600160a01b03878116600483015260248201879052909116925063095ea7b391506044015b6020604051808303816000875af115801561044b573d6000803e3d6000fd5b505050506040513d601f19601f8201168201806040525081019061046f91906112e7565b90506000805160206113408339815191526001600160a01b03166390c5013b6040518163ffffffff1660e01b8152600401600060405180830381600087803b1580156104ba57600080fd5b505af11580156104ce573d6000803e3d6000fd5b5050505092915050565b600080546040516308b6ac0f60e31b8152600080516020611340833981519152916345b5607891610517916001600160a01b031690819060040161120a565b600060405180830381600087803b15801561053157600080fd5b505af1158015610545573d6000803e3d6000fd5b50505050600260009054906101000a90046001600160a01b03166001600160a01b03166318160ddd6040518163ffffffff1660e01b8152600401602060405180830381865afa15801561059c573d6000803e3d6000fd5b505050506040513d601f19601f820116820180604052508101906103209190611309565b600080546040516308b6ac0f60e31b8152600080516020611340833981519152916345b56078916105ff916001600160a01b031690819060040161120a565b600060405180830381600087803b15801561061957600080fd5b505af115801561062d573d6000803e3d6000fd5b50506002546040516323b872dd60e01b81526001600160a01b03888116600483015287811660248301526044820187905290911692506323b872dd91506064016020604051808303816000875af115801561068c573d6000803e3d6000fd5b505050506040513d601f19601f820116820180604052508101906106b091906112e7565b90506000805160206113408339815191526001600160a01b03166390c5013b6040518163ffffffff1660e01b8152600401600060405180830381600087803b1580156106fb57600080fd5b505af115801561070f573d6000803e3d6000fd5b505050509392505050565b600080546040516308b6ac0f60e31b8152600080516020611340833981519152916345b5607891610759916001600160a01b031690819060040161120a565b600060405180830381600087803b15801561077357600080fd5b505af1158015610787573d6000803e3d6000fd5b50505050600260009054906101000a90046001600160a01b03166001600160a01b031663313ce5676040518163ffffffff1660e01b8152600401602060405180830381865afa1580156107de573d6000803e3d6000fd5b505050506040513d601f19601f820116820180604052508101906103209190611322565b600080546040516308b6ac0f60e31b8152600080516020611340833981519152916345b5607891610841916001600160a01b031690819060040161120a565b600060405180830381600087803b15801561085b57600080fd5b505af115801561086f573d6000803e3d6000fd5b50505050600260009054906101000a90046001600160a01b03166001600160a01b0316633644e5156040518163ffffffff1660e01b8152600401602060405180830381865afa15801561059c573d6000803e3d6000fd5b6000546040516308b6ac0f60e31b8152600080516020611340833981519152916345b5607891610904916001600160a01b031690819060040161120a565b600060405180830381600087803b15801561091e57600080fd5b505af1158015610932573d6000803e3d6000fd5b50506002546040516340c10f1960e01b81526001600160a01b0386811660048301526024820186905290911692506340c10f1991506044015b600060405180830381600087803b15801561098557600080fd5b505af1158015610999573d6000803e3d6000fd5b505050506000805160206113408339815191526001600160a01b03166390c5013b6040518163ffffffff1660e01b8152600401600060405180830381600087803b1580156109e657600080fd5b505af11580156109fa573d6000803e3d6000fd5b505050505050565b600080546040516308b6ac0f60e31b8152600080516020611340833981519152916345b5607891610a41916001600160a01b031690819060040161120a565b600060405180830381600087803b158015610a5b57600080fd5b505af1158015610a6f573d6000803e3d6000fd5b50506002546040516370a0823160e01b81526001600160a01b03868116600483015290911692506370a0823191506024015b602060405180830381865afa158015610abe573d6000803e3d6000fd5b505050506040513d601f19601f82011682018060405250810190610ae29190611309565b90506000805160206113408339815191526001600160a01b03166390c5013b6040518163ffffffff1660e01b8152600401600060405180830381600087803b158015610b2d57600080fd5b505af1158015610b41573d6000803e3d6000fd5b50505050919050565b600080546040516308b6ac0f60e31b8152600080516020611340833981519152916345b5607891610b89916001600160a01b031690819060040161120a565b600060405180830381600087803b158015610ba357600080fd5b505af1158015610bb7573d6000803e3d6000fd5b5050600254604051623f675f60e91b81526001600160a01b0386811660048301529091169250637ecebe009150602401610aa1565b6000546040516308b6ac0f60e31b8152606091600080516020611340833981519152916345b5607891610c2f916001600160a01b0390911690819060040161120a565b600060405180830381600087803b158015610c4957600080fd5b505af1158015610c5d573d6000803e3d6000fd5b50505050600260009054906101000a90046001600160a01b03166001600160a01b03166395d89b416040518163ffffffff1660e01b8152600401600060405180830381865afa1580156102f8573d6000803e3d6000fd5b6000546040516308b6ac0f60e31b8152600080516020611340833981519152916345b5607891610cf2916001600160a01b031690819060040161120a565b600060405180830381600087803b158015610d0c57600080fd5b505af1158015610d20573d6000803e3d6000fd5b5050600254604051632770a7eb60e21b81526001600160a01b038681166004830152602482018690529091169250639dc29fac915060440161096b565b600080546040516308b6ac0f60e31b8152600080516020611340833981519152916345b5607891610d9c916001600160a01b031690819060040161120a565b600060405180830381600087803b158015610db657600080fd5b505af1158015610dca573d6000803e3d6000fd5b505060025460405163a9059cbb60e01b81526001600160a01b03878116600483015260248201879052909116925063a9059cbb915060440161042c565b6000546040516308b6ac0f60e31b8152600080516020611340833981519152916345b5607891610e45916001600160a01b031690819060040161120a565b600060405180830381600087803b158015610e5f57600080fd5b505af1158015610e73573d6000803e3d6000fd5b505060025460405163d505accf60e01b81526001600160a01b038b811660048301528a81166024830152604482018a90526064820189905260ff8816608483015260a4820187905260c48201869052909116925063d505accf915060e401600060405180830381600087803b158015610eeb57600080fd5b505af1158015610eff573d6000803e3d6000fd5b505050506000805160206113408339815191526001600160a01b03166390c5013b6040518163ffffffff1660e01b8152600401600060405180830381600087803b158015610f4c57600080fd5b505af1158015610f60573d6000803e3d6000fd5b5050505050505050505050565b600080546040516308b6ac0f60e31b8152600080516020611340833981519152916345b5607891610fac916001600160a01b031690819060040161120a565b600060405180830381600087803b158015610fc657600080fd5b505af1158015610fda573d6000803e3d6000fd5b5050600254604051636eb1769f60e11b81526001600160a01b03909116925063dd62ed3e9150611010908690869060040161120a565b602060405180830381865afa15801561102d573d6000803e3d6000fd5b505050506040513d601f19601f8201168201806040525081019061046f9190611309565b60005b8381101561106c578181015183820152602001611054565b8381111561107b576000848401525b50505050565b60208152600082518060208401526110a0816040850160208701611051565b601f01601f19169190910160400192915050565b80356001600160a01b03811681146110cb57600080fd5b919050565b600080604083850312156110e357600080fd5b6110ec836110b4565b946020939093013593505050565b60008060006060848603121561110f57600080fd5b611118846110b4565b9250611126602085016110b4565b9150604084013590509250925092565b60006020828403121561114857600080fd5b611151826110b4565b9392505050565b60ff8116811461116757600080fd5b50565b600080600080600080600060e0888a03121561118557600080fd5b61118e886110b4565b965061119c602089016110b4565b9550604088013594506060880135935060808801356111ba81611158565b9699959850939692959460a0840135945060c09093013592915050565b600080604083850312156111ea57600080fd5b6111f3836110b4565b9150611201602084016110b4565b90509250929050565b6001600160a01b0392831681529116602082015260400190565b634e487b7160e01b600052604160045260246000fd5b60006020828403121561124c57600080fd5b815167ffffffffffffffff8082111561126457600080fd5b818401915084601f83011261127857600080fd5b81518181111561128a5761128a611224565b604051601f8201601f19908116603f011681019083821181831017156112b2576112b2611224565b816040528281528760208487010111156112cb57600080fd5b6112dc836020830160208801611051565b979650505050505050565b6000602082840312156112f957600080fd5b8151801515811461115157600080fd5b60006020828403121561131b57600080fd5b5051919050565b60006020828403121561133457600080fd5b81516111518161115856fe0000000000000000000000007109709ecfa91a80626ff3989d68f67f5b1dd12da26469706673582212200262b61949f149acfd473f04e6d1bbe5d6245f165c09b5a6afec03e17ad238d564736f6c634300080d0033",
    "linkReferences": {}
  },
  "methodIdentifiers": {
    "DOMAIN_SEPARATOR()": "3644e515",
    "allowance(address,address)": "dd62ed3e",
    "approve(address,uint256)": "095ea7b3",
    "balanceOf(address)": "70a08231",
    "burn(address,uint256)": "9dc29fac",
    "decimals()": "313ce567",
    "mint(address,uint256)": "40c10f19",
    "name()": "06fdde03",
    "nonces(address)": "7ecebe00",
    "permit(address,address,uint256,uint256,uint8,bytes32,bytes32)": "d505accf",
    "proxyContract()": "ed550443",
    "symbol()": "95d89b41",
    "totalSupply()": "18160ddd",
    "transfer(address,uint256)": "a9059cbb",
    "transferFrom(address,address,uint256)": "23b872dd"
  },
  "id": 96
}