{
  "abi": [
    {
      "inputs": [
        {
          "internalType": "address",
          "name": "_addr",
          "type": "address"
        },
        {
          "internalType": "uint256",
          "name": "_privateKey",
          "type": "uint256"
        },
        {
          "internalType": "address",
          "name": "_target",
          "type": "address"
        }
      ],
      "stateMutability": "nonpayable",
      "type": "constructor"
    },
    {
      "inputs": [],
      "name": "INITIAL_CONTROLLER",
      "outputs": [
        {
          "internalType": "address",
          "name": "",
          "type": "address"
        }
      ],
      "stateMutability": "nonpayable",
      "type": "function"
    },
    {
      "inputs": [],
      "name": "NAME",
      "outputs": [
        {
          "internalType": "string",
          "name": "",
          "type": "string"
        }
      ],
      "stateMutability": "nonpayable",
      "type": "function"
    },
    {
      "inputs": [],
      "name": "VAULT_REGISTRY",
      "outputs": [
        {
          "internalType": "address",
          "name": "",
          "type": "address"
        }
      ],
      "stateMutability": "nonpayable",
      "type": "function"
    },
    {
      "inputs": [],
      "name": "VERSION",
      "outputs": [
        {
          "internalType": "string",
          "name": "",
          "type": "string"
        }
      ],
      "stateMutability": "nonpayable",
      "type": "function"
    },
    {
      "inputs": [
        {
          "internalType": "address",
          "name": "arg0",
          "type": "address"
        },
        {
          "internalType": "uint256",
          "name": "arg1",
          "type": "uint256"
        }
      ],
      "name": "balanceOf",
      "outputs": [
        {
          "internalType": "uint256",
          "name": "",
          "type": "uint256"
        }
      ],
      "stateMutability": "nonpayable",
      "type": "function"
    },
    {
      "inputs": [
        {
          "internalType": "address[]",
          "name": "owners",
          "type": "address[]"
        },
        {
          "internalType": "uint256[]",
          "name": "ids",
          "type": "uint256[]"
        }
      ],
      "name": "balanceOfBatch",
      "outputs": [
        {
          "internalType": "uint256[]",
          "name": "",
          "type": "uint256[]"
        }
      ],
      "stateMutability": "nonpayable",
      "type": "function"
    },
    {
      "inputs": [
        {
          "internalType": "address",
          "name": "_from",
          "type": "address"
        },
        {
          "internalType": "uint256",
          "name": "_id",
          "type": "uint256"
        },
        {
          "internalType": "uint256",
          "name": "_amount",
          "type": "uint256"
        }
      ],
      "name": "burn",
      "outputs": [],
      "stateMutability": "nonpayable",
      "type": "function"
    },
    {
      "inputs": [],
      "name": "contractURI",
      "outputs": [
        {
          "internalType": "string",
          "name": "",
          "type": "string"
        }
      ],
      "stateMutability": "nonpayable",
      "type": "function"
    },
    {
      "inputs": [],
      "name": "controller",
      "outputs": [
        {
          "internalType": "address",
          "name": "",
          "type": "address"
        }
      ],
      "stateMutability": "nonpayable",
      "type": "function"
    },
    {
      "inputs": [
        {
          "internalType": "uint256",
          "name": "_id",
          "type": "uint256"
        },
        {
          "internalType": "string",
          "name": "_uri",
          "type": "string"
        }
      ],
      "name": "emitSetURI",
      "outputs": [],
      "stateMutability": "nonpayable",
      "type": "function"
    },
    {
      "inputs": [
        {
          "internalType": "address",
          "name": "arg0",
          "type": "address"
        },
        {
          "internalType": "address",
          "name": "arg1",
          "type": "address"
        },
        {
          "internalType": "uint256",
          "name": "arg2",
          "type": "uint256"
        }
      ],
      "name": "isApproved",
      "outputs": [
        {
          "internalType": "bool",
          "name": "",
          "type": "bool"
        }
      ],
      "stateMutability": "nonpayable",
      "type": "function"
    },
    {
      "inputs": [
        {
          "internalType": "address",
          "name": "arg0",
          "type": "address"
        },
        {
          "internalType": "address",
          "name": "arg1",
          "type": "address"
        }
      ],
      "name": "isApprovedForAll",
      "outputs": [
        {
          "internalType": "bool",
          "name": "",
          "type": "bool"
        }
      ],
      "stateMutability": "nonpayable",
      "type": "function"
    },
    {
      "inputs": [
        {
          "internalType": "uint256",
          "name": "arg0",
          "type": "uint256"
        }
      ],
      "name": "metadata",
      "outputs": [
        {
          "internalType": "address",
          "name": "",
          "type": "address"
        }
      ],
      "stateMutability": "nonpayable",
      "type": "function"
    },
    {
      "inputs": [
        {
          "internalType": "address",
          "name": "_to",
          "type": "address"
        },
        {
          "internalType": "uint256",
          "name": "_id",
          "type": "uint256"
        },
        {
          "internalType": "uint256",
          "name": "_amount",
          "type": "uint256"
        },
        {
          "internalType": "bytes",
          "name": "_data",
          "type": "bytes"
        }
      ],
      "name": "mint",
      "outputs": [],
      "stateMutability": "nonpayable",
      "type": "function"
    },
    {
      "inputs": [
        {
          "internalType": "address",
          "name": "arg0",
          "type": "address"
        }
      ],
      "name": "nonces",
      "outputs": [
        {
          "internalType": "uint256",
          "name": "",
          "type": "uint256"
        }
      ],
      "stateMutability": "nonpayable",
      "type": "function"
    },
    {
      "inputs": [
        {
          "internalType": "address",
          "name": "_owner",
          "type": "address"
        },
        {
          "internalType": "address",
          "name": "_operator",
          "type": "address"
        },
        {
          "internalType": "uint256",
          "name": "_id",
          "type": "uint256"
        },
        {
          "internalType": "bool",
          "name": "_approved",
          "type": "bool"
        },
        {
          "internalType": "uint256",
          "name": "_deadline",
          "type": "uint256"
        },
        {
          "internalType": "uint8",
          "name": "_v",
          "type": "uint8"
        },
        {
          "internalType": "bytes32",
          "name": "_r",
          "type": "bytes32"
        },
        {
          "internalType": "bytes32",
          "name": "_s",
          "type": "bytes32"
        }
      ],
      "name": "permit",
      "outputs": [],
      "stateMutability": "nonpayable",
      "type": "function"
    },
    {
      "inputs": [
        {
          "internalType": "address",
          "name": "_owner",
          "type": "address"
        },
        {
          "internalType": "address",
          "name": "_operator",
          "type": "address"
        },
        {
          "internalType": "bool",
          "name": "_approved",
          "type": "bool"
        },
        {
          "internalType": "uint256",
          "name": "_deadline",
          "type": "uint256"
        },
        {
          "internalType": "uint8",
          "name": "_v",
          "type": "uint8"
        },
        {
          "internalType": "bytes32",
          "name": "_r",
          "type": "bytes32"
        },
        {
          "internalType": "bytes32",
          "name": "_s",
          "type": "bytes32"
        }
      ],
      "name": "permitAll",
      "outputs": [],
      "stateMutability": "nonpayable",
      "type": "function"
    },
    {
      "inputs": [],
      "name": "proxyContract",
      "outputs": [
        {
          "internalType": "address",
          "name": "",
          "type": "address"
        }
      ],
      "stateMutability": "view",
      "type": "function"
    },
    {
      "inputs": [
        {
          "internalType": "uint256",
          "name": "_id",
          "type": "uint256"
        },
        {
          "internalType": "uint256",
          "name": "_salePrice",
          "type": "uint256"
        }
      ],
      "name": "royaltyInfo",
      "outputs": [
        {
          "internalType": "address",
          "name": "",
          "type": "address"
        },
        {
          "internalType": "uint256",
          "name": "",
          "type": "uint256"
        }
      ],
      "stateMutability": "nonpayable",
      "type": "function"
    },
    {
      "inputs": [
        {
          "internalType": "address",
          "name": "from",
          "type": "address"
        },
        {
          "internalType": "address",
          "name": "to",
          "type": "address"
        },
        {
          "internalType": "uint256[]",
          "name": "ids",
          "type": "uint256[]"
        },
        {
          "internalType": "uint256[]",
          "name": "amounts",
          "type": "uint256[]"
        },
        {
          "internalType": "bytes",
          "name": "data",
          "type": "bytes"
        }
      ],
      "name": "safeBatchTransferFrom",
      "outputs": [],
      "stateMutability": "nonpayable",
      "type": "function"
    },
    {
      "inputs": [
        {
          "internalType": "address",
          "name": "_from",
          "type": "address"
        },
        {
          "internalType": "address",
          "name": "_to",
          "type": "address"
        },
        {
          "internalType": "uint256",
          "name": "_id",
          "type": "uint256"
        },
        {
          "internalType": "uint256",
          "name": "_amount",
          "type": "uint256"
        },
        {
          "internalType": "bytes",
          "name": "_data",
          "type": "bytes"
        }
      ],
      "name": "safeTransferFrom",
      "outputs": [],
      "stateMutability": "nonpayable",
      "type": "function"
    },
    {
      "inputs": [
        {
          "internalType": "address",
          "name": "_operator",
          "type": "address"
        },
        {
          "internalType": "uint256",
          "name": "_id",
          "type": "uint256"
        },
        {
          "internalType": "bool",
          "name": "_approved",
          "type": "bool"
        }
      ],
      "name": "setApprovalFor",
      "outputs": [],
      "stateMutability": "nonpayable",
      "type": "function"
    },
    {
      "inputs": [
        {
          "internalType": "address",
          "name": "operator",
          "type": "address"
        },
        {
          "internalType": "bool",
          "name": "approved",
          "type": "bool"
        }
      ],
      "name": "setApprovalForAll",
      "outputs": [],
      "stateMutability": "nonpayable",
      "type": "function"
    },
    {
      "inputs": [
        {
          "internalType": "string",
          "name": "_uri",
          "type": "string"
        }
      ],
      "name": "setContractURI",
      "outputs": [],
      "stateMutability": "nonpayable",
      "type": "function"
    },
    {
      "inputs": [
        {
          "internalType": "address",
          "name": "_metadata",
          "type": "address"
        },
        {
          "internalType": "uint256",
          "name": "_id",
          "type": "uint256"
        }
      ],
      "name": "setMetadata",
      "outputs": [],
      "stateMutability": "nonpayable",
      "type": "function"
    },
    {
      "inputs": [
        {
          "internalType": "uint256",
          "name": "_id",
          "type": "uint256"
        },
        {
          "internalType": "address",
          "name": "_receiver",
          "type": "address"
        },
        {
          "internalType": "uint256",
          "name": "_percentage",
          "type": "uint256"
        }
      ],
      "name": "setRoyalties",
      "outputs": [],
      "stateMutability": "nonpayable",
      "type": "function"
    },
    {
      "inputs": [
        {
          "internalType": "bytes4",
          "name": "interfaceId",
          "type": "bytes4"
        }
      ],
      "name": "supportsInterface",
      "outputs": [
        {
          "internalType": "bool",
          "name": "",
          "type": "bool"
        }
      ],
      "stateMutability": "nonpayable",
      "type": "function"
    },
    {
      "inputs": [
        {
          "internalType": "uint256",
          "name": "arg0",
          "type": "uint256"
        }
      ],
      "name": "totalSupply",
      "outputs": [
        {
          "internalType": "uint256",
          "name": "",
          "type": "uint256"
        }
      ],
      "stateMutability": "nonpayable",
      "type": "function"
    },
    {
      "inputs": [
        {
          "internalType": "address",
          "name": "_newController",
          "type": "address"
        }
      ],
      "name": "transferController",
      "outputs": [],
      "stateMutability": "nonpayable",
      "type": "function"
    },
    {
      "inputs": [
        {
          "internalType": "uint256",
          "name": "_id",
          "type": "uint256"
        }
      ],
      "name": "uri",
      "outputs": [
        {
          "internalType": "string",
          "name": "",
          "type": "string"
        }
      ],
      "stateMutability": "nonpayable",
      "type": "function"
    }
  ],
  "bytecode": {
    "object": "0x60806040523480156200001157600080fd5b5060405162002db838038062002db8833981016040819052620000349162000114565b8115620000bd576040516001625e79b760e01b0319815260048101839052737109709ecfa91a80626ff3989d68f67f5b1dd12d9063ffa18649906024016020604051808303816000875af115801562000091573d6000803e3d6000fd5b505050506040513d601f19601f82011682018060405250810190620000b7919062000155565b620000bf565b825b600080546001600160a01b03199081166001600160a01b0393841617909155600193909355600280549093169116179055506200017a565b80516001600160a01b03811681146200010f57600080fd5b919050565b6000806000606084860312156200012a57600080fd5b6200013584620000f7565b9250602084015191506200014c60408501620000f7565b90509250925092565b6000602082840312156200016857600080fd5b6200017382620000f7565b9392505050565b612c2e806200018a6000396000f3fe608060405234801561001057600080fd5b50600436106101d95760003560e01c8063bd85b03911610104578063e8ea054b116100a2578063f5298aca11610071578063f5298aca14610414578063f72c868914610427578063f77c47911461043a578063ffa1ad741461044257600080fd5b8063e8ea054b146103ca578063e985e9c5146103dd578063ed550443146103f0578063f242432a1461040157600080fd5b8063e2c7f338116100de578063e2c7f33814610389578063e3684e391461039c578063e5af48d8146103af578063e8a3d485146103c257600080fd5b8063bd85b0391461035b578063cfa8fb421461036e578063de11ff791461038157600080fd5b80632eb2c2d61161017c5780637ecebe001161014b5780637ecebe001461031a578063938e3d7b1461032d578063a22cb46514610340578063a3f4df7e1461035357600080fd5b80632eb2c2d6146102c15780634e1273f4146102d45780635ae1bdc7146102f4578063731133e91461030757600080fd5b80630986c677116101b85780630986c677146102475780630e89341c1461025c5780632a55205a1461027c5780632ccd9ed4146102ae57600080fd5b8062fdd58e146101de57806301ffc9a71461020457806302ace7fe14610227575b600080fd5b6101f16101ec36600461211e565b61044a565b6040519081526020015b60405180910390f35b61021761021236600461214a565b610597565b60405190151581526020016101fb565b61022f6106e6565b6040516001600160a01b0390911681526020016101fb565b61025a610255366004612240565b610834565b005b61026f61026a366004612287565b61096d565b6040516101fb91906122fc565b61028f61028a36600461230f565b610a53565b604080516001600160a01b0390931683526020830191909152016101fb565b61025a6102bc366004612355565b610ba7565b61025a6102cf366004612460565b610d17565b6102e76102e236600461250e565b610e59565b6040516101fb9190612601565b61025a61030236600461211e565b610f45565b61025a610315366004612614565b610fee565b6101f1610328366004612677565b61112d565b61025a61033b366004612694565b61120c565b61025a61034e3660046126d1565b611342565b61026f6113ec565b6101f1610369366004612287565b6114dc565b61025a61037c36600461270a565b61157e565b61022f6116e5565b61025a610397366004612781565b6117a9565b61022f6103aa366004612287565b6118ed565b6102176103bd3660046127b9565b6119cb565b61026f611b23565b61025a6103d8366004612677565b611beb565b6102176103eb3660046127e9565b611c8d565b6002546001600160a01b031661022f565b61025a61040f366004612817565b611d71565b61025a610422366004612880565b611e19565b61025a6104353660046128b5565b611ec9565b61022f611f7a565b61026f61203e565b600080546040516308b6ac0f60e31b8152600080516020612bd9833981519152916345b5607891610489916001600160a01b03169081906004016128f7565b600060405180830381600087803b1580156104a357600080fd5b505af11580156104b7573d6000803e3d6000fd5b5050600254604051627eeac760e11b81526001600160a01b03878116600483015260248201879052909116925062fdd58e9150604401602060405180830381865afa15801561050a573d6000803e3d6000fd5b505050506040513d601f19601f8201168201806040525081019061052e9190612911565b9050600080516020612bd98339815191526001600160a01b03166390c5013b6040518163ffffffff1660e01b8152600401600060405180830381600087803b15801561057957600080fd5b505af115801561058d573d6000803e3d6000fd5b5050505092915050565b600080546040516308b6ac0f60e31b8152600080516020612bd9833981519152916345b56078916105d6916001600160a01b03169081906004016128f7565b600060405180830381600087803b1580156105f057600080fd5b505af1158015610604573d6000803e3d6000fd5b50506002546040516301ffc9a760e01b81526001600160e01b0319861660048201526001600160a01b0390911692506301ffc9a79150602401602060405180830381865afa15801561065a573d6000803e3d6000fd5b505050506040513d601f19601f8201168201806040525081019061067e919061292a565b9050600080516020612bd98339815191526001600160a01b03166390c5013b6040518163ffffffff1660e01b8152600401600060405180830381600087803b1580156106c957600080fd5b505af11580156106dd573d6000803e3d6000fd5b50505050919050565b600080546040516308b6ac0f60e31b8152600080516020612bd9833981519152916345b5607891610725916001600160a01b03169081906004016128f7565b600060405180830381600087803b15801561073f57600080fd5b505af1158015610753573d6000803e3d6000fd5b50505050600260009054906101000a90046001600160a01b03166001600160a01b03166302ace7fe6040518163ffffffff1660e01b8152600401602060405180830381865afa1580156107aa573d6000803e3d6000fd5b505050506040513d601f19601f820116820180604052508101906107ce9190612947565b9050600080516020612bd98339815191526001600160a01b03166390c5013b6040518163ffffffff1660e01b8152600401600060405180830381600087803b15801561081957600080fd5b505af115801561082d573d6000803e3d6000fd5b5050505090565b6000546040516308b6ac0f60e31b8152600080516020612bd9833981519152916345b5607891610872916001600160a01b03169081906004016128f7565b600060405180830381600087803b15801561088c57600080fd5b505af11580156108a0573d6000803e3d6000fd5b5050600254604051630986c67760e01b81526001600160a01b039091169250630986c67791506108d69085908590600401612964565b600060405180830381600087803b1580156108f057600080fd5b505af1158015610904573d6000803e3d6000fd5b50505050600080516020612bd98339815191526001600160a01b03166390c5013b6040518163ffffffff1660e01b8152600401600060405180830381600087803b15801561095157600080fd5b505af1158015610965573d6000803e3d6000fd5b505050505050565b6000546040516308b6ac0f60e31b8152606091600080516020612bd9833981519152916345b56078916109b0916001600160a01b039091169081906004016128f7565b600060405180830381600087803b1580156109ca57600080fd5b505af11580156109de573d6000803e3d6000fd5b50506002546040516303a24d0760e21b8152600481018690526001600160a01b039091169250630e89341c9150602401600060405180830381865afa158015610a2b573d6000803e3d6000fd5b505050506040513d6000823e601f3d908101601f1916820160405261067e919081019061297d565b600080546040516308b6ac0f60e31b81528291600080516020612bd9833981519152916345b5607891610a96916001600160a01b039091169081906004016128f7565b600060405180830381600087803b158015610ab057600080fd5b505af1158015610ac4573d6000803e3d6000fd5b505060025460405163152a902d60e11b815260048101889052602481018790526001600160a01b039091169250632a55205a91506044016040805180830381865afa158015610b17573d6000803e3d6000fd5b505050506040513d601f19601f82011682018060405250810190610b3b91906129f4565b91509150600080516020612bd98339815191526001600160a01b03166390c5013b6040518163ffffffff1660e01b8152600401600060405180830381600087803b158015610b8857600080fd5b505af1158015610b9c573d6000803e3d6000fd5b505050509250929050565b6000546040516308b6ac0f60e31b8152600080516020612bd9833981519152916345b5607891610be5916001600160a01b03169081906004016128f7565b600060405180830381600087803b158015610bff57600080fd5b505af1158015610c13573d6000803e3d6000fd5b5050600254604051630b3367b560e21b81526001600160a01b038c811660048301528b81166024830152604482018b905289151560648301526084820189905260ff881660a483015260c4820187905260e482018690529091169250632ccd9ed4915061010401600060405180830381600087803b158015610c9457600080fd5b505af1158015610ca8573d6000803e3d6000fd5b50505050600080516020612bd98339815191526001600160a01b03166390c5013b6040518163ffffffff1660e01b8152600401600060405180830381600087803b158015610cf557600080fd5b505af1158015610d09573d6000803e3d6000fd5b505050505050505050505050565b6000546040516308b6ac0f60e31b8152600080516020612bd9833981519152916345b5607891610d55916001600160a01b03169081906004016128f7565b600060405180830381600087803b158015610d6f57600080fd5b505af1158015610d83573d6000803e3d6000fd5b5050600254604051631759616b60e11b81526001600160a01b039091169250632eb2c2d69150610dbf9088908890889088908890600401612a22565b600060405180830381600087803b158015610dd957600080fd5b505af1158015610ded573d6000803e3d6000fd5b50505050600080516020612bd98339815191526001600160a01b03166390c5013b6040518163ffffffff1660e01b8152600401600060405180830381600087803b158015610e3a57600080fd5b505af1158015610e4e573d6000803e3d6000fd5b505050505050505050565b6000546040516308b6ac0f60e31b8152606091600080516020612bd9833981519152916345b5607891610e9c916001600160a01b039091169081906004016128f7565b600060405180830381600087803b158015610eb657600080fd5b505af1158015610eca573d6000803e3d6000fd5b50506002546040516313849cfd60e21b81526001600160a01b039091169250634e1273f49150610f009086908690600401612a80565b600060405180830381865afa158015610f1d573d6000803e3d6000fd5b505050506040513d6000823e601f3d908101601f1916820160405261052e9190810190612ae0565b6000546040516308b6ac0f60e31b8152600080516020612bd9833981519152916345b5607891610f83916001600160a01b03169081906004016128f7565b600060405180830381600087803b158015610f9d57600080fd5b505af1158015610fb1573d6000803e3d6000fd5b5050600254604051635ae1bdc760e01b81526001600160a01b038681166004830152602482018690529091169250635ae1bdc791506044016108d6565b6000546040516308b6ac0f60e31b8152600080516020612bd9833981519152916345b560789161102c916001600160a01b03169081906004016128f7565b600060405180830381600087803b15801561104657600080fd5b505af115801561105a573d6000803e3d6000fd5b505060025460405163731133e960e01b81526001600160a01b03909116925063731133e99150611094908790879087908790600401612b71565b600060405180830381600087803b1580156110ae57600080fd5b505af11580156110c2573d6000803e3d6000fd5b50505050600080516020612bd98339815191526001600160a01b03166390c5013b6040518163ffffffff1660e01b8152600401600060405180830381600087803b15801561110f57600080fd5b505af1158015611123573d6000803e3d6000fd5b5050505050505050565b600080546040516308b6ac0f60e31b8152600080516020612bd9833981519152916345b560789161116c916001600160a01b03169081906004016128f7565b600060405180830381600087803b15801561118657600080fd5b505af115801561119a573d6000803e3d6000fd5b5050600254604051623f675f60e91b81526001600160a01b0386811660048301529091169250637ecebe0091506024015b602060405180830381865afa1580156111e8573d6000803e3d6000fd5b505050506040513d601f19601f8201168201806040525081019061067e9190612911565b6000546040516308b6ac0f60e31b8152600080516020612bd9833981519152916345b560789161124a916001600160a01b03169081906004016128f7565b600060405180830381600087803b15801561126457600080fd5b505af1158015611278573d6000803e3d6000fd5b505060025460405163938e3d7b60e01b81526001600160a01b03909116925063938e3d7b91506112ac9084906004016122fc565b600060405180830381600087803b1580156112c657600080fd5b505af11580156112da573d6000803e3d6000fd5b50505050600080516020612bd98339815191526001600160a01b03166390c5013b6040518163ffffffff1660e01b8152600401600060405180830381600087803b15801561132757600080fd5b505af115801561133b573d6000803e3d6000fd5b5050505050565b6000546040516308b6ac0f60e31b8152600080516020612bd9833981519152916345b5607891611380916001600160a01b03169081906004016128f7565b600060405180830381600087803b15801561139a57600080fd5b505af11580156113ae573d6000803e3d6000fd5b505060025460405163a22cb46560e01b81526001600160a01b0386811660048301528515156024830152909116925063a22cb46591506044016108d6565b6000546040516308b6ac0f60e31b8152606091600080516020612bd9833981519152916345b560789161142f916001600160a01b039091169081906004016128f7565b600060405180830381600087803b15801561144957600080fd5b505af115801561145d573d6000803e3d6000fd5b50505050600260009054906101000a90046001600160a01b03166001600160a01b031663a3f4df7e6040518163ffffffff1660e01b8152600401600060405180830381865afa1580156114b4573d6000803e3d6000fd5b505050506040513d6000823e601f3d908101601f191682016040526107ce919081019061297d565b600080546040516308b6ac0f60e31b8152600080516020612bd9833981519152916345b560789161151b916001600160a01b03169081906004016128f7565b600060405180830381600087803b15801561153557600080fd5b505af1158015611549573d6000803e3d6000fd5b505060025460405163bd85b03960e01b8152600481018690526001600160a01b03909116925063bd85b03991506024016111cb565b6000546040516308b6ac0f60e31b8152600080516020612bd9833981519152916345b56078916115bc916001600160a01b03169081906004016128f7565b600060405180830381600087803b1580156115d657600080fd5b505af11580156115ea573d6000803e3d6000fd5b50506002546040516367d47da160e11b81526001600160a01b038b811660048301528a8116602483015289151560448301526064820189905260ff8816608483015260a4820187905260c48201869052909116925063cfa8fb42915060e401600060405180830381600087803b15801561166357600080fd5b505af1158015611677573d6000803e3d6000fd5b50505050600080516020612bd98339815191526001600160a01b03166390c5013b6040518163ffffffff1660e01b8152600401600060405180830381600087803b1580156116c457600080fd5b505af11580156116d8573d6000803e3d6000fd5b5050505050505050505050565b600080546040516308b6ac0f60e31b8152600080516020612bd9833981519152916345b5607891611724916001600160a01b03169081906004016128f7565b600060405180830381600087803b15801561173e57600080fd5b505af1158015611752573d6000803e3d6000fd5b50505050600260009054906101000a90046001600160a01b03166001600160a01b031663de11ff796040518163ffffffff1660e01b8152600401602060405180830381865afa1580156107aa573d6000803e3d6000fd5b6000546040516308b6ac0f60e31b8152600080516020612bd9833981519152916345b56078916117e7916001600160a01b03169081906004016128f7565b600060405180830381600087803b15801561180157600080fd5b505af1158015611815573d6000803e3d6000fd5b5050600254604051631c58fe6760e31b8152600481018790526001600160a01b03868116602483015260448201869052909116925063e2c7f33891506064015b600060405180830381600087803b15801561186f57600080fd5b505af1158015611883573d6000803e3d6000fd5b50505050600080516020612bd98339815191526001600160a01b03166390c5013b6040518163ffffffff1660e01b8152600401600060405180830381600087803b1580156118d057600080fd5b505af11580156118e4573d6000803e3d6000fd5b50505050505050565b600080546040516308b6ac0f60e31b8152600080516020612bd9833981519152916345b560789161192c916001600160a01b03169081906004016128f7565b600060405180830381600087803b15801561194657600080fd5b505af115801561195a573d6000803e3d6000fd5b505060025460405163e3684e3960e01b8152600481018690526001600160a01b03909116925063e3684e399150602401602060405180830381865afa1580156119a7573d6000803e3d6000fd5b505050506040513d601f19601f8201168201806040525081019061067e9190612947565b600080546040516308b6ac0f60e31b8152600080516020612bd9833981519152916345b5607891611a0a916001600160a01b03169081906004016128f7565b600060405180830381600087803b158015611a2457600080fd5b505af1158015611a38573d6000803e3d6000fd5b5050600254604051631cb5e91b60e31b81526001600160a01b038881166004830152878116602483015260448201879052909116925063e5af48d89150606401602060405180830381865afa158015611a95573d6000803e3d6000fd5b505050506040513d601f19601f82011682018060405250810190611ab9919061292a565b9050600080516020612bd98339815191526001600160a01b03166390c5013b6040518163ffffffff1660e01b8152600401600060405180830381600087803b158015611b0457600080fd5b505af1158015611b18573d6000803e3d6000fd5b505050509392505050565b6000546040516308b6ac0f60e31b8152606091600080516020612bd9833981519152916345b5607891611b66916001600160a01b039091169081906004016128f7565b600060405180830381600087803b158015611b8057600080fd5b505af1158015611b94573d6000803e3d6000fd5b50505050600260009054906101000a90046001600160a01b03166001600160a01b031663e8a3d4856040518163ffffffff1660e01b8152600401600060405180830381865afa1580156114b4573d6000803e3d6000fd5b6000546040516308b6ac0f60e31b8152600080516020612bd9833981519152916345b5607891611c29916001600160a01b03169081906004016128f7565b600060405180830381600087803b158015611c4357600080fd5b505af1158015611c57573d6000803e3d6000fd5b505060025460405163e8ea054b60e01b81526001600160a01b038581166004830152909116925063e8ea054b91506024016112ac565b600080546040516308b6ac0f60e31b8152600080516020612bd9833981519152916345b5607891611ccc916001600160a01b03169081906004016128f7565b600060405180830381600087803b158015611ce657600080fd5b505af1158015611cfa573d6000803e3d6000fd5b505060025460405163e985e9c560e01b81526001600160a01b03909116925063e985e9c59150611d3090869086906004016128f7565b602060405180830381865afa158015611d4d573d6000803e3d6000fd5b505050506040513d601f19601f8201168201806040525081019061052e919061292a565b6000546040516308b6ac0f60e31b8152600080516020612bd9833981519152916345b5607891611daf916001600160a01b03169081906004016128f7565b600060405180830381600087803b158015611dc957600080fd5b505af1158015611ddd573d6000803e3d6000fd5b5050600254604051637921219560e11b81526001600160a01b03909116925063f242432a9150610dbf9088908890889088908890600401612b9e565b6000546040516308b6ac0f60e31b8152600080516020612bd9833981519152916345b5607891611e57916001600160a01b03169081906004016128f7565b600060405180830381600087803b158015611e7157600080fd5b505af1158015611e85573d6000803e3d6000fd5b5050600254604051637a94c56560e11b81526001600160a01b0387811660048301526024820187905260448201869052909116925063f5298aca9150606401611855565b6000546040516308b6ac0f60e31b8152600080516020612bd9833981519152916345b5607891611f07916001600160a01b03169081906004016128f7565b600060405180830381600087803b158015611f2157600080fd5b505af1158015611f35573d6000803e3d6000fd5b505060025460405163f72c868960e01b81526001600160a01b038781166004830152602482018790528515156044830152909116925063f72c86899150606401611855565b600080546040516308b6ac0f60e31b8152600080516020612bd9833981519152916345b5607891611fb9916001600160a01b03169081906004016128f7565b600060405180830381600087803b158015611fd357600080fd5b505af1158015611fe7573d6000803e3d6000fd5b50505050600260009054906101000a90046001600160a01b03166001600160a01b031663f77c47916040518163ffffffff1660e01b8152600401602060405180830381865afa1580156107aa573d6000803e3d6000fd5b6000546040516308b6ac0f60e31b8152606091600080516020612bd9833981519152916345b5607891612081916001600160a01b039091169081906004016128f7565b600060405180830381600087803b15801561209b57600080fd5b505af11580156120af573d6000803e3d6000fd5b50505050600260009054906101000a90046001600160a01b03166001600160a01b031663ffa1ad746040518163ffffffff1660e01b8152600401600060405180830381865afa1580156114b4573d6000803e3d6000fd5b6001600160a01b038116811461211b57600080fd5b50565b6000806040838503121561213157600080fd5b823561213c81612106565b946020939093013593505050565b60006020828403121561215c57600080fd5b81356001600160e01b03198116811461217457600080fd5b9392505050565b634e487b7160e01b600052604160045260246000fd5b604051601f8201601f1916810167ffffffffffffffff811182821017156121ba576121ba61217b565b604052919050565b600067ffffffffffffffff8211156121dc576121dc61217b565b50601f01601f191660200190565b600082601f8301126121fb57600080fd5b813561220e612209826121c2565b612191565b81815284602083860101111561222357600080fd5b816020850160208301376000918101602001919091529392505050565b6000806040838503121561225357600080fd5b82359150602083013567ffffffffffffffff81111561227157600080fd5b61227d858286016121ea565b9150509250929050565b60006020828403121561229957600080fd5b5035919050565b60005b838110156122bb5781810151838201526020016122a3565b838111156122ca576000848401525b50505050565b600081518084526122e88160208601602086016122a0565b601f01601f19169290920160200192915050565b60208152600061217460208301846122d0565b6000806040838503121561232257600080fd5b50508035926020909101359150565b801515811461211b57600080fd5b803560ff8116811461235057600080fd5b919050565b600080600080600080600080610100898b03121561237257600080fd5b883561237d81612106565b9750602089013561238d81612106565b96506040890135955060608901356123a481612331565b9450608089013593506123b960a08a0161233f565b925060c0890135915060e089013590509295985092959890939650565b600067ffffffffffffffff8211156123f0576123f061217b565b5060051b60200190565b600082601f83011261240b57600080fd5b8135602061241b612209836123d6565b82815260059290921b8401810191818101908684111561243a57600080fd5b8286015b84811015612455578035835291830191830161243e565b509695505050505050565b600080600080600060a0868803121561247857600080fd5b853561248381612106565b9450602086013561249381612106565b9350604086013567ffffffffffffffff808211156124b057600080fd5b6124bc89838a016123fa565b945060608801359150808211156124d257600080fd5b6124de89838a016123fa565b935060808801359150808211156124f457600080fd5b50612501888289016121ea565b9150509295509295909350565b6000806040838503121561252157600080fd5b823567ffffffffffffffff8082111561253957600080fd5b818501915085601f83011261254d57600080fd5b8135602061255d612209836123d6565b82815260059290921b8401810191818101908984111561257c57600080fd5b948201945b838610156125a357853561259481612106565b82529482019490820190612581565b965050860135925050808211156125b957600080fd5b5061227d858286016123fa565b600081518084526020808501945080840160005b838110156125f6578151875295820195908201906001016125da565b509495945050505050565b60208152600061217460208301846125c6565b6000806000806080858703121561262a57600080fd5b843561263581612106565b93506020850135925060408501359150606085013567ffffffffffffffff81111561265f57600080fd5b61266b878288016121ea565b91505092959194509250565b60006020828403121561268957600080fd5b813561217481612106565b6000602082840312156126a657600080fd5b813567ffffffffffffffff8111156126bd57600080fd5b6126c9848285016121ea565b949350505050565b600080604083850312156126e457600080fd5b82356126ef81612106565b915060208301356126ff81612331565b809150509250929050565b600080600080600080600060e0888a03121561272557600080fd5b873561273081612106565b9650602088013561274081612106565b9550604088013561275081612331565b9450606088013593506127656080890161233f565b925060a0880135915060c0880135905092959891949750929550565b60008060006060848603121561279657600080fd5b8335925060208401356127a881612106565b929592945050506040919091013590565b6000806000606084860312156127ce57600080fd5b83356127d981612106565b925060208401356127a881612106565b600080604083850312156127fc57600080fd5b823561280781612106565b915060208301356126ff81612106565b600080600080600060a0868803121561282f57600080fd5b853561283a81612106565b9450602086013561284a81612106565b93506040860135925060608601359150608086013567ffffffffffffffff81111561287457600080fd5b612501888289016121ea565b60008060006060848603121561289557600080fd5b83356128a081612106565b95602085013595506040909401359392505050565b6000806000606084860312156128ca57600080fd5b83356128d581612106565b92506020840135915060408401356128ec81612331565b809150509250925092565b6001600160a01b0392831681529116602082015260400190565b60006020828403121561292357600080fd5b5051919050565b60006020828403121561293c57600080fd5b815161217481612331565b60006020828403121561295957600080fd5b815161217481612106565b8281526040602082015260006126c960408301846122d0565b60006020828403121561298f57600080fd5b815167ffffffffffffffff8111156129a657600080fd5b8201601f810184136129b757600080fd5b80516129c5612209826121c2565b8181528560208385010111156129da57600080fd5b6129eb8260208301602086016122a0565b95945050505050565b60008060408385031215612a0757600080fd5b8251612a1281612106565b6020939093015192949293505050565b6001600160a01b0386811682528516602082015260a060408201819052600090612a4e908301866125c6565b8281036060840152612a6081866125c6565b90508281036080840152612a7481856122d0565b98975050505050505050565b604080825283519082018190526000906020906060840190828701845b82811015612ac25781516001600160a01b031684529284019290840190600101612a9d565b50505083810382850152612ad681866125c6565b9695505050505050565b60006020808385031215612af357600080fd5b825167ffffffffffffffff811115612b0a57600080fd5b8301601f81018513612b1b57600080fd5b8051612b29612209826123d6565b81815260059190911b82018301908381019087831115612b4857600080fd5b928401925b82841015612b6657835182529284019290840190612b4d565b979650505050505050565b60018060a01b0385168152836020820152826040820152608060608201526000612ad660808301846122d0565b6001600160a01b03868116825285166020820152604081018490526060810183905260a060808201819052600090612b66908301846122d056fe0000000000000000000000007109709ecfa91a80626ff3989d68f67f5b1dd12da2646970667358221220db307500efc9a42b0f9e7613a63a11d30089c283e68e071a2d0b1cd7838934db64736f6c634300080d0033",
    "linkReferences": {}
  },
  "methodIdentifiers": {
    "INITIAL_CONTROLLER()": "de11ff79",
    "NAME()": "a3f4df7e",
    "VAULT_REGISTRY()": "02ace7fe",
    "VERSION()": "ffa1ad74",
    "balanceOf(address,uint256)": "00fdd58e",
    "balanceOfBatch(address[],uint256[])": "4e1273f4",
    "burn(address,uint256,uint256)": "f5298aca",
    "contractURI()": "e8a3d485",
    "controller()": "f77c4791",
    "emitSetURI(uint256,string)": "0986c677",
    "isApproved(address,address,uint256)": "e5af48d8",
    "isApprovedForAll(address,address)": "e985e9c5",
    "metadata(uint256)": "e3684e39",
    "mint(address,uint256,uint256,bytes)": "731133e9",
    "nonces(address)": "7ecebe00",
    "permit(address,address,uint256,bool,uint256,uint8,bytes32,bytes32)": "2ccd9ed4",
    "permitAll(address,address,bool,uint256,uint8,bytes32,bytes32)": "cfa8fb42",
    "proxyContract()": "ed550443",
    "royaltyInfo(uint256,uint256)": "2a55205a",
    "safeBatchTransferFrom(address,address,uint256[],uint256[],bytes)": "2eb2c2d6",
    "safeTransferFrom(address,address,uint256,uint256,bytes)": "f242432a",
    "setApprovalFor(address,uint256,bool)": "f72c8689",
    "setApprovalForAll(address,bool)": "a22cb465",
    "setContractURI(string)": "938e3d7b",
    "setMetadata(address,uint256)": "5ae1bdc7",
    "setRoyalties(uint256,address,uint256)": "e2c7f338",
    "supportsInterface(bytes4)": "01ffc9a7",
    "totalSupply(uint256)": "bd85b039",
    "transferController(address)": "e8ea054b",
    "uri(uint256)": "0e89341c"
  },
  "id": 73
}