{
  "abi": [
    {
      "inputs": [
        {
          "internalType": "address",
          "name": "_buyout",
          "type": "address"
        },
        {
          "internalType": "address",
          "name": "_registry",
          "type": "address"
        },
        {
          "internalType": "address",
          "name": "_supply",
          "type": "address"
        }
      ],
      "stateMutability": "nonpayable",
      "type": "constructor"
    },
    {
      "inputs": [
        {
          "internalType": "enum State",
          "name": "_required",
          "type": "uint8"
        },
        {
          "internalType": "enum State",
          "name": "_current",
          "type": "uint8"
        }
      ],
      "name": "InvalidState",
      "type": "error"
    },
    {
      "inputs": [],
      "name": "NewFractionsAlreadyMinted",
      "type": "error"
    },
    {
      "inputs": [
        {
          "internalType": "address",
          "name": "_newVault",
          "type": "address"
        }
      ],
      "name": "NewVaultAlreadyDeployed",
      "type": "error"
    },
    {
      "inputs": [],
      "name": "NoContributionToWithdraw",
      "type": "error"
    },
    {
      "inputs": [],
      "name": "NoVaultToMigrateTo",
      "type": "error"
    },
    {
      "inputs": [],
      "name": "NotProposalBuyout",
      "type": "error"
    },
    {
      "inputs": [],
      "name": "NotProposed",
      "type": "error"
    },
    {
      "inputs": [
        {
          "internalType": "address",
          "name": "_vault",
          "type": "address"
        }
      ],
      "name": "NotVault",
      "type": "error"
    },
    {
      "inputs": [],
      "name": "ProposalOver",
      "type": "error"
    },
    {
      "inputs": [],
      "name": "UnsuccessfulMigration",
      "type": "error"
    },
    {
      "anonymous": false,
      "inputs": [
        {
          "indexed": true,
          "internalType": "address",
          "name": "_oldVault",
          "type": "address"
        },
        {
          "indexed": true,
          "internalType": "address",
          "name": "_newVault",
          "type": "address"
        },
        {
          "indexed": false,
          "internalType": "uint256",
          "name": "_proposalId",
          "type": "uint256"
        },
        {
          "indexed": false,
          "internalType": "uint256",
          "name": "_amount",
          "type": "uint256"
        }
      ],
      "name": "FractionsMigrated",
      "type": "event"
    },
    {
      "anonymous": false,
      "inputs": [
        {
          "indexed": true,
          "internalType": "address",
          "name": "_oldVault",
          "type": "address"
        },
        {
          "indexed": true,
          "internalType": "address",
          "name": "_newVault",
          "type": "address"
        },
        {
          "indexed": false,
          "internalType": "uint256",
          "name": "_proposalId",
          "type": "uint256"
        },
        {
          "indexed": false,
          "internalType": "address[]",
          "name": "_modules",
          "type": "address[]"
        },
        {
          "indexed": false,
          "internalType": "address[]",
          "name": "_plugins",
          "type": "address[]"
        },
        {
          "indexed": false,
          "internalType": "bytes4[]",
          "name": "_selectors",
          "type": "bytes4[]"
        }
      ],
      "name": "VaultMigrated",
      "type": "event"
    },
    {
      "inputs": [],
      "name": "PROPOSAL_PERIOD",
      "outputs": [
        {
          "internalType": "uint256",
          "name": "",
          "type": "uint256"
        }
      ],
      "stateMutability": "view",
      "type": "function"
    },
    {
      "inputs": [
        {
          "internalType": "address",
          "name": "_vault",
          "type": "address"
        },
        {
          "internalType": "uint256",
          "name": "_proposalId",
          "type": "uint256"
        },
        {
          "internalType": "address",
          "name": "_token",
          "type": "address"
        },
        {
          "internalType": "uint256[]",
          "name": "_ids",
          "type": "uint256[]"
        },
        {
          "internalType": "uint256[]",
          "name": "_amounts",
          "type": "uint256[]"
        },
        {
          "internalType": "bytes32[]",
          "name": "_erc1155BatchTransferProof",
          "type": "bytes32[]"
        }
      ],
      "name": "batchMigrateVaultERC1155",
      "outputs": [],
      "stateMutability": "nonpayable",
      "type": "function"
    },
    {
      "inputs": [],
      "name": "buyout",
      "outputs": [
        {
          "internalType": "address payable",
          "name": "",
          "type": "address"
        }
      ],
      "stateMutability": "view",
      "type": "function"
    },
    {
      "inputs": [
        {
          "internalType": "address",
          "name": "_vault",
          "type": "address"
        },
        {
          "internalType": "uint256",
          "name": "_proposalId",
          "type": "uint256"
        }
      ],
      "name": "commit",
      "outputs": [
        {
          "internalType": "bool",
          "name": "started",
          "type": "bool"
        }
      ],
      "stateMutability": "nonpayable",
      "type": "function"
    },
    {
      "inputs": [
        {
          "internalType": "address[]",
          "name": "_modules",
          "type": "address[]"
        }
      ],
      "name": "generateMerkleTree",
      "outputs": [
        {
          "internalType": "bytes32[]",
          "name": "hashes",
          "type": "bytes32[]"
        }
      ],
      "stateMutability": "view",
      "type": "function"
    },
    {
      "inputs": [],
      "name": "getLeafNodes",
      "outputs": [
        {
          "internalType": "bytes32[]",
          "name": "nodes",
          "type": "bytes32[]"
        }
      ],
      "stateMutability": "view",
      "type": "function"
    },
    {
      "inputs": [],
      "name": "getPermissions",
      "outputs": [
        {
          "components": [
            {
              "internalType": "address",
              "name": "module",
              "type": "address"
            },
            {
              "internalType": "address",
              "name": "target",
              "type": "address"
            },
            {
              "internalType": "bytes4",
              "name": "selector",
              "type": "bytes4"
            }
          ],
          "internalType": "struct Permission[]",
          "name": "permissions",
          "type": "tuple[]"
        }
      ],
      "stateMutability": "view",
      "type": "function"
    },
    {
      "inputs": [
        {
          "internalType": "bytes32[]",
          "name": "_data",
          "type": "bytes32[]"
        },
        {
          "internalType": "uint256",
          "name": "_node",
          "type": "uint256"
        }
      ],
      "name": "getProof",
      "outputs": [
        {
          "internalType": "bytes32[]",
          "name": "",
          "type": "bytes32[]"
        }
      ],
      "stateMutability": "pure",
      "type": "function"
    },
    {
      "inputs": [
        {
          "internalType": "bytes32[]",
          "name": "_data",
          "type": "bytes32[]"
        }
      ],
      "name": "getRoot",
      "outputs": [
        {
          "internalType": "bytes32",
          "name": "",
          "type": "bytes32"
        }
      ],
      "stateMutability": "pure",
      "type": "function"
    },
    {
      "inputs": [
        {
          "internalType": "bytes32",
          "name": "_left",
          "type": "bytes32"
        },
        {
          "internalType": "bytes32",
          "name": "_right",
          "type": "bytes32"
        }
      ],
      "name": "hashLeafPairs",
      "outputs": [
        {
          "internalType": "bytes32",
          "name": "data",
          "type": "bytes32"
        }
      ],
      "stateMutability": "pure",
      "type": "function"
    },
    {
      "inputs": [
        {
          "internalType": "address",
          "name": "_vault",
          "type": "address"
        },
        {
          "internalType": "uint256",
          "name": "_proposalId",
          "type": "uint256"
        },
        {
          "internalType": "uint256",
          "name": "_amount",
          "type": "uint256"
        }
      ],
      "name": "join",
      "outputs": [],
      "stateMutability": "payable",
      "type": "function"
    },
    {
      "inputs": [
        {
          "internalType": "address",
          "name": "_vault",
          "type": "address"
        },
        {
          "internalType": "uint256",
          "name": "_proposalId",
          "type": "uint256"
        }
      ],
      "name": "leave",
      "outputs": [],
      "stateMutability": "nonpayable",
      "type": "function"
    },
    {
      "inputs": [
        {
          "internalType": "uint256",
          "name": "x",
          "type": "uint256"
        }
      ],
      "name": "log2ceil_naive",
      "outputs": [
        {
          "internalType": "uint256",
          "name": "ceil",
          "type": "uint256"
        }
      ],
      "stateMutability": "pure",
      "type": "function"
    },
    {
      "inputs": [
        {
          "internalType": "address",
          "name": "_vault",
          "type": "address"
        },
        {
          "internalType": "uint256",
          "name": "_proposalId",
          "type": "uint256"
        }
      ],
      "name": "migrateFractions",
      "outputs": [],
      "stateMutability": "nonpayable",
      "type": "function"
    },
    {
      "inputs": [
        {
          "internalType": "address",
          "name": "_vault",
          "type": "address"
        },
        {
          "internalType": "uint256",
          "name": "_proposalId",
          "type": "uint256"
        },
        {
          "internalType": "address",
          "name": "_token",
          "type": "address"
        },
        {
          "internalType": "uint256",
          "name": "_id",
          "type": "uint256"
        },
        {
          "internalType": "uint256",
          "name": "_amount",
          "type": "uint256"
        },
        {
          "internalType": "bytes32[]",
          "name": "_erc1155TransferProof",
          "type": "bytes32[]"
        }
      ],
      "name": "migrateVaultERC1155",
      "outputs": [],
      "stateMutability": "nonpayable",
      "type": "function"
    },
    {
      "inputs": [
        {
          "internalType": "address",
          "name": "_vault",
          "type": "address"
        },
        {
          "internalType": "uint256",
          "name": "_proposalId",
          "type": "uint256"
        },
        {
          "internalType": "address",
          "name": "_token",
          "type": "address"
        },
        {
          "internalType": "uint256",
          "name": "_amount",
          "type": "uint256"
        },
        {
          "internalType": "bytes32[]",
          "name": "_erc20TransferProof",
          "type": "bytes32[]"
        }
      ],
      "name": "migrateVaultERC20",
      "outputs": [],
      "stateMutability": "nonpayable",
      "type": "function"
    },
    {
      "inputs": [
        {
          "internalType": "address",
          "name": "_vault",
          "type": "address"
        },
        {
          "internalType": "uint256",
          "name": "_proposalId",
          "type": "uint256"
        },
        {
          "internalType": "address",
          "name": "_token",
          "type": "address"
        },
        {
          "internalType": "uint256",
          "name": "_tokenId",
          "type": "uint256"
        },
        {
          "internalType": "bytes32[]",
          "name": "_erc721TransferProof",
          "type": "bytes32[]"
        }
      ],
      "name": "migrateVaultERC721",
      "outputs": [],
      "stateMutability": "nonpayable",
      "type": "function"
    },
    {
      "inputs": [
        {
          "internalType": "address",
          "name": "",
          "type": "address"
        },
        {
          "internalType": "uint256",
          "name": "",
          "type": "uint256"
        }
      ],
      "name": "migrationInfo",
      "outputs": [
        {
          "internalType": "uint256",
          "name": "startTime",
          "type": "uint256"
        },
        {
          "internalType": "uint256",
          "name": "targetPrice",
          "type": "uint256"
        },
        {
          "internalType": "uint256",
          "name": "totalEth",
          "type": "uint256"
        },
        {
          "internalType": "uint256",
          "name": "totalFractions",
          "type": "uint256"
        },
        {
          "internalType": "address",
          "name": "newVault",
          "type": "address"
        },
        {
          "internalType": "bool",
          "name": "isCommited",
          "type": "bool"
        },
        {
          "internalType": "uint256",
          "name": "oldFractionSupply",
          "type": "uint256"
        },
        {
          "internalType": "uint256",
          "name": "newFractionSupply",
          "type": "uint256"
        },
        {
          "internalType": "bool",
          "name": "fractionsMigrated",
          "type": "bool"
        }
      ],
      "stateMutability": "view",
      "type": "function"
    },
    {
      "inputs": [
        {
          "internalType": "bytes[]",
          "name": "_data",
          "type": "bytes[]"
        }
      ],
      "name": "multicall",
      "outputs": [
        {
          "internalType": "bytes[]",
          "name": "results",
          "type": "bytes[]"
        }
      ],
      "stateMutability": "nonpayable",
      "type": "function"
    },
    {
      "inputs": [],
      "name": "nextId",
      "outputs": [
        {
          "internalType": "uint256",
          "name": "",
          "type": "uint256"
        }
      ],
      "stateMutability": "view",
      "type": "function"
    },
    {
      "inputs": [
        {
          "internalType": "address",
          "name": "",
          "type": "address"
        },
        {
          "internalType": "address",
          "name": "",
          "type": "address"
        },
        {
          "internalType": "uint256[]",
          "name": "",
          "type": "uint256[]"
        },
        {
          "internalType": "uint256[]",
          "name": "",
          "type": "uint256[]"
        },
        {
          "internalType": "bytes",
          "name": "",
          "type": "bytes"
        }
      ],
      "name": "onERC1155BatchReceived",
      "outputs": [
        {
          "internalType": "bytes4",
          "name": "",
          "type": "bytes4"
        }
      ],
      "stateMutability": "nonpayable",
      "type": "function"
    },
    {
      "inputs": [
        {
          "internalType": "address",
          "name": "",
          "type": "address"
        },
        {
          "internalType": "address",
          "name": "",
          "type": "address"
        },
        {
          "internalType": "uint256",
          "name": "",
          "type": "uint256"
        },
        {
          "internalType": "uint256",
          "name": "",
          "type": "uint256"
        },
        {
          "internalType": "bytes",
          "name": "",
          "type": "bytes"
        }
      ],
      "name": "onERC1155Received",
      "outputs": [
        {
          "internalType": "bytes4",
          "name": "",
          "type": "bytes4"
        }
      ],
      "stateMutability": "nonpayable",
      "type": "function"
    },
    {
      "inputs": [
        {
          "internalType": "address",
          "name": "",
          "type": "address"
        },
        {
          "internalType": "address",
          "name": "",
          "type": "address"
        },
        {
          "internalType": "uint256",
          "name": "",
          "type": "uint256"
        },
        {
          "internalType": "bytes",
          "name": "",
          "type": "bytes"
        }
      ],
      "name": "onERC721Received",
      "outputs": [
        {
          "internalType": "bytes4",
          "name": "",
          "type": "bytes4"
        }
      ],
      "stateMutability": "nonpayable",
      "type": "function"
    },
    {
      "inputs": [
        {
          "internalType": "address",
          "name": "_vault",
          "type": "address"
        },
        {
          "internalType": "address[]",
          "name": "_modules",
          "type": "address[]"
        },
        {
          "internalType": "address[]",
          "name": "_plugins",
          "type": "address[]"
        },
        {
          "internalType": "bytes4[]",
          "name": "_selectors",
          "type": "bytes4[]"
        },
        {
          "internalType": "uint256",
          "name": "_newFractionSupply",
          "type": "uint256"
        },
        {
          "internalType": "uint256",
          "name": "_targetPrice",
          "type": "uint256"
        }
      ],
      "name": "propose",
      "outputs": [],
      "stateMutability": "nonpayable",
      "type": "function"
    },
    {
      "inputs": [],
      "name": "registry",
      "outputs": [
        {
          "internalType": "address",
          "name": "",
          "type": "address"
        }
      ],
      "stateMutability": "view",
      "type": "function"
    },
    {
      "inputs": [
        {
          "internalType": "address",
          "name": "_vault",
          "type": "address"
        },
        {
          "internalType": "uint256",
          "name": "_proposalId",
          "type": "uint256"
        },
        {
          "internalType": "bytes32[]",
          "name": "_mintProof",
          "type": "bytes32[]"
        }
      ],
      "name": "settleFractions",
      "outputs": [],
      "stateMutability": "nonpayable",
      "type": "function"
    },
    {
      "inputs": [
        {
          "internalType": "address",
          "name": "_vault",
          "type": "address"
        },
        {
          "internalType": "uint256",
          "name": "_proposalId",
          "type": "uint256"
        }
      ],
      "name": "settleVault",
      "outputs": [],
      "stateMutability": "nonpayable",
      "type": "function"
    },
    {
      "inputs": [],
      "name": "supply",
      "outputs": [
        {
          "internalType": "address",
          "name": "",
          "type": "address"
        }
      ],
      "stateMutability": "view",
      "type": "function"
    },
    {
      "inputs": [
        {
          "internalType": "bytes32",
          "name": "_root",
          "type": "bytes32"
        },
        {
          "internalType": "bytes32[]",
          "name": "_proof",
          "type": "bytes32[]"
        },
        {
          "internalType": "bytes32",
          "name": "_valueToProve",
          "type": "bytes32"
        }
      ],
      "name": "verifyProof",
      "outputs": [
        {
          "internalType": "bool",
          "name": "",
          "type": "bool"
        }
      ],
      "stateMutability": "pure",
      "type": "function"
    },
    {
      "inputs": [
        {
          "internalType": "address",
          "name": "_vault",
          "type": "address"
        },
        {
          "internalType": "uint256",
          "name": "_proposalId",
          "type": "uint256"
        }
      ],
      "name": "withdrawContribution",
      "outputs": [],
      "stateMutability": "nonpayable",
      "type": "function"
    },
    {
      "stateMutability": "payable",
      "type": "receive"
    }
  ],
  "bytecode": {
    "object": "0x6080604052600180553480156200001557600080fd5b5060405162003dae38038062003dae833981016040819052620000389162000096565b600080546001600160a01b03199081166001600160a01b039384161790915560028054821694831694909417909355600380549093169116179055620000e0565b80516001600160a01b03811681146200009157600080fd5b919050565b600080600060608486031215620000ac57600080fd5b620000b78462000079565b9250620000c76020850162000079565b9150620000d76040850162000079565b90509250925092565b613cbe80620000f06000396000f3fe6080604052600436106101d15760003560e01c806384bf1535116100f7578063bc197c8111610095578063d87ed5e011610064578063d87ed5e014610645578063dd1d25991461065c578063ea36380a1461067c578063f23a6e611461068f57600080fd5b8063bc197c81146105bf578063c3a07df6146105ee578063c5d15ebd14610610578063cbbb4ac51461063057600080fd5b80639818ca59116100d15780639818ca5914610532578063ac9650d814610552578063b35db9111461057f578063b86161951461059f57600080fd5b806384bf1535146104c5578063884c05fb146104e55780638c31f8e01461051257600080fd5b8063496a563d1161016f57806361b8ce8c1161013e57806361b8ce8c1461044f5780636cb58c93146104655780637b103999146104855780638406a2f9146104a557600080fd5b8063496a563d146103bf57806358161a42146103df5780635c4bfa101461040f5780635d58066f1461042f57600080fd5b8063150b7a02116101ab578063150b7a0214610318578063295e6b7f1461035d5780632e08d6021461037f578063318293901461039f57600080fd5b8063047fc9aa146101dd57806308d7090a1461021a5780630ef948531461024857600080fd5b366101d857005b600080fd5b3480156101e957600080fd5b506000546101fd906001600160a01b031681565b6040516001600160a01b0390911681526020015b60405180910390f35b34801561022657600080fd5b5061023a610235366004612ad9565b6106bc565b604051908152602001610211565b34801561025457600080fd5b506102c8610263366004612b0a565b600560209081526000928352604080842090915290825290208054600182015460028301546003840154600785015460088601546009870154600a9097015495969495939492936001600160a01b0383169360ff600160a01b90940484169390911689565b60408051998a5260208a01989098529688019590955260608701939093526001600160a01b039091166080860152151560a085015260c084015260e0830152151561010082015261012001610211565b34801561032457600080fd5b50610344610333366004612b7e565b630a85bd0160e11b95945050505050565b6040516001600160e01b03199091168152602001610211565b34801561036957600080fd5b5061037d610378366004612b0a565b6106e5565b005b34801561038b57600080fd5b5061023a61039a366004612cd2565b610996565b3480156103ab57600080fd5b5061037d6103ba366004612d52565b610a30565b3480156103cb57600080fd5b5061037d6103da366004612e10565b610c8a565b3480156103eb57600080fd5b506103ff6103fa366004612e95565b610d28565b6040519015158152602001610211565b34801561041b57600080fd5b506002546101fd906001600160a01b031681565b34801561043b57600080fd5b5061037d61044a366004612ee4565b610d70565b34801561045b57600080fd5b5061023a60045481565b34801561047157600080fd5b5061037d610480366004612b0a565b610f2d565b34801561049157600080fd5b506003546101fd906001600160a01b031681565b3480156104b157600080fd5b5061037d6104c0366004612f3f565b6111df565b3480156104d157600080fd5b506103ff6104e0366004612b0a565b61127a565b3480156104f157600080fd5b50610505610500366004612fba565b6115bc565b6040516102119190613053565b34801561051e57600080fd5b5061037d61052d366004612f3f565b61179a565b34801561053e57600080fd5b5061037d61054d366004612b0a565b6117fa565b34801561055e57600080fd5b5061057261056d366004613097565b611c54565b6040516102119190613134565b34801561058b57600080fd5b5061037d61059a366004612b0a565b611d78565b3480156105ab57600080fd5b506105056105ba366004613196565b611fd2565b3480156105cb57600080fd5b506103446105da3660046131da565b63bc197c8160e01b98975050505050505050565b3480156105fa57600080fd5b50610603612247565b60405161021191906132c9565b34801561061c57600080fd5b5061037d61062b36600461330b565b6122db565b34801561063c57600080fd5b5061050561237f565b34801561065157600080fd5b5061023a62093a8081565b34801561066857600080fd5b5061023a6106773660046133d5565b61240b565b61037d61068a3660046133f7565b612457565b34801561069b57600080fd5b506103446106aa36600461342c565b63f23a6e6160e01b9695505050505050565b60008119600101821682145b82156106de57600192831c9291909101906106c8565b9003919050565b6001600160a01b038216600090815260056020908152604080832084845290915290206007810154600160a01b900460ff16610734576040516379543eaf60e11b815260040160405180910390fd5b60025460405163b5bb74a760e01b81526001600160a01b038581166004830152600092169063b5bb74a79060240160c060405180830381865afa15801561077f573d6000803e3d6000fd5b505050506040513d601f19601f820116820180604052508101906107a39190613495565b50919450600293506107b492505050565b8160028111156107c6576107c66134f8565b146107e45760405163ad9a2c2960e01b815260040160405180910390fd5b60078201546001600160a01b03161561082657600782015460405163c874ad0960e01b81526001600160a01b0390911660048201526024015b60405180910390fd5b600061088d8360040180548060200260200160405190810160405280929190818152602001828054801561088357602002820191906000526020600020905b81546001600160a01b03168152600190910190602001808311610865575b50505050506115bc565b9050600061089a82610996565b600354604051636716466560e01b81529192506000916001600160a01b03909116906367164665906108da90859060058a019060068b019060040161377d565b6020604051808303816000875af11580156108f9573d6000803e3d6000fd5b505050506040513d601f19601f8201168201806040525081019061091d91906137b2565b6007860180546001600160a01b0319166001600160a01b0383811691821790925560405192935091908916907f44ae6793331f08862d79148df98d03f866ac16d2fdb78b7ff1a2ee247c4ff8dc90610985908a9060048b019060058c019060068d01906137cf565b60405180910390a350505050505050565b600060018251116109f45760405162461bcd60e51b815260206004820152602260248201527f776f6e742067656e657261746520726f6f7420666f722073696e676c65206c6560448201526130b360f11b606482015260840161081d565b600182511115610a0e57610a078261271e565b91506109f4565b81600081518110610a2157610a2161380e565b60200260200101519050919050565b6003546040516310b467bd60e21b81526001600160a01b038b8116600483015260009216906342d19ef4906024016040805180830381865afa158015610a7a573d6000803e3d6000fd5b505050506040513d601f19601f82011682018060405250810190610a9e9190613824565b91505080600003610acd5760405163e9d6016160e01b81526001600160a01b038b16600482015260240161081d565b60025460405163b5bb74a760e01b81526001600160a01b038c81166004830152600092169063b5bb74a79060240160c060405180830381865afa158015610b18573d6000803e3d6000fd5b505050506040513d601f19601f82011682018060405250810190610b3c9190613495565b505050925050506000806002811115610b5757610b576134f8565b826002811115610b6957610b696134f8565b14610b8b578082604051633bf2e2f960e11b815260040161081d929190613874565b6001600160a01b038c166000908152600560205260408120600480548391908290610bb5906138a5565b918290555081526020810191909152604001600020428155600181018690559050610be4600482018d8d6129b4565b50610bf3600582018b8b6129b4565b50610c02600682018989612a17565b506003546040516339370aa960e21b81526001600160a01b038f811660048301529091169063e4dc2aa490602401602060405180830381865afa158015610c4d573d6000803e3d6000fd5b505050506040513d601f19601f82011682018060405250810190610c7191906138be565b6008820155600901949094555050505050505050505050565b6001600160a01b0380881660009081526005602090815260408083208a84529091529081902060070154600254915163c42a581760e01b815290831692919091169063c42a581790610cec908b908a9086908b908b908b908b9060040161390d565b600060405180830381600087803b158015610d0657600080fd5b505af1158015610d1a573d6000803e3d6000fd5b505050505050505050505050565b600081815b8451811015610d6357610d5982868381518110610d4c57610d4c61380e565b602002602001015161240b565b9150600101610d2d565b50841490505b9392505050565b60025460405163b5bb74a760e01b81526001600160a01b038681166004830152600092169063b5bb74a79060240160c060405180830381865afa158015610dbb573d6000803e3d6000fd5b505050506040513d601f19601f82011682018060405250810190610ddf9190613495565b5091945060029350610df092505050565b816002811115610e0257610e026134f8565b14610e205760405163ad9a2c2960e01b815260040160405180910390fd5b6001600160a01b03808616600090815260056020908152604080832088845290915290206007810154909116610e6957604051631b176cbf60e31b815260040160405180910390fd5b600a81015460ff1615610e8f57604051630757652760e01b815260040160405180910390fd5b60078101546009820154610eb0916001600160a01b03169030908787612884565b6001600160a01b0386811660008181526005602090815260408083208a8452825291829020600a01805460ff191660011790556007850154600986015483518b815292830152909316927f3e65ef540d2fe72c06d2d3d8243d3623dd6bfb876808bba68aaf3d3f925c3d6a910160405180910390a3505050505050565b6003546040516310b467bd60e21b81526001600160a01b03848116600483015260009283929116906342d19ef4906024016040805180830381865afa158015610f7a573d6000803e3d6000fd5b505050506040513d601f19601f82011682018060405250810190610f9e9190613824565b9150915080600003610fce5760405163e9d6016160e01b81526001600160a01b038516600482015260240161081d565b60025460405163b5bb74a760e01b81526001600160a01b038681166004830152600092169063b5bb74a79060240160c060405180830381865afa158015611019573d6000803e3d6000fd5b505050506040513d601f19601f8201168201806040525081019061103d9190613495565b505050925050506000806002811115611058576110586134f8565b82600281111561106a5761106a6134f8565b1461108c578082604051633bf2e2f960e11b815260040161081d929190613874565b6001600160a01b0386166000908152600560209081526040808320888452825280832060078352818420338552909252822054600382018054929391928392906110d790849061395d565b90915550506000878152600760209081526040808320338085529083528184208490558a8452600683528184209084529091528120546002840180549192839261112290849061395d565b90915550506000888152600660209081526040808320338085529252808320929092559051637921219560e11b81526001600160a01b0389169163f242432a916111749130918b908890600401613974565b600060405180830381600087803b15801561118e57600080fd5b505af11580156111a2573d6000803e3d6000fd5b505060405133925083156108fc02915083906000818181858888f193505050501580156111d3573d6000803e3d6000fd5b50505050505050505050565b6001600160a01b0380871660009081526005602090815260408083208984529091529081902060070154600254915163b43adf1160e01b815290831692919091169063b43adf119061123f908a90899086908a908a908a906004016139ac565b600060405180830381600087803b15801561125957600080fd5b505af115801561126d573d6000803e3d6000fd5b5050505050505050505050565b6003546040516310b467bd60e21b81526001600160a01b03848116600483015260009283928392909116906342d19ef4906024016040805180830381865afa1580156112ca573d6000803e3d6000fd5b505050506040513d601f19601f820116820180604052508101906112ee9190613824565b915091508060000361131e5760405163e9d6016160e01b81526001600160a01b038616600482015260240161081d565b60025460405163b5bb74a760e01b81526001600160a01b038781166004830152600092169063b5bb74a79060240160c060405180830381865afa158015611369573d6000803e3d6000fd5b505050506040513d601f19601f8201168201806040525081019061138d9190613495565b5050509250505060008060028111156113a8576113a86134f8565b8260028111156113ba576113ba6134f8565b146113dc578082604051633bf2e2f960e11b815260040161081d929190613874565b6001600160a01b03871660009081526005602090815260408083208984529091529020805461140f9062093a80906139f4565b42111561142f5760405163ed8c0ba960e01b815260040160405180910390fd5b6003546040516339370aa960e21b81526001600160a01b038a811660048301526000926114b6926064929091169063e4dc2aa490602401602060405180830381865afa158015611483573d6000803e3d6000fd5b505050506040513d601f19601f820116820180604052508101906114a791906138be565b8460020154856003015461294c565b905081600101548111156115b05760025460405163f72c868960e01b81526001600160a01b03918216600482015260248101879052600160448201529087169063f72c868990606401600060405180830381600087803b15801561151957600080fd5b505af115801561152d573d6000803e3d6000fd5b50506002805490850154604051636e85940f60e11b81526001600160a01b038e81166004830152909216935063dd0b281e9250906024016000604051808303818588803b15801561157d57600080fd5b505af1158015611591573d6000803e3d6000fd5b50505060078401805460ff60a01b1916600160a01b1790555060019750505b50505050505092915050565b8051606090600090815b8181101561165b578481815181106115e0576115e061380e565b60200260200101516001600160a01b031663cbbb4ac56040518163ffffffff1660e01b8152600401600060405180830381865afa158015611625573d6000803e3d6000fd5b505050506040513d6000823e601f3d908101601f1916820160405261164d9190810190613a0c565b5192909201916001016115c6565b506000826001600160401b0381111561167657611676612bfe565b60405190808252806020026020018201604052801561169f578160200160208202803683370190505b50935060005b828110156117915760008682815181106116c1576116c161380e565b60200260200101516001600160a01b031663cbbb4ac56040518163ffffffff1660e01b8152600401600060405180830381865afa158015611706573d6000803e3d6000fd5b505050506040513d6000823e601f3d908101601f1916820160405261172e9190810190613a0c565b805190915060005b81811015611783578281815181106117505761175061380e565b60200260200101518886806001019750815181106117705761177061380e565b6020908102919091010152600101611736565b5050508060010190506116a5565b50505050919050565b6001600160a01b038087166000908152600560209081526040808320898452909152908190206007015460025491516350702b1360e11b815290831692919091169063a0e056269061123f908a90899086908a908a908a906004016139ac565b6003546040516310b467bd60e21b81526001600160a01b03848116600483015260009216906342d19ef4906024016040805180830381865afa158015611844573d6000803e3d6000fd5b505050506040513d601f19601f820116820180604052508101906118689190613824565b915050806000036118975760405163e9d6016160e01b81526001600160a01b038416600482015260240161081d565b60025460405163b5bb74a760e01b81526001600160a01b038581166004830152600092839291169063b5bb74a79060240160c060405180830381865afa1580156118e5573d6000803e3d6000fd5b505050506040513d601f19601f820116820180604052508101906119099190613495565b509295509093506002925082915061191e9050565b826002811115611930576119306134f8565b14611952578082604051633bf2e2f960e11b815260040161081d929190613874565b6001600160a01b038316301461197b57604051639eba390160e01b815260040160405180910390fd5b60025460405163b5bb74a760e01b81526001600160a01b038881166004830152600092169063b5bb74a79060240160c060405180830381865afa1580156119c6573d6000803e3d6000fd5b505050506040513d601f19601f820116820180604052508101906119ea9190613495565b955050505050506000611a79670de0b6b3a764000083600560008c6001600160a01b03166001600160a01b0316815260200190815260200160002060008b815260200190815260200160002060020154600560008d6001600160a01b03166001600160a01b0316815260200190815260200160002060008c81526020019081526020016000206003015461294c565b600088815260066020908152604080832033808552908352818420548c85526007845282852091855292528220549293509091611aba91849186919061298a565b6001600160a01b038a811660009081526005602090815260408083208d84529091528082206007015460035491516310b467bd60e21b815290841660048201819052949550919283929116906342d19ef4906024016040805180830381865afa158015611b2b573d6000803e3d6000fd5b505050506040513d601f19601f82011682018060405250810190611b4f9190613824565b6003546040516339370aa960e21b81526001600160a01b038781166004830152939550919350600092169063e4dc2aa490602401602060405180830381865afa158015611ba0573d6000803e3d6000fd5b505050506040513d601f19601f82011682018060405250810190611bc491906138be565b9050600086611bd38388613a91565b611bdd9190613ab0565b604051637921219560e11b81529091506001600160a01b0385169063f242432a90611c12903090339088908790600401613974565b600060405180830381600087803b158015611c2c57600080fd5b505af1158015611c40573d6000803e3d6000fd5b505050505050505050505050505050505050565b606081806001600160401b03811115611c6f57611c6f612bfe565b604051908082528060200260200182016040528015611ca257816020015b6060815260200190600190039081611c8d5790505b5091506000805b82811015611d6f57606030878784818110611cc657611cc661380e565b9050602002810190611cd89190613ad2565b604051611ce6929190613b18565b600060405180830381855af49150503d8060008114611d21576040519150601f19603f3d011682016040523d82523d6000602084013e611d26565b606091505b50909350905082611d48578051600003611d3f57600080fd5b611d48816129ab565b80858381518110611d5b57611d5b61380e565b602090810291909101015250600101611ca9565b50505092915050565b6003546040516310b467bd60e21b81526001600160a01b03848116600483015260009283929116906342d19ef4906024016040805180830381865afa158015611dc5573d6000803e3d6000fd5b505050506040513d601f19601f82011682018060405250810190611de99190613824565b9150915080600003611e195760405163e9d6016160e01b81526001600160a01b038516600482015260240161081d565b60025460405163b5bb74a760e01b81526001600160a01b038681166004830152600092169063b5bb74a79060240160c060405180830381865afa158015611e64573d6000803e3d6000fd5b505050506040513d601f19601f82011682018060405250810190611e889190613495565b5091945060009350611e9992505050565b816002811115611eab57611eab6134f8565b141580611edf57506001600160a01b0385811660009081526005602090815260408083208884529091529020600701541615155b15611efd576040516308cf273760e01b815260040160405180910390fd5b6000848152600760209081526040808320338085529252808320805493905551637921219560e11b81526001600160a01b0386169163f242432a91611f4a91309188908790600401613974565b600060405180830381600087803b158015611f6457600080fd5b505af1158015611f78573d6000803e3d6000fd5b5050506000868152600660209081526040808320338085529252808320805490849055905190935090916108fc841502918491818181858888f19350505050158015611fc8573d6000803e3d6000fd5b5050505050505050565b606060018351116120315760405162461bcd60e51b815260206004820152602360248201527f776f6e742067656e65726174652070726f6f6620666f722073696e676c65206c60448201526232b0b360e91b606482015260840161081d565b600061203d84516106bc565b90506000816001600160401b0381111561205957612059612bfe565b604051908082528060200260200182016040528015612082578160200160208202803683370190505b5090506000805b60018751111561216a57600286066001036120de578660018703815181106120b3576120b361380e565b60200260200101518383815181106120cd576120cd61380e565b60200260200101818152505061214e565b86518660010103612112576000801b8383815181106120ff576120ff61380e565b602090810291909101015260010161214e565b8686600101815181106121275761212761380e565b60200260200101518383815181106121415761214161380e565b6020026020010181815250505b6001909101906002860495506121638761271e565b9650612089565b6000612176828661395d565b6001600160401b0381111561218d5761218d612bfe565b6040519080825280602002602001820160405280156121b6578160200160208202803683370190505b5090506000805b8551811015612237576000801b8682815181106121dc576121dc61380e565b602002602001015114612228578581815181106121fb576121fb61380e565b602002602001015183838303815181106122175761221761380e565b60200260200101818152505061222f565b8160010191505b6001016121bd565b5090955050505050505b92915050565b604080516001808252818301909252606091816020015b604080516060810182526000808252602080830182905292820152825260001990920191018161225e57505060408051606081018252308152600080546001600160a01b031660208301526340c10f1960e01b928201929092528251929350918391906122cd576122cd61380e565b602002602001018190525090565b6001600160a01b03808a1660009081526005602090815260408083208c845290915290819020600701546002549151633e86275760e11b8152908316929190911690637d0c4eae90612341908d908c9086908d908d908d908d908d908d90600401613b28565b600060405180830381600087803b15801561235b57600080fd5b505af115801561236f573d6000803e3d6000fd5b5050505050505050505050505050565b604080516001808252818301909252606091602080830190803683370190505090506123a9612247565b6000815181106123bb576123bb61380e565b60200260200101516040516020016123d39190613b95565b60405160208183030381529060405280519060200120816000815181106123fc576123fc61380e565b60200260200101818152505090565b600082612419575080612241565b81612425575081612241565b818314828410171561243a5782600052816020525b8183111561244b5781600052826020525b50604060002092915050565b6001546001146124965760405162461bcd60e51b815260206004820152600a6024820152695245454e5452414e435960b01b604482015260640161081d565b60026001556003546040516310b467bd60e21b81526001600160a01b03858116600483015260009283929116906342d19ef4906024016040805180830381865afa1580156124e8573d6000803e3d6000fd5b505050506040513d601f19601f8201168201806040525081019061250c9190613824565b915091508060000361253c5760405163e9d6016160e01b81526001600160a01b038616600482015260240161081d565b60025460405163b5bb74a760e01b81526001600160a01b038781166004830152600092169063b5bb74a79060240160c060405180830381865afa158015612587573d6000803e3d6000fd5b505050506040513d601f19601f820116820180604052508101906125ab9190613495565b5050509250505060008060028111156125c6576125c66134f8565b8260028111156125d8576125d86134f8565b146125fa578082604051633bf2e2f960e11b815260040161081d929190613874565b6001600160a01b03871660009081526005602090815260408083208984529091528120600281018054919234926126329084906139f4565b90915550506000878152600660209081526040808320338452909152812080543492906126609084906139f4565b9091555050604051637921219560e11b81526001600160a01b0386169063f242432a90612697903390309089908c90600401613974565b600060405180830381600087803b1580156126b157600080fd5b505af11580156126c5573d6000803e3d6000fd5b50505050858160030160008282546126dd91906139f4565b909155505060008781526007602090815260408083203384529091528120805488929061270b9084906139f4565b9091555050600180555050505050505050565b8051606090600180821690036127c857600281046001016001600160401b0381111561274c5761274c612bfe565b604051908082528060200260200182016040528015612775578160200160208202803683370190505b5091506127a18360018303815181106127905761279061380e565b60200260200101516000801b61240b565b826001845103815181106127b7576127b761380e565b602002602001018181525050612810565b600281046001600160401b038111156127e3576127e3612bfe565b60405190808252806020026020018201604052801561280c578160200160208202803683370190505b5091505b6000805b6001830381101561287c576128518582815181106128345761283461380e565b6020026020010151868360010181518110610d4c57610d4c61380e565b8483815181106128635761286361380e565b6020908102919091010152600190910190600201612814565b505050919050565b6040516001600160a01b03851660248201526044810184905260009060640160408051601f198184030181529181526020820180516001600160e01b03166340c10f1960e01b179052600054905163601b8af360e01b81529192506001600160a01b038089169263601b8af392612905921690859088908890600401613ba3565b6000604051808303816000875af1158015612924573d6000803e3d6000fd5b505050506040513d6000823e601f3d908101601f19168201604052611fc89190810190613bda565b6000836129598684613a91565b6129639190613ab0565b61296d908661395d565b6129778685613a91565b6129819190613ab0565b95945050505050565b6000836129978684613a91565b6129a19190613ab0565b61298190846139f4565b80518082602001fd5b828054828255906000526020600020908101928215612a07579160200282015b82811115612a075781546001600160a01b0319166001600160a01b038435161782556020909201916001909101906129d4565b50612a13929150612ac4565b5090565b82805482825590600052602060002090600701600890048101928215612a075791602002820160005b83821115612a8b5783356001600160e01b03191683826101000a81548163ffffffff021916908360e01c02179055509260200192600401602081600301049283019260010302612a40565b8015612abb5782816101000a81549063ffffffff0219169055600401602081600301049283019260010302612a8b565b5050612a139291505b5b80821115612a135760008155600101612ac5565b600060208284031215612aeb57600080fd5b5035919050565b6001600160a01b0381168114612b0757600080fd5b50565b60008060408385031215612b1d57600080fd5b8235612b2881612af2565b946020939093013593505050565b60008083601f840112612b4857600080fd5b5081356001600160401b03811115612b5f57600080fd5b602083019150836020828501011115612b7757600080fd5b9250929050565b600080600080600060808688031215612b9657600080fd5b8535612ba181612af2565b94506020860135612bb181612af2565b93506040860135925060608601356001600160401b03811115612bd357600080fd5b612bdf88828901612b36565b969995985093965092949392505050565b6001600160e01b0319169052565b634e487b7160e01b600052604160045260246000fd5b604051601f8201601f191681016001600160401b0381118282101715612c3c57612c3c612bfe565b604052919050565b60006001600160401b03821115612c5d57612c5d612bfe565b5060051b60200190565b600082601f830112612c7857600080fd5b81356020612c8d612c8883612c44565b612c14565b82815260059290921b84018101918181019086841115612cac57600080fd5b8286015b84811015612cc75780358352918301918301612cb0565b509695505050505050565b600060208284031215612ce457600080fd5b81356001600160401b03811115612cfa57600080fd5b612d0684828501612c67565b949350505050565b60008083601f840112612d2057600080fd5b5081356001600160401b03811115612d3757600080fd5b6020830191508360208260051b8501011115612b7757600080fd5b600080600080600080600080600060c08a8c031215612d7057600080fd5b8935612d7b81612af2565b985060208a01356001600160401b0380821115612d9757600080fd5b612da38d838e01612d0e565b909a50985060408c0135915080821115612dbc57600080fd5b612dc88d838e01612d0e565b909850965060608c0135915080821115612de157600080fd5b50612dee8c828d01612d0e565b9a9d999c50979a96999598959660808101359660a09091013595509350505050565b600080600080600080600060c0888a031215612e2b57600080fd5b8735612e3681612af2565b9650602088013595506040880135612e4d81612af2565b9450606088013593506080880135925060a08801356001600160401b03811115612e7657600080fd5b612e828a828b01612d0e565b989b979a50959850939692959293505050565b600080600060608486031215612eaa57600080fd5b8335925060208401356001600160401b03811115612ec757600080fd5b612ed386828701612c67565b925050604084013590509250925092565b60008060008060608587031215612efa57600080fd5b8435612f0581612af2565b93506020850135925060408501356001600160401b03811115612f2757600080fd5b612f3387828801612d0e565b95989497509550505050565b60008060008060008060a08789031215612f5857600080fd5b8635612f6381612af2565b9550602087013594506040870135612f7a81612af2565b93506060870135925060808701356001600160401b03811115612f9c57600080fd5b612fa889828a01612d0e565b979a9699509497509295939492505050565b60006020808385031215612fcd57600080fd5b82356001600160401b03811115612fe357600080fd5b8301601f81018513612ff457600080fd5b8035613002612c8882612c44565b81815260059190911b8201830190838101908783111561302157600080fd5b928401925b8284101561304857833561303981612af2565b82529284019290840190613026565b979650505050505050565b6020808252825182820181905260009190848201906040850190845b8181101561308b5783518352928401929184019160010161306f565b50909695505050505050565b600080602083850312156130aa57600080fd5b82356001600160401b038111156130c057600080fd5b6130cc85828601612d0e565b90969095509350505050565b60005b838110156130f35781810151838201526020016130db565b83811115613102576000848401525b50505050565b600081518084526131208160208601602086016130d8565b601f01601f19169290920160200192915050565b6000602080830181845280855180835260408601915060408160051b870101925083870160005b8281101561318957603f19888603018452613177858351613108565b9450928501929085019060010161315b565b5092979650505050505050565b600080604083850312156131a957600080fd5b82356001600160401b038111156131bf57600080fd5b6131cb85828601612c67565b95602094909401359450505050565b60008060008060008060008060a0898b0312156131f657600080fd5b883561320181612af2565b9750602089013561321181612af2565b965060408901356001600160401b038082111561322d57600080fd5b6132398c838d01612d0e565b909850965060608b013591508082111561325257600080fd5b61325e8c838d01612d0e565b909650945060808b013591508082111561327757600080fd5b506132848b828c01612b36565b999c989b5096995094979396929594505050565b80516001600160a01b039081168352602080830151909116908301526040908101516001600160e01b031916910152565b6020808252825182820181905260009190848201906040850190845b8181101561308b576132f8838551613298565b92840192606092909201916001016132e5565b600080600080600080600080600060c08a8c03121561332957600080fd5b893561333481612af2565b985060208a0135975060408a013561334b81612af2565b965060608a01356001600160401b038082111561336757600080fd5b6133738d838e01612d0e565b909850965060808c013591508082111561338c57600080fd5b6133988d838e01612d0e565b909650945060a08c01359150808211156133b157600080fd5b506133be8c828d01612d0e565b915080935050809150509295985092959850929598565b600080604083850312156133e857600080fd5b50508035926020909101359150565b60008060006060848603121561340c57600080fd5b833561341781612af2565b95602085013595506040909401359392505050565b60008060008060008060a0878903121561344557600080fd5b863561345081612af2565b9550602087013561346081612af2565b9450604087013593506060870135925060808701356001600160401b0381111561348957600080fd5b612fa889828a01612b36565b60008060008060008060c087890312156134ae57600080fd5b8651955060208701516134c081612af2565b6040880151909550600381106134d557600080fd5b80945050606087015192506080870151915060a087015190509295509295509295565b634e487b7160e01b600052602160045260246000fd5b6000815480845260208085019450836000528060002060005b8381101561354c5781546001600160a01b031687529582019560019182019101613527565b509495945050505050565b805480835260008281526020808220940193909190825b8260078201101561362b578154613588878260e01b612bf0565b60206001600160e01b031960c06135a58a840185831b8416612bf0565b604060a06135b9828d018588841b16612bf0565b606060806135cd828f01878a841b16612bf0565b6135dd818f01878a851b16612bf0565b50506135ef818d018588851b16612bf0565b5050613601818b018386861b16612bf0565b5061361160e08a01828516612bf0565b50505061010095909501946001919091019060080161356e565b9054908281101561364e57613643868360e01b612bf0565b602095909501946001015b828110156136795761366e8660c084901b6001600160e01b031916612bf0565b602095909501946001015b828110156136a4576136998660a084901b6001600160e01b031916612bf0565b602095909501946001015b828110156136cf576136c486608084901b6001600160e01b031916612bf0565b602095909501946001015b828110156136fa576136ef86606084901b6001600160e01b031916612bf0565b602095909501946001015b828110156137255761371a86604084901b6001600160e01b031916612bf0565b602095909501946001015b828110156137505761374586602084901b6001600160e01b031916612bf0565b602095909501946001015b828110156137735761376c866001600160e01b03198416612bf0565b6020860195505b5093949350505050565b838152606060208201526000613796606083018561350e565b82810360408401526137a88185613557565b9695505050505050565b6000602082840312156137c457600080fd5b8151610d6981612af2565b8481526080602082015260006137e8608083018661350e565b82810360408401526137fa818661350e565b905082810360608401526130488185613557565b634e487b7160e01b600052603260045260246000fd5b6000806040838503121561383757600080fd5b825161384281612af2565b6020939093015192949293505050565b6003811061387057634e487b7160e01b600052602160045260246000fd5b9052565b604081016138828285613852565b610d696020830184613852565b634e487b7160e01b600052601160045260246000fd5b6000600182016138b7576138b761388f565b5060010190565b6000602082840312156138d057600080fd5b5051919050565b81835260006001600160fb1b038311156138f057600080fd5b8260051b8083602087013760009401602001938452509192915050565b6001600160a01b038881168252878116602083015286166040820152606081018590526080810184905260c060a0820181905260009061395090830184866138d7565b9998505050505050505050565b60008282101561396f5761396f61388f565b500390565b6001600160a01b0394851681529290931660208301526040820152606081019190915260a06080820181905260009082015260c00190565b6001600160a01b0387811682528681166020830152851660408201526060810184905260a0608082018190526000906139e890830184866138d7565b98975050505050505050565b60008219821115613a0757613a0761388f565b500190565b60006020808385031215613a1f57600080fd5b82516001600160401b03811115613a3557600080fd5b8301601f81018513613a4657600080fd5b8051613a54612c8882612c44565b81815260059190911b82018301908381019087831115613a7357600080fd5b928401925b8284101561304857835182529284019290840190613a78565b6000816000190483118215151615613aab57613aab61388f565b500290565b600082613acd57634e487b7160e01b600052601260045260246000fd5b500490565b6000808335601e19843603018112613ae957600080fd5b8301803591506001600160401b03821115613b0357600080fd5b602001915036819003821315612b7757600080fd5b8183823760009101908152919050565b6001600160a01b038a8116825289811660208301528816604082015260c060608201819052600090613b5d908301888a6138d7565b8281036080840152613b708187896138d7565b905082810360a0840152613b858185876138d7565b9c9b505050505050505050505050565b606081016122418284613298565b6001600160a01b0385168152606060208201819052600090613bc790830186613108565b82810360408401526130488185876138d7565b60008060408385031215613bed57600080fd5b82518015158114613bfd57600080fd5b60208401519092506001600160401b0380821115613c1a57600080fd5b818501915085601f830112613c2e57600080fd5b815181811115613c4057613c40612bfe565b613c53601f8201601f1916602001612c14565b9150808252866020828501011115613c6a57600080fd5b613c7b8160208401602086016130d8565b508092505050925092905056fea2646970667358221220004f6801f610fb17502a467995bf80e96e47bff8b7a5f0432478ab88bd9108a864736f6c634300080d0033",
    "linkReferences": {}
  },
  "methodIdentifiers": {
    "PROPOSAL_PERIOD()": "d87ed5e0",
    "batchMigrateVaultERC1155(address,uint256,address,uint256[],uint256[],bytes32[])": "c5d15ebd",
    "buyout()": "5c4bfa10",
    "commit(address,uint256)": "84bf1535",
    "generateMerkleTree(address[])": "884c05fb",
    "getLeafNodes()": "cbbb4ac5",
    "getPermissions()": "c3a07df6",
    "getProof(bytes32[],uint256)": "b8616195",
    "getRoot(bytes32[])": "2e08d602",
    "hashLeafPairs(bytes32,bytes32)": "dd1d2599",
    "join(address,uint256,uint256)": "ea36380a",
    "leave(address,uint256)": "6cb58c93",
    "log2ceil_naive(uint256)": "08d7090a",
    "migrateFractions(address,uint256)": "9818ca59",
    "migrateVaultERC1155(address,uint256,address,uint256,uint256,bytes32[])": "496a563d",
    "migrateVaultERC20(address,uint256,address,uint256,bytes32[])": "8406a2f9",
    "migrateVaultERC721(address,uint256,address,uint256,bytes32[])": "8c31f8e0",
    "migrationInfo(address,uint256)": "0ef94853",
    "multicall(bytes[])": "ac9650d8",
    "nextId()": "61b8ce8c",
    "onERC1155BatchReceived(address,address,uint256[],uint256[],bytes)": "bc197c81",
    "onERC1155Received(address,address,uint256,uint256,bytes)": "f23a6e61",
    "onERC721Received(address,address,uint256,bytes)": "150b7a02",
    "propose(address,address[],address[],bytes4[],uint256,uint256)": "31829390",
    "registry()": "7b103999",
    "settleFractions(address,uint256,bytes32[])": "5d58066f",
    "settleVault(address,uint256)": "295e6b7f",
    "supply()": "047fc9aa",
    "verifyProof(bytes32,bytes32[],bytes32)": "58161a42",
    "withdrawContribution(address,uint256)": "b35db911"
  },
  "id": 46
}