{
  "abi": [
    {
      "inputs": [
        {
          "internalType": "address",
          "name": "_token",
          "type": "address"
        }
      ],
      "stateMutability": "nonpayable",
      "type": "constructor"
    },
    {
      "inputs": [
        {
          "internalType": "address",
          "name": "_required",
          "type": "address"
        },
        {
          "internalType": "address",
          "name": "_provided",
          "type": "address"
        }
      ],
      "name": "InvalidSender",
      "type": "error"
    },
    {
      "inputs": [
        {
          "internalType": "uint256",
          "name": "_id",
          "type": "uint256"
        },
        {
          "internalType": "string",
          "name": "_uri",
          "type": "string"
        }
      ],
      "name": "setURI",
      "outputs": [],
      "stateMutability": "nonpayable",
      "type": "function"
    },
    {
      "inputs": [
        {
          "internalType": "uint256",
          "name": "_id",
          "type": "uint256"
        }
      ],
      "name": "uri",
      "outputs": [
        {
          "internalType": "string",
          "name": "",
          "type": "string"
        }
      ],
      "stateMutability": "view",
      "type": "function"
    }
  ],
  "bytecode": {
    "object": "0x60a060405234801561001057600080fd5b506040516105b83803806105b883398101604081905261002f91610040565b6001600160a01b0316608052610070565b60006020828403121561005257600080fd5b81516001600160a01b038116811461006957600080fd5b9392505050565b6080516105266100926000396000818161011f015261021401526105266000f3fe608060405234801561001057600080fd5b50600436106100365760003560e01c80630e89341c1461003b578063862440e214610064575b600080fd5b61004e61004936600461031b565b610079565b60405161005b9190610381565b60405180910390f35b6100776100723660046103b1565b61011b565b005b60008181526020819052604090208054606091906100969061046c565b80601f01602080910402602001604051908101604052809291908181526020018280546100c29061046c565b801561010f5780601f106100e45761010080835404028352916020019161010f565b820191906000526020600020905b8154815290600101906020018083116100f257829003601f168201915b50505050509050919050565b60007f00000000000000000000000000000000000000000000000000000000000000006001600160a01b031663f77c47916040518163ffffffff1660e01b8152600401602060405180830381865afa15801561017b573d6000803e3d6000fd5b505050506040513d601f19601f8201168201806040525081019061019f91906104a6565b9050336001600160a01b038216146101df5760405163708986dd60e11b81526001600160a01b038216600482015233602482015260440160405180910390fd5b60008381526020818152604090912083516101fc92850190610282565b50604051630986c67760e01b81526001600160a01b037f00000000000000000000000000000000000000000000000000000000000000001690630986c6779061024b90869086906004016104cf565b600060405180830381600087803b15801561026557600080fd5b505af1158015610279573d6000803e3d6000fd5b50505050505050565b82805461028e9061046c565b90600052602060002090601f0160209004810192826102b057600085556102f6565b82601f106102c957805160ff19168380011785556102f6565b828001600101855582156102f6579182015b828111156102f65782518255916020019190600101906102db565b50610302929150610306565b5090565b5b808211156103025760008155600101610307565b60006020828403121561032d57600080fd5b5035919050565b6000815180845260005b8181101561035a5760208185018101518683018201520161033e565b8181111561036c576000602083870101525b50601f01601f19169290920160200192915050565b6020815260006103946020830184610334565b9392505050565b634e487b7160e01b600052604160045260246000fd5b600080604083850312156103c457600080fd5b82359150602083013567ffffffffffffffff808211156103e357600080fd5b818501915085601f8301126103f757600080fd5b8135818111156104095761040961039b565b604051601f8201601f19908116603f011681019083821181831017156104315761043161039b565b8160405282815288602084870101111561044a57600080fd5b8260208601602083013760006020848301015280955050505050509250929050565b600181811c9082168061048057607f821691505b6020821081036104a057634e487b7160e01b600052602260045260246000fd5b50919050565b6000602082840312156104b857600080fd5b81516001600160a01b038116811461039457600080fd5b8281526040602082015260006104e86040830184610334565b94935050505056fea2646970667358221220a7e6973fc2379ea801fe68f2c9ad4b001af9a65d0ff0057ea7a93bf40e0500a464736f6c634300080d0033",
    "linkReferences": {}
  },
  "methodIdentifiers": {
    "setURI(uint256,string)": "862440e2",
    "uri(uint256)": "0e89341c"
  },
  "id": 54
}