{
  "_format": "hh-sol-artifact-1",
  "contractName": "Migration",
  "sourceName": "src/modules/Migration.sol",
  "abi": [
    {
      "inputs": [
        {
          "internalType": "address",
          "name": "_buyout",
          "type": "address"
        },
        {
          "internalType": "address",
          "name": "_registry",
          "type": "address"
        },
        {
          "internalType": "address",
          "name": "_supply",
          "type": "address"
        }
      ],
      "stateMutability": "nonpayable",
      "type": "constructor"
    },
    {
      "inputs": [
        {
          "internalType": "enum State",
          "name": "_required",
          "type": "uint8"
        },
        {
          "internalType": "enum State",
          "name": "_current",
          "type": "uint8"
        }
      ],
      "name": "InvalidState",
      "type": "error"
    },
    {
      "inputs": [],
      "name": "NewFractionsAlreadyMinted",
      "type": "error"
    },
    {
      "inputs": [
        {
          "internalType": "address",
          "name": "_newVault",
          "type": "address"
        }
      ],
      "name": "NewVaultAlreadyDeployed",
      "type": "error"
    },
    {
      "inputs": [],
      "name": "NoContributionToWithdraw",
      "type": "error"
    },
    {
      "inputs": [],
      "name": "NoVaultToMigrateTo",
      "type": "error"
    },
    {
      "inputs": [],
      "name": "NotProposalBuyout",
      "type": "error"
    },
    {
      "inputs": [],
      "name": "NotProposed",
      "type": "error"
    },
    {
      "inputs": [
        {
          "internalType": "address",
          "name": "_vault",
          "type": "address"
        }
      ],
      "name": "NotVault",
      "type": "error"
    },
    {
      "inputs": [],
      "name": "ProposalOver",
      "type": "error"
    },
    {
      "inputs": [],
      "name": "UnsuccessfulMigration",
      "type": "error"
    },
    {
      "anonymous": false,
      "inputs": [
        {
          "indexed": true,
          "internalType": "address",
          "name": "_oldVault",
          "type": "address"
        },
        {
          "indexed": true,
          "internalType": "address",
          "name": "_newVault",
          "type": "address"
        },
        {
          "indexed": false,
          "internalType": "uint256",
          "name": "_proposalId",
          "type": "uint256"
        },
        {
          "indexed": false,
          "internalType": "uint256",
          "name": "_amount",
          "type": "uint256"
        }
      ],
      "name": "FractionsMigrated",
      "type": "event"
    },
    {
      "anonymous": false,
      "inputs": [
        {
          "indexed": true,
          "internalType": "address",
          "name": "_oldVault",
          "type": "address"
        },
        {
          "indexed": true,
          "internalType": "address",
          "name": "_newVault",
          "type": "address"
        },
        {
          "indexed": false,
          "internalType": "uint256",
          "name": "_proposalId",
          "type": "uint256"
        },
        {
          "indexed": false,
          "internalType": "address[]",
          "name": "_modules",
          "type": "address[]"
        },
        {
          "indexed": false,
          "internalType": "address[]",
          "name": "_plugins",
          "type": "address[]"
        },
        {
          "indexed": false,
          "internalType": "bytes4[]",
          "name": "_selectors",
          "type": "bytes4[]"
        }
      ],
      "name": "VaultMigrated",
      "type": "event"
    },
    {
      "inputs": [],
      "name": "PROPOSAL_PERIOD",
      "outputs": [
        {
          "internalType": "uint256",
          "name": "",
          "type": "uint256"
        }
      ],
      "stateMutability": "view",
      "type": "function"
    },
    {
      "inputs": [
        {
          "internalType": "address",
          "name": "_vault",
          "type": "address"
        },
        {
          "internalType": "uint256",
          "name": "_proposalId",
          "type": "uint256"
        },
        {
          "internalType": "address",
          "name": "_token",
          "type": "address"
        },
        {
          "internalType": "uint256[]",
          "name": "_ids",
          "type": "uint256[]"
        },
        {
          "internalType": "uint256[]",
          "name": "_amounts",
          "type": "uint256[]"
        },
        {
          "internalType": "bytes32[]",
          "name": "_erc1155BatchTransferProof",
          "type": "bytes32[]"
        }
      ],
      "name": "batchMigrateVaultERC1155",
      "outputs": [],
      "stateMutability": "nonpayable",
      "type": "function"
    },
    {
      "inputs": [],
      "name": "buyout",
      "outputs": [
        {
          "internalType": "address payable",
          "name": "",
          "type": "address"
        }
      ],
      "stateMutability": "view",
      "type": "function"
    },
    {
      "inputs": [
        {
          "internalType": "address",
          "name": "_vault",
          "type": "address"
        },
        {
          "internalType": "uint256",
          "name": "_proposalId",
          "type": "uint256"
        }
      ],
      "name": "commit",
      "outputs": [
        {
          "internalType": "bool",
          "name": "started",
          "type": "bool"
        }
      ],
      "stateMutability": "nonpayable",
      "type": "function"
    },
    {
      "inputs": [
        {
          "internalType": "address[]",
          "name": "_modules",
          "type": "address[]"
        }
      ],
      "name": "generateMerkleTree",
      "outputs": [
        {
          "internalType": "bytes32[]",
          "name": "hashes",
          "type": "bytes32[]"
        }
      ],
      "stateMutability": "view",
      "type": "function"
    },
    {
      "inputs": [],
      "name": "getLeafNodes",
      "outputs": [
        {
          "internalType": "bytes32[]",
          "name": "nodes",
          "type": "bytes32[]"
        }
      ],
      "stateMutability": "view",
      "type": "function"
    },
    {
      "inputs": [],
      "name": "getPermissions",
      "outputs": [
        {
          "components": [
            {
              "internalType": "address",
              "name": "module",
              "type": "address"
            },
            {
              "internalType": "address",
              "name": "target",
              "type": "address"
            },
            {
              "internalType": "bytes4",
              "name": "selector",
              "type": "bytes4"
            }
          ],
          "internalType": "struct Permission[]",
          "name": "permissions",
          "type": "tuple[]"
        }
      ],
      "stateMutability": "view",
      "type": "function"
    },
    {
      "inputs": [
        {
          "internalType": "bytes32[]",
          "name": "_data",
          "type": "bytes32[]"
        },
        {
          "internalType": "uint256",
          "name": "_node",
          "type": "uint256"
        }
      ],
      "name": "getProof",
      "outputs": [
        {
          "internalType": "bytes32[]",
          "name": "",
          "type": "bytes32[]"
        }
      ],
      "stateMutability": "pure",
      "type": "function"
    },
    {
      "inputs": [
        {
          "internalType": "bytes32[]",
          "name": "_data",
          "type": "bytes32[]"
        }
      ],
      "name": "getRoot",
      "outputs": [
        {
          "internalType": "bytes32",
          "name": "",
          "type": "bytes32"
        }
      ],
      "stateMutability": "pure",
      "type": "function"
    },
    {
      "inputs": [
        {
          "internalType": "bytes32",
          "name": "_left",
          "type": "bytes32"
        },
        {
          "internalType": "bytes32",
          "name": "_right",
          "type": "bytes32"
        }
      ],
      "name": "hashLeafPairs",
      "outputs": [
        {
          "internalType": "bytes32",
          "name": "data",
          "type": "bytes32"
        }
      ],
      "stateMutability": "pure",
      "type": "function"
    },
    {
      "inputs": [
        {
          "internalType": "address",
          "name": "_vault",
          "type": "address"
        },
        {
          "internalType": "uint256",
          "name": "_proposalId",
          "type": "uint256"
        },
        {
          "internalType": "uint256",
          "name": "_amount",
          "type": "uint256"
        }
      ],
      "name": "join",
      "outputs": [],
      "stateMutability": "payable",
      "type": "function"
    },
    {
      "inputs": [
        {
          "internalType": "address",
          "name": "_vault",
          "type": "address"
        },
        {
          "internalType": "uint256",
          "name": "_proposalId",
          "type": "uint256"
        }
      ],
      "name": "leave",
      "outputs": [],
      "stateMutability": "nonpayable",
      "type": "function"
    },
    {
      "inputs": [
        {
          "internalType": "uint256",
          "name": "x",
          "type": "uint256"
        }
      ],
      "name": "log2ceil_naive",
      "outputs": [
        {
          "internalType": "uint256",
          "name": "ceil",
          "type": "uint256"
        }
      ],
      "stateMutability": "pure",
      "type": "function"
    },
    {
      "inputs": [
        {
          "internalType": "address",
          "name": "_vault",
          "type": "address"
        },
        {
          "internalType": "uint256",
          "name": "_proposalId",
          "type": "uint256"
        }
      ],
      "name": "migrateFractions",
      "outputs": [],
      "stateMutability": "nonpayable",
      "type": "function"
    },
    {
      "inputs": [
        {
          "internalType": "address",
          "name": "_vault",
          "type": "address"
        },
        {
          "internalType": "uint256",
          "name": "_proposalId",
          "type": "uint256"
        },
        {
          "internalType": "address",
          "name": "_token",
          "type": "address"
        },
        {
          "internalType": "uint256",
          "name": "_id",
          "type": "uint256"
        },
        {
          "internalType": "uint256",
          "name": "_amount",
          "type": "uint256"
        },
        {
          "internalType": "bytes32[]",
          "name": "_erc1155TransferProof",
          "type": "bytes32[]"
        }
      ],
      "name": "migrateVaultERC1155",
      "outputs": [],
      "stateMutability": "nonpayable",
      "type": "function"
    },
    {
      "inputs": [
        {
          "internalType": "address",
          "name": "_vault",
          "type": "address"
        },
        {
          "internalType": "uint256",
          "name": "_proposalId",
          "type": "uint256"
        },
        {
          "internalType": "address",
          "name": "_token",
          "type": "address"
        },
        {
          "internalType": "uint256",
          "name": "_amount",
          "type": "uint256"
        },
        {
          "internalType": "bytes32[]",
          "name": "_erc20TransferProof",
          "type": "bytes32[]"
        }
      ],
      "name": "migrateVaultERC20",
      "outputs": [],
      "stateMutability": "nonpayable",
      "type": "function"
    },
    {
      "inputs": [
        {
          "internalType": "address",
          "name": "_vault",
          "type": "address"
        },
        {
          "internalType": "uint256",
          "name": "_proposalId",
          "type": "uint256"
        },
        {
          "internalType": "address",
          "name": "_token",
          "type": "address"
        },
        {
          "internalType": "uint256",
          "name": "_tokenId",
          "type": "uint256"
        },
        {
          "internalType": "bytes32[]",
          "name": "_erc721TransferProof",
          "type": "bytes32[]"
        }
      ],
      "name": "migrateVaultERC721",
      "outputs": [],
      "stateMutability": "nonpayable",
      "type": "function"
    },
    {
      "inputs": [
        {
          "internalType": "address",
          "name": "",
          "type": "address"
        },
        {
          "internalType": "uint256",
          "name": "",
          "type": "uint256"
        }
      ],
      "name": "migrationInfo",
      "outputs": [
        {
          "internalType": "uint256",
          "name": "startTime",
          "type": "uint256"
        },
        {
          "internalType": "uint256",
          "name": "targetPrice",
          "type": "uint256"
        },
        {
          "internalType": "uint256",
          "name": "totalEth",
          "type": "uint256"
        },
        {
          "internalType": "uint256",
          "name": "totalFractions",
          "type": "uint256"
        },
        {
          "internalType": "address",
          "name": "newVault",
          "type": "address"
        },
        {
          "internalType": "bool",
          "name": "isCommited",
          "type": "bool"
        },
        {
          "internalType": "uint256",
          "name": "oldFractionSupply",
          "type": "uint256"
        },
        {
          "internalType": "uint256",
          "name": "newFractionSupply",
          "type": "uint256"
        },
        {
          "internalType": "bool",
          "name": "fractionsMigrated",
          "type": "bool"
        }
      ],
      "stateMutability": "view",
      "type": "function"
    },
    {
      "inputs": [
        {
          "internalType": "bytes[]",
          "name": "_data",
          "type": "bytes[]"
        }
      ],
      "name": "multicall",
      "outputs": [
        {
          "internalType": "bytes[]",
          "name": "results",
          "type": "bytes[]"
        }
      ],
      "stateMutability": "nonpayable",
      "type": "function"
    },
    {
      "inputs": [],
      "name": "nextId",
      "outputs": [
        {
          "internalType": "uint256",
          "name": "",
          "type": "uint256"
        }
      ],
      "stateMutability": "view",
      "type": "function"
    },
    {
      "inputs": [
        {
          "internalType": "address",
          "name": "",
          "type": "address"
        },
        {
          "internalType": "address",
          "name": "",
          "type": "address"
        },
        {
          "internalType": "uint256[]",
          "name": "",
          "type": "uint256[]"
        },
        {
          "internalType": "uint256[]",
          "name": "",
          "type": "uint256[]"
        },
        {
          "internalType": "bytes",
          "name": "",
          "type": "bytes"
        }
      ],
      "name": "onERC1155BatchReceived",
      "outputs": [
        {
          "internalType": "bytes4",
          "name": "",
          "type": "bytes4"
        }
      ],
      "stateMutability": "nonpayable",
      "type": "function"
    },
    {
      "inputs": [
        {
          "internalType": "address",
          "name": "",
          "type": "address"
        },
        {
          "internalType": "address",
          "name": "",
          "type": "address"
        },
        {
          "internalType": "uint256",
          "name": "",
          "type": "uint256"
        },
        {
          "internalType": "uint256",
          "name": "",
          "type": "uint256"
        },
        {
          "internalType": "bytes",
          "name": "",
          "type": "bytes"
        }
      ],
      "name": "onERC1155Received",
      "outputs": [
        {
          "internalType": "bytes4",
          "name": "",
          "type": "bytes4"
        }
      ],
      "stateMutability": "nonpayable",
      "type": "function"
    },
    {
      "inputs": [
        {
          "internalType": "address",
          "name": "",
          "type": "address"
        },
        {
          "internalType": "address",
          "name": "",
          "type": "address"
        },
        {
          "internalType": "uint256",
          "name": "",
          "type": "uint256"
        },
        {
          "internalType": "bytes",
          "name": "",
          "type": "bytes"
        }
      ],
      "name": "onERC721Received",
      "outputs": [
        {
          "internalType": "bytes4",
          "name": "",
          "type": "bytes4"
        }
      ],
      "stateMutability": "nonpayable",
      "type": "function"
    },
    {
      "inputs": [
        {
          "internalType": "address",
          "name": "_vault",
          "type": "address"
        },
        {
          "internalType": "address[]",
          "name": "_modules",
          "type": "address[]"
        },
        {
          "internalType": "address[]",
          "name": "_plugins",
          "type": "address[]"
        },
        {
          "internalType": "bytes4[]",
          "name": "_selectors",
          "type": "bytes4[]"
        },
        {
          "internalType": "uint256",
          "name": "_newFractionSupply",
          "type": "uint256"
        },
        {
          "internalType": "uint256",
          "name": "_targetPrice",
          "type": "uint256"
        }
      ],
      "name": "propose",
      "outputs": [],
      "stateMutability": "nonpayable",
      "type": "function"
    },
    {
      "inputs": [],
      "name": "registry",
      "outputs": [
        {
          "internalType": "address",
          "name": "",
          "type": "address"
        }
      ],
      "stateMutability": "view",
      "type": "function"
    },
    {
      "inputs": [
        {
          "internalType": "address",
          "name": "_vault",
          "type": "address"
        },
        {
          "internalType": "uint256",
          "name": "_proposalId",
          "type": "uint256"
        },
        {
          "internalType": "bytes32[]",
          "name": "_mintProof",
          "type": "bytes32[]"
        }
      ],
      "name": "settleFractions",
      "outputs": [],
      "stateMutability": "nonpayable",
      "type": "function"
    },
    {
      "inputs": [
        {
          "internalType": "address",
          "name": "_vault",
          "type": "address"
        },
        {
          "internalType": "uint256",
          "name": "_proposalId",
          "type": "uint256"
        }
      ],
      "name": "settleVault",
      "outputs": [],
      "stateMutability": "nonpayable",
      "type": "function"
    },
    {
      "inputs": [],
      "name": "supply",
      "outputs": [
        {
          "internalType": "address",
          "name": "",
          "type": "address"
        }
      ],
      "stateMutability": "view",
      "type": "function"
    },
    {
      "inputs": [
        {
          "internalType": "bytes32",
          "name": "_root",
          "type": "bytes32"
        },
        {
          "internalType": "bytes32[]",
          "name": "_proof",
          "type": "bytes32[]"
        },
        {
          "internalType": "bytes32",
          "name": "_valueToProve",
          "type": "bytes32"
        }
      ],
      "name": "verifyProof",
      "outputs": [
        {
          "internalType": "bool",
          "name": "",
          "type": "bool"
        }
      ],
      "stateMutability": "pure",
      "type": "function"
    },
    {
      "inputs": [
        {
          "internalType": "address",
          "name": "_vault",
          "type": "address"
        },
        {
          "internalType": "uint256",
          "name": "_proposalId",
          "type": "uint256"
        }
      ],
      "name": "withdrawContribution",
      "outputs": [],
      "stateMutability": "nonpayable",
      "type": "function"
    },
    {
      "stateMutability": "payable",
      "type": "receive"
    }
  ],
  "bytecode": "0x6080604052600180553480156200001557600080fd5b506040516200487438038062004874833981016040819052620000389162000096565b600080546001600160a01b03199081166001600160a01b039384161790915560028054821694831694909417909355600380549093169116179055620000e0565b80516001600160a01b03811681146200009157600080fd5b919050565b600080600060608486031215620000ac57600080fd5b620000b78462000079565b9250620000c76020850162000079565b9150620000d76040850162000079565b90509250925092565b61478480620000f06000396000f3fe6080604052600436106101d15760003560e01c806384bf1535116100f7578063bc197c8111610095578063d87ed5e011610064578063d87ed5e0146106a0578063dd1d2599146106b7578063ea36380a146106d7578063f23a6e61146106ea57600080fd5b8063bc197c8114610601578063c3a07df614610649578063c5d15ebd1461066b578063cbbb4ac51461068b57600080fd5b80639818ca59116100d15780639818ca5914610574578063ac9650d814610594578063b35db911146105c1578063b8616195146105e157600080fd5b806384bf153514610507578063884c05fb146105275780638c31f8e01461055457600080fd5b8063496a563d1161016f57806361b8ce8c1161013e57806361b8ce8c146104915780636cb58c93146104a75780637b103999146104c75780638406a2f9146104e757600080fd5b8063496a563d1461040157806358161a42146104215780635c4bfa10146104515780635d58066f1461047157600080fd5b8063150b7a02116101ab578063150b7a0214610329578063295e6b7f1461039f5780632e08d602146103c157806331829390146103e157600080fd5b8063047fc9aa146101dd57806308d7090a1461021a5780630ef948531461024857600080fd5b366101d857005b600080fd5b3480156101e957600080fd5b506000546101fd906001600160a01b031681565b6040516001600160a01b0390911681526020015b60405180910390f35b34801561022657600080fd5b5061023a6102353660046132c7565b610730565b604051908152602001610211565b34801561025457600080fd5b506102d96102633660046132f8565b600560209081526000928352604080842090915290825290208054600182015460028301546003840154600785015460088601546009870154600a9097015495969495939492936001600160a01b0383169360ff7401000000000000000000000000000000000000000090940484169390911689565b60408051998a5260208a01989098529688019590955260608701939093526001600160a01b039091166080860152151560a085015260c084015260e0830152151561010082015261012001610211565b34801561033557600080fd5b5061036e61034436600461336d565b7f150b7a020000000000000000000000000000000000000000000000000000000095945050505050565b6040517fffffffff000000000000000000000000000000000000000000000000000000009091168152602001610211565b3480156103ab57600080fd5b506103bf6103ba3660046132f8565b610759565b005b3480156103cd57600080fd5b5061023a6103dc3660046134ed565b610ab0565b3480156103ed57600080fd5b506103bf6103fc36600461356f565b610b7f565b34801561040d57600080fd5b506103bf61041c36600461362e565b610e56565b34801561042d57600080fd5b5061044161043c3660046136b4565b610f0d565b6040519015158152602001610211565b34801561045d57600080fd5b506002546101fd906001600160a01b031681565b34801561047d57600080fd5b506103bf61048c366004613704565b610f55565b34801561049d57600080fd5b5061023a60045481565b3480156104b357600080fd5b506103bf6104c23660046132f8565b611194565b3480156104d357600080fd5b506003546101fd906001600160a01b031681565b3480156104f357600080fd5b506103bf610502366004613760565b6114dd565b34801561051357600080fd5b506104416105223660046132f8565b611591565b34801561053357600080fd5b506105476105423660046137dc565b6119c7565b6040516102119190613876565b34801561056057600080fd5b506103bf61056f366004613760565b611be2565b34801561058057600080fd5b506103bf61058f3660046132f8565b611c5b565b3480156105a057600080fd5b506105b46105af3660046138ba565b6121ad565b6040516102119190613976565b3480156105cd57600080fd5b506103bf6105dc3660046132f8565b6122d2565b3480156105ed57600080fd5b506105476105fc3660046139f6565b6125c7565b34801561060d57600080fd5b5061036e61061c366004613a3b565b7fbc197c810000000000000000000000000000000000000000000000000000000098975050505050505050565b34801561065557600080fd5b5061065e612872565b6040516102119190613afa565b34801561067757600080fd5b506103bf610686366004613b82565b61293d565b34801561069757600080fd5b506105476129fa565b3480156106ac57600080fd5b5061023a62093a8081565b3480156106c357600080fd5b5061023a6106d2366004613c4d565b612a86565b6103bf6106e5366004613c6f565b612ad2565b3480156106f657600080fd5b5061036e610705366004613ca4565b7ff23a6e61000000000000000000000000000000000000000000000000000000009695505050505050565b60008119600101821682145b821561075257600192831c92919091019061073c565b9003919050565b6001600160a01b03821660009081526005602090815260408083208484529091529020600781015474010000000000000000000000000000000000000000900460ff166107d2576040517ff2a87d5e00000000000000000000000000000000000000000000000000000000815260040160405180910390fd5b6002546040517fb5bb74a70000000000000000000000000000000000000000000000000000000081526001600160a01b038581166004830152600092169063b5bb74a79060240160c060405180830381865afa158015610836573d6000803e3d6000fd5b505050506040513d601f19601f8201168201806040525081019061085a9190613d0e565b509194506002935061086b92505050565b81600281111561087d5761087d613d71565b146108b4576040517fad9a2c2900000000000000000000000000000000000000000000000000000000815260040160405180910390fd5b60078201546001600160a01b03161561090f5760078201546040517fc874ad090000000000000000000000000000000000000000000000000000000081526001600160a01b0390911660048201526024015b60405180910390fd5b60006109768360040180548060200260200160405190810160405280929190818152602001828054801561096c57602002820191906000526020600020905b81546001600160a01b0316815260019091019060200180831161094e575b50505050506119c7565b9050600061098382610ab0565b6003546040517f671646650000000000000000000000000000000000000000000000000000000081529192506000916001600160a01b03909116906367164665906109dc90859060058a019060068b0190600401614144565b6020604051808303816000875af11580156109fb573d6000803e3d6000fd5b505050506040513d601f19601f82011682018060405250810190610a1f9190614179565b6007860180547fffffffffffffffffffffffff0000000000000000000000000000000000000000166001600160a01b0383811691821790925560405192935091908916907f44ae6793331f08862d79148df98d03f866ac16d2fdb78b7ff1a2ee247c4ff8dc90610a9f908a9060048b019060058c019060068d0190614196565b60405180910390a350505050505050565b60006001825111610b43576040517f08c379a000000000000000000000000000000000000000000000000000000000815260206004820152602260248201527f776f6e742067656e657261746520726f6f7420666f722073696e676c65206c6560448201527f61660000000000000000000000000000000000000000000000000000000000006064820152608401610906565b600182511115610b5d57610b5682612e5a565b9150610b43565b81600081518110610b7057610b706141d5565b60200260200101519050919050565b6003546040517f42d19ef40000000000000000000000000000000000000000000000000000000081526001600160a01b038b8116600483015260009216906342d19ef4906024016040805180830381865afa158015610be2573d6000803e3d6000fd5b505050506040513d601f19601f82011682018060405250810190610c069190614204565b91505080600003610c4e576040517fe9d601610000000000000000000000000000000000000000000000000000000081526001600160a01b038b166004820152602401610906565b6002546040517fb5bb74a70000000000000000000000000000000000000000000000000000000081526001600160a01b038c81166004830152600092169063b5bb74a79060240160c060405180830381865afa158015610cb2573d6000803e3d6000fd5b505050506040513d601f19601f82011682018060405250810190610cd69190613d0e565b505050925050506000806002811115610cf157610cf1613d71565b826002811115610d0357610d03613d71565b14610d3e5780826040517f77e5c5f200000000000000000000000000000000000000000000000000000000815260040161090692919061426d565b6001600160a01b038c166000908152600560205260408120600480548391908290610d68906142b7565b918290555081526020810191909152604001600020428155600181018690559050610d97600482018d8d613175565b50610da6600582018b8b613175565b50610db56006820189896131f0565b506003546040517fe4dc2aa40000000000000000000000000000000000000000000000000000000081526001600160a01b038f811660048301529091169063e4dc2aa490602401602060405180830381865afa158015610e19573d6000803e3d6000fd5b505050506040513d601f19601f82011682018060405250810190610e3d91906142ef565b6008820155600901949094555050505050505050505050565b6001600160a01b0380881660009081526005602090815260408083208a8452909152908190206007015460025491517fc42a581700000000000000000000000000000000000000000000000000000000815290831692919091169063c42a581790610ed1908b908a9086908b908b908b908b90600401614357565b600060405180830381600087803b158015610eeb57600080fd5b505af1158015610eff573d6000803e3d6000fd5b505050505050505050505050565b600081815b8451811015610f4857610f3e82868381518110610f3157610f316141d5565b6020026020010151612a86565b9150600101610f12565b50841490505b9392505050565b6002546040517fb5bb74a70000000000000000000000000000000000000000000000000000000081526001600160a01b038681166004830152600092169063b5bb74a79060240160c060405180830381865afa158015610fb9573d6000803e3d6000fd5b505050506040513d601f19601f82011682018060405250810190610fdd9190613d0e565b5091945060029350610fee92505050565b81600281111561100057611000613d71565b14611037576040517fad9a2c2900000000000000000000000000000000000000000000000000000000815260040160405180910390fd5b6001600160a01b03808616600090815260056020908152604080832088845290915290206007810154909116611099576040517fd8bb65f800000000000000000000000000000000000000000000000000000000815260040160405180910390fd5b600a81015460ff16156110d8576040517f0757652700000000000000000000000000000000000000000000000000000000815260040160405180910390fd5b600781015460098201546110f9916001600160a01b03169030908787612fc2565b6001600160a01b0386811660008181526005602090815260408083208a8452825291829020600a0180547fffffffffffffffffffffffffffffffffffffffffffffffffffffffffffffff001660011790556007850154600986015483518b815292830152909316927f3e65ef540d2fe72c06d2d3d8243d3623dd6bfb876808bba68aaf3d3f925c3d6a910160405180910390a3505050505050565b6003546040517f42d19ef40000000000000000000000000000000000000000000000000000000081526001600160a01b03848116600483015260009283929116906342d19ef4906024016040805180830381865afa1580156111fa573d6000803e3d6000fd5b505050506040513d601f19601f8201168201806040525081019061121e9190614204565b9150915080600003611267576040517fe9d601610000000000000000000000000000000000000000000000000000000081526001600160a01b0385166004820152602401610906565b6002546040517fb5bb74a70000000000000000000000000000000000000000000000000000000081526001600160a01b038681166004830152600092169063b5bb74a79060240160c060405180830381865afa1580156112cb573d6000803e3d6000fd5b505050506040513d601f19601f820116820180604052508101906112ef9190613d0e565b50505092505050600080600281111561130a5761130a613d71565b82600281111561131c5761131c613d71565b146113575780826040517f77e5c5f200000000000000000000000000000000000000000000000000000000815260040161090692919061426d565b6001600160a01b0386166000908152600560209081526040808320888452825280832060078352818420338552909252822054600382018054929391928392906113a29084906143a5565b90915550506000878152600760209081526040808320338085529083528184208490558a845260068352818420908452909152812054600284018054919283926113ed9084906143a5565b90915550506000888152600660209081526040808320338085529252808320839055517ff242432a0000000000000000000000000000000000000000000000000000000081523060048201526024810191909152604481018890526064810184905260a0608482015260a48101919091526001600160a01b0388169063f242432a9060c401600060405180830381600087803b15801561148c57600080fd5b505af11580156114a0573d6000803e3d6000fd5b505060405133925083156108fc02915083906000818181858888f193505050501580156114d1573d6000803e3d6000fd5b50505050505050505050565b6001600160a01b038087166000908152600560209081526040808320898452909152908190206007015460025491517fb43adf1100000000000000000000000000000000000000000000000000000000815290831692919091169063b43adf1190611556908a90899086908a908a908a906004016143bc565b600060405180830381600087803b15801561157057600080fd5b505af1158015611584573d6000803e3d6000fd5b5050505050505050505050565b6003546040517f42d19ef40000000000000000000000000000000000000000000000000000000081526001600160a01b03848116600483015260009283928392909116906342d19ef4906024016040805180830381865afa1580156115fa573d6000803e3d6000fd5b505050506040513d601f19601f8201168201806040525081019061161e9190614204565b9150915080600003611667576040517fe9d601610000000000000000000000000000000000000000000000000000000081526001600160a01b0386166004820152602401610906565b6002546040517fb5bb74a70000000000000000000000000000000000000000000000000000000081526001600160a01b038781166004830152600092169063b5bb74a79060240160c060405180830381865afa1580156116cb573d6000803e3d6000fd5b505050506040513d601f19601f820116820180604052508101906116ef9190613d0e565b50505092505050600080600281111561170a5761170a613d71565b82600281111561171c5761171c613d71565b146117575780826040517f77e5c5f200000000000000000000000000000000000000000000000000000000815260040161090692919061426d565b6001600160a01b03871660009081526005602090815260408083208984529091529020805461178a9062093a8090614403565b4211156117c3576040517fed8c0ba900000000000000000000000000000000000000000000000000000000815260040160405180910390fd5b6003546040517fe4dc2aa40000000000000000000000000000000000000000000000000000000081526001600160a01b038a81166004830152600092611863926064929091169063e4dc2aa490602401602060405180830381865afa158015611830573d6000803e3d6000fd5b505050506040513d601f19601f8201168201806040525081019061185491906142ef565b8460020154856003015461310d565b905081600101548111156119bb576002546040517ff72c86890000000000000000000000000000000000000000000000000000000081526001600160a01b03918216600482015260248101879052600160448201529087169063f72c868990606401600060405180830381600087803b1580156118df57600080fd5b505af11580156118f3573d6000803e3d6000fd5b505060028054908501546040517fdd0b281e0000000000000000000000000000000000000000000000000000000081526001600160a01b038e81166004830152909216935063dd0b281e9250906024016000604051808303818588803b15801561195c57600080fd5b505af1158015611970573d6000803e3d6000fd5b5050506007840180547fffffffffffffffffffffff00ffffffffffffffffffffffffffffffffffffffff16740100000000000000000000000000000000000000001790555060019750505b50505050505092915050565b8051606090600090815b81811015611a84578481815181106119eb576119eb6141d5565b60200260200101516001600160a01b031663cbbb4ac56040518163ffffffff1660e01b8152600401600060405180830381865afa158015611a30573d6000803e3d6000fd5b505050506040513d6000823e601f3d9081017fffffffffffffffffffffffffffffffffffffffffffffffffffffffffffffffe0168201604052611a76919081019061441b565b5192909201916001016119d1565b5060008267ffffffffffffffff811115611aa057611aa06133e0565b604051908082528060200260200182016040528015611ac9578160200160208202803683370190505b50935060005b82811015611bd9576000868281518110611aeb57611aeb6141d5565b60200260200101516001600160a01b031663cbbb4ac56040518163ffffffff1660e01b8152600401600060405180830381865afa158015611b30573d6000803e3d6000fd5b505050506040513d6000823e601f3d9081017fffffffffffffffffffffffffffffffffffffffffffffffffffffffffffffffe0168201604052611b76919081019061441b565b805190915060005b81811015611bcb57828181518110611b9857611b986141d5565b6020026020010151888680600101975081518110611bb857611bb86141d5565b6020908102919091010152600101611b7e565b505050806001019050611acf565b50505050919050565b6001600160a01b038087166000908152600560209081526040808320898452909152908190206007015460025491517fa0e0562600000000000000000000000000000000000000000000000000000000815290831692919091169063a0e0562690611556908a90899086908a908a908a906004016143bc565b6003546040517f42d19ef40000000000000000000000000000000000000000000000000000000081526001600160a01b03848116600483015260009216906342d19ef4906024016040805180830381865afa158015611cbe573d6000803e3d6000fd5b505050506040513d601f19601f82011682018060405250810190611ce29190614204565b91505080600003611d2a576040517fe9d601610000000000000000000000000000000000000000000000000000000081526001600160a01b0384166004820152602401610906565b6002546040517fb5bb74a70000000000000000000000000000000000000000000000000000000081526001600160a01b038581166004830152600092839291169063b5bb74a79060240160c060405180830381865afa158015611d91573d6000803e3d6000fd5b505050506040513d601f19601f82011682018060405250810190611db59190613d0e565b5092955090935060029250829150611dca9050565b826002811115611ddc57611ddc613d71565b14611e175780826040517f77e5c5f200000000000000000000000000000000000000000000000000000000815260040161090692919061426d565b6001600160a01b0383163014611e59576040517f9eba390100000000000000000000000000000000000000000000000000000000815260040160405180910390fd5b6002546040517fb5bb74a70000000000000000000000000000000000000000000000000000000081526001600160a01b038881166004830152600092169063b5bb74a79060240160c060405180830381865afa158015611ebd573d6000803e3d6000fd5b505050506040513d601f19601f82011682018060405250810190611ee19190613d0e565b955050505050506000611f70670de0b6b3a764000083600560008c6001600160a01b03166001600160a01b0316815260200190815260200160002060008b815260200190815260200160002060020154600560008d6001600160a01b03166001600160a01b0316815260200190815260200160002060008c81526020019081526020016000206003015461310d565b600088815260066020908152604080832033808552908352818420548c85526007845282852091855292528220549293509091611fb191849186919061314b565b6001600160a01b038a811660009081526005602090815260408083208d84529091528082206007015460035491517f42d19ef400000000000000000000000000000000000000000000000000000000815290841660048201819052949550919283929116906342d19ef4906024016040805180830381865afa15801561203b573d6000803e3d6000fd5b505050506040513d601f19601f8201168201806040525081019061205f9190614204565b6003546040517fe4dc2aa40000000000000000000000000000000000000000000000000000000081526001600160a01b038781166004830152939550919350600092169063e4dc2aa490602401602060405180830381865afa1580156120c9573d6000803e3d6000fd5b505050506040513d601f19601f820116820180604052508101906120ed91906142ef565b90506000866120fc83886144a1565b61210691906144de565b6040517ff242432a000000000000000000000000000000000000000000000000000000008152306004820152336024820152604481018590526064810182905260a06084820152600060a48201529091506001600160a01b0385169063f242432a9060c401600060405180830381600087803b15801561218557600080fd5b505af1158015612199573d6000803e3d6000fd5b505050505050505050505050505050505050565b6060818067ffffffffffffffff8111156121c9576121c96133e0565b6040519080825280602002602001820160405280156121fc57816020015b60608152602001906001900390816121e75790505b5091506000805b828110156122c957606030878784818110612220576122206141d5565b90506020028101906122329190614519565b60405161224092919061457e565b600060405180830381855af49150503d806000811461227b576040519150601f19603f3d011682016040523d82523d6000602084013e612280565b606091505b509093509050826122a257805160000361229957600080fd5b6122a28161316c565b808583815181106122b5576122b56141d5565b602090810291909101015250600101612203565b50505092915050565b6003546040517f42d19ef40000000000000000000000000000000000000000000000000000000081526001600160a01b03848116600483015260009283929116906342d19ef4906024016040805180830381865afa158015612338573d6000803e3d6000fd5b505050506040513d601f19601f8201168201806040525081019061235c9190614204565b91509150806000036123a5576040517fe9d601610000000000000000000000000000000000000000000000000000000081526001600160a01b0385166004820152602401610906565b6002546040517fb5bb74a70000000000000000000000000000000000000000000000000000000081526001600160a01b038681166004830152600092169063b5bb74a79060240160c060405180830381865afa158015612409573d6000803e3d6000fd5b505050506040513d601f19601f8201168201806040525081019061242d9190613d0e565b509194506000935061243e92505050565b81600281111561245057612450613d71565b14158061248457506001600160a01b0385811660009081526005602090815260408083208884529091529020600701541615155b156124bb576040517f08cf273700000000000000000000000000000000000000000000000000000000815260040160405180910390fd5b600084815260076020908152604080832033808552925280832080549084905590517ff242432a0000000000000000000000000000000000000000000000000000000081523060048201526024810192909252604482018590526064820181905260a0608483015260a48201929092526001600160a01b0385169063f242432a9060c401600060405180830381600087803b15801561255957600080fd5b505af115801561256d573d6000803e3d6000fd5b5050506000868152600660209081526040808320338085529252808320805490849055905190935090916108fc841502918491818181858888f193505050501580156125bd573d6000803e3d6000fd5b5050505050505050565b6060600183511161265a576040517f08c379a000000000000000000000000000000000000000000000000000000000815260206004820152602360248201527f776f6e742067656e65726174652070726f6f6620666f722073696e676c65206c60448201527f65616600000000000000000000000000000000000000000000000000000000006064820152608401610906565b60006126668451610730565b905060008167ffffffffffffffff811115612683576126836133e0565b6040519080825280602002602001820160405280156126ac578160200160208202803683370190505b5090506000805b6001875111156127945760028606600103612708578660018703815181106126dd576126dd6141d5565b60200260200101518383815181106126f7576126f76141d5565b602002602001018181525050612778565b8651866001010361273c576000801b838381518110612729576127296141d5565b6020908102919091010152600101612778565b868660010181518110612751576127516141d5565b602002602001015183838151811061276b5761276b6141d5565b6020026020010181815250505b60019091019060028604955061278d87612e5a565b96506126b3565b60006127a082866143a5565b67ffffffffffffffff8111156127b8576127b86133e0565b6040519080825280602002602001820160405280156127e1578160200160208202803683370190505b5090506000805b8551811015612862576000801b868281518110612807576128076141d5565b60200260200101511461285357858181518110612826576128266141d5565b60200260200101518383830381518110612842576128426141d5565b60200260200101818152505061285a565b8160010191505b6001016127e8565b5090955050505050505b92915050565b604080516001808252818301909252606091816020015b60408051606081018252600080825260208083018290529282015282527fffffffffffffffffffffffffffffffffffffffffffffffffffffffffffffffff90920191018161288957505060408051606081018252308152600080546001600160a01b031660208301527f40c10f19000000000000000000000000000000000000000000000000000000009282019290925282519293509183919061292f5761292f6141d5565b602002602001018190525090565b6001600160a01b03808a1660009081526005602090815260408083208c8452909152908190206007015460025491517f7d0c4eae000000000000000000000000000000000000000000000000000000008152908316929190911690637d0c4eae906129bc908d908c9086908d908d908d908d908d908d9060040161458e565b600060405180830381600087803b1580156129d657600080fd5b505af11580156129ea573d6000803e3d6000fd5b5050505050505050505050505050565b60408051600180825281830190925260609160208083019080368337019050509050612a24612872565b600081518110612a3657612a366141d5565b6020026020010151604051602001612a4e91906145fb565b6040516020818303038152906040528051906020012081600081518110612a7757612a776141d5565b60200260200101818152505090565b600082612a9457508061286c565b81612aa057508161286c565b8183148284101715612ab55782600052816020525b81831115612ac65781600052826020525b50604060002092915050565b600154600114612b3e576040517f08c379a000000000000000000000000000000000000000000000000000000000815260206004820152600a60248201527f5245454e5452414e4359000000000000000000000000000000000000000000006044820152606401610906565b60026001556003546040517f42d19ef40000000000000000000000000000000000000000000000000000000081526001600160a01b03858116600483015260009283929116906342d19ef4906024016040805180830381865afa158015612ba9573d6000803e3d6000fd5b505050506040513d601f19601f82011682018060405250810190612bcd9190614204565b9150915080600003612c16576040517fe9d601610000000000000000000000000000000000000000000000000000000081526001600160a01b0386166004820152602401610906565b6002546040517fb5bb74a70000000000000000000000000000000000000000000000000000000081526001600160a01b038781166004830152600092169063b5bb74a79060240160c060405180830381865afa158015612c7a573d6000803e3d6000fd5b505050506040513d601f19601f82011682018060405250810190612c9e9190613d0e565b505050925050506000806002811115612cb957612cb9613d71565b826002811115612ccb57612ccb613d71565b14612d065780826040517f77e5c5f200000000000000000000000000000000000000000000000000000000815260040161090692919061426d565b6001600160a01b0387166000908152600560209081526040808320898452909152812060028101805491923492612d3e908490614403565b9091555050600087815260066020908152604080832033845290915281208054349290612d6c908490614403565b90915550506040517ff242432a000000000000000000000000000000000000000000000000000000008152336004820152306024820152604481018590526064810187905260a06084820152600060a48201526001600160a01b0386169063f242432a9060c401600060405180830381600087803b158015612ded57600080fd5b505af1158015612e01573d6000803e3d6000fd5b5050505085816003016000828254612e199190614403565b9091555050600087815260076020908152604080832033845290915281208054889290612e47908490614403565b9091555050600180555050505050505050565b805160609060018082169003612f05576002810460010167ffffffffffffffff811115612e8957612e896133e0565b604051908082528060200260200182016040528015612eb2578160200160208202803683370190505b509150612ede836001830381518110612ecd57612ecd6141d5565b60200260200101516000801b612a86565b82600184510381518110612ef457612ef46141d5565b602002602001018181525050612f4e565b6002810467ffffffffffffffff811115612f2157612f216133e0565b604051908082528060200260200182016040528015612f4a578160200160208202803683370190505b5091505b6000805b60018303811015612fba57612f8f858281518110612f7257612f726141d5565b6020026020010151868360010181518110610f3157610f316141d5565b848381518110612fa157612fa16141d5565b6020908102919091010152600190910190600201612f52565b505050919050565b6040516001600160a01b038516602482015260448101849052600090606401604080517fffffffffffffffffffffffffffffffffffffffffffffffffffffffffffffffe08184030181529181526020820180517bffffffffffffffffffffffffffffffffffffffffffffffffffffffff167f40c10f190000000000000000000000000000000000000000000000000000000017905260005490517f601b8af30000000000000000000000000000000000000000000000000000000081529192506001600160a01b038089169263601b8af3926130a892169085908890889060040161464c565b6000604051808303816000875af11580156130c7573d6000803e3d6000fd5b505050506040513d6000823e601f3d9081017fffffffffffffffffffffffffffffffffffffffffffffffffffffffffffffffe01682016040526125bd9190810190614681565b60008361311a86846144a1565b61312491906144de565b61312e90866143a5565b61313886856144a1565b61314291906144de565b95945050505050565b60008361315886846144a1565b61316291906144de565b6131429084614403565b80518082602001fd5b8280548282559060005260206000209081019282156131e0579160200282015b828111156131e05781547fffffffffffffffffffffffff0000000000000000000000000000000000000000166001600160a01b03843516178255602090920191600190910190613195565b506131ec9291506132b2565b5090565b828054828255906000526020600020906007016008900481019282156131e05791602002820160005b838211156132795783357bffffffffffffffffffffffffffffffffffffffffffffffffffffffff191683826101000a81548163ffffffff021916908360e01c02179055509260200192600401602081600301049283019260010302613219565b80156132a95782816101000a81549063ffffffff0219169055600401602081600301049283019260010302613279565b50506131ec9291505b5b808211156131ec57600081556001016132b3565b6000602082840312156132d957600080fd5b5035919050565b6001600160a01b03811681146132f557600080fd5b50565b6000806040838503121561330b57600080fd5b8235613316816132e0565b946020939093013593505050565b60008083601f84011261333657600080fd5b50813567ffffffffffffffff81111561334e57600080fd5b60208301915083602082850101111561336657600080fd5b9250929050565b60008060008060006080868803121561338557600080fd5b8535613390816132e0565b945060208601356133a0816132e0565b935060408601359250606086013567ffffffffffffffff8111156133c357600080fd5b6133cf88828901613324565b969995985093965092949392505050565b7f4e487b7100000000000000000000000000000000000000000000000000000000600052604160045260246000fd5b604051601f82017fffffffffffffffffffffffffffffffffffffffffffffffffffffffffffffffe016810167ffffffffffffffff81118282101715613456576134566133e0565b604052919050565b600067ffffffffffffffff821115613478576134786133e0565b5060051b60200190565b600082601f83011261349357600080fd5b813560206134a86134a38361345e565b61340f565b82815260059290921b840181019181810190868411156134c757600080fd5b8286015b848110156134e257803583529183019183016134cb565b509695505050505050565b6000602082840312156134ff57600080fd5b813567ffffffffffffffff81111561351657600080fd5b61352284828501613482565b949350505050565b60008083601f84011261353c57600080fd5b50813567ffffffffffffffff81111561355457600080fd5b6020830191508360208260051b850101111561336657600080fd5b600080600080600080600080600060c08a8c03121561358d57600080fd5b8935613598816132e0565b985060208a013567ffffffffffffffff808211156135b557600080fd5b6135c18d838e0161352a565b909a50985060408c01359150808211156135da57600080fd5b6135e68d838e0161352a565b909850965060608c01359150808211156135ff57600080fd5b5061360c8c828d0161352a565b9a9d999c50979a96999598959660808101359660a09091013595509350505050565b600080600080600080600060c0888a03121561364957600080fd5b8735613654816132e0565b965060208801359550604088013561366b816132e0565b9450606088013593506080880135925060a088013567ffffffffffffffff81111561369557600080fd5b6136a18a828b0161352a565b989b979a50959850939692959293505050565b6000806000606084860312156136c957600080fd5b83359250602084013567ffffffffffffffff8111156136e757600080fd5b6136f386828701613482565b925050604084013590509250925092565b6000806000806060858703121561371a57600080fd5b8435613725816132e0565b935060208501359250604085013567ffffffffffffffff81111561374857600080fd5b6137548782880161352a565b95989497509550505050565b60008060008060008060a0878903121561377957600080fd5b8635613784816132e0565b955060208701359450604087013561379b816132e0565b935060608701359250608087013567ffffffffffffffff8111156137be57600080fd5b6137ca89828a0161352a565b979a9699509497509295939492505050565b600060208083850312156137ef57600080fd5b823567ffffffffffffffff81111561380657600080fd5b8301601f8101851361381757600080fd5b80356138256134a38261345e565b81815260059190911b8201830190838101908783111561384457600080fd5b928401925b8284101561386b57833561385c816132e0565b82529284019290840190613849565b979650505050505050565b6020808252825182820181905260009190848201906040850190845b818110156138ae57835183529284019291840191600101613892565b50909695505050505050565b600080602083850312156138cd57600080fd5b823567ffffffffffffffff8111156138e457600080fd5b6138f08582860161352a565b90969095509350505050565b60005b838110156139175781810151838201526020016138ff565b83811115613926576000848401525b50505050565b600081518084526139448160208601602086016138fc565b601f017fffffffffffffffffffffffffffffffffffffffffffffffffffffffffffffffe0169290920160200192915050565b6000602080830181845280855180835260408601915060408160051b870101925083870160005b828110156139e9577fffffffffffffffffffffffffffffffffffffffffffffffffffffffffffffffc08886030184526139d785835161392c565b9450928501929085019060010161399d565b5092979650505050505050565b60008060408385031215613a0957600080fd5b823567ffffffffffffffff811115613a2057600080fd5b613a2c85828601613482565b95602094909401359450505050565b60008060008060008060008060a0898b031215613a5757600080fd5b8835613a62816132e0565b97506020890135613a72816132e0565b9650604089013567ffffffffffffffff80821115613a8f57600080fd5b613a9b8c838d0161352a565b909850965060608b0135915080821115613ab457600080fd5b613ac08c838d0161352a565b909650945060808b0135915080821115613ad957600080fd5b50613ae68b828c01613324565b999c989b5096995094979396929594505050565b6020808252825182820181905260009190848201906040850190845b818110156138ae57613b6f8385516001600160a01b03808251168352806020830151166020840152507fffffffff0000000000000000000000000000000000000000000000000000000060408201511660408301525050565b9284019260609290920191600101613b16565b600080600080600080600080600060c08a8c031215613ba057600080fd5b8935613bab816132e0565b985060208a0135975060408a0135613bc2816132e0565b965060608a013567ffffffffffffffff80821115613bdf57600080fd5b613beb8d838e0161352a565b909850965060808c0135915080821115613c0457600080fd5b613c108d838e0161352a565b909650945060a08c0135915080821115613c2957600080fd5b50613c368c828d0161352a565b915080935050809150509295985092959850929598565b60008060408385031215613c6057600080fd5b50508035926020909101359150565b600080600060608486031215613c8457600080fd5b8335613c8f816132e0565b95602085013595506040909401359392505050565b60008060008060008060a08789031215613cbd57600080fd5b8635613cc8816132e0565b95506020870135613cd8816132e0565b94506040870135935060608701359250608087013567ffffffffffffffff811115613d0257600080fd5b6137ca89828a01613324565b60008060008060008060c08789031215613d2757600080fd5b865195506020870151613d39816132e0565b604088015190955060038110613d4e57600080fd5b80945050606087015192506080870151915060a087015190509295509295509295565b7f4e487b7100000000000000000000000000000000000000000000000000000000600052602160045260246000fd5b6000815480845260208085019450836000528060002060005b83811015613dde5781546001600160a01b031687529582019560019182019101613db9565b509495945050505050565b805480835260008281526020808220940193909190825b82600782011015613f5f578154613e3b878260e01b7fffffffff00000000000000000000000000000000000000000000000000000000169052565b60207fffffffff0000000000000000000000000000000000000000000000000000000060c0613e91838b018386841b167fffffffff00000000000000000000000000000000000000000000000000000000169052565b604060a0613ec6828d018588841b167fffffffff00000000000000000000000000000000000000000000000000000000169052565b60606080613efb828f01878a841b167fffffffff00000000000000000000000000000000000000000000000000000000169052565b7fffffffff000000000000000000000000000000000000000000000000000000009188901b86168216908e01529186901b84168216908c01529284901b82168316908a01529091161660e08701526101009095019460019190910190600801613e00565b90549082811015613fa357613f98868360e01b7fffffffff00000000000000000000000000000000000000000000000000000000169052565b602095909501946001015b82811015613fde577fffffffff0000000000000000000000000000000000000000000000000000000060c083901b1686526020909501946001015b82811015614019577fffffffff0000000000000000000000000000000000000000000000000000000060a083901b1686526020909501946001015b82811015614054577fffffffff00000000000000000000000000000000000000000000000000000000608083901b1686526020909501946001015b8281101561408f577fffffffff00000000000000000000000000000000000000000000000000000000606083901b1686526020909501946001015b828110156140ca577fffffffff00000000000000000000000000000000000000000000000000000000604083901b1686526020909501946001015b8281101561410657602082901b7fffffffff00000000000000000000000000000000000000000000000000000000168652602095909501946001015b8281101561413a577fffffffff00000000000000000000000000000000000000000000000000000000821686526020860195505b5093949350505050565b83815260606020820152600061415d6060830185613da0565b828103604084015261416f8185613de9565b9695505050505050565b60006020828403121561418b57600080fd5b8151610f4e816132e0565b8481526080602082015260006141af6080830186613da0565b82810360408401526141c18186613da0565b9050828103606084015261386b8185613de9565b7f4e487b7100000000000000000000000000000000000000000000000000000000600052603260045260246000fd5b6000806040838503121561421757600080fd5b8251614222816132e0565b6020939093015192949293505050565b60038110614269577f4e487b7100000000000000000000000000000000000000000000000000000000600052602160045260246000fd5b9052565b6040810161427b8285614232565b610f4e6020830184614232565b7f4e487b7100000000000000000000000000000000000000000000000000000000600052601160045260246000fd5b60007fffffffffffffffffffffffffffffffffffffffffffffffffffffffffffffffff82036142e8576142e8614288565b5060010190565b60006020828403121561430157600080fd5b5051919050565b81835260007f07ffffffffffffffffffffffffffffffffffffffffffffffffffffffffffffff83111561433a57600080fd5b8260051b8083602087013760009401602001938452509192915050565b60006001600160a01b03808a168352808916602084015280881660408401525085606083015284608083015260c060a083015261439860c083018486614308565b9998505050505050505050565b6000828210156143b7576143b7614288565b500390565b60006001600160a01b038089168352808816602084015280871660408401525084606083015260a060808301526143f760a083018486614308565b98975050505050505050565b6000821982111561441657614416614288565b500190565b6000602080838503121561442e57600080fd5b825167ffffffffffffffff81111561444557600080fd5b8301601f8101851361445657600080fd5b80516144646134a38261345e565b81815260059190911b8201830190838101908783111561448357600080fd5b928401925b8284101561386b57835182529284019290840190614488565b6000817fffffffffffffffffffffffffffffffffffffffffffffffffffffffffffffffff04831182151516156144d9576144d9614288565b500290565b600082614514577f4e487b7100000000000000000000000000000000000000000000000000000000600052601260045260246000fd5b500490565b60008083357fffffffffffffffffffffffffffffffffffffffffffffffffffffffffffffffe184360301811261454e57600080fd5b83018035915067ffffffffffffffff82111561456957600080fd5b60200191503681900382131561336657600080fd5b8183823760009101908152919050565b60006001600160a01b03808c168352808b166020840152808a1660408401525060c060608301526145c360c08301888a614308565b82810360808401526145d6818789614308565b905082810360a08401526145eb818587614308565b9c9b505050505050505050505050565b81516001600160a01b039081168252602080840151909116908201526040808301517fffffffff0000000000000000000000000000000000000000000000000000000016908201526060810161286c565b6001600160a01b038516815260606020820152600061466e606083018661392c565b828103604084015261386b818587614308565b6000806040838503121561469457600080fd5b825180151581146146a457600080fd5b602084015190925067ffffffffffffffff808211156146c257600080fd5b818501915085601f8301126146d657600080fd5b8151818111156146e8576146e86133e0565b61471960207fffffffffffffffffffffffffffffffffffffffffffffffffffffffffffffffe0601f8401160161340f565b915080825286602082850101111561473057600080fd5b6147418160208401602086016138fc565b508092505050925092905056fea264697066735822122064bf83d5ba9349e748f06a130a6c97f8f8380f7fefc4a615e6f2e98ebbc0592b64736f6c634300080d0033",
  "linkReferences": {},
  "deployedLinkReferences": {}
}