{
  "abi": [
    {
      "inputs": [
        {
          "internalType": "address",
          "name": "_addr",
          "type": "address"
        },
        {
          "internalType": "uint256",
          "name": "_privateKey",
          "type": "uint256"
        },
        {
          "internalType": "address",
          "name": "_target",
          "type": "address"
        }
      ],
      "stateMutability": "nonpayable",
      "type": "constructor"
    },
    {
      "inputs": [],
      "name": "WETH_ADDRESS",
      "outputs": [
        {
          "internalType": "address payable",
          "name": "",
          "type": "address"
        }
      ],
      "stateMutability": "nonpayable",
      "type": "function"
    },
    {
      "inputs": [],
      "name": "proxyContract",
      "outputs": [
        {
          "internalType": "address",
          "name": "",
          "type": "address"
        }
      ],
      "stateMutability": "view",
      "type": "function"
    }
  ],
  "bytecode": {
    "object": "0x608060405234801561001057600080fd5b506040516103a73803806103a783398101604081905261002f91610108565b81156100b3576040516001625e79b760e01b0319815260048101839052737109709ecfa91a80626ff3989d68f67f5b1dd12d9063ffa18649906024016020604051808303816000875af115801561008a573d6000803e3d6000fd5b505050506040513d601f19601f820116820180604052508101906100ae9190610144565b6100b5565b825b600080546001600160a01b03199081166001600160a01b039384161790915560019390935560028054909316911617905550610166565b80516001600160a01b038116811461010357600080fd5b919050565b60008060006060848603121561011d57600080fd5b610126846100ec565b92506020840151915061013b604085016100ec565b90509250925092565b60006020828403121561015657600080fd5b61015f826100ec565b9392505050565b610232806101756000396000f3fe608060405234801561001057600080fd5b50600436106100365760003560e01c8063040141e51461003b578063ed5504431461005f575b600080fd5b610043610070565b6040516001600160a01b03909116815260200160405180910390f35b6002546001600160a01b0316610043565b600080546040516308b6ac0f60e31b81526001600160a01b03909116600482018190526024820152737109709ecfa91a80626ff3989d68f67f5b1dd12d906345b5607890604401600060405180830381600087803b1580156100d157600080fd5b505af11580156100e5573d6000803e3d6000fd5b50505050600260009054906101000a90046001600160a01b03166001600160a01b031663040141e56040518163ffffffff1660e01b8152600401602060405180830381865afa15801561013c573d6000803e3d6000fd5b505050506040513d601f19601f8201168201806040525081019061016091906101cc565b9050737109709ecfa91a80626ff3989d68f67f5b1dd12d6001600160a01b03166390c5013b6040518163ffffffff1660e01b8152600401600060405180830381600087803b1580156101b157600080fd5b505af11580156101c5573d6000803e3d6000fd5b5050505090565b6000602082840312156101de57600080fd5b81516001600160a01b03811681146101f557600080fd5b939250505056fea264697066735822122028408a67ee37f765ea4071eab5aaf35dc9ae312d658d86a0b9e18248803cc77564736f6c634300080d0033",
    "linkReferences": {}
  },
  "methodIdentifiers": {
    "WETH_ADDRESS()": "040141e5",
    "proxyContract()": "ed550443"
  },
  "id": 106
}