{
  "abi": [
    {
      "inputs": [],
      "name": "ExecutionReverted",
      "type": "error"
    },
    {
      "inputs": [
        {
          "internalType": "address",
          "name": "_owner",
          "type": "address"
        },
        {
          "internalType": "address",
          "name": "_newOwner",
          "type": "address"
        },
        {
          "internalType": "uint256",
          "name": "_nonce",
          "type": "uint256"
        }
      ],
      "name": "Initialized",
      "type": "error"
    },
    {
      "inputs": [],
      "name": "MethodNotFound",
      "type": "error"
    },
    {
      "inputs": [
        {
          "internalType": "address",
          "name": "_caller",
          "type": "address"
        },
        {
          "internalType": "address",
          "name": "_target",
          "type": "address"
        },
        {
          "internalType": "bytes4",
          "name": "_selector",
          "type": "bytes4"
        }
      ],
      "name": "NotAuthorized",
      "type": "error"
    },
    {
      "inputs": [
        {
          "internalType": "address",
          "name": "_owner",
          "type": "address"
        },
        {
          "internalType": "address",
          "name": "_caller",
          "type": "address"
        }
      ],
      "name": "NotOwner",
      "type": "error"
    },
    {
      "inputs": [
        {
          "internalType": "address",
          "name": "_originalOwner",
          "type": "address"
        },
        {
          "internalType": "address",
          "name": "_newOwner",
          "type": "address"
        }
      ],
      "name": "OwnerChanged",
      "type": "error"
    },
    {
      "inputs": [
        {
          "internalType": "address",
          "name": "_target",
          "type": "address"
        }
      ],
      "name": "TargetInvalid",
      "type": "error"
    },
    {
      "anonymous": false,
      "inputs": [
        {
          "indexed": true,
          "internalType": "address",
          "name": "_target",
          "type": "address"
        },
        {
          "indexed": false,
          "internalType": "bytes",
          "name": "_data",
          "type": "bytes"
        },
        {
          "indexed": false,
          "internalType": "bytes",
          "name": "_response",
          "type": "bytes"
        }
      ],
      "name": "Execute",
      "type": "event"
    },
    {
      "anonymous": false,
      "inputs": [
        {
          "indexed": false,
          "internalType": "bytes4[]",
          "name": "_selectors",
          "type": "bytes4[]"
        },
        {
          "indexed": false,
          "internalType": "address[]",
          "name": "_plugins",
          "type": "address[]"
        }
      ],
      "name": "InstallPlugin",
      "type": "event"
    },
    {
      "anonymous": false,
      "inputs": [
        {
          "indexed": true,
          "internalType": "address",
          "name": "_oldOwner",
          "type": "address"
        },
        {
          "indexed": true,
          "internalType": "address",
          "name": "_newOwner",
          "type": "address"
        }
      ],
      "name": "TransferOwnership",
      "type": "event"
    },
    {
      "anonymous": false,
      "inputs": [
        {
          "indexed": false,
          "internalType": "bytes4[]",
          "name": "_selectors",
          "type": "bytes4[]"
        }
      ],
      "name": "UninstallPlugin",
      "type": "event"
    },
    {
      "stateMutability": "payable",
      "type": "fallback"
    },
    {
      "inputs": [
        {
          "internalType": "address",
          "name": "_target",
          "type": "address"
        },
        {
          "internalType": "bytes",
          "name": "_data",
          "type": "bytes"
        },
        {
          "internalType": "bytes32[]",
          "name": "_proof",
          "type": "bytes32[]"
        }
      ],
      "name": "execute",
      "outputs": [
        {
          "internalType": "bool",
          "name": "success",
          "type": "bool"
        },
        {
          "internalType": "bytes",
          "name": "response",
          "type": "bytes"
        }
      ],
      "stateMutability": "payable",
      "type": "function"
    },
    {
      "inputs": [],
      "name": "init",
      "outputs": [],
      "stateMutability": "nonpayable",
      "type": "function"
    },
    {
      "inputs": [
        {
          "internalType": "bytes4[]",
          "name": "_selectors",
          "type": "bytes4[]"
        },
        {
          "internalType": "address[]",
          "name": "_plugins",
          "type": "address[]"
        }
      ],
      "name": "install",
      "outputs": [],
      "stateMutability": "nonpayable",
      "type": "function"
    },
    {
      "inputs": [],
      "name": "merkleRoot",
      "outputs": [
        {
          "internalType": "bytes32",
          "name": "",
          "type": "bytes32"
        }
      ],
      "stateMutability": "view",
      "type": "function"
    },
    {
      "inputs": [
        {
          "internalType": "bytes4",
          "name": "",
          "type": "bytes4"
        }
      ],
      "name": "methods",
      "outputs": [
        {
          "internalType": "address",
          "name": "",
          "type": "address"
        }
      ],
      "stateMutability": "view",
      "type": "function"
    },
    {
      "inputs": [],
      "name": "nonce",
      "outputs": [
        {
          "internalType": "uint256",
          "name": "",
          "type": "uint256"
        }
      ],
      "stateMutability": "view",
      "type": "function"
    },
    {
      "inputs": [
        {
          "internalType": "address",
          "name": "",
          "type": "address"
        },
        {
          "internalType": "address",
          "name": "",
          "type": "address"
        },
        {
          "internalType": "uint256[]",
          "name": "",
          "type": "uint256[]"
        },
        {
          "internalType": "uint256[]",
          "name": "",
          "type": "uint256[]"
        },
        {
          "internalType": "bytes",
          "name": "",
          "type": "bytes"
        }
      ],
      "name": "onERC1155BatchReceived",
      "outputs": [
        {
          "internalType": "bytes4",
          "name": "",
          "type": "bytes4"
        }
      ],
      "stateMutability": "nonpayable",
      "type": "function"
    },
    {
      "inputs": [
        {
          "internalType": "address",
          "name": "",
          "type": "address"
        },
        {
          "internalType": "address",
          "name": "",
          "type": "address"
        },
        {
          "internalType": "uint256",
          "name": "",
          "type": "uint256"
        },
        {
          "internalType": "uint256",
          "name": "",
          "type": "uint256"
        },
        {
          "internalType": "bytes",
          "name": "",
          "type": "bytes"
        }
      ],
      "name": "onERC1155Received",
      "outputs": [
        {
          "internalType": "bytes4",
          "name": "",
          "type": "bytes4"
        }
      ],
      "stateMutability": "nonpayable",
      "type": "function"
    },
    {
      "inputs": [
        {
          "internalType": "address",
          "name": "",
          "type": "address"
        },
        {
          "internalType": "address",
          "name": "",
          "type": "address"
        },
        {
          "internalType": "uint256",
          "name": "",
          "type": "uint256"
        },
        {
          "internalType": "bytes",
          "name": "",
          "type": "bytes"
        }
      ],
      "name": "onERC721Received",
      "outputs": [
        {
          "internalType": "bytes4",
          "name": "",
          "type": "bytes4"
        }
      ],
      "stateMutability": "nonpayable",
      "type": "function"
    },
    {
      "inputs": [],
      "name": "owner",
      "outputs": [
        {
          "internalType": "address",
          "name": "",
          "type": "address"
        }
      ],
      "stateMutability": "view",
      "type": "function"
    },
    {
      "inputs": [
        {
          "internalType": "bytes32",
          "name": "_rootHash",
          "type": "bytes32"
        }
      ],
      "name": "setMerkleRoot",
      "outputs": [],
      "stateMutability": "nonpayable",
      "type": "function"
    },
    {
      "inputs": [
        {
          "internalType": "address",
          "name": "_newOwner",
          "type": "address"
        }
      ],
      "name": "transferOwnership",
      "outputs": [],
      "stateMutability": "nonpayable",
      "type": "function"
    },
    {
      "inputs": [
        {
          "internalType": "bytes4[]",
          "name": "_selectors",
          "type": "bytes4[]"
        }
      ],
      "name": "uninstall",
      "outputs": [],
      "stateMutability": "nonpayable",
      "type": "function"
    },
    {
      "stateMutability": "payable",
      "type": "receive"
    }
  ],
  "bytecode": {
    "object": "0x608060405234801561001057600080fd5b50610ff0806100206000396000f3fe6080604052600436106100c65760003560e01c80637cb647591161007f578063bc197c8111610059578063bc197c8114610283578063e1c7392a146102b2578063f23a6e61146102c7578063f2fde38b146102f4576100cd565b80637cb647591461022d5780638da5cb5b1461024d578063affed0e01461026d576100cd565b8063150b7a021461010e5780632e09ea9b146101585780632eb4a7ab1461017a5780633ca0a6171461019e578063601b8af3146101be5780636b039451146101df576100cd565b366100cd57005b600080356001600160e01b03191681526003602052604081205436906060906001600160a01b0316610100818585610314565b805195506020019350505050f35b34801561011a57600080fd5b5061013a610129366004610970565b630a85bd0160e11b95945050505050565b6040516001600160e01b031990911681526020015b60405180910390f35b34801561016457600080fd5b50610178610173366004610ad4565b61044a565b005b34801561018657600080fd5b5061019060015481565b60405190815260200161014f565b3480156101aa57600080fd5b506101786101b9366004610b11565b61053f565b6101d16101cc366004610c18565b61064f565b60405161014f929190610c88565b3480156101eb57600080fd5b506102156101fa366004610ce7565b6003602052600090815260409020546001600160a01b031681565b6040516001600160a01b03909116815260200161014f565b34801561023957600080fd5b50610178610248366004610d02565b610719565b34801561025957600080fd5b50600054610215906001600160a01b031681565b34801561027957600080fd5b5061019060025481565b34801561028f57600080fd5b5061013a61029e366004610d1b565b63bc197c8160e01b98975050505050505050565b3480156102be57600080fd5b5061017861075e565b3480156102d357600080fd5b5061013a6102e2366004610dd6565b63f23a6e6160e01b9695505050505050565b34801561030057600080fd5b5061017861030f366004610e4e565b6107e2565b60006060843b80830361034a576040516305fc177f60e01b81526001600160a01b03871660048201526024015b60405180910390fd5b600080546001600160a01b0316906113885a6103669190610e7f565b9050876001600160a01b0316818888604051610383929190610e96565b6000604051808303818686f4925050503d80600081146103bf576040519150601f19603f3d011682016040523d82523d6000602084013e6103c4565b606091505b5060005491965094506001600160a01b0383811691161461040f5760005460405163b532073b60e01b81526001600160a01b0380851660048301529091166024820152604401610341565b8461043f5783516000036104365760405163f21e646b60e01b815260040160405180910390fd5b61043f8461086d565b505050935093915050565b6000546001600160a01b0316331461048a57600054604051631194af8760e11b81526001600160a01b039091166004820152336024820152604401610341565b805160005b81811015610503576000600360008584815181106104af576104af610ea6565b6020908102919091018101516001600160e01b031916825281019190915260400160002080546001600160a01b0319166001600160a01b0392909216919091179055806104fb81610ebc565b91505061048f565b507fb3a11edff134a07565e9e73e89fe2198279d8bf3f8218a543981f219b3991c29826040516105339190610f1a565b60405180910390a15050565b6000546001600160a01b0316331461057f57600054604051631194af8760e11b81526001600160a01b039091166004820152336024820152604401610341565b815160005b818110156106105782818151811061059e5761059e610ea6565b6020026020010151600360008684815181106105bc576105bc610ea6565b6020908102919091018101516001600160e01b031916825281019190915260400160002080546001600160a01b0319166001600160a01b03929092169190911790558061060881610ebc565b915050610584565b507ff7d11fffde62bb148b72087d285cbd907ca404701a120597f0896a240881220f8383604051610642929190610f2d565b60405180910390a1505050565b60006060600086359050600033898360405160200161067093929190610f8d565b6040516020818303038152906040528051906020012090506106c9868680806020026020016040519081016040528093929190818152602001838360200280828437600092019190915250506001549150849050610876565b6106fe576000546001600160a01b031633146106fe57338983604051632054e00b60e21b815260040161034193929190610f8d565b610709898989610314565b909a909950975050505050505050565b6000546001600160a01b0316331461075957600054604051631194af8760e11b81526001600160a01b039091166004820152336024820152604401610341565b600155565b6002541561079c576000546002546040516308793b2960e11b81526001600160a01b0390921660048301523360248301526044820152606401610341565b6001600255600080546001600160a01b0319163390811782556040519091907f5c486528ec3e3f0ea91181cff8116f02bfa350e03b8b6f12e00765adbb5af85c908290a3565b6000546001600160a01b0316331461082257600054604051631194af8760e11b81526001600160a01b039091166004820152336024820152604401610341565b600080546001600160a01b0319166001600160a01b0383169081178255604051909133917f5c486528ec3e3f0ea91181cff8116f02bfa350e03b8b6f12e00765adbb5af85c9190a350565b80518082602001fd5b600082610883858461088c565b14949350505050565b600081815b84518110156108d1576108bd828683815181106108b0576108b0610ea6565b60200260200101516108d9565b9150806108c981610ebc565b915050610891565b509392505050565b60008183106108f5576000828152602084905260409020610904565b60008381526020839052604090205b9392505050565b80356001600160a01b038116811461092257600080fd5b919050565b60008083601f84011261093957600080fd5b50813567ffffffffffffffff81111561095157600080fd5b60208301915083602082850101111561096957600080fd5b9250929050565b60008060008060006080868803121561098857600080fd5b6109918661090b565b945061099f6020870161090b565b935060408601359250606086013567ffffffffffffffff8111156109c257600080fd5b6109ce88828901610927565b969995985093965092949392505050565b634e487b7160e01b600052604160045260246000fd5b604051601f8201601f1916810167ffffffffffffffff81118282101715610a1e57610a1e6109df565b604052919050565b600067ffffffffffffffff821115610a4057610a406109df565b5060051b60200190565b80356001600160e01b03198116811461092257600080fd5b600082601f830112610a7357600080fd5b81356020610a88610a8383610a26565b6109f5565b82815260059290921b84018101918181019086841115610aa757600080fd5b8286015b84811015610ac957610abc81610a4a565b8352918301918301610aab565b509695505050505050565b600060208284031215610ae657600080fd5b813567ffffffffffffffff811115610afd57600080fd5b610b0984828501610a62565b949350505050565b60008060408385031215610b2457600080fd5b823567ffffffffffffffff80821115610b3c57600080fd5b610b4886838701610a62565b9350602091508185013581811115610b5f57600080fd5b85019050601f81018613610b7257600080fd5b8035610b80610a8382610a26565b81815260059190911b82018301908381019088831115610b9f57600080fd5b928401925b82841015610bc457610bb58461090b565b82529284019290840190610ba4565b80955050505050509250929050565b60008083601f840112610be557600080fd5b50813567ffffffffffffffff811115610bfd57600080fd5b6020830191508360208260051b850101111561096957600080fd5b600080600080600060608688031215610c3057600080fd5b610c398661090b565b9450602086013567ffffffffffffffff80821115610c5657600080fd5b610c6289838a01610927565b90965094506040880135915080821115610c7b57600080fd5b506109ce88828901610bd3565b821515815260006020604081840152835180604085015260005b81811015610cbe57858101830151858201606001528201610ca2565b81811115610cd0576000606083870101525b50601f01601f191692909201606001949350505050565b600060208284031215610cf957600080fd5b61090482610a4a565b600060208284031215610d1457600080fd5b5035919050565b60008060008060008060008060a0898b031215610d3757600080fd5b610d408961090b565b9750610d4e60208a0161090b565b9650604089013567ffffffffffffffff80821115610d6b57600080fd5b610d778c838d01610bd3565b909850965060608b0135915080821115610d9057600080fd5b610d9c8c838d01610bd3565b909650945060808b0135915080821115610db557600080fd5b50610dc28b828c01610927565b999c989b5096995094979396929594505050565b60008060008060008060a08789031215610def57600080fd5b610df88761090b565b9550610e066020880161090b565b94506040870135935060608701359250608087013567ffffffffffffffff811115610e3057600080fd5b610e3c89828a01610927565b979a9699509497509295939492505050565b600060208284031215610e6057600080fd5b6109048261090b565b634e487b7160e01b600052601160045260246000fd5b600082821015610e9157610e91610e69565b500390565b8183823760009101908152919050565b634e487b7160e01b600052603260045260246000fd5b600060018201610ece57610ece610e69565b5060010190565b600081518084526020808501945080840160005b83811015610f0f5781516001600160e01b03191687529582019590820190600101610ee9565b509495945050505050565b6020815260006109046020830184610ed5565b604081526000610f406040830185610ed5565b82810360208481019190915284518083528582019282019060005b81811015610f805784516001600160a01b031683529383019391830191600101610f5b565b5090979650505050505050565b6001600160a01b0393841681529190921660208201526001600160e01b031990911660408201526060019056fea2646970667358221220879b58c7d56d62bc20bf3cb67eaa7d817fe18f971e5e0e69b54cff862d0d189164736f6c634300080d0033",
    "linkReferences": {}
  },
  "methodIdentifiers": {
    "execute(address,bytes,bytes32[])": "601b8af3",
    "init()": "e1c7392a",
    "install(bytes4[],address[])": "3ca0a617",
    "merkleRoot()": "2eb4a7ab",
    "methods(bytes4)": "6b039451",
    "nonce()": "affed0e0",
    "onERC1155BatchReceived(address,address,uint256[],uint256[],bytes)": "bc197c81",
    "onERC1155Received(address,address,uint256,uint256,bytes)": "f23a6e61",
    "onERC721Received(address,address,uint256,bytes)": "150b7a02",
    "owner()": "8da5cb5b",
    "setMerkleRoot(bytes32)": "7cb64759",
    "transferOwnership(address)": "f2fde38b",
    "uninstall(bytes4[])": "2e09ea9b"
  },
  "id": 15
}