{
  "abi": [
    {
      "inputs": [
        {
          "internalType": "address",
          "name": "_addr",
          "type": "address"
        },
        {
          "internalType": "uint256",
          "name": "_privateKey",
          "type": "uint256"
        },
        {
          "internalType": "address",
          "name": "_target",
          "type": "address"
        }
      ],
      "stateMutability": "nonpayable",
      "type": "constructor"
    },
    {
      "inputs": [],
      "name": "proxyContract",
      "outputs": [
        {
          "internalType": "address",
          "name": "",
          "type": "address"
        }
      ],
      "stateMutability": "view",
      "type": "function"
    },
    {
      "inputs": [
        {
          "internalType": "address",
          "name": "_token",
          "type": "address"
        },
        {
          "internalType": "uint256",
          "name": "_id",
          "type": "uint256"
        },
        {
          "internalType": "bool",
          "name": "_approved",
          "type": "bool"
        },
        {
          "internalType": "uint256",
          "name": "_deadline",
          "type": "uint256"
        },
        {
          "internalType": "uint8",
          "name": "_v",
          "type": "uint8"
        },
        {
          "internalType": "bytes32",
          "name": "_r",
          "type": "bytes32"
        },
        {
          "internalType": "bytes32",
          "name": "_s",
          "type": "bytes32"
        }
      ],
      "name": "selfPermit",
      "outputs": [],
      "stateMutability": "nonpayable",
      "type": "function"
    },
    {
      "inputs": [
        {
          "internalType": "address",
          "name": "_token",
          "type": "address"
        },
        {
          "internalType": "bool",
          "name": "_approved",
          "type": "bool"
        },
        {
          "internalType": "uint256",
          "name": "_deadline",
          "type": "uint256"
        },
        {
          "internalType": "uint8",
          "name": "_v",
          "type": "uint8"
        },
        {
          "internalType": "bytes32",
          "name": "_r",
          "type": "bytes32"
        },
        {
          "internalType": "bytes32",
          "name": "_s",
          "type": "bytes32"
        }
      ],
      "name": "selfPermitAll",
      "outputs": [],
      "stateMutability": "nonpayable",
      "type": "function"
    }
  ],
  "bytecode": {
    "object": "0x608060405234801561001057600080fd5b5060405161061e38038061061e83398101604081905261002f91610108565b81156100b3576040516001625e79b760e01b0319815260048101839052737109709ecfa91a80626ff3989d68f67f5b1dd12d9063ffa18649906024016020604051808303816000875af115801561008a573d6000803e3d6000fd5b505050506040513d601f19601f820116820180604052508101906100ae9190610144565b6100b5565b825b600080546001600160a01b03199081166001600160a01b039384161790915560019390935560028054909316911617905550610166565b80516001600160a01b038116811461010357600080fd5b919050565b60008060006060848603121561011d57600080fd5b610126846100ec565b92506020840151915061013b604085016100ec565b90509250925092565b60006020828403121561015657600080fd5b61015f826100ec565b9392505050565b6104a9806101756000396000f3fe608060405234801561001057600080fd5b50600436106100415760003560e01c8063b1117e9e14610046578063ed5504431461005b578063eea477301461007a575b600080fd5b6100596100543660046103aa565b61008d565b005b600254604080516001600160a01b039092168252519081900360200190f35b610059610088366004610409565b6101f9565b6000546040516308b6ac0f60e31b81526001600160a01b03909116600482018190526024820152737109709ecfa91a80626ff3989d68f67f5b1dd12d906345b5607890604401600060405180830381600087803b1580156100ed57600080fd5b505af1158015610101573d6000803e3d6000fd5b5050600254604051635888bf4f60e11b81526001600160a01b038a8116600483015289151560248301526044820189905260ff881660648301526084820187905260a48201869052909116925063b1117e9e915060c401600060405180830381600087803b15801561017257600080fd5b505af1158015610186573d6000803e3d6000fd5b50505050737109709ecfa91a80626ff3989d68f67f5b1dd12d6001600160a01b03166390c5013b6040518163ffffffff1660e01b8152600401600060405180830381600087803b1580156101d957600080fd5b505af11580156101ed573d6000803e3d6000fd5b50505050505050505050565b6000546040516308b6ac0f60e31b81526001600160a01b03909116600482018190526024820152737109709ecfa91a80626ff3989d68f67f5b1dd12d906345b5607890604401600060405180830381600087803b15801561025957600080fd5b505af115801561026d573d6000803e3d6000fd5b5050600254604051630eea477360e41b81526001600160a01b038b81166004830152602482018b905289151560448301526064820189905260ff8816608483015260a4820187905260c48201869052909116925063eea47730915060e401600060405180830381600087803b1580156102e557600080fd5b505af11580156102f9573d6000803e3d6000fd5b50505050737109709ecfa91a80626ff3989d68f67f5b1dd12d6001600160a01b03166390c5013b6040518163ffffffff1660e01b8152600401600060405180830381600087803b15801561034c57600080fd5b505af1158015610360573d6000803e3d6000fd5b5050505050505050505050565b80356001600160a01b038116811461038457600080fd5b919050565b8035801515811461038457600080fd5b803560ff8116811461038457600080fd5b60008060008060008060c087890312156103c357600080fd5b6103cc8761036d565b95506103da60208801610389565b9450604087013593506103ef60608801610399565b92506080870135915060a087013590509295509295509295565b600080600080600080600060e0888a03121561042457600080fd5b61042d8861036d565b96506020880135955061044260408901610389565b94506060880135935061045760808901610399565b925060a0880135915060c088013590509295989194975092955056fea26469706673582212205f8422858b944b01ce600757c95a1254fe885f4db4f495d48c113e15cf76b10e64736f6c634300080d0033",
    "linkReferences": {}
  },
  "methodIdentifiers": {
    "proxyContract()": "ed550443",
    "selfPermit(address,uint256,bool,uint256,uint8,bytes32,bytes32)": "eea47730",
    "selfPermitAll(address,bool,uint256,uint8,bytes32,bytes32)": "b1117e9e"
  },
  "id": 101
}