{
  "abi": [
    {
      "inputs": [
        {
          "internalType": "address",
          "name": "_addr",
          "type": "address"
        },
        {
          "internalType": "uint256",
          "name": "_privateKey",
          "type": "uint256"
        }
      ],
      "stateMutability": "nonpayable",
      "type": "constructor"
    },
    {
      "inputs": [],
      "name": "addr",
      "outputs": [
        {
          "internalType": "address",
          "name": "",
          "type": "address"
        }
      ],
      "stateMutability": "view",
      "type": "function"
    },
    {
      "inputs": [
        {
          "internalType": "address",
          "name": "_addr",
          "type": "address"
        },
        {
          "internalType": "bytes",
          "name": "_calldata",
          "type": "bytes"
        }
      ],
      "name": "call",
      "outputs": [
        {
          "internalType": "bytes",
          "name": "",
          "type": "bytes"
        }
      ],
      "stateMutability": "payable",
      "type": "function"
    },
    {
      "inputs": [
        {
          "internalType": "uint256",
          "name": "_amount",
          "type": "uint256"
        }
      ],
      "name": "deal",
      "outputs": [],
      "stateMutability": "nonpayable",
      "type": "function"
    },
    {
      "inputs": [],
      "name": "pkey",
      "outputs": [
        {
          "internalType": "uint256",
          "name": "",
          "type": "uint256"
        }
      ],
      "stateMutability": "view",
      "type": "function"
    },
    {
      "inputs": [
        {
          "internalType": "bytes32",
          "name": "_digest",
          "type": "bytes32"
        }
      ],
      "name": "sign",
      "outputs": [
        {
          "internalType": "uint8",
          "name": "",
          "type": "uint8"
        },
        {
          "internalType": "bytes32",
          "name": "",
          "type": "bytes32"
        },
        {
          "internalType": "bytes32",
          "name": "",
          "type": "bytes32"
        }
      ],
      "stateMutability": "nonpayable",
      "type": "function"
    },
    {
      "stateMutability": "payable",
      "type": "receive"
    }
  ],
  "bytecode": {
    "object": "0x608060405234801561001057600080fd5b506040516107cb3803806107cb83398101604081905261002f916100fa565b80156100b3576040516001625e79b760e01b0319815260048101829052737109709ecfa91a80626ff3989d68f67f5b1dd12d9063ffa18649906024016020604051808303816000875af115801561008a573d6000803e3d6000fd5b505050506040513d601f19601f820116820180604052508101906100ae9190610126565b6100b5565b815b600080546001600160a01b0319166001600160a01b039290921691909117905560015550610148565b80516001600160a01b03811681146100f557600080fd5b919050565b6000806040838503121561010d57600080fd5b610116836100de565b9150602083015190509250929050565b60006020828403121561013857600080fd5b610141826100de565b9392505050565b610674806101576000396000f3fe60806040526004361061004e5760003560e01c80631b8b921d1461005a578063767800de14610083578063799cd333146100ab57806384f72088146100ea578063c959c42b1461010857600080fd5b3661005557005b600080fd5b61006d610068366004610499565b61012a565b60405161007a9190610599565b60405180910390f35b34801561008f57600080fd5b506000546040516001600160a01b03909116815260200161007a565b3480156100b757600080fd5b506100cb6100c63660046105cc565b610323565b6040805160ff909416845260208401929092529082015260600161007a565b3480156100f657600080fd5b5060015460405190815260200161007a565b34801561011457600080fd5b506101286101233660046105cc565b610408565b005b6000546040516308b6ac0f60e31b81526001600160a01b03909116600482018190526024820152606090737109709ecfa91a80626ff3989d68f67f5b1dd12d906345b5607890604401600060405180830381600087803b15801561018d57600080fd5b505af11580156101a1573d6000803e3d6000fd5b5050600054346001600160a01b03909116311015915061020a90505760405162461bcd60e51b815260206004820152601f60248201527f4253204552524f52203a20496e73756666696369656e742062616c616e63650060448201526064015b60405180910390fd5b600080846001600160a01b0316348560405161022691906105e5565b60006040518083038185875af1925050503d8060008114610263576040519150601f19603f3d011682016040523d82523d6000602084013e610268565b606091505b5091509150816102b35760405162461bcd60e51b81526020600482015260166024820152751094c811549493d4880e8810d85b1b0819985a5b195960521b6044820152606401610201565b915050737109709ecfa91a80626ff3989d68f67f5b1dd12d6001600160a01b03166390c5013b6040518163ffffffff1660e01b8152600401600060405180830381600087803b15801561030557600080fd5b505af1158015610319573d6000803e3d6000fd5b5050505092915050565b600080600060015460000361037a5760405162461bcd60e51b815260206004820152601960248201527f4253204572726f72203a204e6f2050726976617465206b6579000000000000006044820152606401610201565b6001546040516338d07aa960e21b8152600481019190915260248101859052737109709ecfa91a80626ff3989d68f67f5b1dd12d9063e341eaa4906044016060604051808303816000875af11580156103d7573d6000803e3d6000fd5b505050506040513d601f19601f820116820180604052508101906103fb9190610601565b9250925092509193909250565b60005460405163c88a5e6d60e01b81526001600160a01b03909116600482015260248101829052737109709ecfa91a80626ff3989d68f67f5b1dd12d9063c88a5e6d90604401600060405180830381600087803b15801561046857600080fd5b505af115801561047c573d6000803e3d6000fd5b5050505050565b634e487b7160e01b600052604160045260246000fd5b600080604083850312156104ac57600080fd5b82356001600160a01b03811681146104c357600080fd5b9150602083013567ffffffffffffffff808211156104e057600080fd5b818501915085601f8301126104f457600080fd5b81358181111561050657610506610483565b604051601f8201601f19908116603f0116810190838211818310171561052e5761052e610483565b8160405282815288602084870101111561054757600080fd5b8260208601602083013760006020848301015280955050505050509250929050565b60005b8381101561058457818101518382015260200161056c565b83811115610593576000848401525b50505050565b60208152600082518060208401526105b8816040850160208701610569565b601f01601f19169190910160400192915050565b6000602082840312156105de57600080fd5b5035919050565b600082516105f7818460208701610569565b9190910192915050565b60008060006060848603121561061657600080fd5b835160ff8116811461062757600080fd5b60208501516040909501519096949550939250505056fea264697066735822122000d9919fb68dbdeb2d648959b764ccc1d4c2fd115cfd258a771d2f9611cec2b264736f6c634300080d0033",
    "linkReferences": {}
  },
  "methodIdentifiers": {
    "addr()": "767800de",
    "call(address,bytes)": "1b8b921d",
    "deal(uint256)": "c959c42b",
    "pkey()": "84f72088",
    "sign(bytes32)": "799cd333"
  },
  "id": 71
}