{
  "abi": [
    {
      "inputs": [
        {
          "internalType": "address",
          "name": "_addr",
          "type": "address"
        },
        {
          "internalType": "uint256",
          "name": "_privateKey",
          "type": "uint256"
        },
        {
          "internalType": "address",
          "name": "_target",
          "type": "address"
        }
      ],
      "stateMutability": "nonpayable",
      "type": "constructor"
    },
    {
      "inputs": [],
      "name": "PROPOSAL_PERIOD",
      "outputs": [
        {
          "internalType": "uint256",
          "name": "",
          "type": "uint256"
        }
      ],
      "stateMutability": "nonpayable",
      "type": "function"
    },
    {
      "inputs": [
        {
          "internalType": "address",
          "name": "_vault",
          "type": "address"
        },
        {
          "internalType": "uint256",
          "name": "_proposalId",
          "type": "uint256"
        },
        {
          "internalType": "address",
          "name": "_token",
          "type": "address"
        },
        {
          "internalType": "uint256[]",
          "name": "_ids",
          "type": "uint256[]"
        },
        {
          "internalType": "uint256[]",
          "name": "_amounts",
          "type": "uint256[]"
        },
        {
          "internalType": "bytes32[]",
          "name": "_erc1155BatchTransferProof",
          "type": "bytes32[]"
        }
      ],
      "name": "batchMigrateVaultERC1155",
      "outputs": [],
      "stateMutability": "nonpayable",
      "type": "function"
    },
    {
      "inputs": [],
      "name": "buyout",
      "outputs": [
        {
          "internalType": "address payable",
          "name": "",
          "type": "address"
        }
      ],
      "stateMutability": "nonpayable",
      "type": "function"
    },
    {
      "inputs": [
        {
          "internalType": "address",
          "name": "_vault",
          "type": "address"
        },
        {
          "internalType": "uint256",
          "name": "_proposalId",
          "type": "uint256"
        }
      ],
      "name": "commit",
      "outputs": [
        {
          "internalType": "bool",
          "name": "",
          "type": "bool"
        }
      ],
      "stateMutability": "nonpayable",
      "type": "function"
    },
    {
      "inputs": [
        {
          "internalType": "address[]",
          "name": "_modules",
          "type": "address[]"
        }
      ],
      "name": "generateMerkleTree",
      "outputs": [
        {
          "internalType": "bytes32[]",
          "name": "",
          "type": "bytes32[]"
        }
      ],
      "stateMutability": "nonpayable",
      "type": "function"
    },
    {
      "inputs": [],
      "name": "getLeafNodes",
      "outputs": [
        {
          "internalType": "bytes32[]",
          "name": "",
          "type": "bytes32[]"
        }
      ],
      "stateMutability": "nonpayable",
      "type": "function"
    },
    {
      "inputs": [],
      "name": "getPermissions",
      "outputs": [
        {
          "components": [
            {
              "internalType": "address",
              "name": "module",
              "type": "address"
            },
            {
              "internalType": "address",
              "name": "target",
              "type": "address"
            },
            {
              "internalType": "bytes4",
              "name": "selector",
              "type": "bytes4"
            }
          ],
          "internalType": "struct Permission[]",
          "name": "",
          "type": "tuple[]"
        }
      ],
      "stateMutability": "nonpayable",
      "type": "function"
    },
    {
      "inputs": [
        {
          "internalType": "bytes32[]",
          "name": "_data",
          "type": "bytes32[]"
        },
        {
          "internalType": "uint256",
          "name": "_node",
          "type": "uint256"
        }
      ],
      "name": "getProof",
      "outputs": [
        {
          "internalType": "bytes32[]",
          "name": "",
          "type": "bytes32[]"
        }
      ],
      "stateMutability": "nonpayable",
      "type": "function"
    },
    {
      "inputs": [
        {
          "internalType": "bytes32[]",
          "name": "_data",
          "type": "bytes32[]"
        }
      ],
      "name": "getRoot",
      "outputs": [
        {
          "internalType": "bytes32",
          "name": "",
          "type": "bytes32"
        }
      ],
      "stateMutability": "nonpayable",
      "type": "function"
    },
    {
      "inputs": [
        {
          "internalType": "bytes32",
          "name": "_left",
          "type": "bytes32"
        },
        {
          "internalType": "bytes32",
          "name": "_right",
          "type": "bytes32"
        }
      ],
      "name": "hashLeafPairs",
      "outputs": [
        {
          "internalType": "bytes32",
          "name": "",
          "type": "bytes32"
        }
      ],
      "stateMutability": "nonpayable",
      "type": "function"
    },
    {
      "inputs": [
        {
          "internalType": "address",
          "name": "_vault",
          "type": "address"
        },
        {
          "internalType": "uint256",
          "name": "_proposalId",
          "type": "uint256"
        },
        {
          "internalType": "uint256",
          "name": "_amount",
          "type": "uint256"
        }
      ],
      "name": "join",
      "outputs": [],
      "stateMutability": "payable",
      "type": "function"
    },
    {
      "inputs": [
        {
          "internalType": "address",
          "name": "_vault",
          "type": "address"
        },
        {
          "internalType": "uint256",
          "name": "_proposalId",
          "type": "uint256"
        }
      ],
      "name": "leave",
      "outputs": [],
      "stateMutability": "nonpayable",
      "type": "function"
    },
    {
      "inputs": [
        {
          "internalType": "uint256",
          "name": "x",
          "type": "uint256"
        }
      ],
      "name": "log2ceil_naive",
      "outputs": [
        {
          "internalType": "uint256",
          "name": "",
          "type": "uint256"
        }
      ],
      "stateMutability": "nonpayable",
      "type": "function"
    },
    {
      "inputs": [
        {
          "internalType": "address",
          "name": "_vault",
          "type": "address"
        },
        {
          "internalType": "uint256",
          "name": "_proposalId",
          "type": "uint256"
        }
      ],
      "name": "migrateFractions",
      "outputs": [],
      "stateMutability": "nonpayable",
      "type": "function"
    },
    {
      "inputs": [
        {
          "internalType": "address",
          "name": "_vault",
          "type": "address"
        },
        {
          "internalType": "uint256",
          "name": "_proposalId",
          "type": "uint256"
        },
        {
          "internalType": "address",
          "name": "_token",
          "type": "address"
        },
        {
          "internalType": "uint256",
          "name": "_id",
          "type": "uint256"
        },
        {
          "internalType": "uint256",
          "name": "_amount",
          "type": "uint256"
        },
        {
          "internalType": "bytes32[]",
          "name": "_erc1155TransferProof",
          "type": "bytes32[]"
        }
      ],
      "name": "migrateVaultERC1155",
      "outputs": [],
      "stateMutability": "nonpayable",
      "type": "function"
    },
    {
      "inputs": [
        {
          "internalType": "address",
          "name": "_vault",
          "type": "address"
        },
        {
          "internalType": "uint256",
          "name": "_proposalId",
          "type": "uint256"
        },
        {
          "internalType": "address",
          "name": "_token",
          "type": "address"
        },
        {
          "internalType": "uint256",
          "name": "_amount",
          "type": "uint256"
        },
        {
          "internalType": "bytes32[]",
          "name": "_erc20TransferProof",
          "type": "bytes32[]"
        }
      ],
      "name": "migrateVaultERC20",
      "outputs": [],
      "stateMutability": "nonpayable",
      "type": "function"
    },
    {
      "inputs": [
        {
          "internalType": "address",
          "name": "_vault",
          "type": "address"
        },
        {
          "internalType": "uint256",
          "name": "_proposalId",
          "type": "uint256"
        },
        {
          "internalType": "address",
          "name": "_token",
          "type": "address"
        },
        {
          "internalType": "uint256",
          "name": "_tokenId",
          "type": "uint256"
        },
        {
          "internalType": "bytes32[]",
          "name": "_erc721TransferProof",
          "type": "bytes32[]"
        }
      ],
      "name": "migrateVaultERC721",
      "outputs": [],
      "stateMutability": "nonpayable",
      "type": "function"
    },
    {
      "inputs": [
        {
          "internalType": "address",
          "name": "arg0",
          "type": "address"
        },
        {
          "internalType": "uint256",
          "name": "arg1",
          "type": "uint256"
        }
      ],
      "name": "migrationInfo",
      "outputs": [
        {
          "internalType": "uint256",
          "name": "",
          "type": "uint256"
        },
        {
          "internalType": "uint256",
          "name": "",
          "type": "uint256"
        },
        {
          "internalType": "uint256",
          "name": "",
          "type": "uint256"
        },
        {
          "internalType": "uint256",
          "name": "",
          "type": "uint256"
        },
        {
          "internalType": "address",
          "name": "",
          "type": "address"
        },
        {
          "internalType": "bool",
          "name": "",
          "type": "bool"
        },
        {
          "internalType": "uint256",
          "name": "",
          "type": "uint256"
        },
        {
          "internalType": "uint256",
          "name": "",
          "type": "uint256"
        },
        {
          "internalType": "bool",
          "name": "",
          "type": "bool"
        }
      ],
      "stateMutability": "nonpayable",
      "type": "function"
    },
    {
      "inputs": [
        {
          "internalType": "bytes[]",
          "name": "_data",
          "type": "bytes[]"
        }
      ],
      "name": "multicall",
      "outputs": [
        {
          "internalType": "bytes[]",
          "name": "",
          "type": "bytes[]"
        }
      ],
      "stateMutability": "nonpayable",
      "type": "function"
    },
    {
      "inputs": [],
      "name": "nextId",
      "outputs": [
        {
          "internalType": "uint256",
          "name": "",
          "type": "uint256"
        }
      ],
      "stateMutability": "nonpayable",
      "type": "function"
    },
    {
      "inputs": [
        {
          "internalType": "address",
          "name": "arg0",
          "type": "address"
        },
        {
          "internalType": "address",
          "name": "arg1",
          "type": "address"
        },
        {
          "internalType": "uint256[]",
          "name": "arg2",
          "type": "uint256[]"
        },
        {
          "internalType": "uint256[]",
          "name": "arg3",
          "type": "uint256[]"
        },
        {
          "internalType": "bytes",
          "name": "arg4",
          "type": "bytes"
        }
      ],
      "name": "onERC1155BatchReceived",
      "outputs": [
        {
          "internalType": "bytes4",
          "name": "",
          "type": "bytes4"
        }
      ],
      "stateMutability": "nonpayable",
      "type": "function"
    },
    {
      "inputs": [
        {
          "internalType": "address",
          "name": "arg0",
          "type": "address"
        },
        {
          "internalType": "address",
          "name": "arg1",
          "type": "address"
        },
        {
          "internalType": "uint256",
          "name": "arg2",
          "type": "uint256"
        },
        {
          "internalType": "uint256",
          "name": "arg3",
          "type": "uint256"
        },
        {
          "internalType": "bytes",
          "name": "arg4",
          "type": "bytes"
        }
      ],
      "name": "onERC1155Received",
      "outputs": [
        {
          "internalType": "bytes4",
          "name": "",
          "type": "bytes4"
        }
      ],
      "stateMutability": "nonpayable",
      "type": "function"
    },
    {
      "inputs": [
        {
          "internalType": "address",
          "name": "arg0",
          "type": "address"
        },
        {
          "internalType": "address",
          "name": "arg1",
          "type": "address"
        },
        {
          "internalType": "uint256",
          "name": "arg2",
          "type": "uint256"
        },
        {
          "internalType": "bytes",
          "name": "arg3",
          "type": "bytes"
        }
      ],
      "name": "onERC721Received",
      "outputs": [
        {
          "internalType": "bytes4",
          "name": "",
          "type": "bytes4"
        }
      ],
      "stateMutability": "nonpayable",
      "type": "function"
    },
    {
      "inputs": [
        {
          "internalType": "address",
          "name": "_vault",
          "type": "address"
        },
        {
          "internalType": "address[]",
          "name": "_modules",
          "type": "address[]"
        },
        {
          "internalType": "address[]",
          "name": "_plugins",
          "type": "address[]"
        },
        {
          "internalType": "bytes4[]",
          "name": "_selectors",
          "type": "bytes4[]"
        },
        {
          "internalType": "uint256",
          "name": "_newFractionSupply",
          "type": "uint256"
        },
        {
          "internalType": "uint256",
          "name": "_targetPrice",
          "type": "uint256"
        }
      ],
      "name": "propose",
      "outputs": [],
      "stateMutability": "nonpayable",
      "type": "function"
    },
    {
      "inputs": [],
      "name": "proxyContract",
      "outputs": [
        {
          "internalType": "address",
          "name": "",
          "type": "address"
        }
      ],
      "stateMutability": "view",
      "type": "function"
    },
    {
      "inputs": [],
      "name": "registry",
      "outputs": [
        {
          "internalType": "address",
          "name": "",
          "type": "address"
        }
      ],
      "stateMutability": "nonpayable",
      "type": "function"
    },
    {
      "inputs": [
        {
          "internalType": "address",
          "name": "_vault",
          "type": "address"
        },
        {
          "internalType": "uint256",
          "name": "_proposalId",
          "type": "uint256"
        },
        {
          "internalType": "bytes32[]",
          "name": "_mintProof",
          "type": "bytes32[]"
        }
      ],
      "name": "settleFractions",
      "outputs": [],
      "stateMutability": "nonpayable",
      "type": "function"
    },
    {
      "inputs": [
        {
          "internalType": "address",
          "name": "_vault",
          "type": "address"
        },
        {
          "internalType": "uint256",
          "name": "_proposalId",
          "type": "uint256"
        }
      ],
      "name": "settleVault",
      "outputs": [],
      "stateMutability": "nonpayable",
      "type": "function"
    },
    {
      "inputs": [],
      "name": "supply",
      "outputs": [
        {
          "internalType": "address",
          "name": "",
          "type": "address"
        }
      ],
      "stateMutability": "nonpayable",
      "type": "function"
    },
    {
      "inputs": [
        {
          "internalType": "bytes32",
          "name": "_root",
          "type": "bytes32"
        },
        {
          "internalType": "bytes32[]",
          "name": "_proof",
          "type": "bytes32[]"
        },
        {
          "internalType": "bytes32",
          "name": "_valueToProve",
          "type": "bytes32"
        }
      ],
      "name": "verifyProof",
      "outputs": [
        {
          "internalType": "bool",
          "name": "",
          "type": "bool"
        }
      ],
      "stateMutability": "nonpayable",
      "type": "function"
    },
    {
      "inputs": [
        {
          "internalType": "address",
          "name": "_vault",
          "type": "address"
        },
        {
          "internalType": "uint256",
          "name": "_proposalId",
          "type": "uint256"
        }
      ],
      "name": "withdrawContribution",
      "outputs": [],
      "stateMutability": "nonpayable",
      "type": "function"
    }
  ],
  "bytecode": {
    "object": "0x60806040523480156200001157600080fd5b506040516200363c3803806200363c833981016040819052620000349162000114565b8115620000bd576040516001625e79b760e01b0319815260048101839052737109709ecfa91a80626ff3989d68f67f5b1dd12d9063ffa18649906024016020604051808303816000875af115801562000091573d6000803e3d6000fd5b505050506040513d601f19601f82011682018060405250810190620000b7919062000155565b620000bf565b825b600080546001600160a01b03199081166001600160a01b0393841617909155600193909355600280549093169116179055506200017a565b80516001600160a01b03811681146200010f57600080fd5b919050565b6000806000606084860312156200012a57600080fd5b6200013584620000f7565b9250602084015191506200014c60408501620000f7565b90509250925092565b6000602082840312156200016857600080fd5b6200017382620000f7565b9392505050565b6134b2806200018a6000396000f3fe6080604052600436106101d85760003560e01c806384bf153511610102578063c3a07df611610095578063dd1d259911610064578063dd1d2599146105bd578063ea36380a146105dd578063ed550443146105f0578063f23a6e611461060e57600080fd5b8063c3a07df614610551578063c5d15ebd14610573578063cbbb4ac514610593578063d87ed5e0146105a857600080fd5b8063ac9650d8116100d1578063ac9650d8146104c4578063b35db911146104f1578063b861619514610511578063bc197c811461053157600080fd5b806384bf153514610437578063884c05fb146104575780638c31f8e0146104845780639818ca59146104a457600080fd5b8063496a563d1161017a57806361b8ce8c1161014957806361b8ce8c146103cd5780636cb58c93146103e25780637b103999146104025780638406a2f91461041757600080fd5b8063496a563d1461034857806358161a42146103685780635c4bfa10146103985780635d58066f146103ad57600080fd5b8063150b7a02116101b6578063150b7a02146102ad578063295e6b7f146102e65780632e08d60214610308578063318293901461032857600080fd5b8063047fc9aa146101dd57806308d7090a1461020f5780630ef948531461023d575b600080fd5b3480156101e957600080fd5b506101f261062e565b6040516001600160a01b0390911681526020015b60405180910390f35b34801561021b57600080fd5b5061022f61022a3660046123ab565b61077c565b604051908152602001610206565b34801561024957600080fd5b5061025d6102583660046123dc565b6108c3565b60408051998a5260208a01989098529688019590955260608701939093526001600160a01b039091166080860152151560a085015260c084015260e0830152151561010082015261012001610206565b3480156102b957600080fd5b506102cd6102c83660046124f3565b610a3a565b6040516001600160e01b03199091168152602001610206565b3480156102f257600080fd5b506103066103013660046123dc565b610b8f565b005b34801561031457600080fd5b5061022f6103233660046125e7565b610ccb565b34801561033457600080fd5b5061030661034336600461269d565b610d6c565b34801561035457600080fd5b506103066103633660046127a6565b610eb1565b34801561037457600080fd5b50610388610383366004612823565b610f5b565b6040519015158152602001610206565b3480156103a457600080fd5b506101f26110ab565b3480156103b957600080fd5b506103066103c8366004612872565b61116f565b3480156103d957600080fd5b5061022f6112ab565b3480156103ee57600080fd5b506103066103fd3660046123dc565b611393565b34801561040e57600080fd5b506101f261143c565b34801561042357600080fd5b506103066104323660046128ca565b611500565b34801561044357600080fd5b506103886104523660046123dc565b611642565b34801561046357600080fd5b5061047761047236600461293f565b611793565b60405161020691906129ae565b34801561049057600080fd5b5061030661049f3660046128ca565b61187d565b3480156104b057600080fd5b506103066104bf3660046123dc565b611925565b3480156104d057600080fd5b506104e46104df3660046129c8565b6119ce565b6040516102069190612ad4565b3480156104fd57600080fd5b5061030661050c3660046123dc565b611aba565b34801561051d57600080fd5b5061047761052c366004612b36565b611b63565b34801561053d57600080fd5b506102cd61054c366004612b7a565b611c4f565b34801561055d57600080fd5b50610566611da7565b6040516102069190612c1a565b34801561057f57600080fd5b5061030661058e366004612c89565b611e97565b34801561059f57600080fd5b50610477611f41565b3480156105b457600080fd5b5061022f612031565b3480156105c957600080fd5b5061022f6105d8366004612d31565b6120f5565b6103066105eb366004612d53565b6121da565b3480156105fc57600080fd5b506002546001600160a01b03166101f2565b34801561061a57600080fd5b506102cd610629366004612d88565b612302565b600080546040516308b6ac0f60e31b815260008051602061345d833981519152916345b560789161066d916001600160a01b0316908190600401612df0565b600060405180830381600087803b15801561068757600080fd5b505af115801561069b573d6000803e3d6000fd5b50505050600260009054906101000a90046001600160a01b03166001600160a01b031663047fc9aa6040518163ffffffff1660e01b8152600401602060405180830381865afa1580156106f2573d6000803e3d6000fd5b505050506040513d601f19601f820116820180604052508101906107169190612e0a565b905060008051602061345d8339815191526001600160a01b03166390c5013b6040518163ffffffff1660e01b8152600401600060405180830381600087803b15801561076157600080fd5b505af1158015610775573d6000803e3d6000fd5b5050505090565b600080546040516308b6ac0f60e31b815260008051602061345d833981519152916345b56078916107bb916001600160a01b0316908190600401612df0565b600060405180830381600087803b1580156107d557600080fd5b505af11580156107e9573d6000803e3d6000fd5b505060025460405163046b848560e11b8152600481018690526001600160a01b0390911692506308d7090a91506024015b602060405180830381865afa158015610837573d6000803e3d6000fd5b505050506040513d601f19601f8201168201806040525081019061085b9190612e27565b905060008051602061345d8339815191526001600160a01b03166390c5013b6040518163ffffffff1660e01b8152600401600060405180830381600087803b1580156108a657600080fd5b505af11580156108ba573d6000803e3d6000fd5b50505050919050565b600080546040516308b6ac0f60e31b81528291829182918291829182918291829160008051602061345d833981519152916345b5607891610912916001600160a01b0316908190600401612df0565b600060405180830381600087803b15801561092c57600080fd5b505af1158015610940573d6000803e3d6000fd5b5050600254604051630ef9485360e01b81526001600160a01b038f81166004830152602482018f90529091169250630ef94853915060440161012060405180830381865afa158015610996573d6000803e3d6000fd5b505050506040513d601f19601f820116820180604052508101906109ba9190612e55565b98509850985098509850985098509850985060008051602061345d8339815191526001600160a01b03166390c5013b6040518163ffffffff1660e01b8152600401600060405180830381600087803b158015610a1557600080fd5b505af1158015610a29573d6000803e3d6000fd5b505050509295985092959850929598565b600080546040516308b6ac0f60e31b815260008051602061345d833981519152916345b5607891610a79916001600160a01b0316908190600401612df0565b600060405180830381600087803b158015610a9357600080fd5b505af1158015610aa7573d6000803e3d6000fd5b5050600254604051630a85bd0160e11b81526001600160a01b03909116925063150b7a029150610ae1908890889088908890600401612ed5565b6020604051808303816000875af1158015610b00573d6000803e3d6000fd5b505050506040513d601f19601f82011682018060405250810190610b249190612f12565b905060008051602061345d8339815191526001600160a01b03166390c5013b6040518163ffffffff1660e01b8152600401600060405180830381600087803b158015610b6f57600080fd5b505af1158015610b83573d6000803e3d6000fd5b50505050949350505050565b6000546040516308b6ac0f60e31b815260008051602061345d833981519152916345b5607891610bcd916001600160a01b0316908190600401612df0565b600060405180830381600087803b158015610be757600080fd5b505af1158015610bfb573d6000803e3d6000fd5b505060025460405163295e6b7f60e01b81526001600160a01b03868116600483015260248201869052909116925063295e6b7f91506044015b600060405180830381600087803b158015610c4e57600080fd5b505af1158015610c62573d6000803e3d6000fd5b5050505060008051602061345d8339815191526001600160a01b03166390c5013b6040518163ffffffff1660e01b8152600401600060405180830381600087803b158015610caf57600080fd5b505af1158015610cc3573d6000803e3d6000fd5b505050505050565b600080546040516308b6ac0f60e31b815260008051602061345d833981519152916345b5607891610d0a916001600160a01b0316908190600401612df0565b600060405180830381600087803b158015610d2457600080fd5b505af1158015610d38573d6000803e3d6000fd5b50506002546040516317046b0160e11b81526001600160a01b039091169250632e08d602915061081a9085906004016129ae565b6000546040516308b6ac0f60e31b815260008051602061345d833981519152916345b5607891610daa916001600160a01b0316908190600401612df0565b600060405180830381600087803b158015610dc457600080fd5b505af1158015610dd8573d6000803e3d6000fd5b5050600254604051630318293960e41b81526001600160a01b03909116925063318293909150610e1690899089908990899089908990600401612f68565b600060405180830381600087803b158015610e3057600080fd5b505af1158015610e44573d6000803e3d6000fd5b5050505060008051602061345d8339815191526001600160a01b03166390c5013b6040518163ffffffff1660e01b8152600401600060405180830381600087803b158015610e9157600080fd5b505af1158015610ea5573d6000803e3d6000fd5b50505050505050505050565b6000546040516308b6ac0f60e31b815260008051602061345d833981519152916345b5607891610eef916001600160a01b0316908190600401612df0565b600060405180830381600087803b158015610f0957600080fd5b505af1158015610f1d573d6000803e3d6000fd5b505060025460405163496a563d60e01b81526001600160a01b03909116925063496a563d9150610e1690899089908990899089908990600401612ff7565b600080546040516308b6ac0f60e31b815260008051602061345d833981519152916345b5607891610f9a916001600160a01b0316908190600401612df0565b600060405180830381600087803b158015610fb457600080fd5b505af1158015610fc8573d6000803e3d6000fd5b5050600254604051632c0b0d2160e11b81526001600160a01b0390911692506358161a42915061100090879087908790600401613040565b602060405180830381865afa15801561101d573d6000803e3d6000fd5b505050506040513d601f19601f820116820180604052508101906110419190613069565b905060008051602061345d8339815191526001600160a01b03166390c5013b6040518163ffffffff1660e01b8152600401600060405180830381600087803b15801561108c57600080fd5b505af11580156110a0573d6000803e3d6000fd5b505050509392505050565b600080546040516308b6ac0f60e31b815260008051602061345d833981519152916345b56078916110ea916001600160a01b0316908190600401612df0565b600060405180830381600087803b15801561110457600080fd5b505af1158015611118573d6000803e3d6000fd5b50505050600260009054906101000a90046001600160a01b03166001600160a01b0316635c4bfa106040518163ffffffff1660e01b8152600401602060405180830381865afa1580156106f2573d6000803e3d6000fd5b6000546040516308b6ac0f60e31b815260008051602061345d833981519152916345b56078916111ad916001600160a01b0316908190600401612df0565b600060405180830381600087803b1580156111c757600080fd5b505af11580156111db573d6000803e3d6000fd5b5050600254604051635d58066f60e01b81526001600160a01b039091169250635d58066f915061121390869086908690600401613084565b600060405180830381600087803b15801561122d57600080fd5b505af1158015611241573d6000803e3d6000fd5b5050505060008051602061345d8339815191526001600160a01b03166390c5013b6040518163ffffffff1660e01b8152600401600060405180830381600087803b15801561128e57600080fd5b505af11580156112a2573d6000803e3d6000fd5b50505050505050565b600080546040516308b6ac0f60e31b815260008051602061345d833981519152916345b56078916112ea916001600160a01b0316908190600401612df0565b600060405180830381600087803b15801561130457600080fd5b505af1158015611318573d6000803e3d6000fd5b50505050600260009054906101000a90046001600160a01b03166001600160a01b03166361b8ce8c6040518163ffffffff1660e01b8152600401602060405180830381865afa15801561136f573d6000803e3d6000fd5b505050506040513d601f19601f820116820180604052508101906107169190612e27565b6000546040516308b6ac0f60e31b815260008051602061345d833981519152916345b56078916113d1916001600160a01b0316908190600401612df0565b600060405180830381600087803b1580156113eb57600080fd5b505af11580156113ff573d6000803e3d6000fd5b5050600254604051636cb58c9360e01b81526001600160a01b038681166004830152602482018690529091169250636cb58c939150604401610c34565b600080546040516308b6ac0f60e31b815260008051602061345d833981519152916345b560789161147b916001600160a01b0316908190600401612df0565b600060405180830381600087803b15801561149557600080fd5b505af11580156114a9573d6000803e3d6000fd5b50505050600260009054906101000a90046001600160a01b03166001600160a01b0316637b1039996040518163ffffffff1660e01b8152600401602060405180830381865afa1580156106f2573d6000803e3d6000fd5b6000546040516308b6ac0f60e31b815260008051602061345d833981519152916345b560789161153e916001600160a01b0316908190600401612df0565b600060405180830381600087803b15801561155857600080fd5b505af115801561156c573d6000803e3d6000fd5b5050600254604051638406a2f960e01b81526001600160a01b039091169250638406a2f991506115a890889088908890889088906004016130b4565b600060405180830381600087803b1580156115c257600080fd5b505af11580156115d6573d6000803e3d6000fd5b5050505060008051602061345d8339815191526001600160a01b03166390c5013b6040518163ffffffff1660e01b8152600401600060405180830381600087803b15801561162357600080fd5b505af1158015611637573d6000803e3d6000fd5b505050505050505050565b600080546040516308b6ac0f60e31b815260008051602061345d833981519152916345b5607891611681916001600160a01b0316908190600401612df0565b600060405180830381600087803b15801561169b57600080fd5b505af11580156116af573d6000803e3d6000fd5b50506002546040516384bf153560e01b81526001600160a01b0387811660048301526024820187905290911692506384bf153591506044016020604051808303816000875af1158015611706573d6000803e3d6000fd5b505050506040513d601f19601f8201168201806040525081019061172a9190613069565b905060008051602061345d8339815191526001600160a01b03166390c5013b6040518163ffffffff1660e01b8152600401600060405180830381600087803b15801561177557600080fd5b505af1158015611789573d6000803e3d6000fd5b5050505092915050565b6000546040516308b6ac0f60e31b815260609160008051602061345d833981519152916345b56078916117d6916001600160a01b03909116908190600401612df0565b600060405180830381600087803b1580156117f057600080fd5b505af1158015611804573d6000803e3d6000fd5b505060025460405163884c05fb60e01b81526001600160a01b03909116925063884c05fb91506118389085906004016130f9565b600060405180830381865afa158015611855573d6000803e3d6000fd5b505050506040513d6000823e601f3d908101601f1916820160405261085b919081019061310c565b6000546040516308b6ac0f60e31b815260008051602061345d833981519152916345b56078916118bb916001600160a01b0316908190600401612df0565b600060405180830381600087803b1580156118d557600080fd5b505af11580156118e9573d6000803e3d6000fd5b50506002546040516304618fc760e51b81526001600160a01b039091169250638c31f8e091506115a890889088908890889088906004016130b4565b6000546040516308b6ac0f60e31b815260008051602061345d833981519152916345b5607891611963916001600160a01b0316908190600401612df0565b600060405180830381600087803b15801561197d57600080fd5b505af1158015611991573d6000803e3d6000fd5b5050600254604051639818ca5960e01b81526001600160a01b038681166004830152602482018690529091169250639818ca599150604401610c34565b6000546040516308b6ac0f60e31b815260609160008051602061345d833981519152916345b5607891611a11916001600160a01b03909116908190600401612df0565b600060405180830381600087803b158015611a2b57600080fd5b505af1158015611a3f573d6000803e3d6000fd5b5050600254604051631592ca1b60e31b81526001600160a01b03909116925063ac9650d89150611a73908590600401612ad4565b6000604051808303816000875af1158015611a92573d6000803e3d6000fd5b505050506040513d6000823e601f3d908101601f1916820160405261085b9190810190613191565b6000546040516308b6ac0f60e31b815260008051602061345d833981519152916345b5607891611af8916001600160a01b0316908190600401612df0565b600060405180830381600087803b158015611b1257600080fd5b505af1158015611b26573d6000803e3d6000fd5b505060025460405163b35db91160e01b81526001600160a01b03868116600483015260248201869052909116925063b35db9119150604401610c34565b6000546040516308b6ac0f60e31b815260609160008051602061345d833981519152916345b5607891611ba6916001600160a01b03909116908190600401612df0565b600060405180830381600087803b158015611bc057600080fd5b505af1158015611bd4573d6000803e3d6000fd5b505060025460405163b861619560e01b81526001600160a01b03909116925063b86161959150611c0a9086908690600401613270565b600060405180830381865afa158015611c27573d6000803e3d6000fd5b505050506040513d6000823e601f3d908101601f1916820160405261172a919081019061310c565b600080546040516308b6ac0f60e31b815260008051602061345d833981519152916345b5607891611c8e916001600160a01b0316908190600401612df0565b600060405180830381600087803b158015611ca857600080fd5b505af1158015611cbc573d6000803e3d6000fd5b505060025460405163bc197c8160e01b81526001600160a01b03909116925063bc197c819150611cf89089908990899089908990600401613292565b6020604051808303816000875af1158015611d17573d6000803e3d6000fd5b505050506040513d601f19601f82011682018060405250810190611d3b9190612f12565b905060008051602061345d8339815191526001600160a01b03166390c5013b6040518163ffffffff1660e01b8152600401600060405180830381600087803b158015611d8657600080fd5b505af1158015611d9a573d6000803e3d6000fd5b5050505095945050505050565b6000546040516308b6ac0f60e31b815260609160008051602061345d833981519152916345b5607891611dea916001600160a01b03909116908190600401612df0565b600060405180830381600087803b158015611e0457600080fd5b505af1158015611e18573d6000803e3d6000fd5b50505050600260009054906101000a90046001600160a01b03166001600160a01b031663c3a07df66040518163ffffffff1660e01b8152600401600060405180830381865afa158015611e6f573d6000803e3d6000fd5b505050506040513d6000823e601f3d908101601f1916820160405261071691908101906132e4565b6000546040516308b6ac0f60e31b815260008051602061345d833981519152916345b5607891611ed5916001600160a01b0316908190600401612df0565b600060405180830381600087803b158015611eef57600080fd5b505af1158015611f03573d6000803e3d6000fd5b505060025460405163c5d15ebd60e01b81526001600160a01b03909116925063c5d15ebd9150610e16908990899089908990899089906004016133bc565b6000546040516308b6ac0f60e31b815260609160008051602061345d833981519152916345b5607891611f84916001600160a01b03909116908190600401612df0565b600060405180830381600087803b158015611f9e57600080fd5b505af1158015611fb2573d6000803e3d6000fd5b50505050600260009054906101000a90046001600160a01b03166001600160a01b031663cbbb4ac56040518163ffffffff1660e01b8152600401600060405180830381865afa158015612009573d6000803e3d6000fd5b505050506040513d6000823e601f3d908101601f19168201604052610716919081019061310c565b600080546040516308b6ac0f60e31b815260008051602061345d833981519152916345b5607891612070916001600160a01b0316908190600401612df0565b600060405180830381600087803b15801561208a57600080fd5b505af115801561209e573d6000803e3d6000fd5b50505050600260009054906101000a90046001600160a01b03166001600160a01b031663d87ed5e06040518163ffffffff1660e01b8152600401602060405180830381865afa15801561136f573d6000803e3d6000fd5b600080546040516308b6ac0f60e31b815260008051602061345d833981519152916345b5607891612134916001600160a01b0316908190600401612df0565b600060405180830381600087803b15801561214e57600080fd5b505af1158015612162573d6000803e3d6000fd5b505060025460405163dd1d259960e01b815260048101879052602481018690526001600160a01b03909116925063dd1d25999150604401602060405180830381865afa1580156121b6573d6000803e3d6000fd5b505050506040513d601f19601f8201168201806040525081019061172a9190612e27565b6000546040516308b6ac0f60e31b815260008051602061345d833981519152916345b5607891612218916001600160a01b0316908190600401612df0565b600060405180830381600087803b15801561223257600080fd5b505af1158015612246573d6000803e3d6000fd5b505060025460405163751b1c0560e11b81526001600160a01b0387811660048301526024820187905260448201869052909116925063ea36380a915034906064016000604051808303818588803b1580156122a057600080fd5b505af11580156122b4573d6000803e3d6000fd5b505050505060008051602061345d8339815191526001600160a01b03166390c5013b6040518163ffffffff1660e01b8152600401600060405180830381600087803b15801561128e57600080fd5b600080546040516308b6ac0f60e31b815260008051602061345d833981519152916345b5607891612341916001600160a01b0316908190600401612df0565b600060405180830381600087803b15801561235b57600080fd5b505af115801561236f573d6000803e3d6000fd5b505060025460405163f23a6e6160e01b81526001600160a01b03909116925063f23a6e619150611cf89089908990899089908990600401613422565b6000602082840312156123bd57600080fd5b5035919050565b6001600160a01b03811681146123d957600080fd5b50565b600080604083850312156123ef57600080fd5b82356123fa816123c4565b946020939093013593505050565b634e487b7160e01b600052604160045260246000fd5b604051606081016001600160401b038111828210171561244057612440612408565b60405290565b604051601f8201601f191681016001600160401b038111828210171561246e5761246e612408565b604052919050565b60006001600160401b0382111561248f5761248f612408565b50601f01601f191660200190565b600082601f8301126124ae57600080fd5b81356124c16124bc82612476565b612446565b8181528460208386010111156124d657600080fd5b816020850160208301376000918101602001919091529392505050565b6000806000806080858703121561250957600080fd5b8435612514816123c4565b93506020850135612524816123c4565b92506040850135915060608501356001600160401b0381111561254657600080fd5b6125528782880161249d565b91505092959194509250565b60006001600160401b0382111561257757612577612408565b5060051b60200190565b600082601f83011261259257600080fd5b813560206125a26124bc8361255e565b82815260059290921b840181019181810190868411156125c157600080fd5b8286015b848110156125dc57803583529183019183016125c5565b509695505050505050565b6000602082840312156125f957600080fd5b81356001600160401b0381111561260f57600080fd5b61261b84828501612581565b949350505050565b600082601f83011261263457600080fd5b813560206126446124bc8361255e565b82815260059290921b8401810191818101908684111561266357600080fd5b8286015b848110156125dc57803561267a816123c4565b8352918301918301612667565b6001600160e01b0319811681146123d957600080fd5b60008060008060008060c087890312156126b657600080fd5b86356126c1816123c4565b95506020878101356001600160401b03808211156126de57600080fd5b6126ea8b838c01612623565b975060408a013591508082111561270057600080fd5b61270c8b838c01612623565b965060608a013591508082111561272257600080fd5b508801601f81018a1361273457600080fd5b80356127426124bc8261255e565b81815260059190911b8201830190838101908c83111561276157600080fd5b928401925b8284101561278857833561277981612687565b82529284019290840190612766565b999c989b50969960808101359860a090910135975095505050505050565b60008060008060008060c087890312156127bf57600080fd5b86356127ca816123c4565b95506020870135945060408701356127e1816123c4565b9350606087013592506080870135915060a08701356001600160401b0381111561280a57600080fd5b61281689828a01612581565b9150509295509295509295565b60008060006060848603121561283857600080fd5b8335925060208401356001600160401b0381111561285557600080fd5b61286186828701612581565b925050604084013590509250925092565b60008060006060848603121561288757600080fd5b8335612892816123c4565b92506020840135915060408401356001600160401b038111156128b457600080fd5b6128c086828701612581565b9150509250925092565b600080600080600060a086880312156128e257600080fd5b85356128ed816123c4565b9450602086013593506040860135612904816123c4565b92506060860135915060808601356001600160401b0381111561292657600080fd5b61293288828901612581565b9150509295509295909350565b60006020828403121561295157600080fd5b81356001600160401b0381111561296757600080fd5b61261b84828501612623565b600081518084526020808501945080840160005b838110156129a357815187529582019590820190600101612987565b509495945050505050565b6020815260006129c16020830184612973565b9392505050565b600060208083850312156129db57600080fd5b82356001600160401b03808211156129f257600080fd5b818501915085601f830112612a0657600080fd5b8135612a146124bc8261255e565b81815260059190911b83018401908481019088831115612a3357600080fd5b8585015b83811015612a6b57803585811115612a4f5760008081fd5b612a5d8b89838a010161249d565b845250918601918601612a37565b5098975050505050505050565b60005b83811015612a93578181015183820152602001612a7b565b83811115612aa2576000848401525b50505050565b60008151808452612ac0816020860160208601612a78565b601f01601f19169290920160200192915050565b6000602080830181845280855180835260408601915060408160051b870101925083870160005b82811015612b2957603f19888603018452612b17858351612aa8565b94509285019290850190600101612afb565b5092979650505050505050565b60008060408385031215612b4957600080fd5b82356001600160401b03811115612b5f57600080fd5b612b6b85828601612581565b95602094909401359450505050565b600080600080600060a08688031215612b9257600080fd5b8535612b9d816123c4565b94506020860135612bad816123c4565b935060408601356001600160401b0380821115612bc957600080fd5b612bd589838a01612581565b94506060880135915080821115612beb57600080fd5b612bf789838a01612581565b93506080880135915080821115612c0d57600080fd5b506129328882890161249d565b602080825282518282018190526000919060409081850190868401855b82811015612c7c57815180516001600160a01b0390811686528782015116878601528501516001600160e01b0319168585015260609093019290850190600101612c37565b5091979650505050505050565b60008060008060008060c08789031215612ca257600080fd5b8635612cad816123c4565b9550602087013594506040870135612cc4816123c4565b935060608701356001600160401b0380821115612ce057600080fd5b612cec8a838b01612581565b94506080890135915080821115612d0257600080fd5b612d0e8a838b01612581565b935060a0890135915080821115612d2457600080fd5b5061281689828a01612581565b60008060408385031215612d4457600080fd5b50508035926020909101359150565b600080600060608486031215612d6857600080fd5b8335612d73816123c4565b95602085013595506040909401359392505050565b600080600080600060a08688031215612da057600080fd5b8535612dab816123c4565b94506020860135612dbb816123c4565b9350604086013592506060860135915060808601356001600160401b03811115612de457600080fd5b6129328882890161249d565b6001600160a01b0392831681529116602082015260400190565b600060208284031215612e1c57600080fd5b81516129c1816123c4565b600060208284031215612e3957600080fd5b5051919050565b80518015158114612e5057600080fd5b919050565b60008060008060008060008060006101208a8c031215612e7457600080fd5b8951985060208a0151975060408a0151965060608a0151955060808a0151612e9b816123c4565b9450612ea960a08b01612e40565b935060c08a0151925060e08a01519150612ec66101008b01612e40565b90509295985092959850929598565b6001600160a01b0385811682528416602082015260408101839052608060608201819052600090612f0890830184612aa8565b9695505050505050565b600060208284031215612f2457600080fd5b81516129c181612687565b600081518084526020808501945080840160005b838110156129a35781516001600160a01b031687529582019590820190600101612f43565b6001600160a01b038716815260c06020808301829052600091612f8d90840189612f2f565b8381036040850152612f9f8189612f2f565b8481036060860152875180825283890192509083019060005b81811015612fde5783516001600160e01b03191683529284019291840191600101612fb8565b5050608085019690965250505060a00152949350505050565b600060018060a01b03808916835287602084015280871660408401525084606083015283608083015260c060a083015261303460c0830184612973565b98975050505050505050565b8381526060602082015260006130596060830185612973565b9050826040830152949350505050565b60006020828403121561307b57600080fd5b6129c182612e40565b60018060a01b03841681528260208201526060604082015260006130ab6060830184612973565b95945050505050565b6001600160a01b03868116825260208201869052841660408201526060810183905260a0608082018190526000906130ee90830184612973565b979650505050505050565b6020815260006129c16020830184612f2f565b6000602080838503121561311f57600080fd5b82516001600160401b0381111561313557600080fd5b8301601f8101851361314657600080fd5b80516131546124bc8261255e565b81815260059190911b8201830190838101908783111561317357600080fd5b928401925b828410156130ee57835182529284019290840190613178565b600060208083850312156131a457600080fd5b82516001600160401b03808211156131bb57600080fd5b818501915085601f8301126131cf57600080fd5b81516131dd6124bc8261255e565b81815260059190911b830184019084810190888311156131fc57600080fd5b8585015b83811015612a6b578051858111156132185760008081fd5b8601603f81018b1361322a5760008081fd5b87810151604061323c6124bc83612476565b8281528d828486010111156132515760008081fd5b613260838c8301848701612a78565b8652505050918601918601613200565b6040815260006132836040830185612973565b90508260208301529392505050565b6001600160a01b0386811682528516602082015260a0604082018190526000906132be90830186612973565b82810360608401526132d08186612973565b905082810360808401526130348185612aa8565b600060208083850312156132f757600080fd5b82516001600160401b0381111561330d57600080fd5b8301601f8101851361331e57600080fd5b805161332c6124bc8261255e565b8181526060918202830184019184820191908884111561334b57600080fd5b938501935b838510156133b05780858a0312156133685760008081fd5b61337061241e565b855161337b816123c4565b81528587015161338a816123c4565b8188015260408681015161339d81612687565b9082015283529384019391850191613350565b50979650505050505050565b6001600160a01b038781168252602082018790528516604082015260c0606082018190526000906133ef90830186612973565b82810360808401526134018186612973565b905082810360a08401526134158185612973565b9998505050505050505050565b6001600160a01b03868116825285166020820152604081018490526060810183905260a0608082018190526000906130ee90830184612aa856fe0000000000000000000000007109709ecfa91a80626ff3989d68f67f5b1dd12da2646970667358221220895ffcb4e27e92e3c6d6955fe4ca1456b74dc11c3c9afd942eef99e8405a86ac64736f6c634300080d0033",
    "linkReferences": {}
  },
  "methodIdentifiers": {
    "PROPOSAL_PERIOD()": "d87ed5e0",
    "batchMigrateVaultERC1155(address,uint256,address,uint256[],uint256[],bytes32[])": "c5d15ebd",
    "buyout()": "5c4bfa10",
    "commit(address,uint256)": "84bf1535",
    "generateMerkleTree(address[])": "884c05fb",
    "getLeafNodes()": "cbbb4ac5",
    "getPermissions()": "c3a07df6",
    "getProof(bytes32[],uint256)": "b8616195",
    "getRoot(bytes32[])": "2e08d602",
    "hashLeafPairs(bytes32,bytes32)": "dd1d2599",
    "join(address,uint256,uint256)": "ea36380a",
    "leave(address,uint256)": "6cb58c93",
    "log2ceil_naive(uint256)": "08d7090a",
    "migrateFractions(address,uint256)": "9818ca59",
    "migrateVaultERC1155(address,uint256,address,uint256,uint256,bytes32[])": "496a563d",
    "migrateVaultERC20(address,uint256,address,uint256,bytes32[])": "8406a2f9",
    "migrateVaultERC721(address,uint256,address,uint256,bytes32[])": "8c31f8e0",
    "migrationInfo(address,uint256)": "0ef94853",
    "multicall(bytes[])": "ac9650d8",
    "nextId()": "61b8ce8c",
    "onERC1155BatchReceived(address,address,uint256[],uint256[],bytes)": "bc197c81",
    "onERC1155Received(address,address,uint256,uint256,bytes)": "f23a6e61",
    "onERC721Received(address,address,uint256,bytes)": "150b7a02",
    "propose(address,address[],address[],bytes4[],uint256,uint256)": "31829390",
    "proxyContract()": "ed550443",
    "registry()": "7b103999",
    "settleFractions(address,uint256,bytes32[])": "5d58066f",
    "settleVault(address,uint256)": "295e6b7f",
    "supply()": "047fc9aa",
    "verifyProof(bytes32,bytes32[],bytes32)": "58161a42",
    "withdrawContribution(address,uint256)": "b35db911"
  },
  "id": 93
}