{
  "abi": [
    {
      "inputs": [
        {
          "internalType": "address",
          "name": "_addr",
          "type": "address"
        },
        {
          "internalType": "uint256",
          "name": "_privateKey",
          "type": "uint256"
        },
        {
          "internalType": "address",
          "name": "_target",
          "type": "address"
        }
      ],
      "stateMutability": "nonpayable",
      "type": "constructor"
    },
    {
      "inputs": [],
      "name": "PROPOSAL_PERIOD",
      "outputs": [
        {
          "internalType": "uint256",
          "name": "",
          "type": "uint256"
        }
      ],
      "stateMutability": "nonpayable",
      "type": "function"
    },
    {
      "inputs": [],
      "name": "REJECTION_PERIOD",
      "outputs": [
        {
          "internalType": "uint256",
          "name": "",
          "type": "uint256"
        }
      ],
      "stateMutability": "nonpayable",
      "type": "function"
    },
    {
      "inputs": [],
      "name": "WETH_ADDRESS",
      "outputs": [
        {
          "internalType": "address payable",
          "name": "",
          "type": "address"
        }
      ],
      "stateMutability": "nonpayable",
      "type": "function"
    },
    {
      "inputs": [
        {
          "internalType": "address",
          "name": "_vault",
          "type": "address"
        },
        {
          "internalType": "address",
          "name": "_token",
          "type": "address"
        },
        {
          "internalType": "address",
          "name": "_to",
          "type": "address"
        },
        {
          "internalType": "uint256[]",
          "name": "_ids",
          "type": "uint256[]"
        },
        {
          "internalType": "uint256[]",
          "name": "_values",
          "type": "uint256[]"
        },
        {
          "internalType": "bytes32[]",
          "name": "_erc1155BatchTransferProof",
          "type": "bytes32[]"
        }
      ],
      "name": "batchWithdrawERC1155",
      "outputs": [],
      "stateMutability": "nonpayable",
      "type": "function"
    },
    {
      "inputs": [
        {
          "internalType": "address",
          "name": "_vault",
          "type": "address"
        },
        {
          "internalType": "uint256",
          "name": "_amount",
          "type": "uint256"
        }
      ],
      "name": "buyFractions",
      "outputs": [],
      "stateMutability": "payable",
      "type": "function"
    },
    {
      "inputs": [
        {
          "internalType": "address",
          "name": "arg0",
          "type": "address"
        }
      ],
      "name": "buyoutInfo",
      "outputs": [
        {
          "internalType": "uint256",
          "name": "",
          "type": "uint256"
        },
        {
          "internalType": "address",
          "name": "",
          "type": "address"
        },
        {
          "internalType": "enum State",
          "name": "",
          "type": "uint8"
        },
        {
          "internalType": "uint256",
          "name": "",
          "type": "uint256"
        },
        {
          "internalType": "uint256",
          "name": "",
          "type": "uint256"
        },
        {
          "internalType": "uint256",
          "name": "",
          "type": "uint256"
        }
      ],
      "stateMutability": "nonpayable",
      "type": "function"
    },
    {
      "inputs": [
        {
          "internalType": "address",
          "name": "_vault",
          "type": "address"
        },
        {
          "internalType": "bytes32[]",
          "name": "_burnProof",
          "type": "bytes32[]"
        }
      ],
      "name": "cash",
      "outputs": [],
      "stateMutability": "nonpayable",
      "type": "function"
    },
    {
      "inputs": [
        {
          "internalType": "address",
          "name": "_vault",
          "type": "address"
        },
        {
          "internalType": "bytes32[]",
          "name": "_burnProof",
          "type": "bytes32[]"
        }
      ],
      "name": "end",
      "outputs": [],
      "stateMutability": "nonpayable",
      "type": "function"
    },
    {
      "inputs": [],
      "name": "getLeafNodes",
      "outputs": [
        {
          "internalType": "bytes32[]",
          "name": "",
          "type": "bytes32[]"
        }
      ],
      "stateMutability": "nonpayable",
      "type": "function"
    },
    {
      "inputs": [],
      "name": "getPermissions",
      "outputs": [
        {
          "components": [
            {
              "internalType": "address",
              "name": "module",
              "type": "address"
            },
            {
              "internalType": "address",
              "name": "target",
              "type": "address"
            },
            {
              "internalType": "bytes4",
              "name": "selector",
              "type": "bytes4"
            }
          ],
          "internalType": "struct Permission[]",
          "name": "",
          "type": "tuple[]"
        }
      ],
      "stateMutability": "nonpayable",
      "type": "function"
    },
    {
      "inputs": [
        {
          "internalType": "bytes[]",
          "name": "_data",
          "type": "bytes[]"
        }
      ],
      "name": "multicall",
      "outputs": [
        {
          "internalType": "bytes[]",
          "name": "",
          "type": "bytes[]"
        }
      ],
      "stateMutability": "nonpayable",
      "type": "function"
    },
    {
      "inputs": [
        {
          "internalType": "address",
          "name": "arg0",
          "type": "address"
        },
        {
          "internalType": "address",
          "name": "arg1",
          "type": "address"
        },
        {
          "internalType": "uint256[]",
          "name": "arg2",
          "type": "uint256[]"
        },
        {
          "internalType": "uint256[]",
          "name": "arg3",
          "type": "uint256[]"
        },
        {
          "internalType": "bytes",
          "name": "arg4",
          "type": "bytes"
        }
      ],
      "name": "onERC1155BatchReceived",
      "outputs": [
        {
          "internalType": "bytes4",
          "name": "",
          "type": "bytes4"
        }
      ],
      "stateMutability": "nonpayable",
      "type": "function"
    },
    {
      "inputs": [
        {
          "internalType": "address",
          "name": "arg0",
          "type": "address"
        },
        {
          "internalType": "address",
          "name": "arg1",
          "type": "address"
        },
        {
          "internalType": "uint256",
          "name": "arg2",
          "type": "uint256"
        },
        {
          "internalType": "uint256",
          "name": "arg3",
          "type": "uint256"
        },
        {
          "internalType": "bytes",
          "name": "arg4",
          "type": "bytes"
        }
      ],
      "name": "onERC1155Received",
      "outputs": [
        {
          "internalType": "bytes4",
          "name": "",
          "type": "bytes4"
        }
      ],
      "stateMutability": "nonpayable",
      "type": "function"
    },
    {
      "inputs": [
        {
          "internalType": "address",
          "name": "arg0",
          "type": "address"
        },
        {
          "internalType": "address",
          "name": "arg1",
          "type": "address"
        },
        {
          "internalType": "uint256",
          "name": "arg2",
          "type": "uint256"
        },
        {
          "internalType": "bytes",
          "name": "arg3",
          "type": "bytes"
        }
      ],
      "name": "onERC721Received",
      "outputs": [
        {
          "internalType": "bytes4",
          "name": "",
          "type": "bytes4"
        }
      ],
      "stateMutability": "nonpayable",
      "type": "function"
    },
    {
      "inputs": [],
      "name": "proxyContract",
      "outputs": [
        {
          "internalType": "address",
          "name": "",
          "type": "address"
        }
      ],
      "stateMutability": "view",
      "type": "function"
    },
    {
      "inputs": [
        {
          "internalType": "address",
          "name": "_vault",
          "type": "address"
        },
        {
          "internalType": "bytes32[]",
          "name": "_burnProof",
          "type": "bytes32[]"
        }
      ],
      "name": "redeem",
      "outputs": [],
      "stateMutability": "nonpayable",
      "type": "function"
    },
    {
      "inputs": [],
      "name": "registry",
      "outputs": [
        {
          "internalType": "address",
          "name": "",
          "type": "address"
        }
      ],
      "stateMutability": "nonpayable",
      "type": "function"
    },
    {
      "inputs": [
        {
          "internalType": "address",
          "name": "_token",
          "type": "address"
        },
        {
          "internalType": "uint256",
          "name": "_id",
          "type": "uint256"
        },
        {
          "internalType": "bool",
          "name": "_approved",
          "type": "bool"
        },
        {
          "internalType": "uint256",
          "name": "_deadline",
          "type": "uint256"
        },
        {
          "internalType": "uint8",
          "name": "_v",
          "type": "uint8"
        },
        {
          "internalType": "bytes32",
          "name": "_r",
          "type": "bytes32"
        },
        {
          "internalType": "bytes32",
          "name": "_s",
          "type": "bytes32"
        }
      ],
      "name": "selfPermit",
      "outputs": [],
      "stateMutability": "nonpayable",
      "type": "function"
    },
    {
      "inputs": [
        {
          "internalType": "address",
          "name": "_token",
          "type": "address"
        },
        {
          "internalType": "bool",
          "name": "_approved",
          "type": "bool"
        },
        {
          "internalType": "uint256",
          "name": "_deadline",
          "type": "uint256"
        },
        {
          "internalType": "uint8",
          "name": "_v",
          "type": "uint8"
        },
        {
          "internalType": "bytes32",
          "name": "_r",
          "type": "bytes32"
        },
        {
          "internalType": "bytes32",
          "name": "_s",
          "type": "bytes32"
        }
      ],
      "name": "selfPermitAll",
      "outputs": [],
      "stateMutability": "nonpayable",
      "type": "function"
    },
    {
      "inputs": [
        {
          "internalType": "address",
          "name": "_vault",
          "type": "address"
        },
        {
          "internalType": "uint256",
          "name": "_amount",
          "type": "uint256"
        }
      ],
      "name": "sellFractions",
      "outputs": [],
      "stateMutability": "nonpayable",
      "type": "function"
    },
    {
      "inputs": [
        {
          "internalType": "address",
          "name": "_vault",
          "type": "address"
        }
      ],
      "name": "start",
      "outputs": [],
      "stateMutability": "payable",
      "type": "function"
    },
    {
      "inputs": [],
      "name": "supply",
      "outputs": [
        {
          "internalType": "address",
          "name": "",
          "type": "address"
        }
      ],
      "stateMutability": "nonpayable",
      "type": "function"
    },
    {
      "inputs": [],
      "name": "transfer",
      "outputs": [
        {
          "internalType": "address",
          "name": "",
          "type": "address"
        }
      ],
      "stateMutability": "nonpayable",
      "type": "function"
    },
    {
      "inputs": [
        {
          "internalType": "address",
          "name": "_vault",
          "type": "address"
        },
        {
          "internalType": "address",
          "name": "_token",
          "type": "address"
        },
        {
          "internalType": "address",
          "name": "_to",
          "type": "address"
        },
        {
          "internalType": "uint256",
          "name": "_id",
          "type": "uint256"
        },
        {
          "internalType": "uint256",
          "name": "_value",
          "type": "uint256"
        },
        {
          "internalType": "bytes32[]",
          "name": "_erc1155TransferProof",
          "type": "bytes32[]"
        }
      ],
      "name": "withdrawERC1155",
      "outputs": [],
      "stateMutability": "nonpayable",
      "type": "function"
    },
    {
      "inputs": [
        {
          "internalType": "address",
          "name": "_vault",
          "type": "address"
        },
        {
          "internalType": "address",
          "name": "_token",
          "type": "address"
        },
        {
          "internalType": "address",
          "name": "_to",
          "type": "address"
        },
        {
          "internalType": "uint256",
          "name": "_value",
          "type": "uint256"
        },
        {
          "internalType": "bytes32[]",
          "name": "_erc20TransferProof",
          "type": "bytes32[]"
        }
      ],
      "name": "withdrawERC20",
      "outputs": [],
      "stateMutability": "nonpayable",
      "type": "function"
    },
    {
      "inputs": [
        {
          "internalType": "address",
          "name": "_vault",
          "type": "address"
        },
        {
          "internalType": "address",
          "name": "_token",
          "type": "address"
        },
        {
          "internalType": "address",
          "name": "_to",
          "type": "address"
        },
        {
          "internalType": "uint256",
          "name": "_tokenId",
          "type": "uint256"
        },
        {
          "internalType": "bytes32[]",
          "name": "_erc721TransferProof",
          "type": "bytes32[]"
        }
      ],
      "name": "withdrawERC721",
      "outputs": [],
      "stateMutability": "nonpayable",
      "type": "function"
    }
  ],
  "bytecode": {
    "object": "0x60806040523480156200001157600080fd5b5060405162002d3d38038062002d3d833981016040819052620000349162000114565b8115620000bd576040516001625e79b760e01b0319815260048101839052737109709ecfa91a80626ff3989d68f67f5b1dd12d9063ffa18649906024016020604051808303816000875af115801562000091573d6000803e3d6000fd5b505050506040513d601f19601f82011682018060405250810190620000b7919062000155565b620000bf565b825b600080546001600160a01b03199081166001600160a01b0393841617909155600193909355600280549093169116179055506200017a565b80516001600160a01b03811681146200010f57600080fd5b919050565b6000806000606084860312156200012a57600080fd5b6200013584620000f7565b9250602084015191506200014c60408501620000f7565b90509250925092565b6000602082840312156200016857600080fd5b6200017382620000f7565b9392505050565b612bb3806200018a6000396000f3fe6080604052600436106101815760003560e01c8063b1117e9e116100d1578063c42a58171161008a578063dd0b281e11610064578063dd0b281e14610460578063ed55044314610473578063eea4773014610491578063f23a6e61146104b157600080fd5b8063c42a581714610409578063cbbb4ac514610429578063d87ed5e01461044b57600080fd5b8063b1117e9e14610332578063b43adf1114610352578063b5bb74a714610372578063bc197c81146103a4578063bc95831b146103c4578063c3a07df6146103e757600080fd5b80637a607ce61161013e578063867713371161011857806386771337146102bd5780638a4068dd146102d0578063a0e05626146102e5578063ac9650d81461030557600080fd5b80637a607ce6146102685780637b103999146102885780637d0c4eae1461029d57600080fd5b8063040141e514610186578063047fc9aa146101b8578063150b7a02146101cd5780631579529a146102065780634acb7fd4146102285780634e8c70f914610248575b600080fd5b34801561019257600080fd5b5061019b6104d1565b6040516001600160a01b0390911681526020015b60405180910390f35b3480156101c457600080fd5b5061019b61061f565b3480156101d957600080fd5b506101ed6101e8366004611e88565b6106e3565b6040516001600160e01b031990911681526020016101af565b34801561021257600080fd5b50610226610221366004611f7c565b610838565b005b34801561023457600080fd5b50610226610243366004611fcb565b610971565b34801561025457600080fd5b50610226610263366004611f7c565b610a1a565b34801561027457600080fd5b50610226610283366004611f7c565b610abc565b34801561029457600080fd5b5061019b610b5e565b3480156102a957600080fd5b506102266102b8366004611ff7565b610c22565b6102266102cb366004611fcb565b610d67565b3480156102dc57600080fd5b5061019b610e88565b3480156102f157600080fd5b506102266103003660046120b5565b610f4c565b34801561031157600080fd5b50610325610320366004612133565b61108e565b6040516101af919061223f565b34801561033e57600080fd5b5061022661034d3660046122c7565b6111e2565b34801561035e57600080fd5b5061022661036d3660046120b5565b6112aa565b34801561037e57600080fd5b5061039261038d366004612328565b611352565b6040516101af9695949392919061234c565b3480156103b057600080fd5b506101ed6103bf3660046123a3565b6114b3565b3480156103d057600080fd5b506103d961160b565b6040519081526020016101af565b3480156103f357600080fd5b506103fc6116f3565b6040516101af9190612443565b34801561041557600080fd5b506102266104243660046124b2565b6117e3565b34801561043557600080fd5b5061043e61188d565b6040516101af9190612566565b34801561045757600080fd5b506103d961197d565b61022661046e366004612328565b611a41565b34801561047f57600080fd5b506002546001600160a01b031661019b565b34801561049d57600080fd5b506102266104ac366004612579565b611b76565b3480156104bd57600080fd5b506101ed6104cc3660046125e5565b611cdc565b600080546040516308b6ac0f60e31b8152600080516020612b5e833981519152916345b5607891610510916001600160a01b031690819060040161264d565b600060405180830381600087803b15801561052a57600080fd5b505af115801561053e573d6000803e3d6000fd5b50505050600260009054906101000a90046001600160a01b03166001600160a01b031663040141e56040518163ffffffff1660e01b8152600401602060405180830381865afa158015610595573d6000803e3d6000fd5b505050506040513d601f19601f820116820180604052508101906105b99190612667565b9050600080516020612b5e8339815191526001600160a01b03166390c5013b6040518163ffffffff1660e01b8152600401600060405180830381600087803b15801561060457600080fd5b505af1158015610618573d6000803e3d6000fd5b5050505090565b600080546040516308b6ac0f60e31b8152600080516020612b5e833981519152916345b560789161065e916001600160a01b031690819060040161264d565b600060405180830381600087803b15801561067857600080fd5b505af115801561068c573d6000803e3d6000fd5b50505050600260009054906101000a90046001600160a01b03166001600160a01b031663047fc9aa6040518163ffffffff1660e01b8152600401602060405180830381865afa158015610595573d6000803e3d6000fd5b600080546040516308b6ac0f60e31b8152600080516020612b5e833981519152916345b5607891610722916001600160a01b031690819060040161264d565b600060405180830381600087803b15801561073c57600080fd5b505af1158015610750573d6000803e3d6000fd5b5050600254604051630a85bd0160e11b81526001600160a01b03909116925063150b7a02915061078a908890889088908890600401612684565b6020604051808303816000875af11580156107a9573d6000803e3d6000fd5b505050506040513d601f19601f820116820180604052508101906107cd91906126d9565b9050600080516020612b5e8339815191526001600160a01b03166390c5013b6040518163ffffffff1660e01b8152600401600060405180830381600087803b15801561081857600080fd5b505af115801561082c573d6000803e3d6000fd5b50505050949350505050565b6000546040516308b6ac0f60e31b8152600080516020612b5e833981519152916345b5607891610876916001600160a01b031690819060040161264d565b600060405180830381600087803b15801561089057600080fd5b505af11580156108a4573d6000803e3d6000fd5b5050600254604051630abca94d60e11b81526001600160a01b039091169250631579529a91506108da90859085906004016126f4565b600060405180830381600087803b1580156108f457600080fd5b505af1158015610908573d6000803e3d6000fd5b50505050600080516020612b5e8339815191526001600160a01b03166390c5013b6040518163ffffffff1660e01b8152600401600060405180830381600087803b15801561095557600080fd5b505af1158015610969573d6000803e3d6000fd5b505050505050565b6000546040516308b6ac0f60e31b8152600080516020612b5e833981519152916345b56078916109af916001600160a01b031690819060040161264d565b600060405180830381600087803b1580156109c957600080fd5b505af11580156109dd573d6000803e3d6000fd5b50506002546040516312b2dff560e21b81526001600160a01b038681166004830152602482018690529091169250634acb7fd491506044016108da565b6000546040516308b6ac0f60e31b8152600080516020612b5e833981519152916345b5607891610a58916001600160a01b031690819060040161264d565b600060405180830381600087803b158015610a7257600080fd5b505af1158015610a86573d6000803e3d6000fd5b5050600254604051634e8c70f960e01b81526001600160a01b039091169250634e8c70f991506108da90859085906004016126f4565b6000546040516308b6ac0f60e31b8152600080516020612b5e833981519152916345b5607891610afa916001600160a01b031690819060040161264d565b600060405180830381600087803b158015610b1457600080fd5b505af1158015610b28573d6000803e3d6000fd5b5050600254604051633d303e7360e11b81526001600160a01b039091169250637a607ce691506108da90859085906004016126f4565b600080546040516308b6ac0f60e31b8152600080516020612b5e833981519152916345b5607891610b9d916001600160a01b031690819060040161264d565b600060405180830381600087803b158015610bb757600080fd5b505af1158015610bcb573d6000803e3d6000fd5b50505050600260009054906101000a90046001600160a01b03166001600160a01b0316637b1039996040518163ffffffff1660e01b8152600401602060405180830381865afa158015610595573d6000803e3d6000fd5b6000546040516308b6ac0f60e31b8152600080516020612b5e833981519152916345b5607891610c60916001600160a01b031690819060040161264d565b600060405180830381600087803b158015610c7a57600080fd5b505af1158015610c8e573d6000803e3d6000fd5b5050600254604051633e86275760e11b81526001600160a01b039091169250637d0c4eae9150610ccc90899089908990899089908990600401612720565b600060405180830381600087803b158015610ce657600080fd5b505af1158015610cfa573d6000803e3d6000fd5b50505050600080516020612b5e8339815191526001600160a01b03166390c5013b6040518163ffffffff1660e01b8152600401600060405180830381600087803b158015610d4757600080fd5b505af1158015610d5b573d6000803e3d6000fd5b50505050505050505050565b6000546040516308b6ac0f60e31b8152600080516020612b5e833981519152916345b5607891610da5916001600160a01b031690819060040161264d565b600060405180830381600087803b158015610dbf57600080fd5b505af1158015610dd3573d6000803e3d6000fd5b5050600254604051638677133760e01b81526001600160a01b0386811660048301526024820186905290911692506386771337915034906044016000604051808303818588803b158015610e2657600080fd5b505af1158015610e3a573d6000803e3d6000fd5b5050505050600080516020612b5e8339815191526001600160a01b03166390c5013b6040518163ffffffff1660e01b8152600401600060405180830381600087803b15801561095557600080fd5b600080546040516308b6ac0f60e31b8152600080516020612b5e833981519152916345b5607891610ec7916001600160a01b031690819060040161264d565b600060405180830381600087803b158015610ee157600080fd5b505af1158015610ef5573d6000803e3d6000fd5b50505050600260009054906101000a90046001600160a01b03166001600160a01b0316638a4068dd6040518163ffffffff1660e01b8152600401602060405180830381865afa158015610595573d6000803e3d6000fd5b6000546040516308b6ac0f60e31b8152600080516020612b5e833981519152916345b5607891610f8a916001600160a01b031690819060040161264d565b600060405180830381600087803b158015610fa457600080fd5b505af1158015610fb8573d6000803e3d6000fd5b50506002546040516350702b1360e11b81526001600160a01b03909116925063a0e056269150610ff49088908890889088908890600401612787565b600060405180830381600087803b15801561100e57600080fd5b505af1158015611022573d6000803e3d6000fd5b50505050600080516020612b5e8339815191526001600160a01b03166390c5013b6040518163ffffffff1660e01b8152600401600060405180830381600087803b15801561106f57600080fd5b505af1158015611083573d6000803e3d6000fd5b505050505050505050565b6000546040516308b6ac0f60e31b8152606091600080516020612b5e833981519152916345b56078916110d1916001600160a01b0390911690819060040161264d565b600060405180830381600087803b1580156110eb57600080fd5b505af11580156110ff573d6000803e3d6000fd5b5050600254604051631592ca1b60e31b81526001600160a01b03909116925063ac9650d8915061113390859060040161223f565b6000604051808303816000875af1158015611152573d6000803e3d6000fd5b505050506040513d6000823e601f3d908101601f1916820160405261117a91908101906127cd565b9050600080516020612b5e8339815191526001600160a01b03166390c5013b6040518163ffffffff1660e01b8152600401600060405180830381600087803b1580156111c557600080fd5b505af11580156111d9573d6000803e3d6000fd5b50505050919050565b6000546040516308b6ac0f60e31b8152600080516020612b5e833981519152916345b5607891611220916001600160a01b031690819060040161264d565b600060405180830381600087803b15801561123a57600080fd5b505af115801561124e573d6000803e3d6000fd5b5050600254604051635888bf4f60e11b81526001600160a01b038a8116600483015289151560248301526044820189905260ff881660648301526084820187905260a48201869052909116925063b1117e9e915060c401610ccc565b6000546040516308b6ac0f60e31b8152600080516020612b5e833981519152916345b56078916112e8916001600160a01b031690819060040161264d565b600060405180830381600087803b15801561130257600080fd5b505af1158015611316573d6000803e3d6000fd5b505060025460405163b43adf1160e01b81526001600160a01b03909116925063b43adf119150610ff49088908890889088908890600401612787565b600080546040516308b6ac0f60e31b815282918291829182918291600080516020612b5e833981519152916345b560789161139d916001600160a01b0390911690819060040161264d565b600060405180830381600087803b1580156113b757600080fd5b505af11580156113cb573d6000803e3d6000fd5b505060025460405163b5bb74a760e01b81526001600160a01b038b81166004830152909116925063b5bb74a7915060240160c060405180830381865afa158015611419573d6000803e3d6000fd5b505050506040513d601f19601f8201168201806040525081019061143d91906128ac565b955095509550955095509550600080516020612b5e8339815191526001600160a01b03166390c5013b6040518163ffffffff1660e01b8152600401600060405180830381600087803b15801561149257600080fd5b505af11580156114a6573d6000803e3d6000fd5b5050505091939550919395565b600080546040516308b6ac0f60e31b8152600080516020612b5e833981519152916345b56078916114f2916001600160a01b031690819060040161264d565b600060405180830381600087803b15801561150c57600080fd5b505af1158015611520573d6000803e3d6000fd5b505060025460405163bc197c8160e01b81526001600160a01b03909116925063bc197c81915061155c908990899089908990899060040161290f565b6020604051808303816000875af115801561157b573d6000803e3d6000fd5b505050506040513d601f19601f8201168201806040525081019061159f91906126d9565b9050600080516020612b5e8339815191526001600160a01b03166390c5013b6040518163ffffffff1660e01b8152600401600060405180830381600087803b1580156115ea57600080fd5b505af11580156115fe573d6000803e3d6000fd5b5050505095945050505050565b600080546040516308b6ac0f60e31b8152600080516020612b5e833981519152916345b560789161164a916001600160a01b031690819060040161264d565b600060405180830381600087803b15801561166457600080fd5b505af1158015611678573d6000803e3d6000fd5b50505050600260009054906101000a90046001600160a01b03166001600160a01b031663bc95831b6040518163ffffffff1660e01b8152600401602060405180830381865afa1580156116cf573d6000803e3d6000fd5b505050506040513d601f19601f820116820180604052508101906105b9919061296d565b6000546040516308b6ac0f60e31b8152606091600080516020612b5e833981519152916345b5607891611736916001600160a01b0390911690819060040161264d565b600060405180830381600087803b15801561175057600080fd5b505af1158015611764573d6000803e3d6000fd5b50505050600260009054906101000a90046001600160a01b03166001600160a01b031663c3a07df66040518163ffffffff1660e01b8152600401600060405180830381865afa1580156117bb573d6000803e3d6000fd5b505050506040513d6000823e601f3d908101601f191682016040526105b99190810190612986565b6000546040516308b6ac0f60e31b8152600080516020612b5e833981519152916345b5607891611821916001600160a01b031690819060040161264d565b600060405180830381600087803b15801561183b57600080fd5b505af115801561184f573d6000803e3d6000fd5b505060025460405163c42a581760e01b81526001600160a01b03909116925063c42a58179150610ccc90899089908990899089908990600401612a5c565b6000546040516308b6ac0f60e31b8152606091600080516020612b5e833981519152916345b56078916118d0916001600160a01b0390911690819060040161264d565b600060405180830381600087803b1580156118ea57600080fd5b505af11580156118fe573d6000803e3d6000fd5b50505050600260009054906101000a90046001600160a01b03166001600160a01b031663cbbb4ac56040518163ffffffff1660e01b8152600401600060405180830381865afa158015611955573d6000803e3d6000fd5b505050506040513d6000823e601f3d908101601f191682016040526105b99190810190612a9e565b600080546040516308b6ac0f60e31b8152600080516020612b5e833981519152916345b56078916119bc916001600160a01b031690819060040161264d565b600060405180830381600087803b1580156119d657600080fd5b505af11580156119ea573d6000803e3d6000fd5b50505050600260009054906101000a90046001600160a01b03166001600160a01b031663d87ed5e06040518163ffffffff1660e01b8152600401602060405180830381865afa1580156116cf573d6000803e3d6000fd5b6000546040516308b6ac0f60e31b8152600080516020612b5e833981519152916345b5607891611a7f916001600160a01b031690819060040161264d565b600060405180830381600087803b158015611a9957600080fd5b505af1158015611aad573d6000803e3d6000fd5b5050600254604051636e85940f60e11b81526001600160a01b038581166004830152909116925063dd0b281e915034906024016000604051808303818588803b158015611af957600080fd5b505af1158015611b0d573d6000803e3d6000fd5b5050505050600080516020612b5e8339815191526001600160a01b03166390c5013b6040518163ffffffff1660e01b8152600401600060405180830381600087803b158015611b5b57600080fd5b505af1158015611b6f573d6000803e3d6000fd5b5050505050565b6000546040516308b6ac0f60e31b8152600080516020612b5e833981519152916345b5607891611bb4916001600160a01b031690819060040161264d565b600060405180830381600087803b158015611bce57600080fd5b505af1158015611be2573d6000803e3d6000fd5b5050600254604051630eea477360e41b81526001600160a01b038b81166004830152602482018b905289151560448301526064820189905260ff8816608483015260a4820187905260c48201869052909116925063eea47730915060e401600060405180830381600087803b158015611c5a57600080fd5b505af1158015611c6e573d6000803e3d6000fd5b50505050600080516020612b5e8339815191526001600160a01b03166390c5013b6040518163ffffffff1660e01b8152600401600060405180830381600087803b158015611cbb57600080fd5b505af1158015611ccf573d6000803e3d6000fd5b5050505050505050505050565b600080546040516308b6ac0f60e31b8152600080516020612b5e833981519152916345b5607891611d1b916001600160a01b031690819060040161264d565b600060405180830381600087803b158015611d3557600080fd5b505af1158015611d49573d6000803e3d6000fd5b505060025460405163f23a6e6160e01b81526001600160a01b03909116925063f23a6e61915061155c9089908990899089908990600401612b23565b6001600160a01b0381168114611d9a57600080fd5b50565b634e487b7160e01b600052604160045260246000fd5b604051606081016001600160401b0381118282101715611dd557611dd5611d9d565b60405290565b604051601f8201601f191681016001600160401b0381118282101715611e0357611e03611d9d565b604052919050565b60006001600160401b03821115611e2457611e24611d9d565b50601f01601f191660200190565b600082601f830112611e4357600080fd5b8135611e56611e5182611e0b565b611ddb565b818152846020838601011115611e6b57600080fd5b816020850160208301376000918101602001919091529392505050565b60008060008060808587031215611e9e57600080fd5b8435611ea981611d85565b93506020850135611eb981611d85565b92506040850135915060608501356001600160401b03811115611edb57600080fd5b611ee787828801611e32565b91505092959194509250565b60006001600160401b03821115611f0c57611f0c611d9d565b5060051b60200190565b600082601f830112611f2757600080fd5b81356020611f37611e5183611ef3565b82815260059290921b84018101918181019086841115611f5657600080fd5b8286015b84811015611f715780358352918301918301611f5a565b509695505050505050565b60008060408385031215611f8f57600080fd5b8235611f9a81611d85565b915060208301356001600160401b03811115611fb557600080fd5b611fc185828601611f16565b9150509250929050565b60008060408385031215611fde57600080fd5b8235611fe981611d85565b946020939093013593505050565b60008060008060008060c0878903121561201057600080fd5b863561201b81611d85565b9550602087013561202b81611d85565b9450604087013561203b81611d85565b935060608701356001600160401b038082111561205757600080fd5b6120638a838b01611f16565b9450608089013591508082111561207957600080fd5b6120858a838b01611f16565b935060a089013591508082111561209b57600080fd5b506120a889828a01611f16565b9150509295509295509295565b600080600080600060a086880312156120cd57600080fd5b85356120d881611d85565b945060208601356120e881611d85565b935060408601356120f881611d85565b92506060860135915060808601356001600160401b0381111561211a57600080fd5b61212688828901611f16565b9150509295509295909350565b6000602080838503121561214657600080fd5b82356001600160401b038082111561215d57600080fd5b818501915085601f83011261217157600080fd5b813561217f611e5182611ef3565b81815260059190911b8301840190848101908883111561219e57600080fd5b8585015b838110156121d6578035858111156121ba5760008081fd5b6121c88b89838a0101611e32565b8452509186019186016121a2565b5098975050505050505050565b60005b838110156121fe5781810151838201526020016121e6565b8381111561220d576000848401525b50505050565b6000815180845261222b8160208601602086016121e3565b601f01601f19169290920160200192915050565b6000602080830181845280855180835260408601915060408160051b870101925083870160005b8281101561229457603f19888603018452612282858351612213565b94509285019290850190600101612266565b5092979650505050505050565b803580151581146122b157600080fd5b919050565b803560ff811681146122b157600080fd5b60008060008060008060c087890312156122e057600080fd5b86356122eb81611d85565b95506122f9602088016122a1565b94506040870135935061230e606088016122b6565b92506080870135915060a087013590509295509295509295565b60006020828403121561233a57600080fd5b813561234581611d85565b9392505050565b8681526001600160a01b038616602082015260c081016003861061238057634e487b7160e01b600052602160045260246000fd5b8560408301528460608301528360808301528260a0830152979650505050505050565b600080600080600060a086880312156123bb57600080fd5b85356123c681611d85565b945060208601356123d681611d85565b935060408601356001600160401b03808211156123f257600080fd5b6123fe89838a01611f16565b9450606088013591508082111561241457600080fd5b61242089838a01611f16565b9350608088013591508082111561243657600080fd5b5061212688828901611e32565b602080825282518282018190526000919060409081850190868401855b828110156124a557815180516001600160a01b0390811686528782015116878601528501516001600160e01b0319168585015260609093019290850190600101612460565b5091979650505050505050565b60008060008060008060c087890312156124cb57600080fd5b86356124d681611d85565b955060208701356124e681611d85565b945060408701356124f681611d85565b9350606087013592506080870135915060a08701356001600160401b0381111561251f57600080fd5b6120a889828a01611f16565b600081518084526020808501945080840160005b8381101561255b5781518752958201959082019060010161253f565b509495945050505050565b602081526000612345602083018461252b565b600080600080600080600060e0888a03121561259457600080fd5b873561259f81611d85565b9650602088013595506125b4604089016122a1565b9450606088013593506125c9608089016122b6565b925060a0880135915060c0880135905092959891949750929550565b600080600080600060a086880312156125fd57600080fd5b853561260881611d85565b9450602086013561261881611d85565b9350604086013592506060860135915060808601356001600160401b0381111561264157600080fd5b61212688828901611e32565b6001600160a01b0392831681529116602082015260400190565b60006020828403121561267957600080fd5b815161234581611d85565b6001600160a01b03858116825284166020820152604081018390526080606082018190526000906126b790830184612213565b9695505050505050565b80516001600160e01b0319811681146122b157600080fd5b6000602082840312156126eb57600080fd5b612345826126c1565b6001600160a01b03831681526040602082018190526000906127189083018461252b565b949350505050565b6001600160a01b03878116825286811660208301528516604082015260c0606082018190526000906127549083018661252b565b8281036080840152612766818661252b565b905082810360a084015261277a818561252b565b9998505050505050505050565b6001600160a01b0386811682528581166020830152841660408201526060810183905260a0608082018190526000906127c29083018461252b565b979650505050505050565b600060208083850312156127e057600080fd5b82516001600160401b03808211156127f757600080fd5b818501915085601f83011261280b57600080fd5b8151612819611e5182611ef3565b81815260059190911b8301840190848101908883111561283857600080fd5b8585015b838110156121d6578051858111156128545760008081fd5b8601603f81018b136128665760008081fd5b878101516040612878611e5183611e0b565b8281528d8284860101111561288d5760008081fd5b61289c838c83018487016121e3565b865250505091860191860161283c565b60008060008060008060c087890312156128c557600080fd5b8651955060208701516128d781611d85565b6040880151909550600381106128ec57600080fd5b80945050606087015192506080870151915060a087015190509295509295509295565b6001600160a01b0386811682528516602082015260a06040820181905260009061293b9083018661252b565b828103606084015261294d818661252b565b905082810360808401526129618185612213565b98975050505050505050565b60006020828403121561297f57600080fd5b5051919050565b6000602080838503121561299957600080fd5b82516001600160401b038111156129af57600080fd5b8301601f810185136129c057600080fd5b80516129ce611e5182611ef3565b818152606091820283018401918482019190888411156129ed57600080fd5b938501935b83851015612a505780858a031215612a0a5760008081fd5b612a12611db3565b8551612a1d81611d85565b815285870151612a2c81611d85565b818801526040612a3d8782016126c1565b90820152835293840193918501916129f2565b50979650505050505050565b6001600160a01b038781168252868116602083015285166040820152606081018490526080810183905260c060a082018190526000906129619083018461252b565b60006020808385031215612ab157600080fd5b82516001600160401b03811115612ac757600080fd5b8301601f81018513612ad857600080fd5b8051612ae6611e5182611ef3565b81815260059190911b82018301908381019087831115612b0557600080fd5b928401925b828410156127c257835182529284019290840190612b0a565b6001600160a01b03868116825285166020820152604081018490526060810183905260a0608082018190526000906127c29083018461221356fe0000000000000000000000007109709ecfa91a80626ff3989d68f67f5b1dd12da2646970667358221220ef38d6107bc95672acdab2eafa4ad82946d9d14e4121c8611fff2715f268403e64736f6c634300080d0033",
    "linkReferences": {}
  },
  "methodIdentifiers": {
    "PROPOSAL_PERIOD()": "d87ed5e0",
    "REJECTION_PERIOD()": "bc95831b",
    "WETH_ADDRESS()": "040141e5",
    "batchWithdrawERC1155(address,address,address,uint256[],uint256[],bytes32[])": "7d0c4eae",
    "buyFractions(address,uint256)": "86771337",
    "buyoutInfo(address)": "b5bb74a7",
    "cash(address,bytes32[])": "1579529a",
    "end(address,bytes32[])": "4e8c70f9",
    "getLeafNodes()": "cbbb4ac5",
    "getPermissions()": "c3a07df6",
    "multicall(bytes[])": "ac9650d8",
    "onERC1155BatchReceived(address,address,uint256[],uint256[],bytes)": "bc197c81",
    "onERC1155Received(address,address,uint256,uint256,bytes)": "f23a6e61",
    "onERC721Received(address,address,uint256,bytes)": "150b7a02",
    "proxyContract()": "ed550443",
    "redeem(address,bytes32[])": "7a607ce6",
    "registry()": "7b103999",
    "selfPermit(address,uint256,bool,uint256,uint8,bytes32,bytes32)": "eea47730",
    "selfPermitAll(address,bool,uint256,uint8,bytes32,bytes32)": "b1117e9e",
    "sellFractions(address,uint256)": "4acb7fd4",
    "start(address)": "dd0b281e",
    "supply()": "047fc9aa",
    "transfer()": "8a4068dd",
    "withdrawERC1155(address,address,address,uint256,uint256,bytes32[])": "c42a5817",
    "withdrawERC20(address,address,address,uint256,bytes32[])": "b43adf11",
    "withdrawERC721(address,address,address,uint256,bytes32[])": "a0e05626"
  },
  "id": 72
}