{
  "abi": [
    {
      "inputs": [
        {
          "internalType": "address",
          "name": "",
          "type": "address"
        },
        {
          "internalType": "address",
          "name": "",
          "type": "address"
        },
        {
          "internalType": "uint256[]",
          "name": "",
          "type": "uint256[]"
        },
        {
          "internalType": "uint256[]",
          "name": "",
          "type": "uint256[]"
        },
        {
          "internalType": "bytes",
          "name": "",
          "type": "bytes"
        }
      ],
      "name": "onERC1155BatchReceived",
      "outputs": [
        {
          "internalType": "bytes4",
          "name": "",
          "type": "bytes4"
        }
      ],
      "stateMutability": "nonpayable",
      "type": "function"
    },
    {
      "inputs": [
        {
          "internalType": "address",
          "name": "",
          "type": "address"
        },
        {
          "internalType": "address",
          "name": "",
          "type": "address"
        },
        {
          "internalType": "uint256",
          "name": "",
          "type": "uint256"
        },
        {
          "internalType": "uint256",
          "name": "",
          "type": "uint256"
        },
        {
          "internalType": "bytes",
          "name": "",
          "type": "bytes"
        }
      ],
      "name": "onERC1155Received",
      "outputs": [
        {
          "internalType": "bytes4",
          "name": "",
          "type": "bytes4"
        }
      ],
      "stateMutability": "nonpayable",
      "type": "function"
    },
    {
      "inputs": [
        {
          "internalType": "address",
          "name": "",
          "type": "address"
        },
        {
          "internalType": "address",
          "name": "",
          "type": "address"
        },
        {
          "internalType": "uint256",
          "name": "",
          "type": "uint256"
        },
        {
          "internalType": "bytes",
          "name": "",
          "type": "bytes"
        }
      ],
      "name": "onERC721Received",
      "outputs": [
        {
          "internalType": "bytes4",
          "name": "",
          "type": "bytes4"
        }
      ],
      "stateMutability": "nonpayable",
      "type": "function"
    }
  ],
  "bytecode": {
    "object": "0x608060405234801561001057600080fd5b50610346806100206000396000f3fe608060405234801561001057600080fd5b50600436106100415760003560e01c8063150b7a0214610046578063bc197c8114610082578063f23a6e61146100a4575b600080fd5b610065610054366004610129565b630a85bd0160e11b95945050505050565b6040516001600160e01b0319909116815260200160405180910390f35b6100656100903660046101dd565b63bc197c8160e01b98975050505050505050565b6100656100b2366004610298565b63f23a6e6160e01b9695505050505050565b80356001600160a01b03811681146100db57600080fd5b919050565b60008083601f8401126100f257600080fd5b50813567ffffffffffffffff81111561010a57600080fd5b60208301915083602082850101111561012257600080fd5b9250929050565b60008060008060006080868803121561014157600080fd5b61014a866100c4565b9450610158602087016100c4565b935060408601359250606086013567ffffffffffffffff81111561017b57600080fd5b610187888289016100e0565b969995985093965092949392505050565b60008083601f8401126101aa57600080fd5b50813567ffffffffffffffff8111156101c257600080fd5b6020830191508360208260051b850101111561012257600080fd5b60008060008060008060008060a0898b0312156101f957600080fd5b610202896100c4565b975061021060208a016100c4565b9650604089013567ffffffffffffffff8082111561022d57600080fd5b6102398c838d01610198565b909850965060608b013591508082111561025257600080fd5b61025e8c838d01610198565b909650945060808b013591508082111561027757600080fd5b506102848b828c016100e0565b999c989b5096995094979396929594505050565b60008060008060008060a087890312156102b157600080fd5b6102ba876100c4565b95506102c8602088016100c4565b94506040870135935060608701359250608087013567ffffffffffffffff8111156102f257600080fd5b6102fe89828a016100e0565b979a969950949750929593949250505056fea264697066735822122062d26a8de1152857c6520e3845384804cf95e1579239226c63af05a800f8f47164736f6c634300080d0033",
    "linkReferences": {}
  },
  "methodIdentifiers": {
    "onERC1155BatchReceived(address,address,uint256[],uint256[],bytes)": "bc197c81",
    "onERC1155Received(address,address,uint256,uint256,bytes)": "f23a6e61",
    "onERC721Received(address,address,uint256,bytes)": "150b7a02"
  },
  "id": 56
}