{
  "_format": "hh-sol-artifact-1",
  "contractName": "MockERC20",
  "sourceName": "src/mocks/MockERC20.sol",
  "abi": [
    {
      "inputs": [],
      "stateMutability": "nonpayable",
      "type": "constructor"
    },
    {
      "anonymous": false,
      "inputs": [
        {
          "indexed": true,
          "internalType": "address",
          "name": "owner",
          "type": "address"
        },
        {
          "indexed": true,
          "internalType": "address",
          "name": "spender",
          "type": "address"
        },
        {
          "indexed": false,
          "internalType": "uint256",
          "name": "amount",
          "type": "uint256"
        }
      ],
      "name": "Approval",
      "type": "event"
    },
    {
      "anonymous": false,
      "inputs": [
        {
          "indexed": true,
          "internalType": "address",
          "name": "from",
          "type": "address"
        },
        {
          "indexed": true,
          "internalType": "address",
          "name": "to",
          "type": "address"
        },
        {
          "indexed": false,
          "internalType": "uint256",
          "name": "amount",
          "type": "uint256"
        }
      ],
      "name": "Transfer",
      "type": "event"
    },
    {
      "inputs": [],
      "name": "DOMAIN_SEPARATOR",
      "outputs": [
        {
          "internalType": "bytes32",
          "name": "",
          "type": "bytes32"
        }
      ],
      "stateMutability": "view",
      "type": "function"
    },
    {
      "inputs": [
        {
          "internalType": "address",
          "name": "",
          "type": "address"
        },
        {
          "internalType": "address",
          "name": "",
          "type": "address"
        }
      ],
      "name": "allowance",
      "outputs": [
        {
          "internalType": "uint256",
          "name": "",
          "type": "uint256"
        }
      ],
      "stateMutability": "view",
      "type": "function"
    },
    {
      "inputs": [
        {
          "internalType": "address",
          "name": "spender",
          "type": "address"
        },
        {
          "internalType": "uint256",
          "name": "amount",
          "type": "uint256"
        }
      ],
      "name": "approve",
      "outputs": [
        {
          "internalType": "bool",
          "name": "",
          "type": "bool"
        }
      ],
      "stateMutability": "nonpayable",
      "type": "function"
    },
    {
      "inputs": [
        {
          "internalType": "address",
          "name": "",
          "type": "address"
        }
      ],
      "name": "balanceOf",
      "outputs": [
        {
          "internalType": "uint256",
          "name": "",
          "type": "uint256"
        }
      ],
      "stateMutability": "view",
      "type": "function"
    },
    {
      "inputs": [
        {
          "internalType": "address",
          "name": "from",
          "type": "address"
        },
        {
          "internalType": "uint256",
          "name": "amount",
          "type": "uint256"
        }
      ],
      "name": "burn",
      "outputs": [],
      "stateMutability": "nonpayable",
      "type": "function"
    },
    {
      "inputs": [],
      "name": "decimals",
      "outputs": [
        {
          "internalType": "uint8",
          "name": "",
          "type": "uint8"
        }
      ],
      "stateMutability": "view",
      "type": "function"
    },
    {
      "inputs": [
        {
          "internalType": "address",
          "name": "to",
          "type": "address"
        },
        {
          "internalType": "uint256",
          "name": "amount",
          "type": "uint256"
        }
      ],
      "name": "mint",
      "outputs": [],
      "stateMutability": "nonpayable",
      "type": "function"
    },
    {
      "inputs": [],
      "name": "name",
      "outputs": [
        {
          "internalType": "string",
          "name": "",
          "type": "string"
        }
      ],
      "stateMutability": "view",
      "type": "function"
    },
    {
      "inputs": [
        {
          "internalType": "address",
          "name": "",
          "type": "address"
        }
      ],
      "name": "nonces",
      "outputs": [
        {
          "internalType": "uint256",
          "name": "",
          "type": "uint256"
        }
      ],
      "stateMutability": "view",
      "type": "function"
    },
    {
      "inputs": [
        {
          "internalType": "address",
          "name": "owner",
          "type": "address"
        },
        {
          "internalType": "address",
          "name": "spender",
          "type": "address"
        },
        {
          "internalType": "uint256",
          "name": "value",
          "type": "uint256"
        },
        {
          "internalType": "uint256",
          "name": "deadline",
          "type": "uint256"
        },
        {
          "internalType": "uint8",
          "name": "v",
          "type": "uint8"
        },
        {
          "internalType": "bytes32",
          "name": "r",
          "type": "bytes32"
        },
        {
          "internalType": "bytes32",
          "name": "s",
          "type": "bytes32"
        }
      ],
      "name": "permit",
      "outputs": [],
      "stateMutability": "nonpayable",
      "type": "function"
    },
    {
      "inputs": [],
      "name": "symbol",
      "outputs": [
        {
          "internalType": "string",
          "name": "",
          "type": "string"
        }
      ],
      "stateMutability": "view",
      "type": "function"
    },
    {
      "inputs": [],
      "name": "totalSupply",
      "outputs": [
        {
          "internalType": "uint256",
          "name": "",
          "type": "uint256"
        }
      ],
      "stateMutability": "view",
      "type": "function"
    },
    {
      "inputs": [
        {
          "internalType": "address",
          "name": "to",
          "type": "address"
        },
        {
          "internalType": "uint256",
          "name": "amount",
          "type": "uint256"
        }
      ],
      "name": "transfer",
      "outputs": [
        {
          "internalType": "bool",
          "name": "",
          "type": "bool"
        }
      ],
      "stateMutability": "nonpayable",
      "type": "function"
    },
    {
      "inputs": [
        {
          "internalType": "address",
          "name": "from",
          "type": "address"
        },
        {
          "internalType": "address",
          "name": "to",
          "type": "address"
        },
        {
          "internalType": "uint256",
          "name": "amount",
          "type": "uint256"
        }
      ],
      "name": "transferFrom",
      "outputs": [
        {
          "internalType": "bool",
          "name": "",
          "type": "bool"
        }
      ],
      "stateMutability": "nonpayable",
      "type": "function"
    }
  ],
  "bytecode": "0x60e06040523480156200001157600080fd5b50604080518082018252600a8152692a22a9aa2faa37b5b2b760b11b602080830191825283518085019094526004845263151154d560e21b90840152815191929160129162000064916000919062000139565b5081516200007a90600190602085019062000139565b5060ff81166080524660a052620000906200009d565b60c05250620002be915050565b60007f8b73c3c69bb8fe3d512ecc4cf759cc79239f7b179b0ffacaa9a75d522b39400f6000604051620000d191906200021b565b6040805191829003822060208301939093528101919091527fc89efdaa54c0f20c7adf612882df0950f5a951637e0307cdcb4c672f298b8bc660608201524660808201523060a082015260c00160405160208183030381529060405280519060200120905090565b8280546200014790620001df565b90600052602060002090601f0160209004810192826200016b5760008555620001b6565b82601f106200018657805160ff1916838001178555620001b6565b82800160010185558215620001b6579182015b82811115620001b657825182559160200191906001019062000199565b50620001c4929150620001c8565b5090565b5b80821115620001c45760008155600101620001c9565b600181811c90821680620001f457607f821691505b6020821081036200021557634e487b7160e01b600052602260045260246000fd5b50919050565b600080835481600182811c9150808316806200023857607f831692505b602080841082036200025857634e487b7160e01b86526022600452602486fd5b8180156200026f57600181146200028157620002b0565b60ff19861689528489019650620002b0565b60008a81526020902060005b86811015620002a85781548b8201529085019083016200028d565b505084890196505b509498975050505050505050565b60805160a05160c051610df4620002ee60003960006104e0015260006104ab0152600061015f0152610df46000f3fe608060405234801561001057600080fd5b50600436106100ea5760003560e01c806370a082311161008c5780639dc29fac116100665780639dc29fac146101f8578063a9059cbb1461020b578063d505accf1461021e578063dd62ed3e1461023157600080fd5b806370a08231146101b05780637ecebe00146101d057806395d89b41146101f057600080fd5b806323b872dd116100c857806323b872dd14610147578063313ce5671461015a5780633644e5151461019357806340c10f191461019b57600080fd5b806306fdde03146100ef578063095ea7b31461010d57806318160ddd14610130575b600080fd5b6100f761025c565b6040516101049190610a71565b60405180910390f35b61012061011b366004610b0d565b6102ea565b6040519015158152602001610104565b61013960025481565b604051908152602001610104565b610120610155366004610b37565b610363565b6101817f000000000000000000000000000000000000000000000000000000000000000081565b60405160ff9091168152602001610104565b6101396104a7565b6101ae6101a9366004610b0d565b610502565b005b6101396101be366004610b73565b60036020526000908152604090205481565b6101396101de366004610b73565b60056020526000908152604090205481565b6100f7610510565b6101ae610206366004610b0d565b61051d565b610120610219366004610b0d565b610527565b6101ae61022c366004610b95565b6105ac565b61013961023f366004610c08565b600460209081526000928352604080842090915290825290205481565b6000805461026990610c3b565b80601f016020809104026020016040519081016040528092919081815260200182805461029590610c3b565b80156102e25780601f106102b7576101008083540402835291602001916102e2565b820191906000526020600020905b8154815290600101906020018083116102c557829003601f168201915b505050505081565b33600081815260046020908152604080832073ffffffffffffffffffffffffffffffffffffffff8716808552925280832085905551919290917f8c5be1e5ebec7d5bd14f71427d1e84f3dd0314c0f7b2291e5b200ac8c7c3b925906103529086815260200190565b60405180910390a350600192915050565b73ffffffffffffffffffffffffffffffffffffffff831660009081526004602090815260408083203384529091528120547fffffffffffffffffffffffffffffffffffffffffffffffffffffffffffffffff81146103f7576103c58382610cbd565b73ffffffffffffffffffffffffffffffffffffffff861660009081526004602090815260408083203384529091529020555b73ffffffffffffffffffffffffffffffffffffffff85166000908152600360205260408120805485929061042c908490610cbd565b909155505073ffffffffffffffffffffffffffffffffffffffff808516600081815260036020526040908190208054870190555190918716907fddf252ad1be2c89b69c2b068fc378daa952ba7f163c4a11628f55a4df523b3ef906104949087815260200190565b60405180910390a3506001949350505050565b60007f000000000000000000000000000000000000000000000000000000000000000046146104dd576104d86108d0565b905090565b507f000000000000000000000000000000000000000000000000000000000000000090565b61050c828261096a565b5050565b6001805461026990610c3b565b61050c82826109e3565b33600090815260036020526040812080548391908390610548908490610cbd565b909155505073ffffffffffffffffffffffffffffffffffffffff8316600081815260036020526040908190208054850190555133907fddf252ad1be2c89b69c2b068fc378daa952ba7f163c4a11628f55a4df523b3ef906103529086815260200190565b4284101561061b576040517f08c379a000000000000000000000000000000000000000000000000000000000815260206004820152601760248201527f5045524d49545f444541444c494e455f4558504952454400000000000000000060448201526064015b60405180910390fd5b600060016106276104a7565b73ffffffffffffffffffffffffffffffffffffffff8a811660008181526005602090815260409182902080546001810190915582517f6e71edae12b1b97f4d1f60370fef10105fa2faae0126114a169c64845d6126c98184015280840194909452938d166060840152608083018c905260a083019390935260c08083018b90528151808403909101815260e0830190915280519201919091207f190100000000000000000000000000000000000000000000000000000000000061010083015261010282019290925261012281019190915261014201604080517fffffffffffffffffffffffffffffffffffffffffffffffffffffffffffffffe08184030181528282528051602091820120600084529083018083525260ff871690820152606081018590526080810184905260a0016020604051602081039080840390855afa158015610779573d6000803e3d6000fd5b50506040517fffffffffffffffffffffffffffffffffffffffffffffffffffffffffffffffe0015191505073ffffffffffffffffffffffffffffffffffffffff8116158015906107f457508773ffffffffffffffffffffffffffffffffffffffff168173ffffffffffffffffffffffffffffffffffffffff16145b61085a576040517f08c379a000000000000000000000000000000000000000000000000000000000815260206004820152600e60248201527f494e56414c49445f5349474e45520000000000000000000000000000000000006044820152606401610612565b73ffffffffffffffffffffffffffffffffffffffff90811660009081526004602090815260408083208a8516808552908352928190208990555188815291928a16917f8c5be1e5ebec7d5bd14f71427d1e84f3dd0314c0f7b2291e5b200ac8c7c3b925910160405180910390a350505050505050565b60007f8b73c3c69bb8fe3d512ecc4cf759cc79239f7b179b0ffacaa9a75d522b39400f60006040516109029190610cd4565b6040805191829003822060208301939093528101919091527fc89efdaa54c0f20c7adf612882df0950f5a951637e0307cdcb4c672f298b8bc660608201524660808201523060a082015260c00160405160208183030381529060405280519060200120905090565b806002600082825461097c9190610da6565b909155505073ffffffffffffffffffffffffffffffffffffffff82166000818152600360209081526040808320805486019055518481527fddf252ad1be2c89b69c2b068fc378daa952ba7f163c4a11628f55a4df523b3ef91015b60405180910390a35050565b73ffffffffffffffffffffffffffffffffffffffff821660009081526003602052604081208054839290610a18908490610cbd565b909155505060028054829003905560405181815260009073ffffffffffffffffffffffffffffffffffffffff8416907fddf252ad1be2c89b69c2b068fc378daa952ba7f163c4a11628f55a4df523b3ef906020016109d7565b600060208083528351808285015260005b81811015610a9e57858101830151858201604001528201610a82565b81811115610ab0576000604083870101525b50601f017fffffffffffffffffffffffffffffffffffffffffffffffffffffffffffffffe016929092016040019392505050565b803573ffffffffffffffffffffffffffffffffffffffff81168114610b0857600080fd5b919050565b60008060408385031215610b2057600080fd5b610b2983610ae4565b946020939093013593505050565b600080600060608486031215610b4c57600080fd5b610b5584610ae4565b9250610b6360208501610ae4565b9150604084013590509250925092565b600060208284031215610b8557600080fd5b610b8e82610ae4565b9392505050565b600080600080600080600060e0888a031215610bb057600080fd5b610bb988610ae4565b9650610bc760208901610ae4565b95506040880135945060608801359350608088013560ff81168114610beb57600080fd5b9699959850939692959460a0840135945060c09093013592915050565b60008060408385031215610c1b57600080fd5b610c2483610ae4565b9150610c3260208401610ae4565b90509250929050565b600181811c90821680610c4f57607f821691505b602082108103610c88577f4e487b7100000000000000000000000000000000000000000000000000000000600052602260045260246000fd5b50919050565b7f4e487b7100000000000000000000000000000000000000000000000000000000600052601160045260246000fd5b600082821015610ccf57610ccf610c8e565b500390565b600080835481600182811c915080831680610cf057607f831692505b60208084108203610d28577f4e487b710000000000000000000000000000000000000000000000000000000086526022600452602486fd5b818015610d3c5760018114610d6b57610d98565b7fffffffffffffffffffffffffffffffffffffffffffffffffffffffffffffff00861689528489019650610d98565b60008a81526020902060005b86811015610d905781548b820152908501908301610d77565b505084890196505b509498975050505050505050565b60008219821115610db957610db9610c8e565b50019056fea2646970667358221220c90306397334dfbd68b1228da962538c876f42df7d17d901941ee0d6cbb75a8e64736f6c634300080d0033",
  "linkReferences": {},
  "deployedLinkReferences": {}
}