{
  "abi": [
    {
      "inputs": [
        {
          "internalType": "address",
          "name": "_addr",
          "type": "address"
        },
        {
          "internalType": "uint256",
          "name": "_privateKey",
          "type": "uint256"
        },
        {
          "internalType": "address",
          "name": "_target",
          "type": "address"
        }
      ],
      "stateMutability": "nonpayable",
      "type": "constructor"
    },
    {
      "inputs": [
        {
          "internalType": "address",
          "name": "_from",
          "type": "address"
        },
        {
          "internalType": "address",
          "name": "_to",
          "type": "address"
        },
        {
          "internalType": "address[]",
          "name": "_tokens",
          "type": "address[]"
        },
        {
          "internalType": "uint256[]",
          "name": "_ids",
          "type": "uint256[]"
        },
        {
          "internalType": "uint256[]",
          "name": "_amounts",
          "type": "uint256[]"
        },
        {
          "internalType": "bytes[]",
          "name": "_datas",
          "type": "bytes[]"
        }
      ],
      "name": "batchDepositERC1155",
      "outputs": [],
      "stateMutability": "nonpayable",
      "type": "function"
    },
    {
      "inputs": [
        {
          "internalType": "address",
          "name": "_from",
          "type": "address"
        },
        {
          "internalType": "address",
          "name": "_to",
          "type": "address"
        },
        {
          "internalType": "address[]",
          "name": "_tokens",
          "type": "address[]"
        },
        {
          "internalType": "uint256[]",
          "name": "_amounts",
          "type": "uint256[]"
        }
      ],
      "name": "batchDepositERC20",
      "outputs": [],
      "stateMutability": "nonpayable",
      "type": "function"
    },
    {
      "inputs": [
        {
          "internalType": "address",
          "name": "_from",
          "type": "address"
        },
        {
          "internalType": "address",
          "name": "_to",
          "type": "address"
        },
        {
          "internalType": "address[]",
          "name": "_tokens",
          "type": "address[]"
        },
        {
          "internalType": "uint256[]",
          "name": "_ids",
          "type": "uint256[]"
        }
      ],
      "name": "batchDepositERC721",
      "outputs": [],
      "stateMutability": "nonpayable",
      "type": "function"
    },
    {
      "inputs": [
        {
          "internalType": "uint256",
          "name": "_fractionSupply",
          "type": "uint256"
        },
        {
          "internalType": "address[]",
          "name": "_modules",
          "type": "address[]"
        },
        {
          "internalType": "address[]",
          "name": "_plugins",
          "type": "address[]"
        },
        {
          "internalType": "bytes4[]",
          "name": "_selectors",
          "type": "bytes4[]"
        },
        {
          "internalType": "bytes32[]",
          "name": "_mintProof",
          "type": "bytes32[]"
        }
      ],
      "name": "deployVault",
      "outputs": [
        {
          "internalType": "address",
          "name": "",
          "type": "address"
        }
      ],
      "stateMutability": "nonpayable",
      "type": "function"
    },
    {
      "inputs": [
        {
          "internalType": "address[]",
          "name": "_modules",
          "type": "address[]"
        }
      ],
      "name": "generateMerkleTree",
      "outputs": [
        {
          "internalType": "bytes32[]",
          "name": "",
          "type": "bytes32[]"
        }
      ],
      "stateMutability": "nonpayable",
      "type": "function"
    },
    {
      "inputs": [],
      "name": "getLeafNodes",
      "outputs": [
        {
          "internalType": "bytes32[]",
          "name": "",
          "type": "bytes32[]"
        }
      ],
      "stateMutability": "nonpayable",
      "type": "function"
    },
    {
      "inputs": [],
      "name": "getPermissions",
      "outputs": [
        {
          "components": [
            {
              "internalType": "address",
              "name": "module",
              "type": "address"
            },
            {
              "internalType": "address",
              "name": "target",
              "type": "address"
            },
            {
              "internalType": "bytes4",
              "name": "selector",
              "type": "bytes4"
            }
          ],
          "internalType": "struct Permission[]",
          "name": "",
          "type": "tuple[]"
        }
      ],
      "stateMutability": "nonpayable",
      "type": "function"
    },
    {
      "inputs": [
        {
          "internalType": "bytes32[]",
          "name": "_data",
          "type": "bytes32[]"
        },
        {
          "internalType": "uint256",
          "name": "_node",
          "type": "uint256"
        }
      ],
      "name": "getProof",
      "outputs": [
        {
          "internalType": "bytes32[]",
          "name": "",
          "type": "bytes32[]"
        }
      ],
      "stateMutability": "nonpayable",
      "type": "function"
    },
    {
      "inputs": [
        {
          "internalType": "bytes32[]",
          "name": "_data",
          "type": "bytes32[]"
        }
      ],
      "name": "getRoot",
      "outputs": [
        {
          "internalType": "bytes32",
          "name": "",
          "type": "bytes32"
        }
      ],
      "stateMutability": "nonpayable",
      "type": "function"
    },
    {
      "inputs": [
        {
          "internalType": "bytes32",
          "name": "_left",
          "type": "bytes32"
        },
        {
          "internalType": "bytes32",
          "name": "_right",
          "type": "bytes32"
        }
      ],
      "name": "hashLeafPairs",
      "outputs": [
        {
          "internalType": "bytes32",
          "name": "",
          "type": "bytes32"
        }
      ],
      "stateMutability": "nonpayable",
      "type": "function"
    },
    {
      "inputs": [
        {
          "internalType": "uint256",
          "name": "x",
          "type": "uint256"
        }
      ],
      "name": "log2ceil_naive",
      "outputs": [
        {
          "internalType": "uint256",
          "name": "",
          "type": "uint256"
        }
      ],
      "stateMutability": "nonpayable",
      "type": "function"
    },
    {
      "inputs": [
        {
          "internalType": "bytes[]",
          "name": "_data",
          "type": "bytes[]"
        }
      ],
      "name": "multicall",
      "outputs": [
        {
          "internalType": "bytes[]",
          "name": "",
          "type": "bytes[]"
        }
      ],
      "stateMutability": "nonpayable",
      "type": "function"
    },
    {
      "inputs": [],
      "name": "proxyContract",
      "outputs": [
        {
          "internalType": "address",
          "name": "",
          "type": "address"
        }
      ],
      "stateMutability": "view",
      "type": "function"
    },
    {
      "inputs": [],
      "name": "registry",
      "outputs": [
        {
          "internalType": "address",
          "name": "",
          "type": "address"
        }
      ],
      "stateMutability": "nonpayable",
      "type": "function"
    },
    {
      "inputs": [],
      "name": "supply",
      "outputs": [
        {
          "internalType": "address",
          "name": "",
          "type": "address"
        }
      ],
      "stateMutability": "nonpayable",
      "type": "function"
    },
    {
      "inputs": [
        {
          "internalType": "bytes32",
          "name": "_root",
          "type": "bytes32"
        },
        {
          "internalType": "bytes32[]",
          "name": "_proof",
          "type": "bytes32[]"
        },
        {
          "internalType": "bytes32",
          "name": "_valueToProve",
          "type": "bytes32"
        }
      ],
      "name": "verifyProof",
      "outputs": [
        {
          "internalType": "bool",
          "name": "",
          "type": "bool"
        }
      ],
      "stateMutability": "nonpayable",
      "type": "function"
    }
  ],
  "bytecode": {
    "object": "0x60806040523480156200001157600080fd5b506040516200206838038062002068833981016040819052620000349162000114565b8115620000bd576040516001625e79b760e01b0319815260048101839052737109709ecfa91a80626ff3989d68f67f5b1dd12d9063ffa18649906024016020604051808303816000875af115801562000091573d6000803e3d6000fd5b505050506040513d601f19601f82011682018060405250810190620000b7919062000155565b620000bf565b825b600080546001600160a01b03199081166001600160a01b0393841617909155600193909355600280549093169116179055506200017a565b80516001600160a01b03811681146200010f57600080fd5b919050565b6000806000606084860312156200012a57600080fd5b6200013584620000f7565b9250602084015191506200014c60408501620000f7565b90509250925092565b6000602082840312156200016857600080fd5b6200017382620000f7565b9392505050565b611ede806200018a6000396000f3fe608060405234801561001057600080fd5b50600436106101005760003560e01c8063ac9650d811610097578063c3ec409211610066578063c3ec40921461022c578063cbbb4ac51461023f578063dd1d259914610247578063ed5504431461025a57600080fd5b8063ac9650d8146101d1578063b76564cb146101f1578063b861619514610204578063c3a07df61461021757600080fd5b806358161a42116100d357806358161a42146101735780637b10399914610196578063822db1891461019e578063884c05fb146101b157600080fd5b8063047fc9aa1461010557806308d7090a1461012a5780632e08d6021461014b5780633692721a1461015e575b600080fd5b61010d61026b565b6040516001600160a01b0390911681526020015b60405180910390f35b61013d610138366004611227565b6103b9565b604051908152602001610121565b61013d61015936600461133c565b610500565b61017161016c366004611404565b6105a1565b005b61018661018136600461148c565b6106e0565b6040519015158152602001610121565b61010d610830565b6101716101ac3660046115c0565b6108f4565b6101c46101bf36600461168c565b610a39565b60405161012191906116fb565b6101e46101df366004611715565b610b23565b60405161012191906117e6565b61010d6101ff36600461180f565b610c0f565b6101c4610212366004611925565b610d67565b61021f610ebc565b6040516101219190611969565b61017161023a366004611404565b610fac565b6101c4611052565b61013d6102553660046119cb565b611142565b6002546001600160a01b031661010d565b600080546040516308b6ac0f60e31b8152600080516020611e89833981519152916345b56078916102aa916001600160a01b03169081906004016119ed565b600060405180830381600087803b1580156102c457600080fd5b505af11580156102d8573d6000803e3d6000fd5b50505050600260009054906101000a90046001600160a01b03166001600160a01b031663047fc9aa6040518163ffffffff1660e01b8152600401602060405180830381865afa15801561032f573d6000803e3d6000fd5b505050506040513d601f19601f820116820180604052508101906103539190611a07565b9050600080516020611e898339815191526001600160a01b03166390c5013b6040518163ffffffff1660e01b8152600401600060405180830381600087803b15801561039e57600080fd5b505af11580156103b2573d6000803e3d6000fd5b5050505090565b600080546040516308b6ac0f60e31b8152600080516020611e89833981519152916345b56078916103f8916001600160a01b03169081906004016119ed565b600060405180830381600087803b15801561041257600080fd5b505af1158015610426573d6000803e3d6000fd5b505060025460405163046b848560e11b8152600481018690526001600160a01b0390911692506308d7090a91506024015b602060405180830381865afa158015610474573d6000803e3d6000fd5b505050506040513d601f19601f820116820180604052508101906104989190611a24565b9050600080516020611e898339815191526001600160a01b03166390c5013b6040518163ffffffff1660e01b8152600401600060405180830381600087803b1580156104e357600080fd5b505af11580156104f7573d6000803e3d6000fd5b50505050919050565b600080546040516308b6ac0f60e31b8152600080516020611e89833981519152916345b560789161053f916001600160a01b03169081906004016119ed565b600060405180830381600087803b15801561055957600080fd5b505af115801561056d573d6000803e3d6000fd5b50506002546040516317046b0160e11b81526001600160a01b039091169250632e08d60291506104579085906004016116fb565b6000546040516308b6ac0f60e31b8152600080516020611e89833981519152916345b56078916105df916001600160a01b03169081906004016119ed565b600060405180830381600087803b1580156105f957600080fd5b505af115801561060d573d6000803e3d6000fd5b5050600254604051631b49390d60e11b81526001600160a01b039091169250633692721a9150610647908790879087908790600401611a76565b600060405180830381600087803b15801561066157600080fd5b505af1158015610675573d6000803e3d6000fd5b50505050600080516020611e898339815191526001600160a01b03166390c5013b6040518163ffffffff1660e01b8152600401600060405180830381600087803b1580156106c257600080fd5b505af11580156106d6573d6000803e3d6000fd5b5050505050505050565b600080546040516308b6ac0f60e31b8152600080516020611e89833981519152916345b560789161071f916001600160a01b03169081906004016119ed565b600060405180830381600087803b15801561073957600080fd5b505af115801561074d573d6000803e3d6000fd5b5050600254604051632c0b0d2160e11b81526001600160a01b0390911692506358161a42915061078590879087908790600401611abf565b602060405180830381865afa1580156107a2573d6000803e3d6000fd5b505050506040513d601f19601f820116820180604052508101906107c69190611ae8565b9050600080516020611e898339815191526001600160a01b03166390c5013b6040518163ffffffff1660e01b8152600401600060405180830381600087803b15801561081157600080fd5b505af1158015610825573d6000803e3d6000fd5b505050509392505050565b600080546040516308b6ac0f60e31b8152600080516020611e89833981519152916345b560789161086f916001600160a01b03169081906004016119ed565b600060405180830381600087803b15801561088957600080fd5b505af115801561089d573d6000803e3d6000fd5b50505050600260009054906101000a90046001600160a01b03166001600160a01b0316637b1039996040518163ffffffff1660e01b8152600401602060405180830381865afa15801561032f573d6000803e3d6000fd5b6000546040516308b6ac0f60e31b8152600080516020611e89833981519152916345b5607891610932916001600160a01b03169081906004016119ed565b600060405180830381600087803b15801561094c57600080fd5b505af1158015610960573d6000803e3d6000fd5b505060025460405163822db18960e01b81526001600160a01b03909116925063822db189915061099e90899089908990899089908990600401611b0a565b600060405180830381600087803b1580156109b857600080fd5b505af11580156109cc573d6000803e3d6000fd5b50505050600080516020611e898339815191526001600160a01b03166390c5013b6040518163ffffffff1660e01b8152600401600060405180830381600087803b158015610a1957600080fd5b505af1158015610a2d573d6000803e3d6000fd5b50505050505050505050565b6000546040516308b6ac0f60e31b8152606091600080516020611e89833981519152916345b5607891610a7c916001600160a01b039091169081906004016119ed565b600060405180830381600087803b158015610a9657600080fd5b505af1158015610aaa573d6000803e3d6000fd5b505060025460405163884c05fb60e01b81526001600160a01b03909116925063884c05fb9150610ade908590600401611b7d565b600060405180830381865afa158015610afb573d6000803e3d6000fd5b505050506040513d6000823e601f3d908101601f191682016040526104989190810190611b90565b6000546040516308b6ac0f60e31b8152606091600080516020611e89833981519152916345b5607891610b66916001600160a01b039091169081906004016119ed565b600060405180830381600087803b158015610b8057600080fd5b505af1158015610b94573d6000803e3d6000fd5b5050600254604051631592ca1b60e31b81526001600160a01b03909116925063ac9650d89150610bc89085906004016117e6565b6000604051808303816000875af1158015610be7573d6000803e3d6000fd5b505050506040513d6000823e601f3d908101601f191682016040526104989190810190611c15565b600080546040516308b6ac0f60e31b8152600080516020611e89833981519152916345b5607891610c4e916001600160a01b03169081906004016119ed565b600060405180830381600087803b158015610c6857600080fd5b505af1158015610c7c573d6000803e3d6000fd5b505060025460405163b76564cb60e01b81526001600160a01b03909116925063b76564cb9150610cb89089908990899089908990600401611d01565b6020604051808303816000875af1158015610cd7573d6000803e3d6000fd5b505050506040513d601f19601f82011682018060405250810190610cfb9190611a07565b9050600080516020611e898339815191526001600160a01b03166390c5013b6040518163ffffffff1660e01b8152600401600060405180830381600087803b158015610d4657600080fd5b505af1158015610d5a573d6000803e3d6000fd5b5050505095945050505050565b6000546040516308b6ac0f60e31b8152606091600080516020611e89833981519152916345b5607891610daa916001600160a01b039091169081906004016119ed565b600060405180830381600087803b158015610dc457600080fd5b505af1158015610dd8573d6000803e3d6000fd5b505060025460405163b861619560e01b81526001600160a01b03909116925063b86161959150610e0e9086908690600401611d8e565b600060405180830381865afa158015610e2b573d6000803e3d6000fd5b505050506040513d6000823e601f3d908101601f19168201604052610e539190810190611b90565b9050600080516020611e898339815191526001600160a01b03166390c5013b6040518163ffffffff1660e01b8152600401600060405180830381600087803b158015610e9e57600080fd5b505af1158015610eb2573d6000803e3d6000fd5b5050505092915050565b6000546040516308b6ac0f60e31b8152606091600080516020611e89833981519152916345b5607891610eff916001600160a01b039091169081906004016119ed565b600060405180830381600087803b158015610f1957600080fd5b505af1158015610f2d573d6000803e3d6000fd5b50505050600260009054906101000a90046001600160a01b03166001600160a01b031663c3a07df66040518163ffffffff1660e01b8152600401600060405180830381865afa158015610f84573d6000803e3d6000fd5b505050506040513d6000823e601f3d908101601f191682016040526103539190810190611db0565b6000546040516308b6ac0f60e31b8152600080516020611e89833981519152916345b5607891610fea916001600160a01b03169081906004016119ed565b600060405180830381600087803b15801561100457600080fd5b505af1158015611018573d6000803e3d6000fd5b50506002546040516361f6204960e11b81526001600160a01b03909116925063c3ec40929150610647908790879087908790600401611a76565b6000546040516308b6ac0f60e31b8152606091600080516020611e89833981519152916345b5607891611095916001600160a01b039091169081906004016119ed565b600060405180830381600087803b1580156110af57600080fd5b505af11580156110c3573d6000803e3d6000fd5b50505050600260009054906101000a90046001600160a01b03166001600160a01b031663cbbb4ac56040518163ffffffff1660e01b8152600401600060405180830381865afa15801561111a573d6000803e3d6000fd5b505050506040513d6000823e601f3d908101601f191682016040526103539190810190611b90565b600080546040516308b6ac0f60e31b8152600080516020611e89833981519152916345b5607891611181916001600160a01b03169081906004016119ed565b600060405180830381600087803b15801561119b57600080fd5b505af11580156111af573d6000803e3d6000fd5b505060025460405163dd1d259960e01b815260048101879052602481018690526001600160a01b03909116925063dd1d25999150604401602060405180830381865afa158015611203573d6000803e3d6000fd5b505050506040513d601f19601f82011682018060405250810190610e539190611a24565b60006020828403121561123957600080fd5b5035919050565b634e487b7160e01b600052604160045260246000fd5b604051606081016001600160401b038111828210171561127857611278611240565b60405290565b604051601f8201601f191681016001600160401b03811182821017156112a6576112a6611240565b604052919050565b60006001600160401b038211156112c7576112c7611240565b5060051b60200190565b600082601f8301126112e257600080fd5b813560206112f76112f2836112ae565b61127e565b82815260059290921b8401810191818101908684111561131657600080fd5b8286015b84811015611331578035835291830191830161131a565b509695505050505050565b60006020828403121561134e57600080fd5b81356001600160401b0381111561136457600080fd5b611370848285016112d1565b949350505050565b6001600160a01b038116811461138d57600080fd5b50565b803561139b81611378565b919050565b600082601f8301126113b157600080fd5b813560206113c16112f2836112ae565b82815260059290921b840181019181810190868411156113e057600080fd5b8286015b848110156113315780356113f781611378565b83529183019183016113e4565b6000806000806080858703121561141a57600080fd5b843561142581611378565b9350602085013561143581611378565b925060408501356001600160401b038082111561145157600080fd5b61145d888389016113a0565b9350606087013591508082111561147357600080fd5b50611480878288016112d1565b91505092959194509250565b6000806000606084860312156114a157600080fd5b8335925060208401356001600160401b038111156114be57600080fd5b6114ca868287016112d1565b925050604084013590509250925092565b60006001600160401b038211156114f4576114f4611240565b50601f01601f191660200190565b600082601f83011261151357600080fd5b813560206115236112f2836112ae565b82815260059290921b8401810191818101908684111561154257600080fd5b8286015b848110156113315780356001600160401b038111156115655760008081fd5b8701603f810189136115775760008081fd5b8481013560406115896112f2836114db565b8281528b8284860101111561159e5760008081fd5b8282850189830137600092810188019290925250845250918301918301611546565b60008060008060008060c087890312156115d957600080fd5b6115e287611390565b95506115f060208801611390565b945060408701356001600160401b038082111561160c57600080fd5b6116188a838b016113a0565b9550606089013591508082111561162e57600080fd5b61163a8a838b016112d1565b9450608089013591508082111561165057600080fd5b61165c8a838b016112d1565b935060a089013591508082111561167257600080fd5b5061167f89828a01611502565b9150509295509295509295565b60006020828403121561169e57600080fd5b81356001600160401b038111156116b457600080fd5b611370848285016113a0565b600081518084526020808501945080840160005b838110156116f0578151875295820195908201906001016116d4565b509495945050505050565b60208152600061170e60208301846116c0565b9392505050565b60006020828403121561172757600080fd5b81356001600160401b0381111561173d57600080fd5b61137084828501611502565b60005b8381101561176457818101518382015260200161174c565b83811115611773576000848401525b50505050565b600081518084526020808501808196508360051b8101915082860160005b858110156117d9578284038952815180518086526117ba81888801898501611749565b99860199601f01601f1916949094018501935090840190600101611797565b5091979650505050505050565b60208152600061170e6020830184611779565b6001600160e01b03198116811461138d57600080fd5b600080600080600060a0868803121561182757600080fd5b853594506020808701356001600160401b038082111561184657600080fd5b6118528a838b016113a0565b9650604089013591508082111561186857600080fd5b6118748a838b016113a0565b9550606089013591508082111561188a57600080fd5b818901915089601f83011261189e57600080fd5b81356118ac6112f2826112ae565b81815260059190911b8301840190848101908c8311156118cb57600080fd5b938501935b828510156118f25784356118e3816117f9565b825293850193908501906118d0565b96505050608089013592508083111561190a57600080fd5b5050611918888289016112d1565b9150509295509295909350565b6000806040838503121561193857600080fd5b82356001600160401b0381111561194e57600080fd5b61195a858286016112d1565b95602094909401359450505050565b602080825282518282018190526000919060409081850190868401855b828110156117d957815180516001600160a01b0390811686528782015116878601528501516001600160e01b0319168585015260609093019290850190600101611986565b600080604083850312156119de57600080fd5b50508035926020909101359150565b6001600160a01b0392831681529116602082015260400190565b600060208284031215611a1957600080fd5b815161170e81611378565b600060208284031215611a3657600080fd5b5051919050565b600081518084526020808501945080840160005b838110156116f05781516001600160a01b031687529582019590820190600101611a51565b6001600160a01b03858116825284166020820152608060408201819052600090611aa290830185611a3d565b8281036060840152611ab481856116c0565b979650505050505050565b838152606060208201526000611ad860608301856116c0565b9050826040830152949350505050565b600060208284031215611afa57600080fd5b8151801515811461170e57600080fd5b6001600160a01b0387811682528616602082015260c060408201819052600090611b3690830187611a3d565b8281036060840152611b4881876116c0565b90508281036080840152611b5c81866116c0565b905082810360a0840152611b708185611779565b9998505050505050505050565b60208152600061170e6020830184611a3d565b60006020808385031215611ba357600080fd5b82516001600160401b03811115611bb957600080fd5b8301601f81018513611bca57600080fd5b8051611bd86112f2826112ae565b81815260059190911b82018301908381019087831115611bf757600080fd5b928401925b82841015611ab457835182529284019290840190611bfc565b60006020808385031215611c2857600080fd5b82516001600160401b0380821115611c3f57600080fd5b818501915085601f830112611c5357600080fd5b8151611c616112f2826112ae565b81815260059190911b83018401908481019088831115611c8057600080fd5b8585015b83811015611cf457805185811115611c9c5760008081fd5b8601603f81018b13611cae5760008081fd5b878101516040611cc06112f2836114db565b8281528d82848601011115611cd55760008081fd5b611ce4838c8301848701611749565b8652505050918601918601611c84565b5098975050505050505050565b8581526000602060a081840152611d1b60a0840188611a3d565b8381036040850152611d2d8188611a3d565b8481036060860152865180825283880192509083019060005b81811015611d6c5783516001600160e01b03191683529284019291840191600101611d46565b50508481036080860152611d8081876116c0565b9a9950505050505050505050565b604081526000611da160408301856116c0565b90508260208301529392505050565b60006020808385031215611dc357600080fd5b82516001600160401b03811115611dd957600080fd5b8301601f81018513611dea57600080fd5b8051611df86112f2826112ae565b81815260609182028301840191848201919088841115611e1757600080fd5b938501935b83851015611e7c5780858a031215611e345760008081fd5b611e3c611256565b8551611e4781611378565b815285870151611e5681611378565b81880152604086810151611e69816117f9565b9082015283529384019391850191611e1c565b5097965050505050505056fe0000000000000000000000007109709ecfa91a80626ff3989d68f67f5b1dd12da264697066735822122057c514e2969e2681553b5531f857b3aa3fb78aa89756b6023bd9a040e2726c2564736f6c634300080d0033",
    "linkReferences": {}
  },
  "methodIdentifiers": {
    "batchDepositERC1155(address,address,address[],uint256[],uint256[],bytes[])": "822db189",
    "batchDepositERC20(address,address,address[],uint256[])": "3692721a",
    "batchDepositERC721(address,address,address[],uint256[])": "c3ec4092",
    "deployVault(uint256,address[],address[],bytes4[],bytes32[])": "b76564cb",
    "generateMerkleTree(address[])": "884c05fb",
    "getLeafNodes()": "cbbb4ac5",
    "getPermissions()": "c3a07df6",
    "getProof(bytes32[],uint256)": "b8616195",
    "getRoot(bytes32[])": "2e08d602",
    "hashLeafPairs(bytes32,bytes32)": "dd1d2599",
    "log2ceil_naive(uint256)": "08d7090a",
    "multicall(bytes[])": "ac9650d8",
    "proxyContract()": "ed550443",
    "registry()": "7b103999",
    "supply()": "047fc9aa",
    "verifyProof(bytes32,bytes32[],bytes32)": "58161a42"
  },
  "id": 70
}