{
  "abi": [
    {
      "inputs": [
        {
          "internalType": "address",
          "name": "_required",
          "type": "address"
        },
        {
          "internalType": "address",
          "name": "_provided",
          "type": "address"
        }
      ],
      "name": "InvalidSender",
      "type": "error"
    },
    {
      "inputs": [
        {
          "internalType": "address",
          "name": "_signer",
          "type": "address"
        },
        {
          "internalType": "address",
          "name": "_owner",
          "type": "address"
        }
      ],
      "name": "InvalidSignature",
      "type": "error"
    },
    {
      "inputs": [
        {
          "internalType": "uint256",
          "name": "_timestamp",
          "type": "uint256"
        },
        {
          "internalType": "uint256",
          "name": "_deadline",
          "type": "uint256"
        }
      ],
      "name": "SignatureExpired",
      "type": "error"
    },
    {
      "inputs": [],
      "name": "ZeroAddress",
      "type": "error"
    },
    {
      "anonymous": false,
      "inputs": [
        {
          "indexed": true,
          "internalType": "address",
          "name": "owner",
          "type": "address"
        },
        {
          "indexed": true,
          "internalType": "address",
          "name": "operator",
          "type": "address"
        },
        {
          "indexed": false,
          "internalType": "bool",
          "name": "approved",
          "type": "bool"
        }
      ],
      "name": "ApprovalForAll",
      "type": "event"
    },
    {
      "anonymous": false,
      "inputs": [
        {
          "indexed": true,
          "internalType": "address",
          "name": "_newController",
          "type": "address"
        }
      ],
      "name": "ControllerTransferred",
      "type": "event"
    },
    {
      "anonymous": false,
      "inputs": [
        {
          "indexed": true,
          "internalType": "address",
          "name": "_metadata",
          "type": "address"
        },
        {
          "indexed": false,
          "internalType": "uint256",
          "name": "_id",
          "type": "uint256"
        }
      ],
      "name": "SetMetadata",
      "type": "event"
    },
    {
      "anonymous": false,
      "inputs": [
        {
          "indexed": true,
          "internalType": "address",
          "name": "_receiver",
          "type": "address"
        },
        {
          "indexed": false,
          "internalType": "uint256",
          "name": "_id",
          "type": "uint256"
        },
        {
          "indexed": false,
          "internalType": "uint256",
          "name": "_percentage",
          "type": "uint256"
        }
      ],
      "name": "SetRoyalty",
      "type": "event"
    },
    {
      "anonymous": false,
      "inputs": [
        {
          "indexed": true,
          "internalType": "address",
          "name": "_owner",
          "type": "address"
        },
        {
          "indexed": true,
          "internalType": "address",
          "name": "_operator",
          "type": "address"
        },
        {
          "indexed": false,
          "internalType": "uint256",
          "name": "_id",
          "type": "uint256"
        },
        {
          "indexed": false,
          "internalType": "bool",
          "name": "_approved",
          "type": "bool"
        }
      ],
      "name": "SingleApproval",
      "type": "event"
    },
    {
      "anonymous": false,
      "inputs": [
        {
          "indexed": true,
          "internalType": "address",
          "name": "operator",
          "type": "address"
        },
        {
          "indexed": true,
          "internalType": "address",
          "name": "from",
          "type": "address"
        },
        {
          "indexed": true,
          "internalType": "address",
          "name": "to",
          "type": "address"
        },
        {
          "indexed": false,
          "internalType": "uint256[]",
          "name": "ids",
          "type": "uint256[]"
        },
        {
          "indexed": false,
          "internalType": "uint256[]",
          "name": "amounts",
          "type": "uint256[]"
        }
      ],
      "name": "TransferBatch",
      "type": "event"
    },
    {
      "anonymous": false,
      "inputs": [
        {
          "indexed": true,
          "internalType": "address",
          "name": "operator",
          "type": "address"
        },
        {
          "indexed": true,
          "internalType": "address",
          "name": "from",
          "type": "address"
        },
        {
          "indexed": true,
          "internalType": "address",
          "name": "to",
          "type": "address"
        },
        {
          "indexed": false,
          "internalType": "uint256",
          "name": "id",
          "type": "uint256"
        },
        {
          "indexed": false,
          "internalType": "uint256",
          "name": "amount",
          "type": "uint256"
        }
      ],
      "name": "TransferSingle",
      "type": "event"
    },
    {
      "anonymous": false,
      "inputs": [
        {
          "indexed": false,
          "internalType": "string",
          "name": "value",
          "type": "string"
        },
        {
          "indexed": true,
          "internalType": "uint256",
          "name": "id",
          "type": "uint256"
        }
      ],
      "name": "URI",
      "type": "event"
    },
    {
      "inputs": [],
      "name": "INITIAL_CONTROLLER",
      "outputs": [
        {
          "internalType": "address",
          "name": "",
          "type": "address"
        }
      ],
      "stateMutability": "pure",
      "type": "function"
    },
    {
      "inputs": [],
      "name": "NAME",
      "outputs": [
        {
          "internalType": "string",
          "name": "",
          "type": "string"
        }
      ],
      "stateMutability": "view",
      "type": "function"
    },
    {
      "inputs": [],
      "name": "VAULT_REGISTRY",
      "outputs": [
        {
          "internalType": "address",
          "name": "",
          "type": "address"
        }
      ],
      "stateMutability": "pure",
      "type": "function"
    },
    {
      "inputs": [],
      "name": "VERSION",
      "outputs": [
        {
          "internalType": "string",
          "name": "",
          "type": "string"
        }
      ],
      "stateMutability": "view",
      "type": "function"
    },
    {
      "inputs": [
        {
          "internalType": "address",
          "name": "",
          "type": "address"
        },
        {
          "internalType": "uint256",
          "name": "",
          "type": "uint256"
        }
      ],
      "name": "balanceOf",
      "outputs": [
        {
          "internalType": "uint256",
          "name": "",
          "type": "uint256"
        }
      ],
      "stateMutability": "view",
      "type": "function"
    },
    {
      "inputs": [
        {
          "internalType": "address[]",
          "name": "owners",
          "type": "address[]"
        },
        {
          "internalType": "uint256[]",
          "name": "ids",
          "type": "uint256[]"
        }
      ],
      "name": "balanceOfBatch",
      "outputs": [
        {
          "internalType": "uint256[]",
          "name": "balances",
          "type": "uint256[]"
        }
      ],
      "stateMutability": "view",
      "type": "function"
    },
    {
      "inputs": [
        {
          "internalType": "address",
          "name": "_from",
          "type": "address"
        },
        {
          "internalType": "uint256",
          "name": "_id",
          "type": "uint256"
        },
        {
          "internalType": "uint256",
          "name": "_amount",
          "type": "uint256"
        }
      ],
      "name": "burn",
      "outputs": [],
      "stateMutability": "nonpayable",
      "type": "function"
    },
    {
      "inputs": [],
      "name": "contractURI",
      "outputs": [
        {
          "internalType": "string",
          "name": "",
          "type": "string"
        }
      ],
      "stateMutability": "view",
      "type": "function"
    },
    {
      "inputs": [],
      "name": "controller",
      "outputs": [
        {
          "internalType": "address",
          "name": "controllerAddress",
          "type": "address"
        }
      ],
      "stateMutability": "view",
      "type": "function"
    },
    {
      "inputs": [
        {
          "internalType": "uint256",
          "name": "_id",
          "type": "uint256"
        },
        {
          "internalType": "string",
          "name": "_uri",
          "type": "string"
        }
      ],
      "name": "emitSetURI",
      "outputs": [],
      "stateMutability": "nonpayable",
      "type": "function"
    },
    {
      "inputs": [
        {
          "internalType": "address",
          "name": "",
          "type": "address"
        },
        {
          "internalType": "address",
          "name": "",
          "type": "address"
        },
        {
          "internalType": "uint256",
          "name": "",
          "type": "uint256"
        }
      ],
      "name": "isApproved",
      "outputs": [
        {
          "internalType": "bool",
          "name": "",
          "type": "bool"
        }
      ],
      "stateMutability": "view",
      "type": "function"
    },
    {
      "inputs": [
        {
          "internalType": "address",
          "name": "",
          "type": "address"
        },
        {
          "internalType": "address",
          "name": "",
          "type": "address"
        }
      ],
      "name": "isApprovedForAll",
      "outputs": [
        {
          "internalType": "bool",
          "name": "",
          "type": "bool"
        }
      ],
      "stateMutability": "view",
      "type": "function"
    },
    {
      "inputs": [
        {
          "internalType": "uint256",
          "name": "",
          "type": "uint256"
        }
      ],
      "name": "metadata",
      "outputs": [
        {
          "internalType": "address",
          "name": "",
          "type": "address"
        }
      ],
      "stateMutability": "view",
      "type": "function"
    },
    {
      "inputs": [
        {
          "internalType": "address",
          "name": "_to",
          "type": "address"
        },
        {
          "internalType": "uint256",
          "name": "_id",
          "type": "uint256"
        },
        {
          "internalType": "uint256",
          "name": "_amount",
          "type": "uint256"
        },
        {
          "internalType": "bytes",
          "name": "_data",
          "type": "bytes"
        }
      ],
      "name": "mint",
      "outputs": [],
      "stateMutability": "nonpayable",
      "type": "function"
    },
    {
      "inputs": [
        {
          "internalType": "address",
          "name": "",
          "type": "address"
        }
      ],
      "name": "nonces",
      "outputs": [
        {
          "internalType": "uint256",
          "name": "",
          "type": "uint256"
        }
      ],
      "stateMutability": "view",
      "type": "function"
    },
    {
      "inputs": [
        {
          "internalType": "address",
          "name": "_owner",
          "type": "address"
        },
        {
          "internalType": "address",
          "name": "_operator",
          "type": "address"
        },
        {
          "internalType": "uint256",
          "name": "_id",
          "type": "uint256"
        },
        {
          "internalType": "bool",
          "name": "_approved",
          "type": "bool"
        },
        {
          "internalType": "uint256",
          "name": "_deadline",
          "type": "uint256"
        },
        {
          "internalType": "uint8",
          "name": "_v",
          "type": "uint8"
        },
        {
          "internalType": "bytes32",
          "name": "_r",
          "type": "bytes32"
        },
        {
          "internalType": "bytes32",
          "name": "_s",
          "type": "bytes32"
        }
      ],
      "name": "permit",
      "outputs": [],
      "stateMutability": "nonpayable",
      "type": "function"
    },
    {
      "inputs": [
        {
          "internalType": "address",
          "name": "_owner",
          "type": "address"
        },
        {
          "internalType": "address",
          "name": "_operator",
          "type": "address"
        },
        {
          "internalType": "bool",
          "name": "_approved",
          "type": "bool"
        },
        {
          "internalType": "uint256",
          "name": "_deadline",
          "type": "uint256"
        },
        {
          "internalType": "uint8",
          "name": "_v",
          "type": "uint8"
        },
        {
          "internalType": "bytes32",
          "name": "_r",
          "type": "bytes32"
        },
        {
          "internalType": "bytes32",
          "name": "_s",
          "type": "bytes32"
        }
      ],
      "name": "permitAll",
      "outputs": [],
      "stateMutability": "nonpayable",
      "type": "function"
    },
    {
      "inputs": [
        {
          "internalType": "uint256",
          "name": "_id",
          "type": "uint256"
        },
        {
          "internalType": "uint256",
          "name": "_salePrice",
          "type": "uint256"
        }
      ],
      "name": "royaltyInfo",
      "outputs": [
        {
          "internalType": "address",
          "name": "receiver",
          "type": "address"
        },
        {
          "internalType": "uint256",
          "name": "royaltyAmount",
          "type": "uint256"
        }
      ],
      "stateMutability": "view",
      "type": "function"
    },
    {
      "inputs": [
        {
          "internalType": "address",
          "name": "from",
          "type": "address"
        },
        {
          "internalType": "address",
          "name": "to",
          "type": "address"
        },
        {
          "internalType": "uint256[]",
          "name": "ids",
          "type": "uint256[]"
        },
        {
          "internalType": "uint256[]",
          "name": "amounts",
          "type": "uint256[]"
        },
        {
          "internalType": "bytes",
          "name": "data",
          "type": "bytes"
        }
      ],
      "name": "safeBatchTransferFrom",
      "outputs": [],
      "stateMutability": "nonpayable",
      "type": "function"
    },
    {
      "inputs": [
        {
          "internalType": "address",
          "name": "_from",
          "type": "address"
        },
        {
          "internalType": "address",
          "name": "_to",
          "type": "address"
        },
        {
          "internalType": "uint256",
          "name": "_id",
          "type": "uint256"
        },
        {
          "internalType": "uint256",
          "name": "_amount",
          "type": "uint256"
        },
        {
          "internalType": "bytes",
          "name": "_data",
          "type": "bytes"
        }
      ],
      "name": "safeTransferFrom",
      "outputs": [],
      "stateMutability": "nonpayable",
      "type": "function"
    },
    {
      "inputs": [
        {
          "internalType": "address",
          "name": "_operator",
          "type": "address"
        },
        {
          "internalType": "uint256",
          "name": "_id",
          "type": "uint256"
        },
        {
          "internalType": "bool",
          "name": "_approved",
          "type": "bool"
        }
      ],
      "name": "setApprovalFor",
      "outputs": [],
      "stateMutability": "nonpayable",
      "type": "function"
    },
    {
      "inputs": [
        {
          "internalType": "address",
          "name": "operator",
          "type": "address"
        },
        {
          "internalType": "bool",
          "name": "approved",
          "type": "bool"
        }
      ],
      "name": "setApprovalForAll",
      "outputs": [],
      "stateMutability": "nonpayable",
      "type": "function"
    },
    {
      "inputs": [
        {
          "internalType": "string",
          "name": "_uri",
          "type": "string"
        }
      ],
      "name": "setContractURI",
      "outputs": [],
      "stateMutability": "nonpayable",
      "type": "function"
    },
    {
      "inputs": [
        {
          "internalType": "address",
          "name": "_metadata",
          "type": "address"
        },
        {
          "internalType": "uint256",
          "name": "_id",
          "type": "uint256"
        }
      ],
      "name": "setMetadata",
      "outputs": [],
      "stateMutability": "nonpayable",
      "type": "function"
    },
    {
      "inputs": [
        {
          "internalType": "uint256",
          "name": "_id",
          "type": "uint256"
        },
        {
          "internalType": "address",
          "name": "_receiver",
          "type": "address"
        },
        {
          "internalType": "uint256",
          "name": "_percentage",
          "type": "uint256"
        }
      ],
      "name": "setRoyalties",
      "outputs": [],
      "stateMutability": "nonpayable",
      "type": "function"
    },
    {
      "inputs": [
        {
          "internalType": "bytes4",
          "name": "interfaceId",
          "type": "bytes4"
        }
      ],
      "name": "supportsInterface",
      "outputs": [
        {
          "internalType": "bool",
          "name": "",
          "type": "bool"
        }
      ],
      "stateMutability": "view",
      "type": "function"
    },
    {
      "inputs": [
        {
          "internalType": "uint256",
          "name": "",
          "type": "uint256"
        }
      ],
      "name": "totalSupply",
      "outputs": [
        {
          "internalType": "uint256",
          "name": "",
          "type": "uint256"
        }
      ],
      "stateMutability": "view",
      "type": "function"
    },
    {
      "inputs": [
        {
          "internalType": "address",
          "name": "_newController",
          "type": "address"
        }
      ],
      "name": "transferController",
      "outputs": [],
      "stateMutability": "nonpayable",
      "type": "function"
    },
    {
      "inputs": [
        {
          "internalType": "uint256",
          "name": "_id",
          "type": "uint256"
        }
      ],
      "name": "uri",
      "outputs": [
        {
          "internalType": "string",
          "name": "",
          "type": "string"
        }
      ],
      "stateMutability": "view",
      "type": "function"
    }
  ],
  "bytecode": {
    "object": "0x608060405234801561001057600080fd5b5061245c806100206000396000f3fe608060405234801561001057600080fd5b50600436106101ce5760003560e01c8063a3f4df7e11610104578063e8a3d485116100a2578063f5298aca11610071578063f5298aca14610498578063f72c8689146104ab578063f77c4791146104be578063ffa1ad74146104c657600080fd5b8063e8a3d4851461043c578063e8ea054b14610444578063e985e9c514610457578063f242432a1461048557600080fd5b8063de11ff79116100de578063de11ff79146103c4578063e2c7f338146103cc578063e3684e39146103df578063e5af48d81461040857600080fd5b8063a3f4df7e1461036a578063bd85b03914610391578063cfa8fb42146103b157600080fd5b80632eb2c2d611610171578063731133e91161014b578063731133e9146103115780637ecebe0014610324578063938e3d7b14610344578063a22cb4651461035757600080fd5b80632eb2c2d6146102cb5780634e1273f4146102de5780635ae1bdc7146102fe57600080fd5b80630986c677116101ad5780630986c677146102515780630e89341c146102665780632a55205a146102865780632ccd9ed4146102b857600080fd5b8062fdd58e146101d357806301ffc9a71461020e57806302ace7fe14610231575b600080fd5b6101fb6101e13660046119b4565b600060208181529281526040808220909352908152205481565b6040519081526020015b60405180910390f35b61022161021c3660046119f7565b6104e6565b6040519015158152602001610205565b610239610538565b6040516001600160a01b039091168152602001610205565b61026461025f366004611ac8565b610549565b005b610279610274366004611b23565b6105e1565b6040516102059190611b94565b610299610294366004611ba7565b6106b4565b604080516001600160a01b039093168352602083019190915201610205565b6102646102c6366004611bea565b6106fb565b6102646102d9366004611cf3565b6108b4565b6102f16102ec366004611dae565b610b57565b6040516102059190611e1a565b61026461030c3660046119b4565b610c8c565b61026461031f366004611e7e565b610d27565b6101fb610332366004611edf565b60066020526000908152604090205481565b610264610352366004611efa565b610d96565b610264610365366004611f3c565b610de1565b61027960405180604001604052806008815260200167464552433131353560c01b81525081565b6101fb61039f366004611b23565b60076020526000908152604090205481565b6102646103bf366004611f66565b610e4d565b610239610fb7565b6102646103da366004611fd7565b610fc3565b6102396103ed366004611b23565b6005602052600090815260409020546001600160a01b031681565b61022161041636600461200c565b600460209081526000938452604080852082529284528284209052825290205460ff1681565b610279611070565b610264610452366004611edf565b6110fe565b610221610465366004612038565b600160209081526000928352604080842090915290825290205460ff1681565b610264610493366004612062565b6111a9565b6102646104a63660046120d4565b6113d6565b6102646104b9366004612107565b611443565b6102396114bc565b610279604051806040016040528060018152602001603160f81b81525081565b60006301ffc9a760e01b6001600160e01b0319831614806105175750636cdb3d1360e11b6001600160e01b03198316145b8061053257506303a24d0760e21b6001600160e01b03198316145b92915050565b600061054460146114f0565b905090565b6000828152600560205260409020546001600160a01b031633146105a5576000828152600560205260409081902054905163708986dd60e11b815261059c916001600160a01b0316903390600401612143565b60405180910390fd5b817f6bb7ff708619ba0610cba295a58592e0451dee2622938c8755667688daf3529b826040516105d59190611b94565b60405180910390a25050565b6000818152600560205260409020546060906001600160a01b03166106365760405162461bcd60e51b815260206004820152600b60248201526a4e4f204d4554414441544160a81b604482015260640161059c565b600082815260056020526040908190205490516303a24d0760e21b8152600481018490526001600160a01b0390911690630e89341c90602401600060405180830381865afa15801561068c573d6000803e3d6000fd5b505050506040513d6000823e601f3d908101601f19168201604052610532919081019061215d565b60008281526008602090815260408083205460099092528220546001600160a01b0390911691906064906106e890856121ea565b6106f29190612209565b90509250929050565b8342111561072557604051630f88f04960e41b81524260048201526024810185905260440161059c565b60006107348989898989611515565b905060006107846107436115c8565b8360405161190160f01b6020820152602281018390526042810182905260009060620160405160208183030381529060405280519060200120905092915050565b6040805160008082526020820180845284905260ff89169282019290925260608101879052608081018690529192509060019060a0016020604051602081039080840390855afa1580156107dc573d6000803e3d6000fd5b5050604051601f1901519150506001600160a01b038116158061081157508a6001600160a01b0316816001600160a01b031614155b1561083357808b6040516310b5d43760e21b815260040161059c929190612143565b5050506001600160a01b038881166000818152600460209081526040808320948c168084529482528083208b8452825291829020805460ff19168a151590811790915582518b8152918201527f9fe4c80ed54641e7463c240ea1212aa79c810413295452fae0729f7056107677910160405180910390a35050505050505050565b8483146108f55760405162461bcd60e51b815260206004820152600f60248201526e0988a9c8ea890be9a92a69a82a8869608b1b604482015260640161059c565b336001600160a01b038916148061092f57506001600160a01b038816600090815260016020908152604080832033845290915290205460ff165b61096c5760405162461bcd60e51b815260206004820152600e60248201526d1393d517d055551213d49256915160921b604482015260640161059c565b60008060005b87811015610a275788888281811061098c5761098c61222b565b9050602002013592508686828181106109a7576109a761222b565b6001600160a01b038e16600090815260208181526040808320898452825282208054939091029490940135955085939250906109e4908490612241565b90915550506001600160a01b038a1660009081526020818152604080832086845290915281208054849290610a1a908490612258565b9091555050600101610972565b50886001600160a01b03168a6001600160a01b0316336001600160a01b03167f4a39dc06d4c0dbc64b70af90fd698a233a518aa5d07e595d983b8c0526c8f7fb8b8b8b8b604051610a7b94939291906122a6565b60405180910390a46001600160a01b0389163b15610b225760405163bc197c8160e01b808252906001600160a01b038b169063bc197c8190610acf9033908f908e908e908e908e908e908e906004016122d8565b6020604051808303816000875af1158015610aee573d6000803e3d6000fd5b505050506040513d601f19601f82011682018060405250810190610b129190612352565b6001600160e01b03191614610b2f565b6001600160a01b03891615155b610b4b5760405162461bcd60e51b815260040161059c9061236f565b50505050505050505050565b6060838214610b9a5760405162461bcd60e51b815260206004820152600f60248201526e0988a9c8ea890be9a92a69a82a8869608b1b604482015260640161059c565b8367ffffffffffffffff811115610bb357610bb3611a1b565b604051908082528060200260200182016040528015610bdc578160200160208202803683370190505b50905060005b84811015610c8357600080878784818110610bff57610bff61222b565b9050602002016020810190610c149190611edf565b6001600160a01b03166001600160a01b031681526020019081526020016000206000858584818110610c4857610c4861222b565b90506020020135815260200190815260200160002054828281518110610c7057610c7061222b565b6020908102919091010152600101610be2565b50949350505050565b6000610c966114bc565b9050336001600160a01b03821614610cc557803360405163708986dd60e11b815260040161059c929190612143565b60008281526005602090815260409182902080546001600160a01b0319166001600160a01b03871690811790915591518481527e2eaa91860e3ef728f8a91f04b0b0fb11f91d377fafbe25db7299c3e76150dd910160405180910390a2505050565b6000610d31610538565b9050336001600160a01b03821614610d6057803360405163708986dd60e11b815260040161059c929190612143565b610d6c85858585611697565b60008481526007602052604081208054859290610d8a908490612258565b90915550505050505050565b6000610da06114bc565b9050336001600160a01b03821614610dcf57803360405163708986dd60e11b815260040161059c929190612143565b610ddb60038484611908565b50505050565b3360008181526001602090815260408083206001600160a01b03871680855290835292819020805460ff191686151590811790915590519081529192917f17307eab39ab6107e8899845ad3d59bd9653f200f220920489ca2b5937696c31910160405180910390a35050565b83421115610e7757604051630f88f04960e41b81524260048201526024810185905260440161059c565b6000610e85888888886117d9565b90506000610e946107436115c8565b6040805160008082526020820180845284905260ff89169282019290925260608101879052608081018690529192509060019060a0016020604051602081039080840390855afa158015610eec573d6000803e3d6000fd5b5050604051601f1901519150506001600160a01b0381161580610f215750896001600160a01b0316816001600160a01b031614155b15610f4357808a6040516310b5d43760e21b815260040161059c929190612143565b5050506001600160a01b038781166000818152600160209081526040808320948b1680845294825291829020805460ff19168a151590811790915591519182527f17307eab39ab6107e8899845ad3d59bd9653f200f220920489ca2b5937696c31910160405180910390a350505050505050565b600061054460006114f0565b6000610fcd6114bc565b9050336001600160a01b03821614610ffc57803360405163708986dd60e11b815260040161059c929190612143565b600084815260086020908152604080832080546001600160a01b0319166001600160a01b038816908117909155600983529281902085905580518781529182018590527fd8d64e17a5f54d19ed4852e386866de24539f87d9f047e36c8216e6448b22511910160405180910390a250505050565b6003805461107d90612399565b80601f01602080910402602001604051908101604052809291908181526020018280546110a990612399565b80156110f65780601f106110cb576101008083540402835291602001916110f6565b820191906000526020600020905b8154815290600101906020018083116110d957829003601f168201915b505050505081565b60006111086114bc565b9050336001600160a01b0382161461113757803360405163708986dd60e11b815260040161059c929190612143565b6001600160a01b03821661115e5760405163d92e233d60e01b815260040160405180910390fd5b600280546001600160a01b0319166001600160a01b0384169081179091556040517f22ae3e13754fada79785f8712cf9edb6d7a1be7e1738be44b84374a5b0220aed90600090a25050565b336001600160a01b03861614806111e357506001600160a01b038516600090815260016020908152604080832033845290915290205460ff165b8061121957506001600160a01b0385166000908152600460209081526040808320338452825280832086845290915290205460ff165b6112565760405162461bcd60e51b815260206004820152600e60248201526d1393d517d055551213d49256915160921b604482015260640161059c565b6001600160a01b03851660009081526020818152604080832086845290915281208054849290611287908490612241565b90915550506001600160a01b038416600090815260208181526040808320868452909152812080548492906112bd908490612258565b909155505060408051848152602081018490526001600160a01b03808716929088169133917fc3d58168c5ae7397731d063d5bbf3d657854427343f4c083240f7aacaa2d0f62910160405180910390a46001600160a01b0384163b156113a65760405163f23a6e6160e01b808252906001600160a01b0386169063f23a6e61906113539033908a908990899089906004016123d3565b6020604051808303816000875af1158015611372573d6000803e3d6000fd5b505050506040513d601f19601f820116820180604052508101906113969190612352565b6001600160e01b031916146113b3565b6001600160a01b03841615155b6113cf5760405162461bcd60e51b815260040161059c9061236f565b5050505050565b60006113e0610538565b9050336001600160a01b0382161461140f57803360405163708986dd60e11b815260040161059c929190612143565b61141a848484611884565b60008381526007602052604081208054849290611438908490612241565b909155505050505050565b3360008181526004602090815260408083206001600160a01b038816808552908352818420878552835292819020805460ff19168615159081179091558151878152928301529192917f9fe4c80ed54641e7463c240ea1212aa79c810413295452fae0729f7056107677910160405180910390a3505050565b6002546000906001600160a01b0316156114e057506002546001600160a01b031690565b6114e8610fb7565b9050805b5090565b600080611507600119368181013560f01c90030190565b929092013560601c92915050565b6001600160a01b038516600090815260066020526040812080547faff3e7017d0a41834e125c9c80495a73609c1859f670a0c126d99a1acf4b4e68918891889188918891876115638361240d565b909155506040805160208101979097526001600160a01b03958616908701529390921660608501526080840152151560a083015260c082015260e081018390526101000160405160208183030381529060405280519060200120905095945050505050565b6040805180820182526008815267464552433131353560c01b6020918201528151808301835260018152603160f81b9082015281517f8b73c3c69bb8fe3d512ecc4cf759cc79239f7b179b0ffacaa9a75d522b39400f818301527f233a50b0a5718e212019cf2306cc9da67bd87b875da0db3a1c4170b06c73ecd8818401527fc89efdaa54c0f20c7adf612882df0950f5a951637e0307cdcb4c672f298b8bc660608201524660808201523060a0808301919091528351808303909101815260c0909101909252815191012090565b6001600160a01b038416600090815260208181526040808320868452909152812080548492906116c8908490612258565b909155505060408051848152602081018490526001600160a01b0386169160009133917fc3d58168c5ae7397731d063d5bbf3d657854427343f4c083240f7aacaa2d0f62910160405180910390a46001600160a01b0384163b156117b05760405163f23a6e6160e01b808252906001600160a01b0386169063f23a6e619061175d9033906000908990899089906004016123d3565b6020604051808303816000875af115801561177c573d6000803e3d6000fd5b505050506040513d601f19601f820116820180604052508101906117a09190612352565b6001600160e01b031916146117bd565b6001600160a01b03841615155b610ddb5760405162461bcd60e51b815260040161059c9061236f565b6001600160a01b038416600090815260066020526040812080547f200d2483757e19728fc8a3511298158c1b74dd131c7be00c4904e11665b42cd19187918791879190866118268361240d565b909155506040805160208101969096526001600160a01b03948516908601529290911660608401521515608083015260a082015260c0810183905260e001604051602081830303815290604052805190602001209050949350505050565b6001600160a01b038316600090815260208181526040808320858452909152812080548392906118b5908490612241565b909155505060408051838152602081018390526000916001600160a01b0386169133917fc3d58168c5ae7397731d063d5bbf3d657854427343f4c083240f7aacaa2d0f62910160405180910390a4505050565b82805461191490612399565b90600052602060002090601f016020900481019282611936576000855561197c565b82601f1061194f5782800160ff1982351617855561197c565b8280016001018555821561197c579182015b8281111561197c578235825591602001919060010190611961565b506114ec9291505b808211156114ec5760008155600101611984565b80356001600160a01b03811681146119af57600080fd5b919050565b600080604083850312156119c757600080fd5b6119d083611998565b946020939093013593505050565b6001600160e01b0319811681146119f457600080fd5b50565b600060208284031215611a0957600080fd5b8135611a14816119de565b9392505050565b634e487b7160e01b600052604160045260246000fd5b604051601f8201601f1916810167ffffffffffffffff81118282101715611a5a57611a5a611a1b565b604052919050565b600067ffffffffffffffff821115611a7c57611a7c611a1b565b50601f01601f191660200190565b6000611a9d611a9884611a62565b611a31565b9050828152838383011115611ab157600080fd5b828260208301376000602084830101529392505050565b60008060408385031215611adb57600080fd5b82359150602083013567ffffffffffffffff811115611af957600080fd5b8301601f81018513611b0a57600080fd5b611b1985823560208401611a8a565b9150509250929050565b600060208284031215611b3557600080fd5b5035919050565b60005b83811015611b57578181015183820152602001611b3f565b83811115610ddb5750506000910152565b60008151808452611b80816020860160208601611b3c565b601f01601f19169290920160200192915050565b602081526000611a146020830184611b68565b60008060408385031215611bba57600080fd5b50508035926020909101359150565b803580151581146119af57600080fd5b803560ff811681146119af57600080fd5b600080600080600080600080610100898b031215611c0757600080fd5b611c1089611998565b9750611c1e60208a01611998565b965060408901359550611c3360608a01611bc9565b945060808901359350611c4860a08a01611bd9565b925060c0890135915060e089013590509295985092959890939650565b60008083601f840112611c7757600080fd5b50813567ffffffffffffffff811115611c8f57600080fd5b6020830191508360208260051b8501011115611caa57600080fd5b9250929050565b60008083601f840112611cc357600080fd5b50813567ffffffffffffffff811115611cdb57600080fd5b602083019150836020828501011115611caa57600080fd5b60008060008060008060008060a0898b031215611d0f57600080fd5b611d1889611998565b9750611d2660208a01611998565b9650604089013567ffffffffffffffff80821115611d4357600080fd5b611d4f8c838d01611c65565b909850965060608b0135915080821115611d6857600080fd5b611d748c838d01611c65565b909650945060808b0135915080821115611d8d57600080fd5b50611d9a8b828c01611cb1565b999c989b5096995094979396929594505050565b60008060008060408587031215611dc457600080fd5b843567ffffffffffffffff80821115611ddc57600080fd5b611de888838901611c65565b90965094506020870135915080821115611e0157600080fd5b50611e0e87828801611c65565b95989497509550505050565b6020808252825182820181905260009190848201906040850190845b81811015611e5257835183529284019291840191600101611e36565b50909695505050505050565b600082601f830112611e6f57600080fd5b611a1483833560208501611a8a565b60008060008060808587031215611e9457600080fd5b611e9d85611998565b93506020850135925060408501359150606085013567ffffffffffffffff811115611ec757600080fd5b611ed387828801611e5e565b91505092959194509250565b600060208284031215611ef157600080fd5b611a1482611998565b60008060208385031215611f0d57600080fd5b823567ffffffffffffffff811115611f2457600080fd5b611f3085828601611cb1565b90969095509350505050565b60008060408385031215611f4f57600080fd5b611f5883611998565b91506106f260208401611bc9565b600080600080600080600060e0888a031215611f8157600080fd5b611f8a88611998565b9650611f9860208901611998565b9550611fa660408901611bc9565b945060608801359350611fbb60808901611bd9565b925060a0880135915060c0880135905092959891949750929550565b600080600060608486031215611fec57600080fd5b83359250611ffc60208501611998565b9150604084013590509250925092565b60008060006060848603121561202157600080fd5b61202a84611998565b9250611ffc60208501611998565b6000806040838503121561204b57600080fd5b61205483611998565b91506106f260208401611998565b600080600080600060a0868803121561207a57600080fd5b61208386611998565b945061209160208701611998565b93506040860135925060608601359150608086013567ffffffffffffffff8111156120bb57600080fd5b6120c788828901611e5e565b9150509295509295909350565b6000806000606084860312156120e957600080fd5b6120f284611998565b95602085013595506040909401359392505050565b60008060006060848603121561211c57600080fd5b61212584611998565b92506020840135915061213a60408501611bc9565b90509250925092565b6001600160a01b0392831681529116602082015260400190565b60006020828403121561216f57600080fd5b815167ffffffffffffffff81111561218657600080fd5b8201601f8101841361219757600080fd5b80516121a5611a9882611a62565b8181528560208385010111156121ba57600080fd5b6121cb826020830160208601611b3c565b95945050505050565b634e487b7160e01b600052601160045260246000fd5b6000816000190483118215151615612204576122046121d4565b500290565b60008261222657634e487b7160e01b600052601260045260246000fd5b500490565b634e487b7160e01b600052603260045260246000fd5b600082821015612253576122536121d4565b500390565b6000821982111561226b5761226b6121d4565b500190565b81835260006001600160fb1b0383111561228957600080fd5b8260051b8083602087013760009401602001938452509192915050565b6040815260006122ba604083018688612270565b82810360208401526122cd818587612270565b979650505050505050565b6001600160a01b0389811682528816602082015260a060408201819052600090612305908301888a612270565b8281036060840152612318818789612270565b90508281036080840152838152838560208301376000602085830101526020601f19601f8601168201019150509998505050505050505050565b60006020828403121561236457600080fd5b8151611a14816119de565b60208082526010908201526f155394d0519157d49150d2541251539560821b604082015260600190565b600181811c908216806123ad57607f821691505b6020821081036123cd57634e487b7160e01b600052602260045260246000fd5b50919050565b6001600160a01b03868116825285166020820152604081018490526060810183905260a0608082018190526000906122cd90830184611b68565b60006001820161241f5761241f6121d4565b506001019056fea26469706673582212203863618553cede68c99b158d03bdcc2c44d11a5d623e1a6378cbd9704926687464736f6c634300080d0033",
    "linkReferences": {}
  },
  "methodIdentifiers": {
    "INITIAL_CONTROLLER()": "de11ff79",
    "NAME()": "a3f4df7e",
    "VAULT_REGISTRY()": "02ace7fe",
    "VERSION()": "ffa1ad74",
    "balanceOf(address,uint256)": "00fdd58e",
    "balanceOfBatch(address[],uint256[])": "4e1273f4",
    "burn(address,uint256,uint256)": "f5298aca",
    "contractURI()": "e8a3d485",
    "controller()": "f77c4791",
    "emitSetURI(uint256,string)": "0986c677",
    "isApproved(address,address,uint256)": "e5af48d8",
    "isApprovedForAll(address,address)": "e985e9c5",
    "metadata(uint256)": "e3684e39",
    "mint(address,uint256,uint256,bytes)": "731133e9",
    "nonces(address)": "7ecebe00",
    "permit(address,address,uint256,bool,uint256,uint8,bytes32,bytes32)": "2ccd9ed4",
    "permitAll(address,address,bool,uint256,uint8,bytes32,bytes32)": "cfa8fb42",
    "royaltyInfo(uint256,uint256)": "2a55205a",
    "safeBatchTransferFrom(address,address,uint256[],uint256[],bytes)": "2eb2c2d6",
    "safeTransferFrom(address,address,uint256,uint256,bytes)": "f242432a",
    "setApprovalFor(address,uint256,bool)": "f72c8689",
    "setApprovalForAll(address,bool)": "a22cb465",
    "setContractURI(string)": "938e3d7b",
    "setMetadata(address,uint256)": "5ae1bdc7",
    "setRoyalties(uint256,address,uint256)": "e2c7f338",
    "supportsInterface(bytes4)": "01ffc9a7",
    "totalSupply(uint256)": "bd85b039",
    "transferController(address)": "e8ea054b",
    "uri(uint256)": "0e89341c"
  },
  "id": 14
}