{
  "_format": "hh-sol-artifact-1",
  "contractName": "NFTReceiver",
  "sourceName": "src/utils/NFTReceiver.sol",
  "abi": [
    {
      "inputs": [
        {
          "internalType": "address",
          "name": "",
          "type": "address"
        },
        {
          "internalType": "address",
          "name": "",
          "type": "address"
        },
        {
          "internalType": "uint256[]",
          "name": "",
          "type": "uint256[]"
        },
        {
          "internalType": "uint256[]",
          "name": "",
          "type": "uint256[]"
        },
        {
          "internalType": "bytes",
          "name": "",
          "type": "bytes"
        }
      ],
      "name": "onERC1155BatchReceived",
      "outputs": [
        {
          "internalType": "bytes4",
          "name": "",
          "type": "bytes4"
        }
      ],
      "stateMutability": "nonpayable",
      "type": "function"
    },
    {
      "inputs": [
        {
          "internalType": "address",
          "name": "",
          "type": "address"
        },
        {
          "internalType": "address",
          "name": "",
          "type": "address"
        },
        {
          "internalType": "uint256",
          "name": "",
          "type": "uint256"
        },
        {
          "internalType": "uint256",
          "name": "",
          "type": "uint256"
        },
        {
          "internalType": "bytes",
          "name": "",
          "type": "bytes"
        }
      ],
      "name": "onERC1155Received",
      "outputs": [
        {
          "internalType": "bytes4",
          "name": "",
          "type": "bytes4"
        }
      ],
      "stateMutability": "nonpayable",
      "type": "function"
    },
    {
      "inputs": [
        {
          "internalType": "address",
          "name": "",
          "type": "address"
        },
        {
          "internalType": "address",
          "name": "",
          "type": "address"
        },
        {
          "internalType": "uint256",
          "name": "",
          "type": "uint256"
        },
        {
          "internalType": "bytes",
          "name": "",
          "type": "bytes"
        }
      ],
      "name": "onERC721Received",
      "outputs": [
        {
          "internalType": "bytes4",
          "name": "",
          "type": "bytes4"
        }
      ],
      "stateMutability": "nonpayable",
      "type": "function"
    }
  ],
  "bytecode": "0x608060405234801561001057600080fd5b506103b6806100206000396000f3fe608060405234801561001057600080fd5b50600436106100415760003560e01c8063150b7a0214610046578063bc197c81146100b3578063f23a6e61146100ee575b600080fd5b61007e610054366004610199565b7f150b7a020000000000000000000000000000000000000000000000000000000095945050505050565b6040517fffffffff00000000000000000000000000000000000000000000000000000000909116815260200160405180910390f35b61007e6100c136600461024d565b7fbc197c810000000000000000000000000000000000000000000000000000000098975050505050505050565b61007e6100fc366004610308565b7ff23a6e61000000000000000000000000000000000000000000000000000000009695505050505050565b803573ffffffffffffffffffffffffffffffffffffffff8116811461014b57600080fd5b919050565b60008083601f84011261016257600080fd5b50813567ffffffffffffffff81111561017a57600080fd5b60208301915083602082850101111561019257600080fd5b9250929050565b6000806000806000608086880312156101b157600080fd5b6101ba86610127565b94506101c860208701610127565b935060408601359250606086013567ffffffffffffffff8111156101eb57600080fd5b6101f788828901610150565b969995985093965092949392505050565b60008083601f84011261021a57600080fd5b50813567ffffffffffffffff81111561023257600080fd5b6020830191508360208260051b850101111561019257600080fd5b60008060008060008060008060a0898b03121561026957600080fd5b61027289610127565b975061028060208a01610127565b9650604089013567ffffffffffffffff8082111561029d57600080fd5b6102a98c838d01610208565b909850965060608b01359150808211156102c257600080fd5b6102ce8c838d01610208565b909650945060808b01359150808211156102e757600080fd5b506102f48b828c01610150565b999c989b5096995094979396929594505050565b60008060008060008060a0878903121561032157600080fd5b61032a87610127565b955061033860208801610127565b94506040870135935060608701359250608087013567ffffffffffffffff81111561036257600080fd5b61036e89828a01610150565b979a969950949750929593949250505056fea264697066735822122087c5cf84476929e97358051af5fc9465446f948c7ca2b6ac4b6c9a4bc4e36eb364736f6c634300080d0033",
  "linkReferences": {},
  "deployedLinkReferences": {}
}