{
  "_format": "hh-sol-artifact-1",
  "contractName": "MockSender",
  "sourceName": "src/mocks/MockSender.sol",
  "abi": [
    {
      "inputs": [],
      "name": "WETH_ADDRESS",
      "outputs": [
        {
          "internalType": "address payable",
          "name": "",
          "type": "address"
        }
      ],
      "stateMutability": "view",
      "type": "function"
    },
    {
      "inputs": [
        {
          "internalType": "address",
          "name": "to",
          "type": "address"
        },
        {
          "internalType": "uint256",
          "name": "value",
          "type": "uint256"
        }
      ],
      "name": "sendEthOrWeth",
      "outputs": [],
      "stateMutability": "nonpayable",
      "type": "function"
    },
    {
      "stateMutability": "payable",
      "type": "receive"
    }
  ],
  "bytecode": "0x608060405234801561001057600080fd5b506102a5806100206000396000f3fe60806040526004361061002d5760003560e01c8063040141e514610039578063e548c5f91461008a57600080fd5b3661003457005b600080fd5b34801561004557600080fd5b5061006173c02aaa39b223fe8d0a0e5c4f27ead9083c756cc281565b60405173ffffffffffffffffffffffffffffffffffffffff909116815260200160405180910390f35b34801561009657600080fd5b506100aa6100a5366004610201565b6100ac565b005b6100b682826100ba565b5050565b6100c482826101ee565b6100b65773c02aaa39b223fe8d0a0e5c4f27ead9083c756cc273ffffffffffffffffffffffffffffffffffffffff1663d0e30db0826040518263ffffffff1660e01b81526004016000604051808303818588803b15801561012457600080fd5b505af1158015610138573d6000803e3d6000fd5b50506040517fa9059cbb00000000000000000000000000000000000000000000000000000000815273ffffffffffffffffffffffffffffffffffffffff861660048201526024810185905273c02aaa39b223fe8d0a0e5c4f27ead9083c756cc2935063a9059cbb925060440190506020604051808303816000875af11580156101c5573d6000803e3d6000fd5b505050506040513d601f19601f820116820180604052508101906101e99190610246565b505050565b600080600080600085875af19392505050565b6000806040838503121561021457600080fd5b823573ffffffffffffffffffffffffffffffffffffffff8116811461023857600080fd5b946020939093013593505050565b60006020828403121561025857600080fd5b8151801515811461026857600080fd5b939250505056fea2646970667358221220c77487bfdcfac1ce704b01b8c44c96e89ed6399acfbdb676070acc314a10f1f464736f6c634300080d0033",
  "linkReferences": {},
  "deployedLinkReferences": {}
}