{
  "abi": [
    {
      "inputs": [],
      "stateMutability": "nonpayable",
      "type": "constructor"
    },
    {
      "inputs": [],
      "name": "CreateFail",
      "type": "error"
    },
    {
      "anonymous": false,
      "inputs": [
        {
          "indexed": true,
          "internalType": "address",
          "name": "_origin",
          "type": "address"
        },
        {
          "indexed": true,
          "internalType": "address",
          "name": "_deployer",
          "type": "address"
        },
        {
          "indexed": true,
          "internalType": "address",
          "name": "_owner",
          "type": "address"
        },
        {
          "indexed": false,
          "internalType": "bytes32",
          "name": "_seed",
          "type": "bytes32"
        },
        {
          "indexed": false,
          "internalType": "bytes32",
          "name": "_salt",
          "type": "bytes32"
        },
        {
          "indexed": false,
          "internalType": "address",
          "name": "_vault",
          "type": "address"
        }
      ],
      "name": "DeployVault",
      "type": "event"
    },
    {
      "inputs": [],
      "name": "deploy",
      "outputs": [
        {
          "internalType": "address payable",
          "name": "vault",
          "type": "address"
        }
      ],
      "stateMutability": "nonpayable",
      "type": "function"
    },
    {
      "inputs": [
        {
          "internalType": "address",
          "name": "_owner",
          "type": "address"
        }
      ],
      "name": "deployFor",
      "outputs": [
        {
          "internalType": "address payable",
          "name": "vault",
          "type": "address"
        }
      ],
      "stateMutability": "nonpayable",
      "type": "function"
    },
    {
      "inputs": [
        {
          "internalType": "address",
          "name": "_deployer",
          "type": "address"
        }
      ],
      "name": "getNextAddress",
      "outputs": [
        {
          "internalType": "address",
          "name": "vault",
          "type": "address"
        }
      ],
      "stateMutability": "view",
      "type": "function"
    },
    {
      "inputs": [
        {
          "internalType": "address",
          "name": "_deployer",
          "type": "address"
        }
      ],
      "name": "getNextSeed",
      "outputs": [
        {
          "internalType": "bytes32",
          "name": "",
          "type": "bytes32"
        }
      ],
      "stateMutability": "view",
      "type": "function"
    },
    {
      "inputs": [],
      "name": "implementation",
      "outputs": [
        {
          "internalType": "address",
          "name": "",
          "type": "address"
        }
      ],
      "stateMutability": "view",
      "type": "function"
    }
  ],
  "bytecode": {
    "object": "0x608060405234801561001057600080fd5b5060405161001d9061005f565b604051809103906000f080158015610039573d6000803e3d6000fd5b50600080546001600160a01b0319166001600160a01b039290921691909117905561006c565b6110108061055b83390190565b6104e08061007b6000396000f3fe608060405234801561001057600080fd5b50600436106100575760003560e01c806337a6be161461005c57806341152359146100985780635c60da1b146100c357806374912cd2146100d6578063775c300c146100e9575b600080fd5b61008561006a36600461047a565b6001600160a01b031660009081526001602052604090205490565b6040519081526020015b60405180910390f35b6100ab6100a636600461047a565b6100f1565b6040516001600160a01b03909116815260200161008f565b6000546100ab906001600160a01b031681565b6100ab6100e436600461047a565b6101b2565b6100ab610334565b6001600160a01b03818116600081815260016020908152604080832054815180840195909552848201528051808503820181526060850180835281519190930120838352608090940190528154919384928392610152929190911690610344565b9020604080516001600160f81b03196020808301919091523060601b6bffffffffffffffffffffffff1916602183015260358201969096526055808201939093528151808203909301835260750190528051930192909220949350505050565b326000818152600160209081526040808320548151928301949094528101839052909190829060600160408051601f198184030181528282528051602091820120600080855291840190925254909250610216906001600160a01b0316838361042f565b9350836001600160a01b031663e1c7392a6040518163ffffffff1660e01b8152600401600060405180830381600087803b15801561025357600080fd5b505af1158015610267573d6000803e3d6000fd5b505060405163f2fde38b60e01b81526001600160a01b0388811660048301528716925063f2fde38b9150602401600060405180830381600087803b1580156102ae57600080fd5b505af11580156102c2573d6000803e3d6000fd5b50503260008181526001602081815260409283902091890190915581518881529081018790526001600160a01b03898116828401529151918a1694503393507fc836d877ec2901a6c3f2e17c94bf617570a3664e9c75f6a9c5e48696cde1343d919081900360600190a4505050919050565b600061033f336101b2565b905090565b8051604051613d6160f01b8152603a820160f081811b6002848101919091526680600b3d3981f360c81b600485015264363d3d376160d81b600b8501528401901b6010830181905268603836393d3d3d366160b81b6012840152601b83015262013d7360e81b601d830152606085901b6020808401919091526e5af43d82803e903d91603657fd5bf360881b603484015291926045810192909190850182604386015b602082106104065782518152602092830192601f1990920191016103e7565b915160001960208390036101000a011916825260f09390931b9201919091525090939092509050565b600080600061043e8685610344565b915091508481836000f592506001600160a01b03831661047157604051631d7fde3160e31b815260040160405180910390fd5b50509392505050565b60006020828403121561048c57600080fd5b81356001600160a01b03811681146104a357600080fd5b939250505056fea26469706673582212207f92b5b8c40b28260766ef9682d2fa86ba3bbdbeec7c291eee9d7d3322e3be7d64736f6c634300080d0033608060405234801561001057600080fd5b50610ff0806100206000396000f3fe6080604052600436106100c65760003560e01c80637cb647591161007f578063bc197c8111610059578063bc197c8114610283578063e1c7392a146102b2578063f23a6e61146102c7578063f2fde38b146102f4576100cd565b80637cb647591461022d5780638da5cb5b1461024d578063affed0e01461026d576100cd565b8063150b7a021461010e5780632e09ea9b146101585780632eb4a7ab1461017a5780633ca0a6171461019e578063601b8af3146101be5780636b039451146101df576100cd565b366100cd57005b600080356001600160e01b03191681526003602052604081205436906060906001600160a01b0316610100818585610314565b805195506020019350505050f35b34801561011a57600080fd5b5061013a610129366004610970565b630a85bd0160e11b95945050505050565b6040516001600160e01b031990911681526020015b60405180910390f35b34801561016457600080fd5b50610178610173366004610ad4565b61044a565b005b34801561018657600080fd5b5061019060015481565b60405190815260200161014f565b3480156101aa57600080fd5b506101786101b9366004610b11565b61053f565b6101d16101cc366004610c18565b61064f565b60405161014f929190610c88565b3480156101eb57600080fd5b506102156101fa366004610ce7565b6003602052600090815260409020546001600160a01b031681565b6040516001600160a01b03909116815260200161014f565b34801561023957600080fd5b50610178610248366004610d02565b610719565b34801561025957600080fd5b50600054610215906001600160a01b031681565b34801561027957600080fd5b5061019060025481565b34801561028f57600080fd5b5061013a61029e366004610d1b565b63bc197c8160e01b98975050505050505050565b3480156102be57600080fd5b5061017861075e565b3480156102d357600080fd5b5061013a6102e2366004610dd6565b63f23a6e6160e01b9695505050505050565b34801561030057600080fd5b5061017861030f366004610e4e565b6107e2565b60006060843b80830361034a576040516305fc177f60e01b81526001600160a01b03871660048201526024015b60405180910390fd5b600080546001600160a01b0316906113885a6103669190610e7f565b9050876001600160a01b0316818888604051610383929190610e96565b6000604051808303818686f4925050503d80600081146103bf576040519150601f19603f3d011682016040523d82523d6000602084013e6103c4565b606091505b5060005491965094506001600160a01b0383811691161461040f5760005460405163b532073b60e01b81526001600160a01b0380851660048301529091166024820152604401610341565b8461043f5783516000036104365760405163f21e646b60e01b815260040160405180910390fd5b61043f8461086d565b505050935093915050565b6000546001600160a01b0316331461048a57600054604051631194af8760e11b81526001600160a01b039091166004820152336024820152604401610341565b805160005b81811015610503576000600360008584815181106104af576104af610ea6565b6020908102919091018101516001600160e01b031916825281019190915260400160002080546001600160a01b0319166001600160a01b0392909216919091179055806104fb81610ebc565b91505061048f565b507fb3a11edff134a07565e9e73e89fe2198279d8bf3f8218a543981f219b3991c29826040516105339190610f1a565b60405180910390a15050565b6000546001600160a01b0316331461057f57600054604051631194af8760e11b81526001600160a01b039091166004820152336024820152604401610341565b815160005b818110156106105782818151811061059e5761059e610ea6565b6020026020010151600360008684815181106105bc576105bc610ea6565b6020908102919091018101516001600160e01b031916825281019190915260400160002080546001600160a01b0319166001600160a01b03929092169190911790558061060881610ebc565b915050610584565b507ff7d11fffde62bb148b72087d285cbd907ca404701a120597f0896a240881220f8383604051610642929190610f2d565b60405180910390a1505050565b60006060600086359050600033898360405160200161067093929190610f8d565b6040516020818303038152906040528051906020012090506106c9868680806020026020016040519081016040528093929190818152602001838360200280828437600092019190915250506001549150849050610876565b6106fe576000546001600160a01b031633146106fe57338983604051632054e00b60e21b815260040161034193929190610f8d565b610709898989610314565b909a909950975050505050505050565b6000546001600160a01b0316331461075957600054604051631194af8760e11b81526001600160a01b039091166004820152336024820152604401610341565b600155565b6002541561079c576000546002546040516308793b2960e11b81526001600160a01b0390921660048301523360248301526044820152606401610341565b6001600255600080546001600160a01b0319163390811782556040519091907f5c486528ec3e3f0ea91181cff8116f02bfa350e03b8b6f12e00765adbb5af85c908290a3565b6000546001600160a01b0316331461082257600054604051631194af8760e11b81526001600160a01b039091166004820152336024820152604401610341565b600080546001600160a01b0319166001600160a01b0383169081178255604051909133917f5c486528ec3e3f0ea91181cff8116f02bfa350e03b8b6f12e00765adbb5af85c9190a350565b80518082602001fd5b600082610883858461088c565b14949350505050565b600081815b84518110156108d1576108bd828683815181106108b0576108b0610ea6565b60200260200101516108d9565b9150806108c981610ebc565b915050610891565b509392505050565b60008183106108f5576000828152602084905260409020610904565b60008381526020839052604090205b9392505050565b80356001600160a01b038116811461092257600080fd5b919050565b60008083601f84011261093957600080fd5b50813567ffffffffffffffff81111561095157600080fd5b60208301915083602082850101111561096957600080fd5b9250929050565b60008060008060006080868803121561098857600080fd5b6109918661090b565b945061099f6020870161090b565b935060408601359250606086013567ffffffffffffffff8111156109c257600080fd5b6109ce88828901610927565b969995985093965092949392505050565b634e487b7160e01b600052604160045260246000fd5b604051601f8201601f1916810167ffffffffffffffff81118282101715610a1e57610a1e6109df565b604052919050565b600067ffffffffffffffff821115610a4057610a406109df565b5060051b60200190565b80356001600160e01b03198116811461092257600080fd5b600082601f830112610a7357600080fd5b81356020610a88610a8383610a26565b6109f5565b82815260059290921b84018101918181019086841115610aa757600080fd5b8286015b84811015610ac957610abc81610a4a565b8352918301918301610aab565b509695505050505050565b600060208284031215610ae657600080fd5b813567ffffffffffffffff811115610afd57600080fd5b610b0984828501610a62565b949350505050565b60008060408385031215610b2457600080fd5b823567ffffffffffffffff80821115610b3c57600080fd5b610b4886838701610a62565b9350602091508185013581811115610b5f57600080fd5b85019050601f81018613610b7257600080fd5b8035610b80610a8382610a26565b81815260059190911b82018301908381019088831115610b9f57600080fd5b928401925b82841015610bc457610bb58461090b565b82529284019290840190610ba4565b80955050505050509250929050565b60008083601f840112610be557600080fd5b50813567ffffffffffffffff811115610bfd57600080fd5b6020830191508360208260051b850101111561096957600080fd5b600080600080600060608688031215610c3057600080fd5b610c398661090b565b9450602086013567ffffffffffffffff80821115610c5657600080fd5b610c6289838a01610927565b90965094506040880135915080821115610c7b57600080fd5b506109ce88828901610bd3565b821515815260006020604081840152835180604085015260005b81811015610cbe57858101830151858201606001528201610ca2565b81811115610cd0576000606083870101525b50601f01601f191692909201606001949350505050565b600060208284031215610cf957600080fd5b61090482610a4a565b600060208284031215610d1457600080fd5b5035919050565b60008060008060008060008060a0898b031215610d3757600080fd5b610d408961090b565b9750610d4e60208a0161090b565b9650604089013567ffffffffffffffff80821115610d6b57600080fd5b610d778c838d01610bd3565b909850965060608b0135915080821115610d9057600080fd5b610d9c8c838d01610bd3565b909650945060808b0135915080821115610db557600080fd5b50610dc28b828c01610927565b999c989b5096995094979396929594505050565b60008060008060008060a08789031215610def57600080fd5b610df88761090b565b9550610e066020880161090b565b94506040870135935060608701359250608087013567ffffffffffffffff811115610e3057600080fd5b610e3c89828a01610927565b979a9699509497509295939492505050565b600060208284031215610e6057600080fd5b6109048261090b565b634e487b7160e01b600052601160045260246000fd5b600082821015610e9157610e91610e69565b500390565b8183823760009101908152919050565b634e487b7160e01b600052603260045260246000fd5b600060018201610ece57610ece610e69565b5060010190565b600081518084526020808501945080840160005b83811015610f0f5781516001600160e01b03191687529582019590820190600101610ee9565b509495945050505050565b6020815260006109046020830184610ed5565b604081526000610f406040830185610ed5565b82810360208481019190915284518083528582019282019060005b81811015610f805784516001600160a01b031683529383019391830191600101610f5b565b5090979650505050505050565b6001600160a01b0393841681529190921660208201526001600160e01b031990911660408201526060019056fea2646970667358221220879b58c7d56d62bc20bf3cb67eaa7d817fe18f971e5e0e69b54cff862d0d189164736f6c634300080d0033",
    "linkReferences": {}
  },
  "methodIdentifiers": {
    "deploy()": "775c300c",
    "deployFor(address)": "74912cd2",
    "getNextAddress(address)": "41152359",
    "getNextSeed(address)": "37a6be16",
    "implementation()": "5c60da1b"
  },
  "id": 16
}