{
  "abi": [
    {
      "inputs": [
        {
          "internalType": "address",
          "name": "_addr",
          "type": "address"
        },
        {
          "internalType": "uint256",
          "name": "_privateKey",
          "type": "uint256"
        },
        {
          "internalType": "address",
          "name": "_target",
          "type": "address"
        }
      ],
      "stateMutability": "nonpayable",
      "type": "constructor"
    },
    {
      "inputs": [
        {
          "internalType": "address",
          "name": "_from",
          "type": "address"
        },
        {
          "internalType": "uint256",
          "name": "_value",
          "type": "uint256"
        }
      ],
      "name": "burn",
      "outputs": [],
      "stateMutability": "nonpayable",
      "type": "function"
    },
    {
      "inputs": [
        {
          "internalType": "address",
          "name": "_to",
          "type": "address"
        },
        {
          "internalType": "uint256",
          "name": "_value",
          "type": "uint256"
        }
      ],
      "name": "mint",
      "outputs": [],
      "stateMutability": "nonpayable",
      "type": "function"
    },
    {
      "inputs": [],
      "name": "proxyContract",
      "outputs": [
        {
          "internalType": "address",
          "name": "",
          "type": "address"
        }
      ],
      "stateMutability": "view",
      "type": "function"
    }
  ],
  "bytecode": {
    "object": "0x608060405234801561001057600080fd5b5060405161046b38038061046b83398101604081905261002f91610108565b81156100b3576040516001625e79b760e01b0319815260048101839052737109709ecfa91a80626ff3989d68f67f5b1dd12d9063ffa18649906024016020604051808303816000875af115801561008a573d6000803e3d6000fd5b505050506040513d601f19601f820116820180604052508101906100ae9190610144565b6100b5565b825b600080546001600160a01b03199081166001600160a01b039384161790915560019390935560028054909316911617905550610166565b80516001600160a01b038116811461010357600080fd5b919050565b60008060006060848603121561011d57600080fd5b610126846100ec565b92506020840151915061013b604085016100ec565b90509250925092565b60006020828403121561015657600080fd5b61015f826100ec565b9392505050565b6102f6806101756000396000f3fe608060405234801561001057600080fd5b50600436106100415760003560e01c806340c10f19146100465780639dc29fac1461005b578063ed5504431461006e575b600080fd5b610059610054366004610288565b61008d565b005b610059610069366004610288565b6101d7565b600254604080516001600160a01b039092168252519081900360200190f35b6000546040516308b6ac0f60e31b81526001600160a01b03909116600482018190526024820152737109709ecfa91a80626ff3989d68f67f5b1dd12d906345b5607890604401600060405180830381600087803b1580156100ed57600080fd5b505af1158015610101573d6000803e3d6000fd5b50506002546040516340c10f1960e01b81526001600160a01b0386811660048301526024820186905290911692506340c10f1991506044015b600060405180830381600087803b15801561015457600080fd5b505af1158015610168573d6000803e3d6000fd5b50505050737109709ecfa91a80626ff3989d68f67f5b1dd12d6001600160a01b03166390c5013b6040518163ffffffff1660e01b8152600401600060405180830381600087803b1580156101bb57600080fd5b505af11580156101cf573d6000803e3d6000fd5b505050505050565b6000546040516308b6ac0f60e31b81526001600160a01b03909116600482018190526024820152737109709ecfa91a80626ff3989d68f67f5b1dd12d906345b5607890604401600060405180830381600087803b15801561023757600080fd5b505af115801561024b573d6000803e3d6000fd5b5050600254604051632770a7eb60e21b81526001600160a01b038681166004830152602482018690529091169250639dc29fac915060440161013a565b6000806040838503121561029b57600080fd5b82356001600160a01b03811681146102b257600080fd5b94602093909301359350505056fea2646970667358221220e38e93a48efd81db4a03b7dd9a88c1da034c47444fd88778862ab5347fced8af64736f6c634300080d0033",
    "linkReferences": {}
  },
  "methodIdentifiers": {
    "burn(address,uint256)": "9dc29fac",
    "mint(address,uint256)": "40c10f19",
    "proxyContract()": "ed550443"
  },
  "id": 108
}