{
  "abi": [
    {
      "inputs": [
        {
          "internalType": "address",
          "name": "_addr",
          "type": "address"
        },
        {
          "internalType": "uint256",
          "name": "_privateKey",
          "type": "uint256"
        },
        {
          "internalType": "address",
          "name": "_target",
          "type": "address"
        }
      ],
      "stateMutability": "nonpayable",
      "type": "constructor"
    },
    {
      "inputs": [
        {
          "internalType": "bytes[]",
          "name": "_data",
          "type": "bytes[]"
        }
      ],
      "name": "multicall",
      "outputs": [
        {
          "internalType": "bytes[]",
          "name": "",
          "type": "bytes[]"
        }
      ],
      "stateMutability": "nonpayable",
      "type": "function"
    },
    {
      "inputs": [],
      "name": "proxyContract",
      "outputs": [
        {
          "internalType": "address",
          "name": "",
          "type": "address"
        }
      ],
      "stateMutability": "view",
      "type": "function"
    }
  ],
  "bytecode": {
    "object": "0x608060405234801561001057600080fd5b5060405161069c38038061069c83398101604081905261002f91610108565b81156100b3576040516001625e79b760e01b0319815260048101839052737109709ecfa91a80626ff3989d68f67f5b1dd12d9063ffa18649906024016020604051808303816000875af115801561008a573d6000803e3d6000fd5b505050506040513d601f19601f820116820180604052508101906100ae9190610144565b6100b5565b825b600080546001600160a01b03199081166001600160a01b039384161790915560019390935560028054909316911617905550610166565b80516001600160a01b038116811461010357600080fd5b919050565b60008060006060848603121561011d57600080fd5b610126846100ec565b92506020840151915061013b604085016100ec565b90509250925092565b60006020828403121561015657600080fd5b61015f826100ec565b9392505050565b610527806101756000396000f3fe608060405234801561001057600080fd5b50600436106100365760003560e01c8063ac9650d81461003b578063ed55044314610064575b600080fd5b61004e610049366004610272565b61007f565b60405161005b9190610397565b60405180910390f35b6002546040516001600160a01b03909116815260200161005b565b6000546040516308b6ac0f60e31b81526001600160a01b03909116600482018190526024820152606090737109709ecfa91a80626ff3989d68f67f5b1dd12d906345b5607890604401600060405180830381600087803b1580156100e257600080fd5b505af11580156100f6573d6000803e3d6000fd5b5050600254604051631592ca1b60e31b81526001600160a01b03909116925063ac9650d8915061012a908590600401610397565b6000604051808303816000875af1158015610149573d6000803e3d6000fd5b505050506040513d6000823e601f3d908101601f191682016040526101719190810190610411565b9050737109709ecfa91a80626ff3989d68f67f5b1dd12d6001600160a01b03166390c5013b6040518163ffffffff1660e01b8152600401600060405180830381600087803b1580156101c257600080fd5b505af11580156101d6573d6000803e3d6000fd5b50505050919050565b634e487b7160e01b600052604160045260246000fd5b604051601f8201601f1916810167ffffffffffffffff8111828210171561021e5761021e6101df565b604052919050565b600067ffffffffffffffff821115610240576102406101df565b5060051b60200190565b600067ffffffffffffffff821115610264576102646101df565b50601f01601f191660200190565b6000602080838503121561028557600080fd5b823567ffffffffffffffff8082111561029d57600080fd5b818501915085601f8301126102b157600080fd5b81356102c46102bf82610226565b6101f5565b81815260059190911b830184019084810190888311156102e357600080fd5b8585015b8381101561035a578035858111156102ff5760008081fd5b8601603f81018b136103115760008081fd5b8781013560406103236102bf8361024a565b8281528d828486010111156103385760008081fd5b828285018c83013760009281018b0192909252508452509186019186016102e7565b5098975050505050505050565b60005b8381101561038257818101518382015260200161036a565b83811115610391576000848401525b50505050565b6000602080830181845280855180835260408601915060408160051b870101925083870160005b8281101561040457878503603f19018452815180518087526103e5818989018a8501610367565b601f01601f1916959095018601945092850192908501906001016103be565b5092979650505050505050565b6000602080838503121561042457600080fd5b825167ffffffffffffffff8082111561043c57600080fd5b818501915085601f83011261045057600080fd5b815161045e6102bf82610226565b81815260059190911b8301840190848101908883111561047d57600080fd5b8585015b8381101561035a578051858111156104995760008081fd5b8601603f81018b136104ab5760008081fd5b8781015160406104bd6102bf8361024a565b8281528d828486010111156104d25760008081fd5b6104e1838c8301848701610367565b865250505091860191860161048156fea2646970667358221220395796c46c556d745aebaef8a2bbab1eeeb24b8a2ce4383e0eb5b7fbca3c5f9564736f6c634300080d0033",
    "linkReferences": {}
  },
  "methodIdentifiers": {
    "multicall(bytes[])": "ac9650d8",
    "proxyContract()": "ed550443"
  },
  "id": 103
}