{
  "_format": "hh-sol-artifact-1",
  "contractName": "Transfer",
  "sourceName": "src/targets/Transfer.sol",
  "abi": [
    {
      "inputs": [
        {
          "internalType": "address",
          "name": "_token",
          "type": "address"
        },
        {
          "internalType": "address",
          "name": "_from",
          "type": "address"
        },
        {
          "internalType": "address",
          "name": "_to",
          "type": "address"
        },
        {
          "internalType": "uint256",
          "name": "_amount",
          "type": "uint256"
        }
      ],
      "name": "BadReturnValueFromERC20OnTransfer",
      "type": "error"
    },
    {
      "inputs": [
        {
          "internalType": "address",
          "name": "_token",
          "type": "address"
        },
        {
          "internalType": "address",
          "name": "_from",
          "type": "address"
        },
        {
          "internalType": "address",
          "name": "_to",
          "type": "address"
        },
        {
          "internalType": "uint256[]",
          "name": "_identifiers",
          "type": "uint256[]"
        },
        {
          "internalType": "uint256[]",
          "name": "_amounts",
          "type": "uint256[]"
        }
      ],
      "name": "ERC1155BatchTransferGenericFailure",
      "type": "error"
    },
    {
      "inputs": [],
      "name": "InvalidERC721TransferAmount",
      "type": "error"
    },
    {
      "inputs": [],
      "name": "MissingItemAmount",
      "type": "error"
    },
    {
      "inputs": [
        {
          "internalType": "address",
          "name": "_account",
          "type": "address"
        }
      ],
      "name": "NoContract",
      "type": "error"
    },
    {
      "inputs": [
        {
          "internalType": "address",
          "name": "_token",
          "type": "address"
        },
        {
          "internalType": "address",
          "name": "_from",
          "type": "address"
        },
        {
          "internalType": "address",
          "name": "_to",
          "type": "address"
        },
        {
          "internalType": "uint256",
          "name": "_identifier",
          "type": "uint256"
        },
        {
          "internalType": "uint256",
          "name": "_amount",
          "type": "uint256"
        }
      ],
      "name": "TokenTransferGenericFailure",
      "type": "error"
    },
    {
      "inputs": [
        {
          "internalType": "address",
          "name": "",
          "type": "address"
        },
        {
          "internalType": "address",
          "name": "",
          "type": "address"
        },
        {
          "internalType": "address",
          "name": "",
          "type": "address"
        },
        {
          "internalType": "uint256[]",
          "name": "",
          "type": "uint256[]"
        },
        {
          "internalType": "uint256[]",
          "name": "",
          "type": "uint256[]"
        }
      ],
      "name": "ERC1155BatchTransferFrom",
      "outputs": [],
      "stateMutability": "nonpayable",
      "type": "function"
    },
    {
      "inputs": [
        {
          "internalType": "address",
          "name": "_token",
          "type": "address"
        },
        {
          "internalType": "address",
          "name": "_from",
          "type": "address"
        },
        {
          "internalType": "address",
          "name": "_to",
          "type": "address"
        },
        {
          "internalType": "uint256",
          "name": "_tokenId",
          "type": "uint256"
        },
        {
          "internalType": "uint256",
          "name": "_amount",
          "type": "uint256"
        }
      ],
      "name": "ERC1155TransferFrom",
      "outputs": [],
      "stateMutability": "nonpayable",
      "type": "function"
    },
    {
      "inputs": [
        {
          "internalType": "address",
          "name": "_token",
          "type": "address"
        },
        {
          "internalType": "address",
          "name": "_to",
          "type": "address"
        },
        {
          "internalType": "uint256",
          "name": "_amount",
          "type": "uint256"
        }
      ],
      "name": "ERC20Transfer",
      "outputs": [],
      "stateMutability": "nonpayable",
      "type": "function"
    },
    {
      "inputs": [
        {
          "internalType": "address",
          "name": "_token",
          "type": "address"
        },
        {
          "internalType": "address",
          "name": "_from",
          "type": "address"
        },
        {
          "internalType": "address",
          "name": "_to",
          "type": "address"
        },
        {
          "internalType": "uint256",
          "name": "_tokenId",
          "type": "uint256"
        }
      ],
      "name": "ERC721TransferFrom",
      "outputs": [],
      "stateMutability": "nonpayable",
      "type": "function"
    }
  ],
  "bytecode": "0x608060405234801561001057600080fd5b506107fb806100206000396000f3fe608060405234801561001057600080fd5b506004361061004c5760003560e01c806318c4eeed1461005157806368e72e491461006657806376aa79b214610079578063e59fdd361461008c575b600080fd5b61006461005f3660046105fb565b61009f565b005b610064610074366004610646565b6101ae565b6100646100873660046106e7565b6102e0565b61006461009a366004610789565b61046a565b833b6100d3577f5f15d672000000000000000000000000000000000000000000000000000000006000528360045260246000fd5b6040517f23b872dd000000000000000000000000000000000000000000000000000000006000528360045282602452816044526000806064600080895af18061019f573d15610160576020601f3d010460208304816003028183111561014757818303600302610200838002858002030401015b5a60208201101561015c573d6000803e3d6000fd5b5050505b7ff486bc870000000000000000000000000000000000000000000000000000000060005285600452846024528360445282606452600160845260a46000fd5b50604052505060006060525050565b843b6101e2577f5f15d672000000000000000000000000000000000000000000000000000000006000528460045260246000fd5b60405160805160a05160c0517ff242432a000000000000000000000000000000000000000000000000000000006000528760045286602452856044528460645260a0608452600060a45260008060c46000808d5af1806102c4573d15610286576020601f3d010460208604816003028183111561026d57818303600302610200838002858002030401015b5a602082011015610282573d6000803e3d6000fd5b5050505b7ff486bc8700000000000000000000000000000000000000000000000000000000600052896004528860245287604452866064528560845260a46000fd5b5060809290925260a05260c05260405250506000606052505050565b7f2eb2c2d600000000000000000000000000000000000000000000000000000000602052600435803b61033b577f5f15d672000000000000000000000000000000000000000000000000000000006000528060045260246000fd5b60a0600401356020810260c001806080600401351460a0606060040135141681600401358314161590508015610395577feba2084c0000000000000000000000000000000000000000000000000000000060005260046000fd5b506080602480376040810260400190508060a00160a452600081610104015280610104018160a060040160c4376000808260206000875af1915081610459573d1561041e576020601f3d010460208204816003028183111561040557818303600302610200838002858002030401015b5a60208201101561041a573d6000803e3d6000fd5b5050505b7fafc445e200000000000000000000000000000000000000000000000000000000600052826004526080604452608451602001608452806000fd5b505050608060405250505050505050565b6040517fa9059cbb000000000000000000000000000000000000000000000000000000006000528260045281602452602060006044600080885af1803d15601f3d116001600051141617163d151581166105c35780863b1515166105c35780610595578161055b573d1561051c576020601f3d010460208404816003028183111561050357818303600302610200838002858002030401015b5a602082011015610518573d6000803e3d6000fd5b5050505b7ff486bc870000000000000000000000000000000000000000000000000000000060005285600452336024528460445260006064528360845260a46000fd5b7f98891923000000000000000000000000000000000000000000000000000000006000528560045233602452846044528360645260846000fd5b7f5f15d672000000000000000000000000000000000000000000000000000000006000528560045260246000fd5b50506040525050600060605250565b803573ffffffffffffffffffffffffffffffffffffffff811681146105f657600080fd5b919050565b6000806000806080858703121561061157600080fd5b61061a856105d2565b9350610628602086016105d2565b9250610636604086016105d2565b9396929550929360600135925050565b600080600080600060a0868803121561065e57600080fd5b610667866105d2565b9450610675602087016105d2565b9350610683604087016105d2565b94979396509394606081013594506080013592915050565b60008083601f8401126106ad57600080fd5b50813567ffffffffffffffff8111156106c557600080fd5b6020830191508360208260051b85010111156106e057600080fd5b9250929050565b600080600080600080600060a0888a03121561070257600080fd5b61070b886105d2565b9650610719602089016105d2565b9550610727604089016105d2565b9450606088013567ffffffffffffffff8082111561074457600080fd5b6107508b838c0161069b565b909650945060808a013591508082111561076957600080fd5b506107768a828b0161069b565b989b979a50959850939692959293505050565b60008060006060848603121561079e57600080fd5b6107a7846105d2565b92506107b5602085016105d2565b915060408401359050925092509256fea26469706673582212205ceb87c997a7f2c9967a52a1273d5c243d3cedd85b7f42d961f7647b02bea5f564736f6c634300080d0033",
  "linkReferences": {},
  "deployedLinkReferences": {}
}