{
  "abi": [
    {
      "inputs": [
        {
          "internalType": "address",
          "name": "_supply",
          "type": "address"
        }
      ],
      "stateMutability": "nonpayable",
      "type": "constructor"
    },
    {
      "inputs": [],
      "name": "getLeafNodes",
      "outputs": [
        {
          "internalType": "bytes32[]",
          "name": "nodes",
          "type": "bytes32[]"
        }
      ],
      "stateMutability": "view",
      "type": "function"
    },
    {
      "inputs": [],
      "name": "getPermissions",
      "outputs": [
        {
          "components": [
            {
              "internalType": "address",
              "name": "module",
              "type": "address"
            },
            {
              "internalType": "address",
              "name": "target",
              "type": "address"
            },
            {
              "internalType": "bytes4",
              "name": "selector",
              "type": "bytes4"
            }
          ],
          "internalType": "struct Permission[]",
          "name": "permissions",
          "type": "tuple[]"
        }
      ],
      "stateMutability": "view",
      "type": "function"
    },
    {
      "inputs": [],
      "name": "supply",
      "outputs": [
        {
          "internalType": "address",
          "name": "",
          "type": "address"
        }
      ],
      "stateMutability": "view",
      "type": "function"
    }
  ],
  "bytecode": {
    "object": "0x608060405234801561001057600080fd5b5060405161036a38038061036a83398101604081905261002f91610054565b600080546001600160a01b0319166001600160a01b0392909216919091179055610084565b60006020828403121561006657600080fd5b81516001600160a01b038116811461007d57600080fd5b9392505050565b6102d7806100936000396000f3fe608060405234801561001057600080fd5b50600436106100415760003560e01c8063047fc9aa14610046578063c3a07df614610076578063cbbb4ac51461008b575b600080fd5b600054610059906001600160a01b031681565b6040516001600160a01b0390911681526020015b60405180910390f35b61007e6100a0565b60405161006d91906101f1565b610093610134565b60405161006d919061023f565b604080516001808252818301909252606091816020015b60408051606081018252600080825260208083018290529282015282526000199092019101816100b757505060408051606081018252308152600080546001600160a01b031660208301526340c10f1960e01b9282019290925282519293509183919061012657610126610277565b602002602001018190525090565b6040805160018082528183019092526060916020808301908036833701905050905061015e6100a0565b60008151811061017057610170610277565b6020026020010151604051602001610188919061028d565b60405160208183030381529060405280519060200120816000815181106101b1576101b1610277565b60200260200101818152505090565b80516001600160a01b039081168352602080830151909116908301526040908101516001600160e01b031916910152565b6020808252825182820181905260009190848201906040850190845b81811015610233576102208385516101c0565b928401926060929092019160010161020d565b50909695505050505050565b6020808252825182820181905260009190848201906040850190845b818110156102335783518352928401929184019160010161025b565b634e487b7160e01b600052603260045260246000fd5b6060810161029b82846101c0565b9291505056fea2646970667358221220b29c720c4f05a139229b9da92ff46845d0a440920b18fafcae9ac6c4630deccd64736f6c634300080d0033",
    "linkReferences": {}
  },
  "methodIdentifiers": {
    "getLeafNodes()": "cbbb4ac5",
    "getPermissions()": "c3a07df6",
    "supply()": "047fc9aa"
  },
  "id": 47
}