{
  "abi": [
    {
      "inputs": [
        {
          "internalType": "address",
          "name": "_addr",
          "type": "address"
        },
        {
          "internalType": "uint256",
          "name": "_privateKey",
          "type": "uint256"
        },
        {
          "internalType": "address",
          "name": "_target",
          "type": "address"
        }
      ],
      "stateMutability": "nonpayable",
      "type": "constructor"
    },
    {
      "inputs": [
        {
          "internalType": "address",
          "name": "arg0",
          "type": "address"
        },
        {
          "internalType": "address",
          "name": "arg1",
          "type": "address"
        },
        {
          "internalType": "address",
          "name": "arg2",
          "type": "address"
        },
        {
          "internalType": "uint256[]",
          "name": "arg3",
          "type": "uint256[]"
        },
        {
          "internalType": "uint256[]",
          "name": "arg4",
          "type": "uint256[]"
        }
      ],
      "name": "ERC1155BatchTransferFrom",
      "outputs": [],
      "stateMutability": "nonpayable",
      "type": "function"
    },
    {
      "inputs": [
        {
          "internalType": "address",
          "name": "_token",
          "type": "address"
        },
        {
          "internalType": "address",
          "name": "_from",
          "type": "address"
        },
        {
          "internalType": "address",
          "name": "_to",
          "type": "address"
        },
        {
          "internalType": "uint256",
          "name": "_tokenId",
          "type": "uint256"
        },
        {
          "internalType": "uint256",
          "name": "_amount",
          "type": "uint256"
        }
      ],
      "name": "ERC1155TransferFrom",
      "outputs": [],
      "stateMutability": "nonpayable",
      "type": "function"
    },
    {
      "inputs": [
        {
          "internalType": "address",
          "name": "_token",
          "type": "address"
        },
        {
          "internalType": "address",
          "name": "_to",
          "type": "address"
        },
        {
          "internalType": "uint256",
          "name": "_amount",
          "type": "uint256"
        }
      ],
      "name": "ERC20Transfer",
      "outputs": [],
      "stateMutability": "nonpayable",
      "type": "function"
    },
    {
      "inputs": [
        {
          "internalType": "address",
          "name": "_token",
          "type": "address"
        },
        {
          "internalType": "address",
          "name": "_from",
          "type": "address"
        },
        {
          "internalType": "address",
          "name": "_to",
          "type": "address"
        },
        {
          "internalType": "uint256",
          "name": "_tokenId",
          "type": "uint256"
        }
      ],
      "name": "ERC721TransferFrom",
      "outputs": [],
      "stateMutability": "nonpayable",
      "type": "function"
    },
    {
      "inputs": [],
      "name": "proxyContract",
      "outputs": [
        {
          "internalType": "address",
          "name": "",
          "type": "address"
        }
      ],
      "stateMutability": "view",
      "type": "function"
    }
  ],
  "bytecode": {
    "object": "0x608060405234801561001057600080fd5b50604051610a01380380610a0183398101604081905261002f91610108565b81156100b3576040516001625e79b760e01b0319815260048101839052737109709ecfa91a80626ff3989d68f67f5b1dd12d9063ffa18649906024016020604051808303816000875af115801561008a573d6000803e3d6000fd5b505050506040513d601f19601f820116820180604052508101906100ae9190610144565b6100b5565b825b600080546001600160a01b03199081166001600160a01b039384161790915560019390935560028054909316911617905550610166565b80516001600160a01b038116811461010357600080fd5b919050565b60008060006060848603121561011d57600080fd5b610126846100ec565b92506020840151915061013b604085016100ec565b90509250925092565b60006020828403121561015657600080fd5b61015f826100ec565b9392505050565b61088c806101756000396000f3fe608060405234801561001057600080fd5b50600436106100575760003560e01c806318c4eeed1461005c57806368e72e491461007157806376aa79b214610084578063e59fdd3614610097578063ed550443146100aa575b600080fd5b61006f61006a3660046105a6565b6100c9565b005b61006f61007f3660046105f1565b610224565b61006f6100923660046106f7565b610388565b61006f6100a536600461078d565b610438565b600254604080516001600160a01b039092168252519081900360200190f35b6000546040516308b6ac0f60e31b81526001600160a01b03909116600482018190526024820152737109709ecfa91a80626ff3989d68f67f5b1dd12d906345b5607890604401600060405180830381600087803b15801561012957600080fd5b505af115801561013d573d6000803e3d6000fd5b50506002546040516318c4eeed60e01b81526001600160a01b038881166004830152878116602483015286811660448301526064820186905290911692506318c4eeed9150608401600060405180830381600087803b15801561019f57600080fd5b505af11580156101b3573d6000803e3d6000fd5b50505050737109709ecfa91a80626ff3989d68f67f5b1dd12d6001600160a01b03166390c5013b6040518163ffffffff1660e01b8152600401600060405180830381600087803b15801561020657600080fd5b505af115801561021a573d6000803e3d6000fd5b5050505050505050565b6000546040516308b6ac0f60e31b81526001600160a01b03909116600482018190526024820152737109709ecfa91a80626ff3989d68f67f5b1dd12d906345b5607890604401600060405180830381600087803b15801561028457600080fd5b505af1158015610298573d6000803e3d6000fd5b50506002546040516368e72e4960e01b81526001600160a01b03898116600483015288811660248301528781166044830152606482018790526084820186905290911692506368e72e49915060a4015b600060405180830381600087803b15801561030257600080fd5b505af1158015610316573d6000803e3d6000fd5b50505050737109709ecfa91a80626ff3989d68f67f5b1dd12d6001600160a01b03166390c5013b6040518163ffffffff1660e01b8152600401600060405180830381600087803b15801561036957600080fd5b505af115801561037d573d6000803e3d6000fd5b505050505050505050565b6000546040516308b6ac0f60e31b81526001600160a01b03909116600482018190526024820152737109709ecfa91a80626ff3989d68f67f5b1dd12d906345b5607890604401600060405180830381600087803b1580156103e857600080fd5b505af11580156103fc573d6000803e3d6000fd5b5050600254604051633b553cd960e11b81526001600160a01b0390911692506376aa79b291506102e89088908890889088908890600401610804565b6000546040516308b6ac0f60e31b81526001600160a01b03909116600482018190526024820152737109709ecfa91a80626ff3989d68f67f5b1dd12d906345b5607890604401600060405180830381600087803b15801561049857600080fd5b505af11580156104ac573d6000803e3d6000fd5b50506002546040516372cfee9b60e11b81526001600160a01b038781166004830152868116602483015260448201869052909116925063e59fdd369150606401600060405180830381600087803b15801561050657600080fd5b505af115801561051a573d6000803e3d6000fd5b50505050737109709ecfa91a80626ff3989d68f67f5b1dd12d6001600160a01b03166390c5013b6040518163ffffffff1660e01b8152600401600060405180830381600087803b15801561056d57600080fd5b505af1158015610581573d6000803e3d6000fd5b50505050505050565b80356001600160a01b03811681146105a157600080fd5b919050565b600080600080608085870312156105bc57600080fd5b6105c58561058a565b93506105d36020860161058a565b92506105e16040860161058a565b9396929550929360600135925050565b600080600080600060a0868803121561060957600080fd5b6106128661058a565b94506106206020870161058a565b935061062e6040870161058a565b94979396509394606081013594506080013592915050565b634e487b7160e01b600052604160045260246000fd5b600082601f83011261066d57600080fd5b8135602067ffffffffffffffff8083111561068a5761068a610646565b8260051b604051601f19603f830116810181811084821117156106af576106af610646565b6040529384528581018301938381019250878511156106cd57600080fd5b83870191505b848210156106ec578135835291830191908301906106d3565b979650505050505050565b600080600080600060a0868803121561070f57600080fd5b6107188661058a565b94506107266020870161058a565b93506107346040870161058a565b9250606086013567ffffffffffffffff8082111561075157600080fd5b61075d89838a0161065c565b9350608088013591508082111561077357600080fd5b506107808882890161065c565b9150509295509295909350565b6000806000606084860312156107a257600080fd5b6107ab8461058a565b92506107b96020850161058a565b9150604084013590509250925092565b600081518084526020808501945080840160005b838110156107f9578151875295820195908201906001016107dd565b509495945050505050565b6001600160a01b03868116825285811660208301528416604082015260a060608201819052600090610838908301856107c9565b828103608084015261084a81856107c9565b9897505050505050505056fea2646970667358221220c984dddb44d46c81436d8af52fbd37d9e8a09dd8ff605af133408f773e7fc27664736f6c634300080d0033",
    "linkReferences": {}
  },
  "methodIdentifiers": {
    "ERC1155BatchTransferFrom(address,address,address,uint256[],uint256[])": "76aa79b2",
    "ERC1155TransferFrom(address,address,address,uint256,uint256)": "68e72e49",
    "ERC20Transfer(address,address,uint256)": "e59fdd36",
    "ERC721TransferFrom(address,address,address,uint256)": "18c4eeed",
    "proxyContract()": "ed550443"
  },
  "id": 110
}