{
  "_format": "hh-sol-artifact-1",
  "contractName": "BaseVault",
  "sourceName": "src/modules/protoforms/BaseVault.sol",
  "abi": [
    {
      "inputs": [
        {
          "internalType": "address",
          "name": "_registry",
          "type": "address"
        },
        {
          "internalType": "address",
          "name": "_supply",
          "type": "address"
        }
      ],
      "stateMutability": "nonpayable",
      "type": "constructor"
    },
    {
      "anonymous": false,
      "inputs": [
        {
          "indexed": true,
          "internalType": "address",
          "name": "_vault",
          "type": "address"
        },
        {
          "indexed": false,
          "internalType": "address[]",
          "name": "_modules",
          "type": "address[]"
        }
      ],
      "name": "ActiveModules",
      "type": "event"
    },
    {
      "inputs": [
        {
          "internalType": "address",
          "name": "_from",
          "type": "address"
        },
        {
          "internalType": "address",
          "name": "_to",
          "type": "address"
        },
        {
          "internalType": "address[]",
          "name": "_tokens",
          "type": "address[]"
        },
        {
          "internalType": "uint256[]",
          "name": "_ids",
          "type": "uint256[]"
        },
        {
          "internalType": "uint256[]",
          "name": "_amounts",
          "type": "uint256[]"
        },
        {
          "internalType": "bytes[]",
          "name": "_datas",
          "type": "bytes[]"
        }
      ],
      "name": "batchDepositERC1155",
      "outputs": [],
      "stateMutability": "nonpayable",
      "type": "function"
    },
    {
      "inputs": [
        {
          "internalType": "address",
          "name": "_from",
          "type": "address"
        },
        {
          "internalType": "address",
          "name": "_to",
          "type": "address"
        },
        {
          "internalType": "address[]",
          "name": "_tokens",
          "type": "address[]"
        },
        {
          "internalType": "uint256[]",
          "name": "_amounts",
          "type": "uint256[]"
        }
      ],
      "name": "batchDepositERC20",
      "outputs": [],
      "stateMutability": "nonpayable",
      "type": "function"
    },
    {
      "inputs": [
        {
          "internalType": "address",
          "name": "_from",
          "type": "address"
        },
        {
          "internalType": "address",
          "name": "_to",
          "type": "address"
        },
        {
          "internalType": "address[]",
          "name": "_tokens",
          "type": "address[]"
        },
        {
          "internalType": "uint256[]",
          "name": "_ids",
          "type": "uint256[]"
        }
      ],
      "name": "batchDepositERC721",
      "outputs": [],
      "stateMutability": "nonpayable",
      "type": "function"
    },
    {
      "inputs": [
        {
          "internalType": "uint256",
          "name": "_fractionSupply",
          "type": "uint256"
        },
        {
          "internalType": "address[]",
          "name": "_modules",
          "type": "address[]"
        },
        {
          "internalType": "address[]",
          "name": "_plugins",
          "type": "address[]"
        },
        {
          "internalType": "bytes4[]",
          "name": "_selectors",
          "type": "bytes4[]"
        },
        {
          "internalType": "bytes32[]",
          "name": "_mintProof",
          "type": "bytes32[]"
        }
      ],
      "name": "deployVault",
      "outputs": [
        {
          "internalType": "address",
          "name": "vault",
          "type": "address"
        }
      ],
      "stateMutability": "nonpayable",
      "type": "function"
    },
    {
      "inputs": [
        {
          "internalType": "address[]",
          "name": "_modules",
          "type": "address[]"
        }
      ],
      "name": "generateMerkleTree",
      "outputs": [
        {
          "internalType": "bytes32[]",
          "name": "hashes",
          "type": "bytes32[]"
        }
      ],
      "stateMutability": "view",
      "type": "function"
    },
    {
      "inputs": [],
      "name": "getLeafNodes",
      "outputs": [
        {
          "internalType": "bytes32[]",
          "name": "nodes",
          "type": "bytes32[]"
        }
      ],
      "stateMutability": "view",
      "type": "function"
    },
    {
      "inputs": [],
      "name": "getPermissions",
      "outputs": [
        {
          "components": [
            {
              "internalType": "address",
              "name": "module",
              "type": "address"
            },
            {
              "internalType": "address",
              "name": "target",
              "type": "address"
            },
            {
              "internalType": "bytes4",
              "name": "selector",
              "type": "bytes4"
            }
          ],
          "internalType": "struct Permission[]",
          "name": "permissions",
          "type": "tuple[]"
        }
      ],
      "stateMutability": "view",
      "type": "function"
    },
    {
      "inputs": [
        {
          "internalType": "bytes32[]",
          "name": "_data",
          "type": "bytes32[]"
        },
        {
          "internalType": "uint256",
          "name": "_node",
          "type": "uint256"
        }
      ],
      "name": "getProof",
      "outputs": [
        {
          "internalType": "bytes32[]",
          "name": "",
          "type": "bytes32[]"
        }
      ],
      "stateMutability": "pure",
      "type": "function"
    },
    {
      "inputs": [
        {
          "internalType": "bytes32[]",
          "name": "_data",
          "type": "bytes32[]"
        }
      ],
      "name": "getRoot",
      "outputs": [
        {
          "internalType": "bytes32",
          "name": "",
          "type": "bytes32"
        }
      ],
      "stateMutability": "pure",
      "type": "function"
    },
    {
      "inputs": [
        {
          "internalType": "bytes32",
          "name": "_left",
          "type": "bytes32"
        },
        {
          "internalType": "bytes32",
          "name": "_right",
          "type": "bytes32"
        }
      ],
      "name": "hashLeafPairs",
      "outputs": [
        {
          "internalType": "bytes32",
          "name": "data",
          "type": "bytes32"
        }
      ],
      "stateMutability": "pure",
      "type": "function"
    },
    {
      "inputs": [
        {
          "internalType": "uint256",
          "name": "x",
          "type": "uint256"
        }
      ],
      "name": "log2ceil_naive",
      "outputs": [
        {
          "internalType": "uint256",
          "name": "ceil",
          "type": "uint256"
        }
      ],
      "stateMutability": "pure",
      "type": "function"
    },
    {
      "inputs": [
        {
          "internalType": "bytes[]",
          "name": "_data",
          "type": "bytes[]"
        }
      ],
      "name": "multicall",
      "outputs": [
        {
          "internalType": "bytes[]",
          "name": "results",
          "type": "bytes[]"
        }
      ],
      "stateMutability": "nonpayable",
      "type": "function"
    },
    {
      "inputs": [],
      "name": "registry",
      "outputs": [
        {
          "internalType": "address",
          "name": "",
          "type": "address"
        }
      ],
      "stateMutability": "view",
      "type": "function"
    },
    {
      "inputs": [],
      "name": "supply",
      "outputs": [
        {
          "internalType": "address",
          "name": "",
          "type": "address"
        }
      ],
      "stateMutability": "view",
      "type": "function"
    },
    {
      "inputs": [
        {
          "internalType": "bytes32",
          "name": "_root",
          "type": "bytes32"
        },
        {
          "internalType": "bytes32[]",
          "name": "_proof",
          "type": "bytes32[]"
        },
        {
          "internalType": "bytes32",
          "name": "_valueToProve",
          "type": "bytes32"
        }
      ],
      "name": "verifyProof",
      "outputs": [
        {
          "internalType": "bool",
          "name": "",
          "type": "bool"
        }
      ],
      "stateMutability": "pure",
      "type": "function"
    }
  ],
  "bytecode": "0x60806040523480156200001157600080fd5b5060405162001ed338038062001ed3833981016040819052620000349162000086565b600080546001600160a01b039283166001600160a01b03199182161790915560018054939092169216919091179055620000be565b80516001600160a01b03811681146200008157600080fd5b919050565b600080604083850312156200009a57600080fd5b620000a58362000069565b9150620000b56020840162000069565b90509250929050565b611e0580620000ce6000396000f3fe608060405234801561001057600080fd5b50600436106100f55760003560e01c8063884c05fb11610097578063c3a07df611610066578063c3a07df614610249578063c3ec40921461025e578063cbbb4ac514610271578063dd1d25991461027957600080fd5b8063884c05fb146101e3578063ac9650d814610203578063b76564cb14610223578063b86161951461023657600080fd5b80633692721a116100d35780633692721a1461017857806358161a421461018d5780637b103999146101b0578063822db189146101d057600080fd5b8063047fc9aa146100fa57806308d7090a146101445780632e08d60214610165575b600080fd5b60005461011a9073ffffffffffffffffffffffffffffffffffffffff1681565b60405173ffffffffffffffffffffffffffffffffffffffff90911681526020015b60405180910390f35b6101576101523660046111d1565b61028c565b60405190815260200161013b565b6101576101733660046112f7565b6102b5565b61018b6101863660046113b5565b610389565b005b6101a061019b36600461144a565b6104a1565b604051901515815260200161013b565b60015461011a9073ffffffffffffffffffffffffffffffffffffffff1681565b61018b6101de36600461149a565b6104e7565b6101f66101f1366004611582565b6105f7565b60405161013b91906115c4565b610216610211366004611582565b610747565b60405161013b9190611682565b61011a610231366004611702565b61086c565b6101f66102443660046117d2565b610996565b610251610c41565b60405161013b9190611817565b61018b61026c3660046113b5565b610d19565b6101f6610e19565b6101576102873660046118ac565b610ea5565b60008119600101821682145b82156102ae57600192831c929190910190610298565b9003919050565b6000600182511161034d576040517f08c379a000000000000000000000000000000000000000000000000000000000815260206004820152602260248201527f776f6e742067656e657261746520726f6f7420666f722073696e676c65206c6560448201527f616600000000000000000000000000000000000000000000000000000000000060648201526084015b60405180910390fd5b6001825111156103675761036082610ef1565b915061034d565b8160008151811061037a5761037a6118ce565b60200260200101519050919050565b60005b83811015610498578484828181106103a6576103a66118ce565b90506020020160208101906103bb91906118fd565b73ffffffffffffffffffffffffffffffffffffffff166323b872dd88888686868181106103ea576103ea6118ce565b6040517fffffffff0000000000000000000000000000000000000000000000000000000060e088901b16815273ffffffffffffffffffffffffffffffffffffffff9586166004820152949093166024850152506020909102013560448201526064016020604051808303816000875af115801561046b573d6000803e3d6000fd5b505050506040513d601f19601f8201168201806040525081019061048f9190611931565b5060010161038c565b50505050505050565b600081815b84518110156104dc576104d2828683815181106104c5576104c56118ce565b6020026020010151610ea5565b91506001016104a6565b509093149392505050565b60005b878110156105ea57888882818110610504576105046118ce565b905060200201602081019061051991906118fd565b73ffffffffffffffffffffffffffffffffffffffff1663f242432a8c8c8a8a86818110610548576105486118ce565b90506020020135898987818110610561576105616118ce565b9050602002013588888881811061057a5761057a6118ce565b905060200281019061058c919061194c565b6040518763ffffffff1660e01b81526004016105ad969594939291906119b1565b600060405180830381600087803b1580156105c757600080fd5b505af11580156105db573d6000803e3d6000fd5b505050508060010190506104ea565b5050505050505050505050565b60408051600680825260e08201909252606091600091906020820160c08036833701905050915060005b8381101561073f57600085858381811061063d5761063d6118ce565b905060200201602081019061065291906118fd565b73ffffffffffffffffffffffffffffffffffffffff1663cbbb4ac56040518163ffffffff1660e01b8152600401600060405180830381865afa15801561069c573d6000803e3d6000fd5b505050506040513d6000823e601f3d9081017fffffffffffffffffffffffffffffffffffffffffffffffffffffffffffffffe01682016040526106e29190810190611a37565b905060005b815181101561073557818181518110610702576107026118ce565b6020026020010151858580600101965081518110610722576107226118ce565b60209081029190910101526001016106e7565b5050600101610621565b505092915050565b6060818067ffffffffffffffff811115610763576107636111ea565b60405190808252806020026020018201604052801561079657816020015b60608152602001906001900390816107815790505b5091506000805b82811015610863576060308787848181106107ba576107ba6118ce565b90506020028101906107cc919061194c565b6040516107da929190611ac8565b600060405180830381855af49150503d8060008114610815576040519150601f19603f3d011682016040523d82523d6000602084013e61081a565b606091505b5090935090508261083c57805160000361083357600080fd5b61083c81611059565b8085838151811061084f5761084f6118ce565b60209081029190910101525060010161079d565b50505092915050565b6000806108798a8a6105f7565b90506000610886826102b5565b6001546040517f6716466500000000000000000000000000000000000000000000000000000000815291925073ffffffffffffffffffffffffffffffffffffffff16906367164665906108e59084908d908d908d908d90600401611b2e565b6020604051808303816000875af1158015610904573d6000803e3d6000fd5b505050506040513d601f19601f820116820180604052508101906109289190611bb7565b92508273ffffffffffffffffffffffffffffffffffffffff167f52365e9ef2d02ef2b8eb0ee7b91a0809adf17e90a5418ed54c7c137fe66aaa908c8c604051610972929190611bd4565b60405180910390a261098783338e8888611062565b50509998505050505050505050565b60606001835111610a29576040517f08c379a000000000000000000000000000000000000000000000000000000000815260206004820152602360248201527f776f6e742067656e65726174652070726f6f6620666f722073696e676c65206c60448201527f65616600000000000000000000000000000000000000000000000000000000006064820152608401610344565b6000610a35845161028c565b905060008167ffffffffffffffff811115610a5257610a526111ea565b604051908082528060200260200182016040528015610a7b578160200160208202803683370190505b5090506000805b600187511115610b635760028606600103610ad757866001870381518110610aac57610aac6118ce565b6020026020010151838381518110610ac657610ac66118ce565b602002602001018181525050610b47565b86518660010103610b0b576000801b838381518110610af857610af86118ce565b6020908102919091010152600101610b47565b868660010181518110610b2057610b206118ce565b6020026020010151838381518110610b3a57610b3a6118ce565b6020026020010181815250505b600190910190600286049550610b5c87610ef1565b9650610a82565b6000610b6f8286611be8565b67ffffffffffffffff811115610b8757610b876111ea565b604051908082528060200260200182016040528015610bb0578160200160208202803683370190505b5090506000805b8551811015610c31576000801b868281518110610bd657610bd66118ce565b602002602001015114610c2257858181518110610bf557610bf56118ce565b60200260200101518383830381518110610c1157610c116118ce565b602002602001018181525050610c29565b8160010191505b600101610bb7565b5090955050505050505b92915050565b604080516001808252818301909252606091816020015b60408051606081018252600080825260208083018290529282015282527fffffffffffffffffffffffffffffffffffffffffffffffffffffffffffffffff909201910181610c58575050604080516060810182523081526000805473ffffffffffffffffffffffffffffffffffffffff1660208301527f40c10f190000000000000000000000000000000000000000000000000000000092820192909252825192935091839190610d0b57610d0b6118ce565b602002602001018190525090565b60005b8381101561049857848482818110610d3657610d366118ce565b9050602002016020810190610d4b91906118fd565b73ffffffffffffffffffffffffffffffffffffffff166342842e0e8888868686818110610d7a57610d7a6118ce565b6040517fffffffff0000000000000000000000000000000000000000000000000000000060e088901b16815273ffffffffffffffffffffffffffffffffffffffff958616600482015294909316602485015250602090910201356044820152606401600060405180830381600087803b158015610df657600080fd5b505af1158015610e0a573d6000803e3d6000fd5b50505050806001019050610d1c565b60408051600180825281830190925260609160208083019080368337019050509050610e43610c41565b600081518110610e5557610e556118ce565b6020026020010151604051602001610e6d9190611c26565b6040516020818303038152906040528051906020012081600081518110610e9657610e966118ce565b60200260200101818152505090565b600082610eb3575080610c3b565b81610ebf575081610c3b565b8183148284101715610ed45782600052816020525b81831115610ee55781600052826020525b50604060002092915050565b805160609060018082169003610f9c576002810460010167ffffffffffffffff811115610f2057610f206111ea565b604051908082528060200260200182016040528015610f49578160200160208202803683370190505b509150610f75836001830381518110610f6457610f646118ce565b60200260200101516000801b610ea5565b82600184510381518110610f8b57610f8b6118ce565b602002602001018181525050610fe5565b6002810467ffffffffffffffff811115610fb857610fb86111ea565b604051908082528060200260200182016040528015610fe1578160200160208202803683370190505b5091505b6000805b6001830381101561105157611026858281518110611009576110096118ce565b60200260200101518683600101815181106104c5576104c56118ce565b848381518110611038576110386118ce565b6020908102919091010152600190910190600201610fe9565b505050919050565b80518082602001fd5b60405173ffffffffffffffffffffffffffffffffffffffff8516602482015260448101849052600090606401604080517fffffffffffffffffffffffffffffffffffffffffffffffffffffffffffffffe08184030181529181526020820180517bffffffffffffffffffffffffffffffffffffffffffffffffffffffff167f40c10f190000000000000000000000000000000000000000000000000000000017905260005490517f601b8af300000000000000000000000000000000000000000000000000000000815291925073ffffffffffffffffffffffffffffffffffffffff8089169263601b8af392611162921690859088908890600401611c84565b6000604051808303816000875af1158015611181573d6000803e3d6000fd5b505050506040513d6000823e601f3d9081017fffffffffffffffffffffffffffffffffffffffffffffffffffffffffffffffe01682016040526111c79190810190611d0a565b5050505050505050565b6000602082840312156111e357600080fd5b5035919050565b7f4e487b7100000000000000000000000000000000000000000000000000000000600052604160045260246000fd5b604051601f82017fffffffffffffffffffffffffffffffffffffffffffffffffffffffffffffffe016810167ffffffffffffffff81118282101715611260576112606111ea565b604052919050565b600067ffffffffffffffff821115611282576112826111ea565b5060051b60200190565b600082601f83011261129d57600080fd5b813560206112b26112ad83611268565b611219565b82815260059290921b840181019181810190868411156112d157600080fd5b8286015b848110156112ec57803583529183019183016112d5565b509695505050505050565b60006020828403121561130957600080fd5b813567ffffffffffffffff81111561132057600080fd5b61132c8482850161128c565b949350505050565b73ffffffffffffffffffffffffffffffffffffffff8116811461135657600080fd5b50565b803561136481611334565b919050565b60008083601f84011261137b57600080fd5b50813567ffffffffffffffff81111561139357600080fd5b6020830191508360208260051b85010111156113ae57600080fd5b9250929050565b600080600080600080608087890312156113ce57600080fd5b86356113d981611334565b955060208701356113e981611334565b9450604087013567ffffffffffffffff8082111561140657600080fd5b6114128a838b01611369565b9096509450606089013591508082111561142b57600080fd5b5061143889828a01611369565b979a9699509497509295939492505050565b60008060006060848603121561145f57600080fd5b83359250602084013567ffffffffffffffff81111561147d57600080fd5b6114898682870161128c565b925050604084013590509250925092565b60008060008060008060008060008060c08b8d0312156114b957600080fd5b6114c28b611359565b99506114d060208c01611359565b985060408b013567ffffffffffffffff808211156114ed57600080fd5b6114f98e838f01611369565b909a50985060608d013591508082111561151257600080fd5b61151e8e838f01611369565b909850965060808d013591508082111561153757600080fd5b6115438e838f01611369565b909650945060a08d013591508082111561155c57600080fd5b506115698d828e01611369565b915080935050809150509295989b9194979a5092959850565b6000806020838503121561159557600080fd5b823567ffffffffffffffff8111156115ac57600080fd5b6115b885828601611369565b90969095509350505050565b6020808252825182820181905260009190848201906040850190845b818110156115fc578351835292840192918401916001016115e0565b50909695505050505050565b60005b8381101561162357818101518382015260200161160b565b83811115611632576000848401525b50505050565b60008151808452611650816020860160208601611608565b601f017fffffffffffffffffffffffffffffffffffffffffffffffffffffffffffffffe0169290920160200192915050565b6000602080830181845280855180835260408601915060408160051b870101925083870160005b828110156116f5577fffffffffffffffffffffffffffffffffffffffffffffffffffffffffffffffc08886030184526116e3858351611638565b945092850192908501906001016116a9565b5092979650505050505050565b600080600080600080600080600060a08a8c03121561172057600080fd5b8935985060208a013567ffffffffffffffff8082111561173f57600080fd5b61174b8d838e01611369565b909a50985060408c013591508082111561176457600080fd5b6117708d838e01611369565b909850965060608c013591508082111561178957600080fd5b6117958d838e01611369565b909650945060808c01359150808211156117ae57600080fd5b506117bb8c828d01611369565b915080935050809150509295985092959850929598565b600080604083850312156117e557600080fd5b823567ffffffffffffffff8111156117fc57600080fd5b6118088582860161128c565b95602094909401359450505050565b6020808252825182820181905260009190848201906040850190845b818110156115fc5761189983855173ffffffffffffffffffffffffffffffffffffffff808251168352806020830151166020840152507fffffffff0000000000000000000000000000000000000000000000000000000060408201511660408301525050565b9284019260609290920191600101611833565b600080604083850312156118bf57600080fd5b50508035926020909101359150565b7f4e487b7100000000000000000000000000000000000000000000000000000000600052603260045260246000fd5b60006020828403121561190f57600080fd5b813561191a81611334565b9392505050565b8051801515811461136457600080fd5b60006020828403121561194357600080fd5b61191a82611921565b60008083357fffffffffffffffffffffffffffffffffffffffffffffffffffffffffffffffe184360301811261198157600080fd5b83018035915067ffffffffffffffff82111561199c57600080fd5b6020019150368190038213156113ae57600080fd5b600073ffffffffffffffffffffffffffffffffffffffff808916835280881660208401525085604083015284606083015260a060808301528260a0830152828460c0840137600060c0848401015260c07fffffffffffffffffffffffffffffffffffffffffffffffffffffffffffffffe0601f8501168301019050979650505050505050565b60006020808385031215611a4a57600080fd5b825167ffffffffffffffff811115611a6157600080fd5b8301601f81018513611a7257600080fd5b8051611a806112ad82611268565b81815260059190911b82018301908381019087831115611a9f57600080fd5b928401925b82841015611abd57835182529284019290840190611aa4565b979650505050505050565b8183823760009101908152919050565b8183526000602080850194508260005b85811015611b23578135611afb81611334565b73ffffffffffffffffffffffffffffffffffffffff1687529582019590820190600101611ae8565b509495945050505050565b85815260006020606081840152611b49606084018789611ad8565b8381036040850152848152859082016000805b87811015611ba75783357fffffffff000000000000000000000000000000000000000000000000000000008116808214611b94578384fd5b8452509284019291840191600101611b5c565b50909a9950505050505050505050565b600060208284031215611bc957600080fd5b815161191a81611334565b60208152600061132c602083018486611ad8565b600082821015611c21577f4e487b7100000000000000000000000000000000000000000000000000000000600052601160045260246000fd5b500390565b815173ffffffffffffffffffffffffffffffffffffffff9081168252602080840151909116908201526040808301517fffffffff00000000000000000000000000000000000000000000000000000000169082015260608101610c3b565b73ffffffffffffffffffffffffffffffffffffffff85168152606060208201526000611cb36060830186611638565b82810360408401528381527f07ffffffffffffffffffffffffffffffffffffffffffffffffffffffffffffff841115611ceb57600080fd5b8360051b80866020840137600091016020019081529695505050505050565b60008060408385031215611d1d57600080fd5b611d2683611921565b9150602083015167ffffffffffffffff80821115611d4357600080fd5b818501915085601f830112611d5757600080fd5b815181811115611d6957611d696111ea565b611d9a60207fffffffffffffffffffffffffffffffffffffffffffffffffffffffffffffffe0601f84011601611219565b9150808252866020828501011115611db157600080fd5b611dc2816020840160208601611608565b508092505050925092905056fea26469706673582212206b2052a7ba9089b9e6a7c7824b966fb1f4265facba8c577ab0d24ee8c1e35e1364736f6c634300080d0033",
  "linkReferences": {},
  "deployedLinkReferences": {}
}