{
  "abi": [
    {
      "inputs": [],
      "stateMutability": "nonpayable",
      "type": "constructor"
    },
    {
      "inputs": [],
      "name": "CreateFail",
      "type": "error"
    },
    {
      "inputs": [
        {
          "internalType": "address",
          "name": "_controller",
          "type": "address"
        },
        {
          "internalType": "address",
          "name": "_sender",
          "type": "address"
        }
      ],
      "name": "InvalidController",
      "type": "error"
    },
    {
      "inputs": [
        {
          "internalType": "address",
          "name": "_sender",
          "type": "address"
        }
      ],
      "name": "UnregisteredVault",
      "type": "error"
    },
    {
      "anonymous": false,
      "inputs": [
        {
          "indexed": true,
          "internalType": "address",
          "name": "_vault",
          "type": "address"
        },
        {
          "indexed": true,
          "internalType": "address",
          "name": "_token",
          "type": "address"
        },
        {
          "indexed": false,
          "internalType": "uint256",
          "name": "_id",
          "type": "uint256"
        }
      ],
      "name": "VaultDeployed",
      "type": "event"
    },
    {
      "inputs": [
        {
          "internalType": "address",
          "name": "_from",
          "type": "address"
        },
        {
          "internalType": "uint256",
          "name": "_value",
          "type": "uint256"
        }
      ],
      "name": "burn",
      "outputs": [],
      "stateMutability": "nonpayable",
      "type": "function"
    },
    {
      "inputs": [
        {
          "internalType": "bytes32",
          "name": "_merkleRoot",
          "type": "bytes32"
        },
        {
          "internalType": "address[]",
          "name": "_plugins",
          "type": "address[]"
        },
        {
          "internalType": "bytes4[]",
          "name": "_selectors",
          "type": "bytes4[]"
        }
      ],
      "name": "create",
      "outputs": [
        {
          "internalType": "address",
          "name": "vault",
          "type": "address"
        }
      ],
      "stateMutability": "nonpayable",
      "type": "function"
    },
    {
      "inputs": [
        {
          "internalType": "bytes32",
          "name": "_merkleRoot",
          "type": "bytes32"
        },
        {
          "internalType": "address[]",
          "name": "_plugins",
          "type": "address[]"
        },
        {
          "internalType": "bytes4[]",
          "name": "_selectors",
          "type": "bytes4[]"
        }
      ],
      "name": "createCollection",
      "outputs": [
        {
          "internalType": "address",
          "name": "vault",
          "type": "address"
        },
        {
          "internalType": "address",
          "name": "token",
          "type": "address"
        }
      ],
      "stateMutability": "nonpayable",
      "type": "function"
    },
    {
      "inputs": [
        {
          "internalType": "bytes32",
          "name": "_merkleRoot",
          "type": "bytes32"
        },
        {
          "internalType": "address",
          "name": "_controller",
          "type": "address"
        },
        {
          "internalType": "address[]",
          "name": "_plugins",
          "type": "address[]"
        },
        {
          "internalType": "bytes4[]",
          "name": "_selectors",
          "type": "bytes4[]"
        }
      ],
      "name": "createCollectionFor",
      "outputs": [
        {
          "internalType": "address",
          "name": "vault",
          "type": "address"
        },
        {
          "internalType": "address",
          "name": "token",
          "type": "address"
        }
      ],
      "stateMutability": "nonpayable",
      "type": "function"
    },
    {
      "inputs": [
        {
          "internalType": "bytes32",
          "name": "_merkleRoot",
          "type": "bytes32"
        },
        {
          "internalType": "address",
          "name": "_owner",
          "type": "address"
        },
        {
          "internalType": "address[]",
          "name": "_plugins",
          "type": "address[]"
        },
        {
          "internalType": "bytes4[]",
          "name": "_selectors",
          "type": "bytes4[]"
        }
      ],
      "name": "createFor",
      "outputs": [
        {
          "internalType": "address",
          "name": "vault",
          "type": "address"
        }
      ],
      "stateMutability": "nonpayable",
      "type": "function"
    },
    {
      "inputs": [
        {
          "internalType": "bytes32",
          "name": "_merkleRoot",
          "type": "bytes32"
        },
        {
          "internalType": "address",
          "name": "_token",
          "type": "address"
        },
        {
          "internalType": "address[]",
          "name": "_plugins",
          "type": "address[]"
        },
        {
          "internalType": "bytes4[]",
          "name": "_selectors",
          "type": "bytes4[]"
        }
      ],
      "name": "createInCollection",
      "outputs": [
        {
          "internalType": "address",
          "name": "vault",
          "type": "address"
        }
      ],
      "stateMutability": "nonpayable",
      "type": "function"
    },
    {
      "inputs": [],
      "name": "fNFT",
      "outputs": [
        {
          "internalType": "address",
          "name": "",
          "type": "address"
        }
      ],
      "stateMutability": "view",
      "type": "function"
    },
    {
      "inputs": [],
      "name": "fNFTImplementation",
      "outputs": [
        {
          "internalType": "address",
          "name": "",
          "type": "address"
        }
      ],
      "stateMutability": "view",
      "type": "function"
    },
    {
      "inputs": [],
      "name": "factory",
      "outputs": [
        {
          "internalType": "address",
          "name": "",
          "type": "address"
        }
      ],
      "stateMutability": "view",
      "type": "function"
    },
    {
      "inputs": [
        {
          "internalType": "address",
          "name": "_to",
          "type": "address"
        },
        {
          "internalType": "uint256",
          "name": "_value",
          "type": "uint256"
        }
      ],
      "name": "mint",
      "outputs": [],
      "stateMutability": "nonpayable",
      "type": "function"
    },
    {
      "inputs": [
        {
          "internalType": "address",
          "name": "",
          "type": "address"
        }
      ],
      "name": "nextId",
      "outputs": [
        {
          "internalType": "uint256",
          "name": "",
          "type": "uint256"
        }
      ],
      "stateMutability": "view",
      "type": "function"
    },
    {
      "inputs": [
        {
          "internalType": "address",
          "name": "_vault",
          "type": "address"
        }
      ],
      "name": "totalSupply",
      "outputs": [
        {
          "internalType": "uint256",
          "name": "",
          "type": "uint256"
        }
      ],
      "stateMutability": "view",
      "type": "function"
    },
    {
      "inputs": [
        {
          "internalType": "address",
          "name": "_vault",
          "type": "address"
        }
      ],
      "name": "uri",
      "outputs": [
        {
          "internalType": "string",
          "name": "",
          "type": "string"
        }
      ],
      "stateMutability": "view",
      "type": "function"
    },
    {
      "inputs": [
        {
          "internalType": "address",
          "name": "",
          "type": "address"
        }
      ],
      "name": "vaultToToken",
      "outputs": [
        {
          "internalType": "address",
          "name": "token",
          "type": "address"
        },
        {
          "internalType": "uint256",
          "name": "id",
          "type": "uint256"
        }
      ],
      "stateMutability": "view",
      "type": "function"
    }
  ],
  "bytecode": {
    "object": "0x60e06040523480156200001157600080fd5b50604051620000209062000202565b604051809103906000f0801580156200003d573d6000803e3d6000fd5b506001600160a01b0316608052604051620000589062000210565b604051809103906000f08015801562000075573d6000803e3d6000fd5b506001600160a01b031660c0526040516001600160601b031933606090811b8216602084015230901b166034820152620000db9060480160405160208183030381529060405260c0516001600160a01b0316620000ed60201b620007ad1790919060201c565b6001600160a01b031660a0526200021e565b8051604051606160f81b81526039820160f081811b60018401526f3d81600a3d39f33d3d3d3d363d3d376160801b600384015260028401901b601383018190526560373639366160d01b6015840152601b83015262013d7360e81b601d830152606085901b6020808401919091526c5af43d3d93803e603557fd5bf360981b60348401526000939260438401929186019084604182015b60208210620001a55783518152602093840193601f19909201910162000184565b835160001960208490036101000a0119908116825260f088901b91830191825286846000f098506001600160a01b038916620001f457604051631d7fde3160e31b815260040160405180910390fd5b505050505050505092915050565b61156b80620011ea83390190565b61247c806200275583390190565b60805160a05160c051610f81620002696000396000818160f401526104a401526000818161023301528181610506015261053c0152600081816102a601526108c30152610f816000f3fe608060405234801561001057600080fd5b50600436106100ea5760003560e01c80635ef449fd1161008c5780639dc29fac116100665780639dc29fac1461027b578063a26f18b21461028e578063c45a0155146102a1578063e4dc2aa4146102c857600080fd5b80635ef449fd1461022e57806367164665146102555780639b8e96cc1461026857600080fd5b806342d19ef4116100c857806342d19ef41461016857806346190ec4146101ba57806357906688146101e8578063579cdff21461021b57600080fd5b806312076ecd146100ef57806340c10f1914610133578063426eb01714610148575b600080fd5b6101167f000000000000000000000000000000000000000000000000000000000000000081565b6040516001600160a01b0390911681526020015b60405180910390f35b610146610141366004610ae2565b6102db565b005b61015b610156366004610b0e565b6103b6565b60405161012a9190610b5b565b61019b610176366004610b0e565b600160208190526000918252604090912080549101546001600160a01b039091169082565b604080516001600160a01b03909316835260208301919091520161012a565b6101da6101c8366004610b0e565b60006020819052908152604090205481565b60405190815260200161012a565b6101fb6101f6366004610cdf565b610458565b604080516001600160a01b0393841681529290911660208301520161012a565b6101fb610229366004610d5f565b6104e3565b6101167f000000000000000000000000000000000000000000000000000000000000000081565b610116610263366004610d5f565b6104fe565b610116610276366004610cdf565b610534565b610146610289366004610ae2565b6105c9565b61011661029c366004610cdf565b61065d565b6101167f000000000000000000000000000000000000000000000000000000000000000081565b6101da6102d6366004610b0e565b610714565b336000908152600160208181526040808420815180830190925280546001600160a01b0316825290920154908201819052909181900361033557604051630601cb1560e11b81523360048201526024015b60405180910390fd5b815160405163731133e960e01b81526001600160a01b038681166004830152602482018490526044820186905260806064830152600060848301529091169063731133e99060a4015b600060405180830381600087803b15801561039857600080fd5b505af11580156103ac573d6000803e3d6000fd5b5050505050505050565b6001600160a01b0381811660009081526001602081815260409283902083518085018552815490951680865292015490840181905291516303a24d0760e21b8152600481019290925260609291630e89341c90602401600060405180830381865afa158015610429573d6000803e3d6000fd5b505050506040513d6000823e601f3d908101601f191682016040526104519190810190610dcc565b9392505050565b6040516bffffffffffffffffffffffff19606085811b8216602084015230901b16603482015260009081906104ca9060480160408051601f198184030181529190526001600160a01b037f000000000000000000000000000000000000000000000000000000000000000016906107ad565b90506104d8868286866108bf565b915094509492505050565b6000806104f285338686610458565b90969095509350505050565b600061052c847f000000000000000000000000000000000000000000000000000000000000000085856108bf565b949350505050565b6000610562857f000000000000000000000000000000000000000000000000000000000000000085856108bf565b60405163f2fde38b60e01b81526001600160a01b0386811660048301529192509082169063f2fde38b90602401600060405180830381600087803b1580156105a957600080fd5b505af11580156105bd573d6000803e3d6000fd5b50505050949350505050565b336000908152600160208181526040808420815180830190925280546001600160a01b0316825290920154908201819052909181900361061e57604051630601cb1560e11b815233600482015260240161032c565b8151604051637a94c56560e11b81526001600160a01b03868116600483015260248201849052604482018690529091169063f5298aca9060640161037e565b600080846001600160a01b031663f77c47916040518163ffffffff1660e01b8152600401602060405180830381865afa15801561069e573d6000803e3d6000fd5b505050506040513d601f19601f820116820180604052508101906106c29190610e60565b90506001600160a01b03811633146106fe5760405163975cb35f60e01b81526001600160a01b038216600482015233602482015260440161032c565b61070a868686866108bf565b9695505050505050565b6001600160a01b0380821660009081526001602081815260408084208151808301835281549096168087529301549185018290525163bd85b03960e01b815292939263bd85b0399161076c9160040190815260200190565b602060405180830381865afa158015610789573d6000803e3d6000fd5b505050506040513d601f19601f820116820180604052508101906104519190610e7d565b8051604051606160f81b81526039820160f081811b60018401526f3d81600a3d39f33d3d3d3d363d3d376160801b600384015260028401901b601383018190526560373639366160d01b6015840152601b83015262013d7360e81b601d830152606085901b6020808401919091526c5af43d3d93803e603557fd5bf360981b60348401526000939260438401929186019084604182015b602082106108635783518152602093840193601f199092019101610844565b835160001960208490036101000a0119908116825260f088901b91830191825286846000f098506001600160a01b0389166108b157604051631d7fde3160e31b815260040160405180910390fd5b505050505050505092915050565b60007f00000000000000000000000000000000000000000000000000000000000000006001600160a01b031663775c300c6040518163ffffffff1660e01b81526004016020604051808303816000875af1158015610921573d6000803e3d6000fd5b505050506040513d601f19601f820116820180604052508101906109459190610e60565b6040805180820182526001600160a01b03871680825260009081526020818152928120805494955091939284019261097c90610e96565b918290555090526001600160a01b03828116600081815260016020818152604092839020865181546001600160a01b0319169616959095178555949094015192909301919091559051637cb6475960e01b815260048101879052637cb6475990602401600060405180830381600087803b1580156109f957600080fd5b505af1158015610a0d573d6000803e3d6000fd5b5050604051633ca0a61760e01b81526001600160a01b0384169250633ca0a6179150610a3f9085908790600401610ebd565b600060405180830381600087803b158015610a5957600080fd5b505af1158015610a6d573d6000803e3d6000fd5b505050506001600160a01b038481166000818152602081815260409182902054915191825291928416917f85ad49ea2b74d60c1db1acac23d44f3fa0361896eead0f4b35b1ea46b1be59b5910160405180910390a3949350505050565b6001600160a01b0381168114610adf57600080fd5b50565b60008060408385031215610af557600080fd5b8235610b0081610aca565b946020939093013593505050565b600060208284031215610b2057600080fd5b813561045181610aca565b60005b83811015610b46578181015183820152602001610b2e565b83811115610b55576000848401525b50505050565b6020815260008251806020840152610b7a816040850160208701610b2b565b601f01601f19169190910160400192915050565b634e487b7160e01b600052604160045260246000fd5b604051601f8201601f1916810167ffffffffffffffff81118282101715610bcd57610bcd610b8e565b604052919050565b600067ffffffffffffffff821115610bef57610bef610b8e565b5060051b60200190565b600082601f830112610c0a57600080fd5b81356020610c1f610c1a83610bd5565b610ba4565b82815260059290921b84018101918181019086841115610c3e57600080fd5b8286015b84811015610c62578035610c5581610aca565b8352918301918301610c42565b509695505050505050565b600082601f830112610c7e57600080fd5b81356020610c8e610c1a83610bd5565b82815260059290921b84018101918181019086841115610cad57600080fd5b8286015b84811015610c625780356001600160e01b031981168114610cd25760008081fd5b8352918301918301610cb1565b60008060008060808587031215610cf557600080fd5b843593506020850135610d0781610aca565b9250604085013567ffffffffffffffff80821115610d2457600080fd5b610d3088838901610bf9565b93506060870135915080821115610d4657600080fd5b50610d5387828801610c6d565b91505092959194509250565b600080600060608486031215610d7457600080fd5b83359250602084013567ffffffffffffffff80821115610d9357600080fd5b610d9f87838801610bf9565b93506040860135915080821115610db557600080fd5b50610dc286828701610c6d565b9150509250925092565b600060208284031215610dde57600080fd5b815167ffffffffffffffff80821115610df657600080fd5b818401915084601f830112610e0a57600080fd5b815181811115610e1c57610e1c610b8e565b610e2f601f8201601f1916602001610ba4565b9150808252856020828501011115610e4657600080fd5b610e57816020840160208601610b2b565b50949350505050565b600060208284031215610e7257600080fd5b815161045181610aca565b600060208284031215610e8f57600080fd5b5051919050565b600060018201610eb657634e487b7160e01b600052601160045260246000fd5b5060010190565b604080825283519082018190526000906020906060840190828701845b82811015610f005781516001600160e01b03191684529284019290840190600101610eda565b5050508381038285015284518082528583019183019060005b81811015610f3e5783516001600160a01b031683529284019291840191600101610f19565b509097965050505050505056fea264697066735822122023d9caaae1b1e3ff86c7d7eef2f557b0cf2431cdea4b43043652d4a4ec66cddb64736f6c634300080d0033608060405234801561001057600080fd5b5060405161001d9061005f565b604051809103906000f080158015610039573d6000803e3d6000fd5b50600080546001600160a01b0319166001600160a01b039290921691909117905561006c565b6110108061055b83390190565b6104e08061007b6000396000f3fe608060405234801561001057600080fd5b50600436106100575760003560e01c806337a6be161461005c57806341152359146100985780635c60da1b146100c357806374912cd2146100d6578063775c300c146100e9575b600080fd5b61008561006a36600461047a565b6001600160a01b031660009081526001602052604090205490565b6040519081526020015b60405180910390f35b6100ab6100a636600461047a565b6100f1565b6040516001600160a01b03909116815260200161008f565b6000546100ab906001600160a01b031681565b6100ab6100e436600461047a565b6101b2565b6100ab610334565b6001600160a01b03818116600081815260016020908152604080832054815180840195909552848201528051808503820181526060850180835281519190930120838352608090940190528154919384928392610152929190911690610344565b9020604080516001600160f81b03196020808301919091523060601b6bffffffffffffffffffffffff1916602183015260358201969096526055808201939093528151808203909301835260750190528051930192909220949350505050565b326000818152600160209081526040808320548151928301949094528101839052909190829060600160408051601f198184030181528282528051602091820120600080855291840190925254909250610216906001600160a01b0316838361042f565b9350836001600160a01b031663e1c7392a6040518163ffffffff1660e01b8152600401600060405180830381600087803b15801561025357600080fd5b505af1158015610267573d6000803e3d6000fd5b505060405163f2fde38b60e01b81526001600160a01b0388811660048301528716925063f2fde38b9150602401600060405180830381600087803b1580156102ae57600080fd5b505af11580156102c2573d6000803e3d6000fd5b50503260008181526001602081815260409283902091890190915581518881529081018790526001600160a01b03898116828401529151918a1694503393507fc836d877ec2901a6c3f2e17c94bf617570a3664e9c75f6a9c5e48696cde1343d919081900360600190a4505050919050565b600061033f336101b2565b905090565b8051604051613d6160f01b8152603a820160f081811b6002848101919091526680600b3d3981f360c81b600485015264363d3d376160d81b600b8501528401901b6010830181905268603836393d3d3d366160b81b6012840152601b83015262013d7360e81b601d830152606085901b6020808401919091526e5af43d82803e903d91603657fd5bf360881b603484015291926045810192909190850182604386015b602082106104065782518152602092830192601f1990920191016103e7565b915160001960208390036101000a011916825260f09390931b9201919091525090939092509050565b600080600061043e8685610344565b915091508481836000f592506001600160a01b03831661047157604051631d7fde3160e31b815260040160405180910390fd5b50509392505050565b60006020828403121561048c57600080fd5b81356001600160a01b03811681146104a357600080fd5b939250505056fea26469706673582212207f92b5b8c40b28260766ef9682d2fa86ba3bbdbeec7c291eee9d7d3322e3be7d64736f6c634300080d0033608060405234801561001057600080fd5b50610ff0806100206000396000f3fe6080604052600436106100c65760003560e01c80637cb647591161007f578063bc197c8111610059578063bc197c8114610283578063e1c7392a146102b2578063f23a6e61146102c7578063f2fde38b146102f4576100cd565b80637cb647591461022d5780638da5cb5b1461024d578063affed0e01461026d576100cd565b8063150b7a021461010e5780632e09ea9b146101585780632eb4a7ab1461017a5780633ca0a6171461019e578063601b8af3146101be5780636b039451146101df576100cd565b366100cd57005b600080356001600160e01b03191681526003602052604081205436906060906001600160a01b0316610100818585610314565b805195506020019350505050f35b34801561011a57600080fd5b5061013a610129366004610970565b630a85bd0160e11b95945050505050565b6040516001600160e01b031990911681526020015b60405180910390f35b34801561016457600080fd5b50610178610173366004610ad4565b61044a565b005b34801561018657600080fd5b5061019060015481565b60405190815260200161014f565b3480156101aa57600080fd5b506101786101b9366004610b11565b61053f565b6101d16101cc366004610c18565b61064f565b60405161014f929190610c88565b3480156101eb57600080fd5b506102156101fa366004610ce7565b6003602052600090815260409020546001600160a01b031681565b6040516001600160a01b03909116815260200161014f565b34801561023957600080fd5b50610178610248366004610d02565b610719565b34801561025957600080fd5b50600054610215906001600160a01b031681565b34801561027957600080fd5b5061019060025481565b34801561028f57600080fd5b5061013a61029e366004610d1b565b63bc197c8160e01b98975050505050505050565b3480156102be57600080fd5b5061017861075e565b3480156102d357600080fd5b5061013a6102e2366004610dd6565b63f23a6e6160e01b9695505050505050565b34801561030057600080fd5b5061017861030f366004610e4e565b6107e2565b60006060843b80830361034a576040516305fc177f60e01b81526001600160a01b03871660048201526024015b60405180910390fd5b600080546001600160a01b0316906113885a6103669190610e7f565b9050876001600160a01b0316818888604051610383929190610e96565b6000604051808303818686f4925050503d80600081146103bf576040519150601f19603f3d011682016040523d82523d6000602084013e6103c4565b606091505b5060005491965094506001600160a01b0383811691161461040f5760005460405163b532073b60e01b81526001600160a01b0380851660048301529091166024820152604401610341565b8461043f5783516000036104365760405163f21e646b60e01b815260040160405180910390fd5b61043f8461086d565b505050935093915050565b6000546001600160a01b0316331461048a57600054604051631194af8760e11b81526001600160a01b039091166004820152336024820152604401610341565b805160005b81811015610503576000600360008584815181106104af576104af610ea6565b6020908102919091018101516001600160e01b031916825281019190915260400160002080546001600160a01b0319166001600160a01b0392909216919091179055806104fb81610ebc565b91505061048f565b507fb3a11edff134a07565e9e73e89fe2198279d8bf3f8218a543981f219b3991c29826040516105339190610f1a565b60405180910390a15050565b6000546001600160a01b0316331461057f57600054604051631194af8760e11b81526001600160a01b039091166004820152336024820152604401610341565b815160005b818110156106105782818151811061059e5761059e610ea6565b6020026020010151600360008684815181106105bc576105bc610ea6565b6020908102919091018101516001600160e01b031916825281019190915260400160002080546001600160a01b0319166001600160a01b03929092169190911790558061060881610ebc565b915050610584565b507ff7d11fffde62bb148b72087d285cbd907ca404701a120597f0896a240881220f8383604051610642929190610f2d565b60405180910390a1505050565b60006060600086359050600033898360405160200161067093929190610f8d565b6040516020818303038152906040528051906020012090506106c9868680806020026020016040519081016040528093929190818152602001838360200280828437600092019190915250506001549150849050610876565b6106fe576000546001600160a01b031633146106fe57338983604051632054e00b60e21b815260040161034193929190610f8d565b610709898989610314565b909a909950975050505050505050565b6000546001600160a01b0316331461075957600054604051631194af8760e11b81526001600160a01b039091166004820152336024820152604401610341565b600155565b6002541561079c576000546002546040516308793b2960e11b81526001600160a01b0390921660048301523360248301526044820152606401610341565b6001600255600080546001600160a01b0319163390811782556040519091907f5c486528ec3e3f0ea91181cff8116f02bfa350e03b8b6f12e00765adbb5af85c908290a3565b6000546001600160a01b0316331461082257600054604051631194af8760e11b81526001600160a01b039091166004820152336024820152604401610341565b600080546001600160a01b0319166001600160a01b0383169081178255604051909133917f5c486528ec3e3f0ea91181cff8116f02bfa350e03b8b6f12e00765adbb5af85c9190a350565b80518082602001fd5b600082610883858461088c565b14949350505050565b600081815b84518110156108d1576108bd828683815181106108b0576108b0610ea6565b60200260200101516108d9565b9150806108c981610ebc565b915050610891565b509392505050565b60008183106108f5576000828152602084905260409020610904565b60008381526020839052604090205b9392505050565b80356001600160a01b038116811461092257600080fd5b919050565b60008083601f84011261093957600080fd5b50813567ffffffffffffffff81111561095157600080fd5b60208301915083602082850101111561096957600080fd5b9250929050565b60008060008060006080868803121561098857600080fd5b6109918661090b565b945061099f6020870161090b565b935060408601359250606086013567ffffffffffffffff8111156109c257600080fd5b6109ce88828901610927565b969995985093965092949392505050565b634e487b7160e01b600052604160045260246000fd5b604051601f8201601f1916810167ffffffffffffffff81118282101715610a1e57610a1e6109df565b604052919050565b600067ffffffffffffffff821115610a4057610a406109df565b5060051b60200190565b80356001600160e01b03198116811461092257600080fd5b600082601f830112610a7357600080fd5b81356020610a88610a8383610a26565b6109f5565b82815260059290921b84018101918181019086841115610aa757600080fd5b8286015b84811015610ac957610abc81610a4a565b8352918301918301610aab565b509695505050505050565b600060208284031215610ae657600080fd5b813567ffffffffffffffff811115610afd57600080fd5b610b0984828501610a62565b949350505050565b60008060408385031215610b2457600080fd5b823567ffffffffffffffff80821115610b3c57600080fd5b610b4886838701610a62565b9350602091508185013581811115610b5f57600080fd5b85019050601f81018613610b7257600080fd5b8035610b80610a8382610a26565b81815260059190911b82018301908381019088831115610b9f57600080fd5b928401925b82841015610bc457610bb58461090b565b82529284019290840190610ba4565b80955050505050509250929050565b60008083601f840112610be557600080fd5b50813567ffffffffffffffff811115610bfd57600080fd5b6020830191508360208260051b850101111561096957600080fd5b600080600080600060608688031215610c3057600080fd5b610c398661090b565b9450602086013567ffffffffffffffff80821115610c5657600080fd5b610c6289838a01610927565b90965094506040880135915080821115610c7b57600080fd5b506109ce88828901610bd3565b821515815260006020604081840152835180604085015260005b81811015610cbe57858101830151858201606001528201610ca2565b81811115610cd0576000606083870101525b50601f01601f191692909201606001949350505050565b600060208284031215610cf957600080fd5b61090482610a4a565b600060208284031215610d1457600080fd5b5035919050565b60008060008060008060008060a0898b031215610d3757600080fd5b610d408961090b565b9750610d4e60208a0161090b565b9650604089013567ffffffffffffffff80821115610d6b57600080fd5b610d778c838d01610bd3565b909850965060608b0135915080821115610d9057600080fd5b610d9c8c838d01610bd3565b909650945060808b0135915080821115610db557600080fd5b50610dc28b828c01610927565b999c989b5096995094979396929594505050565b60008060008060008060a08789031215610def57600080fd5b610df88761090b565b9550610e066020880161090b565b94506040870135935060608701359250608087013567ffffffffffffffff811115610e3057600080fd5b610e3c89828a01610927565b979a9699509497509295939492505050565b600060208284031215610e6057600080fd5b6109048261090b565b634e487b7160e01b600052601160045260246000fd5b600082821015610e9157610e91610e69565b500390565b8183823760009101908152919050565b634e487b7160e01b600052603260045260246000fd5b600060018201610ece57610ece610e69565b5060010190565b600081518084526020808501945080840160005b83811015610f0f5781516001600160e01b03191687529582019590820190600101610ee9565b509495945050505050565b6020815260006109046020830184610ed5565b604081526000610f406040830185610ed5565b82810360208481019190915284518083528582019282019060005b81811015610f805784516001600160a01b031683529383019391830191600101610f5b565b5090979650505050505050565b6001600160a01b0393841681529190921660208201526001600160e01b031990911660408201526060019056fea2646970667358221220879b58c7d56d62bc20bf3cb67eaa7d817fe18f971e5e0e69b54cff862d0d189164736f6c634300080d0033608060405234801561001057600080fd5b5061245c806100206000396000f3fe608060405234801561001057600080fd5b50600436106101ce5760003560e01c8063a3f4df7e11610104578063e8a3d485116100a2578063f5298aca11610071578063f5298aca14610498578063f72c8689146104ab578063f77c4791146104be578063ffa1ad74146104c657600080fd5b8063e8a3d4851461043c578063e8ea054b14610444578063e985e9c514610457578063f242432a1461048557600080fd5b8063de11ff79116100de578063de11ff79146103c4578063e2c7f338146103cc578063e3684e39146103df578063e5af48d81461040857600080fd5b8063a3f4df7e1461036a578063bd85b03914610391578063cfa8fb42146103b157600080fd5b80632eb2c2d611610171578063731133e91161014b578063731133e9146103115780637ecebe0014610324578063938e3d7b14610344578063a22cb4651461035757600080fd5b80632eb2c2d6146102cb5780634e1273f4146102de5780635ae1bdc7146102fe57600080fd5b80630986c677116101ad5780630986c677146102515780630e89341c146102665780632a55205a146102865780632ccd9ed4146102b857600080fd5b8062fdd58e146101d357806301ffc9a71461020e57806302ace7fe14610231575b600080fd5b6101fb6101e13660046119b4565b600060208181529281526040808220909352908152205481565b6040519081526020015b60405180910390f35b61022161021c3660046119f7565b6104e6565b6040519015158152602001610205565b610239610538565b6040516001600160a01b039091168152602001610205565b61026461025f366004611ac8565b610549565b005b610279610274366004611b23565b6105e1565b6040516102059190611b94565b610299610294366004611ba7565b6106b4565b604080516001600160a01b039093168352602083019190915201610205565b6102646102c6366004611bea565b6106fb565b6102646102d9366004611cf3565b6108b4565b6102f16102ec366004611dae565b610b57565b6040516102059190611e1a565b61026461030c3660046119b4565b610c8c565b61026461031f366004611e7e565b610d27565b6101fb610332366004611edf565b60066020526000908152604090205481565b610264610352366004611efa565b610d96565b610264610365366004611f3c565b610de1565b61027960405180604001604052806008815260200167464552433131353560c01b81525081565b6101fb61039f366004611b23565b60076020526000908152604090205481565b6102646103bf366004611f66565b610e4d565b610239610fb7565b6102646103da366004611fd7565b610fc3565b6102396103ed366004611b23565b6005602052600090815260409020546001600160a01b031681565b61022161041636600461200c565b600460209081526000938452604080852082529284528284209052825290205460ff1681565b610279611070565b610264610452366004611edf565b6110fe565b610221610465366004612038565b600160209081526000928352604080842090915290825290205460ff1681565b610264610493366004612062565b6111a9565b6102646104a63660046120d4565b6113d6565b6102646104b9366004612107565b611443565b6102396114bc565b610279604051806040016040528060018152602001603160f81b81525081565b60006301ffc9a760e01b6001600160e01b0319831614806105175750636cdb3d1360e11b6001600160e01b03198316145b8061053257506303a24d0760e21b6001600160e01b03198316145b92915050565b600061054460146114f0565b905090565b6000828152600560205260409020546001600160a01b031633146105a5576000828152600560205260409081902054905163708986dd60e11b815261059c916001600160a01b0316903390600401612143565b60405180910390fd5b817f6bb7ff708619ba0610cba295a58592e0451dee2622938c8755667688daf3529b826040516105d59190611b94565b60405180910390a25050565b6000818152600560205260409020546060906001600160a01b03166106365760405162461bcd60e51b815260206004820152600b60248201526a4e4f204d4554414441544160a81b604482015260640161059c565b600082815260056020526040908190205490516303a24d0760e21b8152600481018490526001600160a01b0390911690630e89341c90602401600060405180830381865afa15801561068c573d6000803e3d6000fd5b505050506040513d6000823e601f3d908101601f19168201604052610532919081019061215d565b60008281526008602090815260408083205460099092528220546001600160a01b0390911691906064906106e890856121ea565b6106f29190612209565b90509250929050565b8342111561072557604051630f88f04960e41b81524260048201526024810185905260440161059c565b60006107348989898989611515565b905060006107846107436115c8565b8360405161190160f01b6020820152602281018390526042810182905260009060620160405160208183030381529060405280519060200120905092915050565b6040805160008082526020820180845284905260ff89169282019290925260608101879052608081018690529192509060019060a0016020604051602081039080840390855afa1580156107dc573d6000803e3d6000fd5b5050604051601f1901519150506001600160a01b038116158061081157508a6001600160a01b0316816001600160a01b031614155b1561083357808b6040516310b5d43760e21b815260040161059c929190612143565b5050506001600160a01b038881166000818152600460209081526040808320948c168084529482528083208b8452825291829020805460ff19168a151590811790915582518b8152918201527f9fe4c80ed54641e7463c240ea1212aa79c810413295452fae0729f7056107677910160405180910390a35050505050505050565b8483146108f55760405162461bcd60e51b815260206004820152600f60248201526e0988a9c8ea890be9a92a69a82a8869608b1b604482015260640161059c565b336001600160a01b038916148061092f57506001600160a01b038816600090815260016020908152604080832033845290915290205460ff165b61096c5760405162461bcd60e51b815260206004820152600e60248201526d1393d517d055551213d49256915160921b604482015260640161059c565b60008060005b87811015610a275788888281811061098c5761098c61222b565b9050602002013592508686828181106109a7576109a761222b565b6001600160a01b038e16600090815260208181526040808320898452825282208054939091029490940135955085939250906109e4908490612241565b90915550506001600160a01b038a1660009081526020818152604080832086845290915281208054849290610a1a908490612258565b9091555050600101610972565b50886001600160a01b03168a6001600160a01b0316336001600160a01b03167f4a39dc06d4c0dbc64b70af90fd698a233a518aa5d07e595d983b8c0526c8f7fb8b8b8b8b604051610a7b94939291906122a6565b60405180910390a46001600160a01b0389163b15610b225760405163bc197c8160e01b808252906001600160a01b038b169063bc197c8190610acf9033908f908e908e908e908e908e908e906004016122d8565b6020604051808303816000875af1158015610aee573d6000803e3d6000fd5b505050506040513d601f19601f82011682018060405250810190610b129190612352565b6001600160e01b03191614610b2f565b6001600160a01b03891615155b610b4b5760405162461bcd60e51b815260040161059c9061236f565b50505050505050505050565b6060838214610b9a5760405162461bcd60e51b815260206004820152600f60248201526e0988a9c8ea890be9a92a69a82a8869608b1b604482015260640161059c565b8367ffffffffffffffff811115610bb357610bb3611a1b565b604051908082528060200260200182016040528015610bdc578160200160208202803683370190505b50905060005b84811015610c8357600080878784818110610bff57610bff61222b565b9050602002016020810190610c149190611edf565b6001600160a01b03166001600160a01b031681526020019081526020016000206000858584818110610c4857610c4861222b565b90506020020135815260200190815260200160002054828281518110610c7057610c7061222b565b6020908102919091010152600101610be2565b50949350505050565b6000610c966114bc565b9050336001600160a01b03821614610cc557803360405163708986dd60e11b815260040161059c929190612143565b60008281526005602090815260409182902080546001600160a01b0319166001600160a01b03871690811790915591518481527e2eaa91860e3ef728f8a91f04b0b0fb11f91d377fafbe25db7299c3e76150dd910160405180910390a2505050565b6000610d31610538565b9050336001600160a01b03821614610d6057803360405163708986dd60e11b815260040161059c929190612143565b610d6c85858585611697565b60008481526007602052604081208054859290610d8a908490612258565b90915550505050505050565b6000610da06114bc565b9050336001600160a01b03821614610dcf57803360405163708986dd60e11b815260040161059c929190612143565b610ddb60038484611908565b50505050565b3360008181526001602090815260408083206001600160a01b03871680855290835292819020805460ff191686151590811790915590519081529192917f17307eab39ab6107e8899845ad3d59bd9653f200f220920489ca2b5937696c31910160405180910390a35050565b83421115610e7757604051630f88f04960e41b81524260048201526024810185905260440161059c565b6000610e85888888886117d9565b90506000610e946107436115c8565b6040805160008082526020820180845284905260ff89169282019290925260608101879052608081018690529192509060019060a0016020604051602081039080840390855afa158015610eec573d6000803e3d6000fd5b5050604051601f1901519150506001600160a01b0381161580610f215750896001600160a01b0316816001600160a01b031614155b15610f4357808a6040516310b5d43760e21b815260040161059c929190612143565b5050506001600160a01b038781166000818152600160209081526040808320948b1680845294825291829020805460ff19168a151590811790915591519182527f17307eab39ab6107e8899845ad3d59bd9653f200f220920489ca2b5937696c31910160405180910390a350505050505050565b600061054460006114f0565b6000610fcd6114bc565b9050336001600160a01b03821614610ffc57803360405163708986dd60e11b815260040161059c929190612143565b600084815260086020908152604080832080546001600160a01b0319166001600160a01b038816908117909155600983529281902085905580518781529182018590527fd8d64e17a5f54d19ed4852e386866de24539f87d9f047e36c8216e6448b22511910160405180910390a250505050565b6003805461107d90612399565b80601f01602080910402602001604051908101604052809291908181526020018280546110a990612399565b80156110f65780601f106110cb576101008083540402835291602001916110f6565b820191906000526020600020905b8154815290600101906020018083116110d957829003601f168201915b505050505081565b60006111086114bc565b9050336001600160a01b0382161461113757803360405163708986dd60e11b815260040161059c929190612143565b6001600160a01b03821661115e5760405163d92e233d60e01b815260040160405180910390fd5b600280546001600160a01b0319166001600160a01b0384169081179091556040517f22ae3e13754fada79785f8712cf9edb6d7a1be7e1738be44b84374a5b0220aed90600090a25050565b336001600160a01b03861614806111e357506001600160a01b038516600090815260016020908152604080832033845290915290205460ff165b8061121957506001600160a01b0385166000908152600460209081526040808320338452825280832086845290915290205460ff165b6112565760405162461bcd60e51b815260206004820152600e60248201526d1393d517d055551213d49256915160921b604482015260640161059c565b6001600160a01b03851660009081526020818152604080832086845290915281208054849290611287908490612241565b90915550506001600160a01b038416600090815260208181526040808320868452909152812080548492906112bd908490612258565b909155505060408051848152602081018490526001600160a01b03808716929088169133917fc3d58168c5ae7397731d063d5bbf3d657854427343f4c083240f7aacaa2d0f62910160405180910390a46001600160a01b0384163b156113a65760405163f23a6e6160e01b808252906001600160a01b0386169063f23a6e61906113539033908a908990899089906004016123d3565b6020604051808303816000875af1158015611372573d6000803e3d6000fd5b505050506040513d601f19601f820116820180604052508101906113969190612352565b6001600160e01b031916146113b3565b6001600160a01b03841615155b6113cf5760405162461bcd60e51b815260040161059c9061236f565b5050505050565b60006113e0610538565b9050336001600160a01b0382161461140f57803360405163708986dd60e11b815260040161059c929190612143565b61141a848484611884565b60008381526007602052604081208054849290611438908490612241565b909155505050505050565b3360008181526004602090815260408083206001600160a01b038816808552908352818420878552835292819020805460ff19168615159081179091558151878152928301529192917f9fe4c80ed54641e7463c240ea1212aa79c810413295452fae0729f7056107677910160405180910390a3505050565b6002546000906001600160a01b0316156114e057506002546001600160a01b031690565b6114e8610fb7565b9050805b5090565b600080611507600119368181013560f01c90030190565b929092013560601c92915050565b6001600160a01b038516600090815260066020526040812080547faff3e7017d0a41834e125c9c80495a73609c1859f670a0c126d99a1acf4b4e68918891889188918891876115638361240d565b909155506040805160208101979097526001600160a01b03958616908701529390921660608501526080840152151560a083015260c082015260e081018390526101000160405160208183030381529060405280519060200120905095945050505050565b6040805180820182526008815267464552433131353560c01b6020918201528151808301835260018152603160f81b9082015281517f8b73c3c69bb8fe3d512ecc4cf759cc79239f7b179b0ffacaa9a75d522b39400f818301527f233a50b0a5718e212019cf2306cc9da67bd87b875da0db3a1c4170b06c73ecd8818401527fc89efdaa54c0f20c7adf612882df0950f5a951637e0307cdcb4c672f298b8bc660608201524660808201523060a0808301919091528351808303909101815260c0909101909252815191012090565b6001600160a01b038416600090815260208181526040808320868452909152812080548492906116c8908490612258565b909155505060408051848152602081018490526001600160a01b0386169160009133917fc3d58168c5ae7397731d063d5bbf3d657854427343f4c083240f7aacaa2d0f62910160405180910390a46001600160a01b0384163b156117b05760405163f23a6e6160e01b808252906001600160a01b0386169063f23a6e619061175d9033906000908990899089906004016123d3565b6020604051808303816000875af115801561177c573d6000803e3d6000fd5b505050506040513d601f19601f820116820180604052508101906117a09190612352565b6001600160e01b031916146117bd565b6001600160a01b03841615155b610ddb5760405162461bcd60e51b815260040161059c9061236f565b6001600160a01b038416600090815260066020526040812080547f200d2483757e19728fc8a3511298158c1b74dd131c7be00c4904e11665b42cd19187918791879190866118268361240d565b909155506040805160208101969096526001600160a01b03948516908601529290911660608401521515608083015260a082015260c0810183905260e001604051602081830303815290604052805190602001209050949350505050565b6001600160a01b038316600090815260208181526040808320858452909152812080548392906118b5908490612241565b909155505060408051838152602081018390526000916001600160a01b0386169133917fc3d58168c5ae7397731d063d5bbf3d657854427343f4c083240f7aacaa2d0f62910160405180910390a4505050565b82805461191490612399565b90600052602060002090601f016020900481019282611936576000855561197c565b82601f1061194f5782800160ff1982351617855561197c565b8280016001018555821561197c579182015b8281111561197c578235825591602001919060010190611961565b506114ec9291505b808211156114ec5760008155600101611984565b80356001600160a01b03811681146119af57600080fd5b919050565b600080604083850312156119c757600080fd5b6119d083611998565b946020939093013593505050565b6001600160e01b0319811681146119f457600080fd5b50565b600060208284031215611a0957600080fd5b8135611a14816119de565b9392505050565b634e487b7160e01b600052604160045260246000fd5b604051601f8201601f1916810167ffffffffffffffff81118282101715611a5a57611a5a611a1b565b604052919050565b600067ffffffffffffffff821115611a7c57611a7c611a1b565b50601f01601f191660200190565b6000611a9d611a9884611a62565b611a31565b9050828152838383011115611ab157600080fd5b828260208301376000602084830101529392505050565b60008060408385031215611adb57600080fd5b82359150602083013567ffffffffffffffff811115611af957600080fd5b8301601f81018513611b0a57600080fd5b611b1985823560208401611a8a565b9150509250929050565b600060208284031215611b3557600080fd5b5035919050565b60005b83811015611b57578181015183820152602001611b3f565b83811115610ddb5750506000910152565b60008151808452611b80816020860160208601611b3c565b601f01601f19169290920160200192915050565b602081526000611a146020830184611b68565b60008060408385031215611bba57600080fd5b50508035926020909101359150565b803580151581146119af57600080fd5b803560ff811681146119af57600080fd5b600080600080600080600080610100898b031215611c0757600080fd5b611c1089611998565b9750611c1e60208a01611998565b965060408901359550611c3360608a01611bc9565b945060808901359350611c4860a08a01611bd9565b925060c0890135915060e089013590509295985092959890939650565b60008083601f840112611c7757600080fd5b50813567ffffffffffffffff811115611c8f57600080fd5b6020830191508360208260051b8501011115611caa57600080fd5b9250929050565b60008083601f840112611cc357600080fd5b50813567ffffffffffffffff811115611cdb57600080fd5b602083019150836020828501011115611caa57600080fd5b60008060008060008060008060a0898b031215611d0f57600080fd5b611d1889611998565b9750611d2660208a01611998565b9650604089013567ffffffffffffffff80821115611d4357600080fd5b611d4f8c838d01611c65565b909850965060608b0135915080821115611d6857600080fd5b611d748c838d01611c65565b909650945060808b0135915080821115611d8d57600080fd5b50611d9a8b828c01611cb1565b999c989b5096995094979396929594505050565b60008060008060408587031215611dc457600080fd5b843567ffffffffffffffff80821115611ddc57600080fd5b611de888838901611c65565b90965094506020870135915080821115611e0157600080fd5b50611e0e87828801611c65565b95989497509550505050565b6020808252825182820181905260009190848201906040850190845b81811015611e5257835183529284019291840191600101611e36565b50909695505050505050565b600082601f830112611e6f57600080fd5b611a1483833560208501611a8a565b60008060008060808587031215611e9457600080fd5b611e9d85611998565b93506020850135925060408501359150606085013567ffffffffffffffff811115611ec757600080fd5b611ed387828801611e5e565b91505092959194509250565b600060208284031215611ef157600080fd5b611a1482611998565b60008060208385031215611f0d57600080fd5b823567ffffffffffffffff811115611f2457600080fd5b611f3085828601611cb1565b90969095509350505050565b60008060408385031215611f4f57600080fd5b611f5883611998565b91506106f260208401611bc9565b600080600080600080600060e0888a031215611f8157600080fd5b611f8a88611998565b9650611f9860208901611998565b9550611fa660408901611bc9565b945060608801359350611fbb60808901611bd9565b925060a0880135915060c0880135905092959891949750929550565b600080600060608486031215611fec57600080fd5b83359250611ffc60208501611998565b9150604084013590509250925092565b60008060006060848603121561202157600080fd5b61202a84611998565b9250611ffc60208501611998565b6000806040838503121561204b57600080fd5b61205483611998565b91506106f260208401611998565b600080600080600060a0868803121561207a57600080fd5b61208386611998565b945061209160208701611998565b93506040860135925060608601359150608086013567ffffffffffffffff8111156120bb57600080fd5b6120c788828901611e5e565b9150509295509295909350565b6000806000606084860312156120e957600080fd5b6120f284611998565b95602085013595506040909401359392505050565b60008060006060848603121561211c57600080fd5b61212584611998565b92506020840135915061213a60408501611bc9565b90509250925092565b6001600160a01b0392831681529116602082015260400190565b60006020828403121561216f57600080fd5b815167ffffffffffffffff81111561218657600080fd5b8201601f8101841361219757600080fd5b80516121a5611a9882611a62565b8181528560208385010111156121ba57600080fd5b6121cb826020830160208601611b3c565b95945050505050565b634e487b7160e01b600052601160045260246000fd5b6000816000190483118215151615612204576122046121d4565b500290565b60008261222657634e487b7160e01b600052601260045260246000fd5b500490565b634e487b7160e01b600052603260045260246000fd5b600082821015612253576122536121d4565b500390565b6000821982111561226b5761226b6121d4565b500190565b81835260006001600160fb1b0383111561228957600080fd5b8260051b8083602087013760009401602001938452509192915050565b6040815260006122ba604083018688612270565b82810360208401526122cd818587612270565b979650505050505050565b6001600160a01b0389811682528816602082015260a060408201819052600090612305908301888a612270565b8281036060840152612318818789612270565b90508281036080840152838152838560208301376000602085830101526020601f19601f8601168201019150509998505050505050505050565b60006020828403121561236457600080fd5b8151611a14816119de565b60208082526010908201526f155394d0519157d49150d2541251539560821b604082015260600190565b600181811c908216806123ad57607f821691505b6020821081036123cd57634e487b7160e01b600052602260045260246000fd5b50919050565b6001600160a01b03868116825285166020820152604081018490526060810183905260a0608082018190526000906122cd90830184611b68565b60006001820161241f5761241f6121d4565b506001019056fea26469706673582212203863618553cede68c99b158d03bdcc2c44d11a5d623e1a6378cbd9704926687464736f6c634300080d0033",
    "linkReferences": {}
  },
  "methodIdentifiers": {
    "burn(address,uint256)": "9dc29fac",
    "create(bytes32,address[],bytes4[])": "67164665",
    "createCollection(bytes32,address[],bytes4[])": "579cdff2",
    "createCollectionFor(bytes32,address,address[],bytes4[])": "57906688",
    "createFor(bytes32,address,address[],bytes4[])": "9b8e96cc",
    "createInCollection(bytes32,address,address[],bytes4[])": "a26f18b2",
    "fNFT()": "5ef449fd",
    "fNFTImplementation()": "12076ecd",
    "factory()": "c45a0155",
    "mint(address,uint256)": "40c10f19",
    "nextId(address)": "46190ec4",
    "totalSupply(address)": "e4dc2aa4",
    "uri(address)": "426eb017",
    "vaultToToken(address)": "42d19ef4"
  },
  "id": 17
}