{
  "_format": "hh-sol-artifact-1",
  "contractName": "MockPermitter",
  "sourceName": "src/mocks/MockPermitter.sol",
  "abi": [
    {
      "inputs": [
        {
          "internalType": "address",
          "name": "_token",
          "type": "address"
        },
        {
          "internalType": "uint256",
          "name": "_id",
          "type": "uint256"
        },
        {
          "internalType": "bool",
          "name": "_approved",
          "type": "bool"
        },
        {
          "internalType": "uint256",
          "name": "_deadline",
          "type": "uint256"
        },
        {
          "internalType": "uint8",
          "name": "_v",
          "type": "uint8"
        },
        {
          "internalType": "bytes32",
          "name": "_r",
          "type": "bytes32"
        },
        {
          "internalType": "bytes32",
          "name": "_s",
          "type": "bytes32"
        }
      ],
      "name": "selfPermit",
      "outputs": [],
      "stateMutability": "nonpayable",
      "type": "function"
    },
    {
      "inputs": [
        {
          "internalType": "address",
          "name": "_token",
          "type": "address"
        },
        {
          "internalType": "bool",
          "name": "_approved",
          "type": "bool"
        },
        {
          "internalType": "uint256",
          "name": "_deadline",
          "type": "uint256"
        },
        {
          "internalType": "uint8",
          "name": "_v",
          "type": "uint8"
        },
        {
          "internalType": "bytes32",
          "name": "_r",
          "type": "bytes32"
        },
        {
          "internalType": "bytes32",
          "name": "_s",
          "type": "bytes32"
        }
      ],
      "name": "selfPermitAll",
      "outputs": [],
      "stateMutability": "nonpayable",
      "type": "function"
    }
  ],
  "bytecode": "0x608060405234801561001057600080fd5b5061031b806100206000396000f3fe608060405234801561001057600080fd5b50600436106100365760003560e01c8063b1117e9e1461003b578063eea4773014610050575b600080fd5b61004e61004936600461021c565b610063565b005b61004e61005e36600461027b565b610116565b6040517fcfa8fb4200000000000000000000000000000000000000000000000000000000815233600482015230602482015285151560448201526064810185905260ff8416608482015260a4810183905260c4810182905273ffffffffffffffffffffffffffffffffffffffff87169063cfa8fb429060e401600060405180830381600087803b1580156100f657600080fd5b505af115801561010a573d6000803e3d6000fd5b50505050505050505050565b6040517f2ccd9ed40000000000000000000000000000000000000000000000000000000081523360048201523060248201526044810187905285151560648201526084810185905260ff841660a482015260c4810183905260e4810182905273ffffffffffffffffffffffffffffffffffffffff881690632ccd9ed49061010401600060405180830381600087803b1580156101b157600080fd5b505af11580156101c5573d6000803e3d6000fd5b5050505050505050505050565b803573ffffffffffffffffffffffffffffffffffffffff811681146101f657600080fd5b919050565b803580151581146101f657600080fd5b803560ff811681146101f657600080fd5b60008060008060008060c0878903121561023557600080fd5b61023e876101d2565b955061024c602088016101fb565b9450604087013593506102616060880161020b565b92506080870135915060a087013590509295509295509295565b600080600080600080600060e0888a03121561029657600080fd5b61029f886101d2565b9650602088013595506102b4604089016101fb565b9450606088013593506102c96080890161020b565b925060a0880135915060c088013590509295989194975092955056fea2646970667358221220f079a04d44449a850764d2249fb364854e45a9fe287c10e2506ae0bf08e0866864736f6c634300080d0033",
  "linkReferences": {},
  "deployedLinkReferences": {}
}