{
  "abi": [
    {
      "inputs": [
        {
          "internalType": "address",
          "name": "_addr",
          "type": "address"
        },
        {
          "internalType": "uint256",
          "name": "_privateKey",
          "type": "uint256"
        },
        {
          "internalType": "address",
          "name": "_target",
          "type": "address"
        }
      ],
      "stateMutability": "nonpayable",
      "type": "constructor"
    },
    {
      "inputs": [
        {
          "internalType": "uint256",
          "name": "_fAmount",
          "type": "uint256"
        },
        {
          "internalType": "address[]",
          "name": "_modules",
          "type": "address[]"
        },
        {
          "internalType": "address[]",
          "name": "_plugins",
          "type": "address[]"
        },
        {
          "internalType": "bytes4[]",
          "name": "_selectors",
          "type": "bytes4[]"
        },
        {
          "internalType": "bytes32[]",
          "name": "_proof",
          "type": "bytes32[]"
        }
      ],
      "name": "deployVault",
      "outputs": [
        {
          "internalType": "address",
          "name": "",
          "type": "address"
        }
      ],
      "stateMutability": "nonpayable",
      "type": "function"
    },
    {
      "inputs": [
        {
          "internalType": "address[]",
          "name": "_modules",
          "type": "address[]"
        }
      ],
      "name": "generateMerkleTree",
      "outputs": [
        {
          "internalType": "bytes32[]",
          "name": "",
          "type": "bytes32[]"
        }
      ],
      "stateMutability": "nonpayable",
      "type": "function"
    },
    {
      "inputs": [],
      "name": "proxyContract",
      "outputs": [
        {
          "internalType": "address",
          "name": "",
          "type": "address"
        }
      ],
      "stateMutability": "view",
      "type": "function"
    }
  ],
  "bytecode": {
    "object": "0x608060405234801561001057600080fd5b506040516109aa3803806109aa83398101604081905261002f91610108565b81156100b3576040516001625e79b760e01b0319815260048101839052737109709ecfa91a80626ff3989d68f67f5b1dd12d9063ffa18649906024016020604051808303816000875af115801561008a573d6000803e3d6000fd5b505050506040513d601f19601f820116820180604052508101906100ae9190610144565b6100b5565b825b600080546001600160a01b03199081166001600160a01b039384161790915560019390935560028054909316911617905550610166565b80516001600160a01b038116811461010357600080fd5b919050565b60008060006060848603121561011d57600080fd5b610126846100ec565b92506020840151915061013b604085016100ec565b90509250925092565b60006020828403121561015657600080fd5b61015f826100ec565b9392505050565b610835806101756000396000f3fe608060405234801561001057600080fd5b50600436106100415760003560e01c8063884c05fb14610046578063b76564cb1461006f578063ed5504431461009a575b600080fd5b610059610054366004610466565b6100ab565b60405161006691906104de565b60405180910390f35b61008261007d366004610553565b610209565b6040516001600160a01b039091168152602001610066565b6002546001600160a01b0316610082565b6000546040516308b6ac0f60e31b81526001600160a01b03909116600482018190526024820152606090737109709ecfa91a80626ff3989d68f67f5b1dd12d906345b5607890604401600060405180830381600087803b15801561010e57600080fd5b505af1158015610122573d6000803e3d6000fd5b505060025460405163884c05fb60e01b81526001600160a01b03909116925063884c05fb91506101569085906004016106b1565b600060405180830381865afa158015610173573d6000803e3d6000fd5b505050506040513d6000823e601f3d908101601f1916820160405261019b91908101906106c4565b9050737109709ecfa91a80626ff3989d68f67f5b1dd12d6001600160a01b03166390c5013b6040518163ffffffff1660e01b8152600401600060405180830381600087803b1580156101ec57600080fd5b505af1158015610200573d6000803e3d6000fd5b50505050919050565b600080546040516308b6ac0f60e31b81526001600160a01b03909116600482018190526024820152737109709ecfa91a80626ff3989d68f67f5b1dd12d906345b5607890604401600060405180830381600087803b15801561026a57600080fd5b505af115801561027e573d6000803e3d6000fd5b505060025460405163b76564cb60e01b81526001600160a01b03909116925063b76564cb91506102ba9089908990899089908990600401610755565b6020604051808303816000875af11580156102d9573d6000803e3d6000fd5b505050506040513d601f19601f820116820180604052508101906102fd91906107e2565b9050737109709ecfa91a80626ff3989d68f67f5b1dd12d6001600160a01b03166390c5013b6040518163ffffffff1660e01b8152600401600060405180830381600087803b15801561034e57600080fd5b505af1158015610362573d6000803e3d6000fd5b5050505095945050505050565b634e487b7160e01b600052604160045260246000fd5b604051601f8201601f1916810167ffffffffffffffff811182821017156103ae576103ae61036f565b604052919050565b600067ffffffffffffffff8211156103d0576103d061036f565b5060051b60200190565b6001600160a01b03811681146103ef57600080fd5b50565b600082601f83011261040357600080fd5b81356020610418610413836103b6565b610385565b82815260059290921b8401810191818101908684111561043757600080fd5b8286015b8481101561045b57803561044e816103da565b835291830191830161043b565b509695505050505050565b60006020828403121561047857600080fd5b813567ffffffffffffffff81111561048f57600080fd5b61049b848285016103f2565b949350505050565b600081518084526020808501945080840160005b838110156104d3578151875295820195908201906001016104b7565b509495945050505050565b6020815260006104f160208301846104a3565b9392505050565b600082601f83011261050957600080fd5b81356020610519610413836103b6565b82815260059290921b8401810191818101908684111561053857600080fd5b8286015b8481101561045b578035835291830191830161053c565b600080600080600060a0868803121561056b57600080fd5b8535945060208087013567ffffffffffffffff8082111561058b57600080fd5b6105978a838b016103f2565b965060408901359150808211156105ad57600080fd5b6105b98a838b016103f2565b955060608901359150808211156105cf57600080fd5b818901915089601f8301126105e357600080fd5b81356105f1610413826103b6565b81815260059190911b8301840190848101908c83111561061057600080fd5b938501935b828510156106455784356001600160e01b0319811681146106365760008081fd5b82529385019390850190610615565b96505050608089013592508083111561065d57600080fd5b505061066b888289016104f8565b9150509295509295909350565b600081518084526020808501945080840160005b838110156104d35781516001600160a01b03168752958201959082019060010161068c565b6020815260006104f16020830184610678565b600060208083850312156106d757600080fd5b825167ffffffffffffffff8111156106ee57600080fd5b8301601f810185136106ff57600080fd5b805161070d610413826103b6565b81815260059190911b8201830190838101908783111561072c57600080fd5b928401925b8284101561074a57835182529284019290840190610731565b979650505050505050565b8581526000602060a08184015261076f60a0840188610678565b83810360408501526107818188610678565b8481036060860152865180825283880192509083019060005b818110156107c05783516001600160e01b0319168352928401929184019160010161079a565b505084810360808601526107d481876104a3565b9a9950505050505050505050565b6000602082840312156107f457600080fd5b81516104f1816103da56fea26469706673582212205b4ff38e5fe14af6e82d33bffad85b4298401c272e677842cbd7b4cf5edb013c64736f6c634300080d0033",
    "linkReferences": {}
  },
  "methodIdentifiers": {
    "deployVault(uint256,address[],address[],bytes4[],bytes32[])": "b76564cb",
    "generateMerkleTree(address[])": "884c05fb",
    "proxyContract()": "ed550443"
  },
  "id": 84
}