{
  "abi": [
    {
      "inputs": [
        {
          "internalType": "address",
          "name": "_addr",
          "type": "address"
        },
        {
          "internalType": "uint256",
          "name": "_privateKey",
          "type": "uint256"
        },
        {
          "internalType": "address",
          "name": "_target",
          "type": "address"
        }
      ],
      "stateMutability": "nonpayable",
      "type": "constructor"
    },
    {
      "inputs": [],
      "name": "getLeafNodes",
      "outputs": [
        {
          "internalType": "bytes32[]",
          "name": "",
          "type": "bytes32[]"
        }
      ],
      "stateMutability": "nonpayable",
      "type": "function"
    },
    {
      "inputs": [],
      "name": "getPermissions",
      "outputs": [
        {
          "components": [
            {
              "internalType": "address",
              "name": "module",
              "type": "address"
            },
            {
              "internalType": "address",
              "name": "target",
              "type": "address"
            },
            {
              "internalType": "bytes4",
              "name": "selector",
              "type": "bytes4"
            }
          ],
          "internalType": "struct Permission[]",
          "name": "",
          "type": "tuple[]"
        }
      ],
      "stateMutability": "nonpayable",
      "type": "function"
    },
    {
      "inputs": [],
      "name": "proxyContract",
      "outputs": [
        {
          "internalType": "address",
          "name": "",
          "type": "address"
        }
      ],
      "stateMutability": "view",
      "type": "function"
    },
    {
      "inputs": [],
      "name": "supply",
      "outputs": [
        {
          "internalType": "address",
          "name": "",
          "type": "address"
        }
      ],
      "stateMutability": "nonpayable",
      "type": "function"
    }
  ],
  "bytecode": {
    "object": "0x608060405234801561001057600080fd5b506040516108a23803806108a283398101604081905261002f91610108565b81156100b3576040516001625e79b760e01b0319815260048101839052737109709ecfa91a80626ff3989d68f67f5b1dd12d9063ffa18649906024016020604051808303816000875af115801561008a573d6000803e3d6000fd5b505050506040513d601f19601f820116820180604052508101906100ae9190610144565b6100b5565b825b600080546001600160a01b03199081166001600160a01b039384161790915560019390935560028054909316911617905550610166565b80516001600160a01b038116811461010357600080fd5b919050565b60008060006060848603121561011d57600080fd5b610126846100ec565b92506020840151915061013b604085016100ec565b90509250925092565b60006020828403121561015657600080fd5b61015f826100ec565b9392505050565b61072d806101756000396000f3fe608060405234801561001057600080fd5b506004361061004c5760003560e01c8063047fc9aa14610051578063c3a07df614610076578063cbbb4ac51461008b578063ed550443146100a0575b600080fd5b6100596100b1565b6040516001600160a01b0390911681526020015b60405180910390f35b61007e61020d565b60405161006d91906103f9565b610093610303565b60405161006d9190610468565b6002546001600160a01b0316610059565b600080546040516308b6ac0f60e31b81526001600160a01b03909116600482018190526024820152737109709ecfa91a80626ff3989d68f67f5b1dd12d906345b5607890604401600060405180830381600087803b15801561011257600080fd5b505af1158015610126573d6000803e3d6000fd5b50505050600260009054906101000a90046001600160a01b03166001600160a01b031663047fc9aa6040518163ffffffff1660e01b8152600401602060405180830381865afa15801561017d573d6000803e3d6000fd5b505050506040513d601f19601f820116820180604052508101906101a191906104c8565b9050737109709ecfa91a80626ff3989d68f67f5b1dd12d6001600160a01b03166390c5013b6040518163ffffffff1660e01b8152600401600060405180830381600087803b1580156101f257600080fd5b505af1158015610206573d6000803e3d6000fd5b5050505090565b6000546040516308b6ac0f60e31b81526001600160a01b03909116600482018190526024820152606090737109709ecfa91a80626ff3989d68f67f5b1dd12d906345b5607890604401600060405180830381600087803b15801561027057600080fd5b505af1158015610284573d6000803e3d6000fd5b50505050600260009054906101000a90046001600160a01b03166001600160a01b031663c3a07df66040518163ffffffff1660e01b8152600401600060405180830381865afa1580156102db573d6000803e3d6000fd5b505050506040513d6000823e601f3d908101601f191682016040526101a1919081019061057e565b6000546040516308b6ac0f60e31b81526001600160a01b03909116600482018190526024820152606090737109709ecfa91a80626ff3989d68f67f5b1dd12d906345b5607890604401600060405180830381600087803b15801561036657600080fd5b505af115801561037a573d6000803e3d6000fd5b50505050600260009054906101000a90046001600160a01b03166001600160a01b031663cbbb4ac56040518163ffffffff1660e01b8152600401600060405180830381865afa1580156103d1573d6000803e3d6000fd5b505050506040513d6000823e601f3d908101601f191682016040526101a19190810190610666565b602080825282518282018190526000919060409081850190868401855b8281101561045b57815180516001600160a01b0390811686528782015116878601528501516001600160e01b0319168585015260609093019290850190600101610416565b5091979650505050505050565b6020808252825182820181905260009190848201906040850190845b818110156104a057835183529284019291840191600101610484565b50909695505050505050565b80516001600160a01b03811681146104c357600080fd5b919050565b6000602082840312156104da57600080fd5b6104e3826104ac565b9392505050565b634e487b7160e01b600052604160045260246000fd5b6040516060810167ffffffffffffffff81118282101715610523576105236104ea565b60405290565b604051601f8201601f1916810167ffffffffffffffff81118282101715610552576105526104ea565b604052919050565b600067ffffffffffffffff821115610574576105746104ea565b5060051b60200190565b6000602080838503121561059157600080fd5b825167ffffffffffffffff8111156105a857600080fd5b8301601f810185136105b957600080fd5b80516105cc6105c78261055a565b610529565b818152606091820283018401918482019190888411156105eb57600080fd5b938501935b8385101561065a5780858a0312156106085760008081fd5b610610610500565b610619866104ac565b81526106268787016104ac565b818801526040868101516001600160e01b0319811681146106475760008081fd5b90820152835293840193918501916105f0565b50979650505050505050565b6000602080838503121561067957600080fd5b825167ffffffffffffffff81111561069057600080fd5b8301601f810185136106a157600080fd5b80516106af6105c78261055a565b81815260059190911b820183019083810190878311156106ce57600080fd5b928401925b828410156106ec578351825292840192908401906106d3565b97965050505050505056fea2646970667358221220e1bcb75b220245bba67f7623847bbf216ce698970346209b54bb46d43a4b6ecd64736f6c634300080d0033",
    "linkReferences": {}
  },
  "methodIdentifiers": {
    "getLeafNodes()": "cbbb4ac5",
    "getPermissions()": "c3a07df6",
    "proxyContract()": "ed550443",
    "supply()": "047fc9aa"
  },
  "id": 94
}