{
  "_format": "hh-sol-artifact-1",
  "contractName": "Minter",
  "sourceName": "src/modules/Minter.sol",
  "abi": [
    {
      "inputs": [
        {
          "internalType": "address",
          "name": "_supply",
          "type": "address"
        }
      ],
      "stateMutability": "nonpayable",
      "type": "constructor"
    },
    {
      "inputs": [],
      "name": "getLeafNodes",
      "outputs": [
        {
          "internalType": "bytes32[]",
          "name": "nodes",
          "type": "bytes32[]"
        }
      ],
      "stateMutability": "view",
      "type": "function"
    },
    {
      "inputs": [],
      "name": "getPermissions",
      "outputs": [
        {
          "components": [
            {
              "internalType": "address",
              "name": "module",
              "type": "address"
            },
            {
              "internalType": "address",
              "name": "target",
              "type": "address"
            },
            {
              "internalType": "bytes4",
              "name": "selector",
              "type": "bytes4"
            }
          ],
          "internalType": "struct Permission[]",
          "name": "permissions",
          "type": "tuple[]"
        }
      ],
      "stateMutability": "view",
      "type": "function"
    },
    {
      "inputs": [],
      "name": "supply",
      "outputs": [
        {
          "internalType": "address",
          "name": "",
          "type": "address"
        }
      ],
      "stateMutability": "view",
      "type": "function"
    }
  ],
  "bytecode": "0x608060405234801561001057600080fd5b5060405161043c38038061043c83398101604081905261002f91610054565b600080546001600160a01b0319166001600160a01b0392909216919091179055610084565b60006020828403121561006657600080fd5b81516001600160a01b038116811461007d57600080fd5b9392505050565b6103a9806100936000396000f3fe608060405234801561001057600080fd5b50600436106100415760003560e01c8063047fc9aa14610046578063c3a07df614610090578063cbbb4ac5146100a5575b600080fd5b6000546100669073ffffffffffffffffffffffffffffffffffffffff1681565b60405173ffffffffffffffffffffffffffffffffffffffff90911681526020015b60405180910390f35b6100986100ba565b604051610087919061026b565b6100ad610192565b604051610087919061030c565b604080516001808252818301909252606091816020015b60408051606081018252600080825260208083018290529282015282527fffffffffffffffffffffffffffffffffffffffffffffffffffffffffffffffff9092019101816100d1575050604080516060810182523081526000805473ffffffffffffffffffffffffffffffffffffffff1660208301527f40c10f19000000000000000000000000000000000000000000000000000000009282019290925282519293509183919061018457610184610344565b602002602001018190525090565b604080516001808252818301909252606091602080830190803683370190505090506101bc6100ba565b6000815181106101ce576101ce610344565b60209081029190910181015160408051825173ffffffffffffffffffffffffffffffffffffffff90811682860152938301519093168382015201517fffffffff00000000000000000000000000000000000000000000000000000000166060820152608001604051602081830303815290604052805190602001208160008151811061025c5761025c610344565b60200260200101818152505090565b6020808252825182820181905260009190848201906040850190845b81811015610300576102ed83855173ffffffffffffffffffffffffffffffffffffffff808251168352806020830151166020840152507fffffffff0000000000000000000000000000000000000000000000000000000060408201511660408301525050565b9284019260609290920191600101610287565b50909695505050505050565b6020808252825182820181905260009190848201906040850190845b8181101561030057835183529284019291840191600101610328565b7f4e487b7100000000000000000000000000000000000000000000000000000000600052603260045260246000fdfea2646970667358221220c7dbe302e98623d36cc703d323d5cba048ddd10e053890e3cfe447011180d2ab64736f6c634300080d0033",
  "linkReferences": {},
  "deployedLinkReferences": {}
}