{
  "abi": [
    {
      "inputs": [
        {
          "internalType": "address",
          "name": "_token",
          "type": "address"
        },
        {
          "internalType": "uint256",
          "name": "_id",
          "type": "uint256"
        },
        {
          "internalType": "bool",
          "name": "_approved",
          "type": "bool"
        },
        {
          "internalType": "uint256",
          "name": "_deadline",
          "type": "uint256"
        },
        {
          "internalType": "uint8",
          "name": "_v",
          "type": "uint8"
        },
        {
          "internalType": "bytes32",
          "name": "_r",
          "type": "bytes32"
        },
        {
          "internalType": "bytes32",
          "name": "_s",
          "type": "bytes32"
        }
      ],
      "name": "selfPermit",
      "outputs": [],
      "stateMutability": "nonpayable",
      "type": "function"
    },
    {
      "inputs": [
        {
          "internalType": "address",
          "name": "_token",
          "type": "address"
        },
        {
          "internalType": "bool",
          "name": "_approved",
          "type": "bool"
        },
        {
          "internalType": "uint256",
          "name": "_deadline",
          "type": "uint256"
        },
        {
          "internalType": "uint8",
          "name": "_v",
          "type": "uint8"
        },
        {
          "internalType": "bytes32",
          "name": "_r",
          "type": "bytes32"
        },
        {
          "internalType": "bytes32",
          "name": "_s",
          "type": "bytes32"
        }
      ],
      "name": "selfPermitAll",
      "outputs": [],
      "stateMutability": "nonpayable",
      "type": "function"
    }
  ],
  "bytecode": {
    "object": "0x608060405234801561001057600080fd5b506102c2806100206000396000f3fe608060405234801561001057600080fd5b50600436106100365760003560e01c8063b1117e9e1461003b578063eea4773014610050575b600080fd5b61004e6100493660046101c3565b610063565b005b61004e61005e366004610222565b6100f0565b6040516367d47da160e11b815233600482015230602482015285151560448201526064810185905260ff8416608482015260a4810183905260c481018290526001600160a01b0387169063cfa8fb429060e401600060405180830381600087803b1580156100d057600080fd5b505af11580156100e4573d6000803e3d6000fd5b50505050505050505050565b604051630b3367b560e21b81523360048201523060248201526044810187905285151560648201526084810185905260ff841660a482015260c4810183905260e481018290526001600160a01b03881690632ccd9ed49061010401600060405180830381600087803b15801561016557600080fd5b505af1158015610179573d6000803e3d6000fd5b5050505050505050505050565b80356001600160a01b038116811461019d57600080fd5b919050565b8035801515811461019d57600080fd5b803560ff8116811461019d57600080fd5b60008060008060008060c087890312156101dc57600080fd5b6101e587610186565b95506101f3602088016101a2565b945060408701359350610208606088016101b2565b92506080870135915060a087013590509295509295509295565b600080600080600080600060e0888a03121561023d57600080fd5b61024688610186565b96506020880135955061025b604089016101a2565b945060608801359350610270608089016101b2565b925060a0880135915060c088013590509295989194975092955056fea26469706673582212207108e2444e908069a6978ad50f2f240b1539712c89d9a13ccf3a99a658b4b04764736f6c634300080d0033",
    "linkReferences": {}
  },
  "methodIdentifiers": {
    "selfPermit(address,uint256,bool,uint256,uint8,bytes32,bytes32)": "eea47730",
    "selfPermitAll(address,bool,uint256,uint8,bytes32,bytes32)": "b1117e9e"
  },
  "id": 43
}