{
  "abi": [
    {
      "inputs": [
        {
          "internalType": "address",
          "name": "_addr",
          "type": "address"
        },
        {
          "internalType": "uint256",
          "name": "_privateKey",
          "type": "uint256"
        },
        {
          "internalType": "address",
          "name": "_target",
          "type": "address"
        }
      ],
      "stateMutability": "nonpayable",
      "type": "constructor"
    },
    {
      "inputs": [],
      "name": "getLeafNodes",
      "outputs": [
        {
          "internalType": "bytes32[]",
          "name": "",
          "type": "bytes32[]"
        }
      ],
      "stateMutability": "nonpayable",
      "type": "function"
    },
    {
      "inputs": [],
      "name": "getPermissions",
      "outputs": [
        {
          "components": [
            {
              "internalType": "address",
              "name": "module",
              "type": "address"
            },
            {
              "internalType": "address",
              "name": "target",
              "type": "address"
            },
            {
              "internalType": "bytes4",
              "name": "selector",
              "type": "bytes4"
            }
          ],
          "internalType": "struct Permission[]",
          "name": "",
          "type": "tuple[]"
        }
      ],
      "stateMutability": "nonpayable",
      "type": "function"
    },
    {
      "inputs": [],
      "name": "proxyContract",
      "outputs": [
        {
          "internalType": "address",
          "name": "",
          "type": "address"
        }
      ],
      "stateMutability": "view",
      "type": "function"
    }
  ],
  "bytecode": {
    "object": "0x608060405234801561001057600080fd5b5060405161077338038061077383398101604081905261002f91610108565b81156100b3576040516001625e79b760e01b0319815260048101839052737109709ecfa91a80626ff3989d68f67f5b1dd12d9063ffa18649906024016020604051808303816000875af115801561008a573d6000803e3d6000fd5b505050506040513d601f19601f820116820180604052508101906100ae9190610144565b6100b5565b825b600080546001600160a01b03199081166001600160a01b039384161790915560019390935560028054909316911617905550610166565b80516001600160a01b038116811461010357600080fd5b919050565b60008060006060848603121561011d57600080fd5b610126846100ec565b92506020840151915061013b604085016100ec565b90509250925092565b60006020828403121561015657600080fd5b61015f826100ec565b9392505050565b6105fe806101756000396000f3fe608060405234801561001057600080fd5b50600436106100415760003560e01c8063c3a07df614610046578063cbbb4ac514610064578063ed55044314610079575b600080fd5b61004e610094565b60405161005b91906102ec565b60405180910390f35b61006c6101f6565b60405161005b919061035b565b6002546040516001600160a01b03909116815260200161005b565b6000546040516308b6ac0f60e31b81526001600160a01b03909116600482018190526024820152606090737109709ecfa91a80626ff3989d68f67f5b1dd12d906345b5607890604401600060405180830381600087803b1580156100f757600080fd5b505af115801561010b573d6000803e3d6000fd5b50505050600260009054906101000a90046001600160a01b03166001600160a01b031663c3a07df66040518163ffffffff1660e01b8152600401600060405180830381865afa158015610162573d6000803e3d6000fd5b505050506040513d6000823e601f3d908101601f1916820160405261018a919081019061044f565b9050737109709ecfa91a80626ff3989d68f67f5b1dd12d6001600160a01b03166390c5013b6040518163ffffffff1660e01b8152600401600060405180830381600087803b1580156101db57600080fd5b505af11580156101ef573d6000803e3d6000fd5b5050505090565b6000546040516308b6ac0f60e31b81526001600160a01b03909116600482018190526024820152606090737109709ecfa91a80626ff3989d68f67f5b1dd12d906345b5607890604401600060405180830381600087803b15801561025957600080fd5b505af115801561026d573d6000803e3d6000fd5b50505050600260009054906101000a90046001600160a01b03166001600160a01b031663cbbb4ac56040518163ffffffff1660e01b8152600401600060405180830381865afa1580156102c4573d6000803e3d6000fd5b505050506040513d6000823e601f3d908101601f1916820160405261018a9190810190610537565b602080825282518282018190526000919060409081850190868401855b8281101561034e57815180516001600160a01b0390811686528782015116878601528501516001600160e01b0319168585015260609093019290850190600101610309565b5091979650505050505050565b6020808252825182820181905260009190848201906040850190845b8181101561039357835183529284019291840191600101610377565b50909695505050505050565b634e487b7160e01b600052604160045260246000fd5b6040516060810167ffffffffffffffff811182821017156103d8576103d861039f565b60405290565b604051601f8201601f1916810167ffffffffffffffff811182821017156104075761040761039f565b604052919050565b600067ffffffffffffffff8211156104295761042961039f565b5060051b60200190565b80516001600160a01b038116811461044a57600080fd5b919050565b6000602080838503121561046257600080fd5b825167ffffffffffffffff81111561047957600080fd5b8301601f8101851361048a57600080fd5b805161049d6104988261040f565b6103de565b818152606091820283018401918482019190888411156104bc57600080fd5b938501935b8385101561052b5780858a0312156104d95760008081fd5b6104e16103b5565b6104ea86610433565b81526104f7878701610433565b818801526040868101516001600160e01b0319811681146105185760008081fd5b90820152835293840193918501916104c1565b50979650505050505050565b6000602080838503121561054a57600080fd5b825167ffffffffffffffff81111561056157600080fd5b8301601f8101851361057257600080fd5b80516105806104988261040f565b81815260059190911b8201830190838101908783111561059f57600080fd5b928401925b828410156105bd578351825292840192908401906105a4565b97965050505050505056fea264697066735822122076f151892de60f45c0e31d106ba92e7d3cc261b7a2573262abaccdba72620bd664736f6c634300080d0033",
    "linkReferences": {}
  },
  "methodIdentifiers": {
    "getLeafNodes()": "cbbb4ac5",
    "getPermissions()": "c3a07df6",
    "proxyContract()": "ed550443"
  },
  "id": 100
}