{
  "abi": [
    {
      "inputs": [
        {
          "internalType": "address",
          "name": "_addr",
          "type": "address"
        },
        {
          "internalType": "uint256",
          "name": "_privateKey",
          "type": "uint256"
        },
        {
          "internalType": "address",
          "name": "_target",
          "type": "address"
        }
      ],
      "stateMutability": "nonpayable",
      "type": "constructor"
    },
    {
      "inputs": [],
      "name": "PROPOSAL_PERIOD",
      "outputs": [
        {
          "internalType": "uint256",
          "name": "",
          "type": "uint256"
        }
      ],
      "stateMutability": "nonpayable",
      "type": "function"
    },
    {
      "inputs": [
        {
          "internalType": "address",
          "name": "_vault",
          "type": "address"
        },
        {
          "internalType": "uint256",
          "name": "_proposalId",
          "type": "uint256"
        },
        {
          "internalType": "address",
          "name": "_nft",
          "type": "address"
        },
        {
          "internalType": "uint256[]",
          "name": "_ids",
          "type": "uint256[]"
        },
        {
          "internalType": "uint256[]",
          "name": "_amounts",
          "type": "uint256[]"
        },
        {
          "internalType": "bytes32[]",
          "name": "_erc1155BatchTransferProof",
          "type": "bytes32[]"
        }
      ],
      "name": "batchMigrateVaultERC1155",
      "outputs": [],
      "stateMutability": "nonpayable",
      "type": "function"
    },
    {
      "inputs": [],
      "name": "buyout",
      "outputs": [
        {
          "internalType": "address payable",
          "name": "",
          "type": "address"
        }
      ],
      "stateMutability": "nonpayable",
      "type": "function"
    },
    {
      "inputs": [
        {
          "internalType": "address",
          "name": "_vault",
          "type": "address"
        },
        {
          "internalType": "uint256",
          "name": "_proposalId",
          "type": "uint256"
        }
      ],
      "name": "commit",
      "outputs": [
        {
          "internalType": "bool",
          "name": "",
          "type": "bool"
        }
      ],
      "stateMutability": "nonpayable",
      "type": "function"
    },
    {
      "inputs": [
        {
          "internalType": "address[]",
          "name": "_modules",
          "type": "address[]"
        }
      ],
      "name": "generateMerkleTree",
      "outputs": [
        {
          "internalType": "bytes32[]",
          "name": "",
          "type": "bytes32[]"
        }
      ],
      "stateMutability": "nonpayable",
      "type": "function"
    },
    {
      "inputs": [
        {
          "internalType": "address",
          "name": "_vault",
          "type": "address"
        },
        {
          "internalType": "uint256",
          "name": "_proposalId",
          "type": "uint256"
        },
        {
          "internalType": "uint256",
          "name": "_amount",
          "type": "uint256"
        }
      ],
      "name": "join",
      "outputs": [],
      "stateMutability": "payable",
      "type": "function"
    },
    {
      "inputs": [
        {
          "internalType": "address",
          "name": "_vault",
          "type": "address"
        },
        {
          "internalType": "uint256",
          "name": "_proposalId",
          "type": "uint256"
        }
      ],
      "name": "leave",
      "outputs": [],
      "stateMutability": "nonpayable",
      "type": "function"
    },
    {
      "inputs": [
        {
          "internalType": "address",
          "name": "_vault",
          "type": "address"
        },
        {
          "internalType": "uint256",
          "name": "_proposalId",
          "type": "uint256"
        }
      ],
      "name": "migrateFractions",
      "outputs": [],
      "stateMutability": "nonpayable",
      "type": "function"
    },
    {
      "inputs": [
        {
          "internalType": "address",
          "name": "_vault",
          "type": "address"
        },
        {
          "internalType": "uint256",
          "name": "_proposalId",
          "type": "uint256"
        },
        {
          "internalType": "address",
          "name": "_token",
          "type": "address"
        },
        {
          "internalType": "uint256",
          "name": "_amount",
          "type": "uint256"
        },
        {
          "internalType": "bytes32[]",
          "name": "_erc20TransferProof",
          "type": "bytes32[]"
        }
      ],
      "name": "migrateVaultERC20",
      "outputs": [],
      "stateMutability": "nonpayable",
      "type": "function"
    },
    {
      "inputs": [
        {
          "internalType": "address",
          "name": "_vault",
          "type": "address"
        },
        {
          "internalType": "uint256",
          "name": "_proposalId",
          "type": "uint256"
        },
        {
          "internalType": "address",
          "name": "_nft",
          "type": "address"
        },
        {
          "internalType": "uint256",
          "name": "_tokenId",
          "type": "uint256"
        },
        {
          "internalType": "bytes32[]",
          "name": "_erc721TransferProof",
          "type": "bytes32[]"
        }
      ],
      "name": "migrateVaultERC721",
      "outputs": [],
      "stateMutability": "nonpayable",
      "type": "function"
    },
    {
      "inputs": [
        {
          "internalType": "address",
          "name": "arg0",
          "type": "address"
        },
        {
          "internalType": "uint256",
          "name": "arg1",
          "type": "uint256"
        }
      ],
      "name": "migrationInfo",
      "outputs": [
        {
          "internalType": "uint256",
          "name": "",
          "type": "uint256"
        },
        {
          "internalType": "uint256",
          "name": "",
          "type": "uint256"
        },
        {
          "internalType": "uint256",
          "name": "",
          "type": "uint256"
        },
        {
          "internalType": "uint256",
          "name": "",
          "type": "uint256"
        },
        {
          "internalType": "address",
          "name": "",
          "type": "address"
        },
        {
          "internalType": "bool",
          "name": "",
          "type": "bool"
        },
        {
          "internalType": "uint256",
          "name": "",
          "type": "uint256"
        },
        {
          "internalType": "uint256",
          "name": "",
          "type": "uint256"
        },
        {
          "internalType": "bool",
          "name": "",
          "type": "bool"
        }
      ],
      "stateMutability": "nonpayable",
      "type": "function"
    },
    {
      "inputs": [],
      "name": "nextId",
      "outputs": [
        {
          "internalType": "uint256",
          "name": "",
          "type": "uint256"
        }
      ],
      "stateMutability": "nonpayable",
      "type": "function"
    },
    {
      "inputs": [
        {
          "internalType": "address",
          "name": "_vault",
          "type": "address"
        },
        {
          "internalType": "address[]",
          "name": "_modules",
          "type": "address[]"
        },
        {
          "internalType": "address[]",
          "name": "_plugins",
          "type": "address[]"
        },
        {
          "internalType": "bytes4[]",
          "name": "_selectors",
          "type": "bytes4[]"
        },
        {
          "internalType": "uint256",
          "name": "_newFractionSupply",
          "type": "uint256"
        },
        {
          "internalType": "uint256",
          "name": "_targetPrice",
          "type": "uint256"
        }
      ],
      "name": "propose",
      "outputs": [],
      "stateMutability": "nonpayable",
      "type": "function"
    },
    {
      "inputs": [],
      "name": "proxyContract",
      "outputs": [
        {
          "internalType": "address",
          "name": "",
          "type": "address"
        }
      ],
      "stateMutability": "view",
      "type": "function"
    },
    {
      "inputs": [],
      "name": "registry",
      "outputs": [
        {
          "internalType": "address",
          "name": "",
          "type": "address"
        }
      ],
      "stateMutability": "nonpayable",
      "type": "function"
    },
    {
      "inputs": [
        {
          "internalType": "address",
          "name": "_vault",
          "type": "address"
        },
        {
          "internalType": "uint256",
          "name": "_proposalId",
          "type": "uint256"
        },
        {
          "internalType": "bytes32[]",
          "name": "_mintProof",
          "type": "bytes32[]"
        }
      ],
      "name": "settleFractions",
      "outputs": [],
      "stateMutability": "nonpayable",
      "type": "function"
    },
    {
      "inputs": [
        {
          "internalType": "address",
          "name": "_vault",
          "type": "address"
        },
        {
          "internalType": "uint256",
          "name": "_proposalId",
          "type": "uint256"
        }
      ],
      "name": "settleVault",
      "outputs": [],
      "stateMutability": "nonpayable",
      "type": "function"
    },
    {
      "inputs": [
        {
          "internalType": "address",
          "name": "_vault",
          "type": "address"
        },
        {
          "internalType": "uint256",
          "name": "_proposalId",
          "type": "uint256"
        }
      ],
      "name": "withdrawContribution",
      "outputs": [],
      "stateMutability": "nonpayable",
      "type": "function"
    }
  ],
  "bytecode": {
    "object": "0x60806040523480156200001157600080fd5b5060405162001ef738038062001ef7833981016040819052620000349162000114565b8115620000bd576040516001625e79b760e01b0319815260048101839052737109709ecfa91a80626ff3989d68f67f5b1dd12d9063ffa18649906024016020604051808303816000875af115801562000091573d6000803e3d6000fd5b505050506040513d601f19601f82011682018060405250810190620000b7919062000155565b620000bf565b825b600080546001600160a01b03199081166001600160a01b0393841617909155600193909355600280549093169116179055506200017a565b80516001600160a01b03811681146200010f57600080fd5b919050565b6000806000606084860312156200012a57600080fd5b6200013584620000f7565b9250602084015191506200014c60408501620000f7565b90509250925092565b6000602082840312156200016857600080fd5b6200017382620000f7565b9392505050565b611d6d806200018a6000396000f3fe6080604052600436106101095760003560e01c806384bf153511610095578063b35db91111610064578063b35db91114610327578063c5d15ebd14610347578063d87ed5e014610367578063ea36380a1461037c578063ed5504431461038f57600080fd5b806384bf15351461028a578063884c05fb146102ba5780638c31f8e0146102e75780639818ca591461030757600080fd5b80635d58066f116100dc5780635d58066f146101f257806361b8ce8c146102125780636cb58c93146102355780637b103999146102555780638406a2f91461026a57600080fd5b80630ef948531461010e578063295e6b7f1461018357806331829390146101a55780635c4bfa10146101c5575b600080fd5b34801561011a57600080fd5b5061012e610129366004611511565b6103ad565b60408051998a5260208a01989098529688019590955260608701939093526001600160a01b039091166080860152151560a085015260c084015260e08301521515610100820152610120015b60405180910390f35b34801561018f57600080fd5b506101a361019e366004611511565b610524565b005b3480156101b157600080fd5b506101a36101c036600461161c565b610660565b3480156101d157600080fd5b506101da6107a5565b6040516001600160a01b03909116815260200161017a565b3480156101fe57600080fd5b506101a361020d36600461178f565b6108f3565b34801561021e57600080fd5b50610227610a2f565b60405190815260200161017a565b34801561024157600080fd5b506101a3610250366004611511565b610b17565b34801561026157600080fd5b506101da610bc0565b34801561027657600080fd5b506101a36102853660046117e8565b610c84565b34801561029657600080fd5b506102aa6102a5366004611511565b610dc6565b604051901515815260200161017a565b3480156102c657600080fd5b506102da6102d536600461185e565b610f17565b60405161017a91906118d6565b3480156102f357600080fd5b506101a36103023660046117e8565b611069565b34801561031357600080fd5b506101a3610322366004611511565b611111565b34801561033357600080fd5b506101a3610342366004611511565b6111ba565b34801561035357600080fd5b506101a36103623660046118f0565b611263565b34801561037357600080fd5b5061022761130d565b6101a361038a3660046119a6565b6113d1565b34801561039b57600080fd5b506002546001600160a01b03166101da565b600080546040516308b6ac0f60e31b815282918291829182918291829182918291600080516020611d18833981519152916345b56078916103fc916001600160a01b03169081906004016119db565b600060405180830381600087803b15801561041657600080fd5b505af115801561042a573d6000803e3d6000fd5b5050600254604051630ef9485360e01b81526001600160a01b038f81166004830152602482018f90529091169250630ef94853915060440161012060405180830381865afa158015610480573d6000803e3d6000fd5b505050506040513d601f19601f820116820180604052508101906104a49190611a0a565b985098509850985098509850985098509850600080516020611d188339815191526001600160a01b03166390c5013b6040518163ffffffff1660e01b8152600401600060405180830381600087803b1580156104ff57600080fd5b505af1158015610513573d6000803e3d6000fd5b505050509295985092959850929598565b6000546040516308b6ac0f60e31b8152600080516020611d18833981519152916345b5607891610562916001600160a01b03169081906004016119db565b600060405180830381600087803b15801561057c57600080fd5b505af1158015610590573d6000803e3d6000fd5b505060025460405163295e6b7f60e01b81526001600160a01b03868116600483015260248201869052909116925063295e6b7f91506044015b600060405180830381600087803b1580156105e357600080fd5b505af11580156105f7573d6000803e3d6000fd5b50505050600080516020611d188339815191526001600160a01b03166390c5013b6040518163ffffffff1660e01b8152600401600060405180830381600087803b15801561064457600080fd5b505af1158015610658573d6000803e3d6000fd5b505050505050565b6000546040516308b6ac0f60e31b8152600080516020611d18833981519152916345b560789161069e916001600160a01b03169081906004016119db565b600060405180830381600087803b1580156106b857600080fd5b505af11580156106cc573d6000803e3d6000fd5b5050600254604051630318293960e41b81526001600160a01b0390911692506331829390915061070a90899089908990899089908990600401611ac3565b600060405180830381600087803b15801561072457600080fd5b505af1158015610738573d6000803e3d6000fd5b50505050600080516020611d188339815191526001600160a01b03166390c5013b6040518163ffffffff1660e01b8152600401600060405180830381600087803b15801561078557600080fd5b505af1158015610799573d6000803e3d6000fd5b50505050505050505050565b600080546040516308b6ac0f60e31b8152600080516020611d18833981519152916345b56078916107e4916001600160a01b03169081906004016119db565b600060405180830381600087803b1580156107fe57600080fd5b505af1158015610812573d6000803e3d6000fd5b50505050600260009054906101000a90046001600160a01b03166001600160a01b0316635c4bfa106040518163ffffffff1660e01b8152600401602060405180830381865afa158015610869573d6000803e3d6000fd5b505050506040513d601f19601f8201168201806040525081019061088d9190611b52565b9050600080516020611d188339815191526001600160a01b03166390c5013b6040518163ffffffff1660e01b8152600401600060405180830381600087803b1580156108d857600080fd5b505af11580156108ec573d6000803e3d6000fd5b5050505090565b6000546040516308b6ac0f60e31b8152600080516020611d18833981519152916345b5607891610931916001600160a01b03169081906004016119db565b600060405180830381600087803b15801561094b57600080fd5b505af115801561095f573d6000803e3d6000fd5b5050600254604051635d58066f60e01b81526001600160a01b039091169250635d58066f915061099790869086908690600401611b6f565b600060405180830381600087803b1580156109b157600080fd5b505af11580156109c5573d6000803e3d6000fd5b50505050600080516020611d188339815191526001600160a01b03166390c5013b6040518163ffffffff1660e01b8152600401600060405180830381600087803b158015610a1257600080fd5b505af1158015610a26573d6000803e3d6000fd5b50505050505050565b600080546040516308b6ac0f60e31b8152600080516020611d18833981519152916345b5607891610a6e916001600160a01b03169081906004016119db565b600060405180830381600087803b158015610a8857600080fd5b505af1158015610a9c573d6000803e3d6000fd5b50505050600260009054906101000a90046001600160a01b03166001600160a01b03166361b8ce8c6040518163ffffffff1660e01b8152600401602060405180830381865afa158015610af3573d6000803e3d6000fd5b505050506040513d601f19601f8201168201806040525081019061088d9190611b9f565b6000546040516308b6ac0f60e31b8152600080516020611d18833981519152916345b5607891610b55916001600160a01b03169081906004016119db565b600060405180830381600087803b158015610b6f57600080fd5b505af1158015610b83573d6000803e3d6000fd5b5050600254604051636cb58c9360e01b81526001600160a01b038681166004830152602482018690529091169250636cb58c9391506044016105c9565b600080546040516308b6ac0f60e31b8152600080516020611d18833981519152916345b5607891610bff916001600160a01b03169081906004016119db565b600060405180830381600087803b158015610c1957600080fd5b505af1158015610c2d573d6000803e3d6000fd5b50505050600260009054906101000a90046001600160a01b03166001600160a01b0316637b1039996040518163ffffffff1660e01b8152600401602060405180830381865afa158015610869573d6000803e3d6000fd5b6000546040516308b6ac0f60e31b8152600080516020611d18833981519152916345b5607891610cc2916001600160a01b03169081906004016119db565b600060405180830381600087803b158015610cdc57600080fd5b505af1158015610cf0573d6000803e3d6000fd5b5050600254604051638406a2f960e01b81526001600160a01b039091169250638406a2f99150610d2c9088908890889088908890600401611bb8565b600060405180830381600087803b158015610d4657600080fd5b505af1158015610d5a573d6000803e3d6000fd5b50505050600080516020611d188339815191526001600160a01b03166390c5013b6040518163ffffffff1660e01b8152600401600060405180830381600087803b158015610da757600080fd5b505af1158015610dbb573d6000803e3d6000fd5b505050505050505050565b600080546040516308b6ac0f60e31b8152600080516020611d18833981519152916345b5607891610e05916001600160a01b03169081906004016119db565b600060405180830381600087803b158015610e1f57600080fd5b505af1158015610e33573d6000803e3d6000fd5b50506002546040516384bf153560e01b81526001600160a01b0387811660048301526024820187905290911692506384bf153591506044016020604051808303816000875af1158015610e8a573d6000803e3d6000fd5b505050506040513d601f19601f82011682018060405250810190610eae9190611bfd565b9050600080516020611d188339815191526001600160a01b03166390c5013b6040518163ffffffff1660e01b8152600401600060405180830381600087803b158015610ef957600080fd5b505af1158015610f0d573d6000803e3d6000fd5b5050505092915050565b6000546040516308b6ac0f60e31b8152606091600080516020611d18833981519152916345b5607891610f5a916001600160a01b039091169081906004016119db565b600060405180830381600087803b158015610f7457600080fd5b505af1158015610f88573d6000803e3d6000fd5b505060025460405163884c05fb60e01b81526001600160a01b03909116925063884c05fb9150610fbc908590600401611c18565b600060405180830381865afa158015610fd9573d6000803e3d6000fd5b505050506040513d6000823e601f3d908101601f191682016040526110019190810190611c2b565b9050600080516020611d188339815191526001600160a01b03166390c5013b6040518163ffffffff1660e01b8152600401600060405180830381600087803b15801561104c57600080fd5b505af1158015611060573d6000803e3d6000fd5b50505050919050565b6000546040516308b6ac0f60e31b8152600080516020611d18833981519152916345b56078916110a7916001600160a01b03169081906004016119db565b600060405180830381600087803b1580156110c157600080fd5b505af11580156110d5573d6000803e3d6000fd5b50506002546040516304618fc760e51b81526001600160a01b039091169250638c31f8e09150610d2c9088908890889088908890600401611bb8565b6000546040516308b6ac0f60e31b8152600080516020611d18833981519152916345b560789161114f916001600160a01b03169081906004016119db565b600060405180830381600087803b15801561116957600080fd5b505af115801561117d573d6000803e3d6000fd5b5050600254604051639818ca5960e01b81526001600160a01b038681166004830152602482018690529091169250639818ca5991506044016105c9565b6000546040516308b6ac0f60e31b8152600080516020611d18833981519152916345b56078916111f8916001600160a01b03169081906004016119db565b600060405180830381600087803b15801561121257600080fd5b505af1158015611226573d6000803e3d6000fd5b505060025460405163b35db91160e01b81526001600160a01b03868116600483015260248201869052909116925063b35db91191506044016105c9565b6000546040516308b6ac0f60e31b8152600080516020611d18833981519152916345b56078916112a1916001600160a01b03169081906004016119db565b600060405180830381600087803b1580156112bb57600080fd5b505af11580156112cf573d6000803e3d6000fd5b505060025460405163c5d15ebd60e01b81526001600160a01b03909116925063c5d15ebd915061070a90899089908990899089908990600401611cb1565b600080546040516308b6ac0f60e31b8152600080516020611d18833981519152916345b560789161134c916001600160a01b03169081906004016119db565b600060405180830381600087803b15801561136657600080fd5b505af115801561137a573d6000803e3d6000fd5b50505050600260009054906101000a90046001600160a01b03166001600160a01b031663d87ed5e06040518163ffffffff1660e01b8152600401602060405180830381865afa158015610af3573d6000803e3d6000fd5b6000546040516308b6ac0f60e31b8152600080516020611d18833981519152916345b560789161140f916001600160a01b03169081906004016119db565b600060405180830381600087803b15801561142957600080fd5b505af115801561143d573d6000803e3d6000fd5b505060025460405163751b1c0560e11b81526001600160a01b0387811660048301526024820187905260448201869052909116925063ea36380a915034906064016000604051808303818588803b15801561149757600080fd5b505af11580156114ab573d6000803e3d6000fd5b5050505050600080516020611d188339815191526001600160a01b03166390c5013b6040518163ffffffff1660e01b8152600401600060405180830381600087803b158015610a1257600080fd5b6001600160a01b038116811461150e57600080fd5b50565b6000806040838503121561152457600080fd5b823561152f816114f9565b946020939093013593505050565b634e487b7160e01b600052604160045260246000fd5b604051601f8201601f1916810167ffffffffffffffff8111828210171561157c5761157c61153d565b604052919050565b600067ffffffffffffffff82111561159e5761159e61153d565b5060051b60200190565b600082601f8301126115b957600080fd5b813560206115ce6115c983611584565b611553565b82815260059290921b840181019181810190868411156115ed57600080fd5b8286015b84811015611611578035611604816114f9565b83529183019183016115f1565b509695505050505050565b60008060008060008060c0878903121561163557600080fd5b8635611640816114f9565b955060208781013567ffffffffffffffff8082111561165e57600080fd5b61166a8b838c016115a8565b975060408a013591508082111561168057600080fd5b61168c8b838c016115a8565b965060608a01359150808211156116a257600080fd5b508801601f81018a136116b457600080fd5b80356116c26115c982611584565b81815260059190911b8201830190838101908c8311156116e157600080fd5b928401925b828410156117165783356001600160e01b0319811681146117075760008081fd5b825292840192908401906116e6565b999c989b50969960808101359860a090910135975095505050505050565b600082601f83011261174557600080fd5b813560206117556115c983611584565b82815260059290921b8401810191818101908684111561177457600080fd5b8286015b848110156116115780358352918301918301611778565b6000806000606084860312156117a457600080fd5b83356117af816114f9565b925060208401359150604084013567ffffffffffffffff8111156117d257600080fd5b6117de86828701611734565b9150509250925092565b600080600080600060a0868803121561180057600080fd5b853561180b816114f9565b9450602086013593506040860135611822816114f9565b925060608601359150608086013567ffffffffffffffff81111561184557600080fd5b61185188828901611734565b9150509295509295909350565b60006020828403121561187057600080fd5b813567ffffffffffffffff81111561188757600080fd5b611893848285016115a8565b949350505050565b600081518084526020808501945080840160005b838110156118cb578151875295820195908201906001016118af565b509495945050505050565b6020815260006118e9602083018461189b565b9392505050565b60008060008060008060c0878903121561190957600080fd5b8635611914816114f9565b955060208701359450604087013561192b816114f9565b9350606087013567ffffffffffffffff8082111561194857600080fd5b6119548a838b01611734565b9450608089013591508082111561196a57600080fd5b6119768a838b01611734565b935060a089013591508082111561198c57600080fd5b5061199989828a01611734565b9150509295509295509295565b6000806000606084860312156119bb57600080fd5b83356119c6816114f9565b95602085013595506040909401359392505050565b6001600160a01b0392831681529116602082015260400190565b80518015158114611a0557600080fd5b919050565b60008060008060008060008060006101208a8c031215611a2957600080fd5b8951985060208a0151975060408a0151965060608a0151955060808a0151611a50816114f9565b9450611a5e60a08b016119f5565b935060c08a0151925060e08a01519150611a7b6101008b016119f5565b90509295985092959850929598565b600081518084526020808501945080840160005b838110156118cb5781516001600160a01b031687529582019590820190600101611a9e565b6001600160a01b038716815260c06020808301829052600091611ae890840189611a8a565b8381036040850152611afa8189611a8a565b8481036060860152875180825283890192509083019060005b81811015611b395783516001600160e01b03191683529284019291840191600101611b13565b5050608085019690965250505060a00152949350505050565b600060208284031215611b6457600080fd5b81516118e9816114f9565b60018060a01b0384168152826020820152606060408201526000611b96606083018461189b565b95945050505050565b600060208284031215611bb157600080fd5b5051919050565b6001600160a01b03868116825260208201869052841660408201526060810183905260a060808201819052600090611bf29083018461189b565b979650505050505050565b600060208284031215611c0f57600080fd5b6118e9826119f5565b6020815260006118e96020830184611a8a565b60006020808385031215611c3e57600080fd5b825167ffffffffffffffff811115611c5557600080fd5b8301601f81018513611c6657600080fd5b8051611c746115c982611584565b81815260059190911b82018301908381019087831115611c9357600080fd5b928401925b82841015611bf257835182529284019290840190611c98565b6001600160a01b038781168252602082018790528516604082015260c060608201819052600090611ce49083018661189b565b8281036080840152611cf6818661189b565b905082810360a0840152611d0a818561189b565b999850505050505050505056fe0000000000000000000000007109709ecfa91a80626ff3989d68f67f5b1dd12da26469706673582212201bd1427fab0f2ed5b06267fde4caa7187b48c04a40888201a7d2da22cda15d4d64736f6c634300080d0033",
    "linkReferences": {}
  },
  "methodIdentifiers": {
    "PROPOSAL_PERIOD()": "d87ed5e0",
    "batchMigrateVaultERC1155(address,uint256,address,uint256[],uint256[],bytes32[])": "c5d15ebd",
    "buyout()": "5c4bfa10",
    "commit(address,uint256)": "84bf1535",
    "generateMerkleTree(address[])": "884c05fb",
    "join(address,uint256,uint256)": "ea36380a",
    "leave(address,uint256)": "6cb58c93",
    "migrateFractions(address,uint256)": "9818ca59",
    "migrateVaultERC20(address,uint256,address,uint256,bytes32[])": "8406a2f9",
    "migrateVaultERC721(address,uint256,address,uint256,bytes32[])": "8c31f8e0",
    "migrationInfo(address,uint256)": "0ef94853",
    "nextId()": "61b8ce8c",
    "propose(address,address[],address[],bytes4[],uint256,uint256)": "31829390",
    "proxyContract()": "ed550443",
    "registry()": "7b103999",
    "settleFractions(address,uint256,bytes32[])": "5d58066f",
    "settleVault(address,uint256)": "295e6b7f",
    "withdrawContribution(address,uint256)": "b35db911"
  },
  "id": 80
}