{
  "abi": [
    {
      "inputs": [
        {
          "internalType": "address",
          "name": "_addr",
          "type": "address"
        },
        {
          "internalType": "uint256",
          "name": "_privateKey",
          "type": "uint256"
        },
        {
          "internalType": "address",
          "name": "_target",
          "type": "address"
        }
      ],
      "stateMutability": "nonpayable",
      "type": "constructor"
    },
    {
      "inputs": [
        {
          "internalType": "bytes32[]",
          "name": "_data",
          "type": "bytes32[]"
        },
        {
          "internalType": "uint256",
          "name": "_node",
          "type": "uint256"
        }
      ],
      "name": "getProof",
      "outputs": [
        {
          "internalType": "bytes32[]",
          "name": "",
          "type": "bytes32[]"
        }
      ],
      "stateMutability": "nonpayable",
      "type": "function"
    },
    {
      "inputs": [
        {
          "internalType": "bytes32[]",
          "name": "_data",
          "type": "bytes32[]"
        }
      ],
      "name": "getRoot",
      "outputs": [
        {
          "internalType": "bytes32",
          "name": "",
          "type": "bytes32"
        }
      ],
      "stateMutability": "nonpayable",
      "type": "function"
    },
    {
      "inputs": [
        {
          "internalType": "bytes32",
          "name": "_left",
          "type": "bytes32"
        },
        {
          "internalType": "bytes32",
          "name": "_right",
          "type": "bytes32"
        }
      ],
      "name": "hashLeafPairs",
      "outputs": [
        {
          "internalType": "bytes32",
          "name": "",
          "type": "bytes32"
        }
      ],
      "stateMutability": "nonpayable",
      "type": "function"
    },
    {
      "inputs": [
        {
          "internalType": "uint256",
          "name": "x",
          "type": "uint256"
        }
      ],
      "name": "log2ceil_naive",
      "outputs": [
        {
          "internalType": "uint256",
          "name": "",
          "type": "uint256"
        }
      ],
      "stateMutability": "nonpayable",
      "type": "function"
    },
    {
      "inputs": [],
      "name": "proxyContract",
      "outputs": [
        {
          "internalType": "address",
          "name": "",
          "type": "address"
        }
      ],
      "stateMutability": "view",
      "type": "function"
    },
    {
      "inputs": [
        {
          "internalType": "bytes32",
          "name": "_root",
          "type": "bytes32"
        },
        {
          "internalType": "bytes32[]",
          "name": "_proof",
          "type": "bytes32[]"
        },
        {
          "internalType": "bytes32",
          "name": "_valueToProve",
          "type": "bytes32"
        }
      ],
      "name": "verifyProof",
      "outputs": [
        {
          "internalType": "bool",
          "name": "",
          "type": "bool"
        }
      ],
      "stateMutability": "nonpayable",
      "type": "function"
    }
  ],
  "bytecode": {
    "object": "0x608060405234801561001057600080fd5b50604051610bb5380380610bb583398101604081905261002f91610108565b81156100b3576040516001625e79b760e01b0319815260048101839052737109709ecfa91a80626ff3989d68f67f5b1dd12d9063ffa18649906024016020604051808303816000875af115801561008a573d6000803e3d6000fd5b505050506040513d601f19601f820116820180604052508101906100ae9190610144565b6100b5565b825b600080546001600160a01b03199081166001600160a01b039384161790915560019390935560028054909316911617905550610166565b80516001600160a01b038116811461010357600080fd5b919050565b60008060006060848603121561011d57600080fd5b610126846100ec565b92506020840151915061013b604085016100ec565b90509250925092565b60006020828403121561015657600080fd5b61015f826100ec565b9392505050565b610a40806101756000396000f3fe608060405234801561001057600080fd5b50600436106100625760003560e01c806308d7090a146100675780632e08d6021461008d57806358161a42146100a0578063b8616195146100c3578063dd1d2599146100e3578063ed550443146100f6575b600080fd5b61007a6100753660046106bb565b610111565b6040519081526020015b60405180910390f35b61007a61009b3660046107aa565b610266565b6100b36100ae3660046107e7565b61030f565b6040519015158152602001610084565b6100d66100d1366004610837565b61046d565b60405161008491906108b7565b61007a6100f13660046108d1565b6105ce565b6002546040516001600160a01b039091168152602001610084565b600080546040516308b6ac0f60e31b81526001600160a01b03909116600482018190526024820152737109709ecfa91a80626ff3989d68f67f5b1dd12d906345b5607890604401600060405180830381600087803b15801561017257600080fd5b505af1158015610186573d6000803e3d6000fd5b505060025460405163046b848560e11b8152600481018690526001600160a01b0390911692506308d7090a91506024015b602060405180830381865afa1580156101d4573d6000803e3d6000fd5b505050506040513d601f19601f820116820180604052508101906101f891906108f3565b9050737109709ecfa91a80626ff3989d68f67f5b1dd12d6001600160a01b03166390c5013b6040518163ffffffff1660e01b8152600401600060405180830381600087803b15801561024957600080fd5b505af115801561025d573d6000803e3d6000fd5b50505050919050565b600080546040516308b6ac0f60e31b81526001600160a01b03909116600482018190526024820152737109709ecfa91a80626ff3989d68f67f5b1dd12d906345b5607890604401600060405180830381600087803b1580156102c757600080fd5b505af11580156102db573d6000803e3d6000fd5b50506002546040516317046b0160e11b81526001600160a01b039091169250632e08d60291506101b79085906004016108b7565b600080546040516308b6ac0f60e31b81526001600160a01b03909116600482018190526024820152737109709ecfa91a80626ff3989d68f67f5b1dd12d906345b5607890604401600060405180830381600087803b15801561037057600080fd5b505af1158015610384573d6000803e3d6000fd5b5050600254604051632c0b0d2160e11b81526001600160a01b0390911692506358161a4291506103bc9087908790879060040161090c565b602060405180830381865afa1580156103d9573d6000803e3d6000fd5b505050506040513d601f19601f820116820180604052508101906103fd9190610935565b9050737109709ecfa91a80626ff3989d68f67f5b1dd12d6001600160a01b03166390c5013b6040518163ffffffff1660e01b8152600401600060405180830381600087803b15801561044e57600080fd5b505af1158015610462573d6000803e3d6000fd5b505050509392505050565b6000546040516308b6ac0f60e31b81526001600160a01b03909116600482018190526024820152606090737109709ecfa91a80626ff3989d68f67f5b1dd12d906345b5607890604401600060405180830381600087803b1580156104d057600080fd5b505af11580156104e4573d6000803e3d6000fd5b505060025460405163b861619560e01b81526001600160a01b03909116925063b8616195915061051a9086908690600401610957565b600060405180830381865afa158015610537573d6000803e3d6000fd5b505050506040513d6000823e601f3d908101601f1916820160405261055f9190810190610979565b9050737109709ecfa91a80626ff3989d68f67f5b1dd12d6001600160a01b03166390c5013b6040518163ffffffff1660e01b8152600401600060405180830381600087803b1580156105b057600080fd5b505af11580156105c4573d6000803e3d6000fd5b5050505092915050565b600080546040516308b6ac0f60e31b81526001600160a01b03909116600482018190526024820152737109709ecfa91a80626ff3989d68f67f5b1dd12d906345b5607890604401600060405180830381600087803b15801561062f57600080fd5b505af1158015610643573d6000803e3d6000fd5b505060025460405163dd1d259960e01b815260048101879052602481018690526001600160a01b03909116925063dd1d25999150604401602060405180830381865afa158015610697573d6000803e3d6000fd5b505050506040513d601f19601f8201168201806040525081019061055f91906108f3565b6000602082840312156106cd57600080fd5b5035919050565b634e487b7160e01b600052604160045260246000fd5b604051601f8201601f1916810167ffffffffffffffff81118282101715610713576107136106d4565b604052919050565b600067ffffffffffffffff821115610735576107356106d4565b5060051b60200190565b600082601f83011261075057600080fd5b813560206107656107608361071b565b6106ea565b82815260059290921b8401810191818101908684111561078457600080fd5b8286015b8481101561079f5780358352918301918301610788565b509695505050505050565b6000602082840312156107bc57600080fd5b813567ffffffffffffffff8111156107d357600080fd5b6107df8482850161073f565b949350505050565b6000806000606084860312156107fc57600080fd5b83359250602084013567ffffffffffffffff81111561081a57600080fd5b6108268682870161073f565b925050604084013590509250925092565b6000806040838503121561084a57600080fd5b823567ffffffffffffffff81111561086157600080fd5b61086d8582860161073f565b95602094909401359450505050565b600081518084526020808501945080840160005b838110156108ac57815187529582019590820190600101610890565b509495945050505050565b6020815260006108ca602083018461087c565b9392505050565b600080604083850312156108e457600080fd5b50508035926020909101359150565b60006020828403121561090557600080fd5b5051919050565b838152606060208201526000610925606083018561087c565b9050826040830152949350505050565b60006020828403121561094757600080fd5b815180151581146108ca57600080fd5b60408152600061096a604083018561087c565b90508260208301529392505050565b6000602080838503121561098c57600080fd5b825167ffffffffffffffff8111156109a357600080fd5b8301601f810185136109b457600080fd5b80516109c26107608261071b565b81815260059190911b820183019083810190878311156109e157600080fd5b928401925b828410156109ff578351825292840192908401906109e6565b97965050505050505056fea26469706673582212205b95e81330cbfd4e8502f5dfffc6363ab6ca87859bc5a950b6abba5e39cbd27864736f6c634300080d0033",
    "linkReferences": {}
  },
  "methodIdentifiers": {
    "getProof(bytes32[],uint256)": "b8616195",
    "getRoot(bytes32[])": "2e08d602",
    "hashLeafPairs(bytes32,bytes32)": "dd1d2599",
    "log2ceil_naive(uint256)": "08d7090a",
    "proxyContract()": "ed550443",
    "verifyProof(bytes32,bytes32[],bytes32)": "58161a42"
  },
  "id": 91
}