{
  "_format": "hh-sol-artifact-1",
  "contractName": "Buyout",
  "sourceName": "src/modules/Buyout.sol",
  "abi": [
    {
      "inputs": [
        {
          "internalType": "address",
          "name": "_registry",
          "type": "address"
        },
        {
          "internalType": "address",
          "name": "_supply",
          "type": "address"
        },
        {
          "internalType": "address",
          "name": "_transfer",
          "type": "address"
        }
      ],
      "stateMutability": "nonpayable",
      "type": "constructor"
    },
    {
      "inputs": [],
      "name": "InvalidPayment",
      "type": "error"
    },
    {
      "inputs": [
        {
          "internalType": "enum State",
          "name": "_required",
          "type": "uint8"
        },
        {
          "internalType": "enum State",
          "name": "_current",
          "type": "uint8"
        }
      ],
      "name": "InvalidState",
      "type": "error"
    },
    {
      "inputs": [],
      "name": "NoFractions",
      "type": "error"
    },
    {
      "inputs": [
        {
          "internalType": "address",
          "name": "_vault",
          "type": "address"
        }
      ],
      "name": "NotVault",
      "type": "error"
    },
    {
      "inputs": [],
      "name": "NotWinner",
      "type": "error"
    },
    {
      "inputs": [
        {
          "internalType": "uint256",
          "name": "_current",
          "type": "uint256"
        },
        {
          "internalType": "uint256",
          "name": "_deadline",
          "type": "uint256"
        }
      ],
      "name": "TimeExpired",
      "type": "error"
    },
    {
      "inputs": [
        {
          "internalType": "uint256",
          "name": "_current",
          "type": "uint256"
        },
        {
          "internalType": "uint256",
          "name": "_deadline",
          "type": "uint256"
        }
      ],
      "name": "TimeNotElapsed",
      "type": "error"
    },
    {
      "inputs": [],
      "name": "ZeroDeposit",
      "type": "error"
    },
    {
      "anonymous": false,
      "inputs": [
        {
          "indexed": true,
          "internalType": "address",
          "name": "_buyer",
          "type": "address"
        },
        {
          "indexed": false,
          "internalType": "uint256",
          "name": "_amount",
          "type": "uint256"
        }
      ],
      "name": "BuyFractions",
      "type": "event"
    },
    {
      "anonymous": false,
      "inputs": [
        {
          "indexed": false,
          "internalType": "address",
          "name": "_vault",
          "type": "address"
        },
        {
          "indexed": true,
          "internalType": "address",
          "name": "_casher",
          "type": "address"
        },
        {
          "indexed": false,
          "internalType": "uint256",
          "name": "_amount",
          "type": "uint256"
        }
      ],
      "name": "Cash",
      "type": "event"
    },
    {
      "anonymous": false,
      "inputs": [
        {
          "indexed": false,
          "internalType": "address",
          "name": "_vault",
          "type": "address"
        },
        {
          "indexed": false,
          "internalType": "enum State",
          "name": "_state",
          "type": "uint8"
        },
        {
          "indexed": true,
          "internalType": "address",
          "name": "_proposer",
          "type": "address"
        }
      ],
      "name": "End",
      "type": "event"
    },
    {
      "anonymous": false,
      "inputs": [
        {
          "indexed": false,
          "internalType": "address",
          "name": "_vault",
          "type": "address"
        },
        {
          "indexed": true,
          "internalType": "address",
          "name": "_redeemer",
          "type": "address"
        }
      ],
      "name": "Redeem",
      "type": "event"
    },
    {
      "anonymous": false,
      "inputs": [
        {
          "indexed": true,
          "internalType": "address",
          "name": "_seller",
          "type": "address"
        },
        {
          "indexed": false,
          "internalType": "uint256",
          "name": "_amount",
          "type": "uint256"
        }
      ],
      "name": "SellFractions",
      "type": "event"
    },
    {
      "anonymous": false,
      "inputs": [
        {
          "indexed": true,
          "internalType": "address",
          "name": "_vault",
          "type": "address"
        },
        {
          "indexed": true,
          "internalType": "address",
          "name": "_proposer",
          "type": "address"
        },
        {
          "indexed": false,
          "internalType": "uint256",
          "name": "_startTime",
          "type": "uint256"
        },
        {
          "indexed": false,
          "internalType": "uint256",
          "name": "_buyoutPrice",
          "type": "uint256"
        },
        {
          "indexed": false,
          "internalType": "uint256",
          "name": "_fractionPrice",
          "type": "uint256"
        }
      ],
      "name": "Start",
      "type": "event"
    },
    {
      "inputs": [],
      "name": "PROPOSAL_PERIOD",
      "outputs": [
        {
          "internalType": "uint256",
          "name": "",
          "type": "uint256"
        }
      ],
      "stateMutability": "view",
      "type": "function"
    },
    {
      "inputs": [],
      "name": "REJECTION_PERIOD",
      "outputs": [
        {
          "internalType": "uint256",
          "name": "",
          "type": "uint256"
        }
      ],
      "stateMutability": "view",
      "type": "function"
    },
    {
      "inputs": [],
      "name": "WETH_ADDRESS",
      "outputs": [
        {
          "internalType": "address payable",
          "name": "",
          "type": "address"
        }
      ],
      "stateMutability": "view",
      "type": "function"
    },
    {
      "inputs": [
        {
          "internalType": "address",
          "name": "_vault",
          "type": "address"
        },
        {
          "internalType": "address",
          "name": "_token",
          "type": "address"
        },
        {
          "internalType": "address",
          "name": "_to",
          "type": "address"
        },
        {
          "internalType": "uint256[]",
          "name": "_ids",
          "type": "uint256[]"
        },
        {
          "internalType": "uint256[]",
          "name": "_values",
          "type": "uint256[]"
        },
        {
          "internalType": "bytes32[]",
          "name": "_erc1155BatchTransferProof",
          "type": "bytes32[]"
        }
      ],
      "name": "batchWithdrawERC1155",
      "outputs": [],
      "stateMutability": "nonpayable",
      "type": "function"
    },
    {
      "inputs": [
        {
          "internalType": "address",
          "name": "_vault",
          "type": "address"
        },
        {
          "internalType": "uint256",
          "name": "_amount",
          "type": "uint256"
        }
      ],
      "name": "buyFractions",
      "outputs": [],
      "stateMutability": "payable",
      "type": "function"
    },
    {
      "inputs": [
        {
          "internalType": "address",
          "name": "",
          "type": "address"
        }
      ],
      "name": "buyoutInfo",
      "outputs": [
        {
          "internalType": "uint256",
          "name": "startTime",
          "type": "uint256"
        },
        {
          "internalType": "address",
          "name": "proposer",
          "type": "address"
        },
        {
          "internalType": "enum State",
          "name": "state",
          "type": "uint8"
        },
        {
          "internalType": "uint256",
          "name": "fractionPrice",
          "type": "uint256"
        },
        {
          "internalType": "uint256",
          "name": "ethBalance",
          "type": "uint256"
        },
        {
          "internalType": "uint256",
          "name": "lastTotalSupply",
          "type": "uint256"
        }
      ],
      "stateMutability": "view",
      "type": "function"
    },
    {
      "inputs": [
        {
          "internalType": "address",
          "name": "_vault",
          "type": "address"
        },
        {
          "internalType": "bytes32[]",
          "name": "_burnProof",
          "type": "bytes32[]"
        }
      ],
      "name": "cash",
      "outputs": [],
      "stateMutability": "nonpayable",
      "type": "function"
    },
    {
      "inputs": [
        {
          "internalType": "address",
          "name": "_vault",
          "type": "address"
        },
        {
          "internalType": "bytes32[]",
          "name": "_burnProof",
          "type": "bytes32[]"
        }
      ],
      "name": "end",
      "outputs": [],
      "stateMutability": "nonpayable",
      "type": "function"
    },
    {
      "inputs": [],
      "name": "getLeafNodes",
      "outputs": [
        {
          "internalType": "bytes32[]",
          "name": "nodes",
          "type": "bytes32[]"
        }
      ],
      "stateMutability": "view",
      "type": "function"
    },
    {
      "inputs": [],
      "name": "getPermissions",
      "outputs": [
        {
          "components": [
            {
              "internalType": "address",
              "name": "module",
              "type": "address"
            },
            {
              "internalType": "address",
              "name": "target",
              "type": "address"
            },
            {
              "internalType": "bytes4",
              "name": "selector",
              "type": "bytes4"
            }
          ],
          "internalType": "struct Permission[]",
          "name": "permissions",
          "type": "tuple[]"
        }
      ],
      "stateMutability": "view",
      "type": "function"
    },
    {
      "inputs": [
        {
          "internalType": "bytes[]",
          "name": "_data",
          "type": "bytes[]"
        }
      ],
      "name": "multicall",
      "outputs": [
        {
          "internalType": "bytes[]",
          "name": "results",
          "type": "bytes[]"
        }
      ],
      "stateMutability": "nonpayable",
      "type": "function"
    },
    {
      "inputs": [
        {
          "internalType": "address",
          "name": "",
          "type": "address"
        },
        {
          "internalType": "address",
          "name": "",
          "type": "address"
        },
        {
          "internalType": "uint256[]",
          "name": "",
          "type": "uint256[]"
        },
        {
          "internalType": "uint256[]",
          "name": "",
          "type": "uint256[]"
        },
        {
          "internalType": "bytes",
          "name": "",
          "type": "bytes"
        }
      ],
      "name": "onERC1155BatchReceived",
      "outputs": [
        {
          "internalType": "bytes4",
          "name": "",
          "type": "bytes4"
        }
      ],
      "stateMutability": "nonpayable",
      "type": "function"
    },
    {
      "inputs": [
        {
          "internalType": "address",
          "name": "",
          "type": "address"
        },
        {
          "internalType": "address",
          "name": "",
          "type": "address"
        },
        {
          "internalType": "uint256",
          "name": "",
          "type": "uint256"
        },
        {
          "internalType": "uint256",
          "name": "",
          "type": "uint256"
        },
        {
          "internalType": "bytes",
          "name": "",
          "type": "bytes"
        }
      ],
      "name": "onERC1155Received",
      "outputs": [
        {
          "internalType": "bytes4",
          "name": "",
          "type": "bytes4"
        }
      ],
      "stateMutability": "nonpayable",
      "type": "function"
    },
    {
      "inputs": [
        {
          "internalType": "address",
          "name": "",
          "type": "address"
        },
        {
          "internalType": "address",
          "name": "",
          "type": "address"
        },
        {
          "internalType": "uint256",
          "name": "",
          "type": "uint256"
        },
        {
          "internalType": "bytes",
          "name": "",
          "type": "bytes"
        }
      ],
      "name": "onERC721Received",
      "outputs": [
        {
          "internalType": "bytes4",
          "name": "",
          "type": "bytes4"
        }
      ],
      "stateMutability": "nonpayable",
      "type": "function"
    },
    {
      "inputs": [
        {
          "internalType": "address",
          "name": "_vault",
          "type": "address"
        },
        {
          "internalType": "bytes32[]",
          "name": "_burnProof",
          "type": "bytes32[]"
        }
      ],
      "name": "redeem",
      "outputs": [],
      "stateMutability": "nonpayable",
      "type": "function"
    },
    {
      "inputs": [],
      "name": "registry",
      "outputs": [
        {
          "internalType": "address",
          "name": "",
          "type": "address"
        }
      ],
      "stateMutability": "view",
      "type": "function"
    },
    {
      "inputs": [
        {
          "internalType": "address",
          "name": "_token",
          "type": "address"
        },
        {
          "internalType": "uint256",
          "name": "_id",
          "type": "uint256"
        },
        {
          "internalType": "bool",
          "name": "_approved",
          "type": "bool"
        },
        {
          "internalType": "uint256",
          "name": "_deadline",
          "type": "uint256"
        },
        {
          "internalType": "uint8",
          "name": "_v",
          "type": "uint8"
        },
        {
          "internalType": "bytes32",
          "name": "_r",
          "type": "bytes32"
        },
        {
          "internalType": "bytes32",
          "name": "_s",
          "type": "bytes32"
        }
      ],
      "name": "selfPermit",
      "outputs": [],
      "stateMutability": "nonpayable",
      "type": "function"
    },
    {
      "inputs": [
        {
          "internalType": "address",
          "name": "_token",
          "type": "address"
        },
        {
          "internalType": "bool",
          "name": "_approved",
          "type": "bool"
        },
        {
          "internalType": "uint256",
          "name": "_deadline",
          "type": "uint256"
        },
        {
          "internalType": "uint8",
          "name": "_v",
          "type": "uint8"
        },
        {
          "internalType": "bytes32",
          "name": "_r",
          "type": "bytes32"
        },
        {
          "internalType": "bytes32",
          "name": "_s",
          "type": "bytes32"
        }
      ],
      "name": "selfPermitAll",
      "outputs": [],
      "stateMutability": "nonpayable",
      "type": "function"
    },
    {
      "inputs": [
        {
          "internalType": "address",
          "name": "_vault",
          "type": "address"
        },
        {
          "internalType": "uint256",
          "name": "_amount",
          "type": "uint256"
        }
      ],
      "name": "sellFractions",
      "outputs": [],
      "stateMutability": "nonpayable",
      "type": "function"
    },
    {
      "inputs": [
        {
          "internalType": "address",
          "name": "_vault",
          "type": "address"
        }
      ],
      "name": "start",
      "outputs": [],
      "stateMutability": "payable",
      "type": "function"
    },
    {
      "inputs": [],
      "name": "supply",
      "outputs": [
        {
          "internalType": "address",
          "name": "",
          "type": "address"
        }
      ],
      "stateMutability": "view",
      "type": "function"
    },
    {
      "inputs": [],
      "name": "transfer",
      "outputs": [
        {
          "internalType": "address",
          "name": "",
          "type": "address"
        }
      ],
      "stateMutability": "view",
      "type": "function"
    },
    {
      "inputs": [
        {
          "internalType": "address",
          "name": "_vault",
          "type": "address"
        },
        {
          "internalType": "address",
          "name": "_token",
          "type": "address"
        },
        {
          "internalType": "address",
          "name": "_to",
          "type": "address"
        },
        {
          "internalType": "uint256",
          "name": "_id",
          "type": "uint256"
        },
        {
          "internalType": "uint256",
          "name": "_value",
          "type": "uint256"
        },
        {
          "internalType": "bytes32[]",
          "name": "_erc1155TransferProof",
          "type": "bytes32[]"
        }
      ],
      "name": "withdrawERC1155",
      "outputs": [],
      "stateMutability": "nonpayable",
      "type": "function"
    },
    {
      "inputs": [
        {
          "internalType": "address",
          "name": "_vault",
          "type": "address"
        },
        {
          "internalType": "address",
          "name": "_token",
          "type": "address"
        },
        {
          "internalType": "address",
          "name": "_to",
          "type": "address"
        },
        {
          "internalType": "uint256",
          "name": "_value",
          "type": "uint256"
        },
        {
          "internalType": "bytes32[]",
          "name": "_erc20TransferProof",
          "type": "bytes32[]"
        }
      ],
      "name": "withdrawERC20",
      "outputs": [],
      "stateMutability": "nonpayable",
      "type": "function"
    },
    {
      "inputs": [
        {
          "internalType": "address",
          "name": "_vault",
          "type": "address"
        },
        {
          "internalType": "address",
          "name": "_token",
          "type": "address"
        },
        {
          "internalType": "address",
          "name": "_to",
          "type": "address"
        },
        {
          "internalType": "uint256",
          "name": "_tokenId",
          "type": "uint256"
        },
        {
          "internalType": "bytes32[]",
          "name": "_erc721TransferProof",
          "type": "bytes32[]"
        }
      ],
      "name": "withdrawERC721",
      "outputs": [],
      "stateMutability": "nonpayable",
      "type": "function"
    },
    {
      "stateMutability": "payable",
      "type": "receive"
    }
  ],
  "bytecode": "0x60806040523480156200001157600080fd5b506040516200415d3803806200415d833981016040819052620000349162000094565b600080546001600160a01b039485166001600160a01b031991821617909155600180549385169382169390931790925560028054919093169116179055620000de565b80516001600160a01b03811681146200008f57600080fd5b919050565b600080600060608486031215620000aa57600080fd5b620000b58462000077565b9250620000c56020850162000077565b9150620000d56040850162000077565b90509250925092565b61406f80620000ee6000396000f3fe60806040526004361061019a5760003560e01c8063ac9650d8116100e1578063c3a07df61161008a578063d87ed5e011610064578063d87ed5e014610558578063dd0b281e1461056f578063eea4773014610582578063f23a6e61146105a257600080fd5b8063c3a07df6146104f4578063c42a581714610516578063cbbb4ac51461053657600080fd5b8063b5bb74a7116100bb578063b5bb74a714610403578063bc197c8114610487578063bc95831b146104cf57600080fd5b8063ac9650d814610396578063b1117e9e146103c3578063b43adf11146103e357600080fd5b80637a607ce611610143578063867713371161011d57806386771337146103435780638a4068dd14610356578063a0e056261461037657600080fd5b80637a607ce6146102e35780637b103999146103035780637d0c4eae1461032357600080fd5b80631579529a116101745780631579529a146102815780634acb7fd4146102a35780634e8c70f9146102c357600080fd5b8063040141e5146101a6578063047fc9aa146101eb578063150b7a021461020b57600080fd5b366101a157005b600080fd5b3480156101b257600080fd5b506101ce73c02aaa39b223fe8d0a0e5c4f27ead9083c756cc281565b6040516001600160a01b0390911681526020015b60405180910390f35b3480156101f757600080fd5b506001546101ce906001600160a01b031681565b34801561021757600080fd5b506102506102263660046133f2565b7f150b7a020000000000000000000000000000000000000000000000000000000095945050505050565b6040517fffffffff0000000000000000000000000000000000000000000000000000000090911681526020016101e2565b34801561028d57600080fd5b506102a161029c3660046134aa565b6105e8565b005b3480156102af57600080fd5b506102a16102be3660046134ff565b610a7b565b3480156102cf57600080fd5b506102a16102de3660046134aa565b610db1565b3480156102ef57600080fd5b506102a16102fe3660046134aa565b6113c7565b34801561030f57600080fd5b506000546101ce906001600160a01b031681565b34801561032f57600080fd5b506102a161033e36600461352b565b6117d9565b6102a16103513660046134ff565b611ae5565b34801561036257600080fd5b506002546101ce906001600160a01b031681565b34801561038257600080fd5b506102a16103913660046135ff565b611e34565b3480156103a257600080fd5b506103b66103b1366004613684565b61215b565b6040516101e29190613722565b3480156103cf57600080fd5b506102a16103de3660046137c6565b612280565b3480156103ef57600080fd5b506102a16103fe3660046135ff565b612326565b34801561040f57600080fd5b5061047561041e366004613829565b60036020819052600091825260409091208054600182015460028301549383015460049093015491936001600160a01b038216937401000000000000000000000000000000000000000090920460ff169290919086565b6040516101e2969594939291906138b7565b34801561049357600080fd5b506102506104a23660046138f7565b7fbc197c810000000000000000000000000000000000000000000000000000000098975050505050505050565b3480156104db57600080fd5b506104e66205460081565b6040519081526020016101e2565b34801561050057600080fd5b506105096125ef565b6040516101e291906139b6565b34801561052257600080fd5b506102a1610531366004613a4a565b612863565b34801561054257600080fd5b5061054b612b87565b6040516101e29190613ad9565b34801561056457600080fd5b506104e66202a30081565b6102a161057d366004613829565b612c6c565b34801561058e57600080fd5b506102a161059d366004613b11565b6131ab565b3480156105ae57600080fd5b506102506105bd366004613b7f565b7ff23a6e61000000000000000000000000000000000000000000000000000000009695505050505050565b600080546040517f42d19ef40000000000000000000000000000000000000000000000000000000081526001600160a01b038681166004830152839216906342d19ef4906024016040805180830381865afa15801561064b573d6000803e3d6000fd5b505050506040513d601f19601f8201168201806040525081019061066f9190613be9565b91509150806000036106bd576040517fe9d601610000000000000000000000000000000000000000000000000000000081526001600160a01b03861660048201526024015b60405180910390fd5b6040517fb5bb74a70000000000000000000000000000000000000000000000000000000081526001600160a01b03861660048201526000908190309063b5bb74a79060240160c060405180830381865afa15801561071f573d6000803e3d6000fd5b505050506040513d601f19601f820116820180604052508101906107439190613c17565b50919550909350600292508291506107589050565b83600281111561076a5761076a61384d565b146107a55780836040517f77e5c5f20000000000000000000000000000000000000000000000000000000081526004016106b4929190613c7a565b6040517efdd58e000000000000000000000000000000000000000000000000000000008152336004820152602481018590526000906001600160a01b0387169062fdd58e90604401602060405180830381865afa15801561080a573d6000803e3d6000fd5b505050506040513d601f19601f8201168201806040525081019061082e9190613c95565b90508060000361086a576040517fa91a20ba00000000000000000000000000000000000000000000000000000000815260040160405180910390fd5b6040513360248201526044810182905260009060640160408051601f198184030181529181526020820180517bffffffffffffffffffffffffffffffffffffffffffffffffffffffff167f9dc29fac0000000000000000000000000000000000000000000000000000000017905260015490517f601b8af30000000000000000000000000000000000000000000000000000000081529192506001600160a01b03808d169263601b8af39261092992169085908e908e90600401613cfd565b6000604051808303816000875af1158015610948573d6000803e3d6000fd5b505050506040513d6000823e601f3d908101601f191682016040526109709190810190613d6c565b5050600080546040517fe4dc2aa40000000000000000000000000000000000000000000000000000000081526001600160a01b038d811660048301529091169063e4dc2aa490602401602060405180830381865afa1580156109d6573d6000803e3d6000fd5b505050506040513d601f19601f820116820180604052508101906109fa9190613c95565b90506000610a088483613e5e565b610a128786613e76565b610a1c9190613eb3565b9050610a28338261325a565b604080516001600160a01b038e1681526020810183905233917f28703a2ab897b375324b382706bec3484f0eea5d8e3c521edde1621ea112801091015b60405180910390a2505050505050505050505050565b600080546040517f42d19ef40000000000000000000000000000000000000000000000000000000081526001600160a01b038581166004830152839216906342d19ef4906024016040805180830381865afa158015610ade573d6000803e3d6000fd5b505050506040513d601f19601f82011682018060405250810190610b029190613be9565b9150915080600003610b4b576040517fe9d601610000000000000000000000000000000000000000000000000000000081526001600160a01b03851660048201526024016106b4565b6040517fb5bb74a70000000000000000000000000000000000000000000000000000000081526001600160a01b038516600482015260009081908190309063b5bb74a79060240160c060405180830381865afa158015610baf573d6000803e3d6000fd5b505050506040513d601f19601f82011682018060405250810190610bd39190613c17565b50939650909450925060019150819050836002811115610bf557610bf561384d565b14610c305780836040517f77e5c5f20000000000000000000000000000000000000000000000000000000081526004016106b4929190613c7a565b6000610c3f6202a30086613e5e565b905080421115610c84576040517f234cf524000000000000000000000000000000000000000000000000000000008152426004820152602481018290526044016106b4565b6040517ff242432a000000000000000000000000000000000000000000000000000000008152336004820152306024820152604481018790526064810189905260a06084820152600060a48201526001600160a01b0388169063f242432a9060c401600060405180830381600087803b158015610d0057600080fd5b505af1158015610d14573d6000803e3d6000fd5b5050505060008884610d269190613e76565b905080600360008c6001600160a01b03166001600160a01b031681526020019081526020016000206003016000828254610d609190613eee565b90915550610d709050338261325a565b60405189815233907fd88d04a19bb03626e205e6da078f65eb37fe7ce82a16ffa986fb07e438ccef5d9060200160405180910390a250505050505050505050565b600080546040517f42d19ef40000000000000000000000000000000000000000000000000000000081526001600160a01b038681166004830152839216906342d19ef4906024016040805180830381865afa158015610e14573d6000803e3d6000fd5b505050506040513d601f19601f82011682018060405250810190610e389190613be9565b9150915080600003610e81576040517fe9d601610000000000000000000000000000000000000000000000000000000081526001600160a01b03861660048201526024016106b4565b6040517fb5bb74a70000000000000000000000000000000000000000000000000000000081526001600160a01b0386166004820152600090819081908190309063b5bb74a79060240160c060405180830381865afa158015610ee7573d6000803e3d6000fd5b505050506040513d601f19601f82011682018060405250810190610f0b9190613c17565b5093975091955093509091506001905080836002811115610f2e57610f2e61384d565b14610f695780836040517f77e5c5f20000000000000000000000000000000000000000000000000000000081526004016106b4929190613c7a565b6000610f786205460087613e5e565b9050804211610fbc576040517fdd8a13d2000000000000000000000000000000000000000000000000000000008152426004820152602481018290526044016106b4565b6040517efdd58e000000000000000000000000000000000000000000000000000000008152306004820152602481018890526000906001600160a01b038a169062fdd58e90604401602060405180830381865afa158015611021573d6000803e3d6000fd5b505050506040513d601f19601f820116820180604052508101906110459190613c95565b6000546040517fe4dc2aa40000000000000000000000000000000000000000000000000000000081526001600160a01b038f811660048301529293506101f4929091169063e4dc2aa490602401602060405180830381865afa1580156110af573d6000803e3d6000fd5b505050506040513d601f19601f820116820180604052508101906110d39190613c95565b6110df836103e8613e76565b6110e99190613eb3565b11156112855760405130602482015260448101829052600090606401604051602081830303815290604052639dc29fac60e01b6020820180517bffffffffffffffffffffffffffffffffffffffffffffffffffffffff838183161783525050505090508c6001600160a01b031663601b8af3600160009054906101000a90046001600160a01b0316838f8f6040518563ffffffff1660e01b81526004016111939493929190613cfd565b6000604051808303816000875af11580156111b2573d6000803e3d6000fd5b505050506040513d6000823e601f3d908101601f191682016040526111da9190810190613d6c565b50506001600160a01b038d1660009081526003602052604090206001018054600291907fffffffffffffffffffffff00ffffffffffffffffffffffffffffffffffffffff1674010000000000000000000000000000000000000000830217905550866001600160a01b03167f75ba84bbdf05f795a76fbea1eff9560588a68bf79c097aedad8a43a6c393cf218e6002604051611277929190613f05565b60405180910390a2506113b9565b6001600160a01b038c811660009081526003602081905260408083208381556001810180547fffffffffffffffffffffff000000000000000000000000000000000000000000169055600281018490559182018390556004918201839055517ff242432a00000000000000000000000000000000000000000000000000000000815230918101919091528883166024820152604481018b90526064810184905260a0608482015260a4810191909152908a169063f242432a9060c401600060405180830381600087803b15801561135b57600080fd5b505af115801561136f573d6000803e3d6000fd5b5050505061137d868561325a565b856001600160a01b03167f75ba84bbdf05f795a76fbea1eff9560588a68bf79c097aedad8a43a6c393cf218d6000604051610a65929190613f05565b505050505050505050505050565b600080546040517f42d19ef40000000000000000000000000000000000000000000000000000000081526001600160a01b038681166004830152909116906342d19ef4906024016040805180830381865afa15801561142a573d6000803e3d6000fd5b505050506040513d601f19601f8201168201806040525081019061144e9190613be9565b91505080600003611496576040517fe9d601610000000000000000000000000000000000000000000000000000000081526001600160a01b03851660048201526024016106b4565b6040517fb5bb74a70000000000000000000000000000000000000000000000000000000081526001600160a01b0385166004820152600090309063b5bb74a79060240160c060405180830381865afa1580156114f6573d6000803e3d6000fd5b505050506040513d601f19601f8201168201806040525081019061151a9190613c17565b5050509250505060008060028111156115355761153561384d565b8260028111156115475761154761384d565b146115825780826040517f77e5c5f20000000000000000000000000000000000000000000000000000000081526004016106b4929190613c7a565b600080546040517fe4dc2aa40000000000000000000000000000000000000000000000000000000081526001600160a01b0389811660048301529091169063e4dc2aa490602401602060405180830381865afa1580156115e6573d6000803e3d6000fd5b505050506040513d601f19601f8201168201806040525081019061160a9190613c95565b6040513360248201526044810182905290915060009060640160408051601f198184030181529181526020820180517bffffffffffffffffffffffffffffffffffffffffffffffffffffffff167f9dc29fac0000000000000000000000000000000000000000000000000000000017905260015490517f601b8af30000000000000000000000000000000000000000000000000000000081529192506001600160a01b03808b169263601b8af3926116cc92169085908c908c90600401613cfd565b6000604051808303816000875af11580156116eb573d6000803e3d6000fd5b505050506040513d6000823e601f3d908101601f191682016040526117139190810190613d6c565b50506001600160a01b0388166000818152600360209081526040918290206001018054740200000000000000000000000000000000000000007fffffffffffffffffffffff00ffffffffffffffffffffffffffffffffffffffff339081167fffffffffffffffffffffff0000000000000000000000000000000000000000009093169290921717909155915192835290917f2f39d8fc9160ae00ea6a02229ae376184d7ad48d669c511863fedeb3f6f27edf910160405180910390a25050505050505050565b600080546040517f42d19ef40000000000000000000000000000000000000000000000000000000081526001600160a01b038c81166004830152909116906342d19ef4906024016040805180830381865afa15801561183c573d6000803e3d6000fd5b505050506040513d601f19601f820116820180604052508101906118609190613be9565b915050806000036118a8576040517fe9d601610000000000000000000000000000000000000000000000000000000081526001600160a01b038b1660048201526024016106b4565b6040517fb5bb74a70000000000000000000000000000000000000000000000000000000081526001600160a01b038b1660048201526000908190309063b5bb74a79060240160c060405180830381865afa15801561190a573d6000803e3d6000fd5b505050506040513d601f19601f8201168201806040525081019061192e9190613c17565b50929550909350600292508291506119439050565b8260028111156119555761195561384d565b146119905780826040517f77e5c5f20000000000000000000000000000000000000000000000000000000081526004016106b4929190613c7a565b336001600160a01b038416146119d2576040517f618c724200000000000000000000000000000000000000000000000000000000815260040160405180910390fd5b505050506000888a89898989896040516024016119f59796959493929190613f22565b60408051601f198184030181529181526020820180517bffffffffffffffffffffffffffffffffffffffffffffffffffffffff167f76aa79b20000000000000000000000000000000000000000000000000000000017905260025490517f601b8af30000000000000000000000000000000000000000000000000000000081529192506001600160a01b03808d169263601b8af392611a9e921690859088908890600401613cfd565b6000604051808303816000875af1158015611abd573d6000803e3d6000fd5b505050506040513d6000823e601f3d908101601f191682016040526113b99190810190613d6c565b600080546040517f42d19ef40000000000000000000000000000000000000000000000000000000081526001600160a01b038581166004830152839216906342d19ef4906024016040805180830381865afa158015611b48573d6000803e3d6000fd5b505050506040513d601f19601f82011682018060405250810190611b6c9190613be9565b9150915080600003611bb5576040517fe9d601610000000000000000000000000000000000000000000000000000000081526001600160a01b03851660048201526024016106b4565b6040517fb5bb74a70000000000000000000000000000000000000000000000000000000081526001600160a01b038516600482015260009081908190309063b5bb74a79060240160c060405180830381865afa158015611c19573d6000803e3d6000fd5b505050506040513d601f19601f82011682018060405250810190611c3d9190613c17565b50939650909450925060019150819050836002811115611c5f57611c5f61384d565b14611c9a5780836040517f77e5c5f20000000000000000000000000000000000000000000000000000000081526004016106b4929190613c7a565b6000611ca96205460086613e5e565b905080421115611cee576040517f234cf524000000000000000000000000000000000000000000000000000000008152426004820152602481018290526044016106b4565b611cf88884613e76565b3414611d30576040517f3c6b4b2800000000000000000000000000000000000000000000000000000000815260040160405180910390fd5b6040517ff242432a000000000000000000000000000000000000000000000000000000008152306004820152336024820152604481018790526064810189905260a06084820152600060a48201526001600160a01b0388169063f242432a9060c401600060405180830381600087803b158015611dac57600080fd5b505af1158015611dc0573d6000803e3d6000fd5b505050506001600160a01b03891660009081526003602081905260408220018054349290611def908490613e5e565b909155505060405188815233907ff784c92911ce2a81c1346b2010b48ca71be7f4478ad7ba7450316c16e085c1959060200160405180910390a2505050505050505050565b600080546040517f42d19ef40000000000000000000000000000000000000000000000000000000081526001600160a01b038981166004830152909116906342d19ef4906024016040805180830381865afa158015611e97573d6000803e3d6000fd5b505050506040513d601f19601f82011682018060405250810190611ebb9190613be9565b91505080600003611f03576040517fe9d601610000000000000000000000000000000000000000000000000000000081526001600160a01b03881660048201526024016106b4565b6040517fb5bb74a70000000000000000000000000000000000000000000000000000000081526001600160a01b03881660048201526000908190309063b5bb74a79060240160c060405180830381865afa158015611f65573d6000803e3d6000fd5b505050506040513d601f19601f82011682018060405250810190611f899190613c17565b5092955090935060029250829150611f9e9050565b826002811115611fb057611fb061384d565b14611feb5780826040517f77e5c5f20000000000000000000000000000000000000000000000000000000081526004016106b4929190613c7a565b336001600160a01b0384161461202d576040517f618c724200000000000000000000000000000000000000000000000000000000815260040160405180910390fd5b6040516001600160a01b03808b166024830152808c166044830152891660648201526084810188905260009060a40160408051601f198184030181529181526020820180517bffffffffffffffffffffffffffffffffffffffffffffffffffffffff167f18c4eeed0000000000000000000000000000000000000000000000000000000017905260025490517f601b8af30000000000000000000000000000000000000000000000000000000081529192506001600160a01b03808e169263601b8af39261210592169085908c908c90600401613cfd565b6000604051808303816000875af1158015612124573d6000803e3d6000fd5b505050506040513d6000823e601f3d908101601f1916820160405261214c9190810190613d6c565b50505050505050505050505050565b6060818067ffffffffffffffff81111561217757612177613d3d565b6040519080825280602002602001820160405280156121aa57816020015b60608152602001906001900390816121955790505b5091506000805b82811015612277576060308787848181106121ce576121ce613f78565b90506020028101906121e09190613fa7565b6040516121ee92919061400c565b600060405180830381855af49150503d8060008114612229576040519150601f19603f3d011682016040523d82523d6000602084013e61222e565b606091505b5090935090508261225057805160000361224757600080fd5b61225081613375565b8085838151811061226357612263613f78565b6020908102919091010152506001016121b1565b50505092915050565b6040517fcfa8fb4200000000000000000000000000000000000000000000000000000000815233600482015230602482015285151560448201526064810185905260ff8416608482015260a4810183905260c481018290526001600160a01b0387169063cfa8fb429060e401600060405180830381600087803b15801561230657600080fd5b505af115801561231a573d6000803e3d6000fd5b50505050505050505050565b600080546040517f42d19ef40000000000000000000000000000000000000000000000000000000081526001600160a01b038981166004830152909116906342d19ef4906024016040805180830381865afa158015612389573d6000803e3d6000fd5b505050506040513d601f19601f820116820180604052508101906123ad9190613be9565b915050806000036123f5576040517fe9d601610000000000000000000000000000000000000000000000000000000081526001600160a01b03881660048201526024016106b4565b6040517fb5bb74a70000000000000000000000000000000000000000000000000000000081526001600160a01b03881660048201526000908190309063b5bb74a79060240160c060405180830381865afa158015612457573d6000803e3d6000fd5b505050506040513d601f19601f8201168201806040525081019061247b9190613c17565b50929550909350600292508291506124909050565b8260028111156124a2576124a261384d565b146124dd5780826040517f77e5c5f20000000000000000000000000000000000000000000000000000000081526004016106b4929190613c7a565b336001600160a01b0384161461251f576040517f618c724200000000000000000000000000000000000000000000000000000000815260040160405180910390fd5b6040516001600160a01b03808b166024830152891660448201526064810188905260009060840160408051601f198184030181529181526020820180517bffffffffffffffffffffffffffffffffffffffffffffffffffffffff167fe59fdd360000000000000000000000000000000000000000000000000000000017905260025490517f601b8af30000000000000000000000000000000000000000000000000000000081529192506001600160a01b03808e169263601b8af39261210592169085908c908c90600401613cfd565b60408051600580825260c08201909252606091816020015b60408051606081018252600080825260208083018290529282015282527fffffffffffffffffffffffffffffffffffffffffffffffffffffffffffffffff909201910181612607575050604080516060810182523081526001546001600160a01b031660208201527f9dc29fac000000000000000000000000000000000000000000000000000000009181019190915281519192509082906000906126ae576126ae613f78565b602090810291909101810191909152604080516060810182523081526002546001600160a01b0316928101929092527fe59fdd36000000000000000000000000000000000000000000000000000000009082015281518290600190811061271757612717613f78565b60209081029190910181019190915260408051606081018252308152600280546001600160a01b0316938201939093527f18c4eeed0000000000000000000000000000000000000000000000000000000091810191909152825190918391811061278357612783613f78565b602090810291909101810191909152604080516060810182523081526002546001600160a01b0316928101929092527f68e72e4900000000000000000000000000000000000000000000000000000000908201528151829060039081106127ec576127ec613f78565b602090810291909101810191909152604080516060810182523081526002546001600160a01b0316928101929092527f76aa79b2000000000000000000000000000000000000000000000000000000009082015281518290600490811061285557612855613f78565b602002602001018190525090565b600080546040517f42d19ef40000000000000000000000000000000000000000000000000000000081526001600160a01b038a81166004830152909116906342d19ef4906024016040805180830381865afa1580156128c6573d6000803e3d6000fd5b505050506040513d601f19601f820116820180604052508101906128ea9190613be9565b91505080600003612932576040517fe9d601610000000000000000000000000000000000000000000000000000000081526001600160a01b03891660048201526024016106b4565b6040517fb5bb74a70000000000000000000000000000000000000000000000000000000081526001600160a01b03891660048201526000908190309063b5bb74a79060240160c060405180830381865afa158015612994573d6000803e3d6000fd5b505050506040513d601f19601f820116820180604052508101906129b89190613c17565b50929550909350600292508291506129cd9050565b8260028111156129df576129df61384d565b14612a1a5780826040517f77e5c5f20000000000000000000000000000000000000000000000000000000081526004016106b4929190613c7a565b336001600160a01b03841614612a5c576040517f618c724200000000000000000000000000000000000000000000000000000000815260040160405180910390fd5b50506040516001600160a01b03808a166024830152808b166044830152881660648201526084810187905260a481018690526000925060c401905060408051601f198184030181529181526020820180517bffffffffffffffffffffffffffffffffffffffffffffffffffffffff167f68e72e490000000000000000000000000000000000000000000000000000000017905260025490517f601b8af30000000000000000000000000000000000000000000000000000000081529192506001600160a01b03808b169263601b8af392612b40921690859088908890600401613cfd565b6000604051808303816000875af1158015612b5f573d6000803e3d6000fd5b505050506040513d6000823e601f3d908101601f1916820160405261231a9190810190613d6c565b60408051600580825260c082019092526060916020820160a0803683370190505090506000612bb46125ef565b905060005b8151811015612c6757818181518110612bd457612bd4613f78565b6020908102919091018101516040805182516001600160a01b0390811682860152938301519093168382015201517fffffffff0000000000000000000000000000000000000000000000000000000016606082015260800160405160208183030381529060405280519060200120838281518110612c5457612c54613f78565b6020908102919091010152600101612bb9565b505090565b34600003612ca6576040517f56316e8700000000000000000000000000000000000000000000000000000000815260040160405180910390fd5b600080546040517f42d19ef40000000000000000000000000000000000000000000000000000000081526001600160a01b038481166004830152839216906342d19ef4906024016040805180830381865afa158015612d09573d6000803e3d6000fd5b505050506040513d601f19601f82011682018060405250810190612d2d9190613be9565b9150915080600003612d76576040517fe9d601610000000000000000000000000000000000000000000000000000000081526001600160a01b03841660048201526024016106b4565b6040517fb5bb74a70000000000000000000000000000000000000000000000000000000081526001600160a01b0384166004820152600090309063b5bb74a79060240160c060405180830381865afa158015612dd6573d6000803e3d6000fd5b505050506040513d601f19601f82011682018060405250810190612dfa9190613c17565b505050925050506000806002811115612e1557612e1561384d565b826002811115612e2757612e2761384d565b14612e625780826040517f77e5c5f20000000000000000000000000000000000000000000000000000000081526004016106b4929190613c7a565b600080546040517fe4dc2aa40000000000000000000000000000000000000000000000000000000081526001600160a01b0388811660048301529091169063e4dc2aa490602401602060405180830381865afa158015612ec6573d6000803e3d6000fd5b505050506040513d601f19601f82011682018060405250810190612eea9190613c95565b6040517efdd58e000000000000000000000000000000000000000000000000000000008152336004820152602481018690529091506000906001600160a01b0387169062fdd58e90604401602060405180830381865afa158015612f52573d6000803e3d6000fd5b505050506040513d601f19601f82011682018060405250810190612f769190613c95565b6040517ff242432a000000000000000000000000000000000000000000000000000000008152336004820152306024820152604481018790526064810182905260a06084820152600060a48201529091506001600160a01b0387169063f242432a9060c401600060405180830381600087803b158015612ff557600080fd5b505af1158015613009573d6000803e3d6000fd5b5050505060008282606461301d9190613e76565b6130279190613eb3565b613032906064613eee565b61303d346064613e76565b6130479190613eb3565b905060006130558483613eb3565b6040805160c08101825242815233602082015291925081016001815260208082018490523460408084019190915260609092018790526001600160a01b03808d166000908152600383528390208451815591840151600183018054919092167fffffffffffffffffffffffff00000000000000000000000000000000000000008216811783559385015192937fffffffffffffffffffffff000000000000000000000000000000000000000000909116177401000000000000000000000000000000000000000083600281111561312e5761312e61384d565b021790555060608281015160028301556080830151600383015560a090920151600490910155604080514281526020810185905290810183905233916001600160a01b038c16917f6da98559a575ee7b022dcfd0d5f5bfd8650e70446c2b2b663fa7b7f3a18b2d09910160405180910390a3505050505050505050565b6040517f2ccd9ed40000000000000000000000000000000000000000000000000000000081523360048201523060248201526044810187905285151560648201526084810185905260ff841660a482015260c4810183905260e481018290526001600160a01b03881690632ccd9ed49061010401600060405180830381600087803b15801561323957600080fd5b505af115801561324d573d6000803e3d6000fd5b5050505050505050505050565b613264828261337e565b6133715773c02aaa39b223fe8d0a0e5c4f27ead9083c756cc26001600160a01b031663d0e30db0826040518263ffffffff1660e01b81526004016000604051808303818588803b1580156132b757600080fd5b505af11580156132cb573d6000803e3d6000fd5b50506040517fa9059cbb0000000000000000000000000000000000000000000000000000000081526001600160a01b03861660048201526024810185905273c02aaa39b223fe8d0a0e5c4f27ead9083c756cc2935063a9059cbb925060440190506020604051808303816000875af115801561334b573d6000803e3d6000fd5b505050506040513d601f19601f8201168201806040525081019061336f919061401c565b505b5050565b80518082602001fd5b600080600080600085875af19392505050565b6001600160a01b03811681146133a657600080fd5b50565b60008083601f8401126133bb57600080fd5b50813567ffffffffffffffff8111156133d357600080fd5b6020830191508360208285010111156133eb57600080fd5b9250929050565b60008060008060006080868803121561340a57600080fd5b853561341581613391565b9450602086013561342581613391565b935060408601359250606086013567ffffffffffffffff81111561344857600080fd5b613454888289016133a9565b969995985093965092949392505050565b60008083601f84011261347757600080fd5b50813567ffffffffffffffff81111561348f57600080fd5b6020830191508360208260051b85010111156133eb57600080fd5b6000806000604084860312156134bf57600080fd5b83356134ca81613391565b9250602084013567ffffffffffffffff8111156134e657600080fd5b6134f286828701613465565b9497909650939450505050565b6000806040838503121561351257600080fd5b823561351d81613391565b946020939093013593505050565b600080600080600080600080600060c08a8c03121561354957600080fd5b893561355481613391565b985060208a013561356481613391565b975060408a013561357481613391565b965060608a013567ffffffffffffffff8082111561359157600080fd5b61359d8d838e01613465565b909850965060808c01359150808211156135b657600080fd5b6135c28d838e01613465565b909650945060a08c01359150808211156135db57600080fd5b506135e88c828d01613465565b915080935050809150509295985092959850929598565b60008060008060008060a0878903121561361857600080fd5b863561362381613391565b9550602087013561363381613391565b9450604087013561364381613391565b935060608701359250608087013567ffffffffffffffff81111561366657600080fd5b61367289828a01613465565b979a9699509497509295939492505050565b6000806020838503121561369757600080fd5b823567ffffffffffffffff8111156136ae57600080fd5b6136ba85828601613465565b90969095509350505050565b60005b838110156136e15781810151838201526020016136c9565b838111156136f0576000848401525b50505050565b6000815180845261370e8160208601602086016136c6565b601f01601f19169290920160200192915050565b6000602080830181845280855180835260408601915060408160051b870101925083870160005b82811015613795577fffffffffffffffffffffffffffffffffffffffffffffffffffffffffffffffc08886030184526137838583516136f6565b94509285019290850190600101613749565b5092979650505050505050565b80151581146133a657600080fd5b803560ff811681146137c157600080fd5b919050565b60008060008060008060c087890312156137df57600080fd5b86356137ea81613391565b955060208701356137fa816137a2565b94506040870135935061380f606088016137b0565b92506080870135915060a087013590509295509295509295565b60006020828403121561383b57600080fd5b813561384681613391565b9392505050565b7f4e487b7100000000000000000000000000000000000000000000000000000000600052602160045260246000fd5b600381106138b3577f4e487b7100000000000000000000000000000000000000000000000000000000600052602160045260246000fd5b9052565b8681526001600160a01b038616602082015260c081016138da604083018761387c565b8460608301528360808301528260a0830152979650505050505050565b60008060008060008060008060a0898b03121561391357600080fd5b883561391e81613391565b9750602089013561392e81613391565b9650604089013567ffffffffffffffff8082111561394b57600080fd5b6139578c838d01613465565b909850965060608b013591508082111561397057600080fd5b61397c8c838d01613465565b909650945060808b013591508082111561399557600080fd5b506139a28b828c016133a9565b999c989b5096995094979396929594505050565b6020808252825182820181905260009190848201906040850190845b81811015613a3e57613a2b8385516001600160a01b03808251168352806020830151166020840152507fffffffff0000000000000000000000000000000000000000000000000000000060408201511660408301525050565b92840192606092909201916001016139d2565b50909695505050505050565b600080600080600080600060c0888a031215613a6557600080fd5b8735613a7081613391565b96506020880135613a8081613391565b95506040880135613a9081613391565b9450606088013593506080880135925060a088013567ffffffffffffffff811115613aba57600080fd5b613ac68a828b01613465565b989b979a50959850939692959293505050565b6020808252825182820181905260009190848201906040850190845b81811015613a3e57835183529284019291840191600101613af5565b600080600080600080600060e0888a031215613b2c57600080fd5b8735613b3781613391565b9650602088013595506040880135613b4e816137a2565b945060608801359350613b63608089016137b0565b925060a0880135915060c0880135905092959891949750929550565b60008060008060008060a08789031215613b9857600080fd5b8635613ba381613391565b95506020870135613bb381613391565b94506040870135935060608701359250608087013567ffffffffffffffff811115613bdd57600080fd5b61367289828a016133a9565b60008060408385031215613bfc57600080fd5b8251613c0781613391565b6020939093015192949293505050565b60008060008060008060c08789031215613c3057600080fd5b865195506020870151613c4281613391565b604088015190955060038110613c5757600080fd5b80945050606087015192506080870151915060a087015190509295509295509295565b60408101613c88828561387c565b613846602083018461387c565b600060208284031215613ca757600080fd5b5051919050565b81835260007f07ffffffffffffffffffffffffffffffffffffffffffffffffffffffffffffff831115613ce057600080fd5b8260051b8083602087013760009401602001938452509192915050565b6001600160a01b0385168152606060208201526000613d1f60608301866136f6565b8281036040840152613d32818587613cae565b979650505050505050565b7f4e487b7100000000000000000000000000000000000000000000000000000000600052604160045260246000fd5b60008060408385031215613d7f57600080fd5b8251613d8a816137a2565b602084015190925067ffffffffffffffff80821115613da857600080fd5b818501915085601f830112613dbc57600080fd5b815181811115613dce57613dce613d3d565b604051601f8201601f19908116603f01168101908382118183101715613df657613df6613d3d565b81604052828152886020848701011115613e0f57600080fd5b613e208360208301602088016136c6565b80955050505050509250929050565b7f4e487b7100000000000000000000000000000000000000000000000000000000600052601160045260246000fd5b60008219821115613e7157613e71613e2f565b500190565b6000817fffffffffffffffffffffffffffffffffffffffffffffffffffffffffffffffff0483118215151615613eae57613eae613e2f565b500290565b600082613ee9577f4e487b7100000000000000000000000000000000000000000000000000000000600052601260045260246000fd5b500490565b600082821015613f0057613f00613e2f565b500390565b6001600160a01b038316815260408101613846602083018461387c565b60006001600160a01b03808a168352808916602084015280881660408401525060a06060830152613f5760a083018688613cae565b8281036080840152613f6a818587613cae565b9a9950505050505050505050565b7f4e487b7100000000000000000000000000000000000000000000000000000000600052603260045260246000fd5b60008083357fffffffffffffffffffffffffffffffffffffffffffffffffffffffffffffffe1843603018112613fdc57600080fd5b83018035915067ffffffffffffffff821115613ff757600080fd5b6020019150368190038213156133eb57600080fd5b8183823760009101908152919050565b60006020828403121561402e57600080fd5b8151613846816137a256fea26469706673582212206e40ed762de81ed297232d4bac6398a1099920beaad73c9f5bf3cf309f03615d64736f6c634300080d0033",
  "linkReferences": {},
  "deployedLinkReferences": {}
}